{
	"contracts/registrasi.sol": {
		"ConsultationRegist": {
			"abi": [
				{
					"inputs": [
						{
							"internalType": "address",
							"name": "_rolesContractAddress",
							"type": "address"
						}
					],
					"stateMutability": "nonpayable",
					"type": "constructor"
				},
				{
					"inputs": [
						{
							"internalType": "uint256",
							"name": "",
							"type": "uint256"
						}
					],
					"name": "accountsWithRegistrations",
					"outputs": [
						{
							"internalType": "address",
							"name": "",
							"type": "address"
						}
					],
					"stateMutability": "view",
					"type": "function"
				},
				{
					"inputs": [
						{
							"internalType": "address",
							"name": "_wallet",
							"type": "address"
						},
						{
							"internalType": "string",
							"name": "_nama",
							"type": "string"
						},
						{
							"internalType": "string",
							"name": "_telepon",
							"type": "string"
						},
						{
							"internalType": "string",
							"name": "_namaDokter",
							"type": "string"
						},
						{
							"internalType": "string",
							"name": "_sesi",
							"type": "string"
						},
						{
							"internalType": "string",
							"name": "_tanggal",
							"type": "string"
						},
						{
							"internalType": "string",
							"name": "_keluhan",
							"type": "string"
						},
						{
							"internalType": "string",
							"name": "_gender",
							"type": "string"
						}
					],
					"name": "addRegistration",
					"outputs": [],
					"stateMutability": "nonpayable",
					"type": "function"
				},
				{
					"inputs": [
						{
							"internalType": "uint256",
							"name": "offset",
							"type": "uint256"
						}
					],
					"name": "getAllRegistrations",
					"outputs": [
						{
							"components": [
								{
									"internalType": "string",
									"name": "nama",
									"type": "string"
								},
								{
									"internalType": "string",
									"name": "telepon",
									"type": "string"
								},
								{
									"internalType": "string",
									"name": "namaDokter",
									"type": "string"
								},
								{
									"internalType": "string",
									"name": "sesi",
									"type": "string"
								},
								{
									"internalType": "string",
									"name": "tanggal",
									"type": "string"
								},
								{
									"internalType": "string",
									"name": "keluhan",
									"type": "string"
								},
								{
									"internalType": "string",
									"name": "gender",
									"type": "string"
								},
								{
									"internalType": "address",
									"name": "wallet",
									"type": "address"
								}
							],
							"internalType": "struct ConsultationRegist.Data[]",
							"name": "",
							"type": "tuple[]"
						}
					],
					"stateMutability": "view",
					"type": "function"
				},
				{
					"inputs": [],
					"name": "getRegistrationEvidence",
					"outputs": [
						{
							"components": [
								{
									"internalType": "string",
									"name": "nama",
									"type": "string"
								},
								{
									"internalType": "string",
									"name": "telepon",
									"type": "string"
								},
								{
									"internalType": "string",
									"name": "namaDokter",
									"type": "string"
								},
								{
									"internalType": "string",
									"name": "sesi",
									"type": "string"
								},
								{
									"internalType": "string",
									"name": "tanggal",
									"type": "string"
								},
								{
									"internalType": "string",
									"name": "keluhan",
									"type": "string"
								},
								{
									"internalType": "string",
									"name": "gender",
									"type": "string"
								},
								{
									"internalType": "address",
									"name": "wallet",
									"type": "address"
								}
							],
							"internalType": "struct ConsultationRegist.Data[]",
							"name": "",
							"type": "tuple[]"
						}
					],
					"stateMutability": "view",
					"type": "function"
				},
				{
					"inputs": [],
					"name": "registrationCount",
					"outputs": [
						{
							"internalType": "uint256",
							"name": "",
							"type": "uint256"
						}
					],
					"stateMutability": "view",
					"type": "function"
				},
				{
					"inputs": [
						{
							"internalType": "address",
							"name": "",
							"type": "address"
						},
						{
							"internalType": "uint256",
							"name": "",
							"type": "uint256"
						}
					],
					"name": "registrations",
					"outputs": [
						{
							"internalType": "string",
							"name": "nama",
							"type": "string"
						},
						{
							"internalType": "string",
							"name": "telepon",
							"type": "string"
						},
						{
							"internalType": "string",
							"name": "namaDokter",
							"type": "string"
						},
						{
							"internalType": "string",
							"name": "sesi",
							"type": "string"
						},
						{
							"internalType": "string",
							"name": "tanggal",
							"type": "string"
						},
						{
							"internalType": "string",
							"name": "keluhan",
							"type": "string"
						},
						{
							"internalType": "string",
							"name": "gender",
							"type": "string"
						},
						{
							"internalType": "address",
							"name": "wallet",
							"type": "address"
						}
					],
					"stateMutability": "view",
					"type": "function"
				},
				{
					"inputs": [],
					"name": "roles",
					"outputs": [
						{
							"internalType": "contract UserRoles",
							"name": "",
							"type": "address"
						}
					],
					"stateMutability": "view",
					"type": "function"
				}
			],
			"devdoc": {
				"kind": "dev",
				"methods": {},
				"version": 1
			},
			"evm": {
				"assembly": "    /* \"contracts/registrasi.sol\":85:2408  contract ConsultationRegist {... */\n  mstore(0x40, 0x80)\n    /* \"contracts/registrasi.sol\":520:622  constructor(address _rolesContractAddress) {... */\n  callvalue\n  dup1\n  iszero\n  tag_1\n  jumpi\n  0x00\n  dup1\n  revert\ntag_1:\n  pop\n  mload(0x40)\n  sub(codesize, bytecodeSize)\n  dup1\n  bytecodeSize\n  dup4\n  codecopy\n  dup2\n  dup2\n  add\n  0x40\n  mstore\n  dup2\n  add\n  swap1\n  tag_2\n  swap2\n  swap1\n  tag_3\n  jump\t// in\ntag_2:\n    /* \"contracts/registrasi.sol\":592:613  _rolesContractAddress */\n  dup1\n    /* \"contracts/registrasi.sol\":574:579  roles */\n  0x00\n  dup1\n    /* \"contracts/registrasi.sol\":574:614  roles = UserRoles(_rolesContractAddress) */\n  0x0100\n  exp\n  dup2\n  sload\n  dup2\n  0xffffffffffffffffffffffffffffffffffffffff\n  mul\n  not\n  and\n  swap1\n  dup4\n  0xffffffffffffffffffffffffffffffffffffffff\n  and\n  mul\n  or\n  swap1\n  sstore\n  pop\n    /* \"contracts/registrasi.sol\":520:622  constructor(address _rolesContractAddress) {... */\n  pop\n    /* \"contracts/registrasi.sol\":85:2408  contract ConsultationRegist {... */\n  jump(tag_6)\n    /* \"#utility.yul\":88:205   */\ntag_8:\n    /* \"#utility.yul\":197:198   */\n  0x00\n    /* \"#utility.yul\":194:195   */\n  dup1\n    /* \"#utility.yul\":187:199   */\n  revert\n    /* \"#utility.yul\":334:460   */\ntag_10:\n    /* \"#utility.yul\":371:378   */\n  0x00\n    /* \"#utility.yul\":411:453   */\n  0xffffffffffffffffffffffffffffffffffffffff\n    /* \"#utility.yul\":404:409   */\n  dup3\n    /* \"#utility.yul\":400:454   */\n  and\n    /* \"#utility.yul\":389:454   */\n  swap1\n  pop\n    /* \"#utility.yul\":334:460   */\n  swap2\n  swap1\n  pop\n  jump\t// out\n    /* \"#utility.yul\":466:562   */\ntag_11:\n    /* \"#utility.yul\":503:510   */\n  0x00\n    /* \"#utility.yul\":532:556   */\n  tag_20\n    /* \"#utility.yul\":550:555   */\n  dup3\n    /* \"#utility.yul\":532:556   */\n  tag_10\n  jump\t// in\ntag_20:\n    /* \"#utility.yul\":521:556   */\n  swap1\n  pop\n    /* \"#utility.yul\":466:562   */\n  swap2\n  swap1\n  pop\n  jump\t// out\n    /* \"#utility.yul\":568:690   */\ntag_12:\n    /* \"#utility.yul\":641:665   */\n  tag_22\n    /* \"#utility.yul\":659:664   */\n  dup2\n    /* \"#utility.yul\":641:665   */\n  tag_11\n  jump\t// in\ntag_22:\n    /* \"#utility.yul\":634:639   */\n  dup2\n    /* \"#utility.yul\":631:666   */\n  eq\n    /* \"#utility.yul\":621:684   */\n  tag_23\n  jumpi\n    /* \"#utility.yul\":680:681   */\n  0x00\n    /* \"#utility.yul\":677:678   */\n  dup1\n    /* \"#utility.yul\":670:682   */\n  revert\n    /* \"#utility.yul\":621:684   */\ntag_23:\n    /* \"#utility.yul\":568:690   */\n  pop\n  jump\t// out\n    /* \"#utility.yul\":696:839   */\ntag_13:\n    /* \"#utility.yul\":753:758   */\n  0x00\n    /* \"#utility.yul\":784:790   */\n  dup2\n    /* \"#utility.yul\":778:791   */\n  mload\n    /* \"#utility.yul\":769:791   */\n  swap1\n  pop\n    /* \"#utility.yul\":800:833   */\n  tag_25\n    /* \"#utility.yul\":827:832   */\n  dup2\n    /* \"#utility.yul\":800:833   */\n  tag_12\n  jump\t// in\ntag_25:\n    /* \"#utility.yul\":696:839   */\n  swap3\n  swap2\n  pop\n  pop\n  jump\t// out\n    /* \"#utility.yul\":845:1196   */\ntag_3:\n    /* \"#utility.yul\":915:921   */\n  0x00\n    /* \"#utility.yul\":964:966   */\n  0x20\n    /* \"#utility.yul\":952:961   */\n  dup3\n    /* \"#utility.yul\":943:950   */\n  dup5\n    /* \"#utility.yul\":939:962   */\n  sub\n    /* \"#utility.yul\":935:967   */\n  slt\n    /* \"#utility.yul\":932:1051   */\n  iszero\n  tag_27\n  jumpi\n    /* \"#utility.yul\":970:1049   */\n  tag_28\n  tag_8\n  jump\t// in\ntag_28:\n    /* \"#utility.yul\":932:1051   */\ntag_27:\n    /* \"#utility.yul\":1090:1091   */\n  0x00\n    /* \"#utility.yul\":1115:1179   */\n  tag_29\n    /* \"#utility.yul\":1171:1178   */\n  dup5\n    /* \"#utility.yul\":1162:1168   */\n  dup3\n    /* \"#utility.yul\":1151:1160   */\n  dup6\n    /* \"#utility.yul\":1147:1169   */\n  add\n    /* \"#utility.yul\":1115:1179   */\n  tag_13\n  jump\t// in\ntag_29:\n    /* \"#utility.yul\":1105:1179   */\n  swap2\n  pop\n    /* \"#utility.yul\":1061:1189   */\n  pop\n    /* \"#utility.yul\":845:1196   */\n  swap3\n  swap2\n  pop\n  pop\n  jump\t// out\n    /* \"contracts/registrasi.sol\":85:2408  contract ConsultationRegist {... */\ntag_6:\n  dataSize(sub_0)\n  dup1\n  dataOffset(sub_0)\n  0x00\n  codecopy\n  0x00\n  return\nstop\n\nsub_0: assembly {\n        /* \"contracts/registrasi.sol\":85:2408  contract ConsultationRegist {... */\n      mstore(0x40, 0x80)\n      callvalue\n      dup1\n      iszero\n      tag_1\n      jumpi\n      0x00\n      dup1\n      revert\n    tag_1:\n      pop\n      jumpi(tag_2, lt(calldatasize, 0x04))\n      shr(0xe0, calldataload(0x00))\n      dup1\n      0x392f5f64\n      gt\n      tag_10\n      jumpi\n      dup1\n      0x392f5f64\n      eq\n      tag_6\n      jumpi\n      dup1\n      0x46b5bef1\n      eq\n      tag_7\n      jumpi\n      dup1\n      0xad49d821\n      eq\n      tag_8\n      jumpi\n      dup1\n      0xc996b7cc\n      eq\n      tag_9\n      jumpi\n      jump(tag_2)\n    tag_10:\n      dup1\n      0x09052679\n      eq\n      tag_3\n      jumpi\n      dup1\n      0x0d3eafd6\n      eq\n      tag_4\n      jumpi\n      dup1\n      0x337c9ba6\n      eq\n      tag_5\n      jumpi\n    tag_2:\n      0x00\n      dup1\n      revert\n        /* \"contracts/registrasi.sol\":379:426  mapping(address => Data[]) public registrations */\n    tag_3:\n      tag_11\n      0x04\n      dup1\n      calldatasize\n      sub\n      dup2\n      add\n      swap1\n      tag_12\n      swap2\n      swap1\n      tag_13\n      jump\t// in\n    tag_12:\n      tag_14\n      jump\t// in\n    tag_11:\n      mload(0x40)\n      tag_15\n      swap9\n      swap8\n      swap7\n      swap6\n      swap5\n      swap4\n      swap3\n      swap2\n      swap1\n      tag_16\n      jump\t// in\n    tag_15:\n      mload(0x40)\n      dup1\n      swap2\n      sub\n      swap1\n      return\n        /* \"contracts/registrasi.sol\":482:511  uint public registrationCount */\n    tag_4:\n      tag_17\n      tag_18\n      jump\t// in\n    tag_17:\n      mload(0x40)\n      tag_19\n      swap2\n      swap1\n      tag_20\n      jump\t// in\n    tag_19:\n      mload(0x40)\n      dup1\n      swap2\n      sub\n      swap1\n      return\n        /* \"contracts/registrasi.sol\":1004:1504  function addRegistration(... */\n    tag_5:\n      tag_21\n      0x04\n      dup1\n      calldatasize\n      sub\n      dup2\n      add\n      swap1\n      tag_22\n      swap2\n      swap1\n      tag_23\n      jump\t// in\n    tag_22:\n      tag_24\n      jump\t// in\n    tag_21:\n      stop\n        /* \"contracts/registrasi.sol\":120:142  UserRoles public roles */\n    tag_6:\n      tag_25\n      tag_26\n      jump\t// in\n    tag_25:\n      mload(0x40)\n      tag_27\n      swap2\n      swap1\n      tag_28\n      jump\t// in\n    tag_27:\n      mload(0x40)\n      dup1\n      swap2\n      sub\n      swap1\n      return\n        /* \"contracts/registrasi.sol\":433:475  address[] public accountsWithRegistrations */\n    tag_7:\n      tag_29\n      0x04\n      dup1\n      calldatasize\n      sub\n      dup2\n      add\n      swap1\n      tag_30\n      swap2\n      swap1\n      tag_31\n      jump\t// in\n    tag_30:\n      tag_32\n      jump\t// in\n    tag_29:\n      mload(0x40)\n      tag_33\n      swap2\n      swap1\n      tag_34\n      jump\t// in\n    tag_33:\n      mload(0x40)\n      dup1\n      swap2\n      sub\n      swap1\n      return\n        /* \"contracts/registrasi.sol\":1744:2405  function getAllRegistrations(uint offset) public view onlyAdminOrDokter returns (Data[] memory) {... */\n    tag_8:\n      tag_35\n      0x04\n      dup1\n      calldatasize\n      sub\n      dup2\n      add\n      swap1\n      tag_36\n      swap2\n      swap1\n      tag_31\n      jump\t// in\n    tag_36:\n      tag_37\n      jump\t// in\n    tag_35:\n      mload(0x40)\n      tag_38\n      swap2\n      swap1\n      tag_39\n      jump\t// in\n    tag_38:\n      mload(0x40)\n      dup1\n      swap2\n      sub\n      swap1\n      return\n        /* \"contracts/registrasi.sol\":1553:1686  function getRegistrationEvidence() public view onlyPasien returns (Data[] memory) {... */\n    tag_9:\n      tag_40\n      tag_41\n      jump\t// in\n    tag_40:\n      mload(0x40)\n      tag_42\n      swap2\n      swap1\n      tag_39\n      jump\t// in\n    tag_42:\n      mload(0x40)\n      dup1\n      swap2\n      sub\n      swap1\n      return\n        /* \"contracts/registrasi.sol\":379:426  mapping(address => Data[]) public registrations */\n    tag_14:\n      mstore(0x20, 0x01)\n      dup2\n      0x00\n      mstore\n      keccak256(0x00, 0x40)\n      dup2\n      dup2\n      sload\n      dup2\n      lt\n      tag_43\n      jumpi\n      0x00\n      dup1\n      revert\n    tag_43:\n      swap1\n      0x00\n      mstore\n      keccak256(0x00, 0x20)\n      swap1\n      0x08\n      mul\n      add\n      0x00\n      swap2\n      pop\n      swap2\n      pop\n      pop\n      dup1\n      0x00\n      add\n      dup1\n      sload\n      tag_45\n      swap1\n      tag_46\n      jump\t// in\n    tag_45:\n      dup1\n      0x1f\n      add\n      0x20\n      dup1\n      swap2\n      div\n      mul\n      0x20\n      add\n      mload(0x40)\n      swap1\n      dup2\n      add\n      0x40\n      mstore\n      dup1\n      swap3\n      swap2\n      swap1\n      dup2\n      dup2\n      mstore\n      0x20\n      add\n      dup3\n      dup1\n      sload\n      tag_47\n      swap1\n      tag_46\n      jump\t// in\n    tag_47:\n      dup1\n      iszero\n      tag_48\n      jumpi\n      dup1\n      0x1f\n      lt\n      tag_49\n      jumpi\n      0x0100\n      dup1\n      dup4\n      sload\n      div\n      mul\n      dup4\n      mstore\n      swap2\n      0x20\n      add\n      swap2\n      jump(tag_48)\n    tag_49:\n      dup3\n      add\n      swap2\n      swap1\n      0x00\n      mstore\n      keccak256(0x00, 0x20)\n      swap1\n    tag_50:\n      dup2\n      sload\n      dup2\n      mstore\n      swap1\n      0x01\n      add\n      swap1\n      0x20\n      add\n      dup1\n      dup4\n      gt\n      tag_50\n      jumpi\n      dup3\n      swap1\n      sub\n      0x1f\n      and\n      dup3\n      add\n      swap2\n    tag_48:\n      pop\n      pop\n      pop\n      pop\n      pop\n      swap1\n      dup1\n      0x01\n      add\n      dup1\n      sload\n      tag_51\n      swap1\n      tag_46\n      jump\t// in\n    tag_51:\n      dup1\n      0x1f\n      add\n      0x20\n      dup1\n      swap2\n      div\n      mul\n      0x20\n      add\n      mload(0x40)\n      swap1\n      dup2\n      add\n      0x40\n      mstore\n      dup1\n      swap3\n      swap2\n      swap1\n      dup2\n      dup2\n      mstore\n      0x20\n      add\n      dup3\n      dup1\n      sload\n      tag_52\n      swap1\n      tag_46\n      jump\t// in\n    tag_52:\n      dup1\n      iszero\n      tag_53\n      jumpi\n      dup1\n      0x1f\n      lt\n      tag_54\n      jumpi\n      0x0100\n      dup1\n      dup4\n      sload\n      div\n      mul\n      dup4\n      mstore\n      swap2\n      0x20\n      add\n      swap2\n      jump(tag_53)\n    tag_54:\n      dup3\n      add\n      swap2\n      swap1\n      0x00\n      mstore\n      keccak256(0x00, 0x20)\n      swap1\n    tag_55:\n      dup2\n      sload\n      dup2\n      mstore\n      swap1\n      0x01\n      add\n      swap1\n      0x20\n      add\n      dup1\n      dup4\n      gt\n      tag_55\n      jumpi\n      dup3\n      swap1\n      sub\n      0x1f\n      and\n      dup3\n      add\n      swap2\n    tag_53:\n      pop\n      pop\n      pop\n      pop\n      pop\n      swap1\n      dup1\n      0x02\n      add\n      dup1\n      sload\n      tag_56\n      swap1\n      tag_46\n      jump\t// in\n    tag_56:\n      dup1\n      0x1f\n      add\n      0x20\n      dup1\n      swap2\n      div\n      mul\n      0x20\n      add\n      mload(0x40)\n      swap1\n      dup2\n      add\n      0x40\n      mstore\n      dup1\n      swap3\n      swap2\n      swap1\n      dup2\n      dup2\n      mstore\n      0x20\n      add\n      dup3\n      dup1\n      sload\n      tag_57\n      swap1\n      tag_46\n      jump\t// in\n    tag_57:\n      dup1\n      iszero\n      tag_58\n      jumpi\n      dup1\n      0x1f\n      lt\n      tag_59\n      jumpi\n      0x0100\n      dup1\n      dup4\n      sload\n      div\n      mul\n      dup4\n      mstore\n      swap2\n      0x20\n      add\n      swap2\n      jump(tag_58)\n    tag_59:\n      dup3\n      add\n      swap2\n      swap1\n      0x00\n      mstore\n      keccak256(0x00, 0x20)\n      swap1\n    tag_60:\n      dup2\n      sload\n      dup2\n      mstore\n      swap1\n      0x01\n      add\n      swap1\n      0x20\n      add\n      dup1\n      dup4\n      gt\n      tag_60\n      jumpi\n      dup3\n      swap1\n      sub\n      0x1f\n      and\n      dup3\n      add\n      swap2\n    tag_58:\n      pop\n      pop\n      pop\n      pop\n      pop\n      swap1\n      dup1\n      0x03\n      add\n      dup1\n      sload\n      tag_61\n      swap1\n      tag_46\n      jump\t// in\n    tag_61:\n      dup1\n      0x1f\n      add\n      0x20\n      dup1\n      swap2\n      div\n      mul\n      0x20\n      add\n      mload(0x40)\n      swap1\n      dup2\n      add\n      0x40\n      mstore\n      dup1\n      swap3\n      swap2\n      swap1\n      dup2\n      dup2\n      mstore\n      0x20\n      add\n      dup3\n      dup1\n      sload\n      tag_62\n      swap1\n      tag_46\n      jump\t// in\n    tag_62:\n      dup1\n      iszero\n      tag_63\n      jumpi\n      dup1\n      0x1f\n      lt\n      tag_64\n      jumpi\n      0x0100\n      dup1\n      dup4\n      sload\n      div\n      mul\n      dup4\n      mstore\n      swap2\n      0x20\n      add\n      swap2\n      jump(tag_63)\n    tag_64:\n      dup3\n      add\n      swap2\n      swap1\n      0x00\n      mstore\n      keccak256(0x00, 0x20)\n      swap1\n    tag_65:\n      dup2\n      sload\n      dup2\n      mstore\n      swap1\n      0x01\n      add\n      swap1\n      0x20\n      add\n      dup1\n      dup4\n      gt\n      tag_65\n      jumpi\n      dup3\n      swap1\n      sub\n      0x1f\n      and\n      dup3\n      add\n      swap2\n    tag_63:\n      pop\n      pop\n      pop\n      pop\n      pop\n      swap1\n      dup1\n      0x04\n      add\n      dup1\n      sload\n      tag_66\n      swap1\n      tag_46\n      jump\t// in\n    tag_66:\n      dup1\n      0x1f\n      add\n      0x20\n      dup1\n      swap2\n      div\n      mul\n      0x20\n      add\n      mload(0x40)\n      swap1\n      dup2\n      add\n      0x40\n      mstore\n      dup1\n      swap3\n      swap2\n      swap1\n      dup2\n      dup2\n      mstore\n      0x20\n      add\n      dup3\n      dup1\n      sload\n      tag_67\n      swap1\n      tag_46\n      jump\t// in\n    tag_67:\n      dup1\n      iszero\n      tag_68\n      jumpi\n      dup1\n      0x1f\n      lt\n      tag_69\n      jumpi\n      0x0100\n      dup1\n      dup4\n      sload\n      div\n      mul\n      dup4\n      mstore\n      swap2\n      0x20\n      add\n      swap2\n      jump(tag_68)\n    tag_69:\n      dup3\n      add\n      swap2\n      swap1\n      0x00\n      mstore\n      keccak256(0x00, 0x20)\n      swap1\n    tag_70:\n      dup2\n      sload\n      dup2\n      mstore\n      swap1\n      0x01\n      add\n      swap1\n      0x20\n      add\n      dup1\n      dup4\n      gt\n      tag_70\n      jumpi\n      dup3\n      swap1\n      sub\n      0x1f\n      and\n      dup3\n      add\n      swap2\n    tag_68:\n      pop\n      pop\n      pop\n      pop\n      pop\n      swap1\n      dup1\n      0x05\n      add\n      dup1\n      sload\n      tag_71\n      swap1\n      tag_46\n      jump\t// in\n    tag_71:\n      dup1\n      0x1f\n      add\n      0x20\n      dup1\n      swap2\n      div\n      mul\n      0x20\n      add\n      mload(0x40)\n      swap1\n      dup2\n      add\n      0x40\n      mstore\n      dup1\n      swap3\n      swap2\n      swap1\n      dup2\n      dup2\n      mstore\n      0x20\n      add\n      dup3\n      dup1\n      sload\n      tag_72\n      swap1\n      tag_46\n      jump\t// in\n    tag_72:\n      dup1\n      iszero\n      tag_73\n      jumpi\n      dup1\n      0x1f\n      lt\n      tag_74\n      jumpi\n      0x0100\n      dup1\n      dup4\n      sload\n      div\n      mul\n      dup4\n      mstore\n      swap2\n      0x20\n      add\n      swap2\n      jump(tag_73)\n    tag_74:\n      dup3\n      add\n      swap2\n      swap1\n      0x00\n      mstore\n      keccak256(0x00, 0x20)\n      swap1\n    tag_75:\n      dup2\n      sload\n      dup2\n      mstore\n      swap1\n      0x01\n      add\n      swap1\n      0x20\n      add\n      dup1\n      dup4\n      gt\n      tag_75\n      jumpi\n      dup3\n      swap1\n      sub\n      0x1f\n      and\n      dup3\n      add\n      swap2\n    tag_73:\n      pop\n      pop\n      pop\n      pop\n      pop\n      swap1\n      dup1\n      0x06\n      add\n      dup1\n      sload\n      tag_76\n      swap1\n      tag_46\n      jump\t// in\n    tag_76:\n      dup1\n      0x1f\n      add\n      0x20\n      dup1\n      swap2\n      div\n      mul\n      0x20\n      add\n      mload(0x40)\n      swap1\n      dup2\n      add\n      0x40\n      mstore\n      dup1\n      swap3\n      swap2\n      swap1\n      dup2\n      dup2\n      mstore\n      0x20\n      add\n      dup3\n      dup1\n      sload\n      tag_77\n      swap1\n      tag_46\n      jump\t// in\n    tag_77:\n      dup1\n      iszero\n      tag_78\n      jumpi\n      dup1\n      0x1f\n      lt\n      tag_79\n      jumpi\n      0x0100\n      dup1\n      dup4\n      sload\n      div\n      mul\n      dup4\n      mstore\n      swap2\n      0x20\n      add\n      swap2\n      jump(tag_78)\n    tag_79:\n      dup3\n      add\n      swap2\n      swap1\n      0x00\n      mstore\n      keccak256(0x00, 0x20)\n      swap1\n    tag_80:\n      dup2\n      sload\n      dup2\n      mstore\n      swap1\n      0x01\n      add\n      swap1\n      0x20\n      add\n      dup1\n      dup4\n      gt\n      tag_80\n      jumpi\n      dup3\n      swap1\n      sub\n      0x1f\n      and\n      dup3\n      add\n      swap2\n    tag_78:\n      pop\n      pop\n      pop\n      pop\n      pop\n      swap1\n      dup1\n      0x07\n      add\n      0x00\n      swap1\n      sload\n      swap1\n      0x0100\n      exp\n      swap1\n      div\n      0xffffffffffffffffffffffffffffffffffffffff\n      and\n      swap1\n      pop\n      dup9\n      jump\t// out\n        /* \"contracts/registrasi.sol\":482:511  uint public registrationCount */\n    tag_18:\n      sload(0x03)\n      dup2\n      jump\t// out\n        /* \"contracts/registrasi.sol\":1004:1504  function addRegistration(... */\n    tag_24:\n        /* \"contracts/registrasi.sol\":1308:1321  registrations */\n      0x01\n        /* \"contracts/registrasi.sol\":1308:1330  registrations[_wallet] */\n      0x00\n        /* \"contracts/registrasi.sol\":1322:1329  _wallet */\n      dup10\n        /* \"contracts/registrasi.sol\":1308:1330  registrations[_wallet] */\n      0xffffffffffffffffffffffffffffffffffffffff\n      and\n      0xffffffffffffffffffffffffffffffffffffffff\n      and\n      dup2\n      mstore\n      0x20\n      add\n      swap1\n      dup2\n      mstore\n      0x20\n      add\n      0x00\n      keccak256\n        /* \"contracts/registrasi.sol\":1336:1415  Data(_nama, _telepon, _namaDokter, _sesi, _tanggal, _keluhan, _gender, _wallet) */\n      mload(0x40)\n      dup1\n      0x0100\n      add\n      0x40\n      mstore\n      dup1\n        /* \"contracts/registrasi.sol\":1341:1346  _nama */\n      dup10\n        /* \"contracts/registrasi.sol\":1336:1415  Data(_nama, _telepon, _namaDokter, _sesi, _tanggal, _keluhan, _gender, _wallet) */\n      dup2\n      mstore\n      0x20\n      add\n        /* \"contracts/registrasi.sol\":1348:1356  _telepon */\n      dup9\n        /* \"contracts/registrasi.sol\":1336:1415  Data(_nama, _telepon, _namaDokter, _sesi, _tanggal, _keluhan, _gender, _wallet) */\n      dup2\n      mstore\n      0x20\n      add\n        /* \"contracts/registrasi.sol\":1358:1369  _namaDokter */\n      dup8\n        /* \"contracts/registrasi.sol\":1336:1415  Data(_nama, _telepon, _namaDokter, _sesi, _tanggal, _keluhan, _gender, _wallet) */\n      dup2\n      mstore\n      0x20\n      add\n        /* \"contracts/registrasi.sol\":1371:1376  _sesi */\n      dup7\n        /* \"contracts/registrasi.sol\":1336:1415  Data(_nama, _telepon, _namaDokter, _sesi, _tanggal, _keluhan, _gender, _wallet) */\n      dup2\n      mstore\n      0x20\n      add\n        /* \"contracts/registrasi.sol\":1378:1386  _tanggal */\n      dup6\n        /* \"contracts/registrasi.sol\":1336:1415  Data(_nama, _telepon, _namaDokter, _sesi, _tanggal, _keluhan, _gender, _wallet) */\n      dup2\n      mstore\n      0x20\n      add\n        /* \"contracts/registrasi.sol\":1388:1396  _keluhan */\n      dup5\n        /* \"contracts/registrasi.sol\":1336:1415  Data(_nama, _telepon, _namaDokter, _sesi, _tanggal, _keluhan, _gender, _wallet) */\n      dup2\n      mstore\n      0x20\n      add\n        /* \"contracts/registrasi.sol\":1398:1405  _gender */\n      dup4\n        /* \"contracts/registrasi.sol\":1336:1415  Data(_nama, _telepon, _namaDokter, _sesi, _tanggal, _keluhan, _gender, _wallet) */\n      dup2\n      mstore\n      0x20\n      add\n        /* \"contracts/registrasi.sol\":1407:1414  _wallet */\n      dup11\n        /* \"contracts/registrasi.sol\":1336:1415  Data(_nama, _telepon, _namaDokter, _sesi, _tanggal, _keluhan, _gender, _wallet) */\n      0xffffffffffffffffffffffffffffffffffffffff\n      and\n      dup2\n      mstore\n      pop\n        /* \"contracts/registrasi.sol\":1308:1416  registrations[_wallet].push(Data(_nama, _telepon, _namaDokter, _sesi, _tanggal, _keluhan, _gender, _wallet)) */\n      swap1\n      dup1\n      0x01\n      dup2\n      sload\n      add\n      dup1\n      dup3\n      sstore\n      dup1\n      swap2\n      pop\n      pop\n      0x01\n      swap1\n      sub\n      swap1\n      0x00\n      mstore\n      keccak256(0x00, 0x20)\n      swap1\n      0x08\n      mul\n      add\n      0x00\n      swap1\n      swap2\n      swap1\n      swap2\n      swap1\n      swap2\n      pop\n      0x00\n      dup3\n      add\n      mload\n      dup2\n      0x00\n      add\n      swap1\n      dup2\n      tag_83\n      swap2\n      swap1\n      tag_84\n      jump\t// in\n    tag_83:\n      pop\n      0x20\n      dup3\n      add\n      mload\n      dup2\n      0x01\n      add\n      swap1\n      dup2\n      tag_85\n      swap2\n      swap1\n      tag_84\n      jump\t// in\n    tag_85:\n      pop\n      0x40\n      dup3\n      add\n      mload\n      dup2\n      0x02\n      add\n      swap1\n      dup2\n      tag_86\n      swap2\n      swap1\n      tag_84\n      jump\t// in\n    tag_86:\n      pop\n      0x60\n      dup3\n      add\n      mload\n      dup2\n      0x03\n      add\n      swap1\n      dup2\n      tag_87\n      swap2\n      swap1\n      tag_84\n      jump\t// in\n    tag_87:\n      pop\n      0x80\n      dup3\n      add\n      mload\n      dup2\n      0x04\n      add\n      swap1\n      dup2\n      tag_88\n      swap2\n      swap1\n      tag_84\n      jump\t// in\n    tag_88:\n      pop\n      0xa0\n      dup3\n      add\n      mload\n      dup2\n      0x05\n      add\n      swap1\n      dup2\n      tag_89\n      swap2\n      swap1\n      tag_84\n      jump\t// in\n    tag_89:\n      pop\n      0xc0\n      dup3\n      add\n      mload\n      dup2\n      0x06\n      add\n      swap1\n      dup2\n      tag_90\n      swap2\n      swap1\n      tag_84\n      jump\t// in\n    tag_90:\n      pop\n      0xe0\n      dup3\n      add\n      mload\n      dup2\n      0x07\n      add\n      exp(0x0100, 0x00)\n      dup2\n      sload\n      dup2\n      0xffffffffffffffffffffffffffffffffffffffff\n      mul\n      not\n      and\n      swap1\n      dup4\n      0xffffffffffffffffffffffffffffffffffffffff\n      and\n      mul\n      or\n      swap1\n      sstore\n      pop\n      pop\n      pop\n        /* \"contracts/registrasi.sol\":1427:1452  accountsWithRegistrations */\n      0x02\n        /* \"contracts/registrasi.sol\":1458:1465  _wallet */\n      dup9\n        /* \"contracts/registrasi.sol\":1427:1466  accountsWithRegistrations.push(_wallet) */\n      swap1\n      dup1\n      0x01\n      dup2\n      sload\n      add\n      dup1\n      dup3\n      sstore\n      dup1\n      swap2\n      pop\n      pop\n      0x01\n      swap1\n      sub\n      swap1\n      0x00\n      mstore\n      keccak256(0x00, 0x20)\n      add\n      0x00\n      swap1\n      swap2\n      swap1\n      swap2\n      swap1\n      swap2\n      0x0100\n      exp\n      dup2\n      sload\n      dup2\n      0xffffffffffffffffffffffffffffffffffffffff\n      mul\n      not\n      and\n      swap1\n      dup4\n      0xffffffffffffffffffffffffffffffffffffffff\n      and\n      mul\n      or\n      swap1\n      sstore\n      pop\n        /* \"contracts/registrasi.sol\":1477:1494  registrationCount */\n      0x03\n      0x00\n        /* \"contracts/registrasi.sol\":1477:1496  registrationCount++ */\n      dup2\n      sload\n      dup1\n      swap3\n      swap2\n      swap1\n      tag_92\n      swap1\n      tag_93\n      jump\t// in\n    tag_92:\n      swap2\n      swap1\n      pop\n      sstore\n      pop\n        /* \"contracts/registrasi.sol\":1004:1504  function addRegistration(... */\n      pop\n      pop\n      pop\n      pop\n      pop\n      pop\n      pop\n      pop\n      jump\t// out\n        /* \"contracts/registrasi.sol\":120:142  UserRoles public roles */\n    tag_26:\n      0x00\n      dup1\n      sload\n      swap1\n      0x0100\n      exp\n      swap1\n      div\n      0xffffffffffffffffffffffffffffffffffffffff\n      and\n      dup2\n      jump\t// out\n        /* \"contracts/registrasi.sol\":433:475  address[] public accountsWithRegistrations */\n    tag_32:\n      0x02\n      dup2\n      dup2\n      sload\n      dup2\n      lt\n      tag_94\n      jumpi\n      0x00\n      dup1\n      revert\n    tag_94:\n      swap1\n      0x00\n      mstore\n      keccak256(0x00, 0x20)\n      add\n      0x00\n      swap2\n      pop\n      sload\n      swap1\n      0x0100\n      exp\n      swap1\n      div\n      0xffffffffffffffffffffffffffffffffffffffff\n      and\n      dup2\n      jump\t// out\n        /* \"contracts/registrasi.sol\":1744:2405  function getAllRegistrations(uint offset) public view onlyAdminOrDokter returns (Data[] memory) {... */\n    tag_37:\n        /* \"contracts/registrasi.sol\":1825:1838  Data[] memory */\n      0x60\n        /* \"contracts/registrasi.sol\":821:826  roles */\n      0x00\n      dup1\n      sload\n      swap1\n      0x0100\n      exp\n      swap1\n      div\n      0xffffffffffffffffffffffffffffffffffffffff\n      and\n        /* \"contracts/registrasi.sol\":821:834  roles.isAdmin */\n      0xffffffffffffffffffffffffffffffffffffffff\n      and\n      0x24d7806c\n        /* \"contracts/registrasi.sol\":835:845  msg.sender */\n      caller\n        /* \"contracts/registrasi.sol\":821:846  roles.isAdmin(msg.sender) */\n      mload(0x40)\n      dup3\n      0xffffffff\n      and\n      0xe0\n      shl\n      dup2\n      mstore\n      0x04\n      add\n      tag_97\n      swap2\n      swap1\n      tag_34\n      jump\t// in\n    tag_97:\n      0x20\n      mload(0x40)\n      dup1\n      dup4\n      sub\n      dup2\n      dup7\n      gas\n      staticcall\n      iszero\n      dup1\n      iszero\n      tag_99\n      jumpi\n      returndatasize\n      0x00\n      dup1\n      returndatacopy\n      revert(0x00, returndatasize)\n    tag_99:\n      pop\n      pop\n      pop\n      pop\n      mload(0x40)\n      returndatasize\n      not(0x1f)\n      0x1f\n      dup3\n      add\n      and\n      dup3\n      add\n      dup1\n      0x40\n      mstore\n      pop\n      dup2\n      add\n      swap1\n      tag_100\n      swap2\n      swap1\n      tag_101\n      jump\t// in\n    tag_100:\n        /* \"contracts/registrasi.sol\":821:876  roles.isAdmin(msg.sender) || roles.isDokter(msg.sender) */\n      dup1\n      tag_102\n      jumpi\n      pop\n        /* \"contracts/registrasi.sol\":850:855  roles */\n      0x00\n      dup1\n      sload\n      swap1\n      0x0100\n      exp\n      swap1\n      div\n      0xffffffffffffffffffffffffffffffffffffffff\n      and\n        /* \"contracts/registrasi.sol\":850:864  roles.isDokter */\n      0xffffffffffffffffffffffffffffffffffffffff\n      and\n      0x5c4c9348\n        /* \"contracts/registrasi.sol\":865:875  msg.sender */\n      caller\n        /* \"contracts/registrasi.sol\":850:876  roles.isDokter(msg.sender) */\n      mload(0x40)\n      dup3\n      0xffffffff\n      and\n      0xe0\n      shl\n      dup2\n      mstore\n      0x04\n      add\n      tag_103\n      swap2\n      swap1\n      tag_34\n      jump\t// in\n    tag_103:\n      0x20\n      mload(0x40)\n      dup1\n      dup4\n      sub\n      dup2\n      dup7\n      gas\n      staticcall\n      iszero\n      dup1\n      iszero\n      tag_105\n      jumpi\n      returndatasize\n      0x00\n      dup1\n      returndatacopy\n      revert(0x00, returndatasize)\n    tag_105:\n      pop\n      pop\n      pop\n      pop\n      mload(0x40)\n      returndatasize\n      not(0x1f)\n      0x1f\n      dup3\n      add\n      and\n      dup3\n      add\n      dup1\n      0x40\n      mstore\n      pop\n      dup2\n      add\n      swap1\n      tag_106\n      swap2\n      swap1\n      tag_101\n      jump\t// in\n    tag_106:\n        /* \"contracts/registrasi.sol\":821:876  roles.isAdmin(msg.sender) || roles.isDokter(msg.sender) */\n    tag_102:\n        /* \"contracts/registrasi.sol\":813:936  require(roles.isAdmin(msg.sender) || roles.isDokter(msg.sender), \"Hanya admin atau dokter yang diizinkan untuk mengakses.\") */\n      tag_107\n      jumpi\n      mload(0x40)\n      0x08c379a000000000000000000000000000000000000000000000000000000000\n      dup2\n      mstore\n      0x04\n      add\n      tag_108\n      swap1\n      tag_109\n      jump\t// in\n    tag_108:\n      mload(0x40)\n      dup1\n      swap2\n      sub\n      swap1\n      revert\n    tag_107:\n        /* \"contracts/registrasi.sol\":1851:1882  uint maxRegistrationsPerAccount */\n      0x00\n        /* \"contracts/registrasi.sol\":1885:1887  10 */\n      0x0a\n        /* \"contracts/registrasi.sol\":1851:1887  uint maxRegistrationsPerAccount = 10 */\n      swap1\n      pop\n        /* \"contracts/registrasi.sol\":1898:1928  Data[] memory allRegistrations */\n      0x00\n        /* \"contracts/registrasi.sol\":1947:1973  maxRegistrationsPerAccount */\n      dup2\n        /* \"contracts/registrasi.sol\":1942:1944  10 */\n      0x0a\n        /* \"contracts/registrasi.sol\":1942:1973  10 * maxRegistrationsPerAccount */\n      tag_111\n      swap2\n      swap1\n      tag_112\n      jump\t// in\n    tag_111:\n        /* \"contracts/registrasi.sol\":1931:1974  new Data[](10 * maxRegistrationsPerAccount) */\n      0xffffffffffffffff\n      dup2\n      gt\n      iszero\n      tag_113\n      jumpi\n      tag_114\n      tag_115\n      jump\t// in\n    tag_114:\n    tag_113:\n      mload(0x40)\n      swap1\n      dup1\n      dup3\n      mstore\n      dup1\n      0x20\n      mul\n      0x20\n      add\n      dup3\n      add\n      0x40\n      mstore\n      dup1\n      iszero\n      tag_116\n      jumpi\n      dup2\n      0x20\n      add\n    tag_117:\n      tag_118\n      tag_119\n      jump\t// in\n    tag_118:\n      dup2\n      mstore\n      0x20\n      add\n      swap1\n      0x01\n      swap1\n      sub\n      swap1\n      dup2\n      tag_117\n      jumpi\n      swap1\n      pop\n    tag_116:\n      pop\n        /* \"contracts/registrasi.sol\":1898:1974  Data[] memory allRegistrations = new Data[](10 * maxRegistrationsPerAccount) */\n      swap1\n      pop\n        /* \"contracts/registrasi.sol\":1985:1997  uint counter */\n      0x00\n        /* \"contracts/registrasi.sol\":2017:2023  uint i */\n      dup1\n        /* \"contracts/registrasi.sol\":2026:2032  offset */\n      dup6\n        /* \"contracts/registrasi.sol\":2017:2032  uint i = offset */\n      swap1\n      pop\n        /* \"contracts/registrasi.sol\":2012:2364  for (uint i = offset; i < accountsWithRegistrations.length; i++) {... */\n    tag_120:\n        /* \"contracts/registrasi.sol\":2038:2063  accountsWithRegistrations */\n      0x02\n        /* \"contracts/registrasi.sol\":2038:2070  accountsWithRegistrations.length */\n      dup1\n      sload\n      swap1\n      pop\n        /* \"contracts/registrasi.sol\":2034:2035  i */\n      dup2\n        /* \"contracts/registrasi.sol\":2034:2070  i < accountsWithRegistrations.length */\n      lt\n        /* \"contracts/registrasi.sol\":2012:2364  for (uint i = offset; i < accountsWithRegistrations.length; i++) {... */\n      iszero\n      tag_121\n      jumpi\n        /* \"contracts/registrasi.sol\":2092:2110  Data[] memory data */\n      0x00\n        /* \"contracts/registrasi.sol\":2113:2126  registrations */\n      0x01\n        /* \"contracts/registrasi.sol\":2113:2156  registrations[accountsWithRegistrations[i]] */\n      0x00\n        /* \"contracts/registrasi.sol\":2127:2152  accountsWithRegistrations */\n      0x02\n        /* \"contracts/registrasi.sol\":2153:2154  i */\n      dup5\n        /* \"contracts/registrasi.sol\":2127:2155  accountsWithRegistrations[i] */\n      dup2\n      sload\n      dup2\n      lt\n      tag_123\n      jumpi\n      tag_124\n      tag_125\n      jump\t// in\n    tag_124:\n    tag_123:\n      swap1\n      0x00\n      mstore\n      keccak256(0x00, 0x20)\n      add\n      0x00\n      swap1\n      sload\n      swap1\n      0x0100\n      exp\n      swap1\n      div\n      0xffffffffffffffffffffffffffffffffffffffff\n      and\n        /* \"contracts/registrasi.sol\":2113:2156  registrations[accountsWithRegistrations[i]] */\n      0xffffffffffffffffffffffffffffffffffffffff\n      and\n      0xffffffffffffffffffffffffffffffffffffffff\n      and\n      dup2\n      mstore\n      0x20\n      add\n      swap1\n      dup2\n      mstore\n      0x20\n      add\n      0x00\n      keccak256\n        /* \"contracts/registrasi.sol\":2092:2156  Data[] memory data = registrations[accountsWithRegistrations[i]] */\n      dup1\n      sload\n      dup1\n      0x20\n      mul\n      0x20\n      add\n      mload(0x40)\n      swap1\n      dup2\n      add\n      0x40\n      mstore\n      dup1\n      swap3\n      swap2\n      swap1\n      dup2\n      dup2\n      mstore\n      0x20\n      add\n      0x00\n      swap1\n    tag_127:\n      dup3\n      dup3\n      lt\n      iszero\n      tag_128\n      jumpi\n      dup4\n      dup3\n      swap1\n      0x00\n      mstore\n      keccak256(0x00, 0x20)\n      swap1\n      0x08\n      mul\n      add\n      mload(0x40)\n      dup1\n      0x0100\n      add\n      0x40\n      mstore\n      swap1\n      dup2\n      0x00\n      dup3\n      add\n      dup1\n      sload\n      tag_130\n      swap1\n      tag_46\n      jump\t// in\n    tag_130:\n      dup1\n      0x1f\n      add\n      0x20\n      dup1\n      swap2\n      div\n      mul\n      0x20\n      add\n      mload(0x40)\n      swap1\n      dup2\n      add\n      0x40\n      mstore\n      dup1\n      swap3\n      swap2\n      swap1\n      dup2\n      dup2\n      mstore\n      0x20\n      add\n      dup3\n      dup1\n      sload\n      tag_131\n      swap1\n      tag_46\n      jump\t// in\n    tag_131:\n      dup1\n      iszero\n      tag_132\n      jumpi\n      dup1\n      0x1f\n      lt\n      tag_133\n      jumpi\n      0x0100\n      dup1\n      dup4\n      sload\n      div\n      mul\n      dup4\n      mstore\n      swap2\n      0x20\n      add\n      swap2\n      jump(tag_132)\n    tag_133:\n      dup3\n      add\n      swap2\n      swap1\n      0x00\n      mstore\n      keccak256(0x00, 0x20)\n      swap1\n    tag_134:\n      dup2\n      sload\n      dup2\n      mstore\n      swap1\n      0x01\n      add\n      swap1\n      0x20\n      add\n      dup1\n      dup4\n      gt\n      tag_134\n      jumpi\n      dup3\n      swap1\n      sub\n      0x1f\n      and\n      dup3\n      add\n      swap2\n    tag_132:\n      pop\n      pop\n      pop\n      pop\n      pop\n      dup2\n      mstore\n      0x20\n      add\n      0x01\n      dup3\n      add\n      dup1\n      sload\n      tag_135\n      swap1\n      tag_46\n      jump\t// in\n    tag_135:\n      dup1\n      0x1f\n      add\n      0x20\n      dup1\n      swap2\n      div\n      mul\n      0x20\n      add\n      mload(0x40)\n      swap1\n      dup2\n      add\n      0x40\n      mstore\n      dup1\n      swap3\n      swap2\n      swap1\n      dup2\n      dup2\n      mstore\n      0x20\n      add\n      dup3\n      dup1\n      sload\n      tag_136\n      swap1\n      tag_46\n      jump\t// in\n    tag_136:\n      dup1\n      iszero\n      tag_137\n      jumpi\n      dup1\n      0x1f\n      lt\n      tag_138\n      jumpi\n      0x0100\n      dup1\n      dup4\n      sload\n      div\n      mul\n      dup4\n      mstore\n      swap2\n      0x20\n      add\n      swap2\n      jump(tag_137)\n    tag_138:\n      dup3\n      add\n      swap2\n      swap1\n      0x00\n      mstore\n      keccak256(0x00, 0x20)\n      swap1\n    tag_139:\n      dup2\n      sload\n      dup2\n      mstore\n      swap1\n      0x01\n      add\n      swap1\n      0x20\n      add\n      dup1\n      dup4\n      gt\n      tag_139\n      jumpi\n      dup3\n      swap1\n      sub\n      0x1f\n      and\n      dup3\n      add\n      swap2\n    tag_137:\n      pop\n      pop\n      pop\n      pop\n      pop\n      dup2\n      mstore\n      0x20\n      add\n      0x02\n      dup3\n      add\n      dup1\n      sload\n      tag_140\n      swap1\n      tag_46\n      jump\t// in\n    tag_140:\n      dup1\n      0x1f\n      add\n      0x20\n      dup1\n      swap2\n      div\n      mul\n      0x20\n      add\n      mload(0x40)\n      swap1\n      dup2\n      add\n      0x40\n      mstore\n      dup1\n      swap3\n      swap2\n      swap1\n      dup2\n      dup2\n      mstore\n      0x20\n      add\n      dup3\n      dup1\n      sload\n      tag_141\n      swap1\n      tag_46\n      jump\t// in\n    tag_141:\n      dup1\n      iszero\n      tag_142\n      jumpi\n      dup1\n      0x1f\n      lt\n      tag_143\n      jumpi\n      0x0100\n      dup1\n      dup4\n      sload\n      div\n      mul\n      dup4\n      mstore\n      swap2\n      0x20\n      add\n      swap2\n      jump(tag_142)\n    tag_143:\n      dup3\n      add\n      swap2\n      swap1\n      0x00\n      mstore\n      keccak256(0x00, 0x20)\n      swap1\n    tag_144:\n      dup2\n      sload\n      dup2\n      mstore\n      swap1\n      0x01\n      add\n      swap1\n      0x20\n      add\n      dup1\n      dup4\n      gt\n      tag_144\n      jumpi\n      dup3\n      swap1\n      sub\n      0x1f\n      and\n      dup3\n      add\n      swap2\n    tag_142:\n      pop\n      pop\n      pop\n      pop\n      pop\n      dup2\n      mstore\n      0x20\n      add\n      0x03\n      dup3\n      add\n      dup1\n      sload\n      tag_145\n      swap1\n      tag_46\n      jump\t// in\n    tag_145:\n      dup1\n      0x1f\n      add\n      0x20\n      dup1\n      swap2\n      div\n      mul\n      0x20\n      add\n      mload(0x40)\n      swap1\n      dup2\n      add\n      0x40\n      mstore\n      dup1\n      swap3\n      swap2\n      swap1\n      dup2\n      dup2\n      mstore\n      0x20\n      add\n      dup3\n      dup1\n      sload\n      tag_146\n      swap1\n      tag_46\n      jump\t// in\n    tag_146:\n      dup1\n      iszero\n      tag_147\n      jumpi\n      dup1\n      0x1f\n      lt\n      tag_148\n      jumpi\n      0x0100\n      dup1\n      dup4\n      sload\n      div\n      mul\n      dup4\n      mstore\n      swap2\n      0x20\n      add\n      swap2\n      jump(tag_147)\n    tag_148:\n      dup3\n      add\n      swap2\n      swap1\n      0x00\n      mstore\n      keccak256(0x00, 0x20)\n      swap1\n    tag_149:\n      dup2\n      sload\n      dup2\n      mstore\n      swap1\n      0x01\n      add\n      swap1\n      0x20\n      add\n      dup1\n      dup4\n      gt\n      tag_149\n      jumpi\n      dup3\n      swap1\n      sub\n      0x1f\n      and\n      dup3\n      add\n      swap2\n    tag_147:\n      pop\n      pop\n      pop\n      pop\n      pop\n      dup2\n      mstore\n      0x20\n      add\n      0x04\n      dup3\n      add\n      dup1\n      sload\n      tag_150\n      swap1\n      tag_46\n      jump\t// in\n    tag_150:\n      dup1\n      0x1f\n      add\n      0x20\n      dup1\n      swap2\n      div\n      mul\n      0x20\n      add\n      mload(0x40)\n      swap1\n      dup2\n      add\n      0x40\n      mstore\n      dup1\n      swap3\n      swap2\n      swap1\n      dup2\n      dup2\n      mstore\n      0x20\n      add\n      dup3\n      dup1\n      sload\n      tag_151\n      swap1\n      tag_46\n      jump\t// in\n    tag_151:\n      dup1\n      iszero\n      tag_152\n      jumpi\n      dup1\n      0x1f\n      lt\n      tag_153\n      jumpi\n      0x0100\n      dup1\n      dup4\n      sload\n      div\n      mul\n      dup4\n      mstore\n      swap2\n      0x20\n      add\n      swap2\n      jump(tag_152)\n    tag_153:\n      dup3\n      add\n      swap2\n      swap1\n      0x00\n      mstore\n      keccak256(0x00, 0x20)\n      swap1\n    tag_154:\n      dup2\n      sload\n      dup2\n      mstore\n      swap1\n      0x01\n      add\n      swap1\n      0x20\n      add\n      dup1\n      dup4\n      gt\n      tag_154\n      jumpi\n      dup3\n      swap1\n      sub\n      0x1f\n      and\n      dup3\n      add\n      swap2\n    tag_152:\n      pop\n      pop\n      pop\n      pop\n      pop\n      dup2\n      mstore\n      0x20\n      add\n      0x05\n      dup3\n      add\n      dup1\n      sload\n      tag_155\n      swap1\n      tag_46\n      jump\t// in\n    tag_155:\n      dup1\n      0x1f\n      add\n      0x20\n      dup1\n      swap2\n      div\n      mul\n      0x20\n      add\n      mload(0x40)\n      swap1\n      dup2\n      add\n      0x40\n      mstore\n      dup1\n      swap3\n      swap2\n      swap1\n      dup2\n      dup2\n      mstore\n      0x20\n      add\n      dup3\n      dup1\n      sload\n      tag_156\n      swap1\n      tag_46\n      jump\t// in\n    tag_156:\n      dup1\n      iszero\n      tag_157\n      jumpi\n      dup1\n      0x1f\n      lt\n      tag_158\n      jumpi\n      0x0100\n      dup1\n      dup4\n      sload\n      div\n      mul\n      dup4\n      mstore\n      swap2\n      0x20\n      add\n      swap2\n      jump(tag_157)\n    tag_158:\n      dup3\n      add\n      swap2\n      swap1\n      0x00\n      mstore\n      keccak256(0x00, 0x20)\n      swap1\n    tag_159:\n      dup2\n      sload\n      dup2\n      mstore\n      swap1\n      0x01\n      add\n      swap1\n      0x20\n      add\n      dup1\n      dup4\n      gt\n      tag_159\n      jumpi\n      dup3\n      swap1\n      sub\n      0x1f\n      and\n      dup3\n      add\n      swap2\n    tag_157:\n      pop\n      pop\n      pop\n      pop\n      pop\n      dup2\n      mstore\n      0x20\n      add\n      0x06\n      dup3\n      add\n      dup1\n      sload\n      tag_160\n      swap1\n      tag_46\n      jump\t// in\n    tag_160:\n      dup1\n      0x1f\n      add\n      0x20\n      dup1\n      swap2\n      div\n      mul\n      0x20\n      add\n      mload(0x40)\n      swap1\n      dup2\n      add\n      0x40\n      mstore\n      dup1\n      swap3\n      swap2\n      swap1\n      dup2\n      dup2\n      mstore\n      0x20\n      add\n      dup3\n      dup1\n      sload\n      tag_161\n      swap1\n      tag_46\n      jump\t// in\n    tag_161:\n      dup1\n      iszero\n      tag_162\n      jumpi\n      dup1\n      0x1f\n      lt\n      tag_163\n      jumpi\n      0x0100\n      dup1\n      dup4\n      sload\n      div\n      mul\n      dup4\n      mstore\n      swap2\n      0x20\n      add\n      swap2\n      jump(tag_162)\n    tag_163:\n      dup3\n      add\n      swap2\n      swap1\n      0x00\n      mstore\n      keccak256(0x00, 0x20)\n      swap1\n    tag_164:\n      dup2\n      sload\n      dup2\n      mstore\n      swap1\n      0x01\n      add\n      swap1\n      0x20\n      add\n      dup1\n      dup4\n      gt\n      tag_164\n      jumpi\n      dup3\n      swap1\n      sub\n      0x1f\n      and\n      dup3\n      add\n      swap2\n    tag_162:\n      pop\n      pop\n      pop\n      pop\n      pop\n      dup2\n      mstore\n      0x20\n      add\n      0x07\n      dup3\n      add\n      0x00\n      swap1\n      sload\n      swap1\n      0x0100\n      exp\n      swap1\n      div\n      0xffffffffffffffffffffffffffffffffffffffff\n      and\n      0xffffffffffffffffffffffffffffffffffffffff\n      and\n      0xffffffffffffffffffffffffffffffffffffffff\n      and\n      dup2\n      mstore\n      pop\n      pop\n      dup2\n      mstore\n      0x20\n      add\n      swap1\n      0x01\n      add\n      swap1\n      jump(tag_127)\n    tag_128:\n      pop\n      pop\n      pop\n      pop\n      swap1\n      pop\n        /* \"contracts/registrasi.sol\":2176:2182  uint j */\n      0x00\n        /* \"contracts/registrasi.sol\":2171:2353  for (uint j = 0; j < data.length && counter < maxRegistrationsPerAccount * 10; j++) {... */\n    tag_165:\n        /* \"contracts/registrasi.sol\":2192:2196  data */\n      dup2\n        /* \"contracts/registrasi.sol\":2192:2203  data.length */\n      mload\n        /* \"contracts/registrasi.sol\":2188:2189  j */\n      dup2\n        /* \"contracts/registrasi.sol\":2188:2203  j < data.length */\n      lt\n        /* \"contracts/registrasi.sol\":2188:2248  j < data.length && counter < maxRegistrationsPerAccount * 10 */\n      dup1\n      iszero\n      tag_168\n      jumpi\n      pop\n        /* \"contracts/registrasi.sol\":2246:2248  10 */\n      0x0a\n        /* \"contracts/registrasi.sol\":2217:2243  maxRegistrationsPerAccount */\n      dup7\n        /* \"contracts/registrasi.sol\":2217:2248  maxRegistrationsPerAccount * 10 */\n      tag_169\n      swap2\n      swap1\n      tag_112\n      jump\t// in\n    tag_169:\n        /* \"contracts/registrasi.sol\":2207:2214  counter */\n      dup5\n        /* \"contracts/registrasi.sol\":2207:2248  counter < maxRegistrationsPerAccount * 10 */\n      lt\n        /* \"contracts/registrasi.sol\":2188:2248  j < data.length && counter < maxRegistrationsPerAccount * 10 */\n    tag_168:\n        /* \"contracts/registrasi.sol\":2171:2353  for (uint j = 0; j < data.length && counter < maxRegistrationsPerAccount * 10; j++) {... */\n      iszero\n      tag_166\n      jumpi\n        /* \"contracts/registrasi.sol\":2302:2306  data */\n      dup2\n        /* \"contracts/registrasi.sol\":2307:2308  j */\n      dup2\n        /* \"contracts/registrasi.sol\":2302:2309  data[j] */\n      dup2\n      mload\n      dup2\n      lt\n      tag_170\n      jumpi\n      tag_171\n      tag_125\n      jump\t// in\n    tag_171:\n    tag_170:\n      0x20\n      mul\n      0x20\n      add\n      add\n      mload\n        /* \"contracts/registrasi.sol\":2274:2290  allRegistrations */\n      dup6\n        /* \"contracts/registrasi.sol\":2291:2298  counter */\n      dup6\n        /* \"contracts/registrasi.sol\":2274:2299  allRegistrations[counter] */\n      dup2\n      mload\n      dup2\n      lt\n      tag_172\n      jumpi\n      tag_173\n      tag_125\n      jump\t// in\n    tag_173:\n    tag_172:\n      0x20\n      mul\n      0x20\n      add\n      add\n        /* \"contracts/registrasi.sol\":2274:2309  allRegistrations[counter] = data[j] */\n      dup2\n      swap1\n      mstore\n      pop\n        /* \"contracts/registrasi.sol\":2328:2337  counter++ */\n      dup4\n      dup1\n      tag_174\n      swap1\n      tag_93\n      jump\t// in\n    tag_174:\n      swap5\n      pop\n      pop\n        /* \"contracts/registrasi.sol\":2250:2253  j++ */\n      dup1\n      dup1\n      tag_175\n      swap1\n      tag_93\n      jump\t// in\n    tag_175:\n      swap2\n      pop\n      pop\n        /* \"contracts/registrasi.sol\":2171:2353  for (uint j = 0; j < data.length && counter < maxRegistrationsPerAccount * 10; j++) {... */\n      jump(tag_165)\n    tag_166:\n      pop\n        /* \"contracts/registrasi.sol\":2077:2364  {... */\n      pop\n        /* \"contracts/registrasi.sol\":2072:2075  i++ */\n      dup1\n      dup1\n      tag_176\n      swap1\n      tag_93\n      jump\t// in\n    tag_176:\n      swap2\n      pop\n      pop\n        /* \"contracts/registrasi.sol\":2012:2364  for (uint i = offset; i < accountsWithRegistrations.length; i++) {... */\n      jump(tag_120)\n    tag_121:\n      pop\n        /* \"contracts/registrasi.sol\":2381:2397  allRegistrations */\n      dup2\n        /* \"contracts/registrasi.sol\":2374:2397  return allRegistrations */\n      swap4\n      pop\n      pop\n      pop\n      pop\n        /* \"contracts/registrasi.sol\":1744:2405  function getAllRegistrations(uint offset) public view onlyAdminOrDokter returns (Data[] memory) {... */\n      swap2\n      swap1\n      pop\n      jump\t// out\n        /* \"contracts/registrasi.sol\":1553:1686  function getRegistrationEvidence() public view onlyPasien returns (Data[] memory) {... */\n    tag_41:\n        /* \"contracts/registrasi.sol\":1620:1633  Data[] memory */\n      0x60\n        /* \"contracts/registrasi.sol\":671:676  roles */\n      0x00\n      dup1\n      sload\n      swap1\n      0x0100\n      exp\n      swap1\n      div\n      0xffffffffffffffffffffffffffffffffffffffff\n      and\n        /* \"contracts/registrasi.sol\":671:685  roles.isPasien */\n      0xffffffffffffffffffffffffffffffffffffffff\n      and\n      0x1132beb5\n        /* \"contracts/registrasi.sol\":686:696  msg.sender */\n      caller\n        /* \"contracts/registrasi.sol\":671:697  roles.isPasien(msg.sender) */\n      mload(0x40)\n      dup3\n      0xffffffff\n      and\n      0xe0\n      shl\n      dup2\n      mstore\n      0x04\n      add\n      tag_178\n      swap2\n      swap1\n      tag_34\n      jump\t// in\n    tag_178:\n      0x20\n      mload(0x40)\n      dup1\n      dup4\n      sub\n      dup2\n      dup7\n      gas\n      staticcall\n      iszero\n      dup1\n      iszero\n      tag_180\n      jumpi\n      returndatasize\n      0x00\n      dup1\n      returndatacopy\n      revert(0x00, returndatasize)\n    tag_180:\n      pop\n      pop\n      pop\n      pop\n      mload(0x40)\n      returndatasize\n      not(0x1f)\n      0x1f\n      dup3\n      add\n      and\n      dup3\n      add\n      dup1\n      0x40\n      mstore\n      pop\n      dup2\n      add\n      swap1\n      tag_181\n      swap2\n      swap1\n      tag_101\n      jump\t// in\n    tag_181:\n        /* \"contracts/registrasi.sol\":663:745  require(roles.isPasien(msg.sender), \"Hanya pasien yang diizinkan untuk mengakses\") */\n      tag_182\n      jumpi\n      mload(0x40)\n      0x08c379a000000000000000000000000000000000000000000000000000000000\n      dup2\n      mstore\n      0x04\n      add\n      tag_183\n      swap1\n      tag_184\n      jump\t// in\n    tag_183:\n      mload(0x40)\n      dup1\n      swap2\n      sub\n      swap1\n      revert\n    tag_182:\n        /* \"contracts/registrasi.sol\":1653:1666  registrations */\n      0x01\n        /* \"contracts/registrasi.sol\":1653:1678  registrations[msg.sender] */\n      0x00\n        /* \"contracts/registrasi.sol\":1667:1677  msg.sender */\n      caller\n        /* \"contracts/registrasi.sol\":1653:1678  registrations[msg.sender] */\n      0xffffffffffffffffffffffffffffffffffffffff\n      and\n      0xffffffffffffffffffffffffffffffffffffffff\n      and\n      dup2\n      mstore\n      0x20\n      add\n      swap1\n      dup2\n      mstore\n      0x20\n      add\n      0x00\n      keccak256\n        /* \"contracts/registrasi.sol\":1646:1678  return registrations[msg.sender] */\n      dup1\n      sload\n      dup1\n      0x20\n      mul\n      0x20\n      add\n      mload(0x40)\n      swap1\n      dup2\n      add\n      0x40\n      mstore\n      dup1\n      swap3\n      swap2\n      swap1\n      dup2\n      dup2\n      mstore\n      0x20\n      add\n      0x00\n      swap1\n    tag_186:\n      dup3\n      dup3\n      lt\n      iszero\n      tag_187\n      jumpi\n      dup4\n      dup3\n      swap1\n      0x00\n      mstore\n      keccak256(0x00, 0x20)\n      swap1\n      0x08\n      mul\n      add\n      mload(0x40)\n      dup1\n      0x0100\n      add\n      0x40\n      mstore\n      swap1\n      dup2\n      0x00\n      dup3\n      add\n      dup1\n      sload\n      tag_189\n      swap1\n      tag_46\n      jump\t// in\n    tag_189:\n      dup1\n      0x1f\n      add\n      0x20\n      dup1\n      swap2\n      div\n      mul\n      0x20\n      add\n      mload(0x40)\n      swap1\n      dup2\n      add\n      0x40\n      mstore\n      dup1\n      swap3\n      swap2\n      swap1\n      dup2\n      dup2\n      mstore\n      0x20\n      add\n      dup3\n      dup1\n      sload\n      tag_190\n      swap1\n      tag_46\n      jump\t// in\n    tag_190:\n      dup1\n      iszero\n      tag_191\n      jumpi\n      dup1\n      0x1f\n      lt\n      tag_192\n      jumpi\n      0x0100\n      dup1\n      dup4\n      sload\n      div\n      mul\n      dup4\n      mstore\n      swap2\n      0x20\n      add\n      swap2\n      jump(tag_191)\n    tag_192:\n      dup3\n      add\n      swap2\n      swap1\n      0x00\n      mstore\n      keccak256(0x00, 0x20)\n      swap1\n    tag_193:\n      dup2\n      sload\n      dup2\n      mstore\n      swap1\n      0x01\n      add\n      swap1\n      0x20\n      add\n      dup1\n      dup4\n      gt\n      tag_193\n      jumpi\n      dup3\n      swap1\n      sub\n      0x1f\n      and\n      dup3\n      add\n      swap2\n    tag_191:\n      pop\n      pop\n      pop\n      pop\n      pop\n      dup2\n      mstore\n      0x20\n      add\n      0x01\n      dup3\n      add\n      dup1\n      sload\n      tag_194\n      swap1\n      tag_46\n      jump\t// in\n    tag_194:\n      dup1\n      0x1f\n      add\n      0x20\n      dup1\n      swap2\n      div\n      mul\n      0x20\n      add\n      mload(0x40)\n      swap1\n      dup2\n      add\n      0x40\n      mstore\n      dup1\n      swap3\n      swap2\n      swap1\n      dup2\n      dup2\n      mstore\n      0x20\n      add\n      dup3\n      dup1\n      sload\n      tag_195\n      swap1\n      tag_46\n      jump\t// in\n    tag_195:\n      dup1\n      iszero\n      tag_196\n      jumpi\n      dup1\n      0x1f\n      lt\n      tag_197\n      jumpi\n      0x0100\n      dup1\n      dup4\n      sload\n      div\n      mul\n      dup4\n      mstore\n      swap2\n      0x20\n      add\n      swap2\n      jump(tag_196)\n    tag_197:\n      dup3\n      add\n      swap2\n      swap1\n      0x00\n      mstore\n      keccak256(0x00, 0x20)\n      swap1\n    tag_198:\n      dup2\n      sload\n      dup2\n      mstore\n      swap1\n      0x01\n      add\n      swap1\n      0x20\n      add\n      dup1\n      dup4\n      gt\n      tag_198\n      jumpi\n      dup3\n      swap1\n      sub\n      0x1f\n      and\n      dup3\n      add\n      swap2\n    tag_196:\n      pop\n      pop\n      pop\n      pop\n      pop\n      dup2\n      mstore\n      0x20\n      add\n      0x02\n      dup3\n      add\n      dup1\n      sload\n      tag_199\n      swap1\n      tag_46\n      jump\t// in\n    tag_199:\n      dup1\n      0x1f\n      add\n      0x20\n      dup1\n      swap2\n      div\n      mul\n      0x20\n      add\n      mload(0x40)\n      swap1\n      dup2\n      add\n      0x40\n      mstore\n      dup1\n      swap3\n      swap2\n      swap1\n      dup2\n      dup2\n      mstore\n      0x20\n      add\n      dup3\n      dup1\n      sload\n      tag_200\n      swap1\n      tag_46\n      jump\t// in\n    tag_200:\n      dup1\n      iszero\n      tag_201\n      jumpi\n      dup1\n      0x1f\n      lt\n      tag_202\n      jumpi\n      0x0100\n      dup1\n      dup4\n      sload\n      div\n      mul\n      dup4\n      mstore\n      swap2\n      0x20\n      add\n      swap2\n      jump(tag_201)\n    tag_202:\n      dup3\n      add\n      swap2\n      swap1\n      0x00\n      mstore\n      keccak256(0x00, 0x20)\n      swap1\n    tag_203:\n      dup2\n      sload\n      dup2\n      mstore\n      swap1\n      0x01\n      add\n      swap1\n      0x20\n      add\n      dup1\n      dup4\n      gt\n      tag_203\n      jumpi\n      dup3\n      swap1\n      sub\n      0x1f\n      and\n      dup3\n      add\n      swap2\n    tag_201:\n      pop\n      pop\n      pop\n      pop\n      pop\n      dup2\n      mstore\n      0x20\n      add\n      0x03\n      dup3\n      add\n      dup1\n      sload\n      tag_204\n      swap1\n      tag_46\n      jump\t// in\n    tag_204:\n      dup1\n      0x1f\n      add\n      0x20\n      dup1\n      swap2\n      div\n      mul\n      0x20\n      add\n      mload(0x40)\n      swap1\n      dup2\n      add\n      0x40\n      mstore\n      dup1\n      swap3\n      swap2\n      swap1\n      dup2\n      dup2\n      mstore\n      0x20\n      add\n      dup3\n      dup1\n      sload\n      tag_205\n      swap1\n      tag_46\n      jump\t// in\n    tag_205:\n      dup1\n      iszero\n      tag_206\n      jumpi\n      dup1\n      0x1f\n      lt\n      tag_207\n      jumpi\n      0x0100\n      dup1\n      dup4\n      sload\n      div\n      mul\n      dup4\n      mstore\n      swap2\n      0x20\n      add\n      swap2\n      jump(tag_206)\n    tag_207:\n      dup3\n      add\n      swap2\n      swap1\n      0x00\n      mstore\n      keccak256(0x00, 0x20)\n      swap1\n    tag_208:\n      dup2\n      sload\n      dup2\n      mstore\n      swap1\n      0x01\n      add\n      swap1\n      0x20\n      add\n      dup1\n      dup4\n      gt\n      tag_208\n      jumpi\n      dup3\n      swap1\n      sub\n      0x1f\n      and\n      dup3\n      add\n      swap2\n    tag_206:\n      pop\n      pop\n      pop\n      pop\n      pop\n      dup2\n      mstore\n      0x20\n      add\n      0x04\n      dup3\n      add\n      dup1\n      sload\n      tag_209\n      swap1\n      tag_46\n      jump\t// in\n    tag_209:\n      dup1\n      0x1f\n      add\n      0x20\n      dup1\n      swap2\n      div\n      mul\n      0x20\n      add\n      mload(0x40)\n      swap1\n      dup2\n      add\n      0x40\n      mstore\n      dup1\n      swap3\n      swap2\n      swap1\n      dup2\n      dup2\n      mstore\n      0x20\n      add\n      dup3\n      dup1\n      sload\n      tag_210\n      swap1\n      tag_46\n      jump\t// in\n    tag_210:\n      dup1\n      iszero\n      tag_211\n      jumpi\n      dup1\n      0x1f\n      lt\n      tag_212\n      jumpi\n      0x0100\n      dup1\n      dup4\n      sload\n      div\n      mul\n      dup4\n      mstore\n      swap2\n      0x20\n      add\n      swap2\n      jump(tag_211)\n    tag_212:\n      dup3\n      add\n      swap2\n      swap1\n      0x00\n      mstore\n      keccak256(0x00, 0x20)\n      swap1\n    tag_213:\n      dup2\n      sload\n      dup2\n      mstore\n      swap1\n      0x01\n      add\n      swap1\n      0x20\n      add\n      dup1\n      dup4\n      gt\n      tag_213\n      jumpi\n      dup3\n      swap1\n      sub\n      0x1f\n      and\n      dup3\n      add\n      swap2\n    tag_211:\n      pop\n      pop\n      pop\n      pop\n      pop\n      dup2\n      mstore\n      0x20\n      add\n      0x05\n      dup3\n      add\n      dup1\n      sload\n      tag_214\n      swap1\n      tag_46\n      jump\t// in\n    tag_214:\n      dup1\n      0x1f\n      add\n      0x20\n      dup1\n      swap2\n      div\n      mul\n      0x20\n      add\n      mload(0x40)\n      swap1\n      dup2\n      add\n      0x40\n      mstore\n      dup1\n      swap3\n      swap2\n      swap1\n      dup2\n      dup2\n      mstore\n      0x20\n      add\n      dup3\n      dup1\n      sload\n      tag_215\n      swap1\n      tag_46\n      jump\t// in\n    tag_215:\n      dup1\n      iszero\n      tag_216\n      jumpi\n      dup1\n      0x1f\n      lt\n      tag_217\n      jumpi\n      0x0100\n      dup1\n      dup4\n      sload\n      div\n      mul\n      dup4\n      mstore\n      swap2\n      0x20\n      add\n      swap2\n      jump(tag_216)\n    tag_217:\n      dup3\n      add\n      swap2\n      swap1\n      0x00\n      mstore\n      keccak256(0x00, 0x20)\n      swap1\n    tag_218:\n      dup2\n      sload\n      dup2\n      mstore\n      swap1\n      0x01\n      add\n      swap1\n      0x20\n      add\n      dup1\n      dup4\n      gt\n      tag_218\n      jumpi\n      dup3\n      swap1\n      sub\n      0x1f\n      and\n      dup3\n      add\n      swap2\n    tag_216:\n      pop\n      pop\n      pop\n      pop\n      pop\n      dup2\n      mstore\n      0x20\n      add\n      0x06\n      dup3\n      add\n      dup1\n      sload\n      tag_219\n      swap1\n      tag_46\n      jump\t// in\n    tag_219:\n      dup1\n      0x1f\n      add\n      0x20\n      dup1\n      swap2\n      div\n      mul\n      0x20\n      add\n      mload(0x40)\n      swap1\n      dup2\n      add\n      0x40\n      mstore\n      dup1\n      swap3\n      swap2\n      swap1\n      dup2\n      dup2\n      mstore\n      0x20\n      add\n      dup3\n      dup1\n      sload\n      tag_220\n      swap1\n      tag_46\n      jump\t// in\n    tag_220:\n      dup1\n      iszero\n      tag_221\n      jumpi\n      dup1\n      0x1f\n      lt\n      tag_222\n      jumpi\n      0x0100\n      dup1\n      dup4\n      sload\n      div\n      mul\n      dup4\n      mstore\n      swap2\n      0x20\n      add\n      swap2\n      jump(tag_221)\n    tag_222:\n      dup3\n      add\n      swap2\n      swap1\n      0x00\n      mstore\n      keccak256(0x00, 0x20)\n      swap1\n    tag_223:\n      dup2\n      sload\n      dup2\n      mstore\n      swap1\n      0x01\n      add\n      swap1\n      0x20\n      add\n      dup1\n      dup4\n      gt\n      tag_223\n      jumpi\n      dup3\n      swap1\n      sub\n      0x1f\n      and\n      dup3\n      add\n      swap2\n    tag_221:\n      pop\n      pop\n      pop\n      pop\n      pop\n      dup2\n      mstore\n      0x20\n      add\n      0x07\n      dup3\n      add\n      0x00\n      swap1\n      sload\n      swap1\n      0x0100\n      exp\n      swap1\n      div\n      0xffffffffffffffffffffffffffffffffffffffff\n      and\n      0xffffffffffffffffffffffffffffffffffffffff\n      and\n      0xffffffffffffffffffffffffffffffffffffffff\n      and\n      dup2\n      mstore\n      pop\n      pop\n      dup2\n      mstore\n      0x20\n      add\n      swap1\n      0x01\n      add\n      swap1\n      jump(tag_186)\n    tag_187:\n      pop\n      pop\n      pop\n      pop\n      swap1\n      pop\n        /* \"contracts/registrasi.sol\":1553:1686  function getRegistrationEvidence() public view onlyPasien returns (Data[] memory) {... */\n      swap1\n      jump\t// out\n    tag_119:\n      mload(0x40)\n      dup1\n      0x0100\n      add\n      0x40\n      mstore\n      dup1\n      0x60\n      dup2\n      mstore\n      0x20\n      add\n      0x60\n      dup2\n      mstore\n      0x20\n      add\n      0x60\n      dup2\n      mstore\n      0x20\n      add\n      0x60\n      dup2\n      mstore\n      0x20\n      add\n      0x60\n      dup2\n      mstore\n      0x20\n      add\n      0x60\n      dup2\n      mstore\n      0x20\n      add\n      0x60\n      dup2\n      mstore\n      0x20\n      add\n      and(0xffffffffffffffffffffffffffffffffffffffff, 0x00)\n      dup2\n      mstore\n      pop\n      swap1\n      jump\t// out\n        /* \"#utility.yul\":7:82   */\n    tag_224:\n        /* \"#utility.yul\":40:46   */\n      0x00\n        /* \"#utility.yul\":73:75   */\n      0x40\n        /* \"#utility.yul\":67:76   */\n      mload\n        /* \"#utility.yul\":57:76   */\n      swap1\n      pop\n        /* \"#utility.yul\":7:82   */\n      swap1\n      jump\t// out\n        /* \"#utility.yul\":88:205   */\n    tag_225:\n        /* \"#utility.yul\":197:198   */\n      0x00\n        /* \"#utility.yul\":194:195   */\n      dup1\n        /* \"#utility.yul\":187:199   */\n      revert\n        /* \"#utility.yul\":211:328   */\n    tag_226:\n        /* \"#utility.yul\":320:321   */\n      0x00\n        /* \"#utility.yul\":317:318   */\n      dup1\n        /* \"#utility.yul\":310:322   */\n      revert\n        /* \"#utility.yul\":334:460   */\n    tag_227:\n        /* \"#utility.yul\":371:378   */\n      0x00\n        /* \"#utility.yul\":411:453   */\n      0xffffffffffffffffffffffffffffffffffffffff\n        /* \"#utility.yul\":404:409   */\n      dup3\n        /* \"#utility.yul\":400:454   */\n      and\n        /* \"#utility.yul\":389:454   */\n      swap1\n      pop\n        /* \"#utility.yul\":334:460   */\n      swap2\n      swap1\n      pop\n      jump\t// out\n        /* \"#utility.yul\":466:562   */\n    tag_228:\n        /* \"#utility.yul\":503:510   */\n      0x00\n        /* \"#utility.yul\":532:556   */\n      tag_293\n        /* \"#utility.yul\":550:555   */\n      dup3\n        /* \"#utility.yul\":532:556   */\n      tag_227\n      jump\t// in\n    tag_293:\n        /* \"#utility.yul\":521:556   */\n      swap1\n      pop\n        /* \"#utility.yul\":466:562   */\n      swap2\n      swap1\n      pop\n      jump\t// out\n        /* \"#utility.yul\":568:690   */\n    tag_229:\n        /* \"#utility.yul\":641:665   */\n      tag_295\n        /* \"#utility.yul\":659:664   */\n      dup2\n        /* \"#utility.yul\":641:665   */\n      tag_228\n      jump\t// in\n    tag_295:\n        /* \"#utility.yul\":634:639   */\n      dup2\n        /* \"#utility.yul\":631:666   */\n      eq\n        /* \"#utility.yul\":621:684   */\n      tag_296\n      jumpi\n        /* \"#utility.yul\":680:681   */\n      0x00\n        /* \"#utility.yul\":677:678   */\n      dup1\n        /* \"#utility.yul\":670:682   */\n      revert\n        /* \"#utility.yul\":621:684   */\n    tag_296:\n        /* \"#utility.yul\":568:690   */\n      pop\n      jump\t// out\n        /* \"#utility.yul\":696:835   */\n    tag_230:\n        /* \"#utility.yul\":742:747   */\n      0x00\n        /* \"#utility.yul\":780:786   */\n      dup2\n        /* \"#utility.yul\":767:787   */\n      calldataload\n        /* \"#utility.yul\":758:787   */\n      swap1\n      pop\n        /* \"#utility.yul\":796:829   */\n      tag_298\n        /* \"#utility.yul\":823:828   */\n      dup2\n        /* \"#utility.yul\":796:829   */\n      tag_229\n      jump\t// in\n    tag_298:\n        /* \"#utility.yul\":696:835   */\n      swap3\n      swap2\n      pop\n      pop\n      jump\t// out\n        /* \"#utility.yul\":841:918   */\n    tag_231:\n        /* \"#utility.yul\":878:885   */\n      0x00\n        /* \"#utility.yul\":907:912   */\n      dup2\n        /* \"#utility.yul\":896:912   */\n      swap1\n      pop\n        /* \"#utility.yul\":841:918   */\n      swap2\n      swap1\n      pop\n      jump\t// out\n        /* \"#utility.yul\":924:1046   */\n    tag_232:\n        /* \"#utility.yul\":997:1021   */\n      tag_301\n        /* \"#utility.yul\":1015:1020   */\n      dup2\n        /* \"#utility.yul\":997:1021   */\n      tag_231\n      jump\t// in\n    tag_301:\n        /* \"#utility.yul\":990:995   */\n      dup2\n        /* \"#utility.yul\":987:1022   */\n      eq\n        /* \"#utility.yul\":977:1040   */\n      tag_302\n      jumpi\n        /* \"#utility.yul\":1036:1037   */\n      0x00\n        /* \"#utility.yul\":1033:1034   */\n      dup1\n        /* \"#utility.yul\":1026:1038   */\n      revert\n        /* \"#utility.yul\":977:1040   */\n    tag_302:\n        /* \"#utility.yul\":924:1046   */\n      pop\n      jump\t// out\n        /* \"#utility.yul\":1052:1191   */\n    tag_233:\n        /* \"#utility.yul\":1098:1103   */\n      0x00\n        /* \"#utility.yul\":1136:1142   */\n      dup2\n        /* \"#utility.yul\":1123:1143   */\n      calldataload\n        /* \"#utility.yul\":1114:1143   */\n      swap1\n      pop\n        /* \"#utility.yul\":1152:1185   */\n      tag_304\n        /* \"#utility.yul\":1179:1184   */\n      dup2\n        /* \"#utility.yul\":1152:1185   */\n      tag_232\n      jump\t// in\n    tag_304:\n        /* \"#utility.yul\":1052:1191   */\n      swap3\n      swap2\n      pop\n      pop\n      jump\t// out\n        /* \"#utility.yul\":1197:1671   */\n    tag_13:\n        /* \"#utility.yul\":1265:1271   */\n      0x00\n        /* \"#utility.yul\":1273:1279   */\n      dup1\n        /* \"#utility.yul\":1322:1324   */\n      0x40\n        /* \"#utility.yul\":1310:1319   */\n      dup4\n        /* \"#utility.yul\":1301:1308   */\n      dup6\n        /* \"#utility.yul\":1297:1320   */\n      sub\n        /* \"#utility.yul\":1293:1325   */\n      slt\n        /* \"#utility.yul\":1290:1409   */\n      iszero\n      tag_306\n      jumpi\n        /* \"#utility.yul\":1328:1407   */\n      tag_307\n      tag_225\n      jump\t// in\n    tag_307:\n        /* \"#utility.yul\":1290:1409   */\n    tag_306:\n        /* \"#utility.yul\":1448:1449   */\n      0x00\n        /* \"#utility.yul\":1473:1526   */\n      tag_308\n        /* \"#utility.yul\":1518:1525   */\n      dup6\n        /* \"#utility.yul\":1509:1515   */\n      dup3\n        /* \"#utility.yul\":1498:1507   */\n      dup7\n        /* \"#utility.yul\":1494:1516   */\n      add\n        /* \"#utility.yul\":1473:1526   */\n      tag_230\n      jump\t// in\n    tag_308:\n        /* \"#utility.yul\":1463:1526   */\n      swap3\n      pop\n        /* \"#utility.yul\":1419:1536   */\n      pop\n        /* \"#utility.yul\":1575:1577   */\n      0x20\n        /* \"#utility.yul\":1601:1654   */\n      tag_309\n        /* \"#utility.yul\":1646:1653   */\n      dup6\n        /* \"#utility.yul\":1637:1643   */\n      dup3\n        /* \"#utility.yul\":1626:1635   */\n      dup7\n        /* \"#utility.yul\":1622:1644   */\n      add\n        /* \"#utility.yul\":1601:1654   */\n      tag_233\n      jump\t// in\n    tag_309:\n        /* \"#utility.yul\":1591:1654   */\n      swap2\n      pop\n        /* \"#utility.yul\":1546:1664   */\n      pop\n        /* \"#utility.yul\":1197:1671   */\n      swap3\n      pop\n      swap3\n      swap1\n      pop\n      jump\t// out\n        /* \"#utility.yul\":1677:1776   */\n    tag_234:\n        /* \"#utility.yul\":1729:1735   */\n      0x00\n        /* \"#utility.yul\":1763:1768   */\n      dup2\n        /* \"#utility.yul\":1757:1769   */\n      mload\n        /* \"#utility.yul\":1747:1769   */\n      swap1\n      pop\n        /* \"#utility.yul\":1677:1776   */\n      swap2\n      swap1\n      pop\n      jump\t// out\n        /* \"#utility.yul\":1782:1951   */\n    tag_235:\n        /* \"#utility.yul\":1866:1877   */\n      0x00\n        /* \"#utility.yul\":1900:1906   */\n      dup3\n        /* \"#utility.yul\":1895:1898   */\n      dup3\n        /* \"#utility.yul\":1888:1907   */\n      mstore\n        /* \"#utility.yul\":1940:1944   */\n      0x20\n        /* \"#utility.yul\":1935:1938   */\n      dup3\n        /* \"#utility.yul\":1931:1945   */\n      add\n        /* \"#utility.yul\":1916:1945   */\n      swap1\n      pop\n        /* \"#utility.yul\":1782:1951   */\n      swap3\n      swap2\n      pop\n      pop\n      jump\t// out\n        /* \"#utility.yul\":1957:2203   */\n    tag_236:\n        /* \"#utility.yul\":2038:2039   */\n      0x00\n        /* \"#utility.yul\":2048:2161   */\n    tag_313:\n        /* \"#utility.yul\":2062:2068   */\n      dup4\n        /* \"#utility.yul\":2059:2060   */\n      dup2\n        /* \"#utility.yul\":2056:2069   */\n      lt\n        /* \"#utility.yul\":2048:2161   */\n      iszero\n      tag_315\n      jumpi\n        /* \"#utility.yul\":2147:2148   */\n      dup1\n        /* \"#utility.yul\":2142:2145   */\n      dup3\n        /* \"#utility.yul\":2138:2149   */\n      add\n        /* \"#utility.yul\":2132:2150   */\n      mload\n        /* \"#utility.yul\":2128:2129   */\n      dup2\n        /* \"#utility.yul\":2123:2126   */\n      dup5\n        /* \"#utility.yul\":2119:2130   */\n      add\n        /* \"#utility.yul\":2112:2151   */\n      mstore\n        /* \"#utility.yul\":2084:2086   */\n      0x20\n        /* \"#utility.yul\":2081:2082   */\n      dup2\n        /* \"#utility.yul\":2077:2087   */\n      add\n        /* \"#utility.yul\":2072:2087   */\n      swap1\n      pop\n        /* \"#utility.yul\":2048:2161   */\n      jump(tag_313)\n    tag_315:\n        /* \"#utility.yul\":2195:2196   */\n      0x00\n        /* \"#utility.yul\":2186:2192   */\n      dup5\n        /* \"#utility.yul\":2181:2184   */\n      dup5\n        /* \"#utility.yul\":2177:2193   */\n      add\n        /* \"#utility.yul\":2170:2197   */\n      mstore\n        /* \"#utility.yul\":2019:2203   */\n      pop\n        /* \"#utility.yul\":1957:2203   */\n      pop\n      pop\n      pop\n      jump\t// out\n        /* \"#utility.yul\":2209:2311   */\n    tag_237:\n        /* \"#utility.yul\":2250:2256   */\n      0x00\n        /* \"#utility.yul\":2301:2303   */\n      0x1f\n        /* \"#utility.yul\":2297:2304   */\n      not\n        /* \"#utility.yul\":2292:2294   */\n      0x1f\n        /* \"#utility.yul\":2285:2290   */\n      dup4\n        /* \"#utility.yul\":2281:2295   */\n      add\n        /* \"#utility.yul\":2277:2305   */\n      and\n        /* \"#utility.yul\":2267:2305   */\n      swap1\n      pop\n        /* \"#utility.yul\":2209:2311   */\n      swap2\n      swap1\n      pop\n      jump\t// out\n        /* \"#utility.yul\":2317:2694   */\n    tag_238:\n        /* \"#utility.yul\":2405:2408   */\n      0x00\n        /* \"#utility.yul\":2433:2472   */\n      tag_318\n        /* \"#utility.yul\":2466:2471   */\n      dup3\n        /* \"#utility.yul\":2433:2472   */\n      tag_234\n      jump\t// in\n    tag_318:\n        /* \"#utility.yul\":2488:2559   */\n      tag_319\n        /* \"#utility.yul\":2552:2558   */\n      dup2\n        /* \"#utility.yul\":2547:2550   */\n      dup6\n        /* \"#utility.yul\":2488:2559   */\n      tag_235\n      jump\t// in\n    tag_319:\n        /* \"#utility.yul\":2481:2559   */\n      swap4\n      pop\n        /* \"#utility.yul\":2568:2633   */\n      tag_320\n        /* \"#utility.yul\":2626:2632   */\n      dup2\n        /* \"#utility.yul\":2621:2624   */\n      dup6\n        /* \"#utility.yul\":2614:2618   */\n      0x20\n        /* \"#utility.yul\":2607:2612   */\n      dup7\n        /* \"#utility.yul\":2603:2619   */\n      add\n        /* \"#utility.yul\":2568:2633   */\n      tag_236\n      jump\t// in\n    tag_320:\n        /* \"#utility.yul\":2658:2687   */\n      tag_321\n        /* \"#utility.yul\":2680:2686   */\n      dup2\n        /* \"#utility.yul\":2658:2687   */\n      tag_237\n      jump\t// in\n    tag_321:\n        /* \"#utility.yul\":2653:2656   */\n      dup5\n        /* \"#utility.yul\":2649:2688   */\n      add\n        /* \"#utility.yul\":2642:2688   */\n      swap2\n      pop\n        /* \"#utility.yul\":2409:2694   */\n      pop\n        /* \"#utility.yul\":2317:2694   */\n      swap3\n      swap2\n      pop\n      pop\n      jump\t// out\n        /* \"#utility.yul\":2700:2818   */\n    tag_239:\n        /* \"#utility.yul\":2787:2811   */\n      tag_323\n        /* \"#utility.yul\":2805:2810   */\n      dup2\n        /* \"#utility.yul\":2787:2811   */\n      tag_228\n      jump\t// in\n    tag_323:\n        /* \"#utility.yul\":2782:2785   */\n      dup3\n        /* \"#utility.yul\":2775:2812   */\n      mstore\n        /* \"#utility.yul\":2700:2818   */\n      pop\n      pop\n      jump\t// out\n        /* \"#utility.yul\":2824:4458   */\n    tag_16:\n        /* \"#utility.yul\":3253:3257   */\n      0x00\n        /* \"#utility.yul\":3291:3294   */\n      0x0100\n        /* \"#utility.yul\":3280:3289   */\n      dup3\n        /* \"#utility.yul\":3276:3295   */\n      add\n        /* \"#utility.yul\":3268:3295   */\n      swap1\n      pop\n        /* \"#utility.yul\":3341:3350   */\n      dup2\n        /* \"#utility.yul\":3335:3339   */\n      dup2\n        /* \"#utility.yul\":3331:3351   */\n      sub\n        /* \"#utility.yul\":3327:3328   */\n      0x00\n        /* \"#utility.yul\":3316:3325   */\n      dup4\n        /* \"#utility.yul\":3312:3329   */\n      add\n        /* \"#utility.yul\":3305:3352   */\n      mstore\n        /* \"#utility.yul\":3369:3447   */\n      tag_325\n        /* \"#utility.yul\":3442:3446   */\n      dup2\n        /* \"#utility.yul\":3433:3439   */\n      dup12\n        /* \"#utility.yul\":3369:3447   */\n      tag_238\n      jump\t// in\n    tag_325:\n        /* \"#utility.yul\":3361:3447   */\n      swap1\n      pop\n        /* \"#utility.yul\":3494:3503   */\n      dup2\n        /* \"#utility.yul\":3488:3492   */\n      dup2\n        /* \"#utility.yul\":3484:3504   */\n      sub\n        /* \"#utility.yul\":3479:3481   */\n      0x20\n        /* \"#utility.yul\":3468:3477   */\n      dup4\n        /* \"#utility.yul\":3464:3482   */\n      add\n        /* \"#utility.yul\":3457:3505   */\n      mstore\n        /* \"#utility.yul\":3522:3600   */\n      tag_326\n        /* \"#utility.yul\":3595:3599   */\n      dup2\n        /* \"#utility.yul\":3586:3592   */\n      dup11\n        /* \"#utility.yul\":3522:3600   */\n      tag_238\n      jump\t// in\n    tag_326:\n        /* \"#utility.yul\":3514:3600   */\n      swap1\n      pop\n        /* \"#utility.yul\":3647:3656   */\n      dup2\n        /* \"#utility.yul\":3641:3645   */\n      dup2\n        /* \"#utility.yul\":3637:3657   */\n      sub\n        /* \"#utility.yul\":3632:3634   */\n      0x40\n        /* \"#utility.yul\":3621:3630   */\n      dup4\n        /* \"#utility.yul\":3617:3635   */\n      add\n        /* \"#utility.yul\":3610:3658   */\n      mstore\n        /* \"#utility.yul\":3675:3753   */\n      tag_327\n        /* \"#utility.yul\":3748:3752   */\n      dup2\n        /* \"#utility.yul\":3739:3745   */\n      dup10\n        /* \"#utility.yul\":3675:3753   */\n      tag_238\n      jump\t// in\n    tag_327:\n        /* \"#utility.yul\":3667:3753   */\n      swap1\n      pop\n        /* \"#utility.yul\":3800:3809   */\n      dup2\n        /* \"#utility.yul\":3794:3798   */\n      dup2\n        /* \"#utility.yul\":3790:3810   */\n      sub\n        /* \"#utility.yul\":3785:3787   */\n      0x60\n        /* \"#utility.yul\":3774:3783   */\n      dup4\n        /* \"#utility.yul\":3770:3788   */\n      add\n        /* \"#utility.yul\":3763:3811   */\n      mstore\n        /* \"#utility.yul\":3828:3906   */\n      tag_328\n        /* \"#utility.yul\":3901:3905   */\n      dup2\n        /* \"#utility.yul\":3892:3898   */\n      dup9\n        /* \"#utility.yul\":3828:3906   */\n      tag_238\n      jump\t// in\n    tag_328:\n        /* \"#utility.yul\":3820:3906   */\n      swap1\n      pop\n        /* \"#utility.yul\":3954:3963   */\n      dup2\n        /* \"#utility.yul\":3948:3952   */\n      dup2\n        /* \"#utility.yul\":3944:3964   */\n      sub\n        /* \"#utility.yul\":3938:3941   */\n      0x80\n        /* \"#utility.yul\":3927:3936   */\n      dup4\n        /* \"#utility.yul\":3923:3942   */\n      add\n        /* \"#utility.yul\":3916:3965   */\n      mstore\n        /* \"#utility.yul\":3982:4060   */\n      tag_329\n        /* \"#utility.yul\":4055:4059   */\n      dup2\n        /* \"#utility.yul\":4046:4052   */\n      dup8\n        /* \"#utility.yul\":3982:4060   */\n      tag_238\n      jump\t// in\n    tag_329:\n        /* \"#utility.yul\":3974:4060   */\n      swap1\n      pop\n        /* \"#utility.yul\":4108:4117   */\n      dup2\n        /* \"#utility.yul\":4102:4106   */\n      dup2\n        /* \"#utility.yul\":4098:4118   */\n      sub\n        /* \"#utility.yul\":4092:4095   */\n      0xa0\n        /* \"#utility.yul\":4081:4090   */\n      dup4\n        /* \"#utility.yul\":4077:4096   */\n      add\n        /* \"#utility.yul\":4070:4119   */\n      mstore\n        /* \"#utility.yul\":4136:4214   */\n      tag_330\n        /* \"#utility.yul\":4209:4213   */\n      dup2\n        /* \"#utility.yul\":4200:4206   */\n      dup7\n        /* \"#utility.yul\":4136:4214   */\n      tag_238\n      jump\t// in\n    tag_330:\n        /* \"#utility.yul\":4128:4214   */\n      swap1\n      pop\n        /* \"#utility.yul\":4262:4271   */\n      dup2\n        /* \"#utility.yul\":4256:4260   */\n      dup2\n        /* \"#utility.yul\":4252:4272   */\n      sub\n        /* \"#utility.yul\":4246:4249   */\n      0xc0\n        /* \"#utility.yul\":4235:4244   */\n      dup4\n        /* \"#utility.yul\":4231:4250   */\n      add\n        /* \"#utility.yul\":4224:4273   */\n      mstore\n        /* \"#utility.yul\":4290:4368   */\n      tag_331\n        /* \"#utility.yul\":4363:4367   */\n      dup2\n        /* \"#utility.yul\":4354:4360   */\n      dup6\n        /* \"#utility.yul\":4290:4368   */\n      tag_238\n      jump\t// in\n    tag_331:\n        /* \"#utility.yul\":4282:4368   */\n      swap1\n      pop\n        /* \"#utility.yul\":4378:4451   */\n      tag_332\n        /* \"#utility.yul\":4446:4449   */\n      0xe0\n        /* \"#utility.yul\":4435:4444   */\n      dup4\n        /* \"#utility.yul\":4431:4450   */\n      add\n        /* \"#utility.yul\":4422:4428   */\n      dup5\n        /* \"#utility.yul\":4378:4451   */\n      tag_239\n      jump\t// in\n    tag_332:\n        /* \"#utility.yul\":2824:4458   */\n      swap10\n      swap9\n      pop\n      pop\n      pop\n      pop\n      pop\n      pop\n      pop\n      pop\n      pop\n      jump\t// out\n        /* \"#utility.yul\":4464:4582   */\n    tag_240:\n        /* \"#utility.yul\":4551:4575   */\n      tag_334\n        /* \"#utility.yul\":4569:4574   */\n      dup2\n        /* \"#utility.yul\":4551:4575   */\n      tag_231\n      jump\t// in\n    tag_334:\n        /* \"#utility.yul\":4546:4549   */\n      dup3\n        /* \"#utility.yul\":4539:4576   */\n      mstore\n        /* \"#utility.yul\":4464:4582   */\n      pop\n      pop\n      jump\t// out\n        /* \"#utility.yul\":4588:4810   */\n    tag_20:\n        /* \"#utility.yul\":4681:4685   */\n      0x00\n        /* \"#utility.yul\":4719:4721   */\n      0x20\n        /* \"#utility.yul\":4708:4717   */\n      dup3\n        /* \"#utility.yul\":4704:4722   */\n      add\n        /* \"#utility.yul\":4696:4722   */\n      swap1\n      pop\n        /* \"#utility.yul\":4732:4803   */\n      tag_336\n        /* \"#utility.yul\":4800:4801   */\n      0x00\n        /* \"#utility.yul\":4789:4798   */\n      dup4\n        /* \"#utility.yul\":4785:4802   */\n      add\n        /* \"#utility.yul\":4776:4782   */\n      dup5\n        /* \"#utility.yul\":4732:4803   */\n      tag_240\n      jump\t// in\n    tag_336:\n        /* \"#utility.yul\":4588:4810   */\n      swap3\n      swap2\n      pop\n      pop\n      jump\t// out\n        /* \"#utility.yul\":4816:4933   */\n    tag_241:\n        /* \"#utility.yul\":4925:4926   */\n      0x00\n        /* \"#utility.yul\":4922:4923   */\n      dup1\n        /* \"#utility.yul\":4915:4927   */\n      revert\n        /* \"#utility.yul\":4939:5056   */\n    tag_242:\n        /* \"#utility.yul\":5048:5049   */\n      0x00\n        /* \"#utility.yul\":5045:5046   */\n      dup1\n        /* \"#utility.yul\":5038:5050   */\n      revert\n        /* \"#utility.yul\":5062:5242   */\n    tag_115:\n        /* \"#utility.yul\":5110:5187   */\n      0x4e487b7100000000000000000000000000000000000000000000000000000000\n        /* \"#utility.yul\":5107:5108   */\n      0x00\n        /* \"#utility.yul\":5100:5188   */\n      mstore\n        /* \"#utility.yul\":5207:5211   */\n      0x41\n        /* \"#utility.yul\":5204:5205   */\n      0x04\n        /* \"#utility.yul\":5197:5212   */\n      mstore\n        /* \"#utility.yul\":5231:5235   */\n      0x24\n        /* \"#utility.yul\":5228:5229   */\n      0x00\n        /* \"#utility.yul\":5221:5236   */\n      revert\n        /* \"#utility.yul\":5248:5529   */\n    tag_243:\n        /* \"#utility.yul\":5331:5358   */\n      tag_341\n        /* \"#utility.yul\":5353:5357   */\n      dup3\n        /* \"#utility.yul\":5331:5358   */\n      tag_237\n      jump\t// in\n    tag_341:\n        /* \"#utility.yul\":5323:5329   */\n      dup2\n        /* \"#utility.yul\":5319:5359   */\n      add\n        /* \"#utility.yul\":5461:5467   */\n      dup2\n        /* \"#utility.yul\":5449:5459   */\n      dup2\n        /* \"#utility.yul\":5446:5468   */\n      lt\n        /* \"#utility.yul\":5425:5443   */\n      0xffffffffffffffff\n        /* \"#utility.yul\":5413:5423   */\n      dup3\n        /* \"#utility.yul\":5410:5444   */\n      gt\n        /* \"#utility.yul\":5407:5469   */\n      or\n        /* \"#utility.yul\":5404:5492   */\n      iszero\n      tag_342\n      jumpi\n        /* \"#utility.yul\":5472:5490   */\n      tag_343\n      tag_115\n      jump\t// in\n    tag_343:\n        /* \"#utility.yul\":5404:5492   */\n    tag_342:\n        /* \"#utility.yul\":5512:5522   */\n      dup1\n        /* \"#utility.yul\":5508:5510   */\n      0x40\n        /* \"#utility.yul\":5501:5523   */\n      mstore\n        /* \"#utility.yul\":5291:5529   */\n      pop\n        /* \"#utility.yul\":5248:5529   */\n      pop\n      pop\n      jump\t// out\n        /* \"#utility.yul\":5535:5664   */\n    tag_244:\n        /* \"#utility.yul\":5569:5575   */\n      0x00\n        /* \"#utility.yul\":5596:5616   */\n      tag_345\n      tag_224\n      jump\t// in\n    tag_345:\n        /* \"#utility.yul\":5586:5616   */\n      swap1\n      pop\n        /* \"#utility.yul\":5625:5658   */\n      tag_346\n        /* \"#utility.yul\":5653:5657   */\n      dup3\n        /* \"#utility.yul\":5645:5651   */\n      dup3\n        /* \"#utility.yul\":5625:5658   */\n      tag_243\n      jump\t// in\n    tag_346:\n        /* \"#utility.yul\":5535:5664   */\n      swap2\n      swap1\n      pop\n      jump\t// out\n        /* \"#utility.yul\":5670:5978   */\n    tag_245:\n        /* \"#utility.yul\":5732:5736   */\n      0x00\n        /* \"#utility.yul\":5822:5840   */\n      0xffffffffffffffff\n        /* \"#utility.yul\":5814:5820   */\n      dup3\n        /* \"#utility.yul\":5811:5841   */\n      gt\n        /* \"#utility.yul\":5808:5864   */\n      iszero\n      tag_348\n      jumpi\n        /* \"#utility.yul\":5844:5862   */\n      tag_349\n      tag_115\n      jump\t// in\n    tag_349:\n        /* \"#utility.yul\":5808:5864   */\n    tag_348:\n        /* \"#utility.yul\":5882:5911   */\n      tag_350\n        /* \"#utility.yul\":5904:5910   */\n      dup3\n        /* \"#utility.yul\":5882:5911   */\n      tag_237\n      jump\t// in\n    tag_350:\n        /* \"#utility.yul\":5874:5911   */\n      swap1\n      pop\n        /* \"#utility.yul\":5966:5970   */\n      0x20\n        /* \"#utility.yul\":5960:5964   */\n      dup2\n        /* \"#utility.yul\":5956:5971   */\n      add\n        /* \"#utility.yul\":5948:5971   */\n      swap1\n      pop\n        /* \"#utility.yul\":5670:5978   */\n      swap2\n      swap1\n      pop\n      jump\t// out\n        /* \"#utility.yul\":5984:6130   */\n    tag_246:\n        /* \"#utility.yul\":6081:6087   */\n      dup3\n        /* \"#utility.yul\":6076:6079   */\n      dup2\n        /* \"#utility.yul\":6071:6074   */\n      dup4\n        /* \"#utility.yul\":6058:6088   */\n      calldatacopy\n        /* \"#utility.yul\":6122:6123   */\n      0x00\n        /* \"#utility.yul\":6113:6119   */\n      dup4\n        /* \"#utility.yul\":6108:6111   */\n      dup4\n        /* \"#utility.yul\":6104:6120   */\n      add\n        /* \"#utility.yul\":6097:6124   */\n      mstore\n        /* \"#utility.yul\":5984:6130   */\n      pop\n      pop\n      pop\n      jump\t// out\n        /* \"#utility.yul\":6136:6561   */\n    tag_247:\n        /* \"#utility.yul\":6214:6219   */\n      0x00\n        /* \"#utility.yul\":6239:6305   */\n      tag_353\n        /* \"#utility.yul\":6255:6304   */\n      tag_354\n        /* \"#utility.yul\":6297:6303   */\n      dup5\n        /* \"#utility.yul\":6255:6304   */\n      tag_245\n      jump\t// in\n    tag_354:\n        /* \"#utility.yul\":6239:6305   */\n      tag_244\n      jump\t// in\n    tag_353:\n        /* \"#utility.yul\":6230:6305   */\n      swap1\n      pop\n        /* \"#utility.yul\":6328:6334   */\n      dup3\n        /* \"#utility.yul\":6321:6326   */\n      dup2\n        /* \"#utility.yul\":6314:6335   */\n      mstore\n        /* \"#utility.yul\":6366:6370   */\n      0x20\n        /* \"#utility.yul\":6359:6364   */\n      dup2\n        /* \"#utility.yul\":6355:6371   */\n      add\n        /* \"#utility.yul\":6404:6407   */\n      dup5\n        /* \"#utility.yul\":6395:6401   */\n      dup5\n        /* \"#utility.yul\":6390:6393   */\n      dup5\n        /* \"#utility.yul\":6386:6402   */\n      add\n        /* \"#utility.yul\":6383:6408   */\n      gt\n        /* \"#utility.yul\":6380:6492   */\n      iszero\n      tag_355\n      jumpi\n        /* \"#utility.yul\":6411:6490   */\n      tag_356\n      tag_242\n      jump\t// in\n    tag_356:\n        /* \"#utility.yul\":6380:6492   */\n    tag_355:\n        /* \"#utility.yul\":6501:6555   */\n      tag_357\n        /* \"#utility.yul\":6548:6554   */\n      dup5\n        /* \"#utility.yul\":6543:6546   */\n      dup3\n        /* \"#utility.yul\":6538:6541   */\n      dup6\n        /* \"#utility.yul\":6501:6555   */\n      tag_246\n      jump\t// in\n    tag_357:\n        /* \"#utility.yul\":6220:6561   */\n      pop\n        /* \"#utility.yul\":6136:6561   */\n      swap4\n      swap3\n      pop\n      pop\n      pop\n      jump\t// out\n        /* \"#utility.yul\":6581:6921   */\n    tag_248:\n        /* \"#utility.yul\":6637:6642   */\n      0x00\n        /* \"#utility.yul\":6686:6689   */\n      dup3\n        /* \"#utility.yul\":6679:6683   */\n      0x1f\n        /* \"#utility.yul\":6671:6677   */\n      dup4\n        /* \"#utility.yul\":6667:6684   */\n      add\n        /* \"#utility.yul\":6663:6690   */\n      slt\n        /* \"#utility.yul\":6653:6775   */\n      tag_359\n      jumpi\n        /* \"#utility.yul\":6694:6773   */\n      tag_360\n      tag_241\n      jump\t// in\n    tag_360:\n        /* \"#utility.yul\":6653:6775   */\n    tag_359:\n        /* \"#utility.yul\":6811:6817   */\n      dup2\n        /* \"#utility.yul\":6798:6818   */\n      calldataload\n        /* \"#utility.yul\":6836:6915   */\n      tag_361\n        /* \"#utility.yul\":6911:6914   */\n      dup5\n        /* \"#utility.yul\":6903:6909   */\n      dup3\n        /* \"#utility.yul\":6896:6900   */\n      0x20\n        /* \"#utility.yul\":6888:6894   */\n      dup7\n        /* \"#utility.yul\":6884:6901   */\n      add\n        /* \"#utility.yul\":6836:6915   */\n      tag_247\n      jump\t// in\n    tag_361:\n        /* \"#utility.yul\":6827:6915   */\n      swap2\n      pop\n        /* \"#utility.yul\":6643:6921   */\n      pop\n        /* \"#utility.yul\":6581:6921   */\n      swap3\n      swap2\n      pop\n      pop\n      jump\t// out\n        /* \"#utility.yul\":6927:9536   */\n    tag_23:\n        /* \"#utility.yul\":7119:7125   */\n      0x00\n        /* \"#utility.yul\":7127:7133   */\n      dup1\n        /* \"#utility.yul\":7135:7141   */\n      0x00\n        /* \"#utility.yul\":7143:7149   */\n      dup1\n        /* \"#utility.yul\":7151:7157   */\n      0x00\n        /* \"#utility.yul\":7159:7165   */\n      dup1\n        /* \"#utility.yul\":7167:7173   */\n      0x00\n        /* \"#utility.yul\":7175:7181   */\n      dup1\n        /* \"#utility.yul\":7224:7227   */\n      0x0100\n        /* \"#utility.yul\":7212:7221   */\n      dup10\n        /* \"#utility.yul\":7203:7210   */\n      dup12\n        /* \"#utility.yul\":7199:7222   */\n      sub\n        /* \"#utility.yul\":7195:7228   */\n      slt\n        /* \"#utility.yul\":7192:7312   */\n      iszero\n      tag_363\n      jumpi\n        /* \"#utility.yul\":7231:7310   */\n      tag_364\n      tag_225\n      jump\t// in\n    tag_364:\n        /* \"#utility.yul\":7192:7312   */\n    tag_363:\n        /* \"#utility.yul\":7351:7352   */\n      0x00\n        /* \"#utility.yul\":7376:7429   */\n      tag_365\n        /* \"#utility.yul\":7421:7428   */\n      dup12\n        /* \"#utility.yul\":7412:7418   */\n      dup3\n        /* \"#utility.yul\":7401:7410   */\n      dup13\n        /* \"#utility.yul\":7397:7419   */\n      add\n        /* \"#utility.yul\":7376:7429   */\n      tag_230\n      jump\t// in\n    tag_365:\n        /* \"#utility.yul\":7366:7429   */\n      swap9\n      pop\n        /* \"#utility.yul\":7322:7439   */\n      pop\n        /* \"#utility.yul\":7506:7508   */\n      0x20\n        /* \"#utility.yul\":7495:7504   */\n      dup10\n        /* \"#utility.yul\":7491:7509   */\n      add\n        /* \"#utility.yul\":7478:7510   */\n      calldataload\n        /* \"#utility.yul\":7537:7555   */\n      0xffffffffffffffff\n        /* \"#utility.yul\":7529:7535   */\n      dup2\n        /* \"#utility.yul\":7526:7556   */\n      gt\n        /* \"#utility.yul\":7523:7640   */\n      iszero\n      tag_366\n      jumpi\n        /* \"#utility.yul\":7559:7638   */\n      tag_367\n      tag_226\n      jump\t// in\n    tag_367:\n        /* \"#utility.yul\":7523:7640   */\n    tag_366:\n        /* \"#utility.yul\":7664:7727   */\n      tag_368\n        /* \"#utility.yul\":7719:7726   */\n      dup12\n        /* \"#utility.yul\":7710:7716   */\n      dup3\n        /* \"#utility.yul\":7699:7708   */\n      dup13\n        /* \"#utility.yul\":7695:7717   */\n      add\n        /* \"#utility.yul\":7664:7727   */\n      tag_248\n      jump\t// in\n    tag_368:\n        /* \"#utility.yul\":7654:7727   */\n      swap8\n      pop\n        /* \"#utility.yul\":7449:7737   */\n      pop\n        /* \"#utility.yul\":7804:7806   */\n      0x40\n        /* \"#utility.yul\":7793:7802   */\n      dup10\n        /* \"#utility.yul\":7789:7807   */\n      add\n        /* \"#utility.yul\":7776:7808   */\n      calldataload\n        /* \"#utility.yul\":7835:7853   */\n      0xffffffffffffffff\n        /* \"#utility.yul\":7827:7833   */\n      dup2\n        /* \"#utility.yul\":7824:7854   */\n      gt\n        /* \"#utility.yul\":7821:7938   */\n      iszero\n      tag_369\n      jumpi\n        /* \"#utility.yul\":7857:7936   */\n      tag_370\n      tag_226\n      jump\t// in\n    tag_370:\n        /* \"#utility.yul\":7821:7938   */\n    tag_369:\n        /* \"#utility.yul\":7962:8025   */\n      tag_371\n        /* \"#utility.yul\":8017:8024   */\n      dup12\n        /* \"#utility.yul\":8008:8014   */\n      dup3\n        /* \"#utility.yul\":7997:8006   */\n      dup13\n        /* \"#utility.yul\":7993:8015   */\n      add\n        /* \"#utility.yul\":7962:8025   */\n      tag_248\n      jump\t// in\n    tag_371:\n        /* \"#utility.yul\":7952:8025   */\n      swap7\n      pop\n        /* \"#utility.yul\":7747:8035   */\n      pop\n        /* \"#utility.yul\":8102:8104   */\n      0x60\n        /* \"#utility.yul\":8091:8100   */\n      dup10\n        /* \"#utility.yul\":8087:8105   */\n      add\n        /* \"#utility.yul\":8074:8106   */\n      calldataload\n        /* \"#utility.yul\":8133:8151   */\n      0xffffffffffffffff\n        /* \"#utility.yul\":8125:8131   */\n      dup2\n        /* \"#utility.yul\":8122:8152   */\n      gt\n        /* \"#utility.yul\":8119:8236   */\n      iszero\n      tag_372\n      jumpi\n        /* \"#utility.yul\":8155:8234   */\n      tag_373\n      tag_226\n      jump\t// in\n    tag_373:\n        /* \"#utility.yul\":8119:8236   */\n    tag_372:\n        /* \"#utility.yul\":8260:8323   */\n      tag_374\n        /* \"#utility.yul\":8315:8322   */\n      dup12\n        /* \"#utility.yul\":8306:8312   */\n      dup3\n        /* \"#utility.yul\":8295:8304   */\n      dup13\n        /* \"#utility.yul\":8291:8313   */\n      add\n        /* \"#utility.yul\":8260:8323   */\n      tag_248\n      jump\t// in\n    tag_374:\n        /* \"#utility.yul\":8250:8323   */\n      swap6\n      pop\n        /* \"#utility.yul\":8045:8333   */\n      pop\n        /* \"#utility.yul\":8400:8403   */\n      0x80\n        /* \"#utility.yul\":8389:8398   */\n      dup10\n        /* \"#utility.yul\":8385:8404   */\n      add\n        /* \"#utility.yul\":8372:8405   */\n      calldataload\n        /* \"#utility.yul\":8432:8450   */\n      0xffffffffffffffff\n        /* \"#utility.yul\":8424:8430   */\n      dup2\n        /* \"#utility.yul\":8421:8451   */\n      gt\n        /* \"#utility.yul\":8418:8535   */\n      iszero\n      tag_375\n      jumpi\n        /* \"#utility.yul\":8454:8533   */\n      tag_376\n      tag_226\n      jump\t// in\n    tag_376:\n        /* \"#utility.yul\":8418:8535   */\n    tag_375:\n        /* \"#utility.yul\":8559:8622   */\n      tag_377\n        /* \"#utility.yul\":8614:8621   */\n      dup12\n        /* \"#utility.yul\":8605:8611   */\n      dup3\n        /* \"#utility.yul\":8594:8603   */\n      dup13\n        /* \"#utility.yul\":8590:8612   */\n      add\n        /* \"#utility.yul\":8559:8622   */\n      tag_248\n      jump\t// in\n    tag_377:\n        /* \"#utility.yul\":8549:8622   */\n      swap5\n      pop\n        /* \"#utility.yul\":8343:8632   */\n      pop\n        /* \"#utility.yul\":8699:8702   */\n      0xa0\n        /* \"#utility.yul\":8688:8697   */\n      dup10\n        /* \"#utility.yul\":8684:8703   */\n      add\n        /* \"#utility.yul\":8671:8704   */\n      calldataload\n        /* \"#utility.yul\":8731:8749   */\n      0xffffffffffffffff\n        /* \"#utility.yul\":8723:8729   */\n      dup2\n        /* \"#utility.yul\":8720:8750   */\n      gt\n        /* \"#utility.yul\":8717:8834   */\n      iszero\n      tag_378\n      jumpi\n        /* \"#utility.yul\":8753:8832   */\n      tag_379\n      tag_226\n      jump\t// in\n    tag_379:\n        /* \"#utility.yul\":8717:8834   */\n    tag_378:\n        /* \"#utility.yul\":8858:8921   */\n      tag_380\n        /* \"#utility.yul\":8913:8920   */\n      dup12\n        /* \"#utility.yul\":8904:8910   */\n      dup3\n        /* \"#utility.yul\":8893:8902   */\n      dup13\n        /* \"#utility.yul\":8889:8911   */\n      add\n        /* \"#utility.yul\":8858:8921   */\n      tag_248\n      jump\t// in\n    tag_380:\n        /* \"#utility.yul\":8848:8921   */\n      swap4\n      pop\n        /* \"#utility.yul\":8642:8931   */\n      pop\n        /* \"#utility.yul\":8998:9001   */\n      0xc0\n        /* \"#utility.yul\":8987:8996   */\n      dup10\n        /* \"#utility.yul\":8983:9002   */\n      add\n        /* \"#utility.yul\":8970:9003   */\n      calldataload\n        /* \"#utility.yul\":9030:9048   */\n      0xffffffffffffffff\n        /* \"#utility.yul\":9022:9028   */\n      dup2\n        /* \"#utility.yul\":9019:9049   */\n      gt\n        /* \"#utility.yul\":9016:9133   */\n      iszero\n      tag_381\n      jumpi\n        /* \"#utility.yul\":9052:9131   */\n      tag_382\n      tag_226\n      jump\t// in\n    tag_382:\n        /* \"#utility.yul\":9016:9133   */\n    tag_381:\n        /* \"#utility.yul\":9157:9220   */\n      tag_383\n        /* \"#utility.yul\":9212:9219   */\n      dup12\n        /* \"#utility.yul\":9203:9209   */\n      dup3\n        /* \"#utility.yul\":9192:9201   */\n      dup13\n        /* \"#utility.yul\":9188:9210   */\n      add\n        /* \"#utility.yul\":9157:9220   */\n      tag_248\n      jump\t// in\n    tag_383:\n        /* \"#utility.yul\":9147:9220   */\n      swap3\n      pop\n        /* \"#utility.yul\":8941:9230   */\n      pop\n        /* \"#utility.yul\":9297:9300   */\n      0xe0\n        /* \"#utility.yul\":9286:9295   */\n      dup10\n        /* \"#utility.yul\":9282:9301   */\n      add\n        /* \"#utility.yul\":9269:9302   */\n      calldataload\n        /* \"#utility.yul\":9329:9347   */\n      0xffffffffffffffff\n        /* \"#utility.yul\":9321:9327   */\n      dup2\n        /* \"#utility.yul\":9318:9348   */\n      gt\n        /* \"#utility.yul\":9315:9432   */\n      iszero\n      tag_384\n      jumpi\n        /* \"#utility.yul\":9351:9430   */\n      tag_385\n      tag_226\n      jump\t// in\n    tag_385:\n        /* \"#utility.yul\":9315:9432   */\n    tag_384:\n        /* \"#utility.yul\":9456:9519   */\n      tag_386\n        /* \"#utility.yul\":9511:9518   */\n      dup12\n        /* \"#utility.yul\":9502:9508   */\n      dup3\n        /* \"#utility.yul\":9491:9500   */\n      dup13\n        /* \"#utility.yul\":9487:9509   */\n      add\n        /* \"#utility.yul\":9456:9519   */\n      tag_248\n      jump\t// in\n    tag_386:\n        /* \"#utility.yul\":9446:9519   */\n      swap2\n      pop\n        /* \"#utility.yul\":9240:9529   */\n      pop\n        /* \"#utility.yul\":6927:9536   */\n      swap3\n      swap6\n      swap9\n      pop\n      swap3\n      swap6\n      swap9\n      swap1\n      swap4\n      swap7\n      pop\n      jump\t// out\n        /* \"#utility.yul\":9542:9602   */\n    tag_249:\n        /* \"#utility.yul\":9570:9573   */\n      0x00\n        /* \"#utility.yul\":9591:9596   */\n      dup2\n        /* \"#utility.yul\":9584:9596   */\n      swap1\n      pop\n        /* \"#utility.yul\":9542:9602   */\n      swap2\n      swap1\n      pop\n      jump\t// out\n        /* \"#utility.yul\":9608:9750   */\n    tag_250:\n        /* \"#utility.yul\":9658:9667   */\n      0x00\n        /* \"#utility.yul\":9691:9744   */\n      tag_389\n        /* \"#utility.yul\":9709:9743   */\n      tag_390\n        /* \"#utility.yul\":9718:9742   */\n      tag_391\n        /* \"#utility.yul\":9736:9741   */\n      dup5\n        /* \"#utility.yul\":9718:9742   */\n      tag_227\n      jump\t// in\n    tag_391:\n        /* \"#utility.yul\":9709:9743   */\n      tag_249\n      jump\t// in\n    tag_390:\n        /* \"#utility.yul\":9691:9744   */\n      tag_227\n      jump\t// in\n    tag_389:\n        /* \"#utility.yul\":9678:9744   */\n      swap1\n      pop\n        /* \"#utility.yul\":9608:9750   */\n      swap2\n      swap1\n      pop\n      jump\t// out\n        /* \"#utility.yul\":9756:9882   */\n    tag_251:\n        /* \"#utility.yul\":9806:9815   */\n      0x00\n        /* \"#utility.yul\":9839:9876   */\n      tag_393\n        /* \"#utility.yul\":9870:9875   */\n      dup3\n        /* \"#utility.yul\":9839:9876   */\n      tag_250\n      jump\t// in\n    tag_393:\n        /* \"#utility.yul\":9826:9876   */\n      swap1\n      pop\n        /* \"#utility.yul\":9756:9882   */\n      swap2\n      swap1\n      pop\n      jump\t// out\n        /* \"#utility.yul\":9888:10031   */\n    tag_252:\n        /* \"#utility.yul\":9955:9964   */\n      0x00\n        /* \"#utility.yul\":9988:10025   */\n      tag_395\n        /* \"#utility.yul\":10019:10024   */\n      dup3\n        /* \"#utility.yul\":9988:10025   */\n      tag_251\n      jump\t// in\n    tag_395:\n        /* \"#utility.yul\":9975:10025   */\n      swap1\n      pop\n        /* \"#utility.yul\":9888:10031   */\n      swap2\n      swap1\n      pop\n      jump\t// out\n        /* \"#utility.yul\":10037:10202   */\n    tag_253:\n        /* \"#utility.yul\":10141:10195   */\n      tag_397\n        /* \"#utility.yul\":10189:10194   */\n      dup2\n        /* \"#utility.yul\":10141:10195   */\n      tag_252\n      jump\t// in\n    tag_397:\n        /* \"#utility.yul\":10136:10139   */\n      dup3\n        /* \"#utility.yul\":10129:10196   */\n      mstore\n        /* \"#utility.yul\":10037:10202   */\n      pop\n      pop\n      jump\t// out\n        /* \"#utility.yul\":10208:10464   */\n    tag_28:\n        /* \"#utility.yul\":10318:10322   */\n      0x00\n        /* \"#utility.yul\":10356:10358   */\n      0x20\n        /* \"#utility.yul\":10345:10354   */\n      dup3\n        /* \"#utility.yul\":10341:10359   */\n      add\n        /* \"#utility.yul\":10333:10359   */\n      swap1\n      pop\n        /* \"#utility.yul\":10369:10457   */\n      tag_399\n        /* \"#utility.yul\":10454:10455   */\n      0x00\n        /* \"#utility.yul\":10443:10452   */\n      dup4\n        /* \"#utility.yul\":10439:10456   */\n      add\n        /* \"#utility.yul\":10430:10436   */\n      dup5\n        /* \"#utility.yul\":10369:10457   */\n      tag_253\n      jump\t// in\n    tag_399:\n        /* \"#utility.yul\":10208:10464   */\n      swap3\n      swap2\n      pop\n      pop\n      jump\t// out\n        /* \"#utility.yul\":10470:10799   */\n    tag_31:\n        /* \"#utility.yul\":10529:10535   */\n      0x00\n        /* \"#utility.yul\":10578:10580   */\n      0x20\n        /* \"#utility.yul\":10566:10575   */\n      dup3\n        /* \"#utility.yul\":10557:10564   */\n      dup5\n        /* \"#utility.yul\":10553:10576   */\n      sub\n        /* \"#utility.yul\":10549:10581   */\n      slt\n        /* \"#utility.yul\":10546:10665   */\n      iszero\n      tag_401\n      jumpi\n        /* \"#utility.yul\":10584:10663   */\n      tag_402\n      tag_225\n      jump\t// in\n    tag_402:\n        /* \"#utility.yul\":10546:10665   */\n    tag_401:\n        /* \"#utility.yul\":10704:10705   */\n      0x00\n        /* \"#utility.yul\":10729:10782   */\n      tag_403\n        /* \"#utility.yul\":10774:10781   */\n      dup5\n        /* \"#utility.yul\":10765:10771   */\n      dup3\n        /* \"#utility.yul\":10754:10763   */\n      dup6\n        /* \"#utility.yul\":10750:10772   */\n      add\n        /* \"#utility.yul\":10729:10782   */\n      tag_233\n      jump\t// in\n    tag_403:\n        /* \"#utility.yul\":10719:10782   */\n      swap2\n      pop\n        /* \"#utility.yul\":10675:10792   */\n      pop\n        /* \"#utility.yul\":10470:10799   */\n      swap3\n      swap2\n      pop\n      pop\n      jump\t// out\n        /* \"#utility.yul\":10805:11027   */\n    tag_34:\n        /* \"#utility.yul\":10898:10902   */\n      0x00\n        /* \"#utility.yul\":10936:10938   */\n      0x20\n        /* \"#utility.yul\":10925:10934   */\n      dup3\n        /* \"#utility.yul\":10921:10939   */\n      add\n        /* \"#utility.yul\":10913:10939   */\n      swap1\n      pop\n        /* \"#utility.yul\":10949:11020   */\n      tag_405\n        /* \"#utility.yul\":11017:11018   */\n      0x00\n        /* \"#utility.yul\":11006:11015   */\n      dup4\n        /* \"#utility.yul\":11002:11019   */\n      add\n        /* \"#utility.yul\":10993:10999   */\n      dup5\n        /* \"#utility.yul\":10949:11020   */\n      tag_239\n      jump\t// in\n    tag_405:\n        /* \"#utility.yul\":10805:11027   */\n      swap3\n      swap2\n      pop\n      pop\n      jump\t// out\n        /* \"#utility.yul\":11033:11167   */\n    tag_254:\n        /* \"#utility.yul\":11120:11126   */\n      0x00\n        /* \"#utility.yul\":11154:11159   */\n      dup2\n        /* \"#utility.yul\":11148:11160   */\n      mload\n        /* \"#utility.yul\":11138:11160   */\n      swap1\n      pop\n        /* \"#utility.yul\":11033:11167   */\n      swap2\n      swap1\n      pop\n      jump\t// out\n        /* \"#utility.yul\":11173:11377   */\n    tag_255:\n        /* \"#utility.yul\":11292:11303   */\n      0x00\n        /* \"#utility.yul\":11326:11332   */\n      dup3\n        /* \"#utility.yul\":11321:11324   */\n      dup3\n        /* \"#utility.yul\":11314:11333   */\n      mstore\n        /* \"#utility.yul\":11366:11370   */\n      0x20\n        /* \"#utility.yul\":11361:11364   */\n      dup3\n        /* \"#utility.yul\":11357:11371   */\n      add\n        /* \"#utility.yul\":11342:11371   */\n      swap1\n      pop\n        /* \"#utility.yul\":11173:11377   */\n      swap3\n      swap2\n      pop\n      pop\n      jump\t// out\n        /* \"#utility.yul\":11383:11535   */\n    tag_256:\n        /* \"#utility.yul\":11470:11474   */\n      0x00\n        /* \"#utility.yul\":11493:11496   */\n      dup2\n        /* \"#utility.yul\":11485:11496   */\n      swap1\n      pop\n        /* \"#utility.yul\":11523:11527   */\n      0x20\n        /* \"#utility.yul\":11518:11521   */\n      dup3\n        /* \"#utility.yul\":11514:11528   */\n      add\n        /* \"#utility.yul\":11506:11528   */\n      swap1\n      pop\n        /* \"#utility.yul\":11383:11535   */\n      swap2\n      swap1\n      pop\n      jump\t// out\n        /* \"#utility.yul\":11541:11700   */\n    tag_257:\n        /* \"#utility.yul\":11615:11626   */\n      0x00\n        /* \"#utility.yul\":11649:11655   */\n      dup3\n        /* \"#utility.yul\":11644:11647   */\n      dup3\n        /* \"#utility.yul\":11637:11656   */\n      mstore\n        /* \"#utility.yul\":11689:11693   */\n      0x20\n        /* \"#utility.yul\":11684:11687   */\n      dup3\n        /* \"#utility.yul\":11680:11694   */\n      add\n        /* \"#utility.yul\":11665:11694   */\n      swap1\n      pop\n        /* \"#utility.yul\":11541:11700   */\n      swap3\n      swap2\n      pop\n      pop\n      jump\t// out\n        /* \"#utility.yul\":11706:12063   */\n    tag_258:\n        /* \"#utility.yul\":11784:11787   */\n      0x00\n        /* \"#utility.yul\":11812:11851   */\n      tag_411\n        /* \"#utility.yul\":11845:11850   */\n      dup3\n        /* \"#utility.yul\":11812:11851   */\n      tag_234\n      jump\t// in\n    tag_411:\n        /* \"#utility.yul\":11867:11928   */\n      tag_412\n        /* \"#utility.yul\":11921:11927   */\n      dup2\n        /* \"#utility.yul\":11916:11919   */\n      dup6\n        /* \"#utility.yul\":11867:11928   */\n      tag_257\n      jump\t// in\n    tag_412:\n        /* \"#utility.yul\":11860:11928   */\n      swap4\n      pop\n        /* \"#utility.yul\":11937:12002   */\n      tag_413\n        /* \"#utility.yul\":11995:12001   */\n      dup2\n        /* \"#utility.yul\":11990:11993   */\n      dup6\n        /* \"#utility.yul\":11983:11987   */\n      0x20\n        /* \"#utility.yul\":11976:11981   */\n      dup7\n        /* \"#utility.yul\":11972:11988   */\n      add\n        /* \"#utility.yul\":11937:12002   */\n      tag_236\n      jump\t// in\n    tag_413:\n        /* \"#utility.yul\":12027:12056   */\n      tag_414\n        /* \"#utility.yul\":12049:12055   */\n      dup2\n        /* \"#utility.yul\":12027:12056   */\n      tag_237\n      jump\t// in\n    tag_414:\n        /* \"#utility.yul\":12022:12025   */\n      dup5\n        /* \"#utility.yul\":12018:12057   */\n      add\n        /* \"#utility.yul\":12011:12057   */\n      swap2\n      pop\n        /* \"#utility.yul\":11788:12063   */\n      pop\n        /* \"#utility.yul\":11706:12063   */\n      swap3\n      swap2\n      pop\n      pop\n      jump\t// out\n        /* \"#utility.yul\":12069:12177   */\n    tag_259:\n        /* \"#utility.yul\":12146:12170   */\n      tag_416\n        /* \"#utility.yul\":12164:12169   */\n      dup2\n        /* \"#utility.yul\":12146:12170   */\n      tag_228\n      jump\t// in\n    tag_416:\n        /* \"#utility.yul\":12141:12144   */\n      dup3\n        /* \"#utility.yul\":12134:12171   */\n      mstore\n        /* \"#utility.yul\":12069:12177   */\n      pop\n      pop\n      jump\t// out\n        /* \"#utility.yul\":12255:14332   */\n    tag_260:\n        /* \"#utility.yul\":12354:12357   */\n      0x00\n        /* \"#utility.yul\":12390:12396   */\n      0x0100\n        /* \"#utility.yul\":12385:12388   */\n      dup4\n        /* \"#utility.yul\":12381:12397   */\n      add\n        /* \"#utility.yul\":12479:12483   */\n      0x00\n        /* \"#utility.yul\":12472:12477   */\n      dup4\n        /* \"#utility.yul\":12468:12484   */\n      add\n        /* \"#utility.yul\":12462:12485   */\n      mload\n        /* \"#utility.yul\":12532:12535   */\n      dup5\n        /* \"#utility.yul\":12526:12530   */\n      dup3\n        /* \"#utility.yul\":12522:12536   */\n      sub\n        /* \"#utility.yul\":12515:12519   */\n      0x00\n        /* \"#utility.yul\":12510:12513   */\n      dup7\n        /* \"#utility.yul\":12506:12520   */\n      add\n        /* \"#utility.yul\":12499:12537   */\n      mstore\n        /* \"#utility.yul\":12558:12631   */\n      tag_418\n        /* \"#utility.yul\":12626:12630   */\n      dup3\n        /* \"#utility.yul\":12612:12624   */\n      dup3\n        /* \"#utility.yul\":12558:12631   */\n      tag_258\n      jump\t// in\n    tag_418:\n        /* \"#utility.yul\":12550:12631   */\n      swap2\n      pop\n        /* \"#utility.yul\":12407:12642   */\n      pop\n        /* \"#utility.yul\":12727:12731   */\n      0x20\n        /* \"#utility.yul\":12720:12725   */\n      dup4\n        /* \"#utility.yul\":12716:12732   */\n      add\n        /* \"#utility.yul\":12710:12733   */\n      mload\n        /* \"#utility.yul\":12780:12783   */\n      dup5\n        /* \"#utility.yul\":12774:12778   */\n      dup3\n        /* \"#utility.yul\":12770:12784   */\n      sub\n        /* \"#utility.yul\":12763:12767   */\n      0x20\n        /* \"#utility.yul\":12758:12761   */\n      dup7\n        /* \"#utility.yul\":12754:12768   */\n      add\n        /* \"#utility.yul\":12747:12785   */\n      mstore\n        /* \"#utility.yul\":12806:12879   */\n      tag_419\n        /* \"#utility.yul\":12874:12878   */\n      dup3\n        /* \"#utility.yul\":12860:12872   */\n      dup3\n        /* \"#utility.yul\":12806:12879   */\n      tag_258\n      jump\t// in\n    tag_419:\n        /* \"#utility.yul\":12798:12879   */\n      swap2\n      pop\n        /* \"#utility.yul\":12652:12890   */\n      pop\n        /* \"#utility.yul\":12978:12982   */\n      0x40\n        /* \"#utility.yul\":12971:12976   */\n      dup4\n        /* \"#utility.yul\":12967:12983   */\n      add\n        /* \"#utility.yul\":12961:12984   */\n      mload\n        /* \"#utility.yul\":13031:13034   */\n      dup5\n        /* \"#utility.yul\":13025:13029   */\n      dup3\n        /* \"#utility.yul\":13021:13035   */\n      sub\n        /* \"#utility.yul\":13014:13018   */\n      0x40\n        /* \"#utility.yul\":13009:13012   */\n      dup7\n        /* \"#utility.yul\":13005:13019   */\n      add\n        /* \"#utility.yul\":12998:13036   */\n      mstore\n        /* \"#utility.yul\":13057:13130   */\n      tag_420\n        /* \"#utility.yul\":13125:13129   */\n      dup3\n        /* \"#utility.yul\":13111:13123   */\n      dup3\n        /* \"#utility.yul\":13057:13130   */\n      tag_258\n      jump\t// in\n    tag_420:\n        /* \"#utility.yul\":13049:13130   */\n      swap2\n      pop\n        /* \"#utility.yul\":12900:13141   */\n      pop\n        /* \"#utility.yul\":13223:13227   */\n      0x60\n        /* \"#utility.yul\":13216:13221   */\n      dup4\n        /* \"#utility.yul\":13212:13228   */\n      add\n        /* \"#utility.yul\":13206:13229   */\n      mload\n        /* \"#utility.yul\":13276:13279   */\n      dup5\n        /* \"#utility.yul\":13270:13274   */\n      dup3\n        /* \"#utility.yul\":13266:13280   */\n      sub\n        /* \"#utility.yul\":13259:13263   */\n      0x60\n        /* \"#utility.yul\":13254:13257   */\n      dup7\n        /* \"#utility.yul\":13250:13264   */\n      add\n        /* \"#utility.yul\":13243:13281   */\n      mstore\n        /* \"#utility.yul\":13302:13375   */\n      tag_421\n        /* \"#utility.yul\":13370:13374   */\n      dup3\n        /* \"#utility.yul\":13356:13368   */\n      dup3\n        /* \"#utility.yul\":13302:13375   */\n      tag_258\n      jump\t// in\n    tag_421:\n        /* \"#utility.yul\":13294:13375   */\n      swap2\n      pop\n        /* \"#utility.yul\":13151:13386   */\n      pop\n        /* \"#utility.yul\":13471:13475   */\n      0x80\n        /* \"#utility.yul\":13464:13469   */\n      dup4\n        /* \"#utility.yul\":13460:13476   */\n      add\n        /* \"#utility.yul\":13454:13477   */\n      mload\n        /* \"#utility.yul\":13524:13527   */\n      dup5\n        /* \"#utility.yul\":13518:13522   */\n      dup3\n        /* \"#utility.yul\":13514:13528   */\n      sub\n        /* \"#utility.yul\":13507:13511   */\n      0x80\n        /* \"#utility.yul\":13502:13505   */\n      dup7\n        /* \"#utility.yul\":13498:13512   */\n      add\n        /* \"#utility.yul\":13491:13529   */\n      mstore\n        /* \"#utility.yul\":13550:13623   */\n      tag_422\n        /* \"#utility.yul\":13618:13622   */\n      dup3\n        /* \"#utility.yul\":13604:13616   */\n      dup3\n        /* \"#utility.yul\":13550:13623   */\n      tag_258\n      jump\t// in\n    tag_422:\n        /* \"#utility.yul\":13542:13623   */\n      swap2\n      pop\n        /* \"#utility.yul\":13396:13634   */\n      pop\n        /* \"#utility.yul\":13719:13723   */\n      0xa0\n        /* \"#utility.yul\":13712:13717   */\n      dup4\n        /* \"#utility.yul\":13708:13724   */\n      add\n        /* \"#utility.yul\":13702:13725   */\n      mload\n        /* \"#utility.yul\":13772:13775   */\n      dup5\n        /* \"#utility.yul\":13766:13770   */\n      dup3\n        /* \"#utility.yul\":13762:13776   */\n      sub\n        /* \"#utility.yul\":13755:13759   */\n      0xa0\n        /* \"#utility.yul\":13750:13753   */\n      dup7\n        /* \"#utility.yul\":13746:13760   */\n      add\n        /* \"#utility.yul\":13739:13777   */\n      mstore\n        /* \"#utility.yul\":13798:13871   */\n      tag_423\n        /* \"#utility.yul\":13866:13870   */\n      dup3\n        /* \"#utility.yul\":13852:13864   */\n      dup3\n        /* \"#utility.yul\":13798:13871   */\n      tag_258\n      jump\t// in\n    tag_423:\n        /* \"#utility.yul\":13790:13871   */\n      swap2\n      pop\n        /* \"#utility.yul\":13644:13882   */\n      pop\n        /* \"#utility.yul\":13966:13970   */\n      0xc0\n        /* \"#utility.yul\":13959:13964   */\n      dup4\n        /* \"#utility.yul\":13955:13971   */\n      add\n        /* \"#utility.yul\":13949:13972   */\n      mload\n        /* \"#utility.yul\":14019:14022   */\n      dup5\n        /* \"#utility.yul\":14013:14017   */\n      dup3\n        /* \"#utility.yul\":14009:14023   */\n      sub\n        /* \"#utility.yul\":14002:14006   */\n      0xc0\n        /* \"#utility.yul\":13997:14000   */\n      dup7\n        /* \"#utility.yul\":13993:14007   */\n      add\n        /* \"#utility.yul\":13986:14024   */\n      mstore\n        /* \"#utility.yul\":14045:14118   */\n      tag_424\n        /* \"#utility.yul\":14113:14117   */\n      dup3\n        /* \"#utility.yul\":14099:14111   */\n      dup3\n        /* \"#utility.yul\":14045:14118   */\n      tag_258\n      jump\t// in\n    tag_424:\n        /* \"#utility.yul\":14037:14118   */\n      swap2\n      pop\n        /* \"#utility.yul\":13892:14129   */\n      pop\n        /* \"#utility.yul\":14213:14217   */\n      0xe0\n        /* \"#utility.yul\":14206:14211   */\n      dup4\n        /* \"#utility.yul\":14202:14218   */\n      add\n        /* \"#utility.yul\":14196:14219   */\n      mload\n        /* \"#utility.yul\":14232:14295   */\n      tag_425\n        /* \"#utility.yul\":14289:14293   */\n      0xe0\n        /* \"#utility.yul\":14284:14287   */\n      dup7\n        /* \"#utility.yul\":14280:14294   */\n      add\n        /* \"#utility.yul\":14266:14278   */\n      dup3\n        /* \"#utility.yul\":14232:14295   */\n      tag_259\n      jump\t// in\n    tag_425:\n        /* \"#utility.yul\":14139:14305   */\n      pop\n        /* \"#utility.yul\":14322:14326   */\n      dup1\n        /* \"#utility.yul\":14315:14326   */\n      swap2\n      pop\n        /* \"#utility.yul\":12359:14332   */\n      pop\n        /* \"#utility.yul\":12255:14332   */\n      swap3\n      swap2\n      pop\n      pop\n      jump\t// out\n        /* \"#utility.yul\":14338:14574   */\n    tag_261:\n        /* \"#utility.yul\":14447:14457   */\n      0x00\n        /* \"#utility.yul\":14482:14568   */\n      tag_427\n        /* \"#utility.yul\":14564:14567   */\n      dup4\n        /* \"#utility.yul\":14556:14562   */\n      dup4\n        /* \"#utility.yul\":14482:14568   */\n      tag_260\n      jump\t// in\n    tag_427:\n        /* \"#utility.yul\":14468:14568   */\n      swap1\n      pop\n        /* \"#utility.yul\":14338:14574   */\n      swap3\n      swap2\n      pop\n      pop\n      jump\t// out\n        /* \"#utility.yul\":14580:14713   */\n    tag_262:\n        /* \"#utility.yul\":14670:14674   */\n      0x00\n        /* \"#utility.yul\":14702:14706   */\n      0x20\n        /* \"#utility.yul\":14697:14700   */\n      dup3\n        /* \"#utility.yul\":14693:14707   */\n      add\n        /* \"#utility.yul\":14685:14707   */\n      swap1\n      pop\n        /* \"#utility.yul\":14580:14713   */\n      swap2\n      swap1\n      pop\n      jump\t// out\n        /* \"#utility.yul\":14795:15866   */\n    tag_263:\n        /* \"#utility.yul\":14954:14957   */\n      0x00\n        /* \"#utility.yul\":14983:15057   */\n      tag_430\n        /* \"#utility.yul\":15051:15056   */\n      dup3\n        /* \"#utility.yul\":14983:15057   */\n      tag_254\n      jump\t// in\n    tag_430:\n        /* \"#utility.yul\":15073:15179   */\n      tag_431\n        /* \"#utility.yul\":15172:15178   */\n      dup2\n        /* \"#utility.yul\":15167:15170   */\n      dup6\n        /* \"#utility.yul\":15073:15179   */\n      tag_255\n      jump\t// in\n    tag_431:\n        /* \"#utility.yul\":15066:15179   */\n      swap4\n      pop\n        /* \"#utility.yul\":15205:15208   */\n      dup4\n        /* \"#utility.yul\":15250:15254   */\n      0x20\n        /* \"#utility.yul\":15242:15248   */\n      dup3\n        /* \"#utility.yul\":15238:15255   */\n      mul\n        /* \"#utility.yul\":15233:15236   */\n      dup6\n        /* \"#utility.yul\":15229:15256   */\n      add\n        /* \"#utility.yul\":15280:15356   */\n      tag_432\n        /* \"#utility.yul\":15350:15355   */\n      dup6\n        /* \"#utility.yul\":15280:15356   */\n      tag_256\n      jump\t// in\n    tag_432:\n        /* \"#utility.yul\":15379:15386   */\n      dup1\n        /* \"#utility.yul\":15410:15411   */\n      0x00\n        /* \"#utility.yul\":15395:15821   */\n    tag_433:\n        /* \"#utility.yul\":15420:15426   */\n      dup6\n        /* \"#utility.yul\":15417:15418   */\n      dup2\n        /* \"#utility.yul\":15414:15427   */\n      lt\n        /* \"#utility.yul\":15395:15821   */\n      iszero\n      tag_435\n      jumpi\n        /* \"#utility.yul\":15491:15500   */\n      dup5\n        /* \"#utility.yul\":15485:15489   */\n      dup5\n        /* \"#utility.yul\":15481:15501   */\n      sub\n        /* \"#utility.yul\":15476:15479   */\n      dup10\n        /* \"#utility.yul\":15469:15502   */\n      mstore\n        /* \"#utility.yul\":15542:15548   */\n      dup2\n        /* \"#utility.yul\":15536:15549   */\n      mload\n        /* \"#utility.yul\":15570:15674   */\n      tag_436\n        /* \"#utility.yul\":15669:15673   */\n      dup6\n        /* \"#utility.yul\":15654:15667   */\n      dup3\n        /* \"#utility.yul\":15570:15674   */\n      tag_261\n      jump\t// in\n    tag_436:\n        /* \"#utility.yul\":15562:15674   */\n      swap5\n      pop\n        /* \"#utility.yul\":15697:15777   */\n      tag_437\n        /* \"#utility.yul\":15770:15776   */\n      dup4\n        /* \"#utility.yul\":15697:15777   */\n      tag_262\n      jump\t// in\n    tag_437:\n        /* \"#utility.yul\":15687:15777   */\n      swap3\n      pop\n        /* \"#utility.yul\":15806:15810   */\n      0x20\n        /* \"#utility.yul\":15801:15804   */\n      dup11\n        /* \"#utility.yul\":15797:15811   */\n      add\n        /* \"#utility.yul\":15790:15811   */\n      swap10\n      pop\n        /* \"#utility.yul\":15455:15821   */\n      pop\n        /* \"#utility.yul\":15442:15443   */\n      0x01\n        /* \"#utility.yul\":15439:15440   */\n      dup2\n        /* \"#utility.yul\":15435:15444   */\n      add\n        /* \"#utility.yul\":15430:15444   */\n      swap1\n      pop\n        /* \"#utility.yul\":15395:15821   */\n      jump(tag_433)\n    tag_435:\n        /* \"#utility.yul\":15399:15413   */\n      pop\n        /* \"#utility.yul\":15837:15841   */\n      dup3\n        /* \"#utility.yul\":15830:15841   */\n      swap8\n      pop\n        /* \"#utility.yul\":15857:15860   */\n      dup8\n        /* \"#utility.yul\":15850:15860   */\n      swap6\n      pop\n        /* \"#utility.yul\":14959:15866   */\n      pop\n      pop\n      pop\n      pop\n      pop\n        /* \"#utility.yul\":14795:15866   */\n      swap3\n      swap2\n      pop\n      pop\n      jump\t// out\n        /* \"#utility.yul\":15872:16325   */\n    tag_39:\n        /* \"#utility.yul\":16055:16059   */\n      0x00\n        /* \"#utility.yul\":16093:16095   */\n      0x20\n        /* \"#utility.yul\":16082:16091   */\n      dup3\n        /* \"#utility.yul\":16078:16096   */\n      add\n        /* \"#utility.yul\":16070:16096   */\n      swap1\n      pop\n        /* \"#utility.yul\":16142:16151   */\n      dup2\n        /* \"#utility.yul\":16136:16140   */\n      dup2\n        /* \"#utility.yul\":16132:16152   */\n      sub\n        /* \"#utility.yul\":16128:16129   */\n      0x00\n        /* \"#utility.yul\":16117:16126   */\n      dup4\n        /* \"#utility.yul\":16113:16130   */\n      add\n        /* \"#utility.yul\":16106:16153   */\n      mstore\n        /* \"#utility.yul\":16170:16318   */\n      tag_439\n        /* \"#utility.yul\":16313:16317   */\n      dup2\n        /* \"#utility.yul\":16304:16310   */\n      dup5\n        /* \"#utility.yul\":16170:16318   */\n      tag_263\n      jump\t// in\n    tag_439:\n        /* \"#utility.yul\":16162:16318   */\n      swap1\n      pop\n        /* \"#utility.yul\":15872:16325   */\n      swap3\n      swap2\n      pop\n      pop\n      jump\t// out\n        /* \"#utility.yul\":16331:16511   */\n    tag_264:\n        /* \"#utility.yul\":16379:16456   */\n      0x4e487b7100000000000000000000000000000000000000000000000000000000\n        /* \"#utility.yul\":16376:16377   */\n      0x00\n        /* \"#utility.yul\":16369:16457   */\n      mstore\n        /* \"#utility.yul\":16476:16480   */\n      0x22\n        /* \"#utility.yul\":16473:16474   */\n      0x04\n        /* \"#utility.yul\":16466:16481   */\n      mstore\n        /* \"#utility.yul\":16500:16504   */\n      0x24\n        /* \"#utility.yul\":16497:16498   */\n      0x00\n        /* \"#utility.yul\":16490:16505   */\n      revert\n        /* \"#utility.yul\":16517:16837   */\n    tag_46:\n        /* \"#utility.yul\":16561:16567   */\n      0x00\n        /* \"#utility.yul\":16598:16599   */\n      0x02\n        /* \"#utility.yul\":16592:16596   */\n      dup3\n        /* \"#utility.yul\":16588:16600   */\n      div\n        /* \"#utility.yul\":16578:16600   */\n      swap1\n      pop\n        /* \"#utility.yul\":16645:16646   */\n      0x01\n        /* \"#utility.yul\":16639:16643   */\n      dup3\n        /* \"#utility.yul\":16635:16647   */\n      and\n        /* \"#utility.yul\":16666:16684   */\n      dup1\n        /* \"#utility.yul\":16656:16737   */\n      tag_442\n      jumpi\n        /* \"#utility.yul\":16722:16726   */\n      0x7f\n        /* \"#utility.yul\":16714:16720   */\n      dup3\n        /* \"#utility.yul\":16710:16727   */\n      and\n        /* \"#utility.yul\":16700:16727   */\n      swap2\n      pop\n        /* \"#utility.yul\":16656:16737   */\n    tag_442:\n        /* \"#utility.yul\":16784:16786   */\n      0x20\n        /* \"#utility.yul\":16776:16782   */\n      dup3\n        /* \"#utility.yul\":16773:16787   */\n      lt\n        /* \"#utility.yul\":16753:16771   */\n      dup2\n        /* \"#utility.yul\":16750:16788   */\n      sub\n        /* \"#utility.yul\":16747:16831   */\n      tag_443\n      jumpi\n        /* \"#utility.yul\":16803:16821   */\n      tag_444\n      tag_264\n      jump\t// in\n    tag_444:\n        /* \"#utility.yul\":16747:16831   */\n    tag_443:\n        /* \"#utility.yul\":16568:16837   */\n      pop\n        /* \"#utility.yul\":16517:16837   */\n      swap2\n      swap1\n      pop\n      jump\t// out\n        /* \"#utility.yul\":16843:16984   */\n    tag_265:\n        /* \"#utility.yul\":16892:16896   */\n      0x00\n        /* \"#utility.yul\":16915:16918   */\n      dup2\n        /* \"#utility.yul\":16907:16918   */\n      swap1\n      pop\n        /* \"#utility.yul\":16938:16941   */\n      dup2\n        /* \"#utility.yul\":16935:16936   */\n      0x00\n        /* \"#utility.yul\":16928:16942   */\n      mstore\n        /* \"#utility.yul\":16972:16976   */\n      0x20\n        /* \"#utility.yul\":16969:16970   */\n      0x00\n        /* \"#utility.yul\":16959:16977   */\n      keccak256\n        /* \"#utility.yul\":16951:16977   */\n      swap1\n      pop\n        /* \"#utility.yul\":16843:16984   */\n      swap2\n      swap1\n      pop\n      jump\t// out\n        /* \"#utility.yul\":16990:17083   */\n    tag_266:\n        /* \"#utility.yul\":17027:17033   */\n      0x00\n        /* \"#utility.yul\":17074:17076   */\n      0x20\n        /* \"#utility.yul\":17069:17071   */\n      0x1f\n        /* \"#utility.yul\":17062:17067   */\n      dup4\n        /* \"#utility.yul\":17058:17072   */\n      add\n        /* \"#utility.yul\":17054:17077   */\n      div\n        /* \"#utility.yul\":17044:17077   */\n      swap1\n      pop\n        /* \"#utility.yul\":16990:17083   */\n      swap2\n      swap1\n      pop\n      jump\t// out\n        /* \"#utility.yul\":17089:17196   */\n    tag_267:\n        /* \"#utility.yul\":17133:17141   */\n      0x00\n        /* \"#utility.yul\":17183:17188   */\n      dup3\n        /* \"#utility.yul\":17177:17181   */\n      dup3\n        /* \"#utility.yul\":17173:17189   */\n      shl\n        /* \"#utility.yul\":17152:17189   */\n      swap1\n      pop\n        /* \"#utility.yul\":17089:17196   */\n      swap3\n      swap2\n      pop\n      pop\n      jump\t// out\n        /* \"#utility.yul\":17202:17595   */\n    tag_268:\n        /* \"#utility.yul\":17271:17277   */\n      0x00\n        /* \"#utility.yul\":17321:17322   */\n      0x08\n        /* \"#utility.yul\":17309:17319   */\n      dup4\n        /* \"#utility.yul\":17305:17323   */\n      mul\n        /* \"#utility.yul\":17344:17441   */\n      tag_449\n        /* \"#utility.yul\":17374:17440   */\n      0xffffffffffffffffffffffffffffffffffffffffffffffffffffffffffffffff\n        /* \"#utility.yul\":17363:17372   */\n      dup3\n        /* \"#utility.yul\":17344:17441   */\n      tag_267\n      jump\t// in\n    tag_449:\n        /* \"#utility.yul\":17462:17501   */\n      tag_450\n        /* \"#utility.yul\":17492:17500   */\n      dup7\n        /* \"#utility.yul\":17481:17490   */\n      dup4\n        /* \"#utility.yul\":17462:17501   */\n      tag_267\n      jump\t// in\n    tag_450:\n        /* \"#utility.yul\":17450:17501   */\n      swap6\n      pop\n        /* \"#utility.yul\":17534:17538   */\n      dup1\n        /* \"#utility.yul\":17530:17539   */\n      not\n        /* \"#utility.yul\":17523:17528   */\n      dup5\n        /* \"#utility.yul\":17519:17540   */\n      and\n        /* \"#utility.yul\":17510:17540   */\n      swap4\n      pop\n        /* \"#utility.yul\":17583:17587   */\n      dup1\n        /* \"#utility.yul\":17573:17581   */\n      dup7\n        /* \"#utility.yul\":17569:17588   */\n      and\n        /* \"#utility.yul\":17562:17567   */\n      dup5\n        /* \"#utility.yul\":17559:17589   */\n      or\n        /* \"#utility.yul\":17549:17589   */\n      swap3\n      pop\n        /* \"#utility.yul\":17278:17595   */\n      pop\n      pop\n        /* \"#utility.yul\":17202:17595   */\n      swap4\n      swap3\n      pop\n      pop\n      pop\n      jump\t// out\n        /* \"#utility.yul\":17601:17743   */\n    tag_269:\n        /* \"#utility.yul\":17651:17660   */\n      0x00\n        /* \"#utility.yul\":17684:17737   */\n      tag_452\n        /* \"#utility.yul\":17702:17736   */\n      tag_453\n        /* \"#utility.yul\":17711:17735   */\n      tag_454\n        /* \"#utility.yul\":17729:17734   */\n      dup5\n        /* \"#utility.yul\":17711:17735   */\n      tag_231\n      jump\t// in\n    tag_454:\n        /* \"#utility.yul\":17702:17736   */\n      tag_249\n      jump\t// in\n    tag_453:\n        /* \"#utility.yul\":17684:17737   */\n      tag_231\n      jump\t// in\n    tag_452:\n        /* \"#utility.yul\":17671:17737   */\n      swap1\n      pop\n        /* \"#utility.yul\":17601:17743   */\n      swap2\n      swap1\n      pop\n      jump\t// out\n        /* \"#utility.yul\":17749:17824   */\n    tag_270:\n        /* \"#utility.yul\":17792:17795   */\n      0x00\n        /* \"#utility.yul\":17813:17818   */\n      dup2\n        /* \"#utility.yul\":17806:17818   */\n      swap1\n      pop\n        /* \"#utility.yul\":17749:17824   */\n      swap2\n      swap1\n      pop\n      jump\t// out\n        /* \"#utility.yul\":17830:18099   */\n    tag_271:\n        /* \"#utility.yul\":17940:17979   */\n      tag_457\n        /* \"#utility.yul\":17971:17978   */\n      dup4\n        /* \"#utility.yul\":17940:17979   */\n      tag_269\n      jump\t// in\n    tag_457:\n        /* \"#utility.yul\":18001:18092   */\n      tag_458\n        /* \"#utility.yul\":18050:18091   */\n      tag_459\n        /* \"#utility.yul\":18074:18090   */\n      dup3\n        /* \"#utility.yul\":18050:18091   */\n      tag_270\n      jump\t// in\n    tag_459:\n        /* \"#utility.yul\":18042:18048   */\n      dup5\n        /* \"#utility.yul\":18035:18039   */\n      dup5\n        /* \"#utility.yul\":18029:18040   */\n      sload\n        /* \"#utility.yul\":18001:18092   */\n      tag_268\n      jump\t// in\n    tag_458:\n        /* \"#utility.yul\":17995:17999   */\n      dup3\n        /* \"#utility.yul\":17988:18093   */\n      sstore\n        /* \"#utility.yul\":17906:18099   */\n      pop\n        /* \"#utility.yul\":17830:18099   */\n      pop\n      pop\n      pop\n      jump\t// out\n        /* \"#utility.yul\":18105:18178   */\n    tag_272:\n        /* \"#utility.yul\":18150:18153   */\n      0x00\n        /* \"#utility.yul\":18105:18178   */\n      swap1\n      jump\t// out\n        /* \"#utility.yul\":18184:18373   */\n    tag_273:\n        /* \"#utility.yul\":18261:18293   */\n      tag_462\n      tag_272\n      jump\t// in\n    tag_462:\n        /* \"#utility.yul\":18302:18367   */\n      tag_463\n        /* \"#utility.yul\":18360:18366   */\n      dup2\n        /* \"#utility.yul\":18352:18358   */\n      dup5\n        /* \"#utility.yul\":18346:18350   */\n      dup5\n        /* \"#utility.yul\":18302:18367   */\n      tag_271\n      jump\t// in\n    tag_463:\n        /* \"#utility.yul\":18237:18373   */\n      pop\n        /* \"#utility.yul\":18184:18373   */\n      pop\n      pop\n      jump\t// out\n        /* \"#utility.yul\":18379:18565   */\n    tag_274:\n        /* \"#utility.yul\":18439:18559   */\n    tag_465:\n        /* \"#utility.yul\":18456:18459   */\n      dup2\n        /* \"#utility.yul\":18449:18454   */\n      dup2\n        /* \"#utility.yul\":18446:18460   */\n      lt\n        /* \"#utility.yul\":18439:18559   */\n      iszero\n      tag_467\n      jumpi\n        /* \"#utility.yul\":18510:18549   */\n      tag_468\n        /* \"#utility.yul\":18547:18548   */\n      0x00\n        /* \"#utility.yul\":18540:18545   */\n      dup3\n        /* \"#utility.yul\":18510:18549   */\n      tag_273\n      jump\t// in\n    tag_468:\n        /* \"#utility.yul\":18483:18484   */\n      0x01\n        /* \"#utility.yul\":18476:18481   */\n      dup2\n        /* \"#utility.yul\":18472:18485   */\n      add\n        /* \"#utility.yul\":18463:18485   */\n      swap1\n      pop\n        /* \"#utility.yul\":18439:18559   */\n      jump(tag_465)\n    tag_467:\n        /* \"#utility.yul\":18379:18565   */\n      pop\n      pop\n      jump\t// out\n        /* \"#utility.yul\":18571:19114   */\n    tag_275:\n        /* \"#utility.yul\":18672:18674   */\n      0x1f\n        /* \"#utility.yul\":18667:18670   */\n      dup3\n        /* \"#utility.yul\":18664:18675   */\n      gt\n        /* \"#utility.yul\":18661:19107   */\n      iszero\n      tag_470\n      jumpi\n        /* \"#utility.yul\":18706:18744   */\n      tag_471\n        /* \"#utility.yul\":18738:18743   */\n      dup2\n        /* \"#utility.yul\":18706:18744   */\n      tag_265\n      jump\t// in\n    tag_471:\n        /* \"#utility.yul\":18790:18819   */\n      tag_472\n        /* \"#utility.yul\":18808:18818   */\n      dup5\n        /* \"#utility.yul\":18790:18819   */\n      tag_266\n      jump\t// in\n    tag_472:\n        /* \"#utility.yul\":18780:18788   */\n      dup2\n        /* \"#utility.yul\":18776:18820   */\n      add\n        /* \"#utility.yul\":18973:18975   */\n      0x20\n        /* \"#utility.yul\":18961:18971   */\n      dup6\n        /* \"#utility.yul\":18958:18976   */\n      lt\n        /* \"#utility.yul\":18955:19004   */\n      iszero\n      tag_473\n      jumpi\n        /* \"#utility.yul\":18994:19002   */\n      dup2\n        /* \"#utility.yul\":18979:19002   */\n      swap1\n      pop\n        /* \"#utility.yul\":18955:19004   */\n    tag_473:\n        /* \"#utility.yul\":19017:19097   */\n      tag_474\n        /* \"#utility.yul\":19073:19095   */\n      tag_475\n        /* \"#utility.yul\":19091:19094   */\n      dup6\n        /* \"#utility.yul\":19073:19095   */\n      tag_266\n      jump\t// in\n    tag_475:\n        /* \"#utility.yul\":19063:19071   */\n      dup4\n        /* \"#utility.yul\":19059:19096   */\n      add\n        /* \"#utility.yul\":19046:19057   */\n      dup3\n        /* \"#utility.yul\":19017:19097   */\n      tag_274\n      jump\t// in\n    tag_474:\n        /* \"#utility.yul\":18676:19107   */\n      pop\n      pop\n        /* \"#utility.yul\":18661:19107   */\n    tag_470:\n        /* \"#utility.yul\":18571:19114   */\n      pop\n      pop\n      pop\n      jump\t// out\n        /* \"#utility.yul\":19120:19237   */\n    tag_276:\n        /* \"#utility.yul\":19174:19182   */\n      0x00\n        /* \"#utility.yul\":19224:19229   */\n      dup3\n        /* \"#utility.yul\":19218:19222   */\n      dup3\n        /* \"#utility.yul\":19214:19230   */\n      shr\n        /* \"#utility.yul\":19193:19230   */\n      swap1\n      pop\n        /* \"#utility.yul\":19120:19237   */\n      swap3\n      swap2\n      pop\n      pop\n      jump\t// out\n        /* \"#utility.yul\":19243:19412   */\n    tag_277:\n        /* \"#utility.yul\":19287:19293   */\n      0x00\n        /* \"#utility.yul\":19320:19371   */\n      tag_478\n        /* \"#utility.yul\":19368:19369   */\n      0x00\n        /* \"#utility.yul\":19364:19370   */\n      not\n        /* \"#utility.yul\":19356:19361   */\n      dup5\n        /* \"#utility.yul\":19353:19354   */\n      0x08\n        /* \"#utility.yul\":19349:19362   */\n      mul\n        /* \"#utility.yul\":19320:19371   */\n      tag_276\n      jump\t// in\n    tag_478:\n        /* \"#utility.yul\":19316:19372   */\n      not\n        /* \"#utility.yul\":19401:19405   */\n      dup1\n        /* \"#utility.yul\":19395:19399   */\n      dup4\n        /* \"#utility.yul\":19391:19406   */\n      and\n        /* \"#utility.yul\":19381:19406   */\n      swap2\n      pop\n        /* \"#utility.yul\":19294:19412   */\n      pop\n        /* \"#utility.yul\":19243:19412   */\n      swap3\n      swap2\n      pop\n      pop\n      jump\t// out\n        /* \"#utility.yul\":19417:19712   */\n    tag_278:\n        /* \"#utility.yul\":19493:19497   */\n      0x00\n        /* \"#utility.yul\":19639:19668   */\n      tag_480\n        /* \"#utility.yul\":19664:19667   */\n      dup4\n        /* \"#utility.yul\":19658:19662   */\n      dup4\n        /* \"#utility.yul\":19639:19668   */\n      tag_277\n      jump\t// in\n    tag_480:\n        /* \"#utility.yul\":19631:19668   */\n      swap2\n      pop\n        /* \"#utility.yul\":19701:19704   */\n      dup3\n        /* \"#utility.yul\":19698:19699   */\n      0x02\n        /* \"#utility.yul\":19694:19705   */\n      mul\n        /* \"#utility.yul\":19688:19692   */\n      dup3\n        /* \"#utility.yul\":19685:19706   */\n      or\n        /* \"#utility.yul\":19677:19706   */\n      swap1\n      pop\n        /* \"#utility.yul\":19417:19712   */\n      swap3\n      swap2\n      pop\n      pop\n      jump\t// out\n        /* \"#utility.yul\":19717:21112   */\n    tag_84:\n        /* \"#utility.yul\":19834:19871   */\n      tag_482\n        /* \"#utility.yul\":19867:19870   */\n      dup3\n        /* \"#utility.yul\":19834:19871   */\n      tag_234\n      jump\t// in\n    tag_482:\n        /* \"#utility.yul\":19936:19954   */\n      0xffffffffffffffff\n        /* \"#utility.yul\":19928:19934   */\n      dup2\n        /* \"#utility.yul\":19925:19955   */\n      gt\n        /* \"#utility.yul\":19922:19978   */\n      iszero\n      tag_483\n      jumpi\n        /* \"#utility.yul\":19958:19976   */\n      tag_484\n      tag_115\n      jump\t// in\n    tag_484:\n        /* \"#utility.yul\":19922:19978   */\n    tag_483:\n        /* \"#utility.yul\":20002:20040   */\n      tag_485\n        /* \"#utility.yul\":20034:20038   */\n      dup3\n        /* \"#utility.yul\":20028:20039   */\n      sload\n        /* \"#utility.yul\":20002:20040   */\n      tag_46\n      jump\t// in\n    tag_485:\n        /* \"#utility.yul\":20087:20154   */\n      tag_486\n        /* \"#utility.yul\":20147:20153   */\n      dup3\n        /* \"#utility.yul\":20139:20145   */\n      dup3\n        /* \"#utility.yul\":20133:20137   */\n      dup6\n        /* \"#utility.yul\":20087:20154   */\n      tag_275\n      jump\t// in\n    tag_486:\n        /* \"#utility.yul\":20181:20182   */\n      0x00\n        /* \"#utility.yul\":20205:20209   */\n      0x20\n        /* \"#utility.yul\":20192:20209   */\n      swap1\n      pop\n        /* \"#utility.yul\":20237:20239   */\n      0x1f\n        /* \"#utility.yul\":20229:20235   */\n      dup4\n        /* \"#utility.yul\":20226:20240   */\n      gt\n        /* \"#utility.yul\":20254:20255   */\n      0x01\n        /* \"#utility.yul\":20249:20867   */\n      dup2\n      eq\n      tag_488\n      jumpi\n        /* \"#utility.yul\":20911:20912   */\n      0x00\n        /* \"#utility.yul\":20928:20934   */\n      dup5\n        /* \"#utility.yul\":20925:21002   */\n      iszero\n      tag_489\n      jumpi\n        /* \"#utility.yul\":20977:20986   */\n      dup3\n        /* \"#utility.yul\":20972:20975   */\n      dup8\n        /* \"#utility.yul\":20968:20987   */\n      add\n        /* \"#utility.yul\":20962:20988   */\n      mload\n        /* \"#utility.yul\":20953:20988   */\n      swap1\n      pop\n        /* \"#utility.yul\":20925:21002   */\n    tag_489:\n        /* \"#utility.yul\":21028:21095   */\n      tag_490\n        /* \"#utility.yul\":21088:21094   */\n      dup6\n        /* \"#utility.yul\":21081:21086   */\n      dup3\n        /* \"#utility.yul\":21028:21095   */\n      tag_278\n      jump\t// in\n    tag_490:\n        /* \"#utility.yul\":21022:21026   */\n      dup7\n        /* \"#utility.yul\":21015:21096   */\n      sstore\n        /* \"#utility.yul\":20884:21106   */\n      pop\n        /* \"#utility.yul\":20219:21106   */\n      jump(tag_487)\n        /* \"#utility.yul\":20249:20867   */\n    tag_488:\n        /* \"#utility.yul\":20301:20305   */\n      0x1f\n        /* \"#utility.yul\":20297:20306   */\n      not\n        /* \"#utility.yul\":20289:20295   */\n      dup5\n        /* \"#utility.yul\":20285:20307   */\n      and\n        /* \"#utility.yul\":20335:20372   */\n      tag_491\n        /* \"#utility.yul\":20367:20371   */\n      dup7\n        /* \"#utility.yul\":20335:20372   */\n      tag_265\n      jump\t// in\n    tag_491:\n        /* \"#utility.yul\":20394:20395   */\n      0x00\n        /* \"#utility.yul\":20408:20616   */\n    tag_492:\n        /* \"#utility.yul\":20422:20429   */\n      dup3\n        /* \"#utility.yul\":20419:20420   */\n      dup2\n        /* \"#utility.yul\":20416:20430   */\n      lt\n        /* \"#utility.yul\":20408:20616   */\n      iszero\n      tag_494\n      jumpi\n        /* \"#utility.yul\":20501:20510   */\n      dup5\n        /* \"#utility.yul\":20496:20499   */\n      dup10\n        /* \"#utility.yul\":20492:20511   */\n      add\n        /* \"#utility.yul\":20486:20512   */\n      mload\n        /* \"#utility.yul\":20478:20484   */\n      dup3\n        /* \"#utility.yul\":20471:20513   */\n      sstore\n        /* \"#utility.yul\":20552:20553   */\n      0x01\n        /* \"#utility.yul\":20544:20550   */\n      dup3\n        /* \"#utility.yul\":20540:20554   */\n      add\n        /* \"#utility.yul\":20530:20554   */\n      swap2\n      pop\n        /* \"#utility.yul\":20599:20601   */\n      0x20\n        /* \"#utility.yul\":20588:20597   */\n      dup6\n        /* \"#utility.yul\":20584:20602   */\n      add\n        /* \"#utility.yul\":20571:20602   */\n      swap5\n      pop\n        /* \"#utility.yul\":20445:20449   */\n      0x20\n        /* \"#utility.yul\":20442:20443   */\n      dup2\n        /* \"#utility.yul\":20438:20450   */\n      add\n        /* \"#utility.yul\":20433:20450   */\n      swap1\n      pop\n        /* \"#utility.yul\":20408:20616   */\n      jump(tag_492)\n    tag_494:\n        /* \"#utility.yul\":20644:20650   */\n      dup7\n        /* \"#utility.yul\":20635:20642   */\n      dup4\n        /* \"#utility.yul\":20632:20651   */\n      lt\n        /* \"#utility.yul\":20629:20808   */\n      iszero\n      tag_495\n      jumpi\n        /* \"#utility.yul\":20702:20711   */\n      dup5\n        /* \"#utility.yul\":20697:20700   */\n      dup10\n        /* \"#utility.yul\":20693:20712   */\n      add\n        /* \"#utility.yul\":20687:20713   */\n      mload\n        /* \"#utility.yul\":20745:20793   */\n      tag_496\n        /* \"#utility.yul\":20787:20791   */\n      0x1f\n        /* \"#utility.yul\":20779:20785   */\n      dup10\n        /* \"#utility.yul\":20775:20792   */\n      and\n        /* \"#utility.yul\":20764:20773   */\n      dup3\n        /* \"#utility.yul\":20745:20793   */\n      tag_277\n      jump\t// in\n    tag_496:\n        /* \"#utility.yul\":20737:20743   */\n      dup4\n        /* \"#utility.yul\":20730:20794   */\n      sstore\n        /* \"#utility.yul\":20652:20808   */\n      pop\n        /* \"#utility.yul\":20629:20808   */\n    tag_495:\n        /* \"#utility.yul\":20854:20855   */\n      0x01\n        /* \"#utility.yul\":20850:20851   */\n      0x02\n        /* \"#utility.yul\":20842:20848   */\n      dup9\n        /* \"#utility.yul\":20838:20852   */\n      mul\n        /* \"#utility.yul\":20834:20856   */\n      add\n        /* \"#utility.yul\":20828:20832   */\n      dup9\n        /* \"#utility.yul\":20821:20857   */\n      sstore\n        /* \"#utility.yul\":20256:20867   */\n      pop\n      pop\n      pop\n        /* \"#utility.yul\":20219:21106   */\n    tag_487:\n      pop\n        /* \"#utility.yul\":19809:21112   */\n      pop\n      pop\n      pop\n        /* \"#utility.yul\":19717:21112   */\n      pop\n      pop\n      jump\t// out\n        /* \"#utility.yul\":21118:21298   */\n    tag_279:\n        /* \"#utility.yul\":21166:21243   */\n      0x4e487b7100000000000000000000000000000000000000000000000000000000\n        /* \"#utility.yul\":21163:21164   */\n      0x00\n        /* \"#utility.yul\":21156:21244   */\n      mstore\n        /* \"#utility.yul\":21263:21267   */\n      0x11\n        /* \"#utility.yul\":21260:21261   */\n      0x04\n        /* \"#utility.yul\":21253:21268   */\n      mstore\n        /* \"#utility.yul\":21287:21291   */\n      0x24\n        /* \"#utility.yul\":21284:21285   */\n      0x00\n        /* \"#utility.yul\":21277:21292   */\n      revert\n        /* \"#utility.yul\":21304:21537   */\n    tag_93:\n        /* \"#utility.yul\":21343:21346   */\n      0x00\n        /* \"#utility.yul\":21366:21390   */\n      tag_499\n        /* \"#utility.yul\":21384:21389   */\n      dup3\n        /* \"#utility.yul\":21366:21390   */\n      tag_231\n      jump\t// in\n    tag_499:\n        /* \"#utility.yul\":21357:21390   */\n      swap2\n      pop\n        /* \"#utility.yul\":21412:21478   */\n      0xffffffffffffffffffffffffffffffffffffffffffffffffffffffffffffffff\n        /* \"#utility.yul\":21405:21410   */\n      dup3\n        /* \"#utility.yul\":21402:21479   */\n      sub\n        /* \"#utility.yul\":21399:21502   */\n      tag_500\n      jumpi\n        /* \"#utility.yul\":21482:21500   */\n      tag_501\n      tag_279\n      jump\t// in\n    tag_501:\n        /* \"#utility.yul\":21399:21502   */\n    tag_500:\n        /* \"#utility.yul\":21529:21530   */\n      0x01\n        /* \"#utility.yul\":21522:21527   */\n      dup3\n        /* \"#utility.yul\":21518:21531   */\n      add\n        /* \"#utility.yul\":21511:21531   */\n      swap1\n      pop\n        /* \"#utility.yul\":21304:21537   */\n      swap2\n      swap1\n      pop\n      jump\t// out\n        /* \"#utility.yul\":21543:21633   */\n    tag_280:\n        /* \"#utility.yul\":21577:21584   */\n      0x00\n        /* \"#utility.yul\":21620:21625   */\n      dup2\n        /* \"#utility.yul\":21613:21626   */\n      iszero\n        /* \"#utility.yul\":21606:21627   */\n      iszero\n        /* \"#utility.yul\":21595:21627   */\n      swap1\n      pop\n        /* \"#utility.yul\":21543:21633   */\n      swap2\n      swap1\n      pop\n      jump\t// out\n        /* \"#utility.yul\":21639:21755   */\n    tag_281:\n        /* \"#utility.yul\":21709:21730   */\n      tag_504\n        /* \"#utility.yul\":21724:21729   */\n      dup2\n        /* \"#utility.yul\":21709:21730   */\n      tag_280\n      jump\t// in\n    tag_504:\n        /* \"#utility.yul\":21702:21707   */\n      dup2\n        /* \"#utility.yul\":21699:21731   */\n      eq\n        /* \"#utility.yul\":21689:21749   */\n      tag_505\n      jumpi\n        /* \"#utility.yul\":21745:21746   */\n      0x00\n        /* \"#utility.yul\":21742:21743   */\n      dup1\n        /* \"#utility.yul\":21735:21747   */\n      revert\n        /* \"#utility.yul\":21689:21749   */\n    tag_505:\n        /* \"#utility.yul\":21639:21755   */\n      pop\n      jump\t// out\n        /* \"#utility.yul\":21761:21898   */\n    tag_282:\n        /* \"#utility.yul\":21815:21820   */\n      0x00\n        /* \"#utility.yul\":21846:21852   */\n      dup2\n        /* \"#utility.yul\":21840:21853   */\n      mload\n        /* \"#utility.yul\":21831:21853   */\n      swap1\n      pop\n        /* \"#utility.yul\":21862:21892   */\n      tag_507\n        /* \"#utility.yul\":21886:21891   */\n      dup2\n        /* \"#utility.yul\":21862:21892   */\n      tag_281\n      jump\t// in\n    tag_507:\n        /* \"#utility.yul\":21761:21898   */\n      swap3\n      swap2\n      pop\n      pop\n      jump\t// out\n        /* \"#utility.yul\":21904:22249   */\n    tag_101:\n        /* \"#utility.yul\":21971:21977   */\n      0x00\n        /* \"#utility.yul\":22020:22022   */\n      0x20\n        /* \"#utility.yul\":22008:22017   */\n      dup3\n        /* \"#utility.yul\":21999:22006   */\n      dup5\n        /* \"#utility.yul\":21995:22018   */\n      sub\n        /* \"#utility.yul\":21991:22023   */\n      slt\n        /* \"#utility.yul\":21988:22107   */\n      iszero\n      tag_509\n      jumpi\n        /* \"#utility.yul\":22026:22105   */\n      tag_510\n      tag_225\n      jump\t// in\n    tag_510:\n        /* \"#utility.yul\":21988:22107   */\n    tag_509:\n        /* \"#utility.yul\":22146:22147   */\n      0x00\n        /* \"#utility.yul\":22171:22232   */\n      tag_511\n        /* \"#utility.yul\":22224:22231   */\n      dup5\n        /* \"#utility.yul\":22215:22221   */\n      dup3\n        /* \"#utility.yul\":22204:22213   */\n      dup6\n        /* \"#utility.yul\":22200:22222   */\n      add\n        /* \"#utility.yul\":22171:22232   */\n      tag_282\n      jump\t// in\n    tag_511:\n        /* \"#utility.yul\":22161:22232   */\n      swap2\n      pop\n        /* \"#utility.yul\":22117:22242   */\n      pop\n        /* \"#utility.yul\":21904:22249   */\n      swap3\n      swap2\n      pop\n      pop\n      jump\t// out\n        /* \"#utility.yul\":22255:22497   */\n    tag_283:\n        /* \"#utility.yul\":22395:22429   */\n      0x48616e79612061646d696e206174617520646f6b7465722079616e6720646969\n        /* \"#utility.yul\":22391:22392   */\n      0x00\n        /* \"#utility.yul\":22383:22389   */\n      dup3\n        /* \"#utility.yul\":22379:22393   */\n      add\n        /* \"#utility.yul\":22372:22430   */\n      mstore\n        /* \"#utility.yul\":22464:22489   */\n      0x7a696e6b616e20756e74756b206d656e67616b7365732e000000000000000000\n        /* \"#utility.yul\":22459:22461   */\n      0x20\n        /* \"#utility.yul\":22451:22457   */\n      dup3\n        /* \"#utility.yul\":22447:22462   */\n      add\n        /* \"#utility.yul\":22440:22490   */\n      mstore\n        /* \"#utility.yul\":22255:22497   */\n      pop\n      jump\t// out\n        /* \"#utility.yul\":22503:22869   */\n    tag_284:\n        /* \"#utility.yul\":22645:22648   */\n      0x00\n        /* \"#utility.yul\":22666:22733   */\n      tag_514\n        /* \"#utility.yul\":22730:22732   */\n      0x37\n        /* \"#utility.yul\":22725:22728   */\n      dup4\n        /* \"#utility.yul\":22666:22733   */\n      tag_235\n      jump\t// in\n    tag_514:\n        /* \"#utility.yul\":22659:22733   */\n      swap2\n      pop\n        /* \"#utility.yul\":22742:22835   */\n      tag_515\n        /* \"#utility.yul\":22831:22834   */\n      dup3\n        /* \"#utility.yul\":22742:22835   */\n      tag_283\n      jump\t// in\n    tag_515:\n        /* \"#utility.yul\":22860:22862   */\n      0x40\n        /* \"#utility.yul\":22855:22858   */\n      dup3\n        /* \"#utility.yul\":22851:22863   */\n      add\n        /* \"#utility.yul\":22844:22863   */\n      swap1\n      pop\n        /* \"#utility.yul\":22503:22869   */\n      swap2\n      swap1\n      pop\n      jump\t// out\n        /* \"#utility.yul\":22875:23294   */\n    tag_109:\n        /* \"#utility.yul\":23041:23045   */\n      0x00\n        /* \"#utility.yul\":23079:23081   */\n      0x20\n        /* \"#utility.yul\":23068:23077   */\n      dup3\n        /* \"#utility.yul\":23064:23082   */\n      add\n        /* \"#utility.yul\":23056:23082   */\n      swap1\n      pop\n        /* \"#utility.yul\":23128:23137   */\n      dup2\n        /* \"#utility.yul\":23122:23126   */\n      dup2\n        /* \"#utility.yul\":23118:23138   */\n      sub\n        /* \"#utility.yul\":23114:23115   */\n      0x00\n        /* \"#utility.yul\":23103:23112   */\n      dup4\n        /* \"#utility.yul\":23099:23116   */\n      add\n        /* \"#utility.yul\":23092:23139   */\n      mstore\n        /* \"#utility.yul\":23156:23287   */\n      tag_517\n        /* \"#utility.yul\":23282:23286   */\n      dup2\n        /* \"#utility.yul\":23156:23287   */\n      tag_284\n      jump\t// in\n    tag_517:\n        /* \"#utility.yul\":23148:23287   */\n      swap1\n      pop\n        /* \"#utility.yul\":22875:23294   */\n      swap2\n      swap1\n      pop\n      jump\t// out\n        /* \"#utility.yul\":23300:23710   */\n    tag_112:\n        /* \"#utility.yul\":23340:23347   */\n      0x00\n        /* \"#utility.yul\":23363:23383   */\n      tag_519\n        /* \"#utility.yul\":23381:23382   */\n      dup3\n        /* \"#utility.yul\":23363:23383   */\n      tag_231\n      jump\t// in\n    tag_519:\n        /* \"#utility.yul\":23358:23383   */\n      swap2\n      pop\n        /* \"#utility.yul\":23397:23417   */\n      tag_520\n        /* \"#utility.yul\":23415:23416   */\n      dup4\n        /* \"#utility.yul\":23397:23417   */\n      tag_231\n      jump\t// in\n    tag_520:\n        /* \"#utility.yul\":23392:23417   */\n      swap3\n      pop\n        /* \"#utility.yul\":23452:23453   */\n      dup3\n        /* \"#utility.yul\":23449:23450   */\n      dup3\n        /* \"#utility.yul\":23445:23454   */\n      mul\n        /* \"#utility.yul\":23474:23504   */\n      tag_521\n        /* \"#utility.yul\":23492:23503   */\n      dup2\n        /* \"#utility.yul\":23474:23504   */\n      tag_231\n      jump\t// in\n    tag_521:\n        /* \"#utility.yul\":23463:23504   */\n      swap2\n      pop\n        /* \"#utility.yul\":23653:23654   */\n      dup3\n        /* \"#utility.yul\":23644:23651   */\n      dup3\n        /* \"#utility.yul\":23640:23655   */\n      div\n        /* \"#utility.yul\":23637:23638   */\n      dup5\n        /* \"#utility.yul\":23634:23656   */\n      eq\n        /* \"#utility.yul\":23614:23615   */\n      dup4\n        /* \"#utility.yul\":23607:23616   */\n      iszero\n        /* \"#utility.yul\":23587:23670   */\n      or\n        /* \"#utility.yul\":23564:23703   */\n      tag_522\n      jumpi\n        /* \"#utility.yul\":23683:23701   */\n      tag_523\n      tag_279\n      jump\t// in\n    tag_523:\n        /* \"#utility.yul\":23564:23703   */\n    tag_522:\n        /* \"#utility.yul\":23348:23710   */\n      pop\n        /* \"#utility.yul\":23300:23710   */\n      swap3\n      swap2\n      pop\n      pop\n      jump\t// out\n        /* \"#utility.yul\":23716:23896   */\n    tag_125:\n        /* \"#utility.yul\":23764:23841   */\n      0x4e487b7100000000000000000000000000000000000000000000000000000000\n        /* \"#utility.yul\":23761:23762   */\n      0x00\n        /* \"#utility.yul\":23754:23842   */\n      mstore\n        /* \"#utility.yul\":23861:23865   */\n      0x32\n        /* \"#utility.yul\":23858:23859   */\n      0x04\n        /* \"#utility.yul\":23851:23866   */\n      mstore\n        /* \"#utility.yul\":23885:23889   */\n      0x24\n        /* \"#utility.yul\":23882:23883   */\n      0x00\n        /* \"#utility.yul\":23875:23890   */\n      revert\n        /* \"#utility.yul\":23902:24132   */\n    tag_285:\n        /* \"#utility.yul\":24042:24076   */\n      0x48616e79612070617369656e2079616e67206469697a696e6b616e20756e7475\n        /* \"#utility.yul\":24038:24039   */\n      0x00\n        /* \"#utility.yul\":24030:24036   */\n      dup3\n        /* \"#utility.yul\":24026:24040   */\n      add\n        /* \"#utility.yul\":24019:24077   */\n      mstore\n        /* \"#utility.yul\":24111:24124   */\n      0x6b206d656e67616b736573000000000000000000000000000000000000000000\n        /* \"#utility.yul\":24106:24108   */\n      0x20\n        /* \"#utility.yul\":24098:24104   */\n      dup3\n        /* \"#utility.yul\":24094:24109   */\n      add\n        /* \"#utility.yul\":24087:24125   */\n      mstore\n        /* \"#utility.yul\":23902:24132   */\n      pop\n      jump\t// out\n        /* \"#utility.yul\":24138:24504   */\n    tag_286:\n        /* \"#utility.yul\":24280:24283   */\n      0x00\n        /* \"#utility.yul\":24301:24368   */\n      tag_527\n        /* \"#utility.yul\":24365:24367   */\n      0x2b\n        /* \"#utility.yul\":24360:24363   */\n      dup4\n        /* \"#utility.yul\":24301:24368   */\n      tag_235\n      jump\t// in\n    tag_527:\n        /* \"#utility.yul\":24294:24368   */\n      swap2\n      pop\n        /* \"#utility.yul\":24377:24470   */\n      tag_528\n        /* \"#utility.yul\":24466:24469   */\n      dup3\n        /* \"#utility.yul\":24377:24470   */\n      tag_285\n      jump\t// in\n    tag_528:\n        /* \"#utility.yul\":24495:24497   */\n      0x40\n        /* \"#utility.yul\":24490:24493   */\n      dup3\n        /* \"#utility.yul\":24486:24498   */\n      add\n        /* \"#utility.yul\":24479:24498   */\n      swap1\n      pop\n        /* \"#utility.yul\":24138:24504   */\n      swap2\n      swap1\n      pop\n      jump\t// out\n        /* \"#utility.yul\":24510:24929   */\n    tag_184:\n        /* \"#utility.yul\":24676:24680   */\n      0x00\n        /* \"#utility.yul\":24714:24716   */\n      0x20\n        /* \"#utility.yul\":24703:24712   */\n      dup3\n        /* \"#utility.yul\":24699:24717   */\n      add\n        /* \"#utility.yul\":24691:24717   */\n      swap1\n      pop\n        /* \"#utility.yul\":24763:24772   */\n      dup2\n        /* \"#utility.yul\":24757:24761   */\n      dup2\n        /* \"#utility.yul\":24753:24773   */\n      sub\n        /* \"#utility.yul\":24749:24750   */\n      0x00\n        /* \"#utility.yul\":24738:24747   */\n      dup4\n        /* \"#utility.yul\":24734:24751   */\n      add\n        /* \"#utility.yul\":24727:24774   */\n      mstore\n        /* \"#utility.yul\":24791:24922   */\n      tag_530\n        /* \"#utility.yul\":24917:24921   */\n      dup2\n        /* \"#utility.yul\":24791:24922   */\n      tag_286\n      jump\t// in\n    tag_530:\n        /* \"#utility.yul\":24783:24922   */\n      swap1\n      pop\n        /* \"#utility.yul\":24510:24929   */\n      swap2\n      swap1\n      pop\n      jump\t// out\n\n    auxdata: 0xa26469706673582212201eacfc0a27b3345d921c4bcd54ff91e443198966413e3f3b0a96d7c982c4545c64736f6c63430008110033\n}\n",
				"bytecode": {
					"linkReferences": {},
					"object": "60806040523480156200001157600080fd5b50604051620024cb380380620024cb8339818101604052810190620000379190620000e8565b806000806101000a81548173ffffffffffffffffffffffffffffffffffffffff021916908373ffffffffffffffffffffffffffffffffffffffff160217905550506200011a565b600080fd5b600073ffffffffffffffffffffffffffffffffffffffff82169050919050565b6000620000b08262000083565b9050919050565b620000c281620000a3565b8114620000ce57600080fd5b50565b600081519050620000e281620000b7565b92915050565b6000602082840312156200010157620001006200007e565b5b60006200011184828501620000d1565b91505092915050565b6123a1806200012a6000396000f3fe608060405234801561001057600080fd5b506004361061007d5760003560e01c8063392f5f641161005b578063392f5f64146100f357806346b5bef114610111578063ad49d82114610141578063c996b7cc146101715761007d565b806309052679146100825780630d3eafd6146100b9578063337c9ba6146100d7575b600080fd5b61009c600480360381019061009791906116e6565b61018f565b6040516100b09897969594939291906117c5565b60405180910390f35b6100c16105cc565b6040516100ce9190611883565b60405180910390f35b6100f160048036038101906100ec91906119d3565b6105d2565b005b6100fb6107f2565b6040516101089190611bac565b60405180910390f35b61012b60048036038101906101269190611bc7565b610816565b6040516101389190611bf4565b60405180910390f35b61015b60048036038101906101569190611bc7565b610855565b6040516101689190611e04565b60405180910390f35b610179611019565b6040516101869190611e04565b60405180910390f35b600160205281600052604060002081815481106101ab57600080fd5b9060005260206000209060080201600091509150508060000180546101cf90611e55565b80601f01602080910402602001604051908101604052809291908181526020018280546101fb90611e55565b80156102485780601f1061021d57610100808354040283529160200191610248565b820191906000526020600020905b81548152906001019060200180831161022b57829003601f168201915b50505050509080600101805461025d90611e55565b80601f016020809104026020016040519081016040528092919081815260200182805461028990611e55565b80156102d65780601f106102ab576101008083540402835291602001916102d6565b820191906000526020600020905b8154815290600101906020018083116102b957829003601f168201915b5050505050908060020180546102eb90611e55565b80601f016020809104026020016040519081016040528092919081815260200182805461031790611e55565b80156103645780601f1061033957610100808354040283529160200191610364565b820191906000526020600020905b81548152906001019060200180831161034757829003601f168201915b50505050509080600301805461037990611e55565b80601f01602080910402602001604051908101604052809291908181526020018280546103a590611e55565b80156103f25780601f106103c7576101008083540402835291602001916103f2565b820191906000526020600020905b8154815290600101906020018083116103d557829003601f168201915b50505050509080600401805461040790611e55565b80601f016020809104026020016040519081016040528092919081815260200182805461043390611e55565b80156104805780601f1061045557610100808354040283529160200191610480565b820191906000526020600020905b81548152906001019060200180831161046357829003601f168201915b50505050509080600501805461049590611e55565b80601f01602080910402602001604051908101604052809291908181526020018280546104c190611e55565b801561050e5780601f106104e35761010080835404028352916020019161050e565b820191906000526020600020905b8154815290600101906020018083116104f157829003601f168201915b50505050509080600601805461052390611e55565b80601f016020809104026020016040519081016040528092919081815260200182805461054f90611e55565b801561059c5780601f106105715761010080835404028352916020019161059c565b820191906000526020600020905b81548152906001019060200180831161057f57829003601f168201915b5050505050908060070160009054906101000a900473ffffffffffffffffffffffffffffffffffffffff16905088565b60035481565b600160008973ffffffffffffffffffffffffffffffffffffffff1673ffffffffffffffffffffffffffffffffffffffff1681526020019081526020016000206040518061010001604052808981526020018881526020018781526020018681526020018581526020018481526020018381526020018a73ffffffffffffffffffffffffffffffffffffffff168152509080600181540180825580915050600190039060005260206000209060080201600090919091909150600082015181600001908161069f9190612028565b5060208201518160010190816106b59190612028565b5060408201518160020190816106cb9190612028565b5060608201518160030190816106e19190612028565b5060808201518160040190816106f79190612028565b5060a082015181600501908161070d9190612028565b5060c08201518160060190816107239190612028565b5060e08201518160070160006101000a81548173ffffffffffffffffffffffffffffffffffffffff021916908373ffffffffffffffffffffffffffffffffffffffff16021790555050506002889080600181540180825580915050600190039060005260206000200160009091909190916101000a81548173ffffffffffffffffffffffffffffffffffffffff021916908373ffffffffffffffffffffffffffffffffffffffff160217905550600360008154809291906107e390612129565b91905055505050505050505050565b60008054906101000a900473ffffffffffffffffffffffffffffffffffffffff1681565b6002818154811061082657600080fd5b906000526020600020016000915054906101000a900473ffffffffffffffffffffffffffffffffffffffff1681565b606060008054906101000a900473ffffffffffffffffffffffffffffffffffffffff1673ffffffffffffffffffffffffffffffffffffffff166324d7806c336040518263ffffffff1660e01b81526004016108b09190611bf4565b602060405180830381865afa1580156108cd573d6000803e3d6000fd5b505050506040513d601f19601f820116820180604052508101906108f191906121a9565b80610992575060008054906101000a900473ffffffffffffffffffffffffffffffffffffffff1673ffffffffffffffffffffffffffffffffffffffff16635c4c9348336040518263ffffffff1660e01b81526004016109509190611bf4565b602060405180830381865afa15801561096d573d6000803e3d6000fd5b505050506040513d601f19601f8201168201806040525081019061099191906121a9565b5b6109d1576040517f08c379a00000000000000000000000000000000000000000000000000000000081526004016109c890612248565b60405180910390fd5b6000600a9050600081600a6109e69190612268565b67ffffffffffffffff8111156109ff576109fe6118a8565b5b604051908082528060200260200182016040528015610a3857816020015b610a256115e3565b815260200190600190039081610a1d5790505b5090506000808590505b60028054905081101561100d5760006001600060028481548110610a6957610a686122aa565b5b9060005260206000200160009054906101000a900473ffffffffffffffffffffffffffffffffffffffff1673ffffffffffffffffffffffffffffffffffffffff1673ffffffffffffffffffffffffffffffffffffffff168152602001908152602001600020805480602002602001604051908101604052809291908181526020016000905b82821015610f75578382906000526020600020906008020160405180610100016040529081600082018054610b2290611e55565b80601f0160208091040260200160405190810160405280929190818152602001828054610b4e90611e55565b8015610b9b5780601f10610b7057610100808354040283529160200191610b9b565b820191906000526020600020905b815481529060010190602001808311610b7e57829003601f168201915b50505050508152602001600182018054610bb490611e55565b80601f0160208091040260200160405190810160405280929190818152602001828054610be090611e55565b8015610c2d5780601f10610c0257610100808354040283529160200191610c2d565b820191906000526020600020905b815481529060010190602001808311610c1057829003601f168201915b50505050508152602001600282018054610c4690611e55565b80601f0160208091040260200160405190810160405280929190818152602001828054610c7290611e55565b8015610cbf5780601f10610c9457610100808354040283529160200191610cbf565b820191906000526020600020905b815481529060010190602001808311610ca257829003601f168201915b50505050508152602001600382018054610cd890611e55565b80601f0160208091040260200160405190810160405280929190818152602001828054610d0490611e55565b8015610d515780601f10610d2657610100808354040283529160200191610d51565b820191906000526020600020905b815481529060010190602001808311610d3457829003601f168201915b50505050508152602001600482018054610d6a90611e55565b80601f0160208091040260200160405190810160405280929190818152602001828054610d9690611e55565b8015610de35780601f10610db857610100808354040283529160200191610de3565b820191906000526020600020905b815481529060010190602001808311610dc657829003601f168201915b50505050508152602001600582018054610dfc90611e55565b80601f0160208091040260200160405190810160405280929190818152602001828054610e2890611e55565b8015610e755780601f10610e4a57610100808354040283529160200191610e75565b820191906000526020600020905b815481529060010190602001808311610e5857829003601f168201915b50505050508152602001600682018054610e8e90611e55565b80601f0160208091040260200160405190810160405280929190818152602001828054610eba90611e55565b8015610f075780601f10610edc57610100808354040283529160200191610f07565b820191906000526020600020905b815481529060010190602001808311610eea57829003601f168201915b505050505081526020016007820160009054906101000a900473ffffffffffffffffffffffffffffffffffffffff1673ffffffffffffffffffffffffffffffffffffffff1673ffffffffffffffffffffffffffffffffffffffff168152505081526020019060010190610aee565b50505050905060005b815181108015610f995750600a86610f969190612268565b84105b15610ff857818181518110610fb157610fb06122aa565b5b6020026020010151858581518110610fcc57610fcb6122aa565b5b60200260200101819052508380610fe290612129565b9450508080610ff090612129565b915050610f7e565b5050808061100590612129565b915050610a42565b50819350505050919050565b606060008054906101000a900473ffffffffffffffffffffffffffffffffffffffff1673ffffffffffffffffffffffffffffffffffffffff16631132beb5336040518263ffffffff1660e01b81526004016110749190611bf4565b602060405180830381865afa158015611091573d6000803e3d6000fd5b505050506040513d601f19601f820116820180604052508101906110b591906121a9565b6110f4576040517f08c379a00000000000000000000000000000000000000000000000000000000081526004016110eb9061234b565b60405180910390fd5b600160003373ffffffffffffffffffffffffffffffffffffffff1673ffffffffffffffffffffffffffffffffffffffff168152602001908152602001600020805480602002602001604051908101604052809291908181526020016000905b828210156115da57838290600052602060002090600802016040518061010001604052908160008201805461118790611e55565b80601f01602080910402602001604051908101604052809291908181526020018280546111b390611e55565b80156112005780601f106111d557610100808354040283529160200191611200565b820191906000526020600020905b8154815290600101906020018083116111e357829003601f168201915b5050505050815260200160018201805461121990611e55565b80601f016020809104026020016040519081016040528092919081815260200182805461124590611e55565b80156112925780601f1061126757610100808354040283529160200191611292565b820191906000526020600020905b81548152906001019060200180831161127557829003601f168201915b505050505081526020016002820180546112ab90611e55565b80601f01602080910402602001604051908101604052809291908181526020018280546112d790611e55565b80156113245780601f106112f957610100808354040283529160200191611324565b820191906000526020600020905b81548152906001019060200180831161130757829003601f168201915b5050505050815260200160038201805461133d90611e55565b80601f016020809104026020016040519081016040528092919081815260200182805461136990611e55565b80156113b65780601f1061138b576101008083540402835291602001916113b6565b820191906000526020600020905b81548152906001019060200180831161139957829003601f168201915b505050505081526020016004820180546113cf90611e55565b80601f01602080910402602001604051908101604052809291908181526020018280546113fb90611e55565b80156114485780601f1061141d57610100808354040283529160200191611448565b820191906000526020600020905b81548152906001019060200180831161142b57829003601f168201915b5050505050815260200160058201805461146190611e55565b80601f016020809104026020016040519081016040528092919081815260200182805461148d90611e55565b80156114da5780601f106114af576101008083540402835291602001916114da565b820191906000526020600020905b8154815290600101906020018083116114bd57829003601f168201915b505050505081526020016006820180546114f390611e55565b80601f016020809104026020016040519081016040528092919081815260200182805461151f90611e55565b801561156c5780601f106115415761010080835404028352916020019161156c565b820191906000526020600020905b81548152906001019060200180831161154f57829003601f168201915b505050505081526020016007820160009054906101000a900473ffffffffffffffffffffffffffffffffffffffff1673ffffffffffffffffffffffffffffffffffffffff1673ffffffffffffffffffffffffffffffffffffffff168152505081526020019060010190611153565b50505050905090565b60405180610100016040528060608152602001606081526020016060815260200160608152602001606081526020016060815260200160608152602001600073ffffffffffffffffffffffffffffffffffffffff1681525090565b6000604051905090565b600080fd5b600080fd5b600073ffffffffffffffffffffffffffffffffffffffff82169050919050565b600061167d82611652565b9050919050565b61168d81611672565b811461169857600080fd5b50565b6000813590506116aa81611684565b92915050565b6000819050919050565b6116c3816116b0565b81146116ce57600080fd5b50565b6000813590506116e0816116ba565b92915050565b600080604083850312156116fd576116fc611648565b5b600061170b8582860161169b565b925050602061171c858286016116d1565b9150509250929050565b600081519050919050565b600082825260208201905092915050565b60005b83811015611760578082015181840152602081019050611745565b60008484015250505050565b6000601f19601f8301169050919050565b600061178882611726565b6117928185611731565b93506117a2818560208601611742565b6117ab8161176c565b840191505092915050565b6117bf81611672565b82525050565b60006101008201905081810360008301526117e0818b61177d565b905081810360208301526117f4818a61177d565b90508181036040830152611808818961177d565b9050818103606083015261181c818861177d565b90508181036080830152611830818761177d565b905081810360a0830152611844818661177d565b905081810360c0830152611858818561177d565b905061186760e08301846117b6565b9998505050505050505050565b61187d816116b0565b82525050565b60006020820190506118986000830184611874565b92915050565b600080fd5b600080fd5b7f4e487b7100000000000000000000000000000000000000000000000000000000600052604160045260246000fd5b6118e08261176c565b810181811067ffffffffffffffff821117156118ff576118fe6118a8565b5b80604052505050565b600061191261163e565b905061191e82826118d7565b919050565b600067ffffffffffffffff82111561193e5761193d6118a8565b5b6119478261176c565b9050602081019050919050565b82818337600083830152505050565b600061197661197184611923565b611908565b905082815260208101848484011115611992576119916118a3565b5b61199d848285611954565b509392505050565b600082601f8301126119ba576119b961189e565b5b81356119ca848260208601611963565b91505092915050565b600080600080600080600080610100898b0312156119f4576119f3611648565b5b6000611a028b828c0161169b565b985050602089013567ffffffffffffffff811115611a2357611a2261164d565b5b611a2f8b828c016119a5565b975050604089013567ffffffffffffffff811115611a5057611a4f61164d565b5b611a5c8b828c016119a5565b965050606089013567ffffffffffffffff811115611a7d57611a7c61164d565b5b611a898b828c016119a5565b955050608089013567ffffffffffffffff811115611aaa57611aa961164d565b5b611ab68b828c016119a5565b94505060a089013567ffffffffffffffff811115611ad757611ad661164d565b5b611ae38b828c016119a5565b93505060c089013567ffffffffffffffff811115611b0457611b0361164d565b5b611b108b828c016119a5565b92505060e089013567ffffffffffffffff811115611b3157611b3061164d565b5b611b3d8b828c016119a5565b9150509295985092959890939650565b6000819050919050565b6000611b72611b6d611b6884611652565b611b4d565b611652565b9050919050565b6000611b8482611b57565b9050919050565b6000611b9682611b79565b9050919050565b611ba681611b8b565b82525050565b6000602082019050611bc16000830184611b9d565b92915050565b600060208284031215611bdd57611bdc611648565b5b6000611beb848285016116d1565b91505092915050565b6000602082019050611c0960008301846117b6565b92915050565b600081519050919050565b600082825260208201905092915050565b6000819050602082019050919050565b600082825260208201905092915050565b6000611c5782611726565b611c618185611c3b565b9350611c71818560208601611742565b611c7a8161176c565b840191505092915050565b611c8e81611672565b82525050565b6000610100830160008301518482036000860152611cb28282611c4c565b91505060208301518482036020860152611ccc8282611c4c565b91505060408301518482036040860152611ce68282611c4c565b91505060608301518482036060860152611d008282611c4c565b91505060808301518482036080860152611d1a8282611c4c565b91505060a083015184820360a0860152611d348282611c4c565b91505060c083015184820360c0860152611d4e8282611c4c565b91505060e0830151611d6360e0860182611c85565b508091505092915050565b6000611d7a8383611c94565b905092915050565b6000602082019050919050565b6000611d9a82611c0f565b611da48185611c1a565b935083602082028501611db685611c2b565b8060005b85811015611df25784840389528151611dd38582611d6e565b9450611dde83611d82565b925060208a01995050600181019050611dba565b50829750879550505050505092915050565b60006020820190508181036000830152611e1e8184611d8f565b905092915050565b7f4e487b7100000000000000000000000000000000000000000000000000000000600052602260045260246000fd5b60006002820490506001821680611e6d57607f821691505b602082108103611e8057611e7f611e26565b5b50919050565b60008190508160005260206000209050919050565b60006020601f8301049050919050565b600082821b905092915050565b600060088302611ee87fffffffffffffffffffffffffffffffffffffffffffffffffffffffffffffffff82611eab565b611ef28683611eab565b95508019841693508086168417925050509392505050565b6000611f25611f20611f1b846116b0565b611b4d565b6116b0565b9050919050565b6000819050919050565b611f3f83611f0a565b611f53611f4b82611f2c565b848454611eb8565b825550505050565b600090565b611f68611f5b565b611f73818484611f36565b505050565b5b81811015611f9757611f8c600082611f60565b600181019050611f79565b5050565b601f821115611fdc57611fad81611e86565b611fb684611e9b565b81016020851015611fc5578190505b611fd9611fd185611e9b565b830182611f78565b50505b505050565b600082821c905092915050565b6000611fff60001984600802611fe1565b1980831691505092915050565b60006120188383611fee565b9150826002028217905092915050565b61203182611726565b67ffffffffffffffff81111561204a576120496118a8565b5b6120548254611e55565b61205f828285611f9b565b600060209050601f8311600181146120925760008415612080578287015190505b61208a858261200c565b8655506120f2565b601f1984166120a086611e86565b60005b828110156120c8578489015182556001820191506020850194506020810190506120a3565b868310156120e557848901516120e1601f891682611fee565b8355505b6001600288020188555050505b505050505050565b7f4e487b7100000000000000000000000000000000000000000000000000000000600052601160045260246000fd5b6000612134826116b0565b91507fffffffffffffffffffffffffffffffffffffffffffffffffffffffffffffffff8203612166576121656120fa565b5b600182019050919050565b60008115159050919050565b61218681612171565b811461219157600080fd5b50565b6000815190506121a38161217d565b92915050565b6000602082840312156121bf576121be611648565b5b60006121cd84828501612194565b91505092915050565b7f48616e79612061646d696e206174617520646f6b7465722079616e672064696960008201527f7a696e6b616e20756e74756b206d656e67616b7365732e000000000000000000602082015250565b6000612232603783611731565b915061223d826121d6565b604082019050919050565b6000602082019050818103600083015261226181612225565b9050919050565b6000612273826116b0565b915061227e836116b0565b925082820261228c816116b0565b915082820484148315176122a3576122a26120fa565b5b5092915050565b7f4e487b7100000000000000000000000000000000000000000000000000000000600052603260045260246000fd5b7f48616e79612070617369656e2079616e67206469697a696e6b616e20756e747560008201527f6b206d656e67616b736573000000000000000000000000000000000000000000602082015250565b6000612335602b83611731565b9150612340826122d9565b604082019050919050565b6000602082019050818103600083015261236481612328565b905091905056fea26469706673582212201eacfc0a27b3345d921c4bcd54ff91e443198966413e3f3b0a96d7c982c4545c64736f6c63430008110033",
					"opcodes": "PUSH1 0x80 PUSH1 0x40 MSTORE CALLVALUE DUP1 ISZERO PUSH3 0x11 JUMPI PUSH1 0x0 DUP1 REVERT JUMPDEST POP PUSH1 0x40 MLOAD PUSH3 0x24CB CODESIZE SUB DUP1 PUSH3 0x24CB DUP4 CODECOPY DUP2 DUP2 ADD PUSH1 0x40 MSTORE DUP2 ADD SWAP1 PUSH3 0x37 SWAP2 SWAP1 PUSH3 0xE8 JUMP JUMPDEST DUP1 PUSH1 0x0 DUP1 PUSH2 0x100 EXP DUP2 SLOAD DUP2 PUSH20 0xFFFFFFFFFFFFFFFFFFFFFFFFFFFFFFFFFFFFFFFF MUL NOT AND SWAP1 DUP4 PUSH20 0xFFFFFFFFFFFFFFFFFFFFFFFFFFFFFFFFFFFFFFFF AND MUL OR SWAP1 SSTORE POP POP PUSH3 0x11A JUMP JUMPDEST PUSH1 0x0 DUP1 REVERT JUMPDEST PUSH1 0x0 PUSH20 0xFFFFFFFFFFFFFFFFFFFFFFFFFFFFFFFFFFFFFFFF DUP3 AND SWAP1 POP SWAP2 SWAP1 POP JUMP JUMPDEST PUSH1 0x0 PUSH3 0xB0 DUP3 PUSH3 0x83 JUMP JUMPDEST SWAP1 POP SWAP2 SWAP1 POP JUMP JUMPDEST PUSH3 0xC2 DUP2 PUSH3 0xA3 JUMP JUMPDEST DUP2 EQ PUSH3 0xCE JUMPI PUSH1 0x0 DUP1 REVERT JUMPDEST POP JUMP JUMPDEST PUSH1 0x0 DUP2 MLOAD SWAP1 POP PUSH3 0xE2 DUP2 PUSH3 0xB7 JUMP JUMPDEST SWAP3 SWAP2 POP POP JUMP JUMPDEST PUSH1 0x0 PUSH1 0x20 DUP3 DUP5 SUB SLT ISZERO PUSH3 0x101 JUMPI PUSH3 0x100 PUSH3 0x7E JUMP JUMPDEST JUMPDEST PUSH1 0x0 PUSH3 0x111 DUP5 DUP3 DUP6 ADD PUSH3 0xD1 JUMP JUMPDEST SWAP2 POP POP SWAP3 SWAP2 POP POP JUMP JUMPDEST PUSH2 0x23A1 DUP1 PUSH3 0x12A PUSH1 0x0 CODECOPY PUSH1 0x0 RETURN INVALID PUSH1 0x80 PUSH1 0x40 MSTORE CALLVALUE DUP1 ISZERO PUSH2 0x10 JUMPI PUSH1 0x0 DUP1 REVERT JUMPDEST POP PUSH1 0x4 CALLDATASIZE LT PUSH2 0x7D JUMPI PUSH1 0x0 CALLDATALOAD PUSH1 0xE0 SHR DUP1 PUSH4 0x392F5F64 GT PUSH2 0x5B JUMPI DUP1 PUSH4 0x392F5F64 EQ PUSH2 0xF3 JUMPI DUP1 PUSH4 0x46B5BEF1 EQ PUSH2 0x111 JUMPI DUP1 PUSH4 0xAD49D821 EQ PUSH2 0x141 JUMPI DUP1 PUSH4 0xC996B7CC EQ PUSH2 0x171 JUMPI PUSH2 0x7D JUMP JUMPDEST DUP1 PUSH4 0x9052679 EQ PUSH2 0x82 JUMPI DUP1 PUSH4 0xD3EAFD6 EQ PUSH2 0xB9 JUMPI DUP1 PUSH4 0x337C9BA6 EQ PUSH2 0xD7 JUMPI JUMPDEST PUSH1 0x0 DUP1 REVERT JUMPDEST PUSH2 0x9C PUSH1 0x4 DUP1 CALLDATASIZE SUB DUP2 ADD SWAP1 PUSH2 0x97 SWAP2 SWAP1 PUSH2 0x16E6 JUMP JUMPDEST PUSH2 0x18F JUMP JUMPDEST PUSH1 0x40 MLOAD PUSH2 0xB0 SWAP9 SWAP8 SWAP7 SWAP6 SWAP5 SWAP4 SWAP3 SWAP2 SWAP1 PUSH2 0x17C5 JUMP JUMPDEST PUSH1 0x40 MLOAD DUP1 SWAP2 SUB SWAP1 RETURN JUMPDEST PUSH2 0xC1 PUSH2 0x5CC JUMP JUMPDEST PUSH1 0x40 MLOAD PUSH2 0xCE SWAP2 SWAP1 PUSH2 0x1883 JUMP JUMPDEST PUSH1 0x40 MLOAD DUP1 SWAP2 SUB SWAP1 RETURN JUMPDEST PUSH2 0xF1 PUSH1 0x4 DUP1 CALLDATASIZE SUB DUP2 ADD SWAP1 PUSH2 0xEC SWAP2 SWAP1 PUSH2 0x19D3 JUMP JUMPDEST PUSH2 0x5D2 JUMP JUMPDEST STOP JUMPDEST PUSH2 0xFB PUSH2 0x7F2 JUMP JUMPDEST PUSH1 0x40 MLOAD PUSH2 0x108 SWAP2 SWAP1 PUSH2 0x1BAC JUMP JUMPDEST PUSH1 0x40 MLOAD DUP1 SWAP2 SUB SWAP1 RETURN JUMPDEST PUSH2 0x12B PUSH1 0x4 DUP1 CALLDATASIZE SUB DUP2 ADD SWAP1 PUSH2 0x126 SWAP2 SWAP1 PUSH2 0x1BC7 JUMP JUMPDEST PUSH2 0x816 JUMP JUMPDEST PUSH1 0x40 MLOAD PUSH2 0x138 SWAP2 SWAP1 PUSH2 0x1BF4 JUMP JUMPDEST PUSH1 0x40 MLOAD DUP1 SWAP2 SUB SWAP1 RETURN JUMPDEST PUSH2 0x15B PUSH1 0x4 DUP1 CALLDATASIZE SUB DUP2 ADD SWAP1 PUSH2 0x156 SWAP2 SWAP1 PUSH2 0x1BC7 JUMP JUMPDEST PUSH2 0x855 JUMP JUMPDEST PUSH1 0x40 MLOAD PUSH2 0x168 SWAP2 SWAP1 PUSH2 0x1E04 JUMP JUMPDEST PUSH1 0x40 MLOAD DUP1 SWAP2 SUB SWAP1 RETURN JUMPDEST PUSH2 0x179 PUSH2 0x1019 JUMP JUMPDEST PUSH1 0x40 MLOAD PUSH2 0x186 SWAP2 SWAP1 PUSH2 0x1E04 JUMP JUMPDEST PUSH1 0x40 MLOAD DUP1 SWAP2 SUB SWAP1 RETURN JUMPDEST PUSH1 0x1 PUSH1 0x20 MSTORE DUP2 PUSH1 0x0 MSTORE PUSH1 0x40 PUSH1 0x0 KECCAK256 DUP2 DUP2 SLOAD DUP2 LT PUSH2 0x1AB JUMPI PUSH1 0x0 DUP1 REVERT JUMPDEST SWAP1 PUSH1 0x0 MSTORE PUSH1 0x20 PUSH1 0x0 KECCAK256 SWAP1 PUSH1 0x8 MUL ADD PUSH1 0x0 SWAP2 POP SWAP2 POP POP DUP1 PUSH1 0x0 ADD DUP1 SLOAD PUSH2 0x1CF SWAP1 PUSH2 0x1E55 JUMP JUMPDEST DUP1 PUSH1 0x1F ADD PUSH1 0x20 DUP1 SWAP2 DIV MUL PUSH1 0x20 ADD PUSH1 0x40 MLOAD SWAP1 DUP2 ADD PUSH1 0x40 MSTORE DUP1 SWAP3 SWAP2 SWAP1 DUP2 DUP2 MSTORE PUSH1 0x20 ADD DUP3 DUP1 SLOAD PUSH2 0x1FB SWAP1 PUSH2 0x1E55 JUMP JUMPDEST DUP1 ISZERO PUSH2 0x248 JUMPI DUP1 PUSH1 0x1F LT PUSH2 0x21D JUMPI PUSH2 0x100 DUP1 DUP4 SLOAD DIV MUL DUP4 MSTORE SWAP2 PUSH1 0x20 ADD SWAP2 PUSH2 0x248 JUMP JUMPDEST DUP3 ADD SWAP2 SWAP1 PUSH1 0x0 MSTORE PUSH1 0x20 PUSH1 0x0 KECCAK256 SWAP1 JUMPDEST DUP2 SLOAD DUP2 MSTORE SWAP1 PUSH1 0x1 ADD SWAP1 PUSH1 0x20 ADD DUP1 DUP4 GT PUSH2 0x22B JUMPI DUP3 SWAP1 SUB PUSH1 0x1F AND DUP3 ADD SWAP2 JUMPDEST POP POP POP POP POP SWAP1 DUP1 PUSH1 0x1 ADD DUP1 SLOAD PUSH2 0x25D SWAP1 PUSH2 0x1E55 JUMP JUMPDEST DUP1 PUSH1 0x1F ADD PUSH1 0x20 DUP1 SWAP2 DIV MUL PUSH1 0x20 ADD PUSH1 0x40 MLOAD SWAP1 DUP2 ADD PUSH1 0x40 MSTORE DUP1 SWAP3 SWAP2 SWAP1 DUP2 DUP2 MSTORE PUSH1 0x20 ADD DUP3 DUP1 SLOAD PUSH2 0x289 SWAP1 PUSH2 0x1E55 JUMP JUMPDEST DUP1 ISZERO PUSH2 0x2D6 JUMPI DUP1 PUSH1 0x1F LT PUSH2 0x2AB JUMPI PUSH2 0x100 DUP1 DUP4 SLOAD DIV MUL DUP4 MSTORE SWAP2 PUSH1 0x20 ADD SWAP2 PUSH2 0x2D6 JUMP JUMPDEST DUP3 ADD SWAP2 SWAP1 PUSH1 0x0 MSTORE PUSH1 0x20 PUSH1 0x0 KECCAK256 SWAP1 JUMPDEST DUP2 SLOAD DUP2 MSTORE SWAP1 PUSH1 0x1 ADD SWAP1 PUSH1 0x20 ADD DUP1 DUP4 GT PUSH2 0x2B9 JUMPI DUP3 SWAP1 SUB PUSH1 0x1F AND DUP3 ADD SWAP2 JUMPDEST POP POP POP POP POP SWAP1 DUP1 PUSH1 0x2 ADD DUP1 SLOAD PUSH2 0x2EB SWAP1 PUSH2 0x1E55 JUMP JUMPDEST DUP1 PUSH1 0x1F ADD PUSH1 0x20 DUP1 SWAP2 DIV MUL PUSH1 0x20 ADD PUSH1 0x40 MLOAD SWAP1 DUP2 ADD PUSH1 0x40 MSTORE DUP1 SWAP3 SWAP2 SWAP1 DUP2 DUP2 MSTORE PUSH1 0x20 ADD DUP3 DUP1 SLOAD PUSH2 0x317 SWAP1 PUSH2 0x1E55 JUMP JUMPDEST DUP1 ISZERO PUSH2 0x364 JUMPI DUP1 PUSH1 0x1F LT PUSH2 0x339 JUMPI PUSH2 0x100 DUP1 DUP4 SLOAD DIV MUL DUP4 MSTORE SWAP2 PUSH1 0x20 ADD SWAP2 PUSH2 0x364 JUMP JUMPDEST DUP3 ADD SWAP2 SWAP1 PUSH1 0x0 MSTORE PUSH1 0x20 PUSH1 0x0 KECCAK256 SWAP1 JUMPDEST DUP2 SLOAD DUP2 MSTORE SWAP1 PUSH1 0x1 ADD SWAP1 PUSH1 0x20 ADD DUP1 DUP4 GT PUSH2 0x347 JUMPI DUP3 SWAP1 SUB PUSH1 0x1F AND DUP3 ADD SWAP2 JUMPDEST POP POP POP POP POP SWAP1 DUP1 PUSH1 0x3 ADD DUP1 SLOAD PUSH2 0x379 SWAP1 PUSH2 0x1E55 JUMP JUMPDEST DUP1 PUSH1 0x1F ADD PUSH1 0x20 DUP1 SWAP2 DIV MUL PUSH1 0x20 ADD PUSH1 0x40 MLOAD SWAP1 DUP2 ADD PUSH1 0x40 MSTORE DUP1 SWAP3 SWAP2 SWAP1 DUP2 DUP2 MSTORE PUSH1 0x20 ADD DUP3 DUP1 SLOAD PUSH2 0x3A5 SWAP1 PUSH2 0x1E55 JUMP JUMPDEST DUP1 ISZERO PUSH2 0x3F2 JUMPI DUP1 PUSH1 0x1F LT PUSH2 0x3C7 JUMPI PUSH2 0x100 DUP1 DUP4 SLOAD DIV MUL DUP4 MSTORE SWAP2 PUSH1 0x20 ADD SWAP2 PUSH2 0x3F2 JUMP JUMPDEST DUP3 ADD SWAP2 SWAP1 PUSH1 0x0 MSTORE PUSH1 0x20 PUSH1 0x0 KECCAK256 SWAP1 JUMPDEST DUP2 SLOAD DUP2 MSTORE SWAP1 PUSH1 0x1 ADD SWAP1 PUSH1 0x20 ADD DUP1 DUP4 GT PUSH2 0x3D5 JUMPI DUP3 SWAP1 SUB PUSH1 0x1F AND DUP3 ADD SWAP2 JUMPDEST POP POP POP POP POP SWAP1 DUP1 PUSH1 0x4 ADD DUP1 SLOAD PUSH2 0x407 SWAP1 PUSH2 0x1E55 JUMP JUMPDEST DUP1 PUSH1 0x1F ADD PUSH1 0x20 DUP1 SWAP2 DIV MUL PUSH1 0x20 ADD PUSH1 0x40 MLOAD SWAP1 DUP2 ADD PUSH1 0x40 MSTORE DUP1 SWAP3 SWAP2 SWAP1 DUP2 DUP2 MSTORE PUSH1 0x20 ADD DUP3 DUP1 SLOAD PUSH2 0x433 SWAP1 PUSH2 0x1E55 JUMP JUMPDEST DUP1 ISZERO PUSH2 0x480 JUMPI DUP1 PUSH1 0x1F LT PUSH2 0x455 JUMPI PUSH2 0x100 DUP1 DUP4 SLOAD DIV MUL DUP4 MSTORE SWAP2 PUSH1 0x20 ADD SWAP2 PUSH2 0x480 JUMP JUMPDEST DUP3 ADD SWAP2 SWAP1 PUSH1 0x0 MSTORE PUSH1 0x20 PUSH1 0x0 KECCAK256 SWAP1 JUMPDEST DUP2 SLOAD DUP2 MSTORE SWAP1 PUSH1 0x1 ADD SWAP1 PUSH1 0x20 ADD DUP1 DUP4 GT PUSH2 0x463 JUMPI DUP3 SWAP1 SUB PUSH1 0x1F AND DUP3 ADD SWAP2 JUMPDEST POP POP POP POP POP SWAP1 DUP1 PUSH1 0x5 ADD DUP1 SLOAD PUSH2 0x495 SWAP1 PUSH2 0x1E55 JUMP JUMPDEST DUP1 PUSH1 0x1F ADD PUSH1 0x20 DUP1 SWAP2 DIV MUL PUSH1 0x20 ADD PUSH1 0x40 MLOAD SWAP1 DUP2 ADD PUSH1 0x40 MSTORE DUP1 SWAP3 SWAP2 SWAP1 DUP2 DUP2 MSTORE PUSH1 0x20 ADD DUP3 DUP1 SLOAD PUSH2 0x4C1 SWAP1 PUSH2 0x1E55 JUMP JUMPDEST DUP1 ISZERO PUSH2 0x50E JUMPI DUP1 PUSH1 0x1F LT PUSH2 0x4E3 JUMPI PUSH2 0x100 DUP1 DUP4 SLOAD DIV MUL DUP4 MSTORE SWAP2 PUSH1 0x20 ADD SWAP2 PUSH2 0x50E JUMP JUMPDEST DUP3 ADD SWAP2 SWAP1 PUSH1 0x0 MSTORE PUSH1 0x20 PUSH1 0x0 KECCAK256 SWAP1 JUMPDEST DUP2 SLOAD DUP2 MSTORE SWAP1 PUSH1 0x1 ADD SWAP1 PUSH1 0x20 ADD DUP1 DUP4 GT PUSH2 0x4F1 JUMPI DUP3 SWAP1 SUB PUSH1 0x1F AND DUP3 ADD SWAP2 JUMPDEST POP POP POP POP POP SWAP1 DUP1 PUSH1 0x6 ADD DUP1 SLOAD PUSH2 0x523 SWAP1 PUSH2 0x1E55 JUMP JUMPDEST DUP1 PUSH1 0x1F ADD PUSH1 0x20 DUP1 SWAP2 DIV MUL PUSH1 0x20 ADD PUSH1 0x40 MLOAD SWAP1 DUP2 ADD PUSH1 0x40 MSTORE DUP1 SWAP3 SWAP2 SWAP1 DUP2 DUP2 MSTORE PUSH1 0x20 ADD DUP3 DUP1 SLOAD PUSH2 0x54F SWAP1 PUSH2 0x1E55 JUMP JUMPDEST DUP1 ISZERO PUSH2 0x59C JUMPI DUP1 PUSH1 0x1F LT PUSH2 0x571 JUMPI PUSH2 0x100 DUP1 DUP4 SLOAD DIV MUL DUP4 MSTORE SWAP2 PUSH1 0x20 ADD SWAP2 PUSH2 0x59C JUMP JUMPDEST DUP3 ADD SWAP2 SWAP1 PUSH1 0x0 MSTORE PUSH1 0x20 PUSH1 0x0 KECCAK256 SWAP1 JUMPDEST DUP2 SLOAD DUP2 MSTORE SWAP1 PUSH1 0x1 ADD SWAP1 PUSH1 0x20 ADD DUP1 DUP4 GT PUSH2 0x57F JUMPI DUP3 SWAP1 SUB PUSH1 0x1F AND DUP3 ADD SWAP2 JUMPDEST POP POP POP POP POP SWAP1 DUP1 PUSH1 0x7 ADD PUSH1 0x0 SWAP1 SLOAD SWAP1 PUSH2 0x100 EXP SWAP1 DIV PUSH20 0xFFFFFFFFFFFFFFFFFFFFFFFFFFFFFFFFFFFFFFFF AND SWAP1 POP DUP9 JUMP JUMPDEST PUSH1 0x3 SLOAD DUP2 JUMP JUMPDEST PUSH1 0x1 PUSH1 0x0 DUP10 PUSH20 0xFFFFFFFFFFFFFFFFFFFFFFFFFFFFFFFFFFFFFFFF AND PUSH20 0xFFFFFFFFFFFFFFFFFFFFFFFFFFFFFFFFFFFFFFFF AND DUP2 MSTORE PUSH1 0x20 ADD SWAP1 DUP2 MSTORE PUSH1 0x20 ADD PUSH1 0x0 KECCAK256 PUSH1 0x40 MLOAD DUP1 PUSH2 0x100 ADD PUSH1 0x40 MSTORE DUP1 DUP10 DUP2 MSTORE PUSH1 0x20 ADD DUP9 DUP2 MSTORE PUSH1 0x20 ADD DUP8 DUP2 MSTORE PUSH1 0x20 ADD DUP7 DUP2 MSTORE PUSH1 0x20 ADD DUP6 DUP2 MSTORE PUSH1 0x20 ADD DUP5 DUP2 MSTORE PUSH1 0x20 ADD DUP4 DUP2 MSTORE PUSH1 0x20 ADD DUP11 PUSH20 0xFFFFFFFFFFFFFFFFFFFFFFFFFFFFFFFFFFFFFFFF AND DUP2 MSTORE POP SWAP1 DUP1 PUSH1 0x1 DUP2 SLOAD ADD DUP1 DUP3 SSTORE DUP1 SWAP2 POP POP PUSH1 0x1 SWAP1 SUB SWAP1 PUSH1 0x0 MSTORE PUSH1 0x20 PUSH1 0x0 KECCAK256 SWAP1 PUSH1 0x8 MUL ADD PUSH1 0x0 SWAP1 SWAP2 SWAP1 SWAP2 SWAP1 SWAP2 POP PUSH1 0x0 DUP3 ADD MLOAD DUP2 PUSH1 0x0 ADD SWAP1 DUP2 PUSH2 0x69F SWAP2 SWAP1 PUSH2 0x2028 JUMP JUMPDEST POP PUSH1 0x20 DUP3 ADD MLOAD DUP2 PUSH1 0x1 ADD SWAP1 DUP2 PUSH2 0x6B5 SWAP2 SWAP1 PUSH2 0x2028 JUMP JUMPDEST POP PUSH1 0x40 DUP3 ADD MLOAD DUP2 PUSH1 0x2 ADD SWAP1 DUP2 PUSH2 0x6CB SWAP2 SWAP1 PUSH2 0x2028 JUMP JUMPDEST POP PUSH1 0x60 DUP3 ADD MLOAD DUP2 PUSH1 0x3 ADD SWAP1 DUP2 PUSH2 0x6E1 SWAP2 SWAP1 PUSH2 0x2028 JUMP JUMPDEST POP PUSH1 0x80 DUP3 ADD MLOAD DUP2 PUSH1 0x4 ADD SWAP1 DUP2 PUSH2 0x6F7 SWAP2 SWAP1 PUSH2 0x2028 JUMP JUMPDEST POP PUSH1 0xA0 DUP3 ADD MLOAD DUP2 PUSH1 0x5 ADD SWAP1 DUP2 PUSH2 0x70D SWAP2 SWAP1 PUSH2 0x2028 JUMP JUMPDEST POP PUSH1 0xC0 DUP3 ADD MLOAD DUP2 PUSH1 0x6 ADD SWAP1 DUP2 PUSH2 0x723 SWAP2 SWAP1 PUSH2 0x2028 JUMP JUMPDEST POP PUSH1 0xE0 DUP3 ADD MLOAD DUP2 PUSH1 0x7 ADD PUSH1 0x0 PUSH2 0x100 EXP DUP2 SLOAD DUP2 PUSH20 0xFFFFFFFFFFFFFFFFFFFFFFFFFFFFFFFFFFFFFFFF MUL NOT AND SWAP1 DUP4 PUSH20 0xFFFFFFFFFFFFFFFFFFFFFFFFFFFFFFFFFFFFFFFF AND MUL OR SWAP1 SSTORE POP POP POP PUSH1 0x2 DUP9 SWAP1 DUP1 PUSH1 0x1 DUP2 SLOAD ADD DUP1 DUP3 SSTORE DUP1 SWAP2 POP POP PUSH1 0x1 SWAP1 SUB SWAP1 PUSH1 0x0 MSTORE PUSH1 0x20 PUSH1 0x0 KECCAK256 ADD PUSH1 0x0 SWAP1 SWAP2 SWAP1 SWAP2 SWAP1 SWAP2 PUSH2 0x100 EXP DUP2 SLOAD DUP2 PUSH20 0xFFFFFFFFFFFFFFFFFFFFFFFFFFFFFFFFFFFFFFFF MUL NOT AND SWAP1 DUP4 PUSH20 0xFFFFFFFFFFFFFFFFFFFFFFFFFFFFFFFFFFFFFFFF AND MUL OR SWAP1 SSTORE POP PUSH1 0x3 PUSH1 0x0 DUP2 SLOAD DUP1 SWAP3 SWAP2 SWAP1 PUSH2 0x7E3 SWAP1 PUSH2 0x2129 JUMP JUMPDEST SWAP2 SWAP1 POP SSTORE POP POP POP POP POP POP POP POP POP JUMP JUMPDEST PUSH1 0x0 DUP1 SLOAD SWAP1 PUSH2 0x100 EXP SWAP1 DIV PUSH20 0xFFFFFFFFFFFFFFFFFFFFFFFFFFFFFFFFFFFFFFFF AND DUP2 JUMP JUMPDEST PUSH1 0x2 DUP2 DUP2 SLOAD DUP2 LT PUSH2 0x826 JUMPI PUSH1 0x0 DUP1 REVERT JUMPDEST SWAP1 PUSH1 0x0 MSTORE PUSH1 0x20 PUSH1 0x0 KECCAK256 ADD PUSH1 0x0 SWAP2 POP SLOAD SWAP1 PUSH2 0x100 EXP SWAP1 DIV PUSH20 0xFFFFFFFFFFFFFFFFFFFFFFFFFFFFFFFFFFFFFFFF AND DUP2 JUMP JUMPDEST PUSH1 0x60 PUSH1 0x0 DUP1 SLOAD SWAP1 PUSH2 0x100 EXP SWAP1 DIV PUSH20 0xFFFFFFFFFFFFFFFFFFFFFFFFFFFFFFFFFFFFFFFF AND PUSH20 0xFFFFFFFFFFFFFFFFFFFFFFFFFFFFFFFFFFFFFFFF AND PUSH4 0x24D7806C CALLER PUSH1 0x40 MLOAD DUP3 PUSH4 0xFFFFFFFF AND PUSH1 0xE0 SHL DUP2 MSTORE PUSH1 0x4 ADD PUSH2 0x8B0 SWAP2 SWAP1 PUSH2 0x1BF4 JUMP JUMPDEST PUSH1 0x20 PUSH1 0x40 MLOAD DUP1 DUP4 SUB DUP2 DUP7 GAS STATICCALL ISZERO DUP1 ISZERO PUSH2 0x8CD JUMPI RETURNDATASIZE PUSH1 0x0 DUP1 RETURNDATACOPY RETURNDATASIZE PUSH1 0x0 REVERT JUMPDEST POP POP POP POP PUSH1 0x40 MLOAD RETURNDATASIZE PUSH1 0x1F NOT PUSH1 0x1F DUP3 ADD AND DUP3 ADD DUP1 PUSH1 0x40 MSTORE POP DUP2 ADD SWAP1 PUSH2 0x8F1 SWAP2 SWAP1 PUSH2 0x21A9 JUMP JUMPDEST DUP1 PUSH2 0x992 JUMPI POP PUSH1 0x0 DUP1 SLOAD SWAP1 PUSH2 0x100 EXP SWAP1 DIV PUSH20 0xFFFFFFFFFFFFFFFFFFFFFFFFFFFFFFFFFFFFFFFF AND PUSH20 0xFFFFFFFFFFFFFFFFFFFFFFFFFFFFFFFFFFFFFFFF AND PUSH4 0x5C4C9348 CALLER PUSH1 0x40 MLOAD DUP3 PUSH4 0xFFFFFFFF AND PUSH1 0xE0 SHL DUP2 MSTORE PUSH1 0x4 ADD PUSH2 0x950 SWAP2 SWAP1 PUSH2 0x1BF4 JUMP JUMPDEST PUSH1 0x20 PUSH1 0x40 MLOAD DUP1 DUP4 SUB DUP2 DUP7 GAS STATICCALL ISZERO DUP1 ISZERO PUSH2 0x96D JUMPI RETURNDATASIZE PUSH1 0x0 DUP1 RETURNDATACOPY RETURNDATASIZE PUSH1 0x0 REVERT JUMPDEST POP POP POP POP PUSH1 0x40 MLOAD RETURNDATASIZE PUSH1 0x1F NOT PUSH1 0x1F DUP3 ADD AND DUP3 ADD DUP1 PUSH1 0x40 MSTORE POP DUP2 ADD SWAP1 PUSH2 0x991 SWAP2 SWAP1 PUSH2 0x21A9 JUMP JUMPDEST JUMPDEST PUSH2 0x9D1 JUMPI PUSH1 0x40 MLOAD PUSH32 0x8C379A000000000000000000000000000000000000000000000000000000000 DUP2 MSTORE PUSH1 0x4 ADD PUSH2 0x9C8 SWAP1 PUSH2 0x2248 JUMP JUMPDEST PUSH1 0x40 MLOAD DUP1 SWAP2 SUB SWAP1 REVERT JUMPDEST PUSH1 0x0 PUSH1 0xA SWAP1 POP PUSH1 0x0 DUP2 PUSH1 0xA PUSH2 0x9E6 SWAP2 SWAP1 PUSH2 0x2268 JUMP JUMPDEST PUSH8 0xFFFFFFFFFFFFFFFF DUP2 GT ISZERO PUSH2 0x9FF JUMPI PUSH2 0x9FE PUSH2 0x18A8 JUMP JUMPDEST JUMPDEST PUSH1 0x40 MLOAD SWAP1 DUP1 DUP3 MSTORE DUP1 PUSH1 0x20 MUL PUSH1 0x20 ADD DUP3 ADD PUSH1 0x40 MSTORE DUP1 ISZERO PUSH2 0xA38 JUMPI DUP2 PUSH1 0x20 ADD JUMPDEST PUSH2 0xA25 PUSH2 0x15E3 JUMP JUMPDEST DUP2 MSTORE PUSH1 0x20 ADD SWAP1 PUSH1 0x1 SWAP1 SUB SWAP1 DUP2 PUSH2 0xA1D JUMPI SWAP1 POP JUMPDEST POP SWAP1 POP PUSH1 0x0 DUP1 DUP6 SWAP1 POP JUMPDEST PUSH1 0x2 DUP1 SLOAD SWAP1 POP DUP2 LT ISZERO PUSH2 0x100D JUMPI PUSH1 0x0 PUSH1 0x1 PUSH1 0x0 PUSH1 0x2 DUP5 DUP2 SLOAD DUP2 LT PUSH2 0xA69 JUMPI PUSH2 0xA68 PUSH2 0x22AA JUMP JUMPDEST JUMPDEST SWAP1 PUSH1 0x0 MSTORE PUSH1 0x20 PUSH1 0x0 KECCAK256 ADD PUSH1 0x0 SWAP1 SLOAD SWAP1 PUSH2 0x100 EXP SWAP1 DIV PUSH20 0xFFFFFFFFFFFFFFFFFFFFFFFFFFFFFFFFFFFFFFFF AND PUSH20 0xFFFFFFFFFFFFFFFFFFFFFFFFFFFFFFFFFFFFFFFF AND PUSH20 0xFFFFFFFFFFFFFFFFFFFFFFFFFFFFFFFFFFFFFFFF AND DUP2 MSTORE PUSH1 0x20 ADD SWAP1 DUP2 MSTORE PUSH1 0x20 ADD PUSH1 0x0 KECCAK256 DUP1 SLOAD DUP1 PUSH1 0x20 MUL PUSH1 0x20 ADD PUSH1 0x40 MLOAD SWAP1 DUP2 ADD PUSH1 0x40 MSTORE DUP1 SWAP3 SWAP2 SWAP1 DUP2 DUP2 MSTORE PUSH1 0x20 ADD PUSH1 0x0 SWAP1 JUMPDEST DUP3 DUP3 LT ISZERO PUSH2 0xF75 JUMPI DUP4 DUP3 SWAP1 PUSH1 0x0 MSTORE PUSH1 0x20 PUSH1 0x0 KECCAK256 SWAP1 PUSH1 0x8 MUL ADD PUSH1 0x40 MLOAD DUP1 PUSH2 0x100 ADD PUSH1 0x40 MSTORE SWAP1 DUP2 PUSH1 0x0 DUP3 ADD DUP1 SLOAD PUSH2 0xB22 SWAP1 PUSH2 0x1E55 JUMP JUMPDEST DUP1 PUSH1 0x1F ADD PUSH1 0x20 DUP1 SWAP2 DIV MUL PUSH1 0x20 ADD PUSH1 0x40 MLOAD SWAP1 DUP2 ADD PUSH1 0x40 MSTORE DUP1 SWAP3 SWAP2 SWAP1 DUP2 DUP2 MSTORE PUSH1 0x20 ADD DUP3 DUP1 SLOAD PUSH2 0xB4E SWAP1 PUSH2 0x1E55 JUMP JUMPDEST DUP1 ISZERO PUSH2 0xB9B JUMPI DUP1 PUSH1 0x1F LT PUSH2 0xB70 JUMPI PUSH2 0x100 DUP1 DUP4 SLOAD DIV MUL DUP4 MSTORE SWAP2 PUSH1 0x20 ADD SWAP2 PUSH2 0xB9B JUMP JUMPDEST DUP3 ADD SWAP2 SWAP1 PUSH1 0x0 MSTORE PUSH1 0x20 PUSH1 0x0 KECCAK256 SWAP1 JUMPDEST DUP2 SLOAD DUP2 MSTORE SWAP1 PUSH1 0x1 ADD SWAP1 PUSH1 0x20 ADD DUP1 DUP4 GT PUSH2 0xB7E JUMPI DUP3 SWAP1 SUB PUSH1 0x1F AND DUP3 ADD SWAP2 JUMPDEST POP POP POP POP POP DUP2 MSTORE PUSH1 0x20 ADD PUSH1 0x1 DUP3 ADD DUP1 SLOAD PUSH2 0xBB4 SWAP1 PUSH2 0x1E55 JUMP JUMPDEST DUP1 PUSH1 0x1F ADD PUSH1 0x20 DUP1 SWAP2 DIV MUL PUSH1 0x20 ADD PUSH1 0x40 MLOAD SWAP1 DUP2 ADD PUSH1 0x40 MSTORE DUP1 SWAP3 SWAP2 SWAP1 DUP2 DUP2 MSTORE PUSH1 0x20 ADD DUP3 DUP1 SLOAD PUSH2 0xBE0 SWAP1 PUSH2 0x1E55 JUMP JUMPDEST DUP1 ISZERO PUSH2 0xC2D JUMPI DUP1 PUSH1 0x1F LT PUSH2 0xC02 JUMPI PUSH2 0x100 DUP1 DUP4 SLOAD DIV MUL DUP4 MSTORE SWAP2 PUSH1 0x20 ADD SWAP2 PUSH2 0xC2D JUMP JUMPDEST DUP3 ADD SWAP2 SWAP1 PUSH1 0x0 MSTORE PUSH1 0x20 PUSH1 0x0 KECCAK256 SWAP1 JUMPDEST DUP2 SLOAD DUP2 MSTORE SWAP1 PUSH1 0x1 ADD SWAP1 PUSH1 0x20 ADD DUP1 DUP4 GT PUSH2 0xC10 JUMPI DUP3 SWAP1 SUB PUSH1 0x1F AND DUP3 ADD SWAP2 JUMPDEST POP POP POP POP POP DUP2 MSTORE PUSH1 0x20 ADD PUSH1 0x2 DUP3 ADD DUP1 SLOAD PUSH2 0xC46 SWAP1 PUSH2 0x1E55 JUMP JUMPDEST DUP1 PUSH1 0x1F ADD PUSH1 0x20 DUP1 SWAP2 DIV MUL PUSH1 0x20 ADD PUSH1 0x40 MLOAD SWAP1 DUP2 ADD PUSH1 0x40 MSTORE DUP1 SWAP3 SWAP2 SWAP1 DUP2 DUP2 MSTORE PUSH1 0x20 ADD DUP3 DUP1 SLOAD PUSH2 0xC72 SWAP1 PUSH2 0x1E55 JUMP JUMPDEST DUP1 ISZERO PUSH2 0xCBF JUMPI DUP1 PUSH1 0x1F LT PUSH2 0xC94 JUMPI PUSH2 0x100 DUP1 DUP4 SLOAD DIV MUL DUP4 MSTORE SWAP2 PUSH1 0x20 ADD SWAP2 PUSH2 0xCBF JUMP JUMPDEST DUP3 ADD SWAP2 SWAP1 PUSH1 0x0 MSTORE PUSH1 0x20 PUSH1 0x0 KECCAK256 SWAP1 JUMPDEST DUP2 SLOAD DUP2 MSTORE SWAP1 PUSH1 0x1 ADD SWAP1 PUSH1 0x20 ADD DUP1 DUP4 GT PUSH2 0xCA2 JUMPI DUP3 SWAP1 SUB PUSH1 0x1F AND DUP3 ADD SWAP2 JUMPDEST POP POP POP POP POP DUP2 MSTORE PUSH1 0x20 ADD PUSH1 0x3 DUP3 ADD DUP1 SLOAD PUSH2 0xCD8 SWAP1 PUSH2 0x1E55 JUMP JUMPDEST DUP1 PUSH1 0x1F ADD PUSH1 0x20 DUP1 SWAP2 DIV MUL PUSH1 0x20 ADD PUSH1 0x40 MLOAD SWAP1 DUP2 ADD PUSH1 0x40 MSTORE DUP1 SWAP3 SWAP2 SWAP1 DUP2 DUP2 MSTORE PUSH1 0x20 ADD DUP3 DUP1 SLOAD PUSH2 0xD04 SWAP1 PUSH2 0x1E55 JUMP JUMPDEST DUP1 ISZERO PUSH2 0xD51 JUMPI DUP1 PUSH1 0x1F LT PUSH2 0xD26 JUMPI PUSH2 0x100 DUP1 DUP4 SLOAD DIV MUL DUP4 MSTORE SWAP2 PUSH1 0x20 ADD SWAP2 PUSH2 0xD51 JUMP JUMPDEST DUP3 ADD SWAP2 SWAP1 PUSH1 0x0 MSTORE PUSH1 0x20 PUSH1 0x0 KECCAK256 SWAP1 JUMPDEST DUP2 SLOAD DUP2 MSTORE SWAP1 PUSH1 0x1 ADD SWAP1 PUSH1 0x20 ADD DUP1 DUP4 GT PUSH2 0xD34 JUMPI DUP3 SWAP1 SUB PUSH1 0x1F AND DUP3 ADD SWAP2 JUMPDEST POP POP POP POP POP DUP2 MSTORE PUSH1 0x20 ADD PUSH1 0x4 DUP3 ADD DUP1 SLOAD PUSH2 0xD6A SWAP1 PUSH2 0x1E55 JUMP JUMPDEST DUP1 PUSH1 0x1F ADD PUSH1 0x20 DUP1 SWAP2 DIV MUL PUSH1 0x20 ADD PUSH1 0x40 MLOAD SWAP1 DUP2 ADD PUSH1 0x40 MSTORE DUP1 SWAP3 SWAP2 SWAP1 DUP2 DUP2 MSTORE PUSH1 0x20 ADD DUP3 DUP1 SLOAD PUSH2 0xD96 SWAP1 PUSH2 0x1E55 JUMP JUMPDEST DUP1 ISZERO PUSH2 0xDE3 JUMPI DUP1 PUSH1 0x1F LT PUSH2 0xDB8 JUMPI PUSH2 0x100 DUP1 DUP4 SLOAD DIV MUL DUP4 MSTORE SWAP2 PUSH1 0x20 ADD SWAP2 PUSH2 0xDE3 JUMP JUMPDEST DUP3 ADD SWAP2 SWAP1 PUSH1 0x0 MSTORE PUSH1 0x20 PUSH1 0x0 KECCAK256 SWAP1 JUMPDEST DUP2 SLOAD DUP2 MSTORE SWAP1 PUSH1 0x1 ADD SWAP1 PUSH1 0x20 ADD DUP1 DUP4 GT PUSH2 0xDC6 JUMPI DUP3 SWAP1 SUB PUSH1 0x1F AND DUP3 ADD SWAP2 JUMPDEST POP POP POP POP POP DUP2 MSTORE PUSH1 0x20 ADD PUSH1 0x5 DUP3 ADD DUP1 SLOAD PUSH2 0xDFC SWAP1 PUSH2 0x1E55 JUMP JUMPDEST DUP1 PUSH1 0x1F ADD PUSH1 0x20 DUP1 SWAP2 DIV MUL PUSH1 0x20 ADD PUSH1 0x40 MLOAD SWAP1 DUP2 ADD PUSH1 0x40 MSTORE DUP1 SWAP3 SWAP2 SWAP1 DUP2 DUP2 MSTORE PUSH1 0x20 ADD DUP3 DUP1 SLOAD PUSH2 0xE28 SWAP1 PUSH2 0x1E55 JUMP JUMPDEST DUP1 ISZERO PUSH2 0xE75 JUMPI DUP1 PUSH1 0x1F LT PUSH2 0xE4A JUMPI PUSH2 0x100 DUP1 DUP4 SLOAD DIV MUL DUP4 MSTORE SWAP2 PUSH1 0x20 ADD SWAP2 PUSH2 0xE75 JUMP JUMPDEST DUP3 ADD SWAP2 SWAP1 PUSH1 0x0 MSTORE PUSH1 0x20 PUSH1 0x0 KECCAK256 SWAP1 JUMPDEST DUP2 SLOAD DUP2 MSTORE SWAP1 PUSH1 0x1 ADD SWAP1 PUSH1 0x20 ADD DUP1 DUP4 GT PUSH2 0xE58 JUMPI DUP3 SWAP1 SUB PUSH1 0x1F AND DUP3 ADD SWAP2 JUMPDEST POP POP POP POP POP DUP2 MSTORE PUSH1 0x20 ADD PUSH1 0x6 DUP3 ADD DUP1 SLOAD PUSH2 0xE8E SWAP1 PUSH2 0x1E55 JUMP JUMPDEST DUP1 PUSH1 0x1F ADD PUSH1 0x20 DUP1 SWAP2 DIV MUL PUSH1 0x20 ADD PUSH1 0x40 MLOAD SWAP1 DUP2 ADD PUSH1 0x40 MSTORE DUP1 SWAP3 SWAP2 SWAP1 DUP2 DUP2 MSTORE PUSH1 0x20 ADD DUP3 DUP1 SLOAD PUSH2 0xEBA SWAP1 PUSH2 0x1E55 JUMP JUMPDEST DUP1 ISZERO PUSH2 0xF07 JUMPI DUP1 PUSH1 0x1F LT PUSH2 0xEDC JUMPI PUSH2 0x100 DUP1 DUP4 SLOAD DIV MUL DUP4 MSTORE SWAP2 PUSH1 0x20 ADD SWAP2 PUSH2 0xF07 JUMP JUMPDEST DUP3 ADD SWAP2 SWAP1 PUSH1 0x0 MSTORE PUSH1 0x20 PUSH1 0x0 KECCAK256 SWAP1 JUMPDEST DUP2 SLOAD DUP2 MSTORE SWAP1 PUSH1 0x1 ADD SWAP1 PUSH1 0x20 ADD DUP1 DUP4 GT PUSH2 0xEEA JUMPI DUP3 SWAP1 SUB PUSH1 0x1F AND DUP3 ADD SWAP2 JUMPDEST POP POP POP POP POP DUP2 MSTORE PUSH1 0x20 ADD PUSH1 0x7 DUP3 ADD PUSH1 0x0 SWAP1 SLOAD SWAP1 PUSH2 0x100 EXP SWAP1 DIV PUSH20 0xFFFFFFFFFFFFFFFFFFFFFFFFFFFFFFFFFFFFFFFF AND PUSH20 0xFFFFFFFFFFFFFFFFFFFFFFFFFFFFFFFFFFFFFFFF AND PUSH20 0xFFFFFFFFFFFFFFFFFFFFFFFFFFFFFFFFFFFFFFFF AND DUP2 MSTORE POP POP DUP2 MSTORE PUSH1 0x20 ADD SWAP1 PUSH1 0x1 ADD SWAP1 PUSH2 0xAEE JUMP JUMPDEST POP POP POP POP SWAP1 POP PUSH1 0x0 JUMPDEST DUP2 MLOAD DUP2 LT DUP1 ISZERO PUSH2 0xF99 JUMPI POP PUSH1 0xA DUP7 PUSH2 0xF96 SWAP2 SWAP1 PUSH2 0x2268 JUMP JUMPDEST DUP5 LT JUMPDEST ISZERO PUSH2 0xFF8 JUMPI DUP2 DUP2 DUP2 MLOAD DUP2 LT PUSH2 0xFB1 JUMPI PUSH2 0xFB0 PUSH2 0x22AA JUMP JUMPDEST JUMPDEST PUSH1 0x20 MUL PUSH1 0x20 ADD ADD MLOAD DUP6 DUP6 DUP2 MLOAD DUP2 LT PUSH2 0xFCC JUMPI PUSH2 0xFCB PUSH2 0x22AA JUMP JUMPDEST JUMPDEST PUSH1 0x20 MUL PUSH1 0x20 ADD ADD DUP2 SWAP1 MSTORE POP DUP4 DUP1 PUSH2 0xFE2 SWAP1 PUSH2 0x2129 JUMP JUMPDEST SWAP5 POP POP DUP1 DUP1 PUSH2 0xFF0 SWAP1 PUSH2 0x2129 JUMP JUMPDEST SWAP2 POP POP PUSH2 0xF7E JUMP JUMPDEST POP POP DUP1 DUP1 PUSH2 0x1005 SWAP1 PUSH2 0x2129 JUMP JUMPDEST SWAP2 POP POP PUSH2 0xA42 JUMP JUMPDEST POP DUP2 SWAP4 POP POP POP POP SWAP2 SWAP1 POP JUMP JUMPDEST PUSH1 0x60 PUSH1 0x0 DUP1 SLOAD SWAP1 PUSH2 0x100 EXP SWAP1 DIV PUSH20 0xFFFFFFFFFFFFFFFFFFFFFFFFFFFFFFFFFFFFFFFF AND PUSH20 0xFFFFFFFFFFFFFFFFFFFFFFFFFFFFFFFFFFFFFFFF AND PUSH4 0x1132BEB5 CALLER PUSH1 0x40 MLOAD DUP3 PUSH4 0xFFFFFFFF AND PUSH1 0xE0 SHL DUP2 MSTORE PUSH1 0x4 ADD PUSH2 0x1074 SWAP2 SWAP1 PUSH2 0x1BF4 JUMP JUMPDEST PUSH1 0x20 PUSH1 0x40 MLOAD DUP1 DUP4 SUB DUP2 DUP7 GAS STATICCALL ISZERO DUP1 ISZERO PUSH2 0x1091 JUMPI RETURNDATASIZE PUSH1 0x0 DUP1 RETURNDATACOPY RETURNDATASIZE PUSH1 0x0 REVERT JUMPDEST POP POP POP POP PUSH1 0x40 MLOAD RETURNDATASIZE PUSH1 0x1F NOT PUSH1 0x1F DUP3 ADD AND DUP3 ADD DUP1 PUSH1 0x40 MSTORE POP DUP2 ADD SWAP1 PUSH2 0x10B5 SWAP2 SWAP1 PUSH2 0x21A9 JUMP JUMPDEST PUSH2 0x10F4 JUMPI PUSH1 0x40 MLOAD PUSH32 0x8C379A000000000000000000000000000000000000000000000000000000000 DUP2 MSTORE PUSH1 0x4 ADD PUSH2 0x10EB SWAP1 PUSH2 0x234B JUMP JUMPDEST PUSH1 0x40 MLOAD DUP1 SWAP2 SUB SWAP1 REVERT JUMPDEST PUSH1 0x1 PUSH1 0x0 CALLER PUSH20 0xFFFFFFFFFFFFFFFFFFFFFFFFFFFFFFFFFFFFFFFF AND PUSH20 0xFFFFFFFFFFFFFFFFFFFFFFFFFFFFFFFFFFFFFFFF AND DUP2 MSTORE PUSH1 0x20 ADD SWAP1 DUP2 MSTORE PUSH1 0x20 ADD PUSH1 0x0 KECCAK256 DUP1 SLOAD DUP1 PUSH1 0x20 MUL PUSH1 0x20 ADD PUSH1 0x40 MLOAD SWAP1 DUP2 ADD PUSH1 0x40 MSTORE DUP1 SWAP3 SWAP2 SWAP1 DUP2 DUP2 MSTORE PUSH1 0x20 ADD PUSH1 0x0 SWAP1 JUMPDEST DUP3 DUP3 LT ISZERO PUSH2 0x15DA JUMPI DUP4 DUP3 SWAP1 PUSH1 0x0 MSTORE PUSH1 0x20 PUSH1 0x0 KECCAK256 SWAP1 PUSH1 0x8 MUL ADD PUSH1 0x40 MLOAD DUP1 PUSH2 0x100 ADD PUSH1 0x40 MSTORE SWAP1 DUP2 PUSH1 0x0 DUP3 ADD DUP1 SLOAD PUSH2 0x1187 SWAP1 PUSH2 0x1E55 JUMP JUMPDEST DUP1 PUSH1 0x1F ADD PUSH1 0x20 DUP1 SWAP2 DIV MUL PUSH1 0x20 ADD PUSH1 0x40 MLOAD SWAP1 DUP2 ADD PUSH1 0x40 MSTORE DUP1 SWAP3 SWAP2 SWAP1 DUP2 DUP2 MSTORE PUSH1 0x20 ADD DUP3 DUP1 SLOAD PUSH2 0x11B3 SWAP1 PUSH2 0x1E55 JUMP JUMPDEST DUP1 ISZERO PUSH2 0x1200 JUMPI DUP1 PUSH1 0x1F LT PUSH2 0x11D5 JUMPI PUSH2 0x100 DUP1 DUP4 SLOAD DIV MUL DUP4 MSTORE SWAP2 PUSH1 0x20 ADD SWAP2 PUSH2 0x1200 JUMP JUMPDEST DUP3 ADD SWAP2 SWAP1 PUSH1 0x0 MSTORE PUSH1 0x20 PUSH1 0x0 KECCAK256 SWAP1 JUMPDEST DUP2 SLOAD DUP2 MSTORE SWAP1 PUSH1 0x1 ADD SWAP1 PUSH1 0x20 ADD DUP1 DUP4 GT PUSH2 0x11E3 JUMPI DUP3 SWAP1 SUB PUSH1 0x1F AND DUP3 ADD SWAP2 JUMPDEST POP POP POP POP POP DUP2 MSTORE PUSH1 0x20 ADD PUSH1 0x1 DUP3 ADD DUP1 SLOAD PUSH2 0x1219 SWAP1 PUSH2 0x1E55 JUMP JUMPDEST DUP1 PUSH1 0x1F ADD PUSH1 0x20 DUP1 SWAP2 DIV MUL PUSH1 0x20 ADD PUSH1 0x40 MLOAD SWAP1 DUP2 ADD PUSH1 0x40 MSTORE DUP1 SWAP3 SWAP2 SWAP1 DUP2 DUP2 MSTORE PUSH1 0x20 ADD DUP3 DUP1 SLOAD PUSH2 0x1245 SWAP1 PUSH2 0x1E55 JUMP JUMPDEST DUP1 ISZERO PUSH2 0x1292 JUMPI DUP1 PUSH1 0x1F LT PUSH2 0x1267 JUMPI PUSH2 0x100 DUP1 DUP4 SLOAD DIV MUL DUP4 MSTORE SWAP2 PUSH1 0x20 ADD SWAP2 PUSH2 0x1292 JUMP JUMPDEST DUP3 ADD SWAP2 SWAP1 PUSH1 0x0 MSTORE PUSH1 0x20 PUSH1 0x0 KECCAK256 SWAP1 JUMPDEST DUP2 SLOAD DUP2 MSTORE SWAP1 PUSH1 0x1 ADD SWAP1 PUSH1 0x20 ADD DUP1 DUP4 GT PUSH2 0x1275 JUMPI DUP3 SWAP1 SUB PUSH1 0x1F AND DUP3 ADD SWAP2 JUMPDEST POP POP POP POP POP DUP2 MSTORE PUSH1 0x20 ADD PUSH1 0x2 DUP3 ADD DUP1 SLOAD PUSH2 0x12AB SWAP1 PUSH2 0x1E55 JUMP JUMPDEST DUP1 PUSH1 0x1F ADD PUSH1 0x20 DUP1 SWAP2 DIV MUL PUSH1 0x20 ADD PUSH1 0x40 MLOAD SWAP1 DUP2 ADD PUSH1 0x40 MSTORE DUP1 SWAP3 SWAP2 SWAP1 DUP2 DUP2 MSTORE PUSH1 0x20 ADD DUP3 DUP1 SLOAD PUSH2 0x12D7 SWAP1 PUSH2 0x1E55 JUMP JUMPDEST DUP1 ISZERO PUSH2 0x1324 JUMPI DUP1 PUSH1 0x1F LT PUSH2 0x12F9 JUMPI PUSH2 0x100 DUP1 DUP4 SLOAD DIV MUL DUP4 MSTORE SWAP2 PUSH1 0x20 ADD SWAP2 PUSH2 0x1324 JUMP JUMPDEST DUP3 ADD SWAP2 SWAP1 PUSH1 0x0 MSTORE PUSH1 0x20 PUSH1 0x0 KECCAK256 SWAP1 JUMPDEST DUP2 SLOAD DUP2 MSTORE SWAP1 PUSH1 0x1 ADD SWAP1 PUSH1 0x20 ADD DUP1 DUP4 GT PUSH2 0x1307 JUMPI DUP3 SWAP1 SUB PUSH1 0x1F AND DUP3 ADD SWAP2 JUMPDEST POP POP POP POP POP DUP2 MSTORE PUSH1 0x20 ADD PUSH1 0x3 DUP3 ADD DUP1 SLOAD PUSH2 0x133D SWAP1 PUSH2 0x1E55 JUMP JUMPDEST DUP1 PUSH1 0x1F ADD PUSH1 0x20 DUP1 SWAP2 DIV MUL PUSH1 0x20 ADD PUSH1 0x40 MLOAD SWAP1 DUP2 ADD PUSH1 0x40 MSTORE DUP1 SWAP3 SWAP2 SWAP1 DUP2 DUP2 MSTORE PUSH1 0x20 ADD DUP3 DUP1 SLOAD PUSH2 0x1369 SWAP1 PUSH2 0x1E55 JUMP JUMPDEST DUP1 ISZERO PUSH2 0x13B6 JUMPI DUP1 PUSH1 0x1F LT PUSH2 0x138B JUMPI PUSH2 0x100 DUP1 DUP4 SLOAD DIV MUL DUP4 MSTORE SWAP2 PUSH1 0x20 ADD SWAP2 PUSH2 0x13B6 JUMP JUMPDEST DUP3 ADD SWAP2 SWAP1 PUSH1 0x0 MSTORE PUSH1 0x20 PUSH1 0x0 KECCAK256 SWAP1 JUMPDEST DUP2 SLOAD DUP2 MSTORE SWAP1 PUSH1 0x1 ADD SWAP1 PUSH1 0x20 ADD DUP1 DUP4 GT PUSH2 0x1399 JUMPI DUP3 SWAP1 SUB PUSH1 0x1F AND DUP3 ADD SWAP2 JUMPDEST POP POP POP POP POP DUP2 MSTORE PUSH1 0x20 ADD PUSH1 0x4 DUP3 ADD DUP1 SLOAD PUSH2 0x13CF SWAP1 PUSH2 0x1E55 JUMP JUMPDEST DUP1 PUSH1 0x1F ADD PUSH1 0x20 DUP1 SWAP2 DIV MUL PUSH1 0x20 ADD PUSH1 0x40 MLOAD SWAP1 DUP2 ADD PUSH1 0x40 MSTORE DUP1 SWAP3 SWAP2 SWAP1 DUP2 DUP2 MSTORE PUSH1 0x20 ADD DUP3 DUP1 SLOAD PUSH2 0x13FB SWAP1 PUSH2 0x1E55 JUMP JUMPDEST DUP1 ISZERO PUSH2 0x1448 JUMPI DUP1 PUSH1 0x1F LT PUSH2 0x141D JUMPI PUSH2 0x100 DUP1 DUP4 SLOAD DIV MUL DUP4 MSTORE SWAP2 PUSH1 0x20 ADD SWAP2 PUSH2 0x1448 JUMP JUMPDEST DUP3 ADD SWAP2 SWAP1 PUSH1 0x0 MSTORE PUSH1 0x20 PUSH1 0x0 KECCAK256 SWAP1 JUMPDEST DUP2 SLOAD DUP2 MSTORE SWAP1 PUSH1 0x1 ADD SWAP1 PUSH1 0x20 ADD DUP1 DUP4 GT PUSH2 0x142B JUMPI DUP3 SWAP1 SUB PUSH1 0x1F AND DUP3 ADD SWAP2 JUMPDEST POP POP POP POP POP DUP2 MSTORE PUSH1 0x20 ADD PUSH1 0x5 DUP3 ADD DUP1 SLOAD PUSH2 0x1461 SWAP1 PUSH2 0x1E55 JUMP JUMPDEST DUP1 PUSH1 0x1F ADD PUSH1 0x20 DUP1 SWAP2 DIV MUL PUSH1 0x20 ADD PUSH1 0x40 MLOAD SWAP1 DUP2 ADD PUSH1 0x40 MSTORE DUP1 SWAP3 SWAP2 SWAP1 DUP2 DUP2 MSTORE PUSH1 0x20 ADD DUP3 DUP1 SLOAD PUSH2 0x148D SWAP1 PUSH2 0x1E55 JUMP JUMPDEST DUP1 ISZERO PUSH2 0x14DA JUMPI DUP1 PUSH1 0x1F LT PUSH2 0x14AF JUMPI PUSH2 0x100 DUP1 DUP4 SLOAD DIV MUL DUP4 MSTORE SWAP2 PUSH1 0x20 ADD SWAP2 PUSH2 0x14DA JUMP JUMPDEST DUP3 ADD SWAP2 SWAP1 PUSH1 0x0 MSTORE PUSH1 0x20 PUSH1 0x0 KECCAK256 SWAP1 JUMPDEST DUP2 SLOAD DUP2 MSTORE SWAP1 PUSH1 0x1 ADD SWAP1 PUSH1 0x20 ADD DUP1 DUP4 GT PUSH2 0x14BD JUMPI DUP3 SWAP1 SUB PUSH1 0x1F AND DUP3 ADD SWAP2 JUMPDEST POP POP POP POP POP DUP2 MSTORE PUSH1 0x20 ADD PUSH1 0x6 DUP3 ADD DUP1 SLOAD PUSH2 0x14F3 SWAP1 PUSH2 0x1E55 JUMP JUMPDEST DUP1 PUSH1 0x1F ADD PUSH1 0x20 DUP1 SWAP2 DIV MUL PUSH1 0x20 ADD PUSH1 0x40 MLOAD SWAP1 DUP2 ADD PUSH1 0x40 MSTORE DUP1 SWAP3 SWAP2 SWAP1 DUP2 DUP2 MSTORE PUSH1 0x20 ADD DUP3 DUP1 SLOAD PUSH2 0x151F SWAP1 PUSH2 0x1E55 JUMP JUMPDEST DUP1 ISZERO PUSH2 0x156C JUMPI DUP1 PUSH1 0x1F LT PUSH2 0x1541 JUMPI PUSH2 0x100 DUP1 DUP4 SLOAD DIV MUL DUP4 MSTORE SWAP2 PUSH1 0x20 ADD SWAP2 PUSH2 0x156C JUMP JUMPDEST DUP3 ADD SWAP2 SWAP1 PUSH1 0x0 MSTORE PUSH1 0x20 PUSH1 0x0 KECCAK256 SWAP1 JUMPDEST DUP2 SLOAD DUP2 MSTORE SWAP1 PUSH1 0x1 ADD SWAP1 PUSH1 0x20 ADD DUP1 DUP4 GT PUSH2 0x154F JUMPI DUP3 SWAP1 SUB PUSH1 0x1F AND DUP3 ADD SWAP2 JUMPDEST POP POP POP POP POP DUP2 MSTORE PUSH1 0x20 ADD PUSH1 0x7 DUP3 ADD PUSH1 0x0 SWAP1 SLOAD SWAP1 PUSH2 0x100 EXP SWAP1 DIV PUSH20 0xFFFFFFFFFFFFFFFFFFFFFFFFFFFFFFFFFFFFFFFF AND PUSH20 0xFFFFFFFFFFFFFFFFFFFFFFFFFFFFFFFFFFFFFFFF AND PUSH20 0xFFFFFFFFFFFFFFFFFFFFFFFFFFFFFFFFFFFFFFFF AND DUP2 MSTORE POP POP DUP2 MSTORE PUSH1 0x20 ADD SWAP1 PUSH1 0x1 ADD SWAP1 PUSH2 0x1153 JUMP JUMPDEST POP POP POP POP SWAP1 POP SWAP1 JUMP JUMPDEST PUSH1 0x40 MLOAD DUP1 PUSH2 0x100 ADD PUSH1 0x40 MSTORE DUP1 PUSH1 0x60 DUP2 MSTORE PUSH1 0x20 ADD PUSH1 0x60 DUP2 MSTORE PUSH1 0x20 ADD PUSH1 0x60 DUP2 MSTORE PUSH1 0x20 ADD PUSH1 0x60 DUP2 MSTORE PUSH1 0x20 ADD PUSH1 0x60 DUP2 MSTORE PUSH1 0x20 ADD PUSH1 0x60 DUP2 MSTORE PUSH1 0x20 ADD PUSH1 0x60 DUP2 MSTORE PUSH1 0x20 ADD PUSH1 0x0 PUSH20 0xFFFFFFFFFFFFFFFFFFFFFFFFFFFFFFFFFFFFFFFF AND DUP2 MSTORE POP SWAP1 JUMP JUMPDEST PUSH1 0x0 PUSH1 0x40 MLOAD SWAP1 POP SWAP1 JUMP JUMPDEST PUSH1 0x0 DUP1 REVERT JUMPDEST PUSH1 0x0 DUP1 REVERT JUMPDEST PUSH1 0x0 PUSH20 0xFFFFFFFFFFFFFFFFFFFFFFFFFFFFFFFFFFFFFFFF DUP3 AND SWAP1 POP SWAP2 SWAP1 POP JUMP JUMPDEST PUSH1 0x0 PUSH2 0x167D DUP3 PUSH2 0x1652 JUMP JUMPDEST SWAP1 POP SWAP2 SWAP1 POP JUMP JUMPDEST PUSH2 0x168D DUP2 PUSH2 0x1672 JUMP JUMPDEST DUP2 EQ PUSH2 0x1698 JUMPI PUSH1 0x0 DUP1 REVERT JUMPDEST POP JUMP JUMPDEST PUSH1 0x0 DUP2 CALLDATALOAD SWAP1 POP PUSH2 0x16AA DUP2 PUSH2 0x1684 JUMP JUMPDEST SWAP3 SWAP2 POP POP JUMP JUMPDEST PUSH1 0x0 DUP2 SWAP1 POP SWAP2 SWAP1 POP JUMP JUMPDEST PUSH2 0x16C3 DUP2 PUSH2 0x16B0 JUMP JUMPDEST DUP2 EQ PUSH2 0x16CE JUMPI PUSH1 0x0 DUP1 REVERT JUMPDEST POP JUMP JUMPDEST PUSH1 0x0 DUP2 CALLDATALOAD SWAP1 POP PUSH2 0x16E0 DUP2 PUSH2 0x16BA JUMP JUMPDEST SWAP3 SWAP2 POP POP JUMP JUMPDEST PUSH1 0x0 DUP1 PUSH1 0x40 DUP4 DUP6 SUB SLT ISZERO PUSH2 0x16FD JUMPI PUSH2 0x16FC PUSH2 0x1648 JUMP JUMPDEST JUMPDEST PUSH1 0x0 PUSH2 0x170B DUP6 DUP3 DUP7 ADD PUSH2 0x169B JUMP JUMPDEST SWAP3 POP POP PUSH1 0x20 PUSH2 0x171C DUP6 DUP3 DUP7 ADD PUSH2 0x16D1 JUMP JUMPDEST SWAP2 POP POP SWAP3 POP SWAP3 SWAP1 POP JUMP JUMPDEST PUSH1 0x0 DUP2 MLOAD SWAP1 POP SWAP2 SWAP1 POP JUMP JUMPDEST PUSH1 0x0 DUP3 DUP3 MSTORE PUSH1 0x20 DUP3 ADD SWAP1 POP SWAP3 SWAP2 POP POP JUMP JUMPDEST PUSH1 0x0 JUMPDEST DUP4 DUP2 LT ISZERO PUSH2 0x1760 JUMPI DUP1 DUP3 ADD MLOAD DUP2 DUP5 ADD MSTORE PUSH1 0x20 DUP2 ADD SWAP1 POP PUSH2 0x1745 JUMP JUMPDEST PUSH1 0x0 DUP5 DUP5 ADD MSTORE POP POP POP POP JUMP JUMPDEST PUSH1 0x0 PUSH1 0x1F NOT PUSH1 0x1F DUP4 ADD AND SWAP1 POP SWAP2 SWAP1 POP JUMP JUMPDEST PUSH1 0x0 PUSH2 0x1788 DUP3 PUSH2 0x1726 JUMP JUMPDEST PUSH2 0x1792 DUP2 DUP6 PUSH2 0x1731 JUMP JUMPDEST SWAP4 POP PUSH2 0x17A2 DUP2 DUP6 PUSH1 0x20 DUP7 ADD PUSH2 0x1742 JUMP JUMPDEST PUSH2 0x17AB DUP2 PUSH2 0x176C JUMP JUMPDEST DUP5 ADD SWAP2 POP POP SWAP3 SWAP2 POP POP JUMP JUMPDEST PUSH2 0x17BF DUP2 PUSH2 0x1672 JUMP JUMPDEST DUP3 MSTORE POP POP JUMP JUMPDEST PUSH1 0x0 PUSH2 0x100 DUP3 ADD SWAP1 POP DUP2 DUP2 SUB PUSH1 0x0 DUP4 ADD MSTORE PUSH2 0x17E0 DUP2 DUP12 PUSH2 0x177D JUMP JUMPDEST SWAP1 POP DUP2 DUP2 SUB PUSH1 0x20 DUP4 ADD MSTORE PUSH2 0x17F4 DUP2 DUP11 PUSH2 0x177D JUMP JUMPDEST SWAP1 POP DUP2 DUP2 SUB PUSH1 0x40 DUP4 ADD MSTORE PUSH2 0x1808 DUP2 DUP10 PUSH2 0x177D JUMP JUMPDEST SWAP1 POP DUP2 DUP2 SUB PUSH1 0x60 DUP4 ADD MSTORE PUSH2 0x181C DUP2 DUP9 PUSH2 0x177D JUMP JUMPDEST SWAP1 POP DUP2 DUP2 SUB PUSH1 0x80 DUP4 ADD MSTORE PUSH2 0x1830 DUP2 DUP8 PUSH2 0x177D JUMP JUMPDEST SWAP1 POP DUP2 DUP2 SUB PUSH1 0xA0 DUP4 ADD MSTORE PUSH2 0x1844 DUP2 DUP7 PUSH2 0x177D JUMP JUMPDEST SWAP1 POP DUP2 DUP2 SUB PUSH1 0xC0 DUP4 ADD MSTORE PUSH2 0x1858 DUP2 DUP6 PUSH2 0x177D JUMP JUMPDEST SWAP1 POP PUSH2 0x1867 PUSH1 0xE0 DUP4 ADD DUP5 PUSH2 0x17B6 JUMP JUMPDEST SWAP10 SWAP9 POP POP POP POP POP POP POP POP POP JUMP JUMPDEST PUSH2 0x187D DUP2 PUSH2 0x16B0 JUMP JUMPDEST DUP3 MSTORE POP POP JUMP JUMPDEST PUSH1 0x0 PUSH1 0x20 DUP3 ADD SWAP1 POP PUSH2 0x1898 PUSH1 0x0 DUP4 ADD DUP5 PUSH2 0x1874 JUMP JUMPDEST SWAP3 SWAP2 POP POP JUMP JUMPDEST PUSH1 0x0 DUP1 REVERT JUMPDEST PUSH1 0x0 DUP1 REVERT JUMPDEST PUSH32 0x4E487B7100000000000000000000000000000000000000000000000000000000 PUSH1 0x0 MSTORE PUSH1 0x41 PUSH1 0x4 MSTORE PUSH1 0x24 PUSH1 0x0 REVERT JUMPDEST PUSH2 0x18E0 DUP3 PUSH2 0x176C JUMP JUMPDEST DUP2 ADD DUP2 DUP2 LT PUSH8 0xFFFFFFFFFFFFFFFF DUP3 GT OR ISZERO PUSH2 0x18FF JUMPI PUSH2 0x18FE PUSH2 0x18A8 JUMP JUMPDEST JUMPDEST DUP1 PUSH1 0x40 MSTORE POP POP POP JUMP JUMPDEST PUSH1 0x0 PUSH2 0x1912 PUSH2 0x163E JUMP JUMPDEST SWAP1 POP PUSH2 0x191E DUP3 DUP3 PUSH2 0x18D7 JUMP JUMPDEST SWAP2 SWAP1 POP JUMP JUMPDEST PUSH1 0x0 PUSH8 0xFFFFFFFFFFFFFFFF DUP3 GT ISZERO PUSH2 0x193E JUMPI PUSH2 0x193D PUSH2 0x18A8 JUMP JUMPDEST JUMPDEST PUSH2 0x1947 DUP3 PUSH2 0x176C JUMP JUMPDEST SWAP1 POP PUSH1 0x20 DUP2 ADD SWAP1 POP SWAP2 SWAP1 POP JUMP JUMPDEST DUP3 DUP2 DUP4 CALLDATACOPY PUSH1 0x0 DUP4 DUP4 ADD MSTORE POP POP POP JUMP JUMPDEST PUSH1 0x0 PUSH2 0x1976 PUSH2 0x1971 DUP5 PUSH2 0x1923 JUMP JUMPDEST PUSH2 0x1908 JUMP JUMPDEST SWAP1 POP DUP3 DUP2 MSTORE PUSH1 0x20 DUP2 ADD DUP5 DUP5 DUP5 ADD GT ISZERO PUSH2 0x1992 JUMPI PUSH2 0x1991 PUSH2 0x18A3 JUMP JUMPDEST JUMPDEST PUSH2 0x199D DUP5 DUP3 DUP6 PUSH2 0x1954 JUMP JUMPDEST POP SWAP4 SWAP3 POP POP POP JUMP JUMPDEST PUSH1 0x0 DUP3 PUSH1 0x1F DUP4 ADD SLT PUSH2 0x19BA JUMPI PUSH2 0x19B9 PUSH2 0x189E JUMP JUMPDEST JUMPDEST DUP2 CALLDATALOAD PUSH2 0x19CA DUP5 DUP3 PUSH1 0x20 DUP7 ADD PUSH2 0x1963 JUMP JUMPDEST SWAP2 POP POP SWAP3 SWAP2 POP POP JUMP JUMPDEST PUSH1 0x0 DUP1 PUSH1 0x0 DUP1 PUSH1 0x0 DUP1 PUSH1 0x0 DUP1 PUSH2 0x100 DUP10 DUP12 SUB SLT ISZERO PUSH2 0x19F4 JUMPI PUSH2 0x19F3 PUSH2 0x1648 JUMP JUMPDEST JUMPDEST PUSH1 0x0 PUSH2 0x1A02 DUP12 DUP3 DUP13 ADD PUSH2 0x169B JUMP JUMPDEST SWAP9 POP POP PUSH1 0x20 DUP10 ADD CALLDATALOAD PUSH8 0xFFFFFFFFFFFFFFFF DUP2 GT ISZERO PUSH2 0x1A23 JUMPI PUSH2 0x1A22 PUSH2 0x164D JUMP JUMPDEST JUMPDEST PUSH2 0x1A2F DUP12 DUP3 DUP13 ADD PUSH2 0x19A5 JUMP JUMPDEST SWAP8 POP POP PUSH1 0x40 DUP10 ADD CALLDATALOAD PUSH8 0xFFFFFFFFFFFFFFFF DUP2 GT ISZERO PUSH2 0x1A50 JUMPI PUSH2 0x1A4F PUSH2 0x164D JUMP JUMPDEST JUMPDEST PUSH2 0x1A5C DUP12 DUP3 DUP13 ADD PUSH2 0x19A5 JUMP JUMPDEST SWAP7 POP POP PUSH1 0x60 DUP10 ADD CALLDATALOAD PUSH8 0xFFFFFFFFFFFFFFFF DUP2 GT ISZERO PUSH2 0x1A7D JUMPI PUSH2 0x1A7C PUSH2 0x164D JUMP JUMPDEST JUMPDEST PUSH2 0x1A89 DUP12 DUP3 DUP13 ADD PUSH2 0x19A5 JUMP JUMPDEST SWAP6 POP POP PUSH1 0x80 DUP10 ADD CALLDATALOAD PUSH8 0xFFFFFFFFFFFFFFFF DUP2 GT ISZERO PUSH2 0x1AAA JUMPI PUSH2 0x1AA9 PUSH2 0x164D JUMP JUMPDEST JUMPDEST PUSH2 0x1AB6 DUP12 DUP3 DUP13 ADD PUSH2 0x19A5 JUMP JUMPDEST SWAP5 POP POP PUSH1 0xA0 DUP10 ADD CALLDATALOAD PUSH8 0xFFFFFFFFFFFFFFFF DUP2 GT ISZERO PUSH2 0x1AD7 JUMPI PUSH2 0x1AD6 PUSH2 0x164D JUMP JUMPDEST JUMPDEST PUSH2 0x1AE3 DUP12 DUP3 DUP13 ADD PUSH2 0x19A5 JUMP JUMPDEST SWAP4 POP POP PUSH1 0xC0 DUP10 ADD CALLDATALOAD PUSH8 0xFFFFFFFFFFFFFFFF DUP2 GT ISZERO PUSH2 0x1B04 JUMPI PUSH2 0x1B03 PUSH2 0x164D JUMP JUMPDEST JUMPDEST PUSH2 0x1B10 DUP12 DUP3 DUP13 ADD PUSH2 0x19A5 JUMP JUMPDEST SWAP3 POP POP PUSH1 0xE0 DUP10 ADD CALLDATALOAD PUSH8 0xFFFFFFFFFFFFFFFF DUP2 GT ISZERO PUSH2 0x1B31 JUMPI PUSH2 0x1B30 PUSH2 0x164D JUMP JUMPDEST JUMPDEST PUSH2 0x1B3D DUP12 DUP3 DUP13 ADD PUSH2 0x19A5 JUMP JUMPDEST SWAP2 POP POP SWAP3 SWAP6 SWAP9 POP SWAP3 SWAP6 SWAP9 SWAP1 SWAP4 SWAP7 POP JUMP JUMPDEST PUSH1 0x0 DUP2 SWAP1 POP SWAP2 SWAP1 POP JUMP JUMPDEST PUSH1 0x0 PUSH2 0x1B72 PUSH2 0x1B6D PUSH2 0x1B68 DUP5 PUSH2 0x1652 JUMP JUMPDEST PUSH2 0x1B4D JUMP JUMPDEST PUSH2 0x1652 JUMP JUMPDEST SWAP1 POP SWAP2 SWAP1 POP JUMP JUMPDEST PUSH1 0x0 PUSH2 0x1B84 DUP3 PUSH2 0x1B57 JUMP JUMPDEST SWAP1 POP SWAP2 SWAP1 POP JUMP JUMPDEST PUSH1 0x0 PUSH2 0x1B96 DUP3 PUSH2 0x1B79 JUMP JUMPDEST SWAP1 POP SWAP2 SWAP1 POP JUMP JUMPDEST PUSH2 0x1BA6 DUP2 PUSH2 0x1B8B JUMP JUMPDEST DUP3 MSTORE POP POP JUMP JUMPDEST PUSH1 0x0 PUSH1 0x20 DUP3 ADD SWAP1 POP PUSH2 0x1BC1 PUSH1 0x0 DUP4 ADD DUP5 PUSH2 0x1B9D JUMP JUMPDEST SWAP3 SWAP2 POP POP JUMP JUMPDEST PUSH1 0x0 PUSH1 0x20 DUP3 DUP5 SUB SLT ISZERO PUSH2 0x1BDD JUMPI PUSH2 0x1BDC PUSH2 0x1648 JUMP JUMPDEST JUMPDEST PUSH1 0x0 PUSH2 0x1BEB DUP5 DUP3 DUP6 ADD PUSH2 0x16D1 JUMP JUMPDEST SWAP2 POP POP SWAP3 SWAP2 POP POP JUMP JUMPDEST PUSH1 0x0 PUSH1 0x20 DUP3 ADD SWAP1 POP PUSH2 0x1C09 PUSH1 0x0 DUP4 ADD DUP5 PUSH2 0x17B6 JUMP JUMPDEST SWAP3 SWAP2 POP POP JUMP JUMPDEST PUSH1 0x0 DUP2 MLOAD SWAP1 POP SWAP2 SWAP1 POP JUMP JUMPDEST PUSH1 0x0 DUP3 DUP3 MSTORE PUSH1 0x20 DUP3 ADD SWAP1 POP SWAP3 SWAP2 POP POP JUMP JUMPDEST PUSH1 0x0 DUP2 SWAP1 POP PUSH1 0x20 DUP3 ADD SWAP1 POP SWAP2 SWAP1 POP JUMP JUMPDEST PUSH1 0x0 DUP3 DUP3 MSTORE PUSH1 0x20 DUP3 ADD SWAP1 POP SWAP3 SWAP2 POP POP JUMP JUMPDEST PUSH1 0x0 PUSH2 0x1C57 DUP3 PUSH2 0x1726 JUMP JUMPDEST PUSH2 0x1C61 DUP2 DUP6 PUSH2 0x1C3B JUMP JUMPDEST SWAP4 POP PUSH2 0x1C71 DUP2 DUP6 PUSH1 0x20 DUP7 ADD PUSH2 0x1742 JUMP JUMPDEST PUSH2 0x1C7A DUP2 PUSH2 0x176C JUMP JUMPDEST DUP5 ADD SWAP2 POP POP SWAP3 SWAP2 POP POP JUMP JUMPDEST PUSH2 0x1C8E DUP2 PUSH2 0x1672 JUMP JUMPDEST DUP3 MSTORE POP POP JUMP JUMPDEST PUSH1 0x0 PUSH2 0x100 DUP4 ADD PUSH1 0x0 DUP4 ADD MLOAD DUP5 DUP3 SUB PUSH1 0x0 DUP7 ADD MSTORE PUSH2 0x1CB2 DUP3 DUP3 PUSH2 0x1C4C JUMP JUMPDEST SWAP2 POP POP PUSH1 0x20 DUP4 ADD MLOAD DUP5 DUP3 SUB PUSH1 0x20 DUP7 ADD MSTORE PUSH2 0x1CCC DUP3 DUP3 PUSH2 0x1C4C JUMP JUMPDEST SWAP2 POP POP PUSH1 0x40 DUP4 ADD MLOAD DUP5 DUP3 SUB PUSH1 0x40 DUP7 ADD MSTORE PUSH2 0x1CE6 DUP3 DUP3 PUSH2 0x1C4C JUMP JUMPDEST SWAP2 POP POP PUSH1 0x60 DUP4 ADD MLOAD DUP5 DUP3 SUB PUSH1 0x60 DUP7 ADD MSTORE PUSH2 0x1D00 DUP3 DUP3 PUSH2 0x1C4C JUMP JUMPDEST SWAP2 POP POP PUSH1 0x80 DUP4 ADD MLOAD DUP5 DUP3 SUB PUSH1 0x80 DUP7 ADD MSTORE PUSH2 0x1D1A DUP3 DUP3 PUSH2 0x1C4C JUMP JUMPDEST SWAP2 POP POP PUSH1 0xA0 DUP4 ADD MLOAD DUP5 DUP3 SUB PUSH1 0xA0 DUP7 ADD MSTORE PUSH2 0x1D34 DUP3 DUP3 PUSH2 0x1C4C JUMP JUMPDEST SWAP2 POP POP PUSH1 0xC0 DUP4 ADD MLOAD DUP5 DUP3 SUB PUSH1 0xC0 DUP7 ADD MSTORE PUSH2 0x1D4E DUP3 DUP3 PUSH2 0x1C4C JUMP JUMPDEST SWAP2 POP POP PUSH1 0xE0 DUP4 ADD MLOAD PUSH2 0x1D63 PUSH1 0xE0 DUP7 ADD DUP3 PUSH2 0x1C85 JUMP JUMPDEST POP DUP1 SWAP2 POP POP SWAP3 SWAP2 POP POP JUMP JUMPDEST PUSH1 0x0 PUSH2 0x1D7A DUP4 DUP4 PUSH2 0x1C94 JUMP JUMPDEST SWAP1 POP SWAP3 SWAP2 POP POP JUMP JUMPDEST PUSH1 0x0 PUSH1 0x20 DUP3 ADD SWAP1 POP SWAP2 SWAP1 POP JUMP JUMPDEST PUSH1 0x0 PUSH2 0x1D9A DUP3 PUSH2 0x1C0F JUMP JUMPDEST PUSH2 0x1DA4 DUP2 DUP6 PUSH2 0x1C1A JUMP JUMPDEST SWAP4 POP DUP4 PUSH1 0x20 DUP3 MUL DUP6 ADD PUSH2 0x1DB6 DUP6 PUSH2 0x1C2B JUMP JUMPDEST DUP1 PUSH1 0x0 JUMPDEST DUP6 DUP2 LT ISZERO PUSH2 0x1DF2 JUMPI DUP5 DUP5 SUB DUP10 MSTORE DUP2 MLOAD PUSH2 0x1DD3 DUP6 DUP3 PUSH2 0x1D6E JUMP JUMPDEST SWAP5 POP PUSH2 0x1DDE DUP4 PUSH2 0x1D82 JUMP JUMPDEST SWAP3 POP PUSH1 0x20 DUP11 ADD SWAP10 POP POP PUSH1 0x1 DUP2 ADD SWAP1 POP PUSH2 0x1DBA JUMP JUMPDEST POP DUP3 SWAP8 POP DUP8 SWAP6 POP POP POP POP POP POP SWAP3 SWAP2 POP POP JUMP JUMPDEST PUSH1 0x0 PUSH1 0x20 DUP3 ADD SWAP1 POP DUP2 DUP2 SUB PUSH1 0x0 DUP4 ADD MSTORE PUSH2 0x1E1E DUP2 DUP5 PUSH2 0x1D8F JUMP JUMPDEST SWAP1 POP SWAP3 SWAP2 POP POP JUMP JUMPDEST PUSH32 0x4E487B7100000000000000000000000000000000000000000000000000000000 PUSH1 0x0 MSTORE PUSH1 0x22 PUSH1 0x4 MSTORE PUSH1 0x24 PUSH1 0x0 REVERT JUMPDEST PUSH1 0x0 PUSH1 0x2 DUP3 DIV SWAP1 POP PUSH1 0x1 DUP3 AND DUP1 PUSH2 0x1E6D JUMPI PUSH1 0x7F DUP3 AND SWAP2 POP JUMPDEST PUSH1 0x20 DUP3 LT DUP2 SUB PUSH2 0x1E80 JUMPI PUSH2 0x1E7F PUSH2 0x1E26 JUMP JUMPDEST JUMPDEST POP SWAP2 SWAP1 POP JUMP JUMPDEST PUSH1 0x0 DUP2 SWAP1 POP DUP2 PUSH1 0x0 MSTORE PUSH1 0x20 PUSH1 0x0 KECCAK256 SWAP1 POP SWAP2 SWAP1 POP JUMP JUMPDEST PUSH1 0x0 PUSH1 0x20 PUSH1 0x1F DUP4 ADD DIV SWAP1 POP SWAP2 SWAP1 POP JUMP JUMPDEST PUSH1 0x0 DUP3 DUP3 SHL SWAP1 POP SWAP3 SWAP2 POP POP JUMP JUMPDEST PUSH1 0x0 PUSH1 0x8 DUP4 MUL PUSH2 0x1EE8 PUSH32 0xFFFFFFFFFFFFFFFFFFFFFFFFFFFFFFFFFFFFFFFFFFFFFFFFFFFFFFFFFFFFFFFF DUP3 PUSH2 0x1EAB JUMP JUMPDEST PUSH2 0x1EF2 DUP7 DUP4 PUSH2 0x1EAB JUMP JUMPDEST SWAP6 POP DUP1 NOT DUP5 AND SWAP4 POP DUP1 DUP7 AND DUP5 OR SWAP3 POP POP POP SWAP4 SWAP3 POP POP POP JUMP JUMPDEST PUSH1 0x0 PUSH2 0x1F25 PUSH2 0x1F20 PUSH2 0x1F1B DUP5 PUSH2 0x16B0 JUMP JUMPDEST PUSH2 0x1B4D JUMP JUMPDEST PUSH2 0x16B0 JUMP JUMPDEST SWAP1 POP SWAP2 SWAP1 POP JUMP JUMPDEST PUSH1 0x0 DUP2 SWAP1 POP SWAP2 SWAP1 POP JUMP JUMPDEST PUSH2 0x1F3F DUP4 PUSH2 0x1F0A JUMP JUMPDEST PUSH2 0x1F53 PUSH2 0x1F4B DUP3 PUSH2 0x1F2C JUMP JUMPDEST DUP5 DUP5 SLOAD PUSH2 0x1EB8 JUMP JUMPDEST DUP3 SSTORE POP POP POP POP JUMP JUMPDEST PUSH1 0x0 SWAP1 JUMP JUMPDEST PUSH2 0x1F68 PUSH2 0x1F5B JUMP JUMPDEST PUSH2 0x1F73 DUP2 DUP5 DUP5 PUSH2 0x1F36 JUMP JUMPDEST POP POP POP JUMP JUMPDEST JUMPDEST DUP2 DUP2 LT ISZERO PUSH2 0x1F97 JUMPI PUSH2 0x1F8C PUSH1 0x0 DUP3 PUSH2 0x1F60 JUMP JUMPDEST PUSH1 0x1 DUP2 ADD SWAP1 POP PUSH2 0x1F79 JUMP JUMPDEST POP POP JUMP JUMPDEST PUSH1 0x1F DUP3 GT ISZERO PUSH2 0x1FDC JUMPI PUSH2 0x1FAD DUP2 PUSH2 0x1E86 JUMP JUMPDEST PUSH2 0x1FB6 DUP5 PUSH2 0x1E9B JUMP JUMPDEST DUP2 ADD PUSH1 0x20 DUP6 LT ISZERO PUSH2 0x1FC5 JUMPI DUP2 SWAP1 POP JUMPDEST PUSH2 0x1FD9 PUSH2 0x1FD1 DUP6 PUSH2 0x1E9B JUMP JUMPDEST DUP4 ADD DUP3 PUSH2 0x1F78 JUMP JUMPDEST POP POP JUMPDEST POP POP POP JUMP JUMPDEST PUSH1 0x0 DUP3 DUP3 SHR SWAP1 POP SWAP3 SWAP2 POP POP JUMP JUMPDEST PUSH1 0x0 PUSH2 0x1FFF PUSH1 0x0 NOT DUP5 PUSH1 0x8 MUL PUSH2 0x1FE1 JUMP JUMPDEST NOT DUP1 DUP4 AND SWAP2 POP POP SWAP3 SWAP2 POP POP JUMP JUMPDEST PUSH1 0x0 PUSH2 0x2018 DUP4 DUP4 PUSH2 0x1FEE JUMP JUMPDEST SWAP2 POP DUP3 PUSH1 0x2 MUL DUP3 OR SWAP1 POP SWAP3 SWAP2 POP POP JUMP JUMPDEST PUSH2 0x2031 DUP3 PUSH2 0x1726 JUMP JUMPDEST PUSH8 0xFFFFFFFFFFFFFFFF DUP2 GT ISZERO PUSH2 0x204A JUMPI PUSH2 0x2049 PUSH2 0x18A8 JUMP JUMPDEST JUMPDEST PUSH2 0x2054 DUP3 SLOAD PUSH2 0x1E55 JUMP JUMPDEST PUSH2 0x205F DUP3 DUP3 DUP6 PUSH2 0x1F9B JUMP JUMPDEST PUSH1 0x0 PUSH1 0x20 SWAP1 POP PUSH1 0x1F DUP4 GT PUSH1 0x1 DUP2 EQ PUSH2 0x2092 JUMPI PUSH1 0x0 DUP5 ISZERO PUSH2 0x2080 JUMPI DUP3 DUP8 ADD MLOAD SWAP1 POP JUMPDEST PUSH2 0x208A DUP6 DUP3 PUSH2 0x200C JUMP JUMPDEST DUP7 SSTORE POP PUSH2 0x20F2 JUMP JUMPDEST PUSH1 0x1F NOT DUP5 AND PUSH2 0x20A0 DUP7 PUSH2 0x1E86 JUMP JUMPDEST PUSH1 0x0 JUMPDEST DUP3 DUP2 LT ISZERO PUSH2 0x20C8 JUMPI DUP5 DUP10 ADD MLOAD DUP3 SSTORE PUSH1 0x1 DUP3 ADD SWAP2 POP PUSH1 0x20 DUP6 ADD SWAP5 POP PUSH1 0x20 DUP2 ADD SWAP1 POP PUSH2 0x20A3 JUMP JUMPDEST DUP7 DUP4 LT ISZERO PUSH2 0x20E5 JUMPI DUP5 DUP10 ADD MLOAD PUSH2 0x20E1 PUSH1 0x1F DUP10 AND DUP3 PUSH2 0x1FEE JUMP JUMPDEST DUP4 SSTORE POP JUMPDEST PUSH1 0x1 PUSH1 0x2 DUP9 MUL ADD DUP9 SSTORE POP POP POP JUMPDEST POP POP POP POP POP POP JUMP JUMPDEST PUSH32 0x4E487B7100000000000000000000000000000000000000000000000000000000 PUSH1 0x0 MSTORE PUSH1 0x11 PUSH1 0x4 MSTORE PUSH1 0x24 PUSH1 0x0 REVERT JUMPDEST PUSH1 0x0 PUSH2 0x2134 DUP3 PUSH2 0x16B0 JUMP JUMPDEST SWAP2 POP PUSH32 0xFFFFFFFFFFFFFFFFFFFFFFFFFFFFFFFFFFFFFFFFFFFFFFFFFFFFFFFFFFFFFFFF DUP3 SUB PUSH2 0x2166 JUMPI PUSH2 0x2165 PUSH2 0x20FA JUMP JUMPDEST JUMPDEST PUSH1 0x1 DUP3 ADD SWAP1 POP SWAP2 SWAP1 POP JUMP JUMPDEST PUSH1 0x0 DUP2 ISZERO ISZERO SWAP1 POP SWAP2 SWAP1 POP JUMP JUMPDEST PUSH2 0x2186 DUP2 PUSH2 0x2171 JUMP JUMPDEST DUP2 EQ PUSH2 0x2191 JUMPI PUSH1 0x0 DUP1 REVERT JUMPDEST POP JUMP JUMPDEST PUSH1 0x0 DUP2 MLOAD SWAP1 POP PUSH2 0x21A3 DUP2 PUSH2 0x217D JUMP JUMPDEST SWAP3 SWAP2 POP POP JUMP JUMPDEST PUSH1 0x0 PUSH1 0x20 DUP3 DUP5 SUB SLT ISZERO PUSH2 0x21BF JUMPI PUSH2 0x21BE PUSH2 0x1648 JUMP JUMPDEST JUMPDEST PUSH1 0x0 PUSH2 0x21CD DUP5 DUP3 DUP6 ADD PUSH2 0x2194 JUMP JUMPDEST SWAP2 POP POP SWAP3 SWAP2 POP POP JUMP JUMPDEST PUSH32 0x48616E79612061646D696E206174617520646F6B7465722079616E6720646969 PUSH1 0x0 DUP3 ADD MSTORE PUSH32 0x7A696E6B616E20756E74756B206D656E67616B7365732E000000000000000000 PUSH1 0x20 DUP3 ADD MSTORE POP JUMP JUMPDEST PUSH1 0x0 PUSH2 0x2232 PUSH1 0x37 DUP4 PUSH2 0x1731 JUMP JUMPDEST SWAP2 POP PUSH2 0x223D DUP3 PUSH2 0x21D6 JUMP JUMPDEST PUSH1 0x40 DUP3 ADD SWAP1 POP SWAP2 SWAP1 POP JUMP JUMPDEST PUSH1 0x0 PUSH1 0x20 DUP3 ADD SWAP1 POP DUP2 DUP2 SUB PUSH1 0x0 DUP4 ADD MSTORE PUSH2 0x2261 DUP2 PUSH2 0x2225 JUMP JUMPDEST SWAP1 POP SWAP2 SWAP1 POP JUMP JUMPDEST PUSH1 0x0 PUSH2 0x2273 DUP3 PUSH2 0x16B0 JUMP JUMPDEST SWAP2 POP PUSH2 0x227E DUP4 PUSH2 0x16B0 JUMP JUMPDEST SWAP3 POP DUP3 DUP3 MUL PUSH2 0x228C DUP2 PUSH2 0x16B0 JUMP JUMPDEST SWAP2 POP DUP3 DUP3 DIV DUP5 EQ DUP4 ISZERO OR PUSH2 0x22A3 JUMPI PUSH2 0x22A2 PUSH2 0x20FA JUMP JUMPDEST JUMPDEST POP SWAP3 SWAP2 POP POP JUMP JUMPDEST PUSH32 0x4E487B7100000000000000000000000000000000000000000000000000000000 PUSH1 0x0 MSTORE PUSH1 0x32 PUSH1 0x4 MSTORE PUSH1 0x24 PUSH1 0x0 REVERT JUMPDEST PUSH32 0x48616E79612070617369656E2079616E67206469697A696E6B616E20756E7475 PUSH1 0x0 DUP3 ADD MSTORE PUSH32 0x6B206D656E67616B736573000000000000000000000000000000000000000000 PUSH1 0x20 DUP3 ADD MSTORE POP JUMP JUMPDEST PUSH1 0x0 PUSH2 0x2335 PUSH1 0x2B DUP4 PUSH2 0x1731 JUMP JUMPDEST SWAP2 POP PUSH2 0x2340 DUP3 PUSH2 0x22D9 JUMP JUMPDEST PUSH1 0x40 DUP3 ADD SWAP1 POP SWAP2 SWAP1 POP JUMP JUMPDEST PUSH1 0x0 PUSH1 0x20 DUP3 ADD SWAP1 POP DUP2 DUP2 SUB PUSH1 0x0 DUP4 ADD MSTORE PUSH2 0x2364 DUP2 PUSH2 0x2328 JUMP JUMPDEST SWAP1 POP SWAP2 SWAP1 POP JUMP INVALID LOG2 PUSH5 0x6970667358 0x22 SLT KECCAK256 0x1E 0xAC 0xFC EXP 0x27 0xB3 CALLVALUE 0x5D SWAP3 SHR 0x4B 0xCD SLOAD SELFDESTRUCT SWAP2 0xE4 NUMBER NOT DUP10 PUSH7 0x413E3F3B0A96D7 0xC9 DUP3 0xC4 SLOAD 0x5C PUSH5 0x736F6C6343 STOP ADDMOD GT STOP CALLER "
				},
				"gasEstimates": {
					"creation": {
						"codeDepositCost": "1824200",
						"executionCost": "infinite",
						"totalCost": "infinite"
					},
					"external": {
						"accountsWithRegistrations(uint256)": "4978",
						"addRegistration(address,string,string,string,string,string,string,string)": "infinite",
						"getAllRegistrations(uint256)": "infinite",
						"getRegistrationEvidence()": "infinite",
						"registrationCount()": "2452",
						"registrations(address,uint256)": "infinite",
						"roles()": "infinite"
					}
				},
				"methodIdentifiers": {
					"accountsWithRegistrations(uint256)": "46b5bef1",
					"addRegistration(address,string,string,string,string,string,string,string)": "337c9ba6",
					"getAllRegistrations(uint256)": "ad49d821",
					"getRegistrationEvidence()": "c996b7cc",
					"registrationCount()": "0d3eafd6",
					"registrations(address,uint256)": "09052679",
					"roles()": "392f5f64"
				}
			},
			"storageLayout": {
				"storage": [
					{
						"astId": 5,
						"contract": "contracts/registrasi.sol:ConsultationRegist",
						"label": "roles",
						"offset": 0,
						"slot": "0",
						"type": "t_contract(UserRoles)412"
					},
					{
						"astId": 28,
						"contract": "contracts/registrasi.sol:ConsultationRegist",
						"label": "registrations",
						"offset": 0,
						"slot": "1",
						"type": "t_mapping(t_address,t_array(t_struct(Data)22_storage)dyn_storage)"
					},
					{
						"astId": 31,
						"contract": "contracts/registrasi.sol:ConsultationRegist",
						"label": "accountsWithRegistrations",
						"offset": 0,
						"slot": "2",
						"type": "t_array(t_address)dyn_storage"
					},
					{
						"astId": 33,
						"contract": "contracts/registrasi.sol:ConsultationRegist",
						"label": "registrationCount",
						"offset": 0,
						"slot": "3",
						"type": "t_uint256"
					}
				],
				"types": {
					"t_address": {
						"encoding": "inplace",
						"label": "address",
						"numberOfBytes": "20"
					},
					"t_array(t_address)dyn_storage": {
						"base": "t_address",
						"encoding": "dynamic_array",
						"label": "address[]",
						"numberOfBytes": "32"
					},
					"t_array(t_struct(Data)22_storage)dyn_storage": {
						"base": "t_struct(Data)22_storage",
						"encoding": "dynamic_array",
						"label": "struct ConsultationRegist.Data[]",
						"numberOfBytes": "32"
					},
					"t_contract(UserRoles)412": {
						"encoding": "inplace",
						"label": "contract UserRoles",
						"numberOfBytes": "20"
					},
					"t_mapping(t_address,t_array(t_struct(Data)22_storage)dyn_storage)": {
						"encoding": "mapping",
						"key": "t_address",
						"label": "mapping(address => struct ConsultationRegist.Data[])",
						"numberOfBytes": "32",
						"value": "t_array(t_struct(Data)22_storage)dyn_storage"
					},
					"t_string_storage": {
						"encoding": "bytes",
						"label": "string",
						"numberOfBytes": "32"
					},
					"t_struct(Data)22_storage": {
						"encoding": "inplace",
						"label": "struct ConsultationRegist.Data",
						"members": [
							{
								"astId": 7,
								"contract": "contracts/registrasi.sol:ConsultationRegist",
								"label": "nama",
								"offset": 0,
								"slot": "0",
								"type": "t_string_storage"
							},
							{
								"astId": 9,
								"contract": "contracts/registrasi.sol:ConsultationRegist",
								"label": "telepon",
								"offset": 0,
								"slot": "1",
								"type": "t_string_storage"
							},
							{
								"astId": 11,
								"contract": "contracts/registrasi.sol:ConsultationRegist",
								"label": "namaDokter",
								"offset": 0,
								"slot": "2",
								"type": "t_string_storage"
							},
							{
								"astId": 13,
								"contract": "contracts/registrasi.sol:ConsultationRegist",
								"label": "sesi",
								"offset": 0,
								"slot": "3",
								"type": "t_string_storage"
							},
							{
								"astId": 15,
								"contract": "contracts/registrasi.sol:ConsultationRegist",
								"label": "tanggal",
								"offset": 0,
								"slot": "4",
								"type": "t_string_storage"
							},
							{
								"astId": 17,
								"contract": "contracts/registrasi.sol:ConsultationRegist",
								"label": "keluhan",
								"offset": 0,
								"slot": "5",
								"type": "t_string_storage"
							},
							{
								"astId": 19,
								"contract": "contracts/registrasi.sol:ConsultationRegist",
								"label": "gender",
								"offset": 0,
								"slot": "6",
								"type": "t_string_storage"
							},
							{
								"astId": 21,
								"contract": "contracts/registrasi.sol:ConsultationRegist",
								"label": "wallet",
								"offset": 0,
								"slot": "7",
								"type": "t_address"
							}
						],
						"numberOfBytes": "256"
					},
					"t_uint256": {
						"encoding": "inplace",
						"label": "uint256",
						"numberOfBytes": "32"
					}
				}
			},
			"userdoc": {
				"kind": "user",
				"methods": {},
				"version": 1
			}
		}
	}
}