{
	"contracts/registrasi.sol": {
		"ConsultationRegist": {
			"abi": [
				{
					"inputs": [
						{
							"internalType": "uint256",
							"name": "",
							"type": "uint256"
						}
					],
					"name": "accountsWithRegistrations",
					"outputs": [
						{
							"internalType": "address",
							"name": "",
							"type": "address"
						}
					],
					"stateMutability": "view",
					"type": "function"
				},
				{
					"inputs": [
						{
							"internalType": "address",
							"name": "_wallet",
							"type": "address"
						},
						{
							"internalType": "string",
							"name": "_nama",
							"type": "string"
						},
						{
							"internalType": "string",
							"name": "_telepon",
							"type": "string"
						},
						{
							"internalType": "string",
							"name": "_namaDokter",
							"type": "string"
						},
						{
							"internalType": "string",
							"name": "_sesi",
							"type": "string"
						},
						{
							"internalType": "string",
							"name": "_tanggal",
							"type": "string"
						},
						{
							"internalType": "string",
							"name": "_keluhan",
							"type": "string"
						},
						{
							"internalType": "string",
							"name": "_gender",
							"type": "string"
						}
					],
					"name": "addRegistration",
					"outputs": [],
					"stateMutability": "nonpayable",
					"type": "function"
				},
				{
					"inputs": [
						{
							"internalType": "uint256",
							"name": "offset",
							"type": "uint256"
						}
					],
					"name": "getAllRegistrations",
					"outputs": [
						{
							"components": [
								{
									"internalType": "string",
									"name": "nama",
									"type": "string"
								},
								{
									"internalType": "string",
									"name": "telepon",
									"type": "string"
								},
								{
									"internalType": "string",
									"name": "namaDokter",
									"type": "string"
								},
								{
									"internalType": "string",
									"name": "sesi",
									"type": "string"
								},
								{
									"internalType": "string",
									"name": "tanggal",
									"type": "string"
								},
								{
									"internalType": "string",
									"name": "keluhan",
									"type": "string"
								},
								{
									"internalType": "string",
									"name": "gender",
									"type": "string"
								},
								{
									"internalType": "address",
									"name": "wallet",
									"type": "address"
								}
							],
							"internalType": "struct ConsultationRegist.Data[]",
							"name": "",
							"type": "tuple[]"
						}
					],
					"stateMutability": "view",
					"type": "function"
				},
				{
					"inputs": [],
					"name": "getRegistrationEvidence",
					"outputs": [
						{
							"components": [
								{
									"internalType": "string",
									"name": "nama",
									"type": "string"
								},
								{
									"internalType": "string",
									"name": "telepon",
									"type": "string"
								},
								{
									"internalType": "string",
									"name": "namaDokter",
									"type": "string"
								},
								{
									"internalType": "string",
									"name": "sesi",
									"type": "string"
								},
								{
									"internalType": "string",
									"name": "tanggal",
									"type": "string"
								},
								{
									"internalType": "string",
									"name": "keluhan",
									"type": "string"
								},
								{
									"internalType": "string",
									"name": "gender",
									"type": "string"
								},
								{
									"internalType": "address",
									"name": "wallet",
									"type": "address"
								}
							],
							"internalType": "struct ConsultationRegist.Data[]",
							"name": "",
							"type": "tuple[]"
						}
					],
					"stateMutability": "view",
					"type": "function"
				},
				{
					"inputs": [],
					"name": "registrationCount",
					"outputs": [
						{
							"internalType": "uint256",
							"name": "",
							"type": "uint256"
						}
					],
					"stateMutability": "view",
					"type": "function"
				},
				{
					"inputs": [
						{
							"internalType": "address",
							"name": "",
							"type": "address"
						},
						{
							"internalType": "uint256",
							"name": "",
							"type": "uint256"
						}
					],
					"name": "registrations",
					"outputs": [
						{
							"internalType": "string",
							"name": "nama",
							"type": "string"
						},
						{
							"internalType": "string",
							"name": "telepon",
							"type": "string"
						},
						{
							"internalType": "string",
							"name": "namaDokter",
							"type": "string"
						},
						{
							"internalType": "string",
							"name": "sesi",
							"type": "string"
						},
						{
							"internalType": "string",
							"name": "tanggal",
							"type": "string"
						},
						{
							"internalType": "string",
							"name": "keluhan",
							"type": "string"
						},
						{
							"internalType": "string",
							"name": "gender",
							"type": "string"
						},
						{
							"internalType": "address",
							"name": "wallet",
							"type": "address"
						}
					],
					"stateMutability": "view",
					"type": "function"
				}
			],
			"devdoc": {
				"kind": "dev",
				"methods": {},
				"version": 1
			},
			"evm": {
				"assembly": "    /* \"contracts/registrasi.sol\":60:1875  contract ConsultationRegist {\r... */\n  mstore(0x40, 0x80)\n  callvalue\n  dup1\n  iszero\n  tag_1\n  jumpi\n  0x00\n  dup1\n  revert\ntag_1:\n  pop\n  dataSize(sub_0)\n  dup1\n  dataOffset(sub_0)\n  0x00\n  codecopy\n  0x00\n  return\nstop\n\nsub_0: assembly {\n        /* \"contracts/registrasi.sol\":60:1875  contract ConsultationRegist {\r... */\n      mstore(0x40, 0x80)\n      callvalue\n      dup1\n      iszero\n      tag_1\n      jumpi\n      0x00\n      dup1\n      revert\n    tag_1:\n      pop\n      jumpi(tag_2, lt(calldatasize, 0x04))\n      shr(0xe0, calldataload(0x00))\n      dup1\n      0x09052679\n      eq\n      tag_3\n      jumpi\n      dup1\n      0x0d3eafd6\n      eq\n      tag_4\n      jumpi\n      dup1\n      0x337c9ba6\n      eq\n      tag_5\n      jumpi\n      dup1\n      0x46b5bef1\n      eq\n      tag_6\n      jumpi\n      dup1\n      0xad49d821\n      eq\n      tag_7\n      jumpi\n      dup1\n      0xc996b7cc\n      eq\n      tag_8\n      jumpi\n    tag_2:\n      0x00\n      dup1\n      revert\n        /* \"contracts/registrasi.sol\":319:366  mapping(address => Data[]) public registrations */\n    tag_3:\n      tag_9\n      0x04\n      dup1\n      calldatasize\n      sub\n      dup2\n      add\n      swap1\n      tag_10\n      swap2\n      swap1\n      tag_11\n      jump\t// in\n    tag_10:\n      tag_12\n      jump\t// in\n    tag_9:\n      mload(0x40)\n      tag_13\n      swap9\n      swap8\n      swap7\n      swap6\n      swap5\n      swap4\n      swap3\n      swap2\n      swap1\n      tag_14\n      jump\t// in\n    tag_13:\n      mload(0x40)\n      dup1\n      swap2\n      sub\n      swap1\n      return\n        /* \"contracts/registrasi.sol\":422:451  uint public registrationCount */\n    tag_4:\n      tag_15\n      tag_16\n      jump\t// in\n    tag_15:\n      mload(0x40)\n      tag_17\n      swap2\n      swap1\n      tag_18\n      jump\t// in\n    tag_17:\n      mload(0x40)\n      dup1\n      swap2\n      sub\n      swap1\n      return\n        /* \"contracts/registrasi.sol\":500:1000  function addRegistration(\r... */\n    tag_5:\n      tag_19\n      0x04\n      dup1\n      calldatasize\n      sub\n      dup2\n      add\n      swap1\n      tag_20\n      swap2\n      swap1\n      tag_21\n      jump\t// in\n    tag_20:\n      tag_22\n      jump\t// in\n    tag_19:\n      stop\n        /* \"contracts/registrasi.sol\":373:415  address[] public accountsWithRegistrations */\n    tag_6:\n      tag_23\n      0x04\n      dup1\n      calldatasize\n      sub\n      dup2\n      add\n      swap1\n      tag_24\n      swap2\n      swap1\n      tag_25\n      jump\t// in\n    tag_24:\n      tag_26\n      jump\t// in\n    tag_23:\n      mload(0x40)\n      tag_27\n      swap2\n      swap1\n      tag_28\n      jump\t// in\n    tag_27:\n      mload(0x40)\n      dup1\n      swap2\n      sub\n      swap1\n      return\n        /* \"contracts/registrasi.sol\":1229:1872  function getAllRegistrations(uint offset) public view returns (Data[] memory) {\r... */\n    tag_7:\n      tag_29\n      0x04\n      dup1\n      calldatasize\n      sub\n      dup2\n      add\n      swap1\n      tag_30\n      swap2\n      swap1\n      tag_25\n      jump\t// in\n    tag_30:\n      tag_31\n      jump\t// in\n    tag_29:\n      mload(0x40)\n      tag_32\n      swap2\n      swap1\n      tag_33\n      jump\t// in\n    tag_32:\n      mload(0x40)\n      dup1\n      swap2\n      sub\n      swap1\n      return\n        /* \"contracts/registrasi.sol\":1049:1171  function getRegistrationEvidence() public view returns (Data[] memory) {\r... */\n    tag_8:\n      tag_34\n      tag_35\n      jump\t// in\n    tag_34:\n      mload(0x40)\n      tag_36\n      swap2\n      swap1\n      tag_33\n      jump\t// in\n    tag_36:\n      mload(0x40)\n      dup1\n      swap2\n      sub\n      swap1\n      return\n        /* \"contracts/registrasi.sol\":319:366  mapping(address => Data[]) public registrations */\n    tag_12:\n      mstore(0x20, 0x00)\n      dup2\n      0x00\n      mstore\n      keccak256(0x00, 0x40)\n      dup2\n      dup2\n      sload\n      dup2\n      lt\n      tag_37\n      jumpi\n      0x00\n      dup1\n      revert\n    tag_37:\n      swap1\n      0x00\n      mstore\n      keccak256(0x00, 0x20)\n      swap1\n      0x08\n      mul\n      add\n      0x00\n      swap2\n      pop\n      swap2\n      pop\n      pop\n      dup1\n      0x00\n      add\n      dup1\n      sload\n      tag_39\n      swap1\n      tag_40\n      jump\t// in\n    tag_39:\n      dup1\n      0x1f\n      add\n      0x20\n      dup1\n      swap2\n      div\n      mul\n      0x20\n      add\n      mload(0x40)\n      swap1\n      dup2\n      add\n      0x40\n      mstore\n      dup1\n      swap3\n      swap2\n      swap1\n      dup2\n      dup2\n      mstore\n      0x20\n      add\n      dup3\n      dup1\n      sload\n      tag_41\n      swap1\n      tag_40\n      jump\t// in\n    tag_41:\n      dup1\n      iszero\n      tag_42\n      jumpi\n      dup1\n      0x1f\n      lt\n      tag_43\n      jumpi\n      0x0100\n      dup1\n      dup4\n      sload\n      div\n      mul\n      dup4\n      mstore\n      swap2\n      0x20\n      add\n      swap2\n      jump(tag_42)\n    tag_43:\n      dup3\n      add\n      swap2\n      swap1\n      0x00\n      mstore\n      keccak256(0x00, 0x20)\n      swap1\n    tag_44:\n      dup2\n      sload\n      dup2\n      mstore\n      swap1\n      0x01\n      add\n      swap1\n      0x20\n      add\n      dup1\n      dup4\n      gt\n      tag_44\n      jumpi\n      dup3\n      swap1\n      sub\n      0x1f\n      and\n      dup3\n      add\n      swap2\n    tag_42:\n      pop\n      pop\n      pop\n      pop\n      pop\n      swap1\n      dup1\n      0x01\n      add\n      dup1\n      sload\n      tag_45\n      swap1\n      tag_40\n      jump\t// in\n    tag_45:\n      dup1\n      0x1f\n      add\n      0x20\n      dup1\n      swap2\n      div\n      mul\n      0x20\n      add\n      mload(0x40)\n      swap1\n      dup2\n      add\n      0x40\n      mstore\n      dup1\n      swap3\n      swap2\n      swap1\n      dup2\n      dup2\n      mstore\n      0x20\n      add\n      dup3\n      dup1\n      sload\n      tag_46\n      swap1\n      tag_40\n      jump\t// in\n    tag_46:\n      dup1\n      iszero\n      tag_47\n      jumpi\n      dup1\n      0x1f\n      lt\n      tag_48\n      jumpi\n      0x0100\n      dup1\n      dup4\n      sload\n      div\n      mul\n      dup4\n      mstore\n      swap2\n      0x20\n      add\n      swap2\n      jump(tag_47)\n    tag_48:\n      dup3\n      add\n      swap2\n      swap1\n      0x00\n      mstore\n      keccak256(0x00, 0x20)\n      swap1\n    tag_49:\n      dup2\n      sload\n      dup2\n      mstore\n      swap1\n      0x01\n      add\n      swap1\n      0x20\n      add\n      dup1\n      dup4\n      gt\n      tag_49\n      jumpi\n      dup3\n      swap1\n      sub\n      0x1f\n      and\n      dup3\n      add\n      swap2\n    tag_47:\n      pop\n      pop\n      pop\n      pop\n      pop\n      swap1\n      dup1\n      0x02\n      add\n      dup1\n      sload\n      tag_50\n      swap1\n      tag_40\n      jump\t// in\n    tag_50:\n      dup1\n      0x1f\n      add\n      0x20\n      dup1\n      swap2\n      div\n      mul\n      0x20\n      add\n      mload(0x40)\n      swap1\n      dup2\n      add\n      0x40\n      mstore\n      dup1\n      swap3\n      swap2\n      swap1\n      dup2\n      dup2\n      mstore\n      0x20\n      add\n      dup3\n      dup1\n      sload\n      tag_51\n      swap1\n      tag_40\n      jump\t// in\n    tag_51:\n      dup1\n      iszero\n      tag_52\n      jumpi\n      dup1\n      0x1f\n      lt\n      tag_53\n      jumpi\n      0x0100\n      dup1\n      dup4\n      sload\n      div\n      mul\n      dup4\n      mstore\n      swap2\n      0x20\n      add\n      swap2\n      jump(tag_52)\n    tag_53:\n      dup3\n      add\n      swap2\n      swap1\n      0x00\n      mstore\n      keccak256(0x00, 0x20)\n      swap1\n    tag_54:\n      dup2\n      sload\n      dup2\n      mstore\n      swap1\n      0x01\n      add\n      swap1\n      0x20\n      add\n      dup1\n      dup4\n      gt\n      tag_54\n      jumpi\n      dup3\n      swap1\n      sub\n      0x1f\n      and\n      dup3\n      add\n      swap2\n    tag_52:\n      pop\n      pop\n      pop\n      pop\n      pop\n      swap1\n      dup1\n      0x03\n      add\n      dup1\n      sload\n      tag_55\n      swap1\n      tag_40\n      jump\t// in\n    tag_55:\n      dup1\n      0x1f\n      add\n      0x20\n      dup1\n      swap2\n      div\n      mul\n      0x20\n      add\n      mload(0x40)\n      swap1\n      dup2\n      add\n      0x40\n      mstore\n      dup1\n      swap3\n      swap2\n      swap1\n      dup2\n      dup2\n      mstore\n      0x20\n      add\n      dup3\n      dup1\n      sload\n      tag_56\n      swap1\n      tag_40\n      jump\t// in\n    tag_56:\n      dup1\n      iszero\n      tag_57\n      jumpi\n      dup1\n      0x1f\n      lt\n      tag_58\n      jumpi\n      0x0100\n      dup1\n      dup4\n      sload\n      div\n      mul\n      dup4\n      mstore\n      swap2\n      0x20\n      add\n      swap2\n      jump(tag_57)\n    tag_58:\n      dup3\n      add\n      swap2\n      swap1\n      0x00\n      mstore\n      keccak256(0x00, 0x20)\n      swap1\n    tag_59:\n      dup2\n      sload\n      dup2\n      mstore\n      swap1\n      0x01\n      add\n      swap1\n      0x20\n      add\n      dup1\n      dup4\n      gt\n      tag_59\n      jumpi\n      dup3\n      swap1\n      sub\n      0x1f\n      and\n      dup3\n      add\n      swap2\n    tag_57:\n      pop\n      pop\n      pop\n      pop\n      pop\n      swap1\n      dup1\n      0x04\n      add\n      dup1\n      sload\n      tag_60\n      swap1\n      tag_40\n      jump\t// in\n    tag_60:\n      dup1\n      0x1f\n      add\n      0x20\n      dup1\n      swap2\n      div\n      mul\n      0x20\n      add\n      mload(0x40)\n      swap1\n      dup2\n      add\n      0x40\n      mstore\n      dup1\n      swap3\n      swap2\n      swap1\n      dup2\n      dup2\n      mstore\n      0x20\n      add\n      dup3\n      dup1\n      sload\n      tag_61\n      swap1\n      tag_40\n      jump\t// in\n    tag_61:\n      dup1\n      iszero\n      tag_62\n      jumpi\n      dup1\n      0x1f\n      lt\n      tag_63\n      jumpi\n      0x0100\n      dup1\n      dup4\n      sload\n      div\n      mul\n      dup4\n      mstore\n      swap2\n      0x20\n      add\n      swap2\n      jump(tag_62)\n    tag_63:\n      dup3\n      add\n      swap2\n      swap1\n      0x00\n      mstore\n      keccak256(0x00, 0x20)\n      swap1\n    tag_64:\n      dup2\n      sload\n      dup2\n      mstore\n      swap1\n      0x01\n      add\n      swap1\n      0x20\n      add\n      dup1\n      dup4\n      gt\n      tag_64\n      jumpi\n      dup3\n      swap1\n      sub\n      0x1f\n      and\n      dup3\n      add\n      swap2\n    tag_62:\n      pop\n      pop\n      pop\n      pop\n      pop\n      swap1\n      dup1\n      0x05\n      add\n      dup1\n      sload\n      tag_65\n      swap1\n      tag_40\n      jump\t// in\n    tag_65:\n      dup1\n      0x1f\n      add\n      0x20\n      dup1\n      swap2\n      div\n      mul\n      0x20\n      add\n      mload(0x40)\n      swap1\n      dup2\n      add\n      0x40\n      mstore\n      dup1\n      swap3\n      swap2\n      swap1\n      dup2\n      dup2\n      mstore\n      0x20\n      add\n      dup3\n      dup1\n      sload\n      tag_66\n      swap1\n      tag_40\n      jump\t// in\n    tag_66:\n      dup1\n      iszero\n      tag_67\n      jumpi\n      dup1\n      0x1f\n      lt\n      tag_68\n      jumpi\n      0x0100\n      dup1\n      dup4\n      sload\n      div\n      mul\n      dup4\n      mstore\n      swap2\n      0x20\n      add\n      swap2\n      jump(tag_67)\n    tag_68:\n      dup3\n      add\n      swap2\n      swap1\n      0x00\n      mstore\n      keccak256(0x00, 0x20)\n      swap1\n    tag_69:\n      dup2\n      sload\n      dup2\n      mstore\n      swap1\n      0x01\n      add\n      swap1\n      0x20\n      add\n      dup1\n      dup4\n      gt\n      tag_69\n      jumpi\n      dup3\n      swap1\n      sub\n      0x1f\n      and\n      dup3\n      add\n      swap2\n    tag_67:\n      pop\n      pop\n      pop\n      pop\n      pop\n      swap1\n      dup1\n      0x06\n      add\n      dup1\n      sload\n      tag_70\n      swap1\n      tag_40\n      jump\t// in\n    tag_70:\n      dup1\n      0x1f\n      add\n      0x20\n      dup1\n      swap2\n      div\n      mul\n      0x20\n      add\n      mload(0x40)\n      swap1\n      dup2\n      add\n      0x40\n      mstore\n      dup1\n      swap3\n      swap2\n      swap1\n      dup2\n      dup2\n      mstore\n      0x20\n      add\n      dup3\n      dup1\n      sload\n      tag_71\n      swap1\n      tag_40\n      jump\t// in\n    tag_71:\n      dup1\n      iszero\n      tag_72\n      jumpi\n      dup1\n      0x1f\n      lt\n      tag_73\n      jumpi\n      0x0100\n      dup1\n      dup4\n      sload\n      div\n      mul\n      dup4\n      mstore\n      swap2\n      0x20\n      add\n      swap2\n      jump(tag_72)\n    tag_73:\n      dup3\n      add\n      swap2\n      swap1\n      0x00\n      mstore\n      keccak256(0x00, 0x20)\n      swap1\n    tag_74:\n      dup2\n      sload\n      dup2\n      mstore\n      swap1\n      0x01\n      add\n      swap1\n      0x20\n      add\n      dup1\n      dup4\n      gt\n      tag_74\n      jumpi\n      dup3\n      swap1\n      sub\n      0x1f\n      and\n      dup3\n      add\n      swap2\n    tag_72:\n      pop\n      pop\n      pop\n      pop\n      pop\n      swap1\n      dup1\n      0x07\n      add\n      0x00\n      swap1\n      sload\n      swap1\n      0x0100\n      exp\n      swap1\n      div\n      0xffffffffffffffffffffffffffffffffffffffff\n      and\n      swap1\n      pop\n      dup9\n      jump\t// out\n        /* \"contracts/registrasi.sol\":422:451  uint public registrationCount */\n    tag_16:\n      sload(0x02)\n      dup2\n      jump\t// out\n        /* \"contracts/registrasi.sol\":500:1000  function addRegistration(\r... */\n    tag_22:\n        /* \"contracts/registrasi.sol\":804:817  registrations */\n      0x00\n        /* \"contracts/registrasi.sol\":804:826  registrations[_wallet] */\n      dup1\n        /* \"contracts/registrasi.sol\":818:825  _wallet */\n      dup10\n        /* \"contracts/registrasi.sol\":804:826  registrations[_wallet] */\n      0xffffffffffffffffffffffffffffffffffffffff\n      and\n      0xffffffffffffffffffffffffffffffffffffffff\n      and\n      dup2\n      mstore\n      0x20\n      add\n      swap1\n      dup2\n      mstore\n      0x20\n      add\n      0x00\n      keccak256\n        /* \"contracts/registrasi.sol\":832:911  Data(_nama, _telepon, _namaDokter, _sesi, _tanggal, _keluhan, _gender, _wallet) */\n      mload(0x40)\n      dup1\n      0x0100\n      add\n      0x40\n      mstore\n      dup1\n        /* \"contracts/registrasi.sol\":837:842  _nama */\n      dup10\n        /* \"contracts/registrasi.sol\":832:911  Data(_nama, _telepon, _namaDokter, _sesi, _tanggal, _keluhan, _gender, _wallet) */\n      dup2\n      mstore\n      0x20\n      add\n        /* \"contracts/registrasi.sol\":844:852  _telepon */\n      dup9\n        /* \"contracts/registrasi.sol\":832:911  Data(_nama, _telepon, _namaDokter, _sesi, _tanggal, _keluhan, _gender, _wallet) */\n      dup2\n      mstore\n      0x20\n      add\n        /* \"contracts/registrasi.sol\":854:865  _namaDokter */\n      dup8\n        /* \"contracts/registrasi.sol\":832:911  Data(_nama, _telepon, _namaDokter, _sesi, _tanggal, _keluhan, _gender, _wallet) */\n      dup2\n      mstore\n      0x20\n      add\n        /* \"contracts/registrasi.sol\":867:872  _sesi */\n      dup7\n        /* \"contracts/registrasi.sol\":832:911  Data(_nama, _telepon, _namaDokter, _sesi, _tanggal, _keluhan, _gender, _wallet) */\n      dup2\n      mstore\n      0x20\n      add\n        /* \"contracts/registrasi.sol\":874:882  _tanggal */\n      dup6\n        /* \"contracts/registrasi.sol\":832:911  Data(_nama, _telepon, _namaDokter, _sesi, _tanggal, _keluhan, _gender, _wallet) */\n      dup2\n      mstore\n      0x20\n      add\n        /* \"contracts/registrasi.sol\":884:892  _keluhan */\n      dup5\n        /* \"contracts/registrasi.sol\":832:911  Data(_nama, _telepon, _namaDokter, _sesi, _tanggal, _keluhan, _gender, _wallet) */\n      dup2\n      mstore\n      0x20\n      add\n        /* \"contracts/registrasi.sol\":894:901  _gender */\n      dup4\n        /* \"contracts/registrasi.sol\":832:911  Data(_nama, _telepon, _namaDokter, _sesi, _tanggal, _keluhan, _gender, _wallet) */\n      dup2\n      mstore\n      0x20\n      add\n        /* \"contracts/registrasi.sol\":903:910  _wallet */\n      dup11\n        /* \"contracts/registrasi.sol\":832:911  Data(_nama, _telepon, _namaDokter, _sesi, _tanggal, _keluhan, _gender, _wallet) */\n      0xffffffffffffffffffffffffffffffffffffffff\n      and\n      dup2\n      mstore\n      pop\n        /* \"contracts/registrasi.sol\":804:912  registrations[_wallet].push(Data(_nama, _telepon, _namaDokter, _sesi, _tanggal, _keluhan, _gender, _wallet)) */\n      swap1\n      dup1\n      0x01\n      dup2\n      sload\n      add\n      dup1\n      dup3\n      sstore\n      dup1\n      swap2\n      pop\n      pop\n      0x01\n      swap1\n      sub\n      swap1\n      0x00\n      mstore\n      keccak256(0x00, 0x20)\n      swap1\n      0x08\n      mul\n      add\n      0x00\n      swap1\n      swap2\n      swap1\n      swap2\n      swap1\n      swap2\n      pop\n      0x00\n      dup3\n      add\n      mload\n      dup2\n      0x00\n      add\n      swap1\n      dup1\n      mload\n      swap1\n      0x20\n      add\n      swap1\n      tag_77\n      swap3\n      swap2\n      swap1\n      tag_78\n      jump\t// in\n    tag_77:\n      pop\n      0x20\n      dup3\n      add\n      mload\n      dup2\n      0x01\n      add\n      swap1\n      dup1\n      mload\n      swap1\n      0x20\n      add\n      swap1\n      tag_79\n      swap3\n      swap2\n      swap1\n      tag_78\n      jump\t// in\n    tag_79:\n      pop\n      0x40\n      dup3\n      add\n      mload\n      dup2\n      0x02\n      add\n      swap1\n      dup1\n      mload\n      swap1\n      0x20\n      add\n      swap1\n      tag_80\n      swap3\n      swap2\n      swap1\n      tag_78\n      jump\t// in\n    tag_80:\n      pop\n      0x60\n      dup3\n      add\n      mload\n      dup2\n      0x03\n      add\n      swap1\n      dup1\n      mload\n      swap1\n      0x20\n      add\n      swap1\n      tag_81\n      swap3\n      swap2\n      swap1\n      tag_78\n      jump\t// in\n    tag_81:\n      pop\n      0x80\n      dup3\n      add\n      mload\n      dup2\n      0x04\n      add\n      swap1\n      dup1\n      mload\n      swap1\n      0x20\n      add\n      swap1\n      tag_82\n      swap3\n      swap2\n      swap1\n      tag_78\n      jump\t// in\n    tag_82:\n      pop\n      0xa0\n      dup3\n      add\n      mload\n      dup2\n      0x05\n      add\n      swap1\n      dup1\n      mload\n      swap1\n      0x20\n      add\n      swap1\n      tag_83\n      swap3\n      swap2\n      swap1\n      tag_78\n      jump\t// in\n    tag_83:\n      pop\n      0xc0\n      dup3\n      add\n      mload\n      dup2\n      0x06\n      add\n      swap1\n      dup1\n      mload\n      swap1\n      0x20\n      add\n      swap1\n      tag_84\n      swap3\n      swap2\n      swap1\n      tag_78\n      jump\t// in\n    tag_84:\n      pop\n      0xe0\n      dup3\n      add\n      mload\n      dup2\n      0x07\n      add\n      exp(0x0100, 0x00)\n      dup2\n      sload\n      dup2\n      0xffffffffffffffffffffffffffffffffffffffff\n      mul\n      not\n      and\n      swap1\n      dup4\n      0xffffffffffffffffffffffffffffffffffffffff\n      and\n      mul\n      or\n      swap1\n      sstore\n      pop\n      pop\n      pop\n        /* \"contracts/registrasi.sol\":923:948  accountsWithRegistrations */\n      0x01\n        /* \"contracts/registrasi.sol\":954:961  _wallet */\n      dup9\n        /* \"contracts/registrasi.sol\":923:962  accountsWithRegistrations.push(_wallet) */\n      swap1\n      dup1\n      0x01\n      dup2\n      sload\n      add\n      dup1\n      dup3\n      sstore\n      dup1\n      swap2\n      pop\n      pop\n      0x01\n      swap1\n      sub\n      swap1\n      0x00\n      mstore\n      keccak256(0x00, 0x20)\n      add\n      0x00\n      swap1\n      swap2\n      swap1\n      swap2\n      swap1\n      swap2\n      0x0100\n      exp\n      dup2\n      sload\n      dup2\n      0xffffffffffffffffffffffffffffffffffffffff\n      mul\n      not\n      and\n      swap1\n      dup4\n      0xffffffffffffffffffffffffffffffffffffffff\n      and\n      mul\n      or\n      swap1\n      sstore\n      pop\n        /* \"contracts/registrasi.sol\":973:990  registrationCount */\n      0x02\n      0x00\n        /* \"contracts/registrasi.sol\":973:992  registrationCount++ */\n      dup2\n      sload\n      dup1\n      swap3\n      swap2\n      swap1\n      tag_86\n      swap1\n      tag_87\n      jump\t// in\n    tag_86:\n      swap2\n      swap1\n      pop\n      sstore\n      pop\n        /* \"contracts/registrasi.sol\":500:1000  function addRegistration(\r... */\n      pop\n      pop\n      pop\n      pop\n      pop\n      pop\n      pop\n      pop\n      jump\t// out\n        /* \"contracts/registrasi.sol\":373:415  address[] public accountsWithRegistrations */\n    tag_26:\n      0x01\n      dup2\n      dup2\n      sload\n      dup2\n      lt\n      tag_88\n      jumpi\n      0x00\n      dup1\n      revert\n    tag_88:\n      swap1\n      0x00\n      mstore\n      keccak256(0x00, 0x20)\n      add\n      0x00\n      swap2\n      pop\n      sload\n      swap1\n      0x0100\n      exp\n      swap1\n      div\n      0xffffffffffffffffffffffffffffffffffffffff\n      and\n      dup2\n      jump\t// out\n        /* \"contracts/registrasi.sol\":1229:1872  function getAllRegistrations(uint offset) public view returns (Data[] memory) {\r... */\n    tag_31:\n        /* \"contracts/registrasi.sol\":1292:1305  Data[] memory */\n      0x60\n        /* \"contracts/registrasi.sol\":1318:1349  uint maxRegistrationsPerAccount */\n      0x00\n        /* \"contracts/registrasi.sol\":1352:1354  10 */\n      0x0a\n        /* \"contracts/registrasi.sol\":1318:1354  uint maxRegistrationsPerAccount = 10 */\n      swap1\n      pop\n        /* \"contracts/registrasi.sol\":1365:1395  Data[] memory allRegistrations */\n      0x00\n        /* \"contracts/registrasi.sol\":1414:1440  maxRegistrationsPerAccount */\n      dup2\n        /* \"contracts/registrasi.sol\":1409:1411  10 */\n      0x0a\n        /* \"contracts/registrasi.sol\":1409:1440  10 * maxRegistrationsPerAccount */\n      tag_91\n      swap2\n      swap1\n      tag_92\n      jump\t// in\n    tag_91:\n        /* \"contracts/registrasi.sol\":1398:1441  new Data[](10 * maxRegistrationsPerAccount) */\n      0xffffffffffffffff\n      dup2\n      gt\n      iszero\n      tag_93\n      jumpi\n      tag_94\n      tag_95\n      jump\t// in\n    tag_94:\n    tag_93:\n      mload(0x40)\n      swap1\n      dup1\n      dup3\n      mstore\n      dup1\n      0x20\n      mul\n      0x20\n      add\n      dup3\n      add\n      0x40\n      mstore\n      dup1\n      iszero\n      tag_96\n      jumpi\n      dup2\n      0x20\n      add\n    tag_97:\n      tag_98\n      tag_99\n      jump\t// in\n    tag_98:\n      dup2\n      mstore\n      0x20\n      add\n      swap1\n      0x01\n      swap1\n      sub\n      swap1\n      dup2\n      tag_97\n      jumpi\n      swap1\n      pop\n    tag_96:\n      pop\n        /* \"contracts/registrasi.sol\":1365:1441  Data[] memory allRegistrations = new Data[](10 * maxRegistrationsPerAccount) */\n      swap1\n      pop\n        /* \"contracts/registrasi.sol\":1452:1464  uint counter */\n      0x00\n        /* \"contracts/registrasi.sol\":1484:1490  uint i */\n      dup1\n        /* \"contracts/registrasi.sol\":1493:1499  offset */\n      dup6\n        /* \"contracts/registrasi.sol\":1484:1499  uint i = offset */\n      swap1\n      pop\n        /* \"contracts/registrasi.sol\":1479:1831  for (uint i = offset; i < accountsWithRegistrations.length; i++) {\r... */\n    tag_100:\n        /* \"contracts/registrasi.sol\":1505:1530  accountsWithRegistrations */\n      0x01\n        /* \"contracts/registrasi.sol\":1505:1537  accountsWithRegistrations.length */\n      dup1\n      sload\n      swap1\n      pop\n        /* \"contracts/registrasi.sol\":1501:1502  i */\n      dup2\n        /* \"contracts/registrasi.sol\":1501:1537  i < accountsWithRegistrations.length */\n      lt\n        /* \"contracts/registrasi.sol\":1479:1831  for (uint i = offset; i < accountsWithRegistrations.length; i++) {\r... */\n      iszero\n      tag_101\n      jumpi\n        /* \"contracts/registrasi.sol\":1559:1577  Data[] memory data */\n      0x00\n        /* \"contracts/registrasi.sol\":1580:1593  registrations */\n      dup1\n        /* \"contracts/registrasi.sol\":1580:1623  registrations[accountsWithRegistrations[i]] */\n      0x00\n        /* \"contracts/registrasi.sol\":1594:1619  accountsWithRegistrations */\n      0x01\n        /* \"contracts/registrasi.sol\":1620:1621  i */\n      dup5\n        /* \"contracts/registrasi.sol\":1594:1622  accountsWithRegistrations[i] */\n      dup2\n      sload\n      dup2\n      lt\n      tag_103\n      jumpi\n      tag_104\n      tag_105\n      jump\t// in\n    tag_104:\n    tag_103:\n      swap1\n      0x00\n      mstore\n      keccak256(0x00, 0x20)\n      add\n      0x00\n      swap1\n      sload\n      swap1\n      0x0100\n      exp\n      swap1\n      div\n      0xffffffffffffffffffffffffffffffffffffffff\n      and\n        /* \"contracts/registrasi.sol\":1580:1623  registrations[accountsWithRegistrations[i]] */\n      0xffffffffffffffffffffffffffffffffffffffff\n      and\n      0xffffffffffffffffffffffffffffffffffffffff\n      and\n      dup2\n      mstore\n      0x20\n      add\n      swap1\n      dup2\n      mstore\n      0x20\n      add\n      0x00\n      keccak256\n        /* \"contracts/registrasi.sol\":1559:1623  Data[] memory data = registrations[accountsWithRegistrations[i]] */\n      dup1\n      sload\n      dup1\n      0x20\n      mul\n      0x20\n      add\n      mload(0x40)\n      swap1\n      dup2\n      add\n      0x40\n      mstore\n      dup1\n      swap3\n      swap2\n      swap1\n      dup2\n      dup2\n      mstore\n      0x20\n      add\n      0x00\n      swap1\n    tag_107:\n      dup3\n      dup3\n      lt\n      iszero\n      tag_108\n      jumpi\n      dup4\n      dup3\n      swap1\n      0x00\n      mstore\n      keccak256(0x00, 0x20)\n      swap1\n      0x08\n      mul\n      add\n      mload(0x40)\n      dup1\n      0x0100\n      add\n      0x40\n      mstore\n      swap1\n      dup2\n      0x00\n      dup3\n      add\n      dup1\n      sload\n      tag_110\n      swap1\n      tag_40\n      jump\t// in\n    tag_110:\n      dup1\n      0x1f\n      add\n      0x20\n      dup1\n      swap2\n      div\n      mul\n      0x20\n      add\n      mload(0x40)\n      swap1\n      dup2\n      add\n      0x40\n      mstore\n      dup1\n      swap3\n      swap2\n      swap1\n      dup2\n      dup2\n      mstore\n      0x20\n      add\n      dup3\n      dup1\n      sload\n      tag_111\n      swap1\n      tag_40\n      jump\t// in\n    tag_111:\n      dup1\n      iszero\n      tag_112\n      jumpi\n      dup1\n      0x1f\n      lt\n      tag_113\n      jumpi\n      0x0100\n      dup1\n      dup4\n      sload\n      div\n      mul\n      dup4\n      mstore\n      swap2\n      0x20\n      add\n      swap2\n      jump(tag_112)\n    tag_113:\n      dup3\n      add\n      swap2\n      swap1\n      0x00\n      mstore\n      keccak256(0x00, 0x20)\n      swap1\n    tag_114:\n      dup2\n      sload\n      dup2\n      mstore\n      swap1\n      0x01\n      add\n      swap1\n      0x20\n      add\n      dup1\n      dup4\n      gt\n      tag_114\n      jumpi\n      dup3\n      swap1\n      sub\n      0x1f\n      and\n      dup3\n      add\n      swap2\n    tag_112:\n      pop\n      pop\n      pop\n      pop\n      pop\n      dup2\n      mstore\n      0x20\n      add\n      0x01\n      dup3\n      add\n      dup1\n      sload\n      tag_115\n      swap1\n      tag_40\n      jump\t// in\n    tag_115:\n      dup1\n      0x1f\n      add\n      0x20\n      dup1\n      swap2\n      div\n      mul\n      0x20\n      add\n      mload(0x40)\n      swap1\n      dup2\n      add\n      0x40\n      mstore\n      dup1\n      swap3\n      swap2\n      swap1\n      dup2\n      dup2\n      mstore\n      0x20\n      add\n      dup3\n      dup1\n      sload\n      tag_116\n      swap1\n      tag_40\n      jump\t// in\n    tag_116:\n      dup1\n      iszero\n      tag_117\n      jumpi\n      dup1\n      0x1f\n      lt\n      tag_118\n      jumpi\n      0x0100\n      dup1\n      dup4\n      sload\n      div\n      mul\n      dup4\n      mstore\n      swap2\n      0x20\n      add\n      swap2\n      jump(tag_117)\n    tag_118:\n      dup3\n      add\n      swap2\n      swap1\n      0x00\n      mstore\n      keccak256(0x00, 0x20)\n      swap1\n    tag_119:\n      dup2\n      sload\n      dup2\n      mstore\n      swap1\n      0x01\n      add\n      swap1\n      0x20\n      add\n      dup1\n      dup4\n      gt\n      tag_119\n      jumpi\n      dup3\n      swap1\n      sub\n      0x1f\n      and\n      dup3\n      add\n      swap2\n    tag_117:\n      pop\n      pop\n      pop\n      pop\n      pop\n      dup2\n      mstore\n      0x20\n      add\n      0x02\n      dup3\n      add\n      dup1\n      sload\n      tag_120\n      swap1\n      tag_40\n      jump\t// in\n    tag_120:\n      dup1\n      0x1f\n      add\n      0x20\n      dup1\n      swap2\n      div\n      mul\n      0x20\n      add\n      mload(0x40)\n      swap1\n      dup2\n      add\n      0x40\n      mstore\n      dup1\n      swap3\n      swap2\n      swap1\n      dup2\n      dup2\n      mstore\n      0x20\n      add\n      dup3\n      dup1\n      sload\n      tag_121\n      swap1\n      tag_40\n      jump\t// in\n    tag_121:\n      dup1\n      iszero\n      tag_122\n      jumpi\n      dup1\n      0x1f\n      lt\n      tag_123\n      jumpi\n      0x0100\n      dup1\n      dup4\n      sload\n      div\n      mul\n      dup4\n      mstore\n      swap2\n      0x20\n      add\n      swap2\n      jump(tag_122)\n    tag_123:\n      dup3\n      add\n      swap2\n      swap1\n      0x00\n      mstore\n      keccak256(0x00, 0x20)\n      swap1\n    tag_124:\n      dup2\n      sload\n      dup2\n      mstore\n      swap1\n      0x01\n      add\n      swap1\n      0x20\n      add\n      dup1\n      dup4\n      gt\n      tag_124\n      jumpi\n      dup3\n      swap1\n      sub\n      0x1f\n      and\n      dup3\n      add\n      swap2\n    tag_122:\n      pop\n      pop\n      pop\n      pop\n      pop\n      dup2\n      mstore\n      0x20\n      add\n      0x03\n      dup3\n      add\n      dup1\n      sload\n      tag_125\n      swap1\n      tag_40\n      jump\t// in\n    tag_125:\n      dup1\n      0x1f\n      add\n      0x20\n      dup1\n      swap2\n      div\n      mul\n      0x20\n      add\n      mload(0x40)\n      swap1\n      dup2\n      add\n      0x40\n      mstore\n      dup1\n      swap3\n      swap2\n      swap1\n      dup2\n      dup2\n      mstore\n      0x20\n      add\n      dup3\n      dup1\n      sload\n      tag_126\n      swap1\n      tag_40\n      jump\t// in\n    tag_126:\n      dup1\n      iszero\n      tag_127\n      jumpi\n      dup1\n      0x1f\n      lt\n      tag_128\n      jumpi\n      0x0100\n      dup1\n      dup4\n      sload\n      div\n      mul\n      dup4\n      mstore\n      swap2\n      0x20\n      add\n      swap2\n      jump(tag_127)\n    tag_128:\n      dup3\n      add\n      swap2\n      swap1\n      0x00\n      mstore\n      keccak256(0x00, 0x20)\n      swap1\n    tag_129:\n      dup2\n      sload\n      dup2\n      mstore\n      swap1\n      0x01\n      add\n      swap1\n      0x20\n      add\n      dup1\n      dup4\n      gt\n      tag_129\n      jumpi\n      dup3\n      swap1\n      sub\n      0x1f\n      and\n      dup3\n      add\n      swap2\n    tag_127:\n      pop\n      pop\n      pop\n      pop\n      pop\n      dup2\n      mstore\n      0x20\n      add\n      0x04\n      dup3\n      add\n      dup1\n      sload\n      tag_130\n      swap1\n      tag_40\n      jump\t// in\n    tag_130:\n      dup1\n      0x1f\n      add\n      0x20\n      dup1\n      swap2\n      div\n      mul\n      0x20\n      add\n      mload(0x40)\n      swap1\n      dup2\n      add\n      0x40\n      mstore\n      dup1\n      swap3\n      swap2\n      swap1\n      dup2\n      dup2\n      mstore\n      0x20\n      add\n      dup3\n      dup1\n      sload\n      tag_131\n      swap1\n      tag_40\n      jump\t// in\n    tag_131:\n      dup1\n      iszero\n      tag_132\n      jumpi\n      dup1\n      0x1f\n      lt\n      tag_133\n      jumpi\n      0x0100\n      dup1\n      dup4\n      sload\n      div\n      mul\n      dup4\n      mstore\n      swap2\n      0x20\n      add\n      swap2\n      jump(tag_132)\n    tag_133:\n      dup3\n      add\n      swap2\n      swap1\n      0x00\n      mstore\n      keccak256(0x00, 0x20)\n      swap1\n    tag_134:\n      dup2\n      sload\n      dup2\n      mstore\n      swap1\n      0x01\n      add\n      swap1\n      0x20\n      add\n      dup1\n      dup4\n      gt\n      tag_134\n      jumpi\n      dup3\n      swap1\n      sub\n      0x1f\n      and\n      dup3\n      add\n      swap2\n    tag_132:\n      pop\n      pop\n      pop\n      pop\n      pop\n      dup2\n      mstore\n      0x20\n      add\n      0x05\n      dup3\n      add\n      dup1\n      sload\n      tag_135\n      swap1\n      tag_40\n      jump\t// in\n    tag_135:\n      dup1\n      0x1f\n      add\n      0x20\n      dup1\n      swap2\n      div\n      mul\n      0x20\n      add\n      mload(0x40)\n      swap1\n      dup2\n      add\n      0x40\n      mstore\n      dup1\n      swap3\n      swap2\n      swap1\n      dup2\n      dup2\n      mstore\n      0x20\n      add\n      dup3\n      dup1\n      sload\n      tag_136\n      swap1\n      tag_40\n      jump\t// in\n    tag_136:\n      dup1\n      iszero\n      tag_137\n      jumpi\n      dup1\n      0x1f\n      lt\n      tag_138\n      jumpi\n      0x0100\n      dup1\n      dup4\n      sload\n      div\n      mul\n      dup4\n      mstore\n      swap2\n      0x20\n      add\n      swap2\n      jump(tag_137)\n    tag_138:\n      dup3\n      add\n      swap2\n      swap1\n      0x00\n      mstore\n      keccak256(0x00, 0x20)\n      swap1\n    tag_139:\n      dup2\n      sload\n      dup2\n      mstore\n      swap1\n      0x01\n      add\n      swap1\n      0x20\n      add\n      dup1\n      dup4\n      gt\n      tag_139\n      jumpi\n      dup3\n      swap1\n      sub\n      0x1f\n      and\n      dup3\n      add\n      swap2\n    tag_137:\n      pop\n      pop\n      pop\n      pop\n      pop\n      dup2\n      mstore\n      0x20\n      add\n      0x06\n      dup3\n      add\n      dup1\n      sload\n      tag_140\n      swap1\n      tag_40\n      jump\t// in\n    tag_140:\n      dup1\n      0x1f\n      add\n      0x20\n      dup1\n      swap2\n      div\n      mul\n      0x20\n      add\n      mload(0x40)\n      swap1\n      dup2\n      add\n      0x40\n      mstore\n      dup1\n      swap3\n      swap2\n      swap1\n      dup2\n      dup2\n      mstore\n      0x20\n      add\n      dup3\n      dup1\n      sload\n      tag_141\n      swap1\n      tag_40\n      jump\t// in\n    tag_141:\n      dup1\n      iszero\n      tag_142\n      jumpi\n      dup1\n      0x1f\n      lt\n      tag_143\n      jumpi\n      0x0100\n      dup1\n      dup4\n      sload\n      div\n      mul\n      dup4\n      mstore\n      swap2\n      0x20\n      add\n      swap2\n      jump(tag_142)\n    tag_143:\n      dup3\n      add\n      swap2\n      swap1\n      0x00\n      mstore\n      keccak256(0x00, 0x20)\n      swap1\n    tag_144:\n      dup2\n      sload\n      dup2\n      mstore\n      swap1\n      0x01\n      add\n      swap1\n      0x20\n      add\n      dup1\n      dup4\n      gt\n      tag_144\n      jumpi\n      dup3\n      swap1\n      sub\n      0x1f\n      and\n      dup3\n      add\n      swap2\n    tag_142:\n      pop\n      pop\n      pop\n      pop\n      pop\n      dup2\n      mstore\n      0x20\n      add\n      0x07\n      dup3\n      add\n      0x00\n      swap1\n      sload\n      swap1\n      0x0100\n      exp\n      swap1\n      div\n      0xffffffffffffffffffffffffffffffffffffffff\n      and\n      0xffffffffffffffffffffffffffffffffffffffff\n      and\n      0xffffffffffffffffffffffffffffffffffffffff\n      and\n      dup2\n      mstore\n      pop\n      pop\n      dup2\n      mstore\n      0x20\n      add\n      swap1\n      0x01\n      add\n      swap1\n      jump(tag_107)\n    tag_108:\n      pop\n      pop\n      pop\n      pop\n      swap1\n      pop\n        /* \"contracts/registrasi.sol\":1643:1649  uint j */\n      0x00\n        /* \"contracts/registrasi.sol\":1638:1820  for (uint j = 0; j < data.length && counter < maxRegistrationsPerAccount * 10; j++) {\r... */\n    tag_145:\n        /* \"contracts/registrasi.sol\":1659:1663  data */\n      dup2\n        /* \"contracts/registrasi.sol\":1659:1670  data.length */\n      mload\n        /* \"contracts/registrasi.sol\":1655:1656  j */\n      dup2\n        /* \"contracts/registrasi.sol\":1655:1670  j < data.length */\n      lt\n        /* \"contracts/registrasi.sol\":1655:1715  j < data.length && counter < maxRegistrationsPerAccount * 10 */\n      dup1\n      iszero\n      tag_148\n      jumpi\n      pop\n        /* \"contracts/registrasi.sol\":1713:1715  10 */\n      0x0a\n        /* \"contracts/registrasi.sol\":1684:1710  maxRegistrationsPerAccount */\n      dup7\n        /* \"contracts/registrasi.sol\":1684:1715  maxRegistrationsPerAccount * 10 */\n      tag_149\n      swap2\n      swap1\n      tag_92\n      jump\t// in\n    tag_149:\n        /* \"contracts/registrasi.sol\":1674:1681  counter */\n      dup5\n        /* \"contracts/registrasi.sol\":1674:1715  counter < maxRegistrationsPerAccount * 10 */\n      lt\n        /* \"contracts/registrasi.sol\":1655:1715  j < data.length && counter < maxRegistrationsPerAccount * 10 */\n    tag_148:\n        /* \"contracts/registrasi.sol\":1638:1820  for (uint j = 0; j < data.length && counter < maxRegistrationsPerAccount * 10; j++) {\r... */\n      iszero\n      tag_146\n      jumpi\n        /* \"contracts/registrasi.sol\":1769:1773  data */\n      dup2\n        /* \"contracts/registrasi.sol\":1774:1775  j */\n      dup2\n        /* \"contracts/registrasi.sol\":1769:1776  data[j] */\n      dup2\n      mload\n      dup2\n      lt\n      tag_150\n      jumpi\n      tag_151\n      tag_105\n      jump\t// in\n    tag_151:\n    tag_150:\n      0x20\n      mul\n      0x20\n      add\n      add\n      mload\n        /* \"contracts/registrasi.sol\":1741:1757  allRegistrations */\n      dup6\n        /* \"contracts/registrasi.sol\":1758:1765  counter */\n      dup6\n        /* \"contracts/registrasi.sol\":1741:1766  allRegistrations[counter] */\n      dup2\n      mload\n      dup2\n      lt\n      tag_152\n      jumpi\n      tag_153\n      tag_105\n      jump\t// in\n    tag_153:\n    tag_152:\n      0x20\n      mul\n      0x20\n      add\n      add\n        /* \"contracts/registrasi.sol\":1741:1776  allRegistrations[counter] = data[j] */\n      dup2\n      swap1\n      mstore\n      pop\n        /* \"contracts/registrasi.sol\":1795:1804  counter++ */\n      dup4\n      dup1\n      tag_154\n      swap1\n      tag_87\n      jump\t// in\n    tag_154:\n      swap5\n      pop\n      pop\n        /* \"contracts/registrasi.sol\":1717:1720  j++ */\n      dup1\n      dup1\n      tag_155\n      swap1\n      tag_87\n      jump\t// in\n    tag_155:\n      swap2\n      pop\n      pop\n        /* \"contracts/registrasi.sol\":1638:1820  for (uint j = 0; j < data.length && counter < maxRegistrationsPerAccount * 10; j++) {\r... */\n      jump(tag_145)\n    tag_146:\n      pop\n        /* \"contracts/registrasi.sol\":1544:1831  {\r... */\n      pop\n        /* \"contracts/registrasi.sol\":1539:1542  i++ */\n      dup1\n      dup1\n      tag_156\n      swap1\n      tag_87\n      jump\t// in\n    tag_156:\n      swap2\n      pop\n      pop\n        /* \"contracts/registrasi.sol\":1479:1831  for (uint i = offset; i < accountsWithRegistrations.length; i++) {\r... */\n      jump(tag_100)\n    tag_101:\n      pop\n        /* \"contracts/registrasi.sol\":1848:1864  allRegistrations */\n      dup2\n        /* \"contracts/registrasi.sol\":1841:1864  return allRegistrations */\n      swap4\n      pop\n      pop\n      pop\n      pop\n        /* \"contracts/registrasi.sol\":1229:1872  function getAllRegistrations(uint offset) public view returns (Data[] memory) {\r... */\n      swap2\n      swap1\n      pop\n      jump\t// out\n        /* \"contracts/registrasi.sol\":1049:1171  function getRegistrationEvidence() public view returns (Data[] memory) {\r... */\n    tag_35:\n        /* \"contracts/registrasi.sol\":1105:1118  Data[] memory */\n      0x60\n        /* \"contracts/registrasi.sol\":1138:1151  registrations */\n      0x00\n        /* \"contracts/registrasi.sol\":1138:1163  registrations[msg.sender] */\n      dup1\n        /* \"contracts/registrasi.sol\":1152:1162  msg.sender */\n      caller\n        /* \"contracts/registrasi.sol\":1138:1163  registrations[msg.sender] */\n      0xffffffffffffffffffffffffffffffffffffffff\n      and\n      0xffffffffffffffffffffffffffffffffffffffff\n      and\n      dup2\n      mstore\n      0x20\n      add\n      swap1\n      dup2\n      mstore\n      0x20\n      add\n      0x00\n      keccak256\n        /* \"contracts/registrasi.sol\":1131:1163  return registrations[msg.sender] */\n      dup1\n      sload\n      dup1\n      0x20\n      mul\n      0x20\n      add\n      mload(0x40)\n      swap1\n      dup2\n      add\n      0x40\n      mstore\n      dup1\n      swap3\n      swap2\n      swap1\n      dup2\n      dup2\n      mstore\n      0x20\n      add\n      0x00\n      swap1\n    tag_158:\n      dup3\n      dup3\n      lt\n      iszero\n      tag_159\n      jumpi\n      dup4\n      dup3\n      swap1\n      0x00\n      mstore\n      keccak256(0x00, 0x20)\n      swap1\n      0x08\n      mul\n      add\n      mload(0x40)\n      dup1\n      0x0100\n      add\n      0x40\n      mstore\n      swap1\n      dup2\n      0x00\n      dup3\n      add\n      dup1\n      sload\n      tag_161\n      swap1\n      tag_40\n      jump\t// in\n    tag_161:\n      dup1\n      0x1f\n      add\n      0x20\n      dup1\n      swap2\n      div\n      mul\n      0x20\n      add\n      mload(0x40)\n      swap1\n      dup2\n      add\n      0x40\n      mstore\n      dup1\n      swap3\n      swap2\n      swap1\n      dup2\n      dup2\n      mstore\n      0x20\n      add\n      dup3\n      dup1\n      sload\n      tag_162\n      swap1\n      tag_40\n      jump\t// in\n    tag_162:\n      dup1\n      iszero\n      tag_163\n      jumpi\n      dup1\n      0x1f\n      lt\n      tag_164\n      jumpi\n      0x0100\n      dup1\n      dup4\n      sload\n      div\n      mul\n      dup4\n      mstore\n      swap2\n      0x20\n      add\n      swap2\n      jump(tag_163)\n    tag_164:\n      dup3\n      add\n      swap2\n      swap1\n      0x00\n      mstore\n      keccak256(0x00, 0x20)\n      swap1\n    tag_165:\n      dup2\n      sload\n      dup2\n      mstore\n      swap1\n      0x01\n      add\n      swap1\n      0x20\n      add\n      dup1\n      dup4\n      gt\n      tag_165\n      jumpi\n      dup3\n      swap1\n      sub\n      0x1f\n      and\n      dup3\n      add\n      swap2\n    tag_163:\n      pop\n      pop\n      pop\n      pop\n      pop\n      dup2\n      mstore\n      0x20\n      add\n      0x01\n      dup3\n      add\n      dup1\n      sload\n      tag_166\n      swap1\n      tag_40\n      jump\t// in\n    tag_166:\n      dup1\n      0x1f\n      add\n      0x20\n      dup1\n      swap2\n      div\n      mul\n      0x20\n      add\n      mload(0x40)\n      swap1\n      dup2\n      add\n      0x40\n      mstore\n      dup1\n      swap3\n      swap2\n      swap1\n      dup2\n      dup2\n      mstore\n      0x20\n      add\n      dup3\n      dup1\n      sload\n      tag_167\n      swap1\n      tag_40\n      jump\t// in\n    tag_167:\n      dup1\n      iszero\n      tag_168\n      jumpi\n      dup1\n      0x1f\n      lt\n      tag_169\n      jumpi\n      0x0100\n      dup1\n      dup4\n      sload\n      div\n      mul\n      dup4\n      mstore\n      swap2\n      0x20\n      add\n      swap2\n      jump(tag_168)\n    tag_169:\n      dup3\n      add\n      swap2\n      swap1\n      0x00\n      mstore\n      keccak256(0x00, 0x20)\n      swap1\n    tag_170:\n      dup2\n      sload\n      dup2\n      mstore\n      swap1\n      0x01\n      add\n      swap1\n      0x20\n      add\n      dup1\n      dup4\n      gt\n      tag_170\n      jumpi\n      dup3\n      swap1\n      sub\n      0x1f\n      and\n      dup3\n      add\n      swap2\n    tag_168:\n      pop\n      pop\n      pop\n      pop\n      pop\n      dup2\n      mstore\n      0x20\n      add\n      0x02\n      dup3\n      add\n      dup1\n      sload\n      tag_171\n      swap1\n      tag_40\n      jump\t// in\n    tag_171:\n      dup1\n      0x1f\n      add\n      0x20\n      dup1\n      swap2\n      div\n      mul\n      0x20\n      add\n      mload(0x40)\n      swap1\n      dup2\n      add\n      0x40\n      mstore\n      dup1\n      swap3\n      swap2\n      swap1\n      dup2\n      dup2\n      mstore\n      0x20\n      add\n      dup3\n      dup1\n      sload\n      tag_172\n      swap1\n      tag_40\n      jump\t// in\n    tag_172:\n      dup1\n      iszero\n      tag_173\n      jumpi\n      dup1\n      0x1f\n      lt\n      tag_174\n      jumpi\n      0x0100\n      dup1\n      dup4\n      sload\n      div\n      mul\n      dup4\n      mstore\n      swap2\n      0x20\n      add\n      swap2\n      jump(tag_173)\n    tag_174:\n      dup3\n      add\n      swap2\n      swap1\n      0x00\n      mstore\n      keccak256(0x00, 0x20)\n      swap1\n    tag_175:\n      dup2\n      sload\n      dup2\n      mstore\n      swap1\n      0x01\n      add\n      swap1\n      0x20\n      add\n      dup1\n      dup4\n      gt\n      tag_175\n      jumpi\n      dup3\n      swap1\n      sub\n      0x1f\n      and\n      dup3\n      add\n      swap2\n    tag_173:\n      pop\n      pop\n      pop\n      pop\n      pop\n      dup2\n      mstore\n      0x20\n      add\n      0x03\n      dup3\n      add\n      dup1\n      sload\n      tag_176\n      swap1\n      tag_40\n      jump\t// in\n    tag_176:\n      dup1\n      0x1f\n      add\n      0x20\n      dup1\n      swap2\n      div\n      mul\n      0x20\n      add\n      mload(0x40)\n      swap1\n      dup2\n      add\n      0x40\n      mstore\n      dup1\n      swap3\n      swap2\n      swap1\n      dup2\n      dup2\n      mstore\n      0x20\n      add\n      dup3\n      dup1\n      sload\n      tag_177\n      swap1\n      tag_40\n      jump\t// in\n    tag_177:\n      dup1\n      iszero\n      tag_178\n      jumpi\n      dup1\n      0x1f\n      lt\n      tag_179\n      jumpi\n      0x0100\n      dup1\n      dup4\n      sload\n      div\n      mul\n      dup4\n      mstore\n      swap2\n      0x20\n      add\n      swap2\n      jump(tag_178)\n    tag_179:\n      dup3\n      add\n      swap2\n      swap1\n      0x00\n      mstore\n      keccak256(0x00, 0x20)\n      swap1\n    tag_180:\n      dup2\n      sload\n      dup2\n      mstore\n      swap1\n      0x01\n      add\n      swap1\n      0x20\n      add\n      dup1\n      dup4\n      gt\n      tag_180\n      jumpi\n      dup3\n      swap1\n      sub\n      0x1f\n      and\n      dup3\n      add\n      swap2\n    tag_178:\n      pop\n      pop\n      pop\n      pop\n      pop\n      dup2\n      mstore\n      0x20\n      add\n      0x04\n      dup3\n      add\n      dup1\n      sload\n      tag_181\n      swap1\n      tag_40\n      jump\t// in\n    tag_181:\n      dup1\n      0x1f\n      add\n      0x20\n      dup1\n      swap2\n      div\n      mul\n      0x20\n      add\n      mload(0x40)\n      swap1\n      dup2\n      add\n      0x40\n      mstore\n      dup1\n      swap3\n      swap2\n      swap1\n      dup2\n      dup2\n      mstore\n      0x20\n      add\n      dup3\n      dup1\n      sload\n      tag_182\n      swap1\n      tag_40\n      jump\t// in\n    tag_182:\n      dup1\n      iszero\n      tag_183\n      jumpi\n      dup1\n      0x1f\n      lt\n      tag_184\n      jumpi\n      0x0100\n      dup1\n      dup4\n      sload\n      div\n      mul\n      dup4\n      mstore\n      swap2\n      0x20\n      add\n      swap2\n      jump(tag_183)\n    tag_184:\n      dup3\n      add\n      swap2\n      swap1\n      0x00\n      mstore\n      keccak256(0x00, 0x20)\n      swap1\n    tag_185:\n      dup2\n      sload\n      dup2\n      mstore\n      swap1\n      0x01\n      add\n      swap1\n      0x20\n      add\n      dup1\n      dup4\n      gt\n      tag_185\n      jumpi\n      dup3\n      swap1\n      sub\n      0x1f\n      and\n      dup3\n      add\n      swap2\n    tag_183:\n      pop\n      pop\n      pop\n      pop\n      pop\n      dup2\n      mstore\n      0x20\n      add\n      0x05\n      dup3\n      add\n      dup1\n      sload\n      tag_186\n      swap1\n      tag_40\n      jump\t// in\n    tag_186:\n      dup1\n      0x1f\n      add\n      0x20\n      dup1\n      swap2\n      div\n      mul\n      0x20\n      add\n      mload(0x40)\n      swap1\n      dup2\n      add\n      0x40\n      mstore\n      dup1\n      swap3\n      swap2\n      swap1\n      dup2\n      dup2\n      mstore\n      0x20\n      add\n      dup3\n      dup1\n      sload\n      tag_187\n      swap1\n      tag_40\n      jump\t// in\n    tag_187:\n      dup1\n      iszero\n      tag_188\n      jumpi\n      dup1\n      0x1f\n      lt\n      tag_189\n      jumpi\n      0x0100\n      dup1\n      dup4\n      sload\n      div\n      mul\n      dup4\n      mstore\n      swap2\n      0x20\n      add\n      swap2\n      jump(tag_188)\n    tag_189:\n      dup3\n      add\n      swap2\n      swap1\n      0x00\n      mstore\n      keccak256(0x00, 0x20)\n      swap1\n    tag_190:\n      dup2\n      sload\n      dup2\n      mstore\n      swap1\n      0x01\n      add\n      swap1\n      0x20\n      add\n      dup1\n      dup4\n      gt\n      tag_190\n      jumpi\n      dup3\n      swap1\n      sub\n      0x1f\n      and\n      dup3\n      add\n      swap2\n    tag_188:\n      pop\n      pop\n      pop\n      pop\n      pop\n      dup2\n      mstore\n      0x20\n      add\n      0x06\n      dup3\n      add\n      dup1\n      sload\n      tag_191\n      swap1\n      tag_40\n      jump\t// in\n    tag_191:\n      dup1\n      0x1f\n      add\n      0x20\n      dup1\n      swap2\n      div\n      mul\n      0x20\n      add\n      mload(0x40)\n      swap1\n      dup2\n      add\n      0x40\n      mstore\n      dup1\n      swap3\n      swap2\n      swap1\n      dup2\n      dup2\n      mstore\n      0x20\n      add\n      dup3\n      dup1\n      sload\n      tag_192\n      swap1\n      tag_40\n      jump\t// in\n    tag_192:\n      dup1\n      iszero\n      tag_193\n      jumpi\n      dup1\n      0x1f\n      lt\n      tag_194\n      jumpi\n      0x0100\n      dup1\n      dup4\n      sload\n      div\n      mul\n      dup4\n      mstore\n      swap2\n      0x20\n      add\n      swap2\n      jump(tag_193)\n    tag_194:\n      dup3\n      add\n      swap2\n      swap1\n      0x00\n      mstore\n      keccak256(0x00, 0x20)\n      swap1\n    tag_195:\n      dup2\n      sload\n      dup2\n      mstore\n      swap1\n      0x01\n      add\n      swap1\n      0x20\n      add\n      dup1\n      dup4\n      gt\n      tag_195\n      jumpi\n      dup3\n      swap1\n      sub\n      0x1f\n      and\n      dup3\n      add\n      swap2\n    tag_193:\n      pop\n      pop\n      pop\n      pop\n      pop\n      dup2\n      mstore\n      0x20\n      add\n      0x07\n      dup3\n      add\n      0x00\n      swap1\n      sload\n      swap1\n      0x0100\n      exp\n      swap1\n      div\n      0xffffffffffffffffffffffffffffffffffffffff\n      and\n      0xffffffffffffffffffffffffffffffffffffffff\n      and\n      0xffffffffffffffffffffffffffffffffffffffff\n      and\n      dup2\n      mstore\n      pop\n      pop\n      dup2\n      mstore\n      0x20\n      add\n      swap1\n      0x01\n      add\n      swap1\n      jump(tag_158)\n    tag_159:\n      pop\n      pop\n      pop\n      pop\n      swap1\n      pop\n        /* \"contracts/registrasi.sol\":1049:1171  function getRegistrationEvidence() public view returns (Data[] memory) {\r... */\n      swap1\n      jump\t// out\n    tag_78:\n      dup3\n      dup1\n      sload\n      tag_196\n      swap1\n      tag_40\n      jump\t// in\n    tag_196:\n      swap1\n      0x00\n      mstore\n      keccak256(0x00, 0x20)\n      swap1\n      0x1f\n      add\n      0x20\n      swap1\n      div\n      dup2\n      add\n      swap3\n      dup3\n      tag_198\n      jumpi\n      0x00\n      dup6\n      sstore\n      jump(tag_197)\n    tag_198:\n      dup3\n      0x1f\n      lt\n      tag_199\n      jumpi\n      dup1\n      mload\n      not(0xff)\n      and\n      dup4\n      dup1\n      add\n      or\n      dup6\n      sstore\n      jump(tag_197)\n    tag_199:\n      dup3\n      dup1\n      add\n      0x01\n      add\n      dup6\n      sstore\n      dup3\n      iszero\n      tag_197\n      jumpi\n      swap2\n      dup3\n      add\n    tag_200:\n      dup3\n      dup2\n      gt\n      iszero\n      tag_201\n      jumpi\n      dup3\n      mload\n      dup3\n      sstore\n      swap2\n      0x20\n      add\n      swap2\n      swap1\n      0x01\n      add\n      swap1\n      jump(tag_200)\n    tag_201:\n    tag_197:\n      pop\n      swap1\n      pop\n      tag_202\n      swap2\n      swap1\n      tag_203\n      jump\t// in\n    tag_202:\n      pop\n      swap1\n      jump\t// out\n    tag_99:\n      mload(0x40)\n      dup1\n      0x0100\n      add\n      0x40\n      mstore\n      dup1\n      0x60\n      dup2\n      mstore\n      0x20\n      add\n      0x60\n      dup2\n      mstore\n      0x20\n      add\n      0x60\n      dup2\n      mstore\n      0x20\n      add\n      0x60\n      dup2\n      mstore\n      0x20\n      add\n      0x60\n      dup2\n      mstore\n      0x20\n      add\n      0x60\n      dup2\n      mstore\n      0x20\n      add\n      0x60\n      dup2\n      mstore\n      0x20\n      add\n      and(0xffffffffffffffffffffffffffffffffffffffff, 0x00)\n      dup2\n      mstore\n      pop\n      swap1\n      jump\t// out\n    tag_203:\n    tag_204:\n      dup1\n      dup3\n      gt\n      iszero\n      tag_205\n      jumpi\n      0x00\n      dup2\n      0x00\n      swap1\n      sstore\n      pop\n      0x01\n      add\n      jump(tag_204)\n    tag_205:\n      pop\n      swap1\n      jump\t// out\n        /* \"#utility.yul\":7:419   */\n    tag_207:\n        /* \"#utility.yul\":85:90   */\n      0x00\n        /* \"#utility.yul\":110:176   */\n      tag_209\n        /* \"#utility.yul\":126:175   */\n      tag_210\n        /* \"#utility.yul\":168:174   */\n      dup5\n        /* \"#utility.yul\":126:175   */\n      tag_211\n      jump\t// in\n    tag_210:\n        /* \"#utility.yul\":110:176   */\n      tag_212\n      jump\t// in\n    tag_209:\n        /* \"#utility.yul\":101:176   */\n      swap1\n      pop\n        /* \"#utility.yul\":199:205   */\n      dup3\n        /* \"#utility.yul\":192:197   */\n      dup2\n        /* \"#utility.yul\":185:206   */\n      mstore\n        /* \"#utility.yul\":237:241   */\n      0x20\n        /* \"#utility.yul\":230:235   */\n      dup2\n        /* \"#utility.yul\":226:242   */\n      add\n        /* \"#utility.yul\":275:278   */\n      dup5\n        /* \"#utility.yul\":266:272   */\n      dup5\n        /* \"#utility.yul\":261:264   */\n      dup5\n        /* \"#utility.yul\":257:273   */\n      add\n        /* \"#utility.yul\":254:279   */\n      gt\n        /* \"#utility.yul\":251:363   */\n      iszero\n      tag_213\n      jumpi\n        /* \"#utility.yul\":282:361   */\n      tag_214\n      tag_215\n      jump\t// in\n    tag_214:\n        /* \"#utility.yul\":251:363   */\n    tag_213:\n        /* \"#utility.yul\":372:413   */\n      tag_216\n        /* \"#utility.yul\":406:412   */\n      dup5\n        /* \"#utility.yul\":401:404   */\n      dup3\n        /* \"#utility.yul\":396:399   */\n      dup6\n        /* \"#utility.yul\":372:413   */\n      tag_217\n      jump\t// in\n    tag_216:\n        /* \"#utility.yul\":91:419   */\n      pop\n        /* \"#utility.yul\":7:419   */\n      swap4\n      swap3\n      pop\n      pop\n      pop\n      jump\t// out\n        /* \"#utility.yul\":425:564   */\n    tag_218:\n        /* \"#utility.yul\":471:476   */\n      0x00\n        /* \"#utility.yul\":509:515   */\n      dup2\n        /* \"#utility.yul\":496:516   */\n      calldataload\n        /* \"#utility.yul\":487:516   */\n      swap1\n      pop\n        /* \"#utility.yul\":525:558   */\n      tag_220\n        /* \"#utility.yul\":552:557   */\n      dup2\n        /* \"#utility.yul\":525:558   */\n      tag_221\n      jump\t// in\n    tag_220:\n        /* \"#utility.yul\":425:564   */\n      swap3\n      swap2\n      pop\n      pop\n      jump\t// out\n        /* \"#utility.yul\":584:924   */\n    tag_222:\n        /* \"#utility.yul\":640:645   */\n      0x00\n        /* \"#utility.yul\":689:692   */\n      dup3\n        /* \"#utility.yul\":682:686   */\n      0x1f\n        /* \"#utility.yul\":674:680   */\n      dup4\n        /* \"#utility.yul\":670:687   */\n      add\n        /* \"#utility.yul\":666:693   */\n      slt\n        /* \"#utility.yul\":656:778   */\n      tag_224\n      jumpi\n        /* \"#utility.yul\":697:776   */\n      tag_225\n      tag_226\n      jump\t// in\n    tag_225:\n        /* \"#utility.yul\":656:778   */\n    tag_224:\n        /* \"#utility.yul\":814:820   */\n      dup2\n        /* \"#utility.yul\":801:821   */\n      calldataload\n        /* \"#utility.yul\":839:918   */\n      tag_227\n        /* \"#utility.yul\":914:917   */\n      dup5\n        /* \"#utility.yul\":906:912   */\n      dup3\n        /* \"#utility.yul\":899:903   */\n      0x20\n        /* \"#utility.yul\":891:897   */\n      dup7\n        /* \"#utility.yul\":887:904   */\n      add\n        /* \"#utility.yul\":839:918   */\n      tag_207\n      jump\t// in\n    tag_227:\n        /* \"#utility.yul\":830:918   */\n      swap2\n      pop\n        /* \"#utility.yul\":646:924   */\n      pop\n        /* \"#utility.yul\":584:924   */\n      swap3\n      swap2\n      pop\n      pop\n      jump\t// out\n        /* \"#utility.yul\":930:1069   */\n    tag_228:\n        /* \"#utility.yul\":976:981   */\n      0x00\n        /* \"#utility.yul\":1014:1020   */\n      dup2\n        /* \"#utility.yul\":1001:1021   */\n      calldataload\n        /* \"#utility.yul\":992:1021   */\n      swap1\n      pop\n        /* \"#utility.yul\":1030:1063   */\n      tag_230\n        /* \"#utility.yul\":1057:1062   */\n      dup2\n        /* \"#utility.yul\":1030:1063   */\n      tag_231\n      jump\t// in\n    tag_230:\n        /* \"#utility.yul\":930:1069   */\n      swap3\n      swap2\n      pop\n      pop\n      jump\t// out\n        /* \"#utility.yul\":1075:3684   */\n    tag_21:\n        /* \"#utility.yul\":1267:1273   */\n      0x00\n        /* \"#utility.yul\":1275:1281   */\n      dup1\n        /* \"#utility.yul\":1283:1289   */\n      0x00\n        /* \"#utility.yul\":1291:1297   */\n      dup1\n        /* \"#utility.yul\":1299:1305   */\n      0x00\n        /* \"#utility.yul\":1307:1313   */\n      dup1\n        /* \"#utility.yul\":1315:1321   */\n      0x00\n        /* \"#utility.yul\":1323:1329   */\n      dup1\n        /* \"#utility.yul\":1372:1375   */\n      0x0100\n        /* \"#utility.yul\":1360:1369   */\n      dup10\n        /* \"#utility.yul\":1351:1358   */\n      dup12\n        /* \"#utility.yul\":1347:1370   */\n      sub\n        /* \"#utility.yul\":1343:1376   */\n      slt\n        /* \"#utility.yul\":1340:1460   */\n      iszero\n      tag_233\n      jumpi\n        /* \"#utility.yul\":1379:1458   */\n      tag_234\n      tag_235\n      jump\t// in\n    tag_234:\n        /* \"#utility.yul\":1340:1460   */\n    tag_233:\n        /* \"#utility.yul\":1499:1500   */\n      0x00\n        /* \"#utility.yul\":1524:1577   */\n      tag_236\n        /* \"#utility.yul\":1569:1576   */\n      dup12\n        /* \"#utility.yul\":1560:1566   */\n      dup3\n        /* \"#utility.yul\":1549:1558   */\n      dup13\n        /* \"#utility.yul\":1545:1567   */\n      add\n        /* \"#utility.yul\":1524:1577   */\n      tag_218\n      jump\t// in\n    tag_236:\n        /* \"#utility.yul\":1514:1577   */\n      swap9\n      pop\n        /* \"#utility.yul\":1470:1587   */\n      pop\n        /* \"#utility.yul\":1654:1656   */\n      0x20\n        /* \"#utility.yul\":1643:1652   */\n      dup10\n        /* \"#utility.yul\":1639:1657   */\n      add\n        /* \"#utility.yul\":1626:1658   */\n      calldataload\n        /* \"#utility.yul\":1685:1703   */\n      0xffffffffffffffff\n        /* \"#utility.yul\":1677:1683   */\n      dup2\n        /* \"#utility.yul\":1674:1704   */\n      gt\n        /* \"#utility.yul\":1671:1788   */\n      iszero\n      tag_237\n      jumpi\n        /* \"#utility.yul\":1707:1786   */\n      tag_238\n      tag_239\n      jump\t// in\n    tag_238:\n        /* \"#utility.yul\":1671:1788   */\n    tag_237:\n        /* \"#utility.yul\":1812:1875   */\n      tag_240\n        /* \"#utility.yul\":1867:1874   */\n      dup12\n        /* \"#utility.yul\":1858:1864   */\n      dup3\n        /* \"#utility.yul\":1847:1856   */\n      dup13\n        /* \"#utility.yul\":1843:1865   */\n      add\n        /* \"#utility.yul\":1812:1875   */\n      tag_222\n      jump\t// in\n    tag_240:\n        /* \"#utility.yul\":1802:1875   */\n      swap8\n      pop\n        /* \"#utility.yul\":1597:1885   */\n      pop\n        /* \"#utility.yul\":1952:1954   */\n      0x40\n        /* \"#utility.yul\":1941:1950   */\n      dup10\n        /* \"#utility.yul\":1937:1955   */\n      add\n        /* \"#utility.yul\":1924:1956   */\n      calldataload\n        /* \"#utility.yul\":1983:2001   */\n      0xffffffffffffffff\n        /* \"#utility.yul\":1975:1981   */\n      dup2\n        /* \"#utility.yul\":1972:2002   */\n      gt\n        /* \"#utility.yul\":1969:2086   */\n      iszero\n      tag_241\n      jumpi\n        /* \"#utility.yul\":2005:2084   */\n      tag_242\n      tag_239\n      jump\t// in\n    tag_242:\n        /* \"#utility.yul\":1969:2086   */\n    tag_241:\n        /* \"#utility.yul\":2110:2173   */\n      tag_243\n        /* \"#utility.yul\":2165:2172   */\n      dup12\n        /* \"#utility.yul\":2156:2162   */\n      dup3\n        /* \"#utility.yul\":2145:2154   */\n      dup13\n        /* \"#utility.yul\":2141:2163   */\n      add\n        /* \"#utility.yul\":2110:2173   */\n      tag_222\n      jump\t// in\n    tag_243:\n        /* \"#utility.yul\":2100:2173   */\n      swap7\n      pop\n        /* \"#utility.yul\":1895:2183   */\n      pop\n        /* \"#utility.yul\":2250:2252   */\n      0x60\n        /* \"#utility.yul\":2239:2248   */\n      dup10\n        /* \"#utility.yul\":2235:2253   */\n      add\n        /* \"#utility.yul\":2222:2254   */\n      calldataload\n        /* \"#utility.yul\":2281:2299   */\n      0xffffffffffffffff\n        /* \"#utility.yul\":2273:2279   */\n      dup2\n        /* \"#utility.yul\":2270:2300   */\n      gt\n        /* \"#utility.yul\":2267:2384   */\n      iszero\n      tag_244\n      jumpi\n        /* \"#utility.yul\":2303:2382   */\n      tag_245\n      tag_239\n      jump\t// in\n    tag_245:\n        /* \"#utility.yul\":2267:2384   */\n    tag_244:\n        /* \"#utility.yul\":2408:2471   */\n      tag_246\n        /* \"#utility.yul\":2463:2470   */\n      dup12\n        /* \"#utility.yul\":2454:2460   */\n      dup3\n        /* \"#utility.yul\":2443:2452   */\n      dup13\n        /* \"#utility.yul\":2439:2461   */\n      add\n        /* \"#utility.yul\":2408:2471   */\n      tag_222\n      jump\t// in\n    tag_246:\n        /* \"#utility.yul\":2398:2471   */\n      swap6\n      pop\n        /* \"#utility.yul\":2193:2481   */\n      pop\n        /* \"#utility.yul\":2548:2551   */\n      0x80\n        /* \"#utility.yul\":2537:2546   */\n      dup10\n        /* \"#utility.yul\":2533:2552   */\n      add\n        /* \"#utility.yul\":2520:2553   */\n      calldataload\n        /* \"#utility.yul\":2580:2598   */\n      0xffffffffffffffff\n        /* \"#utility.yul\":2572:2578   */\n      dup2\n        /* \"#utility.yul\":2569:2599   */\n      gt\n        /* \"#utility.yul\":2566:2683   */\n      iszero\n      tag_247\n      jumpi\n        /* \"#utility.yul\":2602:2681   */\n      tag_248\n      tag_239\n      jump\t// in\n    tag_248:\n        /* \"#utility.yul\":2566:2683   */\n    tag_247:\n        /* \"#utility.yul\":2707:2770   */\n      tag_249\n        /* \"#utility.yul\":2762:2769   */\n      dup12\n        /* \"#utility.yul\":2753:2759   */\n      dup3\n        /* \"#utility.yul\":2742:2751   */\n      dup13\n        /* \"#utility.yul\":2738:2760   */\n      add\n        /* \"#utility.yul\":2707:2770   */\n      tag_222\n      jump\t// in\n    tag_249:\n        /* \"#utility.yul\":2697:2770   */\n      swap5\n      pop\n        /* \"#utility.yul\":2491:2780   */\n      pop\n        /* \"#utility.yul\":2847:2850   */\n      0xa0\n        /* \"#utility.yul\":2836:2845   */\n      dup10\n        /* \"#utility.yul\":2832:2851   */\n      add\n        /* \"#utility.yul\":2819:2852   */\n      calldataload\n        /* \"#utility.yul\":2879:2897   */\n      0xffffffffffffffff\n        /* \"#utility.yul\":2871:2877   */\n      dup2\n        /* \"#utility.yul\":2868:2898   */\n      gt\n        /* \"#utility.yul\":2865:2982   */\n      iszero\n      tag_250\n      jumpi\n        /* \"#utility.yul\":2901:2980   */\n      tag_251\n      tag_239\n      jump\t// in\n    tag_251:\n        /* \"#utility.yul\":2865:2982   */\n    tag_250:\n        /* \"#utility.yul\":3006:3069   */\n      tag_252\n        /* \"#utility.yul\":3061:3068   */\n      dup12\n        /* \"#utility.yul\":3052:3058   */\n      dup3\n        /* \"#utility.yul\":3041:3050   */\n      dup13\n        /* \"#utility.yul\":3037:3059   */\n      add\n        /* \"#utility.yul\":3006:3069   */\n      tag_222\n      jump\t// in\n    tag_252:\n        /* \"#utility.yul\":2996:3069   */\n      swap4\n      pop\n        /* \"#utility.yul\":2790:3079   */\n      pop\n        /* \"#utility.yul\":3146:3149   */\n      0xc0\n        /* \"#utility.yul\":3135:3144   */\n      dup10\n        /* \"#utility.yul\":3131:3150   */\n      add\n        /* \"#utility.yul\":3118:3151   */\n      calldataload\n        /* \"#utility.yul\":3178:3196   */\n      0xffffffffffffffff\n        /* \"#utility.yul\":3170:3176   */\n      dup2\n        /* \"#utility.yul\":3167:3197   */\n      gt\n        /* \"#utility.yul\":3164:3281   */\n      iszero\n      tag_253\n      jumpi\n        /* \"#utility.yul\":3200:3279   */\n      tag_254\n      tag_239\n      jump\t// in\n    tag_254:\n        /* \"#utility.yul\":3164:3281   */\n    tag_253:\n        /* \"#utility.yul\":3305:3368   */\n      tag_255\n        /* \"#utility.yul\":3360:3367   */\n      dup12\n        /* \"#utility.yul\":3351:3357   */\n      dup3\n        /* \"#utility.yul\":3340:3349   */\n      dup13\n        /* \"#utility.yul\":3336:3358   */\n      add\n        /* \"#utility.yul\":3305:3368   */\n      tag_222\n      jump\t// in\n    tag_255:\n        /* \"#utility.yul\":3295:3368   */\n      swap3\n      pop\n        /* \"#utility.yul\":3089:3378   */\n      pop\n        /* \"#utility.yul\":3445:3448   */\n      0xe0\n        /* \"#utility.yul\":3434:3443   */\n      dup10\n        /* \"#utility.yul\":3430:3449   */\n      add\n        /* \"#utility.yul\":3417:3450   */\n      calldataload\n        /* \"#utility.yul\":3477:3495   */\n      0xffffffffffffffff\n        /* \"#utility.yul\":3469:3475   */\n      dup2\n        /* \"#utility.yul\":3466:3496   */\n      gt\n        /* \"#utility.yul\":3463:3580   */\n      iszero\n      tag_256\n      jumpi\n        /* \"#utility.yul\":3499:3578   */\n      tag_257\n      tag_239\n      jump\t// in\n    tag_257:\n        /* \"#utility.yul\":3463:3580   */\n    tag_256:\n        /* \"#utility.yul\":3604:3667   */\n      tag_258\n        /* \"#utility.yul\":3659:3666   */\n      dup12\n        /* \"#utility.yul\":3650:3656   */\n      dup3\n        /* \"#utility.yul\":3639:3648   */\n      dup13\n        /* \"#utility.yul\":3635:3657   */\n      add\n        /* \"#utility.yul\":3604:3667   */\n      tag_222\n      jump\t// in\n    tag_258:\n        /* \"#utility.yul\":3594:3667   */\n      swap2\n      pop\n        /* \"#utility.yul\":3388:3677   */\n      pop\n        /* \"#utility.yul\":1075:3684   */\n      swap3\n      swap6\n      swap9\n      pop\n      swap3\n      swap6\n      swap9\n      swap1\n      swap4\n      swap7\n      pop\n      jump\t// out\n        /* \"#utility.yul\":3690:4164   */\n    tag_11:\n        /* \"#utility.yul\":3758:3764   */\n      0x00\n        /* \"#utility.yul\":3766:3772   */\n      dup1\n        /* \"#utility.yul\":3815:3817   */\n      0x40\n        /* \"#utility.yul\":3803:3812   */\n      dup4\n        /* \"#utility.yul\":3794:3801   */\n      dup6\n        /* \"#utility.yul\":3790:3813   */\n      sub\n        /* \"#utility.yul\":3786:3818   */\n      slt\n        /* \"#utility.yul\":3783:3902   */\n      iszero\n      tag_260\n      jumpi\n        /* \"#utility.yul\":3821:3900   */\n      tag_261\n      tag_235\n      jump\t// in\n    tag_261:\n        /* \"#utility.yul\":3783:3902   */\n    tag_260:\n        /* \"#utility.yul\":3941:3942   */\n      0x00\n        /* \"#utility.yul\":3966:4019   */\n      tag_262\n        /* \"#utility.yul\":4011:4018   */\n      dup6\n        /* \"#utility.yul\":4002:4008   */\n      dup3\n        /* \"#utility.yul\":3991:4000   */\n      dup7\n        /* \"#utility.yul\":3987:4009   */\n      add\n        /* \"#utility.yul\":3966:4019   */\n      tag_218\n      jump\t// in\n    tag_262:\n        /* \"#utility.yul\":3956:4019   */\n      swap3\n      pop\n        /* \"#utility.yul\":3912:4029   */\n      pop\n        /* \"#utility.yul\":4068:4070   */\n      0x20\n        /* \"#utility.yul\":4094:4147   */\n      tag_263\n        /* \"#utility.yul\":4139:4146   */\n      dup6\n        /* \"#utility.yul\":4130:4136   */\n      dup3\n        /* \"#utility.yul\":4119:4128   */\n      dup7\n        /* \"#utility.yul\":4115:4137   */\n      add\n        /* \"#utility.yul\":4094:4147   */\n      tag_228\n      jump\t// in\n    tag_263:\n        /* \"#utility.yul\":4084:4147   */\n      swap2\n      pop\n        /* \"#utility.yul\":4039:4157   */\n      pop\n        /* \"#utility.yul\":3690:4164   */\n      swap3\n      pop\n      swap3\n      swap1\n      pop\n      jump\t// out\n        /* \"#utility.yul\":4170:4499   */\n    tag_25:\n        /* \"#utility.yul\":4229:4235   */\n      0x00\n        /* \"#utility.yul\":4278:4280   */\n      0x20\n        /* \"#utility.yul\":4266:4275   */\n      dup3\n        /* \"#utility.yul\":4257:4264   */\n      dup5\n        /* \"#utility.yul\":4253:4276   */\n      sub\n        /* \"#utility.yul\":4249:4281   */\n      slt\n        /* \"#utility.yul\":4246:4365   */\n      iszero\n      tag_265\n      jumpi\n        /* \"#utility.yul\":4284:4363   */\n      tag_266\n      tag_235\n      jump\t// in\n    tag_266:\n        /* \"#utility.yul\":4246:4365   */\n    tag_265:\n        /* \"#utility.yul\":4404:4405   */\n      0x00\n        /* \"#utility.yul\":4429:4482   */\n      tag_267\n        /* \"#utility.yul\":4474:4481   */\n      dup5\n        /* \"#utility.yul\":4465:4471   */\n      dup3\n        /* \"#utility.yul\":4454:4463   */\n      dup6\n        /* \"#utility.yul\":4450:4472   */\n      add\n        /* \"#utility.yul\":4429:4482   */\n      tag_228\n      jump\t// in\n    tag_267:\n        /* \"#utility.yul\":4419:4482   */\n      swap2\n      pop\n        /* \"#utility.yul\":4375:4492   */\n      pop\n        /* \"#utility.yul\":4170:4499   */\n      swap3\n      swap2\n      pop\n      pop\n      jump\t// out\n        /* \"#utility.yul\":4505:4741   */\n    tag_268:\n        /* \"#utility.yul\":4614:4624   */\n      0x00\n        /* \"#utility.yul\":4649:4735   */\n      tag_270\n        /* \"#utility.yul\":4731:4734   */\n      dup4\n        /* \"#utility.yul\":4723:4729   */\n      dup4\n        /* \"#utility.yul\":4649:4735   */\n      tag_271\n      jump\t// in\n    tag_270:\n        /* \"#utility.yul\":4635:4735   */\n      swap1\n      pop\n        /* \"#utility.yul\":4505:4741   */\n      swap3\n      swap2\n      pop\n      pop\n      jump\t// out\n        /* \"#utility.yul\":4747:4855   */\n    tag_272:\n        /* \"#utility.yul\":4824:4848   */\n      tag_274\n        /* \"#utility.yul\":4842:4847   */\n      dup2\n        /* \"#utility.yul\":4824:4848   */\n      tag_275\n      jump\t// in\n    tag_274:\n        /* \"#utility.yul\":4819:4822   */\n      dup3\n        /* \"#utility.yul\":4812:4849   */\n      mstore\n        /* \"#utility.yul\":4747:4855   */\n      pop\n      pop\n      jump\t// out\n        /* \"#utility.yul\":4861:4979   */\n    tag_276:\n        /* \"#utility.yul\":4948:4972   */\n      tag_278\n        /* \"#utility.yul\":4966:4971   */\n      dup2\n        /* \"#utility.yul\":4948:4972   */\n      tag_275\n      jump\t// in\n    tag_278:\n        /* \"#utility.yul\":4943:4946   */\n      dup3\n        /* \"#utility.yul\":4936:4973   */\n      mstore\n        /* \"#utility.yul\":4861:4979   */\n      pop\n      pop\n      jump\t// out\n        /* \"#utility.yul\":5061:6132   */\n    tag_279:\n        /* \"#utility.yul\":5220:5223   */\n      0x00\n        /* \"#utility.yul\":5249:5323   */\n      tag_281\n        /* \"#utility.yul\":5317:5322   */\n      dup3\n        /* \"#utility.yul\":5249:5323   */\n      tag_282\n      jump\t// in\n    tag_281:\n        /* \"#utility.yul\":5339:5445   */\n      tag_283\n        /* \"#utility.yul\":5438:5444   */\n      dup2\n        /* \"#utility.yul\":5433:5436   */\n      dup6\n        /* \"#utility.yul\":5339:5445   */\n      tag_284\n      jump\t// in\n    tag_283:\n        /* \"#utility.yul\":5332:5445   */\n      swap4\n      pop\n        /* \"#utility.yul\":5471:5474   */\n      dup4\n        /* \"#utility.yul\":5516:5520   */\n      0x20\n        /* \"#utility.yul\":5508:5514   */\n      dup3\n        /* \"#utility.yul\":5504:5521   */\n      mul\n        /* \"#utility.yul\":5499:5502   */\n      dup6\n        /* \"#utility.yul\":5495:5522   */\n      add\n        /* \"#utility.yul\":5546:5622   */\n      tag_285\n        /* \"#utility.yul\":5616:5621   */\n      dup6\n        /* \"#utility.yul\":5546:5622   */\n      tag_286\n      jump\t// in\n    tag_285:\n        /* \"#utility.yul\":5645:5652   */\n      dup1\n        /* \"#utility.yul\":5676:5677   */\n      0x00\n        /* \"#utility.yul\":5661:6087   */\n    tag_287:\n        /* \"#utility.yul\":5686:5692   */\n      dup6\n        /* \"#utility.yul\":5683:5684   */\n      dup2\n        /* \"#utility.yul\":5680:5693   */\n      lt\n        /* \"#utility.yul\":5661:6087   */\n      iszero\n      tag_289\n      jumpi\n        /* \"#utility.yul\":5757:5766   */\n      dup5\n        /* \"#utility.yul\":5751:5755   */\n      dup5\n        /* \"#utility.yul\":5747:5767   */\n      sub\n        /* \"#utility.yul\":5742:5745   */\n      dup10\n        /* \"#utility.yul\":5735:5768   */\n      mstore\n        /* \"#utility.yul\":5808:5814   */\n      dup2\n        /* \"#utility.yul\":5802:5815   */\n      mload\n        /* \"#utility.yul\":5836:5940   */\n      tag_290\n        /* \"#utility.yul\":5935:5939   */\n      dup6\n        /* \"#utility.yul\":5920:5933   */\n      dup3\n        /* \"#utility.yul\":5836:5940   */\n      tag_268\n      jump\t// in\n    tag_290:\n        /* \"#utility.yul\":5828:5940   */\n      swap5\n      pop\n        /* \"#utility.yul\":5963:6043   */\n      tag_291\n        /* \"#utility.yul\":6036:6042   */\n      dup4\n        /* \"#utility.yul\":5963:6043   */\n      tag_292\n      jump\t// in\n    tag_291:\n        /* \"#utility.yul\":5953:6043   */\n      swap3\n      pop\n        /* \"#utility.yul\":6072:6076   */\n      0x20\n        /* \"#utility.yul\":6067:6070   */\n      dup11\n        /* \"#utility.yul\":6063:6077   */\n      add\n        /* \"#utility.yul\":6056:6077   */\n      swap10\n      pop\n        /* \"#utility.yul\":5721:6087   */\n      pop\n        /* \"#utility.yul\":5708:5709   */\n      0x01\n        /* \"#utility.yul\":5705:5706   */\n      dup2\n        /* \"#utility.yul\":5701:5710   */\n      add\n        /* \"#utility.yul\":5696:5710   */\n      swap1\n      pop\n        /* \"#utility.yul\":5661:6087   */\n      jump(tag_287)\n    tag_289:\n        /* \"#utility.yul\":5665:5679   */\n      pop\n        /* \"#utility.yul\":6103:6107   */\n      dup3\n        /* \"#utility.yul\":6096:6107   */\n      swap8\n      pop\n        /* \"#utility.yul\":6123:6126   */\n      dup8\n        /* \"#utility.yul\":6116:6126   */\n      swap6\n      pop\n        /* \"#utility.yul\":5225:6132   */\n      pop\n      pop\n      pop\n      pop\n      pop\n        /* \"#utility.yul\":5061:6132   */\n      swap3\n      swap2\n      pop\n      pop\n      jump\t// out\n        /* \"#utility.yul\":6138:6482   */\n    tag_293:\n        /* \"#utility.yul\":6216:6219   */\n      0x00\n        /* \"#utility.yul\":6244:6283   */\n      tag_295\n        /* \"#utility.yul\":6277:6282   */\n      dup3\n        /* \"#utility.yul\":6244:6283   */\n      tag_296\n      jump\t// in\n    tag_295:\n        /* \"#utility.yul\":6299:6360   */\n      tag_297\n        /* \"#utility.yul\":6353:6359   */\n      dup2\n        /* \"#utility.yul\":6348:6351   */\n      dup6\n        /* \"#utility.yul\":6299:6360   */\n      tag_298\n      jump\t// in\n    tag_297:\n        /* \"#utility.yul\":6292:6360   */\n      swap4\n      pop\n        /* \"#utility.yul\":6369:6421   */\n      tag_299\n        /* \"#utility.yul\":6414:6420   */\n      dup2\n        /* \"#utility.yul\":6409:6412   */\n      dup6\n        /* \"#utility.yul\":6402:6406   */\n      0x20\n        /* \"#utility.yul\":6395:6400   */\n      dup7\n        /* \"#utility.yul\":6391:6407   */\n      add\n        /* \"#utility.yul\":6369:6421   */\n      tag_300\n      jump\t// in\n    tag_299:\n        /* \"#utility.yul\":6446:6475   */\n      tag_301\n        /* \"#utility.yul\":6468:6474   */\n      dup2\n        /* \"#utility.yul\":6446:6475   */\n      tag_302\n      jump\t// in\n    tag_301:\n        /* \"#utility.yul\":6441:6444   */\n      dup5\n        /* \"#utility.yul\":6437:6476   */\n      add\n        /* \"#utility.yul\":6430:6476   */\n      swap2\n      pop\n        /* \"#utility.yul\":6220:6482   */\n      pop\n        /* \"#utility.yul\":6138:6482   */\n      swap3\n      swap2\n      pop\n      pop\n      jump\t// out\n        /* \"#utility.yul\":6488:6852   */\n    tag_303:\n        /* \"#utility.yul\":6576:6579   */\n      0x00\n        /* \"#utility.yul\":6604:6643   */\n      tag_305\n        /* \"#utility.yul\":6637:6642   */\n      dup3\n        /* \"#utility.yul\":6604:6643   */\n      tag_296\n      jump\t// in\n    tag_305:\n        /* \"#utility.yul\":6659:6730   */\n      tag_306\n        /* \"#utility.yul\":6723:6729   */\n      dup2\n        /* \"#utility.yul\":6718:6721   */\n      dup6\n        /* \"#utility.yul\":6659:6730   */\n      tag_307\n      jump\t// in\n    tag_306:\n        /* \"#utility.yul\":6652:6730   */\n      swap4\n      pop\n        /* \"#utility.yul\":6739:6791   */\n      tag_308\n        /* \"#utility.yul\":6784:6790   */\n      dup2\n        /* \"#utility.yul\":6779:6782   */\n      dup6\n        /* \"#utility.yul\":6772:6776   */\n      0x20\n        /* \"#utility.yul\":6765:6770   */\n      dup7\n        /* \"#utility.yul\":6761:6777   */\n      add\n        /* \"#utility.yul\":6739:6791   */\n      tag_300\n      jump\t// in\n    tag_308:\n        /* \"#utility.yul\":6816:6845   */\n      tag_309\n        /* \"#utility.yul\":6838:6844   */\n      dup2\n        /* \"#utility.yul\":6816:6845   */\n      tag_302\n      jump\t// in\n    tag_309:\n        /* \"#utility.yul\":6811:6814   */\n      dup5\n        /* \"#utility.yul\":6807:6846   */\n      add\n        /* \"#utility.yul\":6800:6846   */\n      swap2\n      pop\n        /* \"#utility.yul\":6580:6852   */\n      pop\n        /* \"#utility.yul\":6488:6852   */\n      swap3\n      swap2\n      pop\n      pop\n      jump\t// out\n        /* \"#utility.yul\":6930:9007   */\n    tag_271:\n        /* \"#utility.yul\":7029:7032   */\n      0x00\n        /* \"#utility.yul\":7065:7071   */\n      0x0100\n        /* \"#utility.yul\":7060:7063   */\n      dup4\n        /* \"#utility.yul\":7056:7072   */\n      add\n        /* \"#utility.yul\":7154:7158   */\n      0x00\n        /* \"#utility.yul\":7147:7152   */\n      dup4\n        /* \"#utility.yul\":7143:7159   */\n      add\n        /* \"#utility.yul\":7137:7160   */\n      mload\n        /* \"#utility.yul\":7207:7210   */\n      dup5\n        /* \"#utility.yul\":7201:7205   */\n      dup3\n        /* \"#utility.yul\":7197:7211   */\n      sub\n        /* \"#utility.yul\":7190:7194   */\n      0x00\n        /* \"#utility.yul\":7185:7188   */\n      dup7\n        /* \"#utility.yul\":7181:7195   */\n      add\n        /* \"#utility.yul\":7174:7212   */\n      mstore\n        /* \"#utility.yul\":7233:7306   */\n      tag_311\n        /* \"#utility.yul\":7301:7305   */\n      dup3\n        /* \"#utility.yul\":7287:7299   */\n      dup3\n        /* \"#utility.yul\":7233:7306   */\n      tag_293\n      jump\t// in\n    tag_311:\n        /* \"#utility.yul\":7225:7306   */\n      swap2\n      pop\n        /* \"#utility.yul\":7082:7317   */\n      pop\n        /* \"#utility.yul\":7402:7406   */\n      0x20\n        /* \"#utility.yul\":7395:7400   */\n      dup4\n        /* \"#utility.yul\":7391:7407   */\n      add\n        /* \"#utility.yul\":7385:7408   */\n      mload\n        /* \"#utility.yul\":7455:7458   */\n      dup5\n        /* \"#utility.yul\":7449:7453   */\n      dup3\n        /* \"#utility.yul\":7445:7459   */\n      sub\n        /* \"#utility.yul\":7438:7442   */\n      0x20\n        /* \"#utility.yul\":7433:7436   */\n      dup7\n        /* \"#utility.yul\":7429:7443   */\n      add\n        /* \"#utility.yul\":7422:7460   */\n      mstore\n        /* \"#utility.yul\":7481:7554   */\n      tag_312\n        /* \"#utility.yul\":7549:7553   */\n      dup3\n        /* \"#utility.yul\":7535:7547   */\n      dup3\n        /* \"#utility.yul\":7481:7554   */\n      tag_293\n      jump\t// in\n    tag_312:\n        /* \"#utility.yul\":7473:7554   */\n      swap2\n      pop\n        /* \"#utility.yul\":7327:7565   */\n      pop\n        /* \"#utility.yul\":7653:7657   */\n      0x40\n        /* \"#utility.yul\":7646:7651   */\n      dup4\n        /* \"#utility.yul\":7642:7658   */\n      add\n        /* \"#utility.yul\":7636:7659   */\n      mload\n        /* \"#utility.yul\":7706:7709   */\n      dup5\n        /* \"#utility.yul\":7700:7704   */\n      dup3\n        /* \"#utility.yul\":7696:7710   */\n      sub\n        /* \"#utility.yul\":7689:7693   */\n      0x40\n        /* \"#utility.yul\":7684:7687   */\n      dup7\n        /* \"#utility.yul\":7680:7694   */\n      add\n        /* \"#utility.yul\":7673:7711   */\n      mstore\n        /* \"#utility.yul\":7732:7805   */\n      tag_313\n        /* \"#utility.yul\":7800:7804   */\n      dup3\n        /* \"#utility.yul\":7786:7798   */\n      dup3\n        /* \"#utility.yul\":7732:7805   */\n      tag_293\n      jump\t// in\n    tag_313:\n        /* \"#utility.yul\":7724:7805   */\n      swap2\n      pop\n        /* \"#utility.yul\":7575:7816   */\n      pop\n        /* \"#utility.yul\":7898:7902   */\n      0x60\n        /* \"#utility.yul\":7891:7896   */\n      dup4\n        /* \"#utility.yul\":7887:7903   */\n      add\n        /* \"#utility.yul\":7881:7904   */\n      mload\n        /* \"#utility.yul\":7951:7954   */\n      dup5\n        /* \"#utility.yul\":7945:7949   */\n      dup3\n        /* \"#utility.yul\":7941:7955   */\n      sub\n        /* \"#utility.yul\":7934:7938   */\n      0x60\n        /* \"#utility.yul\":7929:7932   */\n      dup7\n        /* \"#utility.yul\":7925:7939   */\n      add\n        /* \"#utility.yul\":7918:7956   */\n      mstore\n        /* \"#utility.yul\":7977:8050   */\n      tag_314\n        /* \"#utility.yul\":8045:8049   */\n      dup3\n        /* \"#utility.yul\":8031:8043   */\n      dup3\n        /* \"#utility.yul\":7977:8050   */\n      tag_293\n      jump\t// in\n    tag_314:\n        /* \"#utility.yul\":7969:8050   */\n      swap2\n      pop\n        /* \"#utility.yul\":7826:8061   */\n      pop\n        /* \"#utility.yul\":8146:8150   */\n      0x80\n        /* \"#utility.yul\":8139:8144   */\n      dup4\n        /* \"#utility.yul\":8135:8151   */\n      add\n        /* \"#utility.yul\":8129:8152   */\n      mload\n        /* \"#utility.yul\":8199:8202   */\n      dup5\n        /* \"#utility.yul\":8193:8197   */\n      dup3\n        /* \"#utility.yul\":8189:8203   */\n      sub\n        /* \"#utility.yul\":8182:8186   */\n      0x80\n        /* \"#utility.yul\":8177:8180   */\n      dup7\n        /* \"#utility.yul\":8173:8187   */\n      add\n        /* \"#utility.yul\":8166:8204   */\n      mstore\n        /* \"#utility.yul\":8225:8298   */\n      tag_315\n        /* \"#utility.yul\":8293:8297   */\n      dup3\n        /* \"#utility.yul\":8279:8291   */\n      dup3\n        /* \"#utility.yul\":8225:8298   */\n      tag_293\n      jump\t// in\n    tag_315:\n        /* \"#utility.yul\":8217:8298   */\n      swap2\n      pop\n        /* \"#utility.yul\":8071:8309   */\n      pop\n        /* \"#utility.yul\":8394:8398   */\n      0xa0\n        /* \"#utility.yul\":8387:8392   */\n      dup4\n        /* \"#utility.yul\":8383:8399   */\n      add\n        /* \"#utility.yul\":8377:8400   */\n      mload\n        /* \"#utility.yul\":8447:8450   */\n      dup5\n        /* \"#utility.yul\":8441:8445   */\n      dup3\n        /* \"#utility.yul\":8437:8451   */\n      sub\n        /* \"#utility.yul\":8430:8434   */\n      0xa0\n        /* \"#utility.yul\":8425:8428   */\n      dup7\n        /* \"#utility.yul\":8421:8435   */\n      add\n        /* \"#utility.yul\":8414:8452   */\n      mstore\n        /* \"#utility.yul\":8473:8546   */\n      tag_316\n        /* \"#utility.yul\":8541:8545   */\n      dup3\n        /* \"#utility.yul\":8527:8539   */\n      dup3\n        /* \"#utility.yul\":8473:8546   */\n      tag_293\n      jump\t// in\n    tag_316:\n        /* \"#utility.yul\":8465:8546   */\n      swap2\n      pop\n        /* \"#utility.yul\":8319:8557   */\n      pop\n        /* \"#utility.yul\":8641:8645   */\n      0xc0\n        /* \"#utility.yul\":8634:8639   */\n      dup4\n        /* \"#utility.yul\":8630:8646   */\n      add\n        /* \"#utility.yul\":8624:8647   */\n      mload\n        /* \"#utility.yul\":8694:8697   */\n      dup5\n        /* \"#utility.yul\":8688:8692   */\n      dup3\n        /* \"#utility.yul\":8684:8698   */\n      sub\n        /* \"#utility.yul\":8677:8681   */\n      0xc0\n        /* \"#utility.yul\":8672:8675   */\n      dup7\n        /* \"#utility.yul\":8668:8682   */\n      add\n        /* \"#utility.yul\":8661:8699   */\n      mstore\n        /* \"#utility.yul\":8720:8793   */\n      tag_317\n        /* \"#utility.yul\":8788:8792   */\n      dup3\n        /* \"#utility.yul\":8774:8786   */\n      dup3\n        /* \"#utility.yul\":8720:8793   */\n      tag_293\n      jump\t// in\n    tag_317:\n        /* \"#utility.yul\":8712:8793   */\n      swap2\n      pop\n        /* \"#utility.yul\":8567:8804   */\n      pop\n        /* \"#utility.yul\":8888:8892   */\n      0xe0\n        /* \"#utility.yul\":8881:8886   */\n      dup4\n        /* \"#utility.yul\":8877:8893   */\n      add\n        /* \"#utility.yul\":8871:8894   */\n      mload\n        /* \"#utility.yul\":8907:8970   */\n      tag_318\n        /* \"#utility.yul\":8964:8968   */\n      0xe0\n        /* \"#utility.yul\":8959:8962   */\n      dup7\n        /* \"#utility.yul\":8955:8969   */\n      add\n        /* \"#utility.yul\":8941:8953   */\n      dup3\n        /* \"#utility.yul\":8907:8970   */\n      tag_272\n      jump\t// in\n    tag_318:\n        /* \"#utility.yul\":8814:8980   */\n      pop\n        /* \"#utility.yul\":8997:9001   */\n      dup1\n        /* \"#utility.yul\":8990:9001   */\n      swap2\n      pop\n        /* \"#utility.yul\":7034:9007   */\n      pop\n        /* \"#utility.yul\":6930:9007   */\n      swap3\n      swap2\n      pop\n      pop\n      jump\t// out\n        /* \"#utility.yul\":9013:9131   */\n    tag_319:\n        /* \"#utility.yul\":9100:9124   */\n      tag_321\n        /* \"#utility.yul\":9118:9123   */\n      dup2\n        /* \"#utility.yul\":9100:9124   */\n      tag_322\n      jump\t// in\n    tag_321:\n        /* \"#utility.yul\":9095:9098   */\n      dup3\n        /* \"#utility.yul\":9088:9125   */\n      mstore\n        /* \"#utility.yul\":9013:9131   */\n      pop\n      pop\n      jump\t// out\n        /* \"#utility.yul\":9137:9359   */\n    tag_28:\n        /* \"#utility.yul\":9230:9234   */\n      0x00\n        /* \"#utility.yul\":9268:9270   */\n      0x20\n        /* \"#utility.yul\":9257:9266   */\n      dup3\n        /* \"#utility.yul\":9253:9271   */\n      add\n        /* \"#utility.yul\":9245:9271   */\n      swap1\n      pop\n        /* \"#utility.yul\":9281:9352   */\n      tag_324\n        /* \"#utility.yul\":9349:9350   */\n      0x00\n        /* \"#utility.yul\":9338:9347   */\n      dup4\n        /* \"#utility.yul\":9334:9351   */\n      add\n        /* \"#utility.yul\":9325:9331   */\n      dup5\n        /* \"#utility.yul\":9281:9352   */\n      tag_276\n      jump\t// in\n    tag_324:\n        /* \"#utility.yul\":9137:9359   */\n      swap3\n      swap2\n      pop\n      pop\n      jump\t// out\n        /* \"#utility.yul\":9365:9818   */\n    tag_33:\n        /* \"#utility.yul\":9548:9552   */\n      0x00\n        /* \"#utility.yul\":9586:9588   */\n      0x20\n        /* \"#utility.yul\":9575:9584   */\n      dup3\n        /* \"#utility.yul\":9571:9589   */\n      add\n        /* \"#utility.yul\":9563:9589   */\n      swap1\n      pop\n        /* \"#utility.yul\":9635:9644   */\n      dup2\n        /* \"#utility.yul\":9629:9633   */\n      dup2\n        /* \"#utility.yul\":9625:9645   */\n      sub\n        /* \"#utility.yul\":9621:9622   */\n      0x00\n        /* \"#utility.yul\":9610:9619   */\n      dup4\n        /* \"#utility.yul\":9606:9623   */\n      add\n        /* \"#utility.yul\":9599:9646   */\n      mstore\n        /* \"#utility.yul\":9663:9811   */\n      tag_326\n        /* \"#utility.yul\":9806:9810   */\n      dup2\n        /* \"#utility.yul\":9797:9803   */\n      dup5\n        /* \"#utility.yul\":9663:9811   */\n      tag_279\n      jump\t// in\n    tag_326:\n        /* \"#utility.yul\":9655:9811   */\n      swap1\n      pop\n        /* \"#utility.yul\":9365:9818   */\n      swap3\n      swap2\n      pop\n      pop\n      jump\t// out\n        /* \"#utility.yul\":9824:11458   */\n    tag_14:\n        /* \"#utility.yul\":10253:10257   */\n      0x00\n        /* \"#utility.yul\":10291:10294   */\n      0x0100\n        /* \"#utility.yul\":10280:10289   */\n      dup3\n        /* \"#utility.yul\":10276:10295   */\n      add\n        /* \"#utility.yul\":10268:10295   */\n      swap1\n      pop\n        /* \"#utility.yul\":10341:10350   */\n      dup2\n        /* \"#utility.yul\":10335:10339   */\n      dup2\n        /* \"#utility.yul\":10331:10351   */\n      sub\n        /* \"#utility.yul\":10327:10328   */\n      0x00\n        /* \"#utility.yul\":10316:10325   */\n      dup4\n        /* \"#utility.yul\":10312:10329   */\n      add\n        /* \"#utility.yul\":10305:10352   */\n      mstore\n        /* \"#utility.yul\":10369:10447   */\n      tag_328\n        /* \"#utility.yul\":10442:10446   */\n      dup2\n        /* \"#utility.yul\":10433:10439   */\n      dup12\n        /* \"#utility.yul\":10369:10447   */\n      tag_303\n      jump\t// in\n    tag_328:\n        /* \"#utility.yul\":10361:10447   */\n      swap1\n      pop\n        /* \"#utility.yul\":10494:10503   */\n      dup2\n        /* \"#utility.yul\":10488:10492   */\n      dup2\n        /* \"#utility.yul\":10484:10504   */\n      sub\n        /* \"#utility.yul\":10479:10481   */\n      0x20\n        /* \"#utility.yul\":10468:10477   */\n      dup4\n        /* \"#utility.yul\":10464:10482   */\n      add\n        /* \"#utility.yul\":10457:10505   */\n      mstore\n        /* \"#utility.yul\":10522:10600   */\n      tag_329\n        /* \"#utility.yul\":10595:10599   */\n      dup2\n        /* \"#utility.yul\":10586:10592   */\n      dup11\n        /* \"#utility.yul\":10522:10600   */\n      tag_303\n      jump\t// in\n    tag_329:\n        /* \"#utility.yul\":10514:10600   */\n      swap1\n      pop\n        /* \"#utility.yul\":10647:10656   */\n      dup2\n        /* \"#utility.yul\":10641:10645   */\n      dup2\n        /* \"#utility.yul\":10637:10657   */\n      sub\n        /* \"#utility.yul\":10632:10634   */\n      0x40\n        /* \"#utility.yul\":10621:10630   */\n      dup4\n        /* \"#utility.yul\":10617:10635   */\n      add\n        /* \"#utility.yul\":10610:10658   */\n      mstore\n        /* \"#utility.yul\":10675:10753   */\n      tag_330\n        /* \"#utility.yul\":10748:10752   */\n      dup2\n        /* \"#utility.yul\":10739:10745   */\n      dup10\n        /* \"#utility.yul\":10675:10753   */\n      tag_303\n      jump\t// in\n    tag_330:\n        /* \"#utility.yul\":10667:10753   */\n      swap1\n      pop\n        /* \"#utility.yul\":10800:10809   */\n      dup2\n        /* \"#utility.yul\":10794:10798   */\n      dup2\n        /* \"#utility.yul\":10790:10810   */\n      sub\n        /* \"#utility.yul\":10785:10787   */\n      0x60\n        /* \"#utility.yul\":10774:10783   */\n      dup4\n        /* \"#utility.yul\":10770:10788   */\n      add\n        /* \"#utility.yul\":10763:10811   */\n      mstore\n        /* \"#utility.yul\":10828:10906   */\n      tag_331\n        /* \"#utility.yul\":10901:10905   */\n      dup2\n        /* \"#utility.yul\":10892:10898   */\n      dup9\n        /* \"#utility.yul\":10828:10906   */\n      tag_303\n      jump\t// in\n    tag_331:\n        /* \"#utility.yul\":10820:10906   */\n      swap1\n      pop\n        /* \"#utility.yul\":10954:10963   */\n      dup2\n        /* \"#utility.yul\":10948:10952   */\n      dup2\n        /* \"#utility.yul\":10944:10964   */\n      sub\n        /* \"#utility.yul\":10938:10941   */\n      0x80\n        /* \"#utility.yul\":10927:10936   */\n      dup4\n        /* \"#utility.yul\":10923:10942   */\n      add\n        /* \"#utility.yul\":10916:10965   */\n      mstore\n        /* \"#utility.yul\":10982:11060   */\n      tag_332\n        /* \"#utility.yul\":11055:11059   */\n      dup2\n        /* \"#utility.yul\":11046:11052   */\n      dup8\n        /* \"#utility.yul\":10982:11060   */\n      tag_303\n      jump\t// in\n    tag_332:\n        /* \"#utility.yul\":10974:11060   */\n      swap1\n      pop\n        /* \"#utility.yul\":11108:11117   */\n      dup2\n        /* \"#utility.yul\":11102:11106   */\n      dup2\n        /* \"#utility.yul\":11098:11118   */\n      sub\n        /* \"#utility.yul\":11092:11095   */\n      0xa0\n        /* \"#utility.yul\":11081:11090   */\n      dup4\n        /* \"#utility.yul\":11077:11096   */\n      add\n        /* \"#utility.yul\":11070:11119   */\n      mstore\n        /* \"#utility.yul\":11136:11214   */\n      tag_333\n        /* \"#utility.yul\":11209:11213   */\n      dup2\n        /* \"#utility.yul\":11200:11206   */\n      dup7\n        /* \"#utility.yul\":11136:11214   */\n      tag_303\n      jump\t// in\n    tag_333:\n        /* \"#utility.yul\":11128:11214   */\n      swap1\n      pop\n        /* \"#utility.yul\":11262:11271   */\n      dup2\n        /* \"#utility.yul\":11256:11260   */\n      dup2\n        /* \"#utility.yul\":11252:11272   */\n      sub\n        /* \"#utility.yul\":11246:11249   */\n      0xc0\n        /* \"#utility.yul\":11235:11244   */\n      dup4\n        /* \"#utility.yul\":11231:11250   */\n      add\n        /* \"#utility.yul\":11224:11273   */\n      mstore\n        /* \"#utility.yul\":11290:11368   */\n      tag_334\n        /* \"#utility.yul\":11363:11367   */\n      dup2\n        /* \"#utility.yul\":11354:11360   */\n      dup6\n        /* \"#utility.yul\":11290:11368   */\n      tag_303\n      jump\t// in\n    tag_334:\n        /* \"#utility.yul\":11282:11368   */\n      swap1\n      pop\n        /* \"#utility.yul\":11378:11451   */\n      tag_335\n        /* \"#utility.yul\":11446:11449   */\n      0xe0\n        /* \"#utility.yul\":11435:11444   */\n      dup4\n        /* \"#utility.yul\":11431:11450   */\n      add\n        /* \"#utility.yul\":11422:11428   */\n      dup5\n        /* \"#utility.yul\":11378:11451   */\n      tag_276\n      jump\t// in\n    tag_335:\n        /* \"#utility.yul\":9824:11458   */\n      swap10\n      swap9\n      pop\n      pop\n      pop\n      pop\n      pop\n      pop\n      pop\n      pop\n      pop\n      jump\t// out\n        /* \"#utility.yul\":11464:11686   */\n    tag_18:\n        /* \"#utility.yul\":11557:11561   */\n      0x00\n        /* \"#utility.yul\":11595:11597   */\n      0x20\n        /* \"#utility.yul\":11584:11593   */\n      dup3\n        /* \"#utility.yul\":11580:11598   */\n      add\n        /* \"#utility.yul\":11572:11598   */\n      swap1\n      pop\n        /* \"#utility.yul\":11608:11679   */\n      tag_337\n        /* \"#utility.yul\":11676:11677   */\n      0x00\n        /* \"#utility.yul\":11665:11674   */\n      dup4\n        /* \"#utility.yul\":11661:11678   */\n      add\n        /* \"#utility.yul\":11652:11658   */\n      dup5\n        /* \"#utility.yul\":11608:11679   */\n      tag_319\n      jump\t// in\n    tag_337:\n        /* \"#utility.yul\":11464:11686   */\n      swap3\n      swap2\n      pop\n      pop\n      jump\t// out\n        /* \"#utility.yul\":11692:11821   */\n    tag_212:\n        /* \"#utility.yul\":11726:11732   */\n      0x00\n        /* \"#utility.yul\":11753:11773   */\n      tag_339\n      tag_340\n      jump\t// in\n    tag_339:\n        /* \"#utility.yul\":11743:11773   */\n      swap1\n      pop\n        /* \"#utility.yul\":11782:11815   */\n      tag_341\n        /* \"#utility.yul\":11810:11814   */\n      dup3\n        /* \"#utility.yul\":11802:11808   */\n      dup3\n        /* \"#utility.yul\":11782:11815   */\n      tag_342\n      jump\t// in\n    tag_341:\n        /* \"#utility.yul\":11692:11821   */\n      swap2\n      swap1\n      pop\n      jump\t// out\n        /* \"#utility.yul\":11827:11902   */\n    tag_340:\n        /* \"#utility.yul\":11860:11866   */\n      0x00\n        /* \"#utility.yul\":11893:11895   */\n      0x40\n        /* \"#utility.yul\":11887:11896   */\n      mload\n        /* \"#utility.yul\":11877:11896   */\n      swap1\n      pop\n        /* \"#utility.yul\":11827:11902   */\n      swap1\n      jump\t// out\n        /* \"#utility.yul\":11908:12216   */\n    tag_211:\n        /* \"#utility.yul\":11970:11974   */\n      0x00\n        /* \"#utility.yul\":12060:12078   */\n      0xffffffffffffffff\n        /* \"#utility.yul\":12052:12058   */\n      dup3\n        /* \"#utility.yul\":12049:12079   */\n      gt\n        /* \"#utility.yul\":12046:12102   */\n      iszero\n      tag_345\n      jumpi\n        /* \"#utility.yul\":12082:12100   */\n      tag_346\n      tag_95\n      jump\t// in\n    tag_346:\n        /* \"#utility.yul\":12046:12102   */\n    tag_345:\n        /* \"#utility.yul\":12120:12149   */\n      tag_347\n        /* \"#utility.yul\":12142:12148   */\n      dup3\n        /* \"#utility.yul\":12120:12149   */\n      tag_302\n      jump\t// in\n    tag_347:\n        /* \"#utility.yul\":12112:12149   */\n      swap1\n      pop\n        /* \"#utility.yul\":12204:12208   */\n      0x20\n        /* \"#utility.yul\":12198:12202   */\n      dup2\n        /* \"#utility.yul\":12194:12209   */\n      add\n        /* \"#utility.yul\":12186:12209   */\n      swap1\n      pop\n        /* \"#utility.yul\":11908:12216   */\n      swap2\n      swap1\n      pop\n      jump\t// out\n        /* \"#utility.yul\":12222:12374   */\n    tag_286:\n        /* \"#utility.yul\":12309:12313   */\n      0x00\n        /* \"#utility.yul\":12332:12335   */\n      dup2\n        /* \"#utility.yul\":12324:12335   */\n      swap1\n      pop\n        /* \"#utility.yul\":12362:12366   */\n      0x20\n        /* \"#utility.yul\":12357:12360   */\n      dup3\n        /* \"#utility.yul\":12353:12367   */\n      add\n        /* \"#utility.yul\":12345:12367   */\n      swap1\n      pop\n        /* \"#utility.yul\":12222:12374   */\n      swap2\n      swap1\n      pop\n      jump\t// out\n        /* \"#utility.yul\":12380:12514   */\n    tag_282:\n        /* \"#utility.yul\":12467:12473   */\n      0x00\n        /* \"#utility.yul\":12501:12506   */\n      dup2\n        /* \"#utility.yul\":12495:12507   */\n      mload\n        /* \"#utility.yul\":12485:12507   */\n      swap1\n      pop\n        /* \"#utility.yul\":12380:12514   */\n      swap2\n      swap1\n      pop\n      jump\t// out\n        /* \"#utility.yul\":12520:12619   */\n    tag_296:\n        /* \"#utility.yul\":12572:12578   */\n      0x00\n        /* \"#utility.yul\":12606:12611   */\n      dup2\n        /* \"#utility.yul\":12600:12612   */\n      mload\n        /* \"#utility.yul\":12590:12612   */\n      swap1\n      pop\n        /* \"#utility.yul\":12520:12619   */\n      swap2\n      swap1\n      pop\n      jump\t// out\n        /* \"#utility.yul\":12625:12758   */\n    tag_292:\n        /* \"#utility.yul\":12715:12719   */\n      0x00\n        /* \"#utility.yul\":12747:12751   */\n      0x20\n        /* \"#utility.yul\":12742:12745   */\n      dup3\n        /* \"#utility.yul\":12738:12752   */\n      add\n        /* \"#utility.yul\":12730:12752   */\n      swap1\n      pop\n        /* \"#utility.yul\":12625:12758   */\n      swap2\n      swap1\n      pop\n      jump\t// out\n        /* \"#utility.yul\":12764:12968   */\n    tag_284:\n        /* \"#utility.yul\":12883:12894   */\n      0x00\n        /* \"#utility.yul\":12917:12923   */\n      dup3\n        /* \"#utility.yul\":12912:12915   */\n      dup3\n        /* \"#utility.yul\":12905:12924   */\n      mstore\n        /* \"#utility.yul\":12957:12961   */\n      0x20\n        /* \"#utility.yul\":12952:12955   */\n      dup3\n        /* \"#utility.yul\":12948:12962   */\n      add\n        /* \"#utility.yul\":12933:12962   */\n      swap1\n      pop\n        /* \"#utility.yul\":12764:12968   */\n      swap3\n      swap2\n      pop\n      pop\n      jump\t// out\n        /* \"#utility.yul\":12974:13133   */\n    tag_298:\n        /* \"#utility.yul\":13048:13059   */\n      0x00\n        /* \"#utility.yul\":13082:13088   */\n      dup3\n        /* \"#utility.yul\":13077:13080   */\n      dup3\n        /* \"#utility.yul\":13070:13089   */\n      mstore\n        /* \"#utility.yul\":13122:13126   */\n      0x20\n        /* \"#utility.yul\":13117:13120   */\n      dup3\n        /* \"#utility.yul\":13113:13127   */\n      add\n        /* \"#utility.yul\":13098:13127   */\n      swap1\n      pop\n        /* \"#utility.yul\":12974:13133   */\n      swap3\n      swap2\n      pop\n      pop\n      jump\t// out\n        /* \"#utility.yul\":13139:13308   */\n    tag_307:\n        /* \"#utility.yul\":13223:13234   */\n      0x00\n        /* \"#utility.yul\":13257:13263   */\n      dup3\n        /* \"#utility.yul\":13252:13255   */\n      dup3\n        /* \"#utility.yul\":13245:13264   */\n      mstore\n        /* \"#utility.yul\":13297:13301   */\n      0x20\n        /* \"#utility.yul\":13292:13295   */\n      dup3\n        /* \"#utility.yul\":13288:13302   */\n      add\n        /* \"#utility.yul\":13273:13302   */\n      swap1\n      pop\n        /* \"#utility.yul\":13139:13308   */\n      swap3\n      swap2\n      pop\n      pop\n      jump\t// out\n        /* \"#utility.yul\":13314:13662   */\n    tag_92:\n        /* \"#utility.yul\":13354:13361   */\n      0x00\n        /* \"#utility.yul\":13377:13397   */\n      tag_356\n        /* \"#utility.yul\":13395:13396   */\n      dup3\n        /* \"#utility.yul\":13377:13397   */\n      tag_322\n      jump\t// in\n    tag_356:\n        /* \"#utility.yul\":13372:13397   */\n      swap2\n      pop\n        /* \"#utility.yul\":13411:13431   */\n      tag_357\n        /* \"#utility.yul\":13429:13430   */\n      dup4\n        /* \"#utility.yul\":13411:13431   */\n      tag_322\n      jump\t// in\n    tag_357:\n        /* \"#utility.yul\":13406:13431   */\n      swap3\n      pop\n        /* \"#utility.yul\":13599:13600   */\n      dup2\n        /* \"#utility.yul\":13531:13597   */\n      0xffffffffffffffffffffffffffffffffffffffffffffffffffffffffffffffff\n        /* \"#utility.yul\":13527:13601   */\n      div\n        /* \"#utility.yul\":13524:13525   */\n      dup4\n        /* \"#utility.yul\":13521:13602   */\n      gt\n        /* \"#utility.yul\":13516:13517   */\n      dup3\n        /* \"#utility.yul\":13509:13518   */\n      iszero\n        /* \"#utility.yul\":13502:13519   */\n      iszero\n        /* \"#utility.yul\":13498:13603   */\n      and\n        /* \"#utility.yul\":13495:13626   */\n      iszero\n      tag_358\n      jumpi\n        /* \"#utility.yul\":13606:13624   */\n      tag_359\n      tag_360\n      jump\t// in\n    tag_359:\n        /* \"#utility.yul\":13495:13626   */\n    tag_358:\n        /* \"#utility.yul\":13654:13655   */\n      dup3\n        /* \"#utility.yul\":13651:13652   */\n      dup3\n        /* \"#utility.yul\":13647:13656   */\n      mul\n        /* \"#utility.yul\":13636:13656   */\n      swap1\n      pop\n        /* \"#utility.yul\":13314:13662   */\n      swap3\n      swap2\n      pop\n      pop\n      jump\t// out\n        /* \"#utility.yul\":13668:13764   */\n    tag_275:\n        /* \"#utility.yul\":13705:13712   */\n      0x00\n        /* \"#utility.yul\":13734:13758   */\n      tag_362\n        /* \"#utility.yul\":13752:13757   */\n      dup3\n        /* \"#utility.yul\":13734:13758   */\n      tag_363\n      jump\t// in\n    tag_362:\n        /* \"#utility.yul\":13723:13758   */\n      swap1\n      pop\n        /* \"#utility.yul\":13668:13764   */\n      swap2\n      swap1\n      pop\n      jump\t// out\n        /* \"#utility.yul\":13770:13896   */\n    tag_363:\n        /* \"#utility.yul\":13807:13814   */\n      0x00\n        /* \"#utility.yul\":13847:13889   */\n      0xffffffffffffffffffffffffffffffffffffffff\n        /* \"#utility.yul\":13840:13845   */\n      dup3\n        /* \"#utility.yul\":13836:13890   */\n      and\n        /* \"#utility.yul\":13825:13890   */\n      swap1\n      pop\n        /* \"#utility.yul\":13770:13896   */\n      swap2\n      swap1\n      pop\n      jump\t// out\n        /* \"#utility.yul\":13902:13979   */\n    tag_322:\n        /* \"#utility.yul\":13939:13946   */\n      0x00\n        /* \"#utility.yul\":13968:13973   */\n      dup2\n        /* \"#utility.yul\":13957:13973   */\n      swap1\n      pop\n        /* \"#utility.yul\":13902:13979   */\n      swap2\n      swap1\n      pop\n      jump\t// out\n        /* \"#utility.yul\":13985:14139   */\n    tag_217:\n        /* \"#utility.yul\":14069:14075   */\n      dup3\n        /* \"#utility.yul\":14064:14067   */\n      dup2\n        /* \"#utility.yul\":14059:14062   */\n      dup4\n        /* \"#utility.yul\":14046:14076   */\n      calldatacopy\n        /* \"#utility.yul\":14131:14132   */\n      0x00\n        /* \"#utility.yul\":14122:14128   */\n      dup4\n        /* \"#utility.yul\":14117:14120   */\n      dup4\n        /* \"#utility.yul\":14113:14129   */\n      add\n        /* \"#utility.yul\":14106:14133   */\n      mstore\n        /* \"#utility.yul\":13985:14139   */\n      pop\n      pop\n      pop\n      jump\t// out\n        /* \"#utility.yul\":14145:14452   */\n    tag_300:\n        /* \"#utility.yul\":14213:14214   */\n      0x00\n        /* \"#utility.yul\":14223:14336   */\n    tag_368:\n        /* \"#utility.yul\":14237:14243   */\n      dup4\n        /* \"#utility.yul\":14234:14235   */\n      dup2\n        /* \"#utility.yul\":14231:14244   */\n      lt\n        /* \"#utility.yul\":14223:14336   */\n      iszero\n      tag_370\n      jumpi\n        /* \"#utility.yul\":14322:14323   */\n      dup1\n        /* \"#utility.yul\":14317:14320   */\n      dup3\n        /* \"#utility.yul\":14313:14324   */\n      add\n        /* \"#utility.yul\":14307:14325   */\n      mload\n        /* \"#utility.yul\":14303:14304   */\n      dup2\n        /* \"#utility.yul\":14298:14301   */\n      dup5\n        /* \"#utility.yul\":14294:14305   */\n      add\n        /* \"#utility.yul\":14287:14326   */\n      mstore\n        /* \"#utility.yul\":14259:14261   */\n      0x20\n        /* \"#utility.yul\":14256:14257   */\n      dup2\n        /* \"#utility.yul\":14252:14262   */\n      add\n        /* \"#utility.yul\":14247:14262   */\n      swap1\n      pop\n        /* \"#utility.yul\":14223:14336   */\n      jump(tag_368)\n    tag_370:\n        /* \"#utility.yul\":14354:14360   */\n      dup4\n        /* \"#utility.yul\":14351:14352   */\n      dup2\n        /* \"#utility.yul\":14348:14361   */\n      gt\n        /* \"#utility.yul\":14345:14446   */\n      iszero\n      tag_371\n      jumpi\n        /* \"#utility.yul\":14434:14435   */\n      0x00\n        /* \"#utility.yul\":14425:14431   */\n      dup5\n        /* \"#utility.yul\":14420:14423   */\n      dup5\n        /* \"#utility.yul\":14416:14432   */\n      add\n        /* \"#utility.yul\":14409:14436   */\n      mstore\n        /* \"#utility.yul\":14345:14446   */\n    tag_371:\n        /* \"#utility.yul\":14194:14452   */\n      pop\n        /* \"#utility.yul\":14145:14452   */\n      pop\n      pop\n      pop\n      jump\t// out\n        /* \"#utility.yul\":14458:14778   */\n    tag_40:\n        /* \"#utility.yul\":14502:14508   */\n      0x00\n        /* \"#utility.yul\":14539:14540   */\n      0x02\n        /* \"#utility.yul\":14533:14537   */\n      dup3\n        /* \"#utility.yul\":14529:14541   */\n      div\n        /* \"#utility.yul\":14519:14541   */\n      swap1\n      pop\n        /* \"#utility.yul\":14586:14587   */\n      0x01\n        /* \"#utility.yul\":14580:14584   */\n      dup3\n        /* \"#utility.yul\":14576:14588   */\n      and\n        /* \"#utility.yul\":14607:14625   */\n      dup1\n        /* \"#utility.yul\":14597:14678   */\n      tag_373\n      jumpi\n        /* \"#utility.yul\":14663:14667   */\n      0x7f\n        /* \"#utility.yul\":14655:14661   */\n      dup3\n        /* \"#utility.yul\":14651:14668   */\n      and\n        /* \"#utility.yul\":14641:14668   */\n      swap2\n      pop\n        /* \"#utility.yul\":14597:14678   */\n    tag_373:\n        /* \"#utility.yul\":14725:14727   */\n      0x20\n        /* \"#utility.yul\":14717:14723   */\n      dup3\n        /* \"#utility.yul\":14714:14728   */\n      lt\n        /* \"#utility.yul\":14694:14712   */\n      dup2\n        /* \"#utility.yul\":14691:14729   */\n      eq\n        /* \"#utility.yul\":14688:14772   */\n      iszero\n      tag_374\n      jumpi\n        /* \"#utility.yul\":14744:14762   */\n      tag_375\n      tag_376\n      jump\t// in\n    tag_375:\n        /* \"#utility.yul\":14688:14772   */\n    tag_374:\n        /* \"#utility.yul\":14509:14778   */\n      pop\n        /* \"#utility.yul\":14458:14778   */\n      swap2\n      swap1\n      pop\n      jump\t// out\n        /* \"#utility.yul\":14784:15065   */\n    tag_342:\n        /* \"#utility.yul\":14867:14894   */\n      tag_378\n        /* \"#utility.yul\":14889:14893   */\n      dup3\n        /* \"#utility.yul\":14867:14894   */\n      tag_302\n      jump\t// in\n    tag_378:\n        /* \"#utility.yul\":14859:14865   */\n      dup2\n        /* \"#utility.yul\":14855:14895   */\n      add\n        /* \"#utility.yul\":14997:15003   */\n      dup2\n        /* \"#utility.yul\":14985:14995   */\n      dup2\n        /* \"#utility.yul\":14982:15004   */\n      lt\n        /* \"#utility.yul\":14961:14979   */\n      0xffffffffffffffff\n        /* \"#utility.yul\":14949:14959   */\n      dup3\n        /* \"#utility.yul\":14946:14980   */\n      gt\n        /* \"#utility.yul\":14943:15005   */\n      or\n        /* \"#utility.yul\":14940:15028   */\n      iszero\n      tag_379\n      jumpi\n        /* \"#utility.yul\":15008:15026   */\n      tag_380\n      tag_95\n      jump\t// in\n    tag_380:\n        /* \"#utility.yul\":14940:15028   */\n    tag_379:\n        /* \"#utility.yul\":15048:15058   */\n      dup1\n        /* \"#utility.yul\":15044:15046   */\n      0x40\n        /* \"#utility.yul\":15037:15059   */\n      mstore\n        /* \"#utility.yul\":14827:15065   */\n      pop\n        /* \"#utility.yul\":14784:15065   */\n      pop\n      pop\n      jump\t// out\n        /* \"#utility.yul\":15071:15304   */\n    tag_87:\n        /* \"#utility.yul\":15110:15113   */\n      0x00\n        /* \"#utility.yul\":15133:15157   */\n      tag_382\n        /* \"#utility.yul\":15151:15156   */\n      dup3\n        /* \"#utility.yul\":15133:15157   */\n      tag_322\n      jump\t// in\n    tag_382:\n        /* \"#utility.yul\":15124:15157   */\n      swap2\n      pop\n        /* \"#utility.yul\":15179:15245   */\n      0xffffffffffffffffffffffffffffffffffffffffffffffffffffffffffffffff\n        /* \"#utility.yul\":15172:15177   */\n      dup3\n        /* \"#utility.yul\":15169:15246   */\n      eq\n        /* \"#utility.yul\":15166:15269   */\n      iszero\n      tag_383\n      jumpi\n        /* \"#utility.yul\":15249:15267   */\n      tag_384\n      tag_360\n      jump\t// in\n    tag_384:\n        /* \"#utility.yul\":15166:15269   */\n    tag_383:\n        /* \"#utility.yul\":15296:15297   */\n      0x01\n        /* \"#utility.yul\":15289:15294   */\n      dup3\n        /* \"#utility.yul\":15285:15298   */\n      add\n        /* \"#utility.yul\":15278:15298   */\n      swap1\n      pop\n        /* \"#utility.yul\":15071:15304   */\n      swap2\n      swap1\n      pop\n      jump\t// out\n        /* \"#utility.yul\":15310:15490   */\n    tag_360:\n        /* \"#utility.yul\":15358:15435   */\n      0x4e487b7100000000000000000000000000000000000000000000000000000000\n        /* \"#utility.yul\":15355:15356   */\n      0x00\n        /* \"#utility.yul\":15348:15436   */\n      mstore\n        /* \"#utility.yul\":15455:15459   */\n      0x11\n        /* \"#utility.yul\":15452:15453   */\n      0x04\n        /* \"#utility.yul\":15445:15460   */\n      mstore\n        /* \"#utility.yul\":15479:15483   */\n      0x24\n        /* \"#utility.yul\":15476:15477   */\n      0x00\n        /* \"#utility.yul\":15469:15484   */\n      revert\n        /* \"#utility.yul\":15496:15676   */\n    tag_376:\n        /* \"#utility.yul\":15544:15621   */\n      0x4e487b7100000000000000000000000000000000000000000000000000000000\n        /* \"#utility.yul\":15541:15542   */\n      0x00\n        /* \"#utility.yul\":15534:15622   */\n      mstore\n        /* \"#utility.yul\":15641:15645   */\n      0x22\n        /* \"#utility.yul\":15638:15639   */\n      0x04\n        /* \"#utility.yul\":15631:15646   */\n      mstore\n        /* \"#utility.yul\":15665:15669   */\n      0x24\n        /* \"#utility.yul\":15662:15663   */\n      0x00\n        /* \"#utility.yul\":15655:15670   */\n      revert\n        /* \"#utility.yul\":15682:15862   */\n    tag_105:\n        /* \"#utility.yul\":15730:15807   */\n      0x4e487b7100000000000000000000000000000000000000000000000000000000\n        /* \"#utility.yul\":15727:15728   */\n      0x00\n        /* \"#utility.yul\":15720:15808   */\n      mstore\n        /* \"#utility.yul\":15827:15831   */\n      0x32\n        /* \"#utility.yul\":15824:15825   */\n      0x04\n        /* \"#utility.yul\":15817:15832   */\n      mstore\n        /* \"#utility.yul\":15851:15855   */\n      0x24\n        /* \"#utility.yul\":15848:15849   */\n      0x00\n        /* \"#utility.yul\":15841:15856   */\n      revert\n        /* \"#utility.yul\":15868:16048   */\n    tag_95:\n        /* \"#utility.yul\":15916:15993   */\n      0x4e487b7100000000000000000000000000000000000000000000000000000000\n        /* \"#utility.yul\":15913:15914   */\n      0x00\n        /* \"#utility.yul\":15906:15994   */\n      mstore\n        /* \"#utility.yul\":16013:16017   */\n      0x41\n        /* \"#utility.yul\":16010:16011   */\n      0x04\n        /* \"#utility.yul\":16003:16018   */\n      mstore\n        /* \"#utility.yul\":16037:16041   */\n      0x24\n        /* \"#utility.yul\":16034:16035   */\n      0x00\n        /* \"#utility.yul\":16027:16042   */\n      revert\n        /* \"#utility.yul\":16054:16171   */\n    tag_226:\n        /* \"#utility.yul\":16163:16164   */\n      0x00\n        /* \"#utility.yul\":16160:16161   */\n      dup1\n        /* \"#utility.yul\":16153:16165   */\n      revert\n        /* \"#utility.yul\":16177:16294   */\n    tag_215:\n        /* \"#utility.yul\":16286:16287   */\n      0x00\n        /* \"#utility.yul\":16283:16284   */\n      dup1\n        /* \"#utility.yul\":16276:16288   */\n      revert\n        /* \"#utility.yul\":16300:16417   */\n    tag_239:\n        /* \"#utility.yul\":16409:16410   */\n      0x00\n        /* \"#utility.yul\":16406:16407   */\n      dup1\n        /* \"#utility.yul\":16399:16411   */\n      revert\n        /* \"#utility.yul\":16423:16540   */\n    tag_235:\n        /* \"#utility.yul\":16532:16533   */\n      0x00\n        /* \"#utility.yul\":16529:16530   */\n      dup1\n        /* \"#utility.yul\":16522:16534   */\n      revert\n        /* \"#utility.yul\":16546:16648   */\n    tag_302:\n        /* \"#utility.yul\":16587:16593   */\n      0x00\n        /* \"#utility.yul\":16638:16640   */\n      0x1f\n        /* \"#utility.yul\":16634:16641   */\n      not\n        /* \"#utility.yul\":16629:16631   */\n      0x1f\n        /* \"#utility.yul\":16622:16627   */\n      dup4\n        /* \"#utility.yul\":16618:16632   */\n      add\n        /* \"#utility.yul\":16614:16642   */\n      and\n        /* \"#utility.yul\":16604:16642   */\n      swap1\n      pop\n        /* \"#utility.yul\":16546:16648   */\n      swap2\n      swap1\n      pop\n      jump\t// out\n        /* \"#utility.yul\":16654:16776   */\n    tag_221:\n        /* \"#utility.yul\":16727:16751   */\n      tag_395\n        /* \"#utility.yul\":16745:16750   */\n      dup2\n        /* \"#utility.yul\":16727:16751   */\n      tag_275\n      jump\t// in\n    tag_395:\n        /* \"#utility.yul\":16720:16725   */\n      dup2\n        /* \"#utility.yul\":16717:16752   */\n      eq\n        /* \"#utility.yul\":16707:16770   */\n      tag_396\n      jumpi\n        /* \"#utility.yul\":16766:16767   */\n      0x00\n        /* \"#utility.yul\":16763:16764   */\n      dup1\n        /* \"#utility.yul\":16756:16768   */\n      revert\n        /* \"#utility.yul\":16707:16770   */\n    tag_396:\n        /* \"#utility.yul\":16654:16776   */\n      pop\n      jump\t// out\n        /* \"#utility.yul\":16782:16904   */\n    tag_231:\n        /* \"#utility.yul\":16855:16879   */\n      tag_398\n        /* \"#utility.yul\":16873:16878   */\n      dup2\n        /* \"#utility.yul\":16855:16879   */\n      tag_322\n      jump\t// in\n    tag_398:\n        /* \"#utility.yul\":16848:16853   */\n      dup2\n        /* \"#utility.yul\":16845:16880   */\n      eq\n        /* \"#utility.yul\":16835:16898   */\n      tag_399\n      jumpi\n        /* \"#utility.yul\":16894:16895   */\n      0x00\n        /* \"#utility.yul\":16891:16892   */\n      dup1\n        /* \"#utility.yul\":16884:16896   */\n      revert\n        /* \"#utility.yul\":16835:16898   */\n    tag_399:\n        /* \"#utility.yul\":16782:16904   */\n      pop\n      jump\t// out\n\n    auxdata: 0xa26469706673582212208b04950e7b011c4e826a63e94da4023879706d2fbea0e4706509e4869d6d751c64736f6c63430008070033\n}\n",
				"bytecode": {
					"linkReferences": {},
					"object": "608060405234801561001057600080fd5b50611d6e806100206000396000f3fe608060405234801561001057600080fd5b50600436106100625760003560e01c806309052679146100675780630d3eafd61461009e578063337c9ba6146100bc57806346b5bef1146100d8578063ad49d82114610108578063c996b7cc14610138575b600080fd5b610081600480360381019061007c9190611673565b610156565b60405161009598979695949392919061191f565b60405180910390f35b6100a6610593565b6040516100b391906119ce565b60405180910390f35b6100d660048036038101906100d191906114f9565b610599565b005b6100f260048036038101906100ed91906116b3565b6107e9565b6040516100ff91906118e2565b60405180910390f35b610122600480360381019061011d91906116b3565b610828565b60405161012f91906118fd565b60405180910390f35b610140610e71565b60405161014d91906118fd565b60405180910390f35b6000602052816000526040600020818154811061017257600080fd5b90600052602060002090600802016000915091505080600001805461019690611b7d565b80601f01602080910402602001604051908101604052809291908181526020018280546101c290611b7d565b801561020f5780601f106101e45761010080835404028352916020019161020f565b820191906000526020600020905b8154815290600101906020018083116101f257829003601f168201915b50505050509080600101805461022490611b7d565b80601f016020809104026020016040519081016040528092919081815260200182805461025090611b7d565b801561029d5780601f106102725761010080835404028352916020019161029d565b820191906000526020600020905b81548152906001019060200180831161028057829003601f168201915b5050505050908060020180546102b290611b7d565b80601f01602080910402602001604051908101604052809291908181526020018280546102de90611b7d565b801561032b5780601f106103005761010080835404028352916020019161032b565b820191906000526020600020905b81548152906001019060200180831161030e57829003601f168201915b50505050509080600301805461034090611b7d565b80601f016020809104026020016040519081016040528092919081815260200182805461036c90611b7d565b80156103b95780601f1061038e576101008083540402835291602001916103b9565b820191906000526020600020905b81548152906001019060200180831161039c57829003601f168201915b5050505050908060040180546103ce90611b7d565b80601f01602080910402602001604051908101604052809291908181526020018280546103fa90611b7d565b80156104475780601f1061041c57610100808354040283529160200191610447565b820191906000526020600020905b81548152906001019060200180831161042a57829003601f168201915b50505050509080600501805461045c90611b7d565b80601f016020809104026020016040519081016040528092919081815260200182805461048890611b7d565b80156104d55780601f106104aa576101008083540402835291602001916104d5565b820191906000526020600020905b8154815290600101906020018083116104b857829003601f168201915b5050505050908060060180546104ea90611b7d565b80601f016020809104026020016040519081016040528092919081815260200182805461051690611b7d565b80156105635780601f1061053857610100808354040283529160200191610563565b820191906000526020600020905b81548152906001019060200180831161054657829003601f168201915b5050505050908060070160009054906101000a900473ffffffffffffffffffffffffffffffffffffffff16905088565b60025481565b6000808973ffffffffffffffffffffffffffffffffffffffff1673ffffffffffffffffffffffffffffffffffffffff1681526020019081526020016000206040518061010001604052808981526020018881526020018781526020018681526020018581526020018481526020018381526020018a73ffffffffffffffffffffffffffffffffffffffff168152509080600181540180825580915050600190039060005260206000209060080201600090919091909150600082015181600001908051906020019061066c929190611361565b506020820151816001019080519060200190610689929190611361565b5060408201518160020190805190602001906106a6929190611361565b5060608201518160030190805190602001906106c3929190611361565b5060808201518160040190805190602001906106e0929190611361565b5060a08201518160050190805190602001906106fd929190611361565b5060c082015181600601908051906020019061071a929190611361565b5060e08201518160070160006101000a81548173ffffffffffffffffffffffffffffffffffffffff021916908373ffffffffffffffffffffffffffffffffffffffff16021790555050506001889080600181540180825580915050600190039060005260206000200160009091909190916101000a81548173ffffffffffffffffffffffffffffffffffffffff021916908373ffffffffffffffffffffffffffffffffffffffff160217905550600260008154809291906107da90611be0565b91905055505050505050505050565b600181815481106107f957600080fd5b906000526020600020016000915054906101000a900473ffffffffffffffffffffffffffffffffffffffff1681565b60606000600a9050600081600a61083f9190611aa5565b67ffffffffffffffff81111561085857610857611cb6565b5b60405190808252806020026020018201604052801561089157816020015b61087e6113e7565b8152602001906001900390816108765790505b5090506000808590505b600180549050811015610e65576000806000600184815481106108c1576108c0611c87565b5b9060005260206000200160009054906101000a900473ffffffffffffffffffffffffffffffffffffffff1673ffffffffffffffffffffffffffffffffffffffff1673ffffffffffffffffffffffffffffffffffffffff168152602001908152602001600020805480602002602001604051908101604052809291908181526020016000905b82821015610dcd57838290600052602060002090600802016040518061010001604052908160008201805461097a90611b7d565b80601f01602080910402602001604051908101604052809291908181526020018280546109a690611b7d565b80156109f35780601f106109c8576101008083540402835291602001916109f3565b820191906000526020600020905b8154815290600101906020018083116109d657829003601f168201915b50505050508152602001600182018054610a0c90611b7d565b80601f0160208091040260200160405190810160405280929190818152602001828054610a3890611b7d565b8015610a855780601f10610a5a57610100808354040283529160200191610a85565b820191906000526020600020905b815481529060010190602001808311610a6857829003601f168201915b50505050508152602001600282018054610a9e90611b7d565b80601f0160208091040260200160405190810160405280929190818152602001828054610aca90611b7d565b8015610b175780601f10610aec57610100808354040283529160200191610b17565b820191906000526020600020905b815481529060010190602001808311610afa57829003601f168201915b50505050508152602001600382018054610b3090611b7d565b80601f0160208091040260200160405190810160405280929190818152602001828054610b5c90611b7d565b8015610ba95780601f10610b7e57610100808354040283529160200191610ba9565b820191906000526020600020905b815481529060010190602001808311610b8c57829003601f168201915b50505050508152602001600482018054610bc290611b7d565b80601f0160208091040260200160405190810160405280929190818152602001828054610bee90611b7d565b8015610c3b5780601f10610c1057610100808354040283529160200191610c3b565b820191906000526020600020905b815481529060010190602001808311610c1e57829003601f168201915b50505050508152602001600582018054610c5490611b7d565b80601f0160208091040260200160405190810160405280929190818152602001828054610c8090611b7d565b8015610ccd5780601f10610ca257610100808354040283529160200191610ccd565b820191906000526020600020905b815481529060010190602001808311610cb057829003601f168201915b50505050508152602001600682018054610ce690611b7d565b80601f0160208091040260200160405190810160405280929190818152602001828054610d1290611b7d565b8015610d5f5780601f10610d3457610100808354040283529160200191610d5f565b820191906000526020600020905b815481529060010190602001808311610d4257829003601f168201915b505050505081526020016007820160009054906101000a900473ffffffffffffffffffffffffffffffffffffffff1673ffffffffffffffffffffffffffffffffffffffff1673ffffffffffffffffffffffffffffffffffffffff168152505081526020019060010190610946565b50505050905060005b815181108015610df15750600a86610dee9190611aa5565b84105b15610e5057818181518110610e0957610e08611c87565b5b6020026020010151858581518110610e2457610e23611c87565b5b60200260200101819052508380610e3a90611be0565b9450508080610e4890611be0565b915050610dd6565b50508080610e5d90611be0565b91505061089b565b50819350505050919050565b60606000803373ffffffffffffffffffffffffffffffffffffffff1673ffffffffffffffffffffffffffffffffffffffff168152602001908152602001600020805480602002602001604051908101604052809291908181526020016000905b82821015611358578382906000526020600020906008020160405180610100016040529081600082018054610f0590611b7d565b80601f0160208091040260200160405190810160405280929190818152602001828054610f3190611b7d565b8015610f7e5780601f10610f5357610100808354040283529160200191610f7e565b820191906000526020600020905b815481529060010190602001808311610f6157829003601f168201915b50505050508152602001600182018054610f9790611b7d565b80601f0160208091040260200160405190810160405280929190818152602001828054610fc390611b7d565b80156110105780601f10610fe557610100808354040283529160200191611010565b820191906000526020600020905b815481529060010190602001808311610ff357829003601f168201915b5050505050815260200160028201805461102990611b7d565b80601f016020809104026020016040519081016040528092919081815260200182805461105590611b7d565b80156110a25780601f10611077576101008083540402835291602001916110a2565b820191906000526020600020905b81548152906001019060200180831161108557829003601f168201915b505050505081526020016003820180546110bb90611b7d565b80601f01602080910402602001604051908101604052809291908181526020018280546110e790611b7d565b80156111345780601f1061110957610100808354040283529160200191611134565b820191906000526020600020905b81548152906001019060200180831161111757829003601f168201915b5050505050815260200160048201805461114d90611b7d565b80601f016020809104026020016040519081016040528092919081815260200182805461117990611b7d565b80156111c65780601f1061119b576101008083540402835291602001916111c6565b820191906000526020600020905b8154815290600101906020018083116111a957829003601f168201915b505050505081526020016005820180546111df90611b7d565b80601f016020809104026020016040519081016040528092919081815260200182805461120b90611b7d565b80156112585780601f1061122d57610100808354040283529160200191611258565b820191906000526020600020905b81548152906001019060200180831161123b57829003601f168201915b5050505050815260200160068201805461127190611b7d565b80601f016020809104026020016040519081016040528092919081815260200182805461129d90611b7d565b80156112ea5780601f106112bf576101008083540402835291602001916112ea565b820191906000526020600020905b8154815290600101906020018083116112cd57829003601f168201915b505050505081526020016007820160009054906101000a900473ffffffffffffffffffffffffffffffffffffffff1673ffffffffffffffffffffffffffffffffffffffff1673ffffffffffffffffffffffffffffffffffffffff168152505081526020019060010190610ed1565b50505050905090565b82805461136d90611b7d565b90600052602060002090601f01602090048101928261138f57600085556113d6565b82601f106113a857805160ff19168380011785556113d6565b828001600101855582156113d6579182015b828111156113d55782518255916020019190600101906113ba565b5b5090506113e39190611442565b5090565b60405180610100016040528060608152602001606081526020016060815260200160608152602001606081526020016060815260200160608152602001600073ffffffffffffffffffffffffffffffffffffffff1681525090565b5b8082111561145b576000816000905550600101611443565b5090565b600061147261146d84611a0e565b6119e9565b90508281526020810184848401111561148e5761148d611cea565b5b611499848285611b3b565b509392505050565b6000813590506114b081611d0a565b92915050565b600082601f8301126114cb576114ca611ce5565b5b81356114db84826020860161145f565b91505092915050565b6000813590506114f381611d21565b92915050565b600080600080600080600080610100898b03121561151a57611519611cf4565b5b60006115288b828c016114a1565b985050602089013567ffffffffffffffff81111561154957611548611cef565b5b6115558b828c016114b6565b975050604089013567ffffffffffffffff81111561157657611575611cef565b5b6115828b828c016114b6565b965050606089013567ffffffffffffffff8111156115a3576115a2611cef565b5b6115af8b828c016114b6565b955050608089013567ffffffffffffffff8111156115d0576115cf611cef565b5b6115dc8b828c016114b6565b94505060a089013567ffffffffffffffff8111156115fd576115fc611cef565b5b6116098b828c016114b6565b93505060c089013567ffffffffffffffff81111561162a57611629611cef565b5b6116368b828c016114b6565b92505060e089013567ffffffffffffffff81111561165757611656611cef565b5b6116638b828c016114b6565b9150509295985092959890939650565b6000806040838503121561168a57611689611cf4565b5b6000611698858286016114a1565b92505060206116a9858286016114e4565b9150509250929050565b6000602082840312156116c9576116c8611cf4565b5b60006116d7848285016114e4565b91505092915050565b60006116ec83836117f9565b905092915050565b6116fd81611aff565b82525050565b61170c81611aff565b82525050565b600061171d82611a4f565b6117278185611a72565b93508360208202850161173985611a3f565b8060005b85811015611775578484038952815161175685826116e0565b945061176183611a65565b925060208a0199505060018101905061173d565b50829750879550505050505092915050565b600061179282611a5a565b61179c8185611a83565b93506117ac818560208601611b4a565b6117b581611cf9565b840191505092915050565b60006117cb82611a5a565b6117d58185611a94565b93506117e5818560208601611b4a565b6117ee81611cf9565b840191505092915050565b60006101008301600083015184820360008601526118178282611787565b915050602083015184820360208601526118318282611787565b9150506040830151848203604086015261184b8282611787565b915050606083015184820360608601526118658282611787565b9150506080830151848203608086015261187f8282611787565b91505060a083015184820360a08601526118998282611787565b91505060c083015184820360c08601526118b38282611787565b91505060e08301516118c860e08601826116f4565b508091505092915050565b6118dc81611b31565b82525050565b60006020820190506118f76000830184611703565b92915050565b600060208201905081810360008301526119178184611712565b905092915050565b600061010082019050818103600083015261193a818b6117c0565b9050818103602083015261194e818a6117c0565b9050818103604083015261196281896117c0565b9050818103606083015261197681886117c0565b9050818103608083015261198a81876117c0565b905081810360a083015261199e81866117c0565b905081810360c08301526119b281856117c0565b90506119c160e0830184611703565b9998505050505050505050565b60006020820190506119e360008301846118d3565b92915050565b60006119f3611a04565b90506119ff8282611baf565b919050565b6000604051905090565b600067ffffffffffffffff821115611a2957611a28611cb6565b5b611a3282611cf9565b9050602081019050919050565b6000819050602082019050919050565b600081519050919050565b600081519050919050565b6000602082019050919050565b600082825260208201905092915050565b600082825260208201905092915050565b600082825260208201905092915050565b6000611ab082611b31565b9150611abb83611b31565b9250817fffffffffffffffffffffffffffffffffffffffffffffffffffffffffffffffff0483118215151615611af457611af3611c29565b5b828202905092915050565b6000611b0a82611b11565b9050919050565b600073ffffffffffffffffffffffffffffffffffffffff82169050919050565b6000819050919050565b82818337600083830152505050565b60005b83811015611b68578082015181840152602081019050611b4d565b83811115611b77576000848401525b50505050565b60006002820490506001821680611b9557607f821691505b60208210811415611ba957611ba8611c58565b5b50919050565b611bb882611cf9565b810181811067ffffffffffffffff82111715611bd757611bd6611cb6565b5b80604052505050565b6000611beb82611b31565b91507fffffffffffffffffffffffffffffffffffffffffffffffffffffffffffffffff821415611c1e57611c1d611c29565b5b600182019050919050565b7f4e487b7100000000000000000000000000000000000000000000000000000000600052601160045260246000fd5b7f4e487b7100000000000000000000000000000000000000000000000000000000600052602260045260246000fd5b7f4e487b7100000000000000000000000000000000000000000000000000000000600052603260045260246000fd5b7f4e487b7100000000000000000000000000000000000000000000000000000000600052604160045260246000fd5b600080fd5b600080fd5b600080fd5b600080fd5b6000601f19601f8301169050919050565b611d1381611aff565b8114611d1e57600080fd5b50565b611d2a81611b31565b8114611d3557600080fd5b5056fea26469706673582212208b04950e7b011c4e826a63e94da4023879706d2fbea0e4706509e4869d6d751c64736f6c63430008070033",
					"opcodes": "PUSH1 0x80 PUSH1 0x40 MSTORE CALLVALUE DUP1 ISZERO PUSH2 0x10 JUMPI PUSH1 0x0 DUP1 REVERT JUMPDEST POP PUSH2 0x1D6E DUP1 PUSH2 0x20 PUSH1 0x0 CODECOPY PUSH1 0x0 RETURN INVALID PUSH1 0x80 PUSH1 0x40 MSTORE CALLVALUE DUP1 ISZERO PUSH2 0x10 JUMPI PUSH1 0x0 DUP1 REVERT JUMPDEST POP PUSH1 0x4 CALLDATASIZE LT PUSH2 0x62 JUMPI PUSH1 0x0 CALLDATALOAD PUSH1 0xE0 SHR DUP1 PUSH4 0x9052679 EQ PUSH2 0x67 JUMPI DUP1 PUSH4 0xD3EAFD6 EQ PUSH2 0x9E JUMPI DUP1 PUSH4 0x337C9BA6 EQ PUSH2 0xBC JUMPI DUP1 PUSH4 0x46B5BEF1 EQ PUSH2 0xD8 JUMPI DUP1 PUSH4 0xAD49D821 EQ PUSH2 0x108 JUMPI DUP1 PUSH4 0xC996B7CC EQ PUSH2 0x138 JUMPI JUMPDEST PUSH1 0x0 DUP1 REVERT JUMPDEST PUSH2 0x81 PUSH1 0x4 DUP1 CALLDATASIZE SUB DUP2 ADD SWAP1 PUSH2 0x7C SWAP2 SWAP1 PUSH2 0x1673 JUMP JUMPDEST PUSH2 0x156 JUMP JUMPDEST PUSH1 0x40 MLOAD PUSH2 0x95 SWAP9 SWAP8 SWAP7 SWAP6 SWAP5 SWAP4 SWAP3 SWAP2 SWAP1 PUSH2 0x191F JUMP JUMPDEST PUSH1 0x40 MLOAD DUP1 SWAP2 SUB SWAP1 RETURN JUMPDEST PUSH2 0xA6 PUSH2 0x593 JUMP JUMPDEST PUSH1 0x40 MLOAD PUSH2 0xB3 SWAP2 SWAP1 PUSH2 0x19CE JUMP JUMPDEST PUSH1 0x40 MLOAD DUP1 SWAP2 SUB SWAP1 RETURN JUMPDEST PUSH2 0xD6 PUSH1 0x4 DUP1 CALLDATASIZE SUB DUP2 ADD SWAP1 PUSH2 0xD1 SWAP2 SWAP1 PUSH2 0x14F9 JUMP JUMPDEST PUSH2 0x599 JUMP JUMPDEST STOP JUMPDEST PUSH2 0xF2 PUSH1 0x4 DUP1 CALLDATASIZE SUB DUP2 ADD SWAP1 PUSH2 0xED SWAP2 SWAP1 PUSH2 0x16B3 JUMP JUMPDEST PUSH2 0x7E9 JUMP JUMPDEST PUSH1 0x40 MLOAD PUSH2 0xFF SWAP2 SWAP1 PUSH2 0x18E2 JUMP JUMPDEST PUSH1 0x40 MLOAD DUP1 SWAP2 SUB SWAP1 RETURN JUMPDEST PUSH2 0x122 PUSH1 0x4 DUP1 CALLDATASIZE SUB DUP2 ADD SWAP1 PUSH2 0x11D SWAP2 SWAP1 PUSH2 0x16B3 JUMP JUMPDEST PUSH2 0x828 JUMP JUMPDEST PUSH1 0x40 MLOAD PUSH2 0x12F SWAP2 SWAP1 PUSH2 0x18FD JUMP JUMPDEST PUSH1 0x40 MLOAD DUP1 SWAP2 SUB SWAP1 RETURN JUMPDEST PUSH2 0x140 PUSH2 0xE71 JUMP JUMPDEST PUSH1 0x40 MLOAD PUSH2 0x14D SWAP2 SWAP1 PUSH2 0x18FD JUMP JUMPDEST PUSH1 0x40 MLOAD DUP1 SWAP2 SUB SWAP1 RETURN JUMPDEST PUSH1 0x0 PUSH1 0x20 MSTORE DUP2 PUSH1 0x0 MSTORE PUSH1 0x40 PUSH1 0x0 KECCAK256 DUP2 DUP2 SLOAD DUP2 LT PUSH2 0x172 JUMPI PUSH1 0x0 DUP1 REVERT JUMPDEST SWAP1 PUSH1 0x0 MSTORE PUSH1 0x20 PUSH1 0x0 KECCAK256 SWAP1 PUSH1 0x8 MUL ADD PUSH1 0x0 SWAP2 POP SWAP2 POP POP DUP1 PUSH1 0x0 ADD DUP1 SLOAD PUSH2 0x196 SWAP1 PUSH2 0x1B7D JUMP JUMPDEST DUP1 PUSH1 0x1F ADD PUSH1 0x20 DUP1 SWAP2 DIV MUL PUSH1 0x20 ADD PUSH1 0x40 MLOAD SWAP1 DUP2 ADD PUSH1 0x40 MSTORE DUP1 SWAP3 SWAP2 SWAP1 DUP2 DUP2 MSTORE PUSH1 0x20 ADD DUP3 DUP1 SLOAD PUSH2 0x1C2 SWAP1 PUSH2 0x1B7D JUMP JUMPDEST DUP1 ISZERO PUSH2 0x20F JUMPI DUP1 PUSH1 0x1F LT PUSH2 0x1E4 JUMPI PUSH2 0x100 DUP1 DUP4 SLOAD DIV MUL DUP4 MSTORE SWAP2 PUSH1 0x20 ADD SWAP2 PUSH2 0x20F JUMP JUMPDEST DUP3 ADD SWAP2 SWAP1 PUSH1 0x0 MSTORE PUSH1 0x20 PUSH1 0x0 KECCAK256 SWAP1 JUMPDEST DUP2 SLOAD DUP2 MSTORE SWAP1 PUSH1 0x1 ADD SWAP1 PUSH1 0x20 ADD DUP1 DUP4 GT PUSH2 0x1F2 JUMPI DUP3 SWAP1 SUB PUSH1 0x1F AND DUP3 ADD SWAP2 JUMPDEST POP POP POP POP POP SWAP1 DUP1 PUSH1 0x1 ADD DUP1 SLOAD PUSH2 0x224 SWAP1 PUSH2 0x1B7D JUMP JUMPDEST DUP1 PUSH1 0x1F ADD PUSH1 0x20 DUP1 SWAP2 DIV MUL PUSH1 0x20 ADD PUSH1 0x40 MLOAD SWAP1 DUP2 ADD PUSH1 0x40 MSTORE DUP1 SWAP3 SWAP2 SWAP1 DUP2 DUP2 MSTORE PUSH1 0x20 ADD DUP3 DUP1 SLOAD PUSH2 0x250 SWAP1 PUSH2 0x1B7D JUMP JUMPDEST DUP1 ISZERO PUSH2 0x29D JUMPI DUP1 PUSH1 0x1F LT PUSH2 0x272 JUMPI PUSH2 0x100 DUP1 DUP4 SLOAD DIV MUL DUP4 MSTORE SWAP2 PUSH1 0x20 ADD SWAP2 PUSH2 0x29D JUMP JUMPDEST DUP3 ADD SWAP2 SWAP1 PUSH1 0x0 MSTORE PUSH1 0x20 PUSH1 0x0 KECCAK256 SWAP1 JUMPDEST DUP2 SLOAD DUP2 MSTORE SWAP1 PUSH1 0x1 ADD SWAP1 PUSH1 0x20 ADD DUP1 DUP4 GT PUSH2 0x280 JUMPI DUP3 SWAP1 SUB PUSH1 0x1F AND DUP3 ADD SWAP2 JUMPDEST POP POP POP POP POP SWAP1 DUP1 PUSH1 0x2 ADD DUP1 SLOAD PUSH2 0x2B2 SWAP1 PUSH2 0x1B7D JUMP JUMPDEST DUP1 PUSH1 0x1F ADD PUSH1 0x20 DUP1 SWAP2 DIV MUL PUSH1 0x20 ADD PUSH1 0x40 MLOAD SWAP1 DUP2 ADD PUSH1 0x40 MSTORE DUP1 SWAP3 SWAP2 SWAP1 DUP2 DUP2 MSTORE PUSH1 0x20 ADD DUP3 DUP1 SLOAD PUSH2 0x2DE SWAP1 PUSH2 0x1B7D JUMP JUMPDEST DUP1 ISZERO PUSH2 0x32B JUMPI DUP1 PUSH1 0x1F LT PUSH2 0x300 JUMPI PUSH2 0x100 DUP1 DUP4 SLOAD DIV MUL DUP4 MSTORE SWAP2 PUSH1 0x20 ADD SWAP2 PUSH2 0x32B JUMP JUMPDEST DUP3 ADD SWAP2 SWAP1 PUSH1 0x0 MSTORE PUSH1 0x20 PUSH1 0x0 KECCAK256 SWAP1 JUMPDEST DUP2 SLOAD DUP2 MSTORE SWAP1 PUSH1 0x1 ADD SWAP1 PUSH1 0x20 ADD DUP1 DUP4 GT PUSH2 0x30E JUMPI DUP3 SWAP1 SUB PUSH1 0x1F AND DUP3 ADD SWAP2 JUMPDEST POP POP POP POP POP SWAP1 DUP1 PUSH1 0x3 ADD DUP1 SLOAD PUSH2 0x340 SWAP1 PUSH2 0x1B7D JUMP JUMPDEST DUP1 PUSH1 0x1F ADD PUSH1 0x20 DUP1 SWAP2 DIV MUL PUSH1 0x20 ADD PUSH1 0x40 MLOAD SWAP1 DUP2 ADD PUSH1 0x40 MSTORE DUP1 SWAP3 SWAP2 SWAP1 DUP2 DUP2 MSTORE PUSH1 0x20 ADD DUP3 DUP1 SLOAD PUSH2 0x36C SWAP1 PUSH2 0x1B7D JUMP JUMPDEST DUP1 ISZERO PUSH2 0x3B9 JUMPI DUP1 PUSH1 0x1F LT PUSH2 0x38E JUMPI PUSH2 0x100 DUP1 DUP4 SLOAD DIV MUL DUP4 MSTORE SWAP2 PUSH1 0x20 ADD SWAP2 PUSH2 0x3B9 JUMP JUMPDEST DUP3 ADD SWAP2 SWAP1 PUSH1 0x0 MSTORE PUSH1 0x20 PUSH1 0x0 KECCAK256 SWAP1 JUMPDEST DUP2 SLOAD DUP2 MSTORE SWAP1 PUSH1 0x1 ADD SWAP1 PUSH1 0x20 ADD DUP1 DUP4 GT PUSH2 0x39C JUMPI DUP3 SWAP1 SUB PUSH1 0x1F AND DUP3 ADD SWAP2 JUMPDEST POP POP POP POP POP SWAP1 DUP1 PUSH1 0x4 ADD DUP1 SLOAD PUSH2 0x3CE SWAP1 PUSH2 0x1B7D JUMP JUMPDEST DUP1 PUSH1 0x1F ADD PUSH1 0x20 DUP1 SWAP2 DIV MUL PUSH1 0x20 ADD PUSH1 0x40 MLOAD SWAP1 DUP2 ADD PUSH1 0x40 MSTORE DUP1 SWAP3 SWAP2 SWAP1 DUP2 DUP2 MSTORE PUSH1 0x20 ADD DUP3 DUP1 SLOAD PUSH2 0x3FA SWAP1 PUSH2 0x1B7D JUMP JUMPDEST DUP1 ISZERO PUSH2 0x447 JUMPI DUP1 PUSH1 0x1F LT PUSH2 0x41C JUMPI PUSH2 0x100 DUP1 DUP4 SLOAD DIV MUL DUP4 MSTORE SWAP2 PUSH1 0x20 ADD SWAP2 PUSH2 0x447 JUMP JUMPDEST DUP3 ADD SWAP2 SWAP1 PUSH1 0x0 MSTORE PUSH1 0x20 PUSH1 0x0 KECCAK256 SWAP1 JUMPDEST DUP2 SLOAD DUP2 MSTORE SWAP1 PUSH1 0x1 ADD SWAP1 PUSH1 0x20 ADD DUP1 DUP4 GT PUSH2 0x42A JUMPI DUP3 SWAP1 SUB PUSH1 0x1F AND DUP3 ADD SWAP2 JUMPDEST POP POP POP POP POP SWAP1 DUP1 PUSH1 0x5 ADD DUP1 SLOAD PUSH2 0x45C SWAP1 PUSH2 0x1B7D JUMP JUMPDEST DUP1 PUSH1 0x1F ADD PUSH1 0x20 DUP1 SWAP2 DIV MUL PUSH1 0x20 ADD PUSH1 0x40 MLOAD SWAP1 DUP2 ADD PUSH1 0x40 MSTORE DUP1 SWAP3 SWAP2 SWAP1 DUP2 DUP2 MSTORE PUSH1 0x20 ADD DUP3 DUP1 SLOAD PUSH2 0x488 SWAP1 PUSH2 0x1B7D JUMP JUMPDEST DUP1 ISZERO PUSH2 0x4D5 JUMPI DUP1 PUSH1 0x1F LT PUSH2 0x4AA JUMPI PUSH2 0x100 DUP1 DUP4 SLOAD DIV MUL DUP4 MSTORE SWAP2 PUSH1 0x20 ADD SWAP2 PUSH2 0x4D5 JUMP JUMPDEST DUP3 ADD SWAP2 SWAP1 PUSH1 0x0 MSTORE PUSH1 0x20 PUSH1 0x0 KECCAK256 SWAP1 JUMPDEST DUP2 SLOAD DUP2 MSTORE SWAP1 PUSH1 0x1 ADD SWAP1 PUSH1 0x20 ADD DUP1 DUP4 GT PUSH2 0x4B8 JUMPI DUP3 SWAP1 SUB PUSH1 0x1F AND DUP3 ADD SWAP2 JUMPDEST POP POP POP POP POP SWAP1 DUP1 PUSH1 0x6 ADD DUP1 SLOAD PUSH2 0x4EA SWAP1 PUSH2 0x1B7D JUMP JUMPDEST DUP1 PUSH1 0x1F ADD PUSH1 0x20 DUP1 SWAP2 DIV MUL PUSH1 0x20 ADD PUSH1 0x40 MLOAD SWAP1 DUP2 ADD PUSH1 0x40 MSTORE DUP1 SWAP3 SWAP2 SWAP1 DUP2 DUP2 MSTORE PUSH1 0x20 ADD DUP3 DUP1 SLOAD PUSH2 0x516 SWAP1 PUSH2 0x1B7D JUMP JUMPDEST DUP1 ISZERO PUSH2 0x563 JUMPI DUP1 PUSH1 0x1F LT PUSH2 0x538 JUMPI PUSH2 0x100 DUP1 DUP4 SLOAD DIV MUL DUP4 MSTORE SWAP2 PUSH1 0x20 ADD SWAP2 PUSH2 0x563 JUMP JUMPDEST DUP3 ADD SWAP2 SWAP1 PUSH1 0x0 MSTORE PUSH1 0x20 PUSH1 0x0 KECCAK256 SWAP1 JUMPDEST DUP2 SLOAD DUP2 MSTORE SWAP1 PUSH1 0x1 ADD SWAP1 PUSH1 0x20 ADD DUP1 DUP4 GT PUSH2 0x546 JUMPI DUP3 SWAP1 SUB PUSH1 0x1F AND DUP3 ADD SWAP2 JUMPDEST POP POP POP POP POP SWAP1 DUP1 PUSH1 0x7 ADD PUSH1 0x0 SWAP1 SLOAD SWAP1 PUSH2 0x100 EXP SWAP1 DIV PUSH20 0xFFFFFFFFFFFFFFFFFFFFFFFFFFFFFFFFFFFFFFFF AND SWAP1 POP DUP9 JUMP JUMPDEST PUSH1 0x2 SLOAD DUP2 JUMP JUMPDEST PUSH1 0x0 DUP1 DUP10 PUSH20 0xFFFFFFFFFFFFFFFFFFFFFFFFFFFFFFFFFFFFFFFF AND PUSH20 0xFFFFFFFFFFFFFFFFFFFFFFFFFFFFFFFFFFFFFFFF AND DUP2 MSTORE PUSH1 0x20 ADD SWAP1 DUP2 MSTORE PUSH1 0x20 ADD PUSH1 0x0 KECCAK256 PUSH1 0x40 MLOAD DUP1 PUSH2 0x100 ADD PUSH1 0x40 MSTORE DUP1 DUP10 DUP2 MSTORE PUSH1 0x20 ADD DUP9 DUP2 MSTORE PUSH1 0x20 ADD DUP8 DUP2 MSTORE PUSH1 0x20 ADD DUP7 DUP2 MSTORE PUSH1 0x20 ADD DUP6 DUP2 MSTORE PUSH1 0x20 ADD DUP5 DUP2 MSTORE PUSH1 0x20 ADD DUP4 DUP2 MSTORE PUSH1 0x20 ADD DUP11 PUSH20 0xFFFFFFFFFFFFFFFFFFFFFFFFFFFFFFFFFFFFFFFF AND DUP2 MSTORE POP SWAP1 DUP1 PUSH1 0x1 DUP2 SLOAD ADD DUP1 DUP3 SSTORE DUP1 SWAP2 POP POP PUSH1 0x1 SWAP1 SUB SWAP1 PUSH1 0x0 MSTORE PUSH1 0x20 PUSH1 0x0 KECCAK256 SWAP1 PUSH1 0x8 MUL ADD PUSH1 0x0 SWAP1 SWAP2 SWAP1 SWAP2 SWAP1 SWAP2 POP PUSH1 0x0 DUP3 ADD MLOAD DUP2 PUSH1 0x0 ADD SWAP1 DUP1 MLOAD SWAP1 PUSH1 0x20 ADD SWAP1 PUSH2 0x66C SWAP3 SWAP2 SWAP1 PUSH2 0x1361 JUMP JUMPDEST POP PUSH1 0x20 DUP3 ADD MLOAD DUP2 PUSH1 0x1 ADD SWAP1 DUP1 MLOAD SWAP1 PUSH1 0x20 ADD SWAP1 PUSH2 0x689 SWAP3 SWAP2 SWAP1 PUSH2 0x1361 JUMP JUMPDEST POP PUSH1 0x40 DUP3 ADD MLOAD DUP2 PUSH1 0x2 ADD SWAP1 DUP1 MLOAD SWAP1 PUSH1 0x20 ADD SWAP1 PUSH2 0x6A6 SWAP3 SWAP2 SWAP1 PUSH2 0x1361 JUMP JUMPDEST POP PUSH1 0x60 DUP3 ADD MLOAD DUP2 PUSH1 0x3 ADD SWAP1 DUP1 MLOAD SWAP1 PUSH1 0x20 ADD SWAP1 PUSH2 0x6C3 SWAP3 SWAP2 SWAP1 PUSH2 0x1361 JUMP JUMPDEST POP PUSH1 0x80 DUP3 ADD MLOAD DUP2 PUSH1 0x4 ADD SWAP1 DUP1 MLOAD SWAP1 PUSH1 0x20 ADD SWAP1 PUSH2 0x6E0 SWAP3 SWAP2 SWAP1 PUSH2 0x1361 JUMP JUMPDEST POP PUSH1 0xA0 DUP3 ADD MLOAD DUP2 PUSH1 0x5 ADD SWAP1 DUP1 MLOAD SWAP1 PUSH1 0x20 ADD SWAP1 PUSH2 0x6FD SWAP3 SWAP2 SWAP1 PUSH2 0x1361 JUMP JUMPDEST POP PUSH1 0xC0 DUP3 ADD MLOAD DUP2 PUSH1 0x6 ADD SWAP1 DUP1 MLOAD SWAP1 PUSH1 0x20 ADD SWAP1 PUSH2 0x71A SWAP3 SWAP2 SWAP1 PUSH2 0x1361 JUMP JUMPDEST POP PUSH1 0xE0 DUP3 ADD MLOAD DUP2 PUSH1 0x7 ADD PUSH1 0x0 PUSH2 0x100 EXP DUP2 SLOAD DUP2 PUSH20 0xFFFFFFFFFFFFFFFFFFFFFFFFFFFFFFFFFFFFFFFF MUL NOT AND SWAP1 DUP4 PUSH20 0xFFFFFFFFFFFFFFFFFFFFFFFFFFFFFFFFFFFFFFFF AND MUL OR SWAP1 SSTORE POP POP POP PUSH1 0x1 DUP9 SWAP1 DUP1 PUSH1 0x1 DUP2 SLOAD ADD DUP1 DUP3 SSTORE DUP1 SWAP2 POP POP PUSH1 0x1 SWAP1 SUB SWAP1 PUSH1 0x0 MSTORE PUSH1 0x20 PUSH1 0x0 KECCAK256 ADD PUSH1 0x0 SWAP1 SWAP2 SWAP1 SWAP2 SWAP1 SWAP2 PUSH2 0x100 EXP DUP2 SLOAD DUP2 PUSH20 0xFFFFFFFFFFFFFFFFFFFFFFFFFFFFFFFFFFFFFFFF MUL NOT AND SWAP1 DUP4 PUSH20 0xFFFFFFFFFFFFFFFFFFFFFFFFFFFFFFFFFFFFFFFF AND MUL OR SWAP1 SSTORE POP PUSH1 0x2 PUSH1 0x0 DUP2 SLOAD DUP1 SWAP3 SWAP2 SWAP1 PUSH2 0x7DA SWAP1 PUSH2 0x1BE0 JUMP JUMPDEST SWAP2 SWAP1 POP SSTORE POP POP POP POP POP POP POP POP POP JUMP JUMPDEST PUSH1 0x1 DUP2 DUP2 SLOAD DUP2 LT PUSH2 0x7F9 JUMPI PUSH1 0x0 DUP1 REVERT JUMPDEST SWAP1 PUSH1 0x0 MSTORE PUSH1 0x20 PUSH1 0x0 KECCAK256 ADD PUSH1 0x0 SWAP2 POP SLOAD SWAP1 PUSH2 0x100 EXP SWAP1 DIV PUSH20 0xFFFFFFFFFFFFFFFFFFFFFFFFFFFFFFFFFFFFFFFF AND DUP2 JUMP JUMPDEST PUSH1 0x60 PUSH1 0x0 PUSH1 0xA SWAP1 POP PUSH1 0x0 DUP2 PUSH1 0xA PUSH2 0x83F SWAP2 SWAP1 PUSH2 0x1AA5 JUMP JUMPDEST PUSH8 0xFFFFFFFFFFFFFFFF DUP2 GT ISZERO PUSH2 0x858 JUMPI PUSH2 0x857 PUSH2 0x1CB6 JUMP JUMPDEST JUMPDEST PUSH1 0x40 MLOAD SWAP1 DUP1 DUP3 MSTORE DUP1 PUSH1 0x20 MUL PUSH1 0x20 ADD DUP3 ADD PUSH1 0x40 MSTORE DUP1 ISZERO PUSH2 0x891 JUMPI DUP2 PUSH1 0x20 ADD JUMPDEST PUSH2 0x87E PUSH2 0x13E7 JUMP JUMPDEST DUP2 MSTORE PUSH1 0x20 ADD SWAP1 PUSH1 0x1 SWAP1 SUB SWAP1 DUP2 PUSH2 0x876 JUMPI SWAP1 POP JUMPDEST POP SWAP1 POP PUSH1 0x0 DUP1 DUP6 SWAP1 POP JUMPDEST PUSH1 0x1 DUP1 SLOAD SWAP1 POP DUP2 LT ISZERO PUSH2 0xE65 JUMPI PUSH1 0x0 DUP1 PUSH1 0x0 PUSH1 0x1 DUP5 DUP2 SLOAD DUP2 LT PUSH2 0x8C1 JUMPI PUSH2 0x8C0 PUSH2 0x1C87 JUMP JUMPDEST JUMPDEST SWAP1 PUSH1 0x0 MSTORE PUSH1 0x20 PUSH1 0x0 KECCAK256 ADD PUSH1 0x0 SWAP1 SLOAD SWAP1 PUSH2 0x100 EXP SWAP1 DIV PUSH20 0xFFFFFFFFFFFFFFFFFFFFFFFFFFFFFFFFFFFFFFFF AND PUSH20 0xFFFFFFFFFFFFFFFFFFFFFFFFFFFFFFFFFFFFFFFF AND PUSH20 0xFFFFFFFFFFFFFFFFFFFFFFFFFFFFFFFFFFFFFFFF AND DUP2 MSTORE PUSH1 0x20 ADD SWAP1 DUP2 MSTORE PUSH1 0x20 ADD PUSH1 0x0 KECCAK256 DUP1 SLOAD DUP1 PUSH1 0x20 MUL PUSH1 0x20 ADD PUSH1 0x40 MLOAD SWAP1 DUP2 ADD PUSH1 0x40 MSTORE DUP1 SWAP3 SWAP2 SWAP1 DUP2 DUP2 MSTORE PUSH1 0x20 ADD PUSH1 0x0 SWAP1 JUMPDEST DUP3 DUP3 LT ISZERO PUSH2 0xDCD JUMPI DUP4 DUP3 SWAP1 PUSH1 0x0 MSTORE PUSH1 0x20 PUSH1 0x0 KECCAK256 SWAP1 PUSH1 0x8 MUL ADD PUSH1 0x40 MLOAD DUP1 PUSH2 0x100 ADD PUSH1 0x40 MSTORE SWAP1 DUP2 PUSH1 0x0 DUP3 ADD DUP1 SLOAD PUSH2 0x97A SWAP1 PUSH2 0x1B7D JUMP JUMPDEST DUP1 PUSH1 0x1F ADD PUSH1 0x20 DUP1 SWAP2 DIV MUL PUSH1 0x20 ADD PUSH1 0x40 MLOAD SWAP1 DUP2 ADD PUSH1 0x40 MSTORE DUP1 SWAP3 SWAP2 SWAP1 DUP2 DUP2 MSTORE PUSH1 0x20 ADD DUP3 DUP1 SLOAD PUSH2 0x9A6 SWAP1 PUSH2 0x1B7D JUMP JUMPDEST DUP1 ISZERO PUSH2 0x9F3 JUMPI DUP1 PUSH1 0x1F LT PUSH2 0x9C8 JUMPI PUSH2 0x100 DUP1 DUP4 SLOAD DIV MUL DUP4 MSTORE SWAP2 PUSH1 0x20 ADD SWAP2 PUSH2 0x9F3 JUMP JUMPDEST DUP3 ADD SWAP2 SWAP1 PUSH1 0x0 MSTORE PUSH1 0x20 PUSH1 0x0 KECCAK256 SWAP1 JUMPDEST DUP2 SLOAD DUP2 MSTORE SWAP1 PUSH1 0x1 ADD SWAP1 PUSH1 0x20 ADD DUP1 DUP4 GT PUSH2 0x9D6 JUMPI DUP3 SWAP1 SUB PUSH1 0x1F AND DUP3 ADD SWAP2 JUMPDEST POP POP POP POP POP DUP2 MSTORE PUSH1 0x20 ADD PUSH1 0x1 DUP3 ADD DUP1 SLOAD PUSH2 0xA0C SWAP1 PUSH2 0x1B7D JUMP JUMPDEST DUP1 PUSH1 0x1F ADD PUSH1 0x20 DUP1 SWAP2 DIV MUL PUSH1 0x20 ADD PUSH1 0x40 MLOAD SWAP1 DUP2 ADD PUSH1 0x40 MSTORE DUP1 SWAP3 SWAP2 SWAP1 DUP2 DUP2 MSTORE PUSH1 0x20 ADD DUP3 DUP1 SLOAD PUSH2 0xA38 SWAP1 PUSH2 0x1B7D JUMP JUMPDEST DUP1 ISZERO PUSH2 0xA85 JUMPI DUP1 PUSH1 0x1F LT PUSH2 0xA5A JUMPI PUSH2 0x100 DUP1 DUP4 SLOAD DIV MUL DUP4 MSTORE SWAP2 PUSH1 0x20 ADD SWAP2 PUSH2 0xA85 JUMP JUMPDEST DUP3 ADD SWAP2 SWAP1 PUSH1 0x0 MSTORE PUSH1 0x20 PUSH1 0x0 KECCAK256 SWAP1 JUMPDEST DUP2 SLOAD DUP2 MSTORE SWAP1 PUSH1 0x1 ADD SWAP1 PUSH1 0x20 ADD DUP1 DUP4 GT PUSH2 0xA68 JUMPI DUP3 SWAP1 SUB PUSH1 0x1F AND DUP3 ADD SWAP2 JUMPDEST POP POP POP POP POP DUP2 MSTORE PUSH1 0x20 ADD PUSH1 0x2 DUP3 ADD DUP1 SLOAD PUSH2 0xA9E SWAP1 PUSH2 0x1B7D JUMP JUMPDEST DUP1 PUSH1 0x1F ADD PUSH1 0x20 DUP1 SWAP2 DIV MUL PUSH1 0x20 ADD PUSH1 0x40 MLOAD SWAP1 DUP2 ADD PUSH1 0x40 MSTORE DUP1 SWAP3 SWAP2 SWAP1 DUP2 DUP2 MSTORE PUSH1 0x20 ADD DUP3 DUP1 SLOAD PUSH2 0xACA SWAP1 PUSH2 0x1B7D JUMP JUMPDEST DUP1 ISZERO PUSH2 0xB17 JUMPI DUP1 PUSH1 0x1F LT PUSH2 0xAEC JUMPI PUSH2 0x100 DUP1 DUP4 SLOAD DIV MUL DUP4 MSTORE SWAP2 PUSH1 0x20 ADD SWAP2 PUSH2 0xB17 JUMP JUMPDEST DUP3 ADD SWAP2 SWAP1 PUSH1 0x0 MSTORE PUSH1 0x20 PUSH1 0x0 KECCAK256 SWAP1 JUMPDEST DUP2 SLOAD DUP2 MSTORE SWAP1 PUSH1 0x1 ADD SWAP1 PUSH1 0x20 ADD DUP1 DUP4 GT PUSH2 0xAFA JUMPI DUP3 SWAP1 SUB PUSH1 0x1F AND DUP3 ADD SWAP2 JUMPDEST POP POP POP POP POP DUP2 MSTORE PUSH1 0x20 ADD PUSH1 0x3 DUP3 ADD DUP1 SLOAD PUSH2 0xB30 SWAP1 PUSH2 0x1B7D JUMP JUMPDEST DUP1 PUSH1 0x1F ADD PUSH1 0x20 DUP1 SWAP2 DIV MUL PUSH1 0x20 ADD PUSH1 0x40 MLOAD SWAP1 DUP2 ADD PUSH1 0x40 MSTORE DUP1 SWAP3 SWAP2 SWAP1 DUP2 DUP2 MSTORE PUSH1 0x20 ADD DUP3 DUP1 SLOAD PUSH2 0xB5C SWAP1 PUSH2 0x1B7D JUMP JUMPDEST DUP1 ISZERO PUSH2 0xBA9 JUMPI DUP1 PUSH1 0x1F LT PUSH2 0xB7E JUMPI PUSH2 0x100 DUP1 DUP4 SLOAD DIV MUL DUP4 MSTORE SWAP2 PUSH1 0x20 ADD SWAP2 PUSH2 0xBA9 JUMP JUMPDEST DUP3 ADD SWAP2 SWAP1 PUSH1 0x0 MSTORE PUSH1 0x20 PUSH1 0x0 KECCAK256 SWAP1 JUMPDEST DUP2 SLOAD DUP2 MSTORE SWAP1 PUSH1 0x1 ADD SWAP1 PUSH1 0x20 ADD DUP1 DUP4 GT PUSH2 0xB8C JUMPI DUP3 SWAP1 SUB PUSH1 0x1F AND DUP3 ADD SWAP2 JUMPDEST POP POP POP POP POP DUP2 MSTORE PUSH1 0x20 ADD PUSH1 0x4 DUP3 ADD DUP1 SLOAD PUSH2 0xBC2 SWAP1 PUSH2 0x1B7D JUMP JUMPDEST DUP1 PUSH1 0x1F ADD PUSH1 0x20 DUP1 SWAP2 DIV MUL PUSH1 0x20 ADD PUSH1 0x40 MLOAD SWAP1 DUP2 ADD PUSH1 0x40 MSTORE DUP1 SWAP3 SWAP2 SWAP1 DUP2 DUP2 MSTORE PUSH1 0x20 ADD DUP3 DUP1 SLOAD PUSH2 0xBEE SWAP1 PUSH2 0x1B7D JUMP JUMPDEST DUP1 ISZERO PUSH2 0xC3B JUMPI DUP1 PUSH1 0x1F LT PUSH2 0xC10 JUMPI PUSH2 0x100 DUP1 DUP4 SLOAD DIV MUL DUP4 MSTORE SWAP2 PUSH1 0x20 ADD SWAP2 PUSH2 0xC3B JUMP JUMPDEST DUP3 ADD SWAP2 SWAP1 PUSH1 0x0 MSTORE PUSH1 0x20 PUSH1 0x0 KECCAK256 SWAP1 JUMPDEST DUP2 SLOAD DUP2 MSTORE SWAP1 PUSH1 0x1 ADD SWAP1 PUSH1 0x20 ADD DUP1 DUP4 GT PUSH2 0xC1E JUMPI DUP3 SWAP1 SUB PUSH1 0x1F AND DUP3 ADD SWAP2 JUMPDEST POP POP POP POP POP DUP2 MSTORE PUSH1 0x20 ADD PUSH1 0x5 DUP3 ADD DUP1 SLOAD PUSH2 0xC54 SWAP1 PUSH2 0x1B7D JUMP JUMPDEST DUP1 PUSH1 0x1F ADD PUSH1 0x20 DUP1 SWAP2 DIV MUL PUSH1 0x20 ADD PUSH1 0x40 MLOAD SWAP1 DUP2 ADD PUSH1 0x40 MSTORE DUP1 SWAP3 SWAP2 SWAP1 DUP2 DUP2 MSTORE PUSH1 0x20 ADD DUP3 DUP1 SLOAD PUSH2 0xC80 SWAP1 PUSH2 0x1B7D JUMP JUMPDEST DUP1 ISZERO PUSH2 0xCCD JUMPI DUP1 PUSH1 0x1F LT PUSH2 0xCA2 JUMPI PUSH2 0x100 DUP1 DUP4 SLOAD DIV MUL DUP4 MSTORE SWAP2 PUSH1 0x20 ADD SWAP2 PUSH2 0xCCD JUMP JUMPDEST DUP3 ADD SWAP2 SWAP1 PUSH1 0x0 MSTORE PUSH1 0x20 PUSH1 0x0 KECCAK256 SWAP1 JUMPDEST DUP2 SLOAD DUP2 MSTORE SWAP1 PUSH1 0x1 ADD SWAP1 PUSH1 0x20 ADD DUP1 DUP4 GT PUSH2 0xCB0 JUMPI DUP3 SWAP1 SUB PUSH1 0x1F AND DUP3 ADD SWAP2 JUMPDEST POP POP POP POP POP DUP2 MSTORE PUSH1 0x20 ADD PUSH1 0x6 DUP3 ADD DUP1 SLOAD PUSH2 0xCE6 SWAP1 PUSH2 0x1B7D JUMP JUMPDEST DUP1 PUSH1 0x1F ADD PUSH1 0x20 DUP1 SWAP2 DIV MUL PUSH1 0x20 ADD PUSH1 0x40 MLOAD SWAP1 DUP2 ADD PUSH1 0x40 MSTORE DUP1 SWAP3 SWAP2 SWAP1 DUP2 DUP2 MSTORE PUSH1 0x20 ADD DUP3 DUP1 SLOAD PUSH2 0xD12 SWAP1 PUSH2 0x1B7D JUMP JUMPDEST DUP1 ISZERO PUSH2 0xD5F JUMPI DUP1 PUSH1 0x1F LT PUSH2 0xD34 JUMPI PUSH2 0x100 DUP1 DUP4 SLOAD DIV MUL DUP4 MSTORE SWAP2 PUSH1 0x20 ADD SWAP2 PUSH2 0xD5F JUMP JUMPDEST DUP3 ADD SWAP2 SWAP1 PUSH1 0x0 MSTORE PUSH1 0x20 PUSH1 0x0 KECCAK256 SWAP1 JUMPDEST DUP2 SLOAD DUP2 MSTORE SWAP1 PUSH1 0x1 ADD SWAP1 PUSH1 0x20 ADD DUP1 DUP4 GT PUSH2 0xD42 JUMPI DUP3 SWAP1 SUB PUSH1 0x1F AND DUP3 ADD SWAP2 JUMPDEST POP POP POP POP POP DUP2 MSTORE PUSH1 0x20 ADD PUSH1 0x7 DUP3 ADD PUSH1 0x0 SWAP1 SLOAD SWAP1 PUSH2 0x100 EXP SWAP1 DIV PUSH20 0xFFFFFFFFFFFFFFFFFFFFFFFFFFFFFFFFFFFFFFFF AND PUSH20 0xFFFFFFFFFFFFFFFFFFFFFFFFFFFFFFFFFFFFFFFF AND PUSH20 0xFFFFFFFFFFFFFFFFFFFFFFFFFFFFFFFFFFFFFFFF AND DUP2 MSTORE POP POP DUP2 MSTORE PUSH1 0x20 ADD SWAP1 PUSH1 0x1 ADD SWAP1 PUSH2 0x946 JUMP JUMPDEST POP POP POP POP SWAP1 POP PUSH1 0x0 JUMPDEST DUP2 MLOAD DUP2 LT DUP1 ISZERO PUSH2 0xDF1 JUMPI POP PUSH1 0xA DUP7 PUSH2 0xDEE SWAP2 SWAP1 PUSH2 0x1AA5 JUMP JUMPDEST DUP5 LT JUMPDEST ISZERO PUSH2 0xE50 JUMPI DUP2 DUP2 DUP2 MLOAD DUP2 LT PUSH2 0xE09 JUMPI PUSH2 0xE08 PUSH2 0x1C87 JUMP JUMPDEST JUMPDEST PUSH1 0x20 MUL PUSH1 0x20 ADD ADD MLOAD DUP6 DUP6 DUP2 MLOAD DUP2 LT PUSH2 0xE24 JUMPI PUSH2 0xE23 PUSH2 0x1C87 JUMP JUMPDEST JUMPDEST PUSH1 0x20 MUL PUSH1 0x20 ADD ADD DUP2 SWAP1 MSTORE POP DUP4 DUP1 PUSH2 0xE3A SWAP1 PUSH2 0x1BE0 JUMP JUMPDEST SWAP5 POP POP DUP1 DUP1 PUSH2 0xE48 SWAP1 PUSH2 0x1BE0 JUMP JUMPDEST SWAP2 POP POP PUSH2 0xDD6 JUMP JUMPDEST POP POP DUP1 DUP1 PUSH2 0xE5D SWAP1 PUSH2 0x1BE0 JUMP JUMPDEST SWAP2 POP POP PUSH2 0x89B JUMP JUMPDEST POP DUP2 SWAP4 POP POP POP POP SWAP2 SWAP1 POP JUMP JUMPDEST PUSH1 0x60 PUSH1 0x0 DUP1 CALLER PUSH20 0xFFFFFFFFFFFFFFFFFFFFFFFFFFFFFFFFFFFFFFFF AND PUSH20 0xFFFFFFFFFFFFFFFFFFFFFFFFFFFFFFFFFFFFFFFF AND DUP2 MSTORE PUSH1 0x20 ADD SWAP1 DUP2 MSTORE PUSH1 0x20 ADD PUSH1 0x0 KECCAK256 DUP1 SLOAD DUP1 PUSH1 0x20 MUL PUSH1 0x20 ADD PUSH1 0x40 MLOAD SWAP1 DUP2 ADD PUSH1 0x40 MSTORE DUP1 SWAP3 SWAP2 SWAP1 DUP2 DUP2 MSTORE PUSH1 0x20 ADD PUSH1 0x0 SWAP1 JUMPDEST DUP3 DUP3 LT ISZERO PUSH2 0x1358 JUMPI DUP4 DUP3 SWAP1 PUSH1 0x0 MSTORE PUSH1 0x20 PUSH1 0x0 KECCAK256 SWAP1 PUSH1 0x8 MUL ADD PUSH1 0x40 MLOAD DUP1 PUSH2 0x100 ADD PUSH1 0x40 MSTORE SWAP1 DUP2 PUSH1 0x0 DUP3 ADD DUP1 SLOAD PUSH2 0xF05 SWAP1 PUSH2 0x1B7D JUMP JUMPDEST DUP1 PUSH1 0x1F ADD PUSH1 0x20 DUP1 SWAP2 DIV MUL PUSH1 0x20 ADD PUSH1 0x40 MLOAD SWAP1 DUP2 ADD PUSH1 0x40 MSTORE DUP1 SWAP3 SWAP2 SWAP1 DUP2 DUP2 MSTORE PUSH1 0x20 ADD DUP3 DUP1 SLOAD PUSH2 0xF31 SWAP1 PUSH2 0x1B7D JUMP JUMPDEST DUP1 ISZERO PUSH2 0xF7E JUMPI DUP1 PUSH1 0x1F LT PUSH2 0xF53 JUMPI PUSH2 0x100 DUP1 DUP4 SLOAD DIV MUL DUP4 MSTORE SWAP2 PUSH1 0x20 ADD SWAP2 PUSH2 0xF7E JUMP JUMPDEST DUP3 ADD SWAP2 SWAP1 PUSH1 0x0 MSTORE PUSH1 0x20 PUSH1 0x0 KECCAK256 SWAP1 JUMPDEST DUP2 SLOAD DUP2 MSTORE SWAP1 PUSH1 0x1 ADD SWAP1 PUSH1 0x20 ADD DUP1 DUP4 GT PUSH2 0xF61 JUMPI DUP3 SWAP1 SUB PUSH1 0x1F AND DUP3 ADD SWAP2 JUMPDEST POP POP POP POP POP DUP2 MSTORE PUSH1 0x20 ADD PUSH1 0x1 DUP3 ADD DUP1 SLOAD PUSH2 0xF97 SWAP1 PUSH2 0x1B7D JUMP JUMPDEST DUP1 PUSH1 0x1F ADD PUSH1 0x20 DUP1 SWAP2 DIV MUL PUSH1 0x20 ADD PUSH1 0x40 MLOAD SWAP1 DUP2 ADD PUSH1 0x40 MSTORE DUP1 SWAP3 SWAP2 SWAP1 DUP2 DUP2 MSTORE PUSH1 0x20 ADD DUP3 DUP1 SLOAD PUSH2 0xFC3 SWAP1 PUSH2 0x1B7D JUMP JUMPDEST DUP1 ISZERO PUSH2 0x1010 JUMPI DUP1 PUSH1 0x1F LT PUSH2 0xFE5 JUMPI PUSH2 0x100 DUP1 DUP4 SLOAD DIV MUL DUP4 MSTORE SWAP2 PUSH1 0x20 ADD SWAP2 PUSH2 0x1010 JUMP JUMPDEST DUP3 ADD SWAP2 SWAP1 PUSH1 0x0 MSTORE PUSH1 0x20 PUSH1 0x0 KECCAK256 SWAP1 JUMPDEST DUP2 SLOAD DUP2 MSTORE SWAP1 PUSH1 0x1 ADD SWAP1 PUSH1 0x20 ADD DUP1 DUP4 GT PUSH2 0xFF3 JUMPI DUP3 SWAP1 SUB PUSH1 0x1F AND DUP3 ADD SWAP2 JUMPDEST POP POP POP POP POP DUP2 MSTORE PUSH1 0x20 ADD PUSH1 0x2 DUP3 ADD DUP1 SLOAD PUSH2 0x1029 SWAP1 PUSH2 0x1B7D JUMP JUMPDEST DUP1 PUSH1 0x1F ADD PUSH1 0x20 DUP1 SWAP2 DIV MUL PUSH1 0x20 ADD PUSH1 0x40 MLOAD SWAP1 DUP2 ADD PUSH1 0x40 MSTORE DUP1 SWAP3 SWAP2 SWAP1 DUP2 DUP2 MSTORE PUSH1 0x20 ADD DUP3 DUP1 SLOAD PUSH2 0x1055 SWAP1 PUSH2 0x1B7D JUMP JUMPDEST DUP1 ISZERO PUSH2 0x10A2 JUMPI DUP1 PUSH1 0x1F LT PUSH2 0x1077 JUMPI PUSH2 0x100 DUP1 DUP4 SLOAD DIV MUL DUP4 MSTORE SWAP2 PUSH1 0x20 ADD SWAP2 PUSH2 0x10A2 JUMP JUMPDEST DUP3 ADD SWAP2 SWAP1 PUSH1 0x0 MSTORE PUSH1 0x20 PUSH1 0x0 KECCAK256 SWAP1 JUMPDEST DUP2 SLOAD DUP2 MSTORE SWAP1 PUSH1 0x1 ADD SWAP1 PUSH1 0x20 ADD DUP1 DUP4 GT PUSH2 0x1085 JUMPI DUP3 SWAP1 SUB PUSH1 0x1F AND DUP3 ADD SWAP2 JUMPDEST POP POP POP POP POP DUP2 MSTORE PUSH1 0x20 ADD PUSH1 0x3 DUP3 ADD DUP1 SLOAD PUSH2 0x10BB SWAP1 PUSH2 0x1B7D JUMP JUMPDEST DUP1 PUSH1 0x1F ADD PUSH1 0x20 DUP1 SWAP2 DIV MUL PUSH1 0x20 ADD PUSH1 0x40 MLOAD SWAP1 DUP2 ADD PUSH1 0x40 MSTORE DUP1 SWAP3 SWAP2 SWAP1 DUP2 DUP2 MSTORE PUSH1 0x20 ADD DUP3 DUP1 SLOAD PUSH2 0x10E7 SWAP1 PUSH2 0x1B7D JUMP JUMPDEST DUP1 ISZERO PUSH2 0x1134 JUMPI DUP1 PUSH1 0x1F LT PUSH2 0x1109 JUMPI PUSH2 0x100 DUP1 DUP4 SLOAD DIV MUL DUP4 MSTORE SWAP2 PUSH1 0x20 ADD SWAP2 PUSH2 0x1134 JUMP JUMPDEST DUP3 ADD SWAP2 SWAP1 PUSH1 0x0 MSTORE PUSH1 0x20 PUSH1 0x0 KECCAK256 SWAP1 JUMPDEST DUP2 SLOAD DUP2 MSTORE SWAP1 PUSH1 0x1 ADD SWAP1 PUSH1 0x20 ADD DUP1 DUP4 GT PUSH2 0x1117 JUMPI DUP3 SWAP1 SUB PUSH1 0x1F AND DUP3 ADD SWAP2 JUMPDEST POP POP POP POP POP DUP2 MSTORE PUSH1 0x20 ADD PUSH1 0x4 DUP3 ADD DUP1 SLOAD PUSH2 0x114D SWAP1 PUSH2 0x1B7D JUMP JUMPDEST DUP1 PUSH1 0x1F ADD PUSH1 0x20 DUP1 SWAP2 DIV MUL PUSH1 0x20 ADD PUSH1 0x40 MLOAD SWAP1 DUP2 ADD PUSH1 0x40 MSTORE DUP1 SWAP3 SWAP2 SWAP1 DUP2 DUP2 MSTORE PUSH1 0x20 ADD DUP3 DUP1 SLOAD PUSH2 0x1179 SWAP1 PUSH2 0x1B7D JUMP JUMPDEST DUP1 ISZERO PUSH2 0x11C6 JUMPI DUP1 PUSH1 0x1F LT PUSH2 0x119B JUMPI PUSH2 0x100 DUP1 DUP4 SLOAD DIV MUL DUP4 MSTORE SWAP2 PUSH1 0x20 ADD SWAP2 PUSH2 0x11C6 JUMP JUMPDEST DUP3 ADD SWAP2 SWAP1 PUSH1 0x0 MSTORE PUSH1 0x20 PUSH1 0x0 KECCAK256 SWAP1 JUMPDEST DUP2 SLOAD DUP2 MSTORE SWAP1 PUSH1 0x1 ADD SWAP1 PUSH1 0x20 ADD DUP1 DUP4 GT PUSH2 0x11A9 JUMPI DUP3 SWAP1 SUB PUSH1 0x1F AND DUP3 ADD SWAP2 JUMPDEST POP POP POP POP POP DUP2 MSTORE PUSH1 0x20 ADD PUSH1 0x5 DUP3 ADD DUP1 SLOAD PUSH2 0x11DF SWAP1 PUSH2 0x1B7D JUMP JUMPDEST DUP1 PUSH1 0x1F ADD PUSH1 0x20 DUP1 SWAP2 DIV MUL PUSH1 0x20 ADD PUSH1 0x40 MLOAD SWAP1 DUP2 ADD PUSH1 0x40 MSTORE DUP1 SWAP3 SWAP2 SWAP1 DUP2 DUP2 MSTORE PUSH1 0x20 ADD DUP3 DUP1 SLOAD PUSH2 0x120B SWAP1 PUSH2 0x1B7D JUMP JUMPDEST DUP1 ISZERO PUSH2 0x1258 JUMPI DUP1 PUSH1 0x1F LT PUSH2 0x122D JUMPI PUSH2 0x100 DUP1 DUP4 SLOAD DIV MUL DUP4 MSTORE SWAP2 PUSH1 0x20 ADD SWAP2 PUSH2 0x1258 JUMP JUMPDEST DUP3 ADD SWAP2 SWAP1 PUSH1 0x0 MSTORE PUSH1 0x20 PUSH1 0x0 KECCAK256 SWAP1 JUMPDEST DUP2 SLOAD DUP2 MSTORE SWAP1 PUSH1 0x1 ADD SWAP1 PUSH1 0x20 ADD DUP1 DUP4 GT PUSH2 0x123B JUMPI DUP3 SWAP1 SUB PUSH1 0x1F AND DUP3 ADD SWAP2 JUMPDEST POP POP POP POP POP DUP2 MSTORE PUSH1 0x20 ADD PUSH1 0x6 DUP3 ADD DUP1 SLOAD PUSH2 0x1271 SWAP1 PUSH2 0x1B7D JUMP JUMPDEST DUP1 PUSH1 0x1F ADD PUSH1 0x20 DUP1 SWAP2 DIV MUL PUSH1 0x20 ADD PUSH1 0x40 MLOAD SWAP1 DUP2 ADD PUSH1 0x40 MSTORE DUP1 SWAP3 SWAP2 SWAP1 DUP2 DUP2 MSTORE PUSH1 0x20 ADD DUP3 DUP1 SLOAD PUSH2 0x129D SWAP1 PUSH2 0x1B7D JUMP JUMPDEST DUP1 ISZERO PUSH2 0x12EA JUMPI DUP1 PUSH1 0x1F LT PUSH2 0x12BF JUMPI PUSH2 0x100 DUP1 DUP4 SLOAD DIV MUL DUP4 MSTORE SWAP2 PUSH1 0x20 ADD SWAP2 PUSH2 0x12EA JUMP JUMPDEST DUP3 ADD SWAP2 SWAP1 PUSH1 0x0 MSTORE PUSH1 0x20 PUSH1 0x0 KECCAK256 SWAP1 JUMPDEST DUP2 SLOAD DUP2 MSTORE SWAP1 PUSH1 0x1 ADD SWAP1 PUSH1 0x20 ADD DUP1 DUP4 GT PUSH2 0x12CD JUMPI DUP3 SWAP1 SUB PUSH1 0x1F AND DUP3 ADD SWAP2 JUMPDEST POP POP POP POP POP DUP2 MSTORE PUSH1 0x20 ADD PUSH1 0x7 DUP3 ADD PUSH1 0x0 SWAP1 SLOAD SWAP1 PUSH2 0x100 EXP SWAP1 DIV PUSH20 0xFFFFFFFFFFFFFFFFFFFFFFFFFFFFFFFFFFFFFFFF AND PUSH20 0xFFFFFFFFFFFFFFFFFFFFFFFFFFFFFFFFFFFFFFFF AND PUSH20 0xFFFFFFFFFFFFFFFFFFFFFFFFFFFFFFFFFFFFFFFF AND DUP2 MSTORE POP POP DUP2 MSTORE PUSH1 0x20 ADD SWAP1 PUSH1 0x1 ADD SWAP1 PUSH2 0xED1 JUMP JUMPDEST POP POP POP POP SWAP1 POP SWAP1 JUMP JUMPDEST DUP3 DUP1 SLOAD PUSH2 0x136D SWAP1 PUSH2 0x1B7D JUMP JUMPDEST SWAP1 PUSH1 0x0 MSTORE PUSH1 0x20 PUSH1 0x0 KECCAK256 SWAP1 PUSH1 0x1F ADD PUSH1 0x20 SWAP1 DIV DUP2 ADD SWAP3 DUP3 PUSH2 0x138F JUMPI PUSH1 0x0 DUP6 SSTORE PUSH2 0x13D6 JUMP JUMPDEST DUP3 PUSH1 0x1F LT PUSH2 0x13A8 JUMPI DUP1 MLOAD PUSH1 0xFF NOT AND DUP4 DUP1 ADD OR DUP6 SSTORE PUSH2 0x13D6 JUMP JUMPDEST DUP3 DUP1 ADD PUSH1 0x1 ADD DUP6 SSTORE DUP3 ISZERO PUSH2 0x13D6 JUMPI SWAP2 DUP3 ADD JUMPDEST DUP3 DUP2 GT ISZERO PUSH2 0x13D5 JUMPI DUP3 MLOAD DUP3 SSTORE SWAP2 PUSH1 0x20 ADD SWAP2 SWAP1 PUSH1 0x1 ADD SWAP1 PUSH2 0x13BA JUMP JUMPDEST JUMPDEST POP SWAP1 POP PUSH2 0x13E3 SWAP2 SWAP1 PUSH2 0x1442 JUMP JUMPDEST POP SWAP1 JUMP JUMPDEST PUSH1 0x40 MLOAD DUP1 PUSH2 0x100 ADD PUSH1 0x40 MSTORE DUP1 PUSH1 0x60 DUP2 MSTORE PUSH1 0x20 ADD PUSH1 0x60 DUP2 MSTORE PUSH1 0x20 ADD PUSH1 0x60 DUP2 MSTORE PUSH1 0x20 ADD PUSH1 0x60 DUP2 MSTORE PUSH1 0x20 ADD PUSH1 0x60 DUP2 MSTORE PUSH1 0x20 ADD PUSH1 0x60 DUP2 MSTORE PUSH1 0x20 ADD PUSH1 0x60 DUP2 MSTORE PUSH1 0x20 ADD PUSH1 0x0 PUSH20 0xFFFFFFFFFFFFFFFFFFFFFFFFFFFFFFFFFFFFFFFF AND DUP2 MSTORE POP SWAP1 JUMP JUMPDEST JUMPDEST DUP1 DUP3 GT ISZERO PUSH2 0x145B JUMPI PUSH1 0x0 DUP2 PUSH1 0x0 SWAP1 SSTORE POP PUSH1 0x1 ADD PUSH2 0x1443 JUMP JUMPDEST POP SWAP1 JUMP JUMPDEST PUSH1 0x0 PUSH2 0x1472 PUSH2 0x146D DUP5 PUSH2 0x1A0E JUMP JUMPDEST PUSH2 0x19E9 JUMP JUMPDEST SWAP1 POP DUP3 DUP2 MSTORE PUSH1 0x20 DUP2 ADD DUP5 DUP5 DUP5 ADD GT ISZERO PUSH2 0x148E JUMPI PUSH2 0x148D PUSH2 0x1CEA JUMP JUMPDEST JUMPDEST PUSH2 0x1499 DUP5 DUP3 DUP6 PUSH2 0x1B3B JUMP JUMPDEST POP SWAP4 SWAP3 POP POP POP JUMP JUMPDEST PUSH1 0x0 DUP2 CALLDATALOAD SWAP1 POP PUSH2 0x14B0 DUP2 PUSH2 0x1D0A JUMP JUMPDEST SWAP3 SWAP2 POP POP JUMP JUMPDEST PUSH1 0x0 DUP3 PUSH1 0x1F DUP4 ADD SLT PUSH2 0x14CB JUMPI PUSH2 0x14CA PUSH2 0x1CE5 JUMP JUMPDEST JUMPDEST DUP2 CALLDATALOAD PUSH2 0x14DB DUP5 DUP3 PUSH1 0x20 DUP7 ADD PUSH2 0x145F JUMP JUMPDEST SWAP2 POP POP SWAP3 SWAP2 POP POP JUMP JUMPDEST PUSH1 0x0 DUP2 CALLDATALOAD SWAP1 POP PUSH2 0x14F3 DUP2 PUSH2 0x1D21 JUMP JUMPDEST SWAP3 SWAP2 POP POP JUMP JUMPDEST PUSH1 0x0 DUP1 PUSH1 0x0 DUP1 PUSH1 0x0 DUP1 PUSH1 0x0 DUP1 PUSH2 0x100 DUP10 DUP12 SUB SLT ISZERO PUSH2 0x151A JUMPI PUSH2 0x1519 PUSH2 0x1CF4 JUMP JUMPDEST JUMPDEST PUSH1 0x0 PUSH2 0x1528 DUP12 DUP3 DUP13 ADD PUSH2 0x14A1 JUMP JUMPDEST SWAP9 POP POP PUSH1 0x20 DUP10 ADD CALLDATALOAD PUSH8 0xFFFFFFFFFFFFFFFF DUP2 GT ISZERO PUSH2 0x1549 JUMPI PUSH2 0x1548 PUSH2 0x1CEF JUMP JUMPDEST JUMPDEST PUSH2 0x1555 DUP12 DUP3 DUP13 ADD PUSH2 0x14B6 JUMP JUMPDEST SWAP8 POP POP PUSH1 0x40 DUP10 ADD CALLDATALOAD PUSH8 0xFFFFFFFFFFFFFFFF DUP2 GT ISZERO PUSH2 0x1576 JUMPI PUSH2 0x1575 PUSH2 0x1CEF JUMP JUMPDEST JUMPDEST PUSH2 0x1582 DUP12 DUP3 DUP13 ADD PUSH2 0x14B6 JUMP JUMPDEST SWAP7 POP POP PUSH1 0x60 DUP10 ADD CALLDATALOAD PUSH8 0xFFFFFFFFFFFFFFFF DUP2 GT ISZERO PUSH2 0x15A3 JUMPI PUSH2 0x15A2 PUSH2 0x1CEF JUMP JUMPDEST JUMPDEST PUSH2 0x15AF DUP12 DUP3 DUP13 ADD PUSH2 0x14B6 JUMP JUMPDEST SWAP6 POP POP PUSH1 0x80 DUP10 ADD CALLDATALOAD PUSH8 0xFFFFFFFFFFFFFFFF DUP2 GT ISZERO PUSH2 0x15D0 JUMPI PUSH2 0x15CF PUSH2 0x1CEF JUMP JUMPDEST JUMPDEST PUSH2 0x15DC DUP12 DUP3 DUP13 ADD PUSH2 0x14B6 JUMP JUMPDEST SWAP5 POP POP PUSH1 0xA0 DUP10 ADD CALLDATALOAD PUSH8 0xFFFFFFFFFFFFFFFF DUP2 GT ISZERO PUSH2 0x15FD JUMPI PUSH2 0x15FC PUSH2 0x1CEF JUMP JUMPDEST JUMPDEST PUSH2 0x1609 DUP12 DUP3 DUP13 ADD PUSH2 0x14B6 JUMP JUMPDEST SWAP4 POP POP PUSH1 0xC0 DUP10 ADD CALLDATALOAD PUSH8 0xFFFFFFFFFFFFFFFF DUP2 GT ISZERO PUSH2 0x162A JUMPI PUSH2 0x1629 PUSH2 0x1CEF JUMP JUMPDEST JUMPDEST PUSH2 0x1636 DUP12 DUP3 DUP13 ADD PUSH2 0x14B6 JUMP JUMPDEST SWAP3 POP POP PUSH1 0xE0 DUP10 ADD CALLDATALOAD PUSH8 0xFFFFFFFFFFFFFFFF DUP2 GT ISZERO PUSH2 0x1657 JUMPI PUSH2 0x1656 PUSH2 0x1CEF JUMP JUMPDEST JUMPDEST PUSH2 0x1663 DUP12 DUP3 DUP13 ADD PUSH2 0x14B6 JUMP JUMPDEST SWAP2 POP POP SWAP3 SWAP6 SWAP9 POP SWAP3 SWAP6 SWAP9 SWAP1 SWAP4 SWAP7 POP JUMP JUMPDEST PUSH1 0x0 DUP1 PUSH1 0x40 DUP4 DUP6 SUB SLT ISZERO PUSH2 0x168A JUMPI PUSH2 0x1689 PUSH2 0x1CF4 JUMP JUMPDEST JUMPDEST PUSH1 0x0 PUSH2 0x1698 DUP6 DUP3 DUP7 ADD PUSH2 0x14A1 JUMP JUMPDEST SWAP3 POP POP PUSH1 0x20 PUSH2 0x16A9 DUP6 DUP3 DUP7 ADD PUSH2 0x14E4 JUMP JUMPDEST SWAP2 POP POP SWAP3 POP SWAP3 SWAP1 POP JUMP JUMPDEST PUSH1 0x0 PUSH1 0x20 DUP3 DUP5 SUB SLT ISZERO PUSH2 0x16C9 JUMPI PUSH2 0x16C8 PUSH2 0x1CF4 JUMP JUMPDEST JUMPDEST PUSH1 0x0 PUSH2 0x16D7 DUP5 DUP3 DUP6 ADD PUSH2 0x14E4 JUMP JUMPDEST SWAP2 POP POP SWAP3 SWAP2 POP POP JUMP JUMPDEST PUSH1 0x0 PUSH2 0x16EC DUP4 DUP4 PUSH2 0x17F9 JUMP JUMPDEST SWAP1 POP SWAP3 SWAP2 POP POP JUMP JUMPDEST PUSH2 0x16FD DUP2 PUSH2 0x1AFF JUMP JUMPDEST DUP3 MSTORE POP POP JUMP JUMPDEST PUSH2 0x170C DUP2 PUSH2 0x1AFF JUMP JUMPDEST DUP3 MSTORE POP POP JUMP JUMPDEST PUSH1 0x0 PUSH2 0x171D DUP3 PUSH2 0x1A4F JUMP JUMPDEST PUSH2 0x1727 DUP2 DUP6 PUSH2 0x1A72 JUMP JUMPDEST SWAP4 POP DUP4 PUSH1 0x20 DUP3 MUL DUP6 ADD PUSH2 0x1739 DUP6 PUSH2 0x1A3F JUMP JUMPDEST DUP1 PUSH1 0x0 JUMPDEST DUP6 DUP2 LT ISZERO PUSH2 0x1775 JUMPI DUP5 DUP5 SUB DUP10 MSTORE DUP2 MLOAD PUSH2 0x1756 DUP6 DUP3 PUSH2 0x16E0 JUMP JUMPDEST SWAP5 POP PUSH2 0x1761 DUP4 PUSH2 0x1A65 JUMP JUMPDEST SWAP3 POP PUSH1 0x20 DUP11 ADD SWAP10 POP POP PUSH1 0x1 DUP2 ADD SWAP1 POP PUSH2 0x173D JUMP JUMPDEST POP DUP3 SWAP8 POP DUP8 SWAP6 POP POP POP POP POP POP SWAP3 SWAP2 POP POP JUMP JUMPDEST PUSH1 0x0 PUSH2 0x1792 DUP3 PUSH2 0x1A5A JUMP JUMPDEST PUSH2 0x179C DUP2 DUP6 PUSH2 0x1A83 JUMP JUMPDEST SWAP4 POP PUSH2 0x17AC DUP2 DUP6 PUSH1 0x20 DUP7 ADD PUSH2 0x1B4A JUMP JUMPDEST PUSH2 0x17B5 DUP2 PUSH2 0x1CF9 JUMP JUMPDEST DUP5 ADD SWAP2 POP POP SWAP3 SWAP2 POP POP JUMP JUMPDEST PUSH1 0x0 PUSH2 0x17CB DUP3 PUSH2 0x1A5A JUMP JUMPDEST PUSH2 0x17D5 DUP2 DUP6 PUSH2 0x1A94 JUMP JUMPDEST SWAP4 POP PUSH2 0x17E5 DUP2 DUP6 PUSH1 0x20 DUP7 ADD PUSH2 0x1B4A JUMP JUMPDEST PUSH2 0x17EE DUP2 PUSH2 0x1CF9 JUMP JUMPDEST DUP5 ADD SWAP2 POP POP SWAP3 SWAP2 POP POP JUMP JUMPDEST PUSH1 0x0 PUSH2 0x100 DUP4 ADD PUSH1 0x0 DUP4 ADD MLOAD DUP5 DUP3 SUB PUSH1 0x0 DUP7 ADD MSTORE PUSH2 0x1817 DUP3 DUP3 PUSH2 0x1787 JUMP JUMPDEST SWAP2 POP POP PUSH1 0x20 DUP4 ADD MLOAD DUP5 DUP3 SUB PUSH1 0x20 DUP7 ADD MSTORE PUSH2 0x1831 DUP3 DUP3 PUSH2 0x1787 JUMP JUMPDEST SWAP2 POP POP PUSH1 0x40 DUP4 ADD MLOAD DUP5 DUP3 SUB PUSH1 0x40 DUP7 ADD MSTORE PUSH2 0x184B DUP3 DUP3 PUSH2 0x1787 JUMP JUMPDEST SWAP2 POP POP PUSH1 0x60 DUP4 ADD MLOAD DUP5 DUP3 SUB PUSH1 0x60 DUP7 ADD MSTORE PUSH2 0x1865 DUP3 DUP3 PUSH2 0x1787 JUMP JUMPDEST SWAP2 POP POP PUSH1 0x80 DUP4 ADD MLOAD DUP5 DUP3 SUB PUSH1 0x80 DUP7 ADD MSTORE PUSH2 0x187F DUP3 DUP3 PUSH2 0x1787 JUMP JUMPDEST SWAP2 POP POP PUSH1 0xA0 DUP4 ADD MLOAD DUP5 DUP3 SUB PUSH1 0xA0 DUP7 ADD MSTORE PUSH2 0x1899 DUP3 DUP3 PUSH2 0x1787 JUMP JUMPDEST SWAP2 POP POP PUSH1 0xC0 DUP4 ADD MLOAD DUP5 DUP3 SUB PUSH1 0xC0 DUP7 ADD MSTORE PUSH2 0x18B3 DUP3 DUP3 PUSH2 0x1787 JUMP JUMPDEST SWAP2 POP POP PUSH1 0xE0 DUP4 ADD MLOAD PUSH2 0x18C8 PUSH1 0xE0 DUP7 ADD DUP3 PUSH2 0x16F4 JUMP JUMPDEST POP DUP1 SWAP2 POP POP SWAP3 SWAP2 POP POP JUMP JUMPDEST PUSH2 0x18DC DUP2 PUSH2 0x1B31 JUMP JUMPDEST DUP3 MSTORE POP POP JUMP JUMPDEST PUSH1 0x0 PUSH1 0x20 DUP3 ADD SWAP1 POP PUSH2 0x18F7 PUSH1 0x0 DUP4 ADD DUP5 PUSH2 0x1703 JUMP JUMPDEST SWAP3 SWAP2 POP POP JUMP JUMPDEST PUSH1 0x0 PUSH1 0x20 DUP3 ADD SWAP1 POP DUP2 DUP2 SUB PUSH1 0x0 DUP4 ADD MSTORE PUSH2 0x1917 DUP2 DUP5 PUSH2 0x1712 JUMP JUMPDEST SWAP1 POP SWAP3 SWAP2 POP POP JUMP JUMPDEST PUSH1 0x0 PUSH2 0x100 DUP3 ADD SWAP1 POP DUP2 DUP2 SUB PUSH1 0x0 DUP4 ADD MSTORE PUSH2 0x193A DUP2 DUP12 PUSH2 0x17C0 JUMP JUMPDEST SWAP1 POP DUP2 DUP2 SUB PUSH1 0x20 DUP4 ADD MSTORE PUSH2 0x194E DUP2 DUP11 PUSH2 0x17C0 JUMP JUMPDEST SWAP1 POP DUP2 DUP2 SUB PUSH1 0x40 DUP4 ADD MSTORE PUSH2 0x1962 DUP2 DUP10 PUSH2 0x17C0 JUMP JUMPDEST SWAP1 POP DUP2 DUP2 SUB PUSH1 0x60 DUP4 ADD MSTORE PUSH2 0x1976 DUP2 DUP9 PUSH2 0x17C0 JUMP JUMPDEST SWAP1 POP DUP2 DUP2 SUB PUSH1 0x80 DUP4 ADD MSTORE PUSH2 0x198A DUP2 DUP8 PUSH2 0x17C0 JUMP JUMPDEST SWAP1 POP DUP2 DUP2 SUB PUSH1 0xA0 DUP4 ADD MSTORE PUSH2 0x199E DUP2 DUP7 PUSH2 0x17C0 JUMP JUMPDEST SWAP1 POP DUP2 DUP2 SUB PUSH1 0xC0 DUP4 ADD MSTORE PUSH2 0x19B2 DUP2 DUP6 PUSH2 0x17C0 JUMP JUMPDEST SWAP1 POP PUSH2 0x19C1 PUSH1 0xE0 DUP4 ADD DUP5 PUSH2 0x1703 JUMP JUMPDEST SWAP10 SWAP9 POP POP POP POP POP POP POP POP POP JUMP JUMPDEST PUSH1 0x0 PUSH1 0x20 DUP3 ADD SWAP1 POP PUSH2 0x19E3 PUSH1 0x0 DUP4 ADD DUP5 PUSH2 0x18D3 JUMP JUMPDEST SWAP3 SWAP2 POP POP JUMP JUMPDEST PUSH1 0x0 PUSH2 0x19F3 PUSH2 0x1A04 JUMP JUMPDEST SWAP1 POP PUSH2 0x19FF DUP3 DUP3 PUSH2 0x1BAF JUMP JUMPDEST SWAP2 SWAP1 POP JUMP JUMPDEST PUSH1 0x0 PUSH1 0x40 MLOAD SWAP1 POP SWAP1 JUMP JUMPDEST PUSH1 0x0 PUSH8 0xFFFFFFFFFFFFFFFF DUP3 GT ISZERO PUSH2 0x1A29 JUMPI PUSH2 0x1A28 PUSH2 0x1CB6 JUMP JUMPDEST JUMPDEST PUSH2 0x1A32 DUP3 PUSH2 0x1CF9 JUMP JUMPDEST SWAP1 POP PUSH1 0x20 DUP2 ADD SWAP1 POP SWAP2 SWAP1 POP JUMP JUMPDEST PUSH1 0x0 DUP2 SWAP1 POP PUSH1 0x20 DUP3 ADD SWAP1 POP SWAP2 SWAP1 POP JUMP JUMPDEST PUSH1 0x0 DUP2 MLOAD SWAP1 POP SWAP2 SWAP1 POP JUMP JUMPDEST PUSH1 0x0 DUP2 MLOAD SWAP1 POP SWAP2 SWAP1 POP JUMP JUMPDEST PUSH1 0x0 PUSH1 0x20 DUP3 ADD SWAP1 POP SWAP2 SWAP1 POP JUMP JUMPDEST PUSH1 0x0 DUP3 DUP3 MSTORE PUSH1 0x20 DUP3 ADD SWAP1 POP SWAP3 SWAP2 POP POP JUMP JUMPDEST PUSH1 0x0 DUP3 DUP3 MSTORE PUSH1 0x20 DUP3 ADD SWAP1 POP SWAP3 SWAP2 POP POP JUMP JUMPDEST PUSH1 0x0 DUP3 DUP3 MSTORE PUSH1 0x20 DUP3 ADD SWAP1 POP SWAP3 SWAP2 POP POP JUMP JUMPDEST PUSH1 0x0 PUSH2 0x1AB0 DUP3 PUSH2 0x1B31 JUMP JUMPDEST SWAP2 POP PUSH2 0x1ABB DUP4 PUSH2 0x1B31 JUMP JUMPDEST SWAP3 POP DUP2 PUSH32 0xFFFFFFFFFFFFFFFFFFFFFFFFFFFFFFFFFFFFFFFFFFFFFFFFFFFFFFFFFFFFFFFF DIV DUP4 GT DUP3 ISZERO ISZERO AND ISZERO PUSH2 0x1AF4 JUMPI PUSH2 0x1AF3 PUSH2 0x1C29 JUMP JUMPDEST JUMPDEST DUP3 DUP3 MUL SWAP1 POP SWAP3 SWAP2 POP POP JUMP JUMPDEST PUSH1 0x0 PUSH2 0x1B0A DUP3 PUSH2 0x1B11 JUMP JUMPDEST SWAP1 POP SWAP2 SWAP1 POP JUMP JUMPDEST PUSH1 0x0 PUSH20 0xFFFFFFFFFFFFFFFFFFFFFFFFFFFFFFFFFFFFFFFF DUP3 AND SWAP1 POP SWAP2 SWAP1 POP JUMP JUMPDEST PUSH1 0x0 DUP2 SWAP1 POP SWAP2 SWAP1 POP JUMP JUMPDEST DUP3 DUP2 DUP4 CALLDATACOPY PUSH1 0x0 DUP4 DUP4 ADD MSTORE POP POP POP JUMP JUMPDEST PUSH1 0x0 JUMPDEST DUP4 DUP2 LT ISZERO PUSH2 0x1B68 JUMPI DUP1 DUP3 ADD MLOAD DUP2 DUP5 ADD MSTORE PUSH1 0x20 DUP2 ADD SWAP1 POP PUSH2 0x1B4D JUMP JUMPDEST DUP4 DUP2 GT ISZERO PUSH2 0x1B77 JUMPI PUSH1 0x0 DUP5 DUP5 ADD MSTORE JUMPDEST POP POP POP POP JUMP JUMPDEST PUSH1 0x0 PUSH1 0x2 DUP3 DIV SWAP1 POP PUSH1 0x1 DUP3 AND DUP1 PUSH2 0x1B95 JUMPI PUSH1 0x7F DUP3 AND SWAP2 POP JUMPDEST PUSH1 0x20 DUP3 LT DUP2 EQ ISZERO PUSH2 0x1BA9 JUMPI PUSH2 0x1BA8 PUSH2 0x1C58 JUMP JUMPDEST JUMPDEST POP SWAP2 SWAP1 POP JUMP JUMPDEST PUSH2 0x1BB8 DUP3 PUSH2 0x1CF9 JUMP JUMPDEST DUP2 ADD DUP2 DUP2 LT PUSH8 0xFFFFFFFFFFFFFFFF DUP3 GT OR ISZERO PUSH2 0x1BD7 JUMPI PUSH2 0x1BD6 PUSH2 0x1CB6 JUMP JUMPDEST JUMPDEST DUP1 PUSH1 0x40 MSTORE POP POP POP JUMP JUMPDEST PUSH1 0x0 PUSH2 0x1BEB DUP3 PUSH2 0x1B31 JUMP JUMPDEST SWAP2 POP PUSH32 0xFFFFFFFFFFFFFFFFFFFFFFFFFFFFFFFFFFFFFFFFFFFFFFFFFFFFFFFFFFFFFFFF DUP3 EQ ISZERO PUSH2 0x1C1E JUMPI PUSH2 0x1C1D PUSH2 0x1C29 JUMP JUMPDEST JUMPDEST PUSH1 0x1 DUP3 ADD SWAP1 POP SWAP2 SWAP1 POP JUMP JUMPDEST PUSH32 0x4E487B7100000000000000000000000000000000000000000000000000000000 PUSH1 0x0 MSTORE PUSH1 0x11 PUSH1 0x4 MSTORE PUSH1 0x24 PUSH1 0x0 REVERT JUMPDEST PUSH32 0x4E487B7100000000000000000000000000000000000000000000000000000000 PUSH1 0x0 MSTORE PUSH1 0x22 PUSH1 0x4 MSTORE PUSH1 0x24 PUSH1 0x0 REVERT JUMPDEST PUSH32 0x4E487B7100000000000000000000000000000000000000000000000000000000 PUSH1 0x0 MSTORE PUSH1 0x32 PUSH1 0x4 MSTORE PUSH1 0x24 PUSH1 0x0 REVERT JUMPDEST PUSH32 0x4E487B7100000000000000000000000000000000000000000000000000000000 PUSH1 0x0 MSTORE PUSH1 0x41 PUSH1 0x4 MSTORE PUSH1 0x24 PUSH1 0x0 REVERT JUMPDEST PUSH1 0x0 DUP1 REVERT JUMPDEST PUSH1 0x0 DUP1 REVERT JUMPDEST PUSH1 0x0 DUP1 REVERT JUMPDEST PUSH1 0x0 DUP1 REVERT JUMPDEST PUSH1 0x0 PUSH1 0x1F NOT PUSH1 0x1F DUP4 ADD AND SWAP1 POP SWAP2 SWAP1 POP JUMP JUMPDEST PUSH2 0x1D13 DUP2 PUSH2 0x1AFF JUMP JUMPDEST DUP2 EQ PUSH2 0x1D1E JUMPI PUSH1 0x0 DUP1 REVERT JUMPDEST POP JUMP JUMPDEST PUSH2 0x1D2A DUP2 PUSH2 0x1B31 JUMP JUMPDEST DUP2 EQ PUSH2 0x1D35 JUMPI PUSH1 0x0 DUP1 REVERT JUMPDEST POP JUMP INVALID LOG2 PUSH5 0x6970667358 0x22 SLT KECCAK256 DUP12 DIV SWAP6 0xE PUSH28 0x11C4E826A63E94DA4023879706D2FBEA0E4706509E4869D6D751C64 PUSH20 0x6F6C634300080700330000000000000000000000 "
				},
				"gasEstimates": {
					"creation": {
						"codeDepositCost": "1506800",
						"executionCost": "1575",
						"totalCost": "1508375"
					},
					"external": {
						"accountsWithRegistrations(uint256)": "5000",
						"addRegistration(address,string,string,string,string,string,string,string)": "infinite",
						"getAllRegistrations(uint256)": "infinite",
						"getRegistrationEvidence()": "infinite",
						"registrationCount()": "2429",
						"registrations(address,uint256)": "infinite"
					}
				},
				"methodIdentifiers": {
					"accountsWithRegistrations(uint256)": "46b5bef1",
					"addRegistration(address,string,string,string,string,string,string,string)": "337c9ba6",
					"getAllRegistrations(uint256)": "ad49d821",
					"getRegistrationEvidence()": "c996b7cc",
					"registrationCount()": "0d3eafd6",
					"registrations(address,uint256)": "09052679"
				}
			},
			"storageLayout": {
				"storage": [
					{
						"astId": 24,
						"contract": "contracts/registrasi.sol:ConsultationRegist",
						"label": "registrations",
						"offset": 0,
						"slot": "0",
						"type": "t_mapping(t_address,t_array(t_struct(Data)18_storage)dyn_storage)"
					},
					{
						"astId": 27,
						"contract": "contracts/registrasi.sol:ConsultationRegist",
						"label": "accountsWithRegistrations",
						"offset": 0,
						"slot": "1",
						"type": "t_array(t_address)dyn_storage"
					},
					{
						"astId": 29,
						"contract": "contracts/registrasi.sol:ConsultationRegist",
						"label": "registrationCount",
						"offset": 0,
						"slot": "2",
						"type": "t_uint256"
					}
				],
				"types": {
					"t_address": {
						"encoding": "inplace",
						"label": "address",
						"numberOfBytes": "20"
					},
					"t_array(t_address)dyn_storage": {
						"base": "t_address",
						"encoding": "dynamic_array",
						"label": "address[]",
						"numberOfBytes": "32"
					},
					"t_array(t_struct(Data)18_storage)dyn_storage": {
						"base": "t_struct(Data)18_storage",
						"encoding": "dynamic_array",
						"label": "struct ConsultationRegist.Data[]",
						"numberOfBytes": "32"
					},
					"t_mapping(t_address,t_array(t_struct(Data)18_storage)dyn_storage)": {
						"encoding": "mapping",
						"key": "t_address",
						"label": "mapping(address => struct ConsultationRegist.Data[])",
						"numberOfBytes": "32",
						"value": "t_array(t_struct(Data)18_storage)dyn_storage"
					},
					"t_string_storage": {
						"encoding": "bytes",
						"label": "string",
						"numberOfBytes": "32"
					},
					"t_struct(Data)18_storage": {
						"encoding": "inplace",
						"label": "struct ConsultationRegist.Data",
						"members": [
							{
								"astId": 3,
								"contract": "contracts/registrasi.sol:ConsultationRegist",
								"label": "nama",
								"offset": 0,
								"slot": "0",
								"type": "t_string_storage"
							},
							{
								"astId": 5,
								"contract": "contracts/registrasi.sol:ConsultationRegist",
								"label": "telepon",
								"offset": 0,
								"slot": "1",
								"type": "t_string_storage"
							},
							{
								"astId": 7,
								"contract": "contracts/registrasi.sol:ConsultationRegist",
								"label": "namaDokter",
								"offset": 0,
								"slot": "2",
								"type": "t_string_storage"
							},
							{
								"astId": 9,
								"contract": "contracts/registrasi.sol:ConsultationRegist",
								"label": "sesi",
								"offset": 0,
								"slot": "3",
								"type": "t_string_storage"
							},
							{
								"astId": 11,
								"contract": "contracts/registrasi.sol:ConsultationRegist",
								"label": "tanggal",
								"offset": 0,
								"slot": "4",
								"type": "t_string_storage"
							},
							{
								"astId": 13,
								"contract": "contracts/registrasi.sol:ConsultationRegist",
								"label": "keluhan",
								"offset": 0,
								"slot": "5",
								"type": "t_string_storage"
							},
							{
								"astId": 15,
								"contract": "contracts/registrasi.sol:ConsultationRegist",
								"label": "gender",
								"offset": 0,
								"slot": "6",
								"type": "t_string_storage"
							},
							{
								"astId": 17,
								"contract": "contracts/registrasi.sol:ConsultationRegist",
								"label": "wallet",
								"offset": 0,
								"slot": "7",
								"type": "t_address"
							}
						],
						"numberOfBytes": "256"
					},
					"t_uint256": {
						"encoding": "inplace",
						"label": "uint256",
						"numberOfBytes": "32"
					}
				}
			},
			"userdoc": {
				"kind": "user",
				"methods": {},
				"version": 1
			}
		}
	}
}