{
	"contracts/konsultasi.sol": {
		"ConsultationResult": {
			"abi": [
				{
					"inputs": [
						{
							"internalType": "address",
							"name": "_rolesContractAddress",
							"type": "address"
						}
					],
					"stateMutability": "nonpayable",
					"type": "constructor"
				},
				{
					"inputs": [
						{
							"internalType": "uint256",
							"name": "",
							"type": "uint256"
						}
					],
					"name": "accountsWithConsultations",
					"outputs": [
						{
							"internalType": "address",
							"name": "",
							"type": "address"
						}
					],
					"stateMutability": "view",
					"type": "function"
				},
				{
					"inputs": [
						{
							"internalType": "address",
							"name": "_wallet",
							"type": "address"
						},
						{
							"internalType": "string",
							"name": "_nama",
							"type": "string"
						},
						{
							"internalType": "string",
							"name": "_namaDokter",
							"type": "string"
						},
						{
							"internalType": "string",
							"name": "_tanggal",
							"type": "string"
						},
						{
							"internalType": "string",
							"name": "_keluhan",
							"type": "string"
						},
						{
							"internalType": "string",
							"name": "_diagnosa",
							"type": "string"
						},
						{
							"internalType": "string",
							"name": "_tensi",
							"type": "string"
						},
						{
							"internalType": "string",
							"name": "_gula",
							"type": "string"
						}
					],
					"name": "addConsultation",
					"outputs": [],
					"stateMutability": "nonpayable",
					"type": "function"
				},
				{
					"inputs": [],
					"name": "consultationCount",
					"outputs": [
						{
							"internalType": "uint256",
							"name": "",
							"type": "uint256"
						}
					],
					"stateMutability": "view",
					"type": "function"
				},
				{
					"inputs": [
						{
							"internalType": "address",
							"name": "",
							"type": "address"
						},
						{
							"internalType": "uint256",
							"name": "",
							"type": "uint256"
						}
					],
					"name": "consultations",
					"outputs": [
						{
							"internalType": "string",
							"name": "nama",
							"type": "string"
						},
						{
							"internalType": "string",
							"name": "namaDokter",
							"type": "string"
						},
						{
							"internalType": "string",
							"name": "tanggal",
							"type": "string"
						},
						{
							"internalType": "string",
							"name": "keluhan",
							"type": "string"
						},
						{
							"internalType": "string",
							"name": "diagnosa",
							"type": "string"
						},
						{
							"internalType": "string",
							"name": "tensi",
							"type": "string"
						},
						{
							"internalType": "string",
							"name": "gula",
							"type": "string"
						},
						{
							"internalType": "address",
							"name": "wallet",
							"type": "address"
						}
					],
					"stateMutability": "view",
					"type": "function"
				},
				{
					"inputs": [
						{
							"internalType": "uint256",
							"name": "offset",
							"type": "uint256"
						}
					],
					"name": "getAllConsultations",
					"outputs": [
						{
							"components": [
								{
									"internalType": "string",
									"name": "nama",
									"type": "string"
								},
								{
									"internalType": "string",
									"name": "namaDokter",
									"type": "string"
								},
								{
									"internalType": "string",
									"name": "tanggal",
									"type": "string"
								},
								{
									"internalType": "string",
									"name": "keluhan",
									"type": "string"
								},
								{
									"internalType": "string",
									"name": "diagnosa",
									"type": "string"
								},
								{
									"internalType": "string",
									"name": "tensi",
									"type": "string"
								},
								{
									"internalType": "string",
									"name": "gula",
									"type": "string"
								},
								{
									"internalType": "address",
									"name": "wallet",
									"type": "address"
								}
							],
							"internalType": "struct ConsultationResult.Data[]",
							"name": "",
							"type": "tuple[]"
						}
					],
					"stateMutability": "view",
					"type": "function"
				},
				{
					"inputs": [],
					"name": "getConsultationsPasien",
					"outputs": [
						{
							"components": [
								{
									"internalType": "string",
									"name": "nama",
									"type": "string"
								},
								{
									"internalType": "string",
									"name": "namaDokter",
									"type": "string"
								},
								{
									"internalType": "string",
									"name": "tanggal",
									"type": "string"
								},
								{
									"internalType": "string",
									"name": "keluhan",
									"type": "string"
								},
								{
									"internalType": "string",
									"name": "diagnosa",
									"type": "string"
								},
								{
									"internalType": "string",
									"name": "tensi",
									"type": "string"
								},
								{
									"internalType": "string",
									"name": "gula",
									"type": "string"
								},
								{
									"internalType": "address",
									"name": "wallet",
									"type": "address"
								}
							],
							"internalType": "struct ConsultationResult.Data[]",
							"name": "",
							"type": "tuple[]"
						}
					],
					"stateMutability": "view",
					"type": "function"
				},
				{
					"inputs": [],
					"name": "roles",
					"outputs": [
						{
							"internalType": "contract UserRoles",
							"name": "",
							"type": "address"
						}
					],
					"stateMutability": "view",
					"type": "function"
				},
				{
					"inputs": [
						{
							"internalType": "address",
							"name": "_wallet",
							"type": "address"
						},
						{
							"internalType": "uint256",
							"name": "_index",
							"type": "uint256"
						},
						{
							"internalType": "string",
							"name": "_nama",
							"type": "string"
						},
						{
							"internalType": "string",
							"name": "_namaDokter",
							"type": "string"
						},
						{
							"internalType": "string",
							"name": "_tanggal",
							"type": "string"
						},
						{
							"internalType": "string",
							"name": "_keluhan",
							"type": "string"
						},
						{
							"internalType": "string",
							"name": "_diagnosa",
							"type": "string"
						},
						{
							"internalType": "string",
							"name": "_tensi",
							"type": "string"
						},
						{
							"internalType": "string",
							"name": "_gula",
							"type": "string"
						}
					],
					"name": "updateConsultation",
					"outputs": [],
					"stateMutability": "nonpayable",
					"type": "function"
				}
			],
			"devdoc": {
				"kind": "dev",
				"methods": {},
				"version": 1
			},
			"evm": {
				"assembly": "    /* \"contracts/konsultasi.sol\":85:3028  contract ConsultationResult {... */\n  mstore(0x40, 0x80)\n    /* \"contracts/konsultasi.sol\":516:618  constructor(address _rolesContractAddress) {... */\n  callvalue\n  dup1\n  iszero\n  tag_1\n  jumpi\n  0x00\n  dup1\n  revert\ntag_1:\n  pop\n  mload(0x40)\n  sub(codesize, bytecodeSize)\n  dup1\n  bytecodeSize\n  dup4\n  codecopy\n  dup2\n  dup2\n  add\n  0x40\n  mstore\n  dup2\n  add\n  swap1\n  tag_2\n  swap2\n  swap1\n  tag_3\n  jump\t// in\ntag_2:\n    /* \"contracts/konsultasi.sol\":588:609  _rolesContractAddress */\n  dup1\n    /* \"contracts/konsultasi.sol\":570:575  roles */\n  0x00\n  dup1\n    /* \"contracts/konsultasi.sol\":570:610  roles = UserRoles(_rolesContractAddress) */\n  0x0100\n  exp\n  dup2\n  sload\n  dup2\n  0xffffffffffffffffffffffffffffffffffffffff\n  mul\n  not\n  and\n  swap1\n  dup4\n  0xffffffffffffffffffffffffffffffffffffffff\n  and\n  mul\n  or\n  swap1\n  sstore\n  pop\n    /* \"contracts/konsultasi.sol\":516:618  constructor(address _rolesContractAddress) {... */\n  pop\n    /* \"contracts/konsultasi.sol\":85:3028  contract ConsultationResult {... */\n  jump(tag_6)\n    /* \"#utility.yul\":88:205   */\ntag_8:\n    /* \"#utility.yul\":197:198   */\n  0x00\n    /* \"#utility.yul\":194:195   */\n  dup1\n    /* \"#utility.yul\":187:199   */\n  revert\n    /* \"#utility.yul\":334:460   */\ntag_10:\n    /* \"#utility.yul\":371:378   */\n  0x00\n    /* \"#utility.yul\":411:453   */\n  0xffffffffffffffffffffffffffffffffffffffff\n    /* \"#utility.yul\":404:409   */\n  dup3\n    /* \"#utility.yul\":400:454   */\n  and\n    /* \"#utility.yul\":389:454   */\n  swap1\n  pop\n    /* \"#utility.yul\":334:460   */\n  swap2\n  swap1\n  pop\n  jump\t// out\n    /* \"#utility.yul\":466:562   */\ntag_11:\n    /* \"#utility.yul\":503:510   */\n  0x00\n    /* \"#utility.yul\":532:556   */\n  tag_20\n    /* \"#utility.yul\":550:555   */\n  dup3\n    /* \"#utility.yul\":532:556   */\n  tag_10\n  jump\t// in\ntag_20:\n    /* \"#utility.yul\":521:556   */\n  swap1\n  pop\n    /* \"#utility.yul\":466:562   */\n  swap2\n  swap1\n  pop\n  jump\t// out\n    /* \"#utility.yul\":568:690   */\ntag_12:\n    /* \"#utility.yul\":641:665   */\n  tag_22\n    /* \"#utility.yul\":659:664   */\n  dup2\n    /* \"#utility.yul\":641:665   */\n  tag_11\n  jump\t// in\ntag_22:\n    /* \"#utility.yul\":634:639   */\n  dup2\n    /* \"#utility.yul\":631:666   */\n  eq\n    /* \"#utility.yul\":621:684   */\n  tag_23\n  jumpi\n    /* \"#utility.yul\":680:681   */\n  0x00\n    /* \"#utility.yul\":677:678   */\n  dup1\n    /* \"#utility.yul\":670:682   */\n  revert\n    /* \"#utility.yul\":621:684   */\ntag_23:\n    /* \"#utility.yul\":568:690   */\n  pop\n  jump\t// out\n    /* \"#utility.yul\":696:839   */\ntag_13:\n    /* \"#utility.yul\":753:758   */\n  0x00\n    /* \"#utility.yul\":784:790   */\n  dup2\n    /* \"#utility.yul\":778:791   */\n  mload\n    /* \"#utility.yul\":769:791   */\n  swap1\n  pop\n    /* \"#utility.yul\":800:833   */\n  tag_25\n    /* \"#utility.yul\":827:832   */\n  dup2\n    /* \"#utility.yul\":800:833   */\n  tag_12\n  jump\t// in\ntag_25:\n    /* \"#utility.yul\":696:839   */\n  swap3\n  swap2\n  pop\n  pop\n  jump\t// out\n    /* \"#utility.yul\":845:1196   */\ntag_3:\n    /* \"#utility.yul\":915:921   */\n  0x00\n    /* \"#utility.yul\":964:966   */\n  0x20\n    /* \"#utility.yul\":952:961   */\n  dup3\n    /* \"#utility.yul\":943:950   */\n  dup5\n    /* \"#utility.yul\":939:962   */\n  sub\n    /* \"#utility.yul\":935:967   */\n  slt\n    /* \"#utility.yul\":932:1051   */\n  iszero\n  tag_27\n  jumpi\n    /* \"#utility.yul\":970:1049   */\n  tag_28\n  tag_8\n  jump\t// in\ntag_28:\n    /* \"#utility.yul\":932:1051   */\ntag_27:\n    /* \"#utility.yul\":1090:1091   */\n  0x00\n    /* \"#utility.yul\":1115:1179   */\n  tag_29\n    /* \"#utility.yul\":1171:1178   */\n  dup5\n    /* \"#utility.yul\":1162:1168   */\n  dup3\n    /* \"#utility.yul\":1151:1160   */\n  dup6\n    /* \"#utility.yul\":1147:1169   */\n  add\n    /* \"#utility.yul\":1115:1179   */\n  tag_13\n  jump\t// in\ntag_29:\n    /* \"#utility.yul\":1105:1179   */\n  swap2\n  pop\n    /* \"#utility.yul\":1061:1189   */\n  pop\n    /* \"#utility.yul\":845:1196   */\n  swap3\n  swap2\n  pop\n  pop\n  jump\t// out\n    /* \"contracts/konsultasi.sol\":85:3028  contract ConsultationResult {... */\ntag_6:\n  dataSize(sub_0)\n  dup1\n  dataOffset(sub_0)\n  0x00\n  codecopy\n  0x00\n  return\nstop\n\nsub_0: assembly {\n        /* \"contracts/konsultasi.sol\":85:3028  contract ConsultationResult {... */\n      mstore(0x40, 0x80)\n      callvalue\n      dup1\n      iszero\n      tag_1\n      jumpi\n      0x00\n      dup1\n      revert\n    tag_1:\n      pop\n      jumpi(tag_2, lt(calldatasize, 0x04))\n      shr(0xe0, calldataload(0x00))\n      dup1\n      0x745ab0e6\n      gt\n      tag_11\n      jumpi\n      dup1\n      0x745ab0e6\n      eq\n      tag_7\n      jumpi\n      dup1\n      0xb5067f23\n      eq\n      tag_8\n      jumpi\n      dup1\n      0xc0f07fde\n      eq\n      tag_9\n      jumpi\n      dup1\n      0xf4fd62d3\n      eq\n      tag_10\n      jumpi\n      jump(tag_2)\n    tag_11:\n      dup1\n      0x2ba15500\n      eq\n      tag_3\n      jumpi\n      dup1\n      0x2d1bb6fc\n      eq\n      tag_4\n      jumpi\n      dup1\n      0x3001b568\n      eq\n      tag_5\n      jumpi\n      dup1\n      0x392f5f64\n      eq\n      tag_6\n      jumpi\n    tag_2:\n      0x00\n      dup1\n      revert\n        /* \"contracts/konsultasi.sol\":2364:3025  function getAllConsultations(uint offset) public view onlyAdminOrDokter returns (Data[] memory) {... */\n    tag_3:\n      tag_12\n      0x04\n      dup1\n      calldatasize\n      sub\n      dup2\n      add\n      swap1\n      tag_13\n      swap2\n      swap1\n      tag_14\n      jump\t// in\n    tag_13:\n      tag_15\n      jump\t// in\n    tag_12:\n      mload(0x40)\n      tag_16\n      swap2\n      swap1\n      tag_17\n      jump\t// in\n    tag_16:\n      mload(0x40)\n      dup1\n      swap2\n      sub\n      swap1\n      return\n        /* \"contracts/konsultasi.sol\":429:471  address[] public accountsWithConsultations */\n    tag_4:\n      tag_18\n      0x04\n      dup1\n      calldatasize\n      sub\n      dup2\n      add\n      swap1\n      tag_19\n      swap2\n      swap1\n      tag_14\n      jump\t// in\n    tag_19:\n      tag_20\n      jump\t// in\n    tag_18:\n      mload(0x40)\n      tag_21\n      swap2\n      swap1\n      tag_22\n      jump\t// in\n    tag_21:\n      mload(0x40)\n      dup1\n      swap2\n      sub\n      swap1\n      return\n        /* \"contracts/konsultasi.sol\":375:422  mapping(address => Data[]) public consultations */\n    tag_5:\n      tag_23\n      0x04\n      dup1\n      calldatasize\n      sub\n      dup2\n      add\n      swap1\n      tag_24\n      swap2\n      swap1\n      tag_25\n      jump\t// in\n    tag_24:\n      tag_26\n      jump\t// in\n    tag_23:\n      mload(0x40)\n      tag_27\n      swap9\n      swap8\n      swap7\n      swap6\n      swap5\n      swap4\n      swap3\n      swap2\n      swap1\n      tag_28\n      jump\t// in\n    tag_27:\n      mload(0x40)\n      dup1\n      swap2\n      sub\n      swap1\n      return\n        /* \"contracts/konsultasi.sol\":120:142  UserRoles public roles */\n    tag_6:\n      tag_29\n      tag_30\n      jump\t// in\n    tag_29:\n      mload(0x40)\n      tag_31\n      swap2\n      swap1\n      tag_32\n      jump\t// in\n    tag_31:\n      mload(0x40)\n      dup1\n      swap2\n      sub\n      swap1\n      return\n        /* \"contracts/konsultasi.sol\":1580:2125  function updateConsultation(... */\n    tag_7:\n      tag_33\n      0x04\n      dup1\n      calldatasize\n      sub\n      dup2\n      add\n      swap1\n      tag_34\n      swap2\n      swap1\n      tag_35\n      jump\t// in\n    tag_34:\n      tag_36\n      jump\t// in\n    tag_33:\n      stop\n        /* \"contracts/konsultasi.sol\":2169:2301  function getConsultationsPasien() public view onlyPasien returns (Data[] memory) {... */\n    tag_8:\n      tag_37\n      tag_38\n      jump\t// in\n    tag_37:\n      mload(0x40)\n      tag_39\n      swap2\n      swap1\n      tag_17\n      jump\t// in\n    tag_39:\n      mload(0x40)\n      dup1\n      swap2\n      sub\n      swap1\n      return\n        /* \"contracts/konsultasi.sol\":478:507  uint public consultationCount */\n    tag_9:\n      tag_40\n      tag_41\n      jump\t// in\n    tag_40:\n      mload(0x40)\n      tag_42\n      swap2\n      swap1\n      tag_43\n      jump\t// in\n    tag_42:\n      mload(0x40)\n      dup1\n      swap2\n      sub\n      swap1\n      return\n        /* \"contracts/konsultasi.sol\":1007:1525  function addConsultation(... */\n    tag_10:\n      tag_44\n      0x04\n      dup1\n      calldatasize\n      sub\n      dup2\n      add\n      swap1\n      tag_45\n      swap2\n      swap1\n      tag_46\n      jump\t// in\n    tag_45:\n      tag_47\n      jump\t// in\n    tag_44:\n      stop\n        /* \"contracts/konsultasi.sol\":2364:3025  function getAllConsultations(uint offset) public view onlyAdminOrDokter returns (Data[] memory) {... */\n    tag_15:\n        /* \"contracts/konsultasi.sol\":2445:2458  Data[] memory */\n      0x60\n        /* \"contracts/konsultasi.sol\":817:822  roles */\n      0x00\n      dup1\n      sload\n      swap1\n      0x0100\n      exp\n      swap1\n      div\n      0xffffffffffffffffffffffffffffffffffffffff\n      and\n        /* \"contracts/konsultasi.sol\":817:830  roles.isAdmin */\n      0xffffffffffffffffffffffffffffffffffffffff\n      and\n      0x24d7806c\n        /* \"contracts/konsultasi.sol\":831:841  msg.sender */\n      caller\n        /* \"contracts/konsultasi.sol\":817:842  roles.isAdmin(msg.sender) */\n      mload(0x40)\n      dup3\n      0xffffffff\n      and\n      0xe0\n      shl\n      dup2\n      mstore\n      0x04\n      add\n      tag_49\n      swap2\n      swap1\n      tag_22\n      jump\t// in\n    tag_49:\n      0x20\n      mload(0x40)\n      dup1\n      dup4\n      sub\n      dup2\n      dup7\n      gas\n      staticcall\n      iszero\n      dup1\n      iszero\n      tag_51\n      jumpi\n      returndatasize\n      0x00\n      dup1\n      returndatacopy\n      revert(0x00, returndatasize)\n    tag_51:\n      pop\n      pop\n      pop\n      pop\n      mload(0x40)\n      returndatasize\n      not(0x1f)\n      0x1f\n      dup3\n      add\n      and\n      dup3\n      add\n      dup1\n      0x40\n      mstore\n      pop\n      dup2\n      add\n      swap1\n      tag_52\n      swap2\n      swap1\n      tag_53\n      jump\t// in\n    tag_52:\n        /* \"contracts/konsultasi.sol\":817:872  roles.isAdmin(msg.sender) || roles.isDokter(msg.sender) */\n      dup1\n      tag_54\n      jumpi\n      pop\n        /* \"contracts/konsultasi.sol\":846:851  roles */\n      0x00\n      dup1\n      sload\n      swap1\n      0x0100\n      exp\n      swap1\n      div\n      0xffffffffffffffffffffffffffffffffffffffff\n      and\n        /* \"contracts/konsultasi.sol\":846:860  roles.isDokter */\n      0xffffffffffffffffffffffffffffffffffffffff\n      and\n      0x5c4c9348\n        /* \"contracts/konsultasi.sol\":861:871  msg.sender */\n      caller\n        /* \"contracts/konsultasi.sol\":846:872  roles.isDokter(msg.sender) */\n      mload(0x40)\n      dup3\n      0xffffffff\n      and\n      0xe0\n      shl\n      dup2\n      mstore\n      0x04\n      add\n      tag_55\n      swap2\n      swap1\n      tag_22\n      jump\t// in\n    tag_55:\n      0x20\n      mload(0x40)\n      dup1\n      dup4\n      sub\n      dup2\n      dup7\n      gas\n      staticcall\n      iszero\n      dup1\n      iszero\n      tag_57\n      jumpi\n      returndatasize\n      0x00\n      dup1\n      returndatacopy\n      revert(0x00, returndatasize)\n    tag_57:\n      pop\n      pop\n      pop\n      pop\n      mload(0x40)\n      returndatasize\n      not(0x1f)\n      0x1f\n      dup3\n      add\n      and\n      dup3\n      add\n      dup1\n      0x40\n      mstore\n      pop\n      dup2\n      add\n      swap1\n      tag_58\n      swap2\n      swap1\n      tag_53\n      jump\t// in\n    tag_58:\n        /* \"contracts/konsultasi.sol\":817:872  roles.isAdmin(msg.sender) || roles.isDokter(msg.sender) */\n    tag_54:\n        /* \"contracts/konsultasi.sol\":809:932  require(roles.isAdmin(msg.sender) || roles.isDokter(msg.sender), \"Hanya admin atau dokter yang diizinkan untuk mengakses.\") */\n      tag_59\n      jumpi\n      mload(0x40)\n      0x08c379a000000000000000000000000000000000000000000000000000000000\n      dup2\n      mstore\n      0x04\n      add\n      tag_60\n      swap1\n      tag_61\n      jump\t// in\n    tag_60:\n      mload(0x40)\n      dup1\n      swap2\n      sub\n      swap1\n      revert\n    tag_59:\n        /* \"contracts/konsultasi.sol\":2471:2502  uint maxConsultationsPerAccount */\n      0x00\n        /* \"contracts/konsultasi.sol\":2505:2507  10 */\n      0x0a\n        /* \"contracts/konsultasi.sol\":2471:2507  uint maxConsultationsPerAccount = 10 */\n      swap1\n      pop\n        /* \"contracts/konsultasi.sol\":2518:2548  Data[] memory allConsultations */\n      0x00\n        /* \"contracts/konsultasi.sol\":2567:2593  maxConsultationsPerAccount */\n      dup2\n        /* \"contracts/konsultasi.sol\":2562:2564  10 */\n      0x0a\n        /* \"contracts/konsultasi.sol\":2562:2593  10 * maxConsultationsPerAccount */\n      tag_63\n      swap2\n      swap1\n      tag_64\n      jump\t// in\n    tag_63:\n        /* \"contracts/konsultasi.sol\":2551:2594  new Data[](10 * maxConsultationsPerAccount) */\n      0xffffffffffffffff\n      dup2\n      gt\n      iszero\n      tag_65\n      jumpi\n      tag_66\n      tag_67\n      jump\t// in\n    tag_66:\n    tag_65:\n      mload(0x40)\n      swap1\n      dup1\n      dup3\n      mstore\n      dup1\n      0x20\n      mul\n      0x20\n      add\n      dup3\n      add\n      0x40\n      mstore\n      dup1\n      iszero\n      tag_68\n      jumpi\n      dup2\n      0x20\n      add\n    tag_69:\n      tag_70\n      tag_71\n      jump\t// in\n    tag_70:\n      dup2\n      mstore\n      0x20\n      add\n      swap1\n      0x01\n      swap1\n      sub\n      swap1\n      dup2\n      tag_69\n      jumpi\n      swap1\n      pop\n    tag_68:\n      pop\n        /* \"contracts/konsultasi.sol\":2518:2594  Data[] memory allConsultations = new Data[](10 * maxConsultationsPerAccount) */\n      swap1\n      pop\n        /* \"contracts/konsultasi.sol\":2605:2617  uint counter */\n      0x00\n        /* \"contracts/konsultasi.sol\":2637:2643  uint i */\n      dup1\n        /* \"contracts/konsultasi.sol\":2646:2652  offset */\n      dup6\n        /* \"contracts/konsultasi.sol\":2637:2652  uint i = offset */\n      swap1\n      pop\n        /* \"contracts/konsultasi.sol\":2632:2984  for (uint i = offset; i < accountsWithConsultations.length; i++) {... */\n    tag_72:\n        /* \"contracts/konsultasi.sol\":2658:2683  accountsWithConsultations */\n      0x02\n        /* \"contracts/konsultasi.sol\":2658:2690  accountsWithConsultations.length */\n      dup1\n      sload\n      swap1\n      pop\n        /* \"contracts/konsultasi.sol\":2654:2655  i */\n      dup2\n        /* \"contracts/konsultasi.sol\":2654:2690  i < accountsWithConsultations.length */\n      lt\n        /* \"contracts/konsultasi.sol\":2632:2984  for (uint i = offset; i < accountsWithConsultations.length; i++) {... */\n      iszero\n      tag_73\n      jumpi\n        /* \"contracts/konsultasi.sol\":2712:2730  Data[] memory data */\n      0x00\n        /* \"contracts/konsultasi.sol\":2733:2746  consultations */\n      0x01\n        /* \"contracts/konsultasi.sol\":2733:2776  consultations[accountsWithConsultations[i]] */\n      0x00\n        /* \"contracts/konsultasi.sol\":2747:2772  accountsWithConsultations */\n      0x02\n        /* \"contracts/konsultasi.sol\":2773:2774  i */\n      dup5\n        /* \"contracts/konsultasi.sol\":2747:2775  accountsWithConsultations[i] */\n      dup2\n      sload\n      dup2\n      lt\n      tag_75\n      jumpi\n      tag_76\n      tag_77\n      jump\t// in\n    tag_76:\n    tag_75:\n      swap1\n      0x00\n      mstore\n      keccak256(0x00, 0x20)\n      add\n      0x00\n      swap1\n      sload\n      swap1\n      0x0100\n      exp\n      swap1\n      div\n      0xffffffffffffffffffffffffffffffffffffffff\n      and\n        /* \"contracts/konsultasi.sol\":2733:2776  consultations[accountsWithConsultations[i]] */\n      0xffffffffffffffffffffffffffffffffffffffff\n      and\n      0xffffffffffffffffffffffffffffffffffffffff\n      and\n      dup2\n      mstore\n      0x20\n      add\n      swap1\n      dup2\n      mstore\n      0x20\n      add\n      0x00\n      keccak256\n        /* \"contracts/konsultasi.sol\":2712:2776  Data[] memory data = consultations[accountsWithConsultations[i]] */\n      dup1\n      sload\n      dup1\n      0x20\n      mul\n      0x20\n      add\n      mload(0x40)\n      swap1\n      dup2\n      add\n      0x40\n      mstore\n      dup1\n      swap3\n      swap2\n      swap1\n      dup2\n      dup2\n      mstore\n      0x20\n      add\n      0x00\n      swap1\n    tag_79:\n      dup3\n      dup3\n      lt\n      iszero\n      tag_80\n      jumpi\n      dup4\n      dup3\n      swap1\n      0x00\n      mstore\n      keccak256(0x00, 0x20)\n      swap1\n      0x08\n      mul\n      add\n      mload(0x40)\n      dup1\n      0x0100\n      add\n      0x40\n      mstore\n      swap1\n      dup2\n      0x00\n      dup3\n      add\n      dup1\n      sload\n      tag_82\n      swap1\n      tag_83\n      jump\t// in\n    tag_82:\n      dup1\n      0x1f\n      add\n      0x20\n      dup1\n      swap2\n      div\n      mul\n      0x20\n      add\n      mload(0x40)\n      swap1\n      dup2\n      add\n      0x40\n      mstore\n      dup1\n      swap3\n      swap2\n      swap1\n      dup2\n      dup2\n      mstore\n      0x20\n      add\n      dup3\n      dup1\n      sload\n      tag_84\n      swap1\n      tag_83\n      jump\t// in\n    tag_84:\n      dup1\n      iszero\n      tag_85\n      jumpi\n      dup1\n      0x1f\n      lt\n      tag_86\n      jumpi\n      0x0100\n      dup1\n      dup4\n      sload\n      div\n      mul\n      dup4\n      mstore\n      swap2\n      0x20\n      add\n      swap2\n      jump(tag_85)\n    tag_86:\n      dup3\n      add\n      swap2\n      swap1\n      0x00\n      mstore\n      keccak256(0x00, 0x20)\n      swap1\n    tag_87:\n      dup2\n      sload\n      dup2\n      mstore\n      swap1\n      0x01\n      add\n      swap1\n      0x20\n      add\n      dup1\n      dup4\n      gt\n      tag_87\n      jumpi\n      dup3\n      swap1\n      sub\n      0x1f\n      and\n      dup3\n      add\n      swap2\n    tag_85:\n      pop\n      pop\n      pop\n      pop\n      pop\n      dup2\n      mstore\n      0x20\n      add\n      0x01\n      dup3\n      add\n      dup1\n      sload\n      tag_88\n      swap1\n      tag_83\n      jump\t// in\n    tag_88:\n      dup1\n      0x1f\n      add\n      0x20\n      dup1\n      swap2\n      div\n      mul\n      0x20\n      add\n      mload(0x40)\n      swap1\n      dup2\n      add\n      0x40\n      mstore\n      dup1\n      swap3\n      swap2\n      swap1\n      dup2\n      dup2\n      mstore\n      0x20\n      add\n      dup3\n      dup1\n      sload\n      tag_89\n      swap1\n      tag_83\n      jump\t// in\n    tag_89:\n      dup1\n      iszero\n      tag_90\n      jumpi\n      dup1\n      0x1f\n      lt\n      tag_91\n      jumpi\n      0x0100\n      dup1\n      dup4\n      sload\n      div\n      mul\n      dup4\n      mstore\n      swap2\n      0x20\n      add\n      swap2\n      jump(tag_90)\n    tag_91:\n      dup3\n      add\n      swap2\n      swap1\n      0x00\n      mstore\n      keccak256(0x00, 0x20)\n      swap1\n    tag_92:\n      dup2\n      sload\n      dup2\n      mstore\n      swap1\n      0x01\n      add\n      swap1\n      0x20\n      add\n      dup1\n      dup4\n      gt\n      tag_92\n      jumpi\n      dup3\n      swap1\n      sub\n      0x1f\n      and\n      dup3\n      add\n      swap2\n    tag_90:\n      pop\n      pop\n      pop\n      pop\n      pop\n      dup2\n      mstore\n      0x20\n      add\n      0x02\n      dup3\n      add\n      dup1\n      sload\n      tag_93\n      swap1\n      tag_83\n      jump\t// in\n    tag_93:\n      dup1\n      0x1f\n      add\n      0x20\n      dup1\n      swap2\n      div\n      mul\n      0x20\n      add\n      mload(0x40)\n      swap1\n      dup2\n      add\n      0x40\n      mstore\n      dup1\n      swap3\n      swap2\n      swap1\n      dup2\n      dup2\n      mstore\n      0x20\n      add\n      dup3\n      dup1\n      sload\n      tag_94\n      swap1\n      tag_83\n      jump\t// in\n    tag_94:\n      dup1\n      iszero\n      tag_95\n      jumpi\n      dup1\n      0x1f\n      lt\n      tag_96\n      jumpi\n      0x0100\n      dup1\n      dup4\n      sload\n      div\n      mul\n      dup4\n      mstore\n      swap2\n      0x20\n      add\n      swap2\n      jump(tag_95)\n    tag_96:\n      dup3\n      add\n      swap2\n      swap1\n      0x00\n      mstore\n      keccak256(0x00, 0x20)\n      swap1\n    tag_97:\n      dup2\n      sload\n      dup2\n      mstore\n      swap1\n      0x01\n      add\n      swap1\n      0x20\n      add\n      dup1\n      dup4\n      gt\n      tag_97\n      jumpi\n      dup3\n      swap1\n      sub\n      0x1f\n      and\n      dup3\n      add\n      swap2\n    tag_95:\n      pop\n      pop\n      pop\n      pop\n      pop\n      dup2\n      mstore\n      0x20\n      add\n      0x03\n      dup3\n      add\n      dup1\n      sload\n      tag_98\n      swap1\n      tag_83\n      jump\t// in\n    tag_98:\n      dup1\n      0x1f\n      add\n      0x20\n      dup1\n      swap2\n      div\n      mul\n      0x20\n      add\n      mload(0x40)\n      swap1\n      dup2\n      add\n      0x40\n      mstore\n      dup1\n      swap3\n      swap2\n      swap1\n      dup2\n      dup2\n      mstore\n      0x20\n      add\n      dup3\n      dup1\n      sload\n      tag_99\n      swap1\n      tag_83\n      jump\t// in\n    tag_99:\n      dup1\n      iszero\n      tag_100\n      jumpi\n      dup1\n      0x1f\n      lt\n      tag_101\n      jumpi\n      0x0100\n      dup1\n      dup4\n      sload\n      div\n      mul\n      dup4\n      mstore\n      swap2\n      0x20\n      add\n      swap2\n      jump(tag_100)\n    tag_101:\n      dup3\n      add\n      swap2\n      swap1\n      0x00\n      mstore\n      keccak256(0x00, 0x20)\n      swap1\n    tag_102:\n      dup2\n      sload\n      dup2\n      mstore\n      swap1\n      0x01\n      add\n      swap1\n      0x20\n      add\n      dup1\n      dup4\n      gt\n      tag_102\n      jumpi\n      dup3\n      swap1\n      sub\n      0x1f\n      and\n      dup3\n      add\n      swap2\n    tag_100:\n      pop\n      pop\n      pop\n      pop\n      pop\n      dup2\n      mstore\n      0x20\n      add\n      0x04\n      dup3\n      add\n      dup1\n      sload\n      tag_103\n      swap1\n      tag_83\n      jump\t// in\n    tag_103:\n      dup1\n      0x1f\n      add\n      0x20\n      dup1\n      swap2\n      div\n      mul\n      0x20\n      add\n      mload(0x40)\n      swap1\n      dup2\n      add\n      0x40\n      mstore\n      dup1\n      swap3\n      swap2\n      swap1\n      dup2\n      dup2\n      mstore\n      0x20\n      add\n      dup3\n      dup1\n      sload\n      tag_104\n      swap1\n      tag_83\n      jump\t// in\n    tag_104:\n      dup1\n      iszero\n      tag_105\n      jumpi\n      dup1\n      0x1f\n      lt\n      tag_106\n      jumpi\n      0x0100\n      dup1\n      dup4\n      sload\n      div\n      mul\n      dup4\n      mstore\n      swap2\n      0x20\n      add\n      swap2\n      jump(tag_105)\n    tag_106:\n      dup3\n      add\n      swap2\n      swap1\n      0x00\n      mstore\n      keccak256(0x00, 0x20)\n      swap1\n    tag_107:\n      dup2\n      sload\n      dup2\n      mstore\n      swap1\n      0x01\n      add\n      swap1\n      0x20\n      add\n      dup1\n      dup4\n      gt\n      tag_107\n      jumpi\n      dup3\n      swap1\n      sub\n      0x1f\n      and\n      dup3\n      add\n      swap2\n    tag_105:\n      pop\n      pop\n      pop\n      pop\n      pop\n      dup2\n      mstore\n      0x20\n      add\n      0x05\n      dup3\n      add\n      dup1\n      sload\n      tag_108\n      swap1\n      tag_83\n      jump\t// in\n    tag_108:\n      dup1\n      0x1f\n      add\n      0x20\n      dup1\n      swap2\n      div\n      mul\n      0x20\n      add\n      mload(0x40)\n      swap1\n      dup2\n      add\n      0x40\n      mstore\n      dup1\n      swap3\n      swap2\n      swap1\n      dup2\n      dup2\n      mstore\n      0x20\n      add\n      dup3\n      dup1\n      sload\n      tag_109\n      swap1\n      tag_83\n      jump\t// in\n    tag_109:\n      dup1\n      iszero\n      tag_110\n      jumpi\n      dup1\n      0x1f\n      lt\n      tag_111\n      jumpi\n      0x0100\n      dup1\n      dup4\n      sload\n      div\n      mul\n      dup4\n      mstore\n      swap2\n      0x20\n      add\n      swap2\n      jump(tag_110)\n    tag_111:\n      dup3\n      add\n      swap2\n      swap1\n      0x00\n      mstore\n      keccak256(0x00, 0x20)\n      swap1\n    tag_112:\n      dup2\n      sload\n      dup2\n      mstore\n      swap1\n      0x01\n      add\n      swap1\n      0x20\n      add\n      dup1\n      dup4\n      gt\n      tag_112\n      jumpi\n      dup3\n      swap1\n      sub\n      0x1f\n      and\n      dup3\n      add\n      swap2\n    tag_110:\n      pop\n      pop\n      pop\n      pop\n      pop\n      dup2\n      mstore\n      0x20\n      add\n      0x06\n      dup3\n      add\n      dup1\n      sload\n      tag_113\n      swap1\n      tag_83\n      jump\t// in\n    tag_113:\n      dup1\n      0x1f\n      add\n      0x20\n      dup1\n      swap2\n      div\n      mul\n      0x20\n      add\n      mload(0x40)\n      swap1\n      dup2\n      add\n      0x40\n      mstore\n      dup1\n      swap3\n      swap2\n      swap1\n      dup2\n      dup2\n      mstore\n      0x20\n      add\n      dup3\n      dup1\n      sload\n      tag_114\n      swap1\n      tag_83\n      jump\t// in\n    tag_114:\n      dup1\n      iszero\n      tag_115\n      jumpi\n      dup1\n      0x1f\n      lt\n      tag_116\n      jumpi\n      0x0100\n      dup1\n      dup4\n      sload\n      div\n      mul\n      dup4\n      mstore\n      swap2\n      0x20\n      add\n      swap2\n      jump(tag_115)\n    tag_116:\n      dup3\n      add\n      swap2\n      swap1\n      0x00\n      mstore\n      keccak256(0x00, 0x20)\n      swap1\n    tag_117:\n      dup2\n      sload\n      dup2\n      mstore\n      swap1\n      0x01\n      add\n      swap1\n      0x20\n      add\n      dup1\n      dup4\n      gt\n      tag_117\n      jumpi\n      dup3\n      swap1\n      sub\n      0x1f\n      and\n      dup3\n      add\n      swap2\n    tag_115:\n      pop\n      pop\n      pop\n      pop\n      pop\n      dup2\n      mstore\n      0x20\n      add\n      0x07\n      dup3\n      add\n      0x00\n      swap1\n      sload\n      swap1\n      0x0100\n      exp\n      swap1\n      div\n      0xffffffffffffffffffffffffffffffffffffffff\n      and\n      0xffffffffffffffffffffffffffffffffffffffff\n      and\n      0xffffffffffffffffffffffffffffffffffffffff\n      and\n      dup2\n      mstore\n      pop\n      pop\n      dup2\n      mstore\n      0x20\n      add\n      swap1\n      0x01\n      add\n      swap1\n      jump(tag_79)\n    tag_80:\n      pop\n      pop\n      pop\n      pop\n      swap1\n      pop\n        /* \"contracts/konsultasi.sol\":2796:2802  uint j */\n      0x00\n        /* \"contracts/konsultasi.sol\":2791:2973  for (uint j = 0; j < data.length && counter < maxConsultationsPerAccount * 10; j++) {... */\n    tag_118:\n        /* \"contracts/konsultasi.sol\":2812:2816  data */\n      dup2\n        /* \"contracts/konsultasi.sol\":2812:2823  data.length */\n      mload\n        /* \"contracts/konsultasi.sol\":2808:2809  j */\n      dup2\n        /* \"contracts/konsultasi.sol\":2808:2823  j < data.length */\n      lt\n        /* \"contracts/konsultasi.sol\":2808:2868  j < data.length && counter < maxConsultationsPerAccount * 10 */\n      dup1\n      iszero\n      tag_121\n      jumpi\n      pop\n        /* \"contracts/konsultasi.sol\":2866:2868  10 */\n      0x0a\n        /* \"contracts/konsultasi.sol\":2837:2863  maxConsultationsPerAccount */\n      dup7\n        /* \"contracts/konsultasi.sol\":2837:2868  maxConsultationsPerAccount * 10 */\n      tag_122\n      swap2\n      swap1\n      tag_64\n      jump\t// in\n    tag_122:\n        /* \"contracts/konsultasi.sol\":2827:2834  counter */\n      dup5\n        /* \"contracts/konsultasi.sol\":2827:2868  counter < maxConsultationsPerAccount * 10 */\n      lt\n        /* \"contracts/konsultasi.sol\":2808:2868  j < data.length && counter < maxConsultationsPerAccount * 10 */\n    tag_121:\n        /* \"contracts/konsultasi.sol\":2791:2973  for (uint j = 0; j < data.length && counter < maxConsultationsPerAccount * 10; j++) {... */\n      iszero\n      tag_119\n      jumpi\n        /* \"contracts/konsultasi.sol\":2922:2926  data */\n      dup2\n        /* \"contracts/konsultasi.sol\":2927:2928  j */\n      dup2\n        /* \"contracts/konsultasi.sol\":2922:2929  data[j] */\n      dup2\n      mload\n      dup2\n      lt\n      tag_123\n      jumpi\n      tag_124\n      tag_77\n      jump\t// in\n    tag_124:\n    tag_123:\n      0x20\n      mul\n      0x20\n      add\n      add\n      mload\n        /* \"contracts/konsultasi.sol\":2894:2910  allConsultations */\n      dup6\n        /* \"contracts/konsultasi.sol\":2911:2918  counter */\n      dup6\n        /* \"contracts/konsultasi.sol\":2894:2919  allConsultations[counter] */\n      dup2\n      mload\n      dup2\n      lt\n      tag_125\n      jumpi\n      tag_126\n      tag_77\n      jump\t// in\n    tag_126:\n    tag_125:\n      0x20\n      mul\n      0x20\n      add\n      add\n        /* \"contracts/konsultasi.sol\":2894:2929  allConsultations[counter] = data[j] */\n      dup2\n      swap1\n      mstore\n      pop\n        /* \"contracts/konsultasi.sol\":2948:2957  counter++ */\n      dup4\n      dup1\n      tag_127\n      swap1\n      tag_128\n      jump\t// in\n    tag_127:\n      swap5\n      pop\n      pop\n        /* \"contracts/konsultasi.sol\":2870:2873  j++ */\n      dup1\n      dup1\n      tag_129\n      swap1\n      tag_128\n      jump\t// in\n    tag_129:\n      swap2\n      pop\n      pop\n        /* \"contracts/konsultasi.sol\":2791:2973  for (uint j = 0; j < data.length && counter < maxConsultationsPerAccount * 10; j++) {... */\n      jump(tag_118)\n    tag_119:\n      pop\n        /* \"contracts/konsultasi.sol\":2697:2984  {... */\n      pop\n        /* \"contracts/konsultasi.sol\":2692:2695  i++ */\n      dup1\n      dup1\n      tag_130\n      swap1\n      tag_128\n      jump\t// in\n    tag_130:\n      swap2\n      pop\n      pop\n        /* \"contracts/konsultasi.sol\":2632:2984  for (uint i = offset; i < accountsWithConsultations.length; i++) {... */\n      jump(tag_72)\n    tag_73:\n      pop\n        /* \"contracts/konsultasi.sol\":3001:3017  allConsultations */\n      dup2\n        /* \"contracts/konsultasi.sol\":2994:3017  return allConsultations */\n      swap4\n      pop\n      pop\n      pop\n      pop\n        /* \"contracts/konsultasi.sol\":2364:3025  function getAllConsultations(uint offset) public view onlyAdminOrDokter returns (Data[] memory) {... */\n      swap2\n      swap1\n      pop\n      jump\t// out\n        /* \"contracts/konsultasi.sol\":429:471  address[] public accountsWithConsultations */\n    tag_20:\n      0x02\n      dup2\n      dup2\n      sload\n      dup2\n      lt\n      tag_131\n      jumpi\n      0x00\n      dup1\n      revert\n    tag_131:\n      swap1\n      0x00\n      mstore\n      keccak256(0x00, 0x20)\n      add\n      0x00\n      swap2\n      pop\n      sload\n      swap1\n      0x0100\n      exp\n      swap1\n      div\n      0xffffffffffffffffffffffffffffffffffffffff\n      and\n      dup2\n      jump\t// out\n        /* \"contracts/konsultasi.sol\":375:422  mapping(address => Data[]) public consultations */\n    tag_26:\n      mstore(0x20, 0x01)\n      dup2\n      0x00\n      mstore\n      keccak256(0x00, 0x40)\n      dup2\n      dup2\n      sload\n      dup2\n      lt\n      tag_133\n      jumpi\n      0x00\n      dup1\n      revert\n    tag_133:\n      swap1\n      0x00\n      mstore\n      keccak256(0x00, 0x20)\n      swap1\n      0x08\n      mul\n      add\n      0x00\n      swap2\n      pop\n      swap2\n      pop\n      pop\n      dup1\n      0x00\n      add\n      dup1\n      sload\n      tag_135\n      swap1\n      tag_83\n      jump\t// in\n    tag_135:\n      dup1\n      0x1f\n      add\n      0x20\n      dup1\n      swap2\n      div\n      mul\n      0x20\n      add\n      mload(0x40)\n      swap1\n      dup2\n      add\n      0x40\n      mstore\n      dup1\n      swap3\n      swap2\n      swap1\n      dup2\n      dup2\n      mstore\n      0x20\n      add\n      dup3\n      dup1\n      sload\n      tag_136\n      swap1\n      tag_83\n      jump\t// in\n    tag_136:\n      dup1\n      iszero\n      tag_137\n      jumpi\n      dup1\n      0x1f\n      lt\n      tag_138\n      jumpi\n      0x0100\n      dup1\n      dup4\n      sload\n      div\n      mul\n      dup4\n      mstore\n      swap2\n      0x20\n      add\n      swap2\n      jump(tag_137)\n    tag_138:\n      dup3\n      add\n      swap2\n      swap1\n      0x00\n      mstore\n      keccak256(0x00, 0x20)\n      swap1\n    tag_139:\n      dup2\n      sload\n      dup2\n      mstore\n      swap1\n      0x01\n      add\n      swap1\n      0x20\n      add\n      dup1\n      dup4\n      gt\n      tag_139\n      jumpi\n      dup3\n      swap1\n      sub\n      0x1f\n      and\n      dup3\n      add\n      swap2\n    tag_137:\n      pop\n      pop\n      pop\n      pop\n      pop\n      swap1\n      dup1\n      0x01\n      add\n      dup1\n      sload\n      tag_140\n      swap1\n      tag_83\n      jump\t// in\n    tag_140:\n      dup1\n      0x1f\n      add\n      0x20\n      dup1\n      swap2\n      div\n      mul\n      0x20\n      add\n      mload(0x40)\n      swap1\n      dup2\n      add\n      0x40\n      mstore\n      dup1\n      swap3\n      swap2\n      swap1\n      dup2\n      dup2\n      mstore\n      0x20\n      add\n      dup3\n      dup1\n      sload\n      tag_141\n      swap1\n      tag_83\n      jump\t// in\n    tag_141:\n      dup1\n      iszero\n      tag_142\n      jumpi\n      dup1\n      0x1f\n      lt\n      tag_143\n      jumpi\n      0x0100\n      dup1\n      dup4\n      sload\n      div\n      mul\n      dup4\n      mstore\n      swap2\n      0x20\n      add\n      swap2\n      jump(tag_142)\n    tag_143:\n      dup3\n      add\n      swap2\n      swap1\n      0x00\n      mstore\n      keccak256(0x00, 0x20)\n      swap1\n    tag_144:\n      dup2\n      sload\n      dup2\n      mstore\n      swap1\n      0x01\n      add\n      swap1\n      0x20\n      add\n      dup1\n      dup4\n      gt\n      tag_144\n      jumpi\n      dup3\n      swap1\n      sub\n      0x1f\n      and\n      dup3\n      add\n      swap2\n    tag_142:\n      pop\n      pop\n      pop\n      pop\n      pop\n      swap1\n      dup1\n      0x02\n      add\n      dup1\n      sload\n      tag_145\n      swap1\n      tag_83\n      jump\t// in\n    tag_145:\n      dup1\n      0x1f\n      add\n      0x20\n      dup1\n      swap2\n      div\n      mul\n      0x20\n      add\n      mload(0x40)\n      swap1\n      dup2\n      add\n      0x40\n      mstore\n      dup1\n      swap3\n      swap2\n      swap1\n      dup2\n      dup2\n      mstore\n      0x20\n      add\n      dup3\n      dup1\n      sload\n      tag_146\n      swap1\n      tag_83\n      jump\t// in\n    tag_146:\n      dup1\n      iszero\n      tag_147\n      jumpi\n      dup1\n      0x1f\n      lt\n      tag_148\n      jumpi\n      0x0100\n      dup1\n      dup4\n      sload\n      div\n      mul\n      dup4\n      mstore\n      swap2\n      0x20\n      add\n      swap2\n      jump(tag_147)\n    tag_148:\n      dup3\n      add\n      swap2\n      swap1\n      0x00\n      mstore\n      keccak256(0x00, 0x20)\n      swap1\n    tag_149:\n      dup2\n      sload\n      dup2\n      mstore\n      swap1\n      0x01\n      add\n      swap1\n      0x20\n      add\n      dup1\n      dup4\n      gt\n      tag_149\n      jumpi\n      dup3\n      swap1\n      sub\n      0x1f\n      and\n      dup3\n      add\n      swap2\n    tag_147:\n      pop\n      pop\n      pop\n      pop\n      pop\n      swap1\n      dup1\n      0x03\n      add\n      dup1\n      sload\n      tag_150\n      swap1\n      tag_83\n      jump\t// in\n    tag_150:\n      dup1\n      0x1f\n      add\n      0x20\n      dup1\n      swap2\n      div\n      mul\n      0x20\n      add\n      mload(0x40)\n      swap1\n      dup2\n      add\n      0x40\n      mstore\n      dup1\n      swap3\n      swap2\n      swap1\n      dup2\n      dup2\n      mstore\n      0x20\n      add\n      dup3\n      dup1\n      sload\n      tag_151\n      swap1\n      tag_83\n      jump\t// in\n    tag_151:\n      dup1\n      iszero\n      tag_152\n      jumpi\n      dup1\n      0x1f\n      lt\n      tag_153\n      jumpi\n      0x0100\n      dup1\n      dup4\n      sload\n      div\n      mul\n      dup4\n      mstore\n      swap2\n      0x20\n      add\n      swap2\n      jump(tag_152)\n    tag_153:\n      dup3\n      add\n      swap2\n      swap1\n      0x00\n      mstore\n      keccak256(0x00, 0x20)\n      swap1\n    tag_154:\n      dup2\n      sload\n      dup2\n      mstore\n      swap1\n      0x01\n      add\n      swap1\n      0x20\n      add\n      dup1\n      dup4\n      gt\n      tag_154\n      jumpi\n      dup3\n      swap1\n      sub\n      0x1f\n      and\n      dup3\n      add\n      swap2\n    tag_152:\n      pop\n      pop\n      pop\n      pop\n      pop\n      swap1\n      dup1\n      0x04\n      add\n      dup1\n      sload\n      tag_155\n      swap1\n      tag_83\n      jump\t// in\n    tag_155:\n      dup1\n      0x1f\n      add\n      0x20\n      dup1\n      swap2\n      div\n      mul\n      0x20\n      add\n      mload(0x40)\n      swap1\n      dup2\n      add\n      0x40\n      mstore\n      dup1\n      swap3\n      swap2\n      swap1\n      dup2\n      dup2\n      mstore\n      0x20\n      add\n      dup3\n      dup1\n      sload\n      tag_156\n      swap1\n      tag_83\n      jump\t// in\n    tag_156:\n      dup1\n      iszero\n      tag_157\n      jumpi\n      dup1\n      0x1f\n      lt\n      tag_158\n      jumpi\n      0x0100\n      dup1\n      dup4\n      sload\n      div\n      mul\n      dup4\n      mstore\n      swap2\n      0x20\n      add\n      swap2\n      jump(tag_157)\n    tag_158:\n      dup3\n      add\n      swap2\n      swap1\n      0x00\n      mstore\n      keccak256(0x00, 0x20)\n      swap1\n    tag_159:\n      dup2\n      sload\n      dup2\n      mstore\n      swap1\n      0x01\n      add\n      swap1\n      0x20\n      add\n      dup1\n      dup4\n      gt\n      tag_159\n      jumpi\n      dup3\n      swap1\n      sub\n      0x1f\n      and\n      dup3\n      add\n      swap2\n    tag_157:\n      pop\n      pop\n      pop\n      pop\n      pop\n      swap1\n      dup1\n      0x05\n      add\n      dup1\n      sload\n      tag_160\n      swap1\n      tag_83\n      jump\t// in\n    tag_160:\n      dup1\n      0x1f\n      add\n      0x20\n      dup1\n      swap2\n      div\n      mul\n      0x20\n      add\n      mload(0x40)\n      swap1\n      dup2\n      add\n      0x40\n      mstore\n      dup1\n      swap3\n      swap2\n      swap1\n      dup2\n      dup2\n      mstore\n      0x20\n      add\n      dup3\n      dup1\n      sload\n      tag_161\n      swap1\n      tag_83\n      jump\t// in\n    tag_161:\n      dup1\n      iszero\n      tag_162\n      jumpi\n      dup1\n      0x1f\n      lt\n      tag_163\n      jumpi\n      0x0100\n      dup1\n      dup4\n      sload\n      div\n      mul\n      dup4\n      mstore\n      swap2\n      0x20\n      add\n      swap2\n      jump(tag_162)\n    tag_163:\n      dup3\n      add\n      swap2\n      swap1\n      0x00\n      mstore\n      keccak256(0x00, 0x20)\n      swap1\n    tag_164:\n      dup2\n      sload\n      dup2\n      mstore\n      swap1\n      0x01\n      add\n      swap1\n      0x20\n      add\n      dup1\n      dup4\n      gt\n      tag_164\n      jumpi\n      dup3\n      swap1\n      sub\n      0x1f\n      and\n      dup3\n      add\n      swap2\n    tag_162:\n      pop\n      pop\n      pop\n      pop\n      pop\n      swap1\n      dup1\n      0x06\n      add\n      dup1\n      sload\n      tag_165\n      swap1\n      tag_83\n      jump\t// in\n    tag_165:\n      dup1\n      0x1f\n      add\n      0x20\n      dup1\n      swap2\n      div\n      mul\n      0x20\n      add\n      mload(0x40)\n      swap1\n      dup2\n      add\n      0x40\n      mstore\n      dup1\n      swap3\n      swap2\n      swap1\n      dup2\n      dup2\n      mstore\n      0x20\n      add\n      dup3\n      dup1\n      sload\n      tag_166\n      swap1\n      tag_83\n      jump\t// in\n    tag_166:\n      dup1\n      iszero\n      tag_167\n      jumpi\n      dup1\n      0x1f\n      lt\n      tag_168\n      jumpi\n      0x0100\n      dup1\n      dup4\n      sload\n      div\n      mul\n      dup4\n      mstore\n      swap2\n      0x20\n      add\n      swap2\n      jump(tag_167)\n    tag_168:\n      dup3\n      add\n      swap2\n      swap1\n      0x00\n      mstore\n      keccak256(0x00, 0x20)\n      swap1\n    tag_169:\n      dup2\n      sload\n      dup2\n      mstore\n      swap1\n      0x01\n      add\n      swap1\n      0x20\n      add\n      dup1\n      dup4\n      gt\n      tag_169\n      jumpi\n      dup3\n      swap1\n      sub\n      0x1f\n      and\n      dup3\n      add\n      swap2\n    tag_167:\n      pop\n      pop\n      pop\n      pop\n      pop\n      swap1\n      dup1\n      0x07\n      add\n      0x00\n      swap1\n      sload\n      swap1\n      0x0100\n      exp\n      swap1\n      div\n      0xffffffffffffffffffffffffffffffffffffffff\n      and\n      swap1\n      pop\n      dup9\n      jump\t// out\n        /* \"contracts/konsultasi.sol\":120:142  UserRoles public roles */\n    tag_30:\n      0x00\n      dup1\n      sload\n      swap1\n      0x0100\n      exp\n      swap1\n      div\n      0xffffffffffffffffffffffffffffffffffffffff\n      and\n      dup2\n      jump\t// out\n        /* \"contracts/konsultasi.sol\":1580:2125  function updateConsultation(... */\n    tag_36:\n        /* \"contracts/konsultasi.sol\":817:822  roles */\n      0x00\n      dup1\n      sload\n      swap1\n      0x0100\n      exp\n      swap1\n      div\n      0xffffffffffffffffffffffffffffffffffffffff\n      and\n        /* \"contracts/konsultasi.sol\":817:830  roles.isAdmin */\n      0xffffffffffffffffffffffffffffffffffffffff\n      and\n      0x24d7806c\n        /* \"contracts/konsultasi.sol\":831:841  msg.sender */\n      caller\n        /* \"contracts/konsultasi.sol\":817:842  roles.isAdmin(msg.sender) */\n      mload(0x40)\n      dup3\n      0xffffffff\n      and\n      0xe0\n      shl\n      dup2\n      mstore\n      0x04\n      add\n      tag_171\n      swap2\n      swap1\n      tag_22\n      jump\t// in\n    tag_171:\n      0x20\n      mload(0x40)\n      dup1\n      dup4\n      sub\n      dup2\n      dup7\n      gas\n      staticcall\n      iszero\n      dup1\n      iszero\n      tag_173\n      jumpi\n      returndatasize\n      0x00\n      dup1\n      returndatacopy\n      revert(0x00, returndatasize)\n    tag_173:\n      pop\n      pop\n      pop\n      pop\n      mload(0x40)\n      returndatasize\n      not(0x1f)\n      0x1f\n      dup3\n      add\n      and\n      dup3\n      add\n      dup1\n      0x40\n      mstore\n      pop\n      dup2\n      add\n      swap1\n      tag_174\n      swap2\n      swap1\n      tag_53\n      jump\t// in\n    tag_174:\n        /* \"contracts/konsultasi.sol\":817:872  roles.isAdmin(msg.sender) || roles.isDokter(msg.sender) */\n      dup1\n      tag_175\n      jumpi\n      pop\n        /* \"contracts/konsultasi.sol\":846:851  roles */\n      0x00\n      dup1\n      sload\n      swap1\n      0x0100\n      exp\n      swap1\n      div\n      0xffffffffffffffffffffffffffffffffffffffff\n      and\n        /* \"contracts/konsultasi.sol\":846:860  roles.isDokter */\n      0xffffffffffffffffffffffffffffffffffffffff\n      and\n      0x5c4c9348\n        /* \"contracts/konsultasi.sol\":861:871  msg.sender */\n      caller\n        /* \"contracts/konsultasi.sol\":846:872  roles.isDokter(msg.sender) */\n      mload(0x40)\n      dup3\n      0xffffffff\n      and\n      0xe0\n      shl\n      dup2\n      mstore\n      0x04\n      add\n      tag_176\n      swap2\n      swap1\n      tag_22\n      jump\t// in\n    tag_176:\n      0x20\n      mload(0x40)\n      dup1\n      dup4\n      sub\n      dup2\n      dup7\n      gas\n      staticcall\n      iszero\n      dup1\n      iszero\n      tag_178\n      jumpi\n      returndatasize\n      0x00\n      dup1\n      returndatacopy\n      revert(0x00, returndatasize)\n    tag_178:\n      pop\n      pop\n      pop\n      pop\n      mload(0x40)\n      returndatasize\n      not(0x1f)\n      0x1f\n      dup3\n      add\n      and\n      dup3\n      add\n      dup1\n      0x40\n      mstore\n      pop\n      dup2\n      add\n      swap1\n      tag_179\n      swap2\n      swap1\n      tag_53\n      jump\t// in\n    tag_179:\n        /* \"contracts/konsultasi.sol\":817:872  roles.isAdmin(msg.sender) || roles.isDokter(msg.sender) */\n    tag_175:\n        /* \"contracts/konsultasi.sol\":809:932  require(roles.isAdmin(msg.sender) || roles.isDokter(msg.sender), \"Hanya admin atau dokter yang diizinkan untuk mengakses.\") */\n      tag_180\n      jumpi\n      mload(0x40)\n      0x08c379a000000000000000000000000000000000000000000000000000000000\n      dup2\n      mstore\n      0x04\n      add\n      tag_181\n      swap1\n      tag_61\n      jump\t// in\n    tag_181:\n      mload(0x40)\n      dup1\n      swap2\n      sub\n      swap1\n      revert\n    tag_180:\n        /* \"contracts/konsultasi.sol\":1945:1962  consultationCount */\n      sload(0x03)\n        /* \"contracts/konsultasi.sol\":1936:1942  _index */\n      dup9\n        /* \"contracts/konsultasi.sol\":1936:1962  _index < consultationCount */\n      lt\n        /* \"contracts/konsultasi.sol\":1928:1994  require(_index < consultationCount, \"Consultation data not found\") */\n      tag_183\n      jumpi\n      mload(0x40)\n      0x08c379a000000000000000000000000000000000000000000000000000000000\n      dup2\n      mstore\n      0x04\n      add\n      tag_184\n      swap1\n      tag_185\n      jump\t// in\n    tag_184:\n      mload(0x40)\n      dup1\n      swap2\n      sub\n      swap1\n      revert\n    tag_183:\n        /* \"contracts/konsultasi.sol\":2038:2117  Data(_nama, _namaDokter, _tanggal, _keluhan, _diagnosa, _tensi, _gula, _wallet) */\n      mload(0x40)\n      dup1\n      0x0100\n      add\n      0x40\n      mstore\n      dup1\n        /* \"contracts/konsultasi.sol\":2043:2048  _nama */\n      dup9\n        /* \"contracts/konsultasi.sol\":2038:2117  Data(_nama, _namaDokter, _tanggal, _keluhan, _diagnosa, _tensi, _gula, _wallet) */\n      dup2\n      mstore\n      0x20\n      add\n        /* \"contracts/konsultasi.sol\":2050:2061  _namaDokter */\n      dup8\n        /* \"contracts/konsultasi.sol\":2038:2117  Data(_nama, _namaDokter, _tanggal, _keluhan, _diagnosa, _tensi, _gula, _wallet) */\n      dup2\n      mstore\n      0x20\n      add\n        /* \"contracts/konsultasi.sol\":2063:2071  _tanggal */\n      dup7\n        /* \"contracts/konsultasi.sol\":2038:2117  Data(_nama, _namaDokter, _tanggal, _keluhan, _diagnosa, _tensi, _gula, _wallet) */\n      dup2\n      mstore\n      0x20\n      add\n        /* \"contracts/konsultasi.sol\":2073:2081  _keluhan */\n      dup6\n        /* \"contracts/konsultasi.sol\":2038:2117  Data(_nama, _namaDokter, _tanggal, _keluhan, _diagnosa, _tensi, _gula, _wallet) */\n      dup2\n      mstore\n      0x20\n      add\n        /* \"contracts/konsultasi.sol\":2083:2092  _diagnosa */\n      dup5\n        /* \"contracts/konsultasi.sol\":2038:2117  Data(_nama, _namaDokter, _tanggal, _keluhan, _diagnosa, _tensi, _gula, _wallet) */\n      dup2\n      mstore\n      0x20\n      add\n        /* \"contracts/konsultasi.sol\":2094:2100  _tensi */\n      dup4\n        /* \"contracts/konsultasi.sol\":2038:2117  Data(_nama, _namaDokter, _tanggal, _keluhan, _diagnosa, _tensi, _gula, _wallet) */\n      dup2\n      mstore\n      0x20\n      add\n        /* \"contracts/konsultasi.sol\":2102:2107  _gula */\n      dup3\n        /* \"contracts/konsultasi.sol\":2038:2117  Data(_nama, _namaDokter, _tanggal, _keluhan, _diagnosa, _tensi, _gula, _wallet) */\n      dup2\n      mstore\n      0x20\n      add\n        /* \"contracts/konsultasi.sol\":2109:2116  _wallet */\n      dup11\n        /* \"contracts/konsultasi.sol\":2038:2117  Data(_nama, _namaDokter, _tanggal, _keluhan, _diagnosa, _tensi, _gula, _wallet) */\n      0xffffffffffffffffffffffffffffffffffffffff\n      and\n      dup2\n      mstore\n      pop\n        /* \"contracts/konsultasi.sol\":2005:2018  consultations */\n      0x01\n        /* \"contracts/konsultasi.sol\":2005:2027  consultations[_wallet] */\n      0x00\n        /* \"contracts/konsultasi.sol\":2019:2026  _wallet */\n      dup12\n        /* \"contracts/konsultasi.sol\":2005:2027  consultations[_wallet] */\n      0xffffffffffffffffffffffffffffffffffffffff\n      and\n      0xffffffffffffffffffffffffffffffffffffffff\n      and\n      dup2\n      mstore\n      0x20\n      add\n      swap1\n      dup2\n      mstore\n      0x20\n      add\n      0x00\n      keccak256\n        /* \"contracts/konsultasi.sol\":2028:2034  _index */\n      dup10\n        /* \"contracts/konsultasi.sol\":2005:2035  consultations[_wallet][_index] */\n      dup2\n      sload\n      dup2\n      lt\n      tag_186\n      jumpi\n      tag_187\n      tag_77\n      jump\t// in\n    tag_187:\n    tag_186:\n      swap1\n      0x00\n      mstore\n      keccak256(0x00, 0x20)\n      swap1\n      0x08\n      mul\n      add\n        /* \"contracts/konsultasi.sol\":2005:2117  consultations[_wallet][_index] = Data(_nama, _namaDokter, _tanggal, _keluhan, _diagnosa, _tensi, _gula, _wallet) */\n      0x00\n      dup3\n      add\n      mload\n      dup2\n      0x00\n      add\n      swap1\n      dup2\n      tag_189\n      swap2\n      swap1\n      tag_190\n      jump\t// in\n    tag_189:\n      pop\n      0x20\n      dup3\n      add\n      mload\n      dup2\n      0x01\n      add\n      swap1\n      dup2\n      tag_191\n      swap2\n      swap1\n      tag_190\n      jump\t// in\n    tag_191:\n      pop\n      0x40\n      dup3\n      add\n      mload\n      dup2\n      0x02\n      add\n      swap1\n      dup2\n      tag_192\n      swap2\n      swap1\n      tag_190\n      jump\t// in\n    tag_192:\n      pop\n      0x60\n      dup3\n      add\n      mload\n      dup2\n      0x03\n      add\n      swap1\n      dup2\n      tag_193\n      swap2\n      swap1\n      tag_190\n      jump\t// in\n    tag_193:\n      pop\n      0x80\n      dup3\n      add\n      mload\n      dup2\n      0x04\n      add\n      swap1\n      dup2\n      tag_194\n      swap2\n      swap1\n      tag_190\n      jump\t// in\n    tag_194:\n      pop\n      0xa0\n      dup3\n      add\n      mload\n      dup2\n      0x05\n      add\n      swap1\n      dup2\n      tag_195\n      swap2\n      swap1\n      tag_190\n      jump\t// in\n    tag_195:\n      pop\n      0xc0\n      dup3\n      add\n      mload\n      dup2\n      0x06\n      add\n      swap1\n      dup2\n      tag_196\n      swap2\n      swap1\n      tag_190\n      jump\t// in\n    tag_196:\n      pop\n      0xe0\n      dup3\n      add\n      mload\n      dup2\n      0x07\n      add\n      exp(0x0100, 0x00)\n      dup2\n      sload\n      dup2\n      0xffffffffffffffffffffffffffffffffffffffff\n      mul\n      not\n      and\n      swap1\n      dup4\n      0xffffffffffffffffffffffffffffffffffffffff\n      and\n      mul\n      or\n      swap1\n      sstore\n      pop\n      swap1\n      pop\n      pop\n        /* \"contracts/konsultasi.sol\":1580:2125  function updateConsultation(... */\n      pop\n      pop\n      pop\n      pop\n      pop\n      pop\n      pop\n      pop\n      pop\n      jump\t// out\n        /* \"contracts/konsultasi.sol\":2169:2301  function getConsultationsPasien() public view onlyPasien returns (Data[] memory) {... */\n    tag_38:\n        /* \"contracts/konsultasi.sol\":2235:2248  Data[] memory */\n      0x60\n        /* \"contracts/konsultasi.sol\":667:672  roles */\n      0x00\n      dup1\n      sload\n      swap1\n      0x0100\n      exp\n      swap1\n      div\n      0xffffffffffffffffffffffffffffffffffffffff\n      and\n        /* \"contracts/konsultasi.sol\":667:681  roles.isPasien */\n      0xffffffffffffffffffffffffffffffffffffffff\n      and\n      0x1132beb5\n        /* \"contracts/konsultasi.sol\":682:692  msg.sender */\n      caller\n        /* \"contracts/konsultasi.sol\":667:693  roles.isPasien(msg.sender) */\n      mload(0x40)\n      dup3\n      0xffffffff\n      and\n      0xe0\n      shl\n      dup2\n      mstore\n      0x04\n      add\n      tag_198\n      swap2\n      swap1\n      tag_22\n      jump\t// in\n    tag_198:\n      0x20\n      mload(0x40)\n      dup1\n      dup4\n      sub\n      dup2\n      dup7\n      gas\n      staticcall\n      iszero\n      dup1\n      iszero\n      tag_200\n      jumpi\n      returndatasize\n      0x00\n      dup1\n      returndatacopy\n      revert(0x00, returndatasize)\n    tag_200:\n      pop\n      pop\n      pop\n      pop\n      mload(0x40)\n      returndatasize\n      not(0x1f)\n      0x1f\n      dup3\n      add\n      and\n      dup3\n      add\n      dup1\n      0x40\n      mstore\n      pop\n      dup2\n      add\n      swap1\n      tag_201\n      swap2\n      swap1\n      tag_53\n      jump\t// in\n    tag_201:\n        /* \"contracts/konsultasi.sol\":659:741  require(roles.isPasien(msg.sender), \"Hanya pasien yang diizinkan untuk mengakses\") */\n      tag_202\n      jumpi\n      mload(0x40)\n      0x08c379a000000000000000000000000000000000000000000000000000000000\n      dup2\n      mstore\n      0x04\n      add\n      tag_203\n      swap1\n      tag_204\n      jump\t// in\n    tag_203:\n      mload(0x40)\n      dup1\n      swap2\n      sub\n      swap1\n      revert\n    tag_202:\n        /* \"contracts/konsultasi.sol\":2268:2281  consultations */\n      0x01\n        /* \"contracts/konsultasi.sol\":2268:2293  consultations[msg.sender] */\n      0x00\n        /* \"contracts/konsultasi.sol\":2282:2292  msg.sender */\n      caller\n        /* \"contracts/konsultasi.sol\":2268:2293  consultations[msg.sender] */\n      0xffffffffffffffffffffffffffffffffffffffff\n      and\n      0xffffffffffffffffffffffffffffffffffffffff\n      and\n      dup2\n      mstore\n      0x20\n      add\n      swap1\n      dup2\n      mstore\n      0x20\n      add\n      0x00\n      keccak256\n        /* \"contracts/konsultasi.sol\":2261:2293  return consultations[msg.sender] */\n      dup1\n      sload\n      dup1\n      0x20\n      mul\n      0x20\n      add\n      mload(0x40)\n      swap1\n      dup2\n      add\n      0x40\n      mstore\n      dup1\n      swap3\n      swap2\n      swap1\n      dup2\n      dup2\n      mstore\n      0x20\n      add\n      0x00\n      swap1\n    tag_206:\n      dup3\n      dup3\n      lt\n      iszero\n      tag_207\n      jumpi\n      dup4\n      dup3\n      swap1\n      0x00\n      mstore\n      keccak256(0x00, 0x20)\n      swap1\n      0x08\n      mul\n      add\n      mload(0x40)\n      dup1\n      0x0100\n      add\n      0x40\n      mstore\n      swap1\n      dup2\n      0x00\n      dup3\n      add\n      dup1\n      sload\n      tag_209\n      swap1\n      tag_83\n      jump\t// in\n    tag_209:\n      dup1\n      0x1f\n      add\n      0x20\n      dup1\n      swap2\n      div\n      mul\n      0x20\n      add\n      mload(0x40)\n      swap1\n      dup2\n      add\n      0x40\n      mstore\n      dup1\n      swap3\n      swap2\n      swap1\n      dup2\n      dup2\n      mstore\n      0x20\n      add\n      dup3\n      dup1\n      sload\n      tag_210\n      swap1\n      tag_83\n      jump\t// in\n    tag_210:\n      dup1\n      iszero\n      tag_211\n      jumpi\n      dup1\n      0x1f\n      lt\n      tag_212\n      jumpi\n      0x0100\n      dup1\n      dup4\n      sload\n      div\n      mul\n      dup4\n      mstore\n      swap2\n      0x20\n      add\n      swap2\n      jump(tag_211)\n    tag_212:\n      dup3\n      add\n      swap2\n      swap1\n      0x00\n      mstore\n      keccak256(0x00, 0x20)\n      swap1\n    tag_213:\n      dup2\n      sload\n      dup2\n      mstore\n      swap1\n      0x01\n      add\n      swap1\n      0x20\n      add\n      dup1\n      dup4\n      gt\n      tag_213\n      jumpi\n      dup3\n      swap1\n      sub\n      0x1f\n      and\n      dup3\n      add\n      swap2\n    tag_211:\n      pop\n      pop\n      pop\n      pop\n      pop\n      dup2\n      mstore\n      0x20\n      add\n      0x01\n      dup3\n      add\n      dup1\n      sload\n      tag_214\n      swap1\n      tag_83\n      jump\t// in\n    tag_214:\n      dup1\n      0x1f\n      add\n      0x20\n      dup1\n      swap2\n      div\n      mul\n      0x20\n      add\n      mload(0x40)\n      swap1\n      dup2\n      add\n      0x40\n      mstore\n      dup1\n      swap3\n      swap2\n      swap1\n      dup2\n      dup2\n      mstore\n      0x20\n      add\n      dup3\n      dup1\n      sload\n      tag_215\n      swap1\n      tag_83\n      jump\t// in\n    tag_215:\n      dup1\n      iszero\n      tag_216\n      jumpi\n      dup1\n      0x1f\n      lt\n      tag_217\n      jumpi\n      0x0100\n      dup1\n      dup4\n      sload\n      div\n      mul\n      dup4\n      mstore\n      swap2\n      0x20\n      add\n      swap2\n      jump(tag_216)\n    tag_217:\n      dup3\n      add\n      swap2\n      swap1\n      0x00\n      mstore\n      keccak256(0x00, 0x20)\n      swap1\n    tag_218:\n      dup2\n      sload\n      dup2\n      mstore\n      swap1\n      0x01\n      add\n      swap1\n      0x20\n      add\n      dup1\n      dup4\n      gt\n      tag_218\n      jumpi\n      dup3\n      swap1\n      sub\n      0x1f\n      and\n      dup3\n      add\n      swap2\n    tag_216:\n      pop\n      pop\n      pop\n      pop\n      pop\n      dup2\n      mstore\n      0x20\n      add\n      0x02\n      dup3\n      add\n      dup1\n      sload\n      tag_219\n      swap1\n      tag_83\n      jump\t// in\n    tag_219:\n      dup1\n      0x1f\n      add\n      0x20\n      dup1\n      swap2\n      div\n      mul\n      0x20\n      add\n      mload(0x40)\n      swap1\n      dup2\n      add\n      0x40\n      mstore\n      dup1\n      swap3\n      swap2\n      swap1\n      dup2\n      dup2\n      mstore\n      0x20\n      add\n      dup3\n      dup1\n      sload\n      tag_220\n      swap1\n      tag_83\n      jump\t// in\n    tag_220:\n      dup1\n      iszero\n      tag_221\n      jumpi\n      dup1\n      0x1f\n      lt\n      tag_222\n      jumpi\n      0x0100\n      dup1\n      dup4\n      sload\n      div\n      mul\n      dup4\n      mstore\n      swap2\n      0x20\n      add\n      swap2\n      jump(tag_221)\n    tag_222:\n      dup3\n      add\n      swap2\n      swap1\n      0x00\n      mstore\n      keccak256(0x00, 0x20)\n      swap1\n    tag_223:\n      dup2\n      sload\n      dup2\n      mstore\n      swap1\n      0x01\n      add\n      swap1\n      0x20\n      add\n      dup1\n      dup4\n      gt\n      tag_223\n      jumpi\n      dup3\n      swap1\n      sub\n      0x1f\n      and\n      dup3\n      add\n      swap2\n    tag_221:\n      pop\n      pop\n      pop\n      pop\n      pop\n      dup2\n      mstore\n      0x20\n      add\n      0x03\n      dup3\n      add\n      dup1\n      sload\n      tag_224\n      swap1\n      tag_83\n      jump\t// in\n    tag_224:\n      dup1\n      0x1f\n      add\n      0x20\n      dup1\n      swap2\n      div\n      mul\n      0x20\n      add\n      mload(0x40)\n      swap1\n      dup2\n      add\n      0x40\n      mstore\n      dup1\n      swap3\n      swap2\n      swap1\n      dup2\n      dup2\n      mstore\n      0x20\n      add\n      dup3\n      dup1\n      sload\n      tag_225\n      swap1\n      tag_83\n      jump\t// in\n    tag_225:\n      dup1\n      iszero\n      tag_226\n      jumpi\n      dup1\n      0x1f\n      lt\n      tag_227\n      jumpi\n      0x0100\n      dup1\n      dup4\n      sload\n      div\n      mul\n      dup4\n      mstore\n      swap2\n      0x20\n      add\n      swap2\n      jump(tag_226)\n    tag_227:\n      dup3\n      add\n      swap2\n      swap1\n      0x00\n      mstore\n      keccak256(0x00, 0x20)\n      swap1\n    tag_228:\n      dup2\n      sload\n      dup2\n      mstore\n      swap1\n      0x01\n      add\n      swap1\n      0x20\n      add\n      dup1\n      dup4\n      gt\n      tag_228\n      jumpi\n      dup3\n      swap1\n      sub\n      0x1f\n      and\n      dup3\n      add\n      swap2\n    tag_226:\n      pop\n      pop\n      pop\n      pop\n      pop\n      dup2\n      mstore\n      0x20\n      add\n      0x04\n      dup3\n      add\n      dup1\n      sload\n      tag_229\n      swap1\n      tag_83\n      jump\t// in\n    tag_229:\n      dup1\n      0x1f\n      add\n      0x20\n      dup1\n      swap2\n      div\n      mul\n      0x20\n      add\n      mload(0x40)\n      swap1\n      dup2\n      add\n      0x40\n      mstore\n      dup1\n      swap3\n      swap2\n      swap1\n      dup2\n      dup2\n      mstore\n      0x20\n      add\n      dup3\n      dup1\n      sload\n      tag_230\n      swap1\n      tag_83\n      jump\t// in\n    tag_230:\n      dup1\n      iszero\n      tag_231\n      jumpi\n      dup1\n      0x1f\n      lt\n      tag_232\n      jumpi\n      0x0100\n      dup1\n      dup4\n      sload\n      div\n      mul\n      dup4\n      mstore\n      swap2\n      0x20\n      add\n      swap2\n      jump(tag_231)\n    tag_232:\n      dup3\n      add\n      swap2\n      swap1\n      0x00\n      mstore\n      keccak256(0x00, 0x20)\n      swap1\n    tag_233:\n      dup2\n      sload\n      dup2\n      mstore\n      swap1\n      0x01\n      add\n      swap1\n      0x20\n      add\n      dup1\n      dup4\n      gt\n      tag_233\n      jumpi\n      dup3\n      swap1\n      sub\n      0x1f\n      and\n      dup3\n      add\n      swap2\n    tag_231:\n      pop\n      pop\n      pop\n      pop\n      pop\n      dup2\n      mstore\n      0x20\n      add\n      0x05\n      dup3\n      add\n      dup1\n      sload\n      tag_234\n      swap1\n      tag_83\n      jump\t// in\n    tag_234:\n      dup1\n      0x1f\n      add\n      0x20\n      dup1\n      swap2\n      div\n      mul\n      0x20\n      add\n      mload(0x40)\n      swap1\n      dup2\n      add\n      0x40\n      mstore\n      dup1\n      swap3\n      swap2\n      swap1\n      dup2\n      dup2\n      mstore\n      0x20\n      add\n      dup3\n      dup1\n      sload\n      tag_235\n      swap1\n      tag_83\n      jump\t// in\n    tag_235:\n      dup1\n      iszero\n      tag_236\n      jumpi\n      dup1\n      0x1f\n      lt\n      tag_237\n      jumpi\n      0x0100\n      dup1\n      dup4\n      sload\n      div\n      mul\n      dup4\n      mstore\n      swap2\n      0x20\n      add\n      swap2\n      jump(tag_236)\n    tag_237:\n      dup3\n      add\n      swap2\n      swap1\n      0x00\n      mstore\n      keccak256(0x00, 0x20)\n      swap1\n    tag_238:\n      dup2\n      sload\n      dup2\n      mstore\n      swap1\n      0x01\n      add\n      swap1\n      0x20\n      add\n      dup1\n      dup4\n      gt\n      tag_238\n      jumpi\n      dup3\n      swap1\n      sub\n      0x1f\n      and\n      dup3\n      add\n      swap2\n    tag_236:\n      pop\n      pop\n      pop\n      pop\n      pop\n      dup2\n      mstore\n      0x20\n      add\n      0x06\n      dup3\n      add\n      dup1\n      sload\n      tag_239\n      swap1\n      tag_83\n      jump\t// in\n    tag_239:\n      dup1\n      0x1f\n      add\n      0x20\n      dup1\n      swap2\n      div\n      mul\n      0x20\n      add\n      mload(0x40)\n      swap1\n      dup2\n      add\n      0x40\n      mstore\n      dup1\n      swap3\n      swap2\n      swap1\n      dup2\n      dup2\n      mstore\n      0x20\n      add\n      dup3\n      dup1\n      sload\n      tag_240\n      swap1\n      tag_83\n      jump\t// in\n    tag_240:\n      dup1\n      iszero\n      tag_241\n      jumpi\n      dup1\n      0x1f\n      lt\n      tag_242\n      jumpi\n      0x0100\n      dup1\n      dup4\n      sload\n      div\n      mul\n      dup4\n      mstore\n      swap2\n      0x20\n      add\n      swap2\n      jump(tag_241)\n    tag_242:\n      dup3\n      add\n      swap2\n      swap1\n      0x00\n      mstore\n      keccak256(0x00, 0x20)\n      swap1\n    tag_243:\n      dup2\n      sload\n      dup2\n      mstore\n      swap1\n      0x01\n      add\n      swap1\n      0x20\n      add\n      dup1\n      dup4\n      gt\n      tag_243\n      jumpi\n      dup3\n      swap1\n      sub\n      0x1f\n      and\n      dup3\n      add\n      swap2\n    tag_241:\n      pop\n      pop\n      pop\n      pop\n      pop\n      dup2\n      mstore\n      0x20\n      add\n      0x07\n      dup3\n      add\n      0x00\n      swap1\n      sload\n      swap1\n      0x0100\n      exp\n      swap1\n      div\n      0xffffffffffffffffffffffffffffffffffffffff\n      and\n      0xffffffffffffffffffffffffffffffffffffffff\n      and\n      0xffffffffffffffffffffffffffffffffffffffff\n      and\n      dup2\n      mstore\n      pop\n      pop\n      dup2\n      mstore\n      0x20\n      add\n      swap1\n      0x01\n      add\n      swap1\n      jump(tag_206)\n    tag_207:\n      pop\n      pop\n      pop\n      pop\n      swap1\n      pop\n        /* \"contracts/konsultasi.sol\":2169:2301  function getConsultationsPasien() public view onlyPasien returns (Data[] memory) {... */\n      swap1\n      jump\t// out\n        /* \"contracts/konsultasi.sol\":478:507  uint public consultationCount */\n    tag_41:\n      sload(0x03)\n      dup2\n      jump\t// out\n        /* \"contracts/konsultasi.sol\":1007:1525  function addConsultation(... */\n    tag_47:\n        /* \"contracts/konsultasi.sol\":817:822  roles */\n      0x00\n      dup1\n      sload\n      swap1\n      0x0100\n      exp\n      swap1\n      div\n      0xffffffffffffffffffffffffffffffffffffffff\n      and\n        /* \"contracts/konsultasi.sol\":817:830  roles.isAdmin */\n      0xffffffffffffffffffffffffffffffffffffffff\n      and\n      0x24d7806c\n        /* \"contracts/konsultasi.sol\":831:841  msg.sender */\n      caller\n        /* \"contracts/konsultasi.sol\":817:842  roles.isAdmin(msg.sender) */\n      mload(0x40)\n      dup3\n      0xffffffff\n      and\n      0xe0\n      shl\n      dup2\n      mstore\n      0x04\n      add\n      tag_245\n      swap2\n      swap1\n      tag_22\n      jump\t// in\n    tag_245:\n      0x20\n      mload(0x40)\n      dup1\n      dup4\n      sub\n      dup2\n      dup7\n      gas\n      staticcall\n      iszero\n      dup1\n      iszero\n      tag_247\n      jumpi\n      returndatasize\n      0x00\n      dup1\n      returndatacopy\n      revert(0x00, returndatasize)\n    tag_247:\n      pop\n      pop\n      pop\n      pop\n      mload(0x40)\n      returndatasize\n      not(0x1f)\n      0x1f\n      dup3\n      add\n      and\n      dup3\n      add\n      dup1\n      0x40\n      mstore\n      pop\n      dup2\n      add\n      swap1\n      tag_248\n      swap2\n      swap1\n      tag_53\n      jump\t// in\n    tag_248:\n        /* \"contracts/konsultasi.sol\":817:872  roles.isAdmin(msg.sender) || roles.isDokter(msg.sender) */\n      dup1\n      tag_249\n      jumpi\n      pop\n        /* \"contracts/konsultasi.sol\":846:851  roles */\n      0x00\n      dup1\n      sload\n      swap1\n      0x0100\n      exp\n      swap1\n      div\n      0xffffffffffffffffffffffffffffffffffffffff\n      and\n        /* \"contracts/konsultasi.sol\":846:860  roles.isDokter */\n      0xffffffffffffffffffffffffffffffffffffffff\n      and\n      0x5c4c9348\n        /* \"contracts/konsultasi.sol\":861:871  msg.sender */\n      caller\n        /* \"contracts/konsultasi.sol\":846:872  roles.isDokter(msg.sender) */\n      mload(0x40)\n      dup3\n      0xffffffff\n      and\n      0xe0\n      shl\n      dup2\n      mstore\n      0x04\n      add\n      tag_250\n      swap2\n      swap1\n      tag_22\n      jump\t// in\n    tag_250:\n      0x20\n      mload(0x40)\n      dup1\n      dup4\n      sub\n      dup2\n      dup7\n      gas\n      staticcall\n      iszero\n      dup1\n      iszero\n      tag_252\n      jumpi\n      returndatasize\n      0x00\n      dup1\n      returndatacopy\n      revert(0x00, returndatasize)\n    tag_252:\n      pop\n      pop\n      pop\n      pop\n      mload(0x40)\n      returndatasize\n      not(0x1f)\n      0x1f\n      dup3\n      add\n      and\n      dup3\n      add\n      dup1\n      0x40\n      mstore\n      pop\n      dup2\n      add\n      swap1\n      tag_253\n      swap2\n      swap1\n      tag_53\n      jump\t// in\n    tag_253:\n        /* \"contracts/konsultasi.sol\":817:872  roles.isAdmin(msg.sender) || roles.isDokter(msg.sender) */\n    tag_249:\n        /* \"contracts/konsultasi.sol\":809:932  require(roles.isAdmin(msg.sender) || roles.isDokter(msg.sender), \"Hanya admin atau dokter yang diizinkan untuk mengakses.\") */\n      tag_254\n      jumpi\n      mload(0x40)\n      0x08c379a000000000000000000000000000000000000000000000000000000000\n      dup2\n      mstore\n      0x04\n      add\n      tag_255\n      swap1\n      tag_61\n      jump\t// in\n    tag_255:\n      mload(0x40)\n      dup1\n      swap2\n      sub\n      swap1\n      revert\n    tag_254:\n        /* \"contracts/konsultasi.sol\":1329:1342  consultations */\n      0x01\n        /* \"contracts/konsultasi.sol\":1329:1351  consultations[_wallet] */\n      0x00\n        /* \"contracts/konsultasi.sol\":1343:1350  _wallet */\n      dup10\n        /* \"contracts/konsultasi.sol\":1329:1351  consultations[_wallet] */\n      0xffffffffffffffffffffffffffffffffffffffff\n      and\n      0xffffffffffffffffffffffffffffffffffffffff\n      and\n      dup2\n      mstore\n      0x20\n      add\n      swap1\n      dup2\n      mstore\n      0x20\n      add\n      0x00\n      keccak256\n        /* \"contracts/konsultasi.sol\":1357:1436  Data(_nama, _namaDokter, _tanggal, _keluhan, _diagnosa, _tensi, _gula, _wallet) */\n      mload(0x40)\n      dup1\n      0x0100\n      add\n      0x40\n      mstore\n      dup1\n        /* \"contracts/konsultasi.sol\":1362:1367  _nama */\n      dup10\n        /* \"contracts/konsultasi.sol\":1357:1436  Data(_nama, _namaDokter, _tanggal, _keluhan, _diagnosa, _tensi, _gula, _wallet) */\n      dup2\n      mstore\n      0x20\n      add\n        /* \"contracts/konsultasi.sol\":1369:1380  _namaDokter */\n      dup9\n        /* \"contracts/konsultasi.sol\":1357:1436  Data(_nama, _namaDokter, _tanggal, _keluhan, _diagnosa, _tensi, _gula, _wallet) */\n      dup2\n      mstore\n      0x20\n      add\n        /* \"contracts/konsultasi.sol\":1382:1390  _tanggal */\n      dup8\n        /* \"contracts/konsultasi.sol\":1357:1436  Data(_nama, _namaDokter, _tanggal, _keluhan, _diagnosa, _tensi, _gula, _wallet) */\n      dup2\n      mstore\n      0x20\n      add\n        /* \"contracts/konsultasi.sol\":1392:1400  _keluhan */\n      dup7\n        /* \"contracts/konsultasi.sol\":1357:1436  Data(_nama, _namaDokter, _tanggal, _keluhan, _diagnosa, _tensi, _gula, _wallet) */\n      dup2\n      mstore\n      0x20\n      add\n        /* \"contracts/konsultasi.sol\":1402:1411  _diagnosa */\n      dup6\n        /* \"contracts/konsultasi.sol\":1357:1436  Data(_nama, _namaDokter, _tanggal, _keluhan, _diagnosa, _tensi, _gula, _wallet) */\n      dup2\n      mstore\n      0x20\n      add\n        /* \"contracts/konsultasi.sol\":1413:1419  _tensi */\n      dup5\n        /* \"contracts/konsultasi.sol\":1357:1436  Data(_nama, _namaDokter, _tanggal, _keluhan, _diagnosa, _tensi, _gula, _wallet) */\n      dup2\n      mstore\n      0x20\n      add\n        /* \"contracts/konsultasi.sol\":1421:1426  _gula */\n      dup4\n        /* \"contracts/konsultasi.sol\":1357:1436  Data(_nama, _namaDokter, _tanggal, _keluhan, _diagnosa, _tensi, _gula, _wallet) */\n      dup2\n      mstore\n      0x20\n      add\n        /* \"contracts/konsultasi.sol\":1428:1435  _wallet */\n      dup11\n        /* \"contracts/konsultasi.sol\":1357:1436  Data(_nama, _namaDokter, _tanggal, _keluhan, _diagnosa, _tensi, _gula, _wallet) */\n      0xffffffffffffffffffffffffffffffffffffffff\n      and\n      dup2\n      mstore\n      pop\n        /* \"contracts/konsultasi.sol\":1329:1437  consultations[_wallet].push(Data(_nama, _namaDokter, _tanggal, _keluhan, _diagnosa, _tensi, _gula, _wallet)) */\n      swap1\n      dup1\n      0x01\n      dup2\n      sload\n      add\n      dup1\n      dup3\n      sstore\n      dup1\n      swap2\n      pop\n      pop\n      0x01\n      swap1\n      sub\n      swap1\n      0x00\n      mstore\n      keccak256(0x00, 0x20)\n      swap1\n      0x08\n      mul\n      add\n      0x00\n      swap1\n      swap2\n      swap1\n      swap2\n      swap1\n      swap2\n      pop\n      0x00\n      dup3\n      add\n      mload\n      dup2\n      0x00\n      add\n      swap1\n      dup2\n      tag_258\n      swap2\n      swap1\n      tag_190\n      jump\t// in\n    tag_258:\n      pop\n      0x20\n      dup3\n      add\n      mload\n      dup2\n      0x01\n      add\n      swap1\n      dup2\n      tag_259\n      swap2\n      swap1\n      tag_190\n      jump\t// in\n    tag_259:\n      pop\n      0x40\n      dup3\n      add\n      mload\n      dup2\n      0x02\n      add\n      swap1\n      dup2\n      tag_260\n      swap2\n      swap1\n      tag_190\n      jump\t// in\n    tag_260:\n      pop\n      0x60\n      dup3\n      add\n      mload\n      dup2\n      0x03\n      add\n      swap1\n      dup2\n      tag_261\n      swap2\n      swap1\n      tag_190\n      jump\t// in\n    tag_261:\n      pop\n      0x80\n      dup3\n      add\n      mload\n      dup2\n      0x04\n      add\n      swap1\n      dup2\n      tag_262\n      swap2\n      swap1\n      tag_190\n      jump\t// in\n    tag_262:\n      pop\n      0xa0\n      dup3\n      add\n      mload\n      dup2\n      0x05\n      add\n      swap1\n      dup2\n      tag_263\n      swap2\n      swap1\n      tag_190\n      jump\t// in\n    tag_263:\n      pop\n      0xc0\n      dup3\n      add\n      mload\n      dup2\n      0x06\n      add\n      swap1\n      dup2\n      tag_264\n      swap2\n      swap1\n      tag_190\n      jump\t// in\n    tag_264:\n      pop\n      0xe0\n      dup3\n      add\n      mload\n      dup2\n      0x07\n      add\n      exp(0x0100, 0x00)\n      dup2\n      sload\n      dup2\n      0xffffffffffffffffffffffffffffffffffffffff\n      mul\n      not\n      and\n      swap1\n      dup4\n      0xffffffffffffffffffffffffffffffffffffffff\n      and\n      mul\n      or\n      swap1\n      sstore\n      pop\n      pop\n      pop\n        /* \"contracts/konsultasi.sol\":1448:1473  accountsWithConsultations */\n      0x02\n        /* \"contracts/konsultasi.sol\":1479:1486  _wallet */\n      dup9\n        /* \"contracts/konsultasi.sol\":1448:1487  accountsWithConsultations.push(_wallet) */\n      swap1\n      dup1\n      0x01\n      dup2\n      sload\n      add\n      dup1\n      dup3\n      sstore\n      dup1\n      swap2\n      pop\n      pop\n      0x01\n      swap1\n      sub\n      swap1\n      0x00\n      mstore\n      keccak256(0x00, 0x20)\n      add\n      0x00\n      swap1\n      swap2\n      swap1\n      swap2\n      swap1\n      swap2\n      0x0100\n      exp\n      dup2\n      sload\n      dup2\n      0xffffffffffffffffffffffffffffffffffffffff\n      mul\n      not\n      and\n      swap1\n      dup4\n      0xffffffffffffffffffffffffffffffffffffffff\n      and\n      mul\n      or\n      swap1\n      sstore\n      pop\n        /* \"contracts/konsultasi.sol\":1498:1515  consultationCount */\n      0x03\n      0x00\n        /* \"contracts/konsultasi.sol\":1498:1517  consultationCount++ */\n      dup2\n      sload\n      dup1\n      swap3\n      swap2\n      swap1\n      tag_266\n      swap1\n      tag_128\n      jump\t// in\n    tag_266:\n      swap2\n      swap1\n      pop\n      sstore\n      pop\n        /* \"contracts/konsultasi.sol\":1007:1525  function addConsultation(... */\n      pop\n      pop\n      pop\n      pop\n      pop\n      pop\n      pop\n      pop\n      jump\t// out\n    tag_71:\n      mload(0x40)\n      dup1\n      0x0100\n      add\n      0x40\n      mstore\n      dup1\n      0x60\n      dup2\n      mstore\n      0x20\n      add\n      0x60\n      dup2\n      mstore\n      0x20\n      add\n      0x60\n      dup2\n      mstore\n      0x20\n      add\n      0x60\n      dup2\n      mstore\n      0x20\n      add\n      0x60\n      dup2\n      mstore\n      0x20\n      add\n      0x60\n      dup2\n      mstore\n      0x20\n      add\n      0x60\n      dup2\n      mstore\n      0x20\n      add\n      and(0xffffffffffffffffffffffffffffffffffffffff, 0x00)\n      dup2\n      mstore\n      pop\n      swap1\n      jump\t// out\n        /* \"#utility.yul\":7:82   */\n    tag_267:\n        /* \"#utility.yul\":40:46   */\n      0x00\n        /* \"#utility.yul\":73:75   */\n      0x40\n        /* \"#utility.yul\":67:76   */\n      mload\n        /* \"#utility.yul\":57:76   */\n      swap1\n      pop\n        /* \"#utility.yul\":7:82   */\n      swap1\n      jump\t// out\n        /* \"#utility.yul\":88:205   */\n    tag_268:\n        /* \"#utility.yul\":197:198   */\n      0x00\n        /* \"#utility.yul\":194:195   */\n      dup1\n        /* \"#utility.yul\":187:199   */\n      revert\n        /* \"#utility.yul\":211:328   */\n    tag_269:\n        /* \"#utility.yul\":320:321   */\n      0x00\n        /* \"#utility.yul\":317:318   */\n      dup1\n        /* \"#utility.yul\":310:322   */\n      revert\n        /* \"#utility.yul\":334:411   */\n    tag_270:\n        /* \"#utility.yul\":371:378   */\n      0x00\n        /* \"#utility.yul\":400:405   */\n      dup2\n        /* \"#utility.yul\":389:405   */\n      swap1\n      pop\n        /* \"#utility.yul\":334:411   */\n      swap2\n      swap1\n      pop\n      jump\t// out\n        /* \"#utility.yul\":417:539   */\n    tag_271:\n        /* \"#utility.yul\":490:514   */\n      tag_338\n        /* \"#utility.yul\":508:513   */\n      dup2\n        /* \"#utility.yul\":490:514   */\n      tag_270\n      jump\t// in\n    tag_338:\n        /* \"#utility.yul\":483:488   */\n      dup2\n        /* \"#utility.yul\":480:515   */\n      eq\n        /* \"#utility.yul\":470:533   */\n      tag_339\n      jumpi\n        /* \"#utility.yul\":529:530   */\n      0x00\n        /* \"#utility.yul\":526:527   */\n      dup1\n        /* \"#utility.yul\":519:531   */\n      revert\n        /* \"#utility.yul\":470:533   */\n    tag_339:\n        /* \"#utility.yul\":417:539   */\n      pop\n      jump\t// out\n        /* \"#utility.yul\":545:684   */\n    tag_272:\n        /* \"#utility.yul\":591:596   */\n      0x00\n        /* \"#utility.yul\":629:635   */\n      dup2\n        /* \"#utility.yul\":616:636   */\n      calldataload\n        /* \"#utility.yul\":607:636   */\n      swap1\n      pop\n        /* \"#utility.yul\":645:678   */\n      tag_341\n        /* \"#utility.yul\":672:677   */\n      dup2\n        /* \"#utility.yul\":645:678   */\n      tag_271\n      jump\t// in\n    tag_341:\n        /* \"#utility.yul\":545:684   */\n      swap3\n      swap2\n      pop\n      pop\n      jump\t// out\n        /* \"#utility.yul\":690:1019   */\n    tag_14:\n        /* \"#utility.yul\":749:755   */\n      0x00\n        /* \"#utility.yul\":798:800   */\n      0x20\n        /* \"#utility.yul\":786:795   */\n      dup3\n        /* \"#utility.yul\":777:784   */\n      dup5\n        /* \"#utility.yul\":773:796   */\n      sub\n        /* \"#utility.yul\":769:801   */\n      slt\n        /* \"#utility.yul\":766:885   */\n      iszero\n      tag_343\n      jumpi\n        /* \"#utility.yul\":804:883   */\n      tag_344\n      tag_268\n      jump\t// in\n    tag_344:\n        /* \"#utility.yul\":766:885   */\n    tag_343:\n        /* \"#utility.yul\":924:925   */\n      0x00\n        /* \"#utility.yul\":949:1002   */\n      tag_345\n        /* \"#utility.yul\":994:1001   */\n      dup5\n        /* \"#utility.yul\":985:991   */\n      dup3\n        /* \"#utility.yul\":974:983   */\n      dup6\n        /* \"#utility.yul\":970:992   */\n      add\n        /* \"#utility.yul\":949:1002   */\n      tag_272\n      jump\t// in\n    tag_345:\n        /* \"#utility.yul\":939:1002   */\n      swap2\n      pop\n        /* \"#utility.yul\":895:1012   */\n      pop\n        /* \"#utility.yul\":690:1019   */\n      swap3\n      swap2\n      pop\n      pop\n      jump\t// out\n        /* \"#utility.yul\":1025:1159   */\n    tag_273:\n        /* \"#utility.yul\":1112:1118   */\n      0x00\n        /* \"#utility.yul\":1146:1151   */\n      dup2\n        /* \"#utility.yul\":1140:1152   */\n      mload\n        /* \"#utility.yul\":1130:1152   */\n      swap1\n      pop\n        /* \"#utility.yul\":1025:1159   */\n      swap2\n      swap1\n      pop\n      jump\t// out\n        /* \"#utility.yul\":1165:1369   */\n    tag_274:\n        /* \"#utility.yul\":1284:1295   */\n      0x00\n        /* \"#utility.yul\":1318:1324   */\n      dup3\n        /* \"#utility.yul\":1313:1316   */\n      dup3\n        /* \"#utility.yul\":1306:1325   */\n      mstore\n        /* \"#utility.yul\":1358:1362   */\n      0x20\n        /* \"#utility.yul\":1353:1356   */\n      dup3\n        /* \"#utility.yul\":1349:1363   */\n      add\n        /* \"#utility.yul\":1334:1363   */\n      swap1\n      pop\n        /* \"#utility.yul\":1165:1369   */\n      swap3\n      swap2\n      pop\n      pop\n      jump\t// out\n        /* \"#utility.yul\":1375:1527   */\n    tag_275:\n        /* \"#utility.yul\":1462:1466   */\n      0x00\n        /* \"#utility.yul\":1485:1488   */\n      dup2\n        /* \"#utility.yul\":1477:1488   */\n      swap1\n      pop\n        /* \"#utility.yul\":1515:1519   */\n      0x20\n        /* \"#utility.yul\":1510:1513   */\n      dup3\n        /* \"#utility.yul\":1506:1520   */\n      add\n        /* \"#utility.yul\":1498:1520   */\n      swap1\n      pop\n        /* \"#utility.yul\":1375:1527   */\n      swap2\n      swap1\n      pop\n      jump\t// out\n        /* \"#utility.yul\":1533:1632   */\n    tag_276:\n        /* \"#utility.yul\":1585:1591   */\n      0x00\n        /* \"#utility.yul\":1619:1624   */\n      dup2\n        /* \"#utility.yul\":1613:1625   */\n      mload\n        /* \"#utility.yul\":1603:1625   */\n      swap1\n      pop\n        /* \"#utility.yul\":1533:1632   */\n      swap2\n      swap1\n      pop\n      jump\t// out\n        /* \"#utility.yul\":1638:1797   */\n    tag_277:\n        /* \"#utility.yul\":1712:1723   */\n      0x00\n        /* \"#utility.yul\":1746:1752   */\n      dup3\n        /* \"#utility.yul\":1741:1744   */\n      dup3\n        /* \"#utility.yul\":1734:1753   */\n      mstore\n        /* \"#utility.yul\":1786:1790   */\n      0x20\n        /* \"#utility.yul\":1781:1784   */\n      dup3\n        /* \"#utility.yul\":1777:1791   */\n      add\n        /* \"#utility.yul\":1762:1791   */\n      swap1\n      pop\n        /* \"#utility.yul\":1638:1797   */\n      swap3\n      swap2\n      pop\n      pop\n      jump\t// out\n        /* \"#utility.yul\":1803:2049   */\n    tag_278:\n        /* \"#utility.yul\":1884:1885   */\n      0x00\n        /* \"#utility.yul\":1894:2007   */\n    tag_352:\n        /* \"#utility.yul\":1908:1914   */\n      dup4\n        /* \"#utility.yul\":1905:1906   */\n      dup2\n        /* \"#utility.yul\":1902:1915   */\n      lt\n        /* \"#utility.yul\":1894:2007   */\n      iszero\n      tag_354\n      jumpi\n        /* \"#utility.yul\":1993:1994   */\n      dup1\n        /* \"#utility.yul\":1988:1991   */\n      dup3\n        /* \"#utility.yul\":1984:1995   */\n      add\n        /* \"#utility.yul\":1978:1996   */\n      mload\n        /* \"#utility.yul\":1974:1975   */\n      dup2\n        /* \"#utility.yul\":1969:1972   */\n      dup5\n        /* \"#utility.yul\":1965:1976   */\n      add\n        /* \"#utility.yul\":1958:1997   */\n      mstore\n        /* \"#utility.yul\":1930:1932   */\n      0x20\n        /* \"#utility.yul\":1927:1928   */\n      dup2\n        /* \"#utility.yul\":1923:1933   */\n      add\n        /* \"#utility.yul\":1918:1933   */\n      swap1\n      pop\n        /* \"#utility.yul\":1894:2007   */\n      jump(tag_352)\n    tag_354:\n        /* \"#utility.yul\":2041:2042   */\n      0x00\n        /* \"#utility.yul\":2032:2038   */\n      dup5\n        /* \"#utility.yul\":2027:2030   */\n      dup5\n        /* \"#utility.yul\":2023:2039   */\n      add\n        /* \"#utility.yul\":2016:2043   */\n      mstore\n        /* \"#utility.yul\":1865:2049   */\n      pop\n        /* \"#utility.yul\":1803:2049   */\n      pop\n      pop\n      pop\n      jump\t// out\n        /* \"#utility.yul\":2055:2157   */\n    tag_279:\n        /* \"#utility.yul\":2096:2102   */\n      0x00\n        /* \"#utility.yul\":2147:2149   */\n      0x1f\n        /* \"#utility.yul\":2143:2150   */\n      not\n        /* \"#utility.yul\":2138:2140   */\n      0x1f\n        /* \"#utility.yul\":2131:2136   */\n      dup4\n        /* \"#utility.yul\":2127:2141   */\n      add\n        /* \"#utility.yul\":2123:2151   */\n      and\n        /* \"#utility.yul\":2113:2151   */\n      swap1\n      pop\n        /* \"#utility.yul\":2055:2157   */\n      swap2\n      swap1\n      pop\n      jump\t// out\n        /* \"#utility.yul\":2163:2520   */\n    tag_280:\n        /* \"#utility.yul\":2241:2244   */\n      0x00\n        /* \"#utility.yul\":2269:2308   */\n      tag_357\n        /* \"#utility.yul\":2302:2307   */\n      dup3\n        /* \"#utility.yul\":2269:2308   */\n      tag_276\n      jump\t// in\n    tag_357:\n        /* \"#utility.yul\":2324:2385   */\n      tag_358\n        /* \"#utility.yul\":2378:2384   */\n      dup2\n        /* \"#utility.yul\":2373:2376   */\n      dup6\n        /* \"#utility.yul\":2324:2385   */\n      tag_277\n      jump\t// in\n    tag_358:\n        /* \"#utility.yul\":2317:2385   */\n      swap4\n      pop\n        /* \"#utility.yul\":2394:2459   */\n      tag_359\n        /* \"#utility.yul\":2452:2458   */\n      dup2\n        /* \"#utility.yul\":2447:2450   */\n      dup6\n        /* \"#utility.yul\":2440:2444   */\n      0x20\n        /* \"#utility.yul\":2433:2438   */\n      dup7\n        /* \"#utility.yul\":2429:2445   */\n      add\n        /* \"#utility.yul\":2394:2459   */\n      tag_278\n      jump\t// in\n    tag_359:\n        /* \"#utility.yul\":2484:2513   */\n      tag_360\n        /* \"#utility.yul\":2506:2512   */\n      dup2\n        /* \"#utility.yul\":2484:2513   */\n      tag_279\n      jump\t// in\n    tag_360:\n        /* \"#utility.yul\":2479:2482   */\n      dup5\n        /* \"#utility.yul\":2475:2514   */\n      add\n        /* \"#utility.yul\":2468:2514   */\n      swap2\n      pop\n        /* \"#utility.yul\":2245:2520   */\n      pop\n        /* \"#utility.yul\":2163:2520   */\n      swap3\n      swap2\n      pop\n      pop\n      jump\t// out\n        /* \"#utility.yul\":2526:2652   */\n    tag_281:\n        /* \"#utility.yul\":2563:2570   */\n      0x00\n        /* \"#utility.yul\":2603:2645   */\n      0xffffffffffffffffffffffffffffffffffffffff\n        /* \"#utility.yul\":2596:2601   */\n      dup3\n        /* \"#utility.yul\":2592:2646   */\n      and\n        /* \"#utility.yul\":2581:2646   */\n      swap1\n      pop\n        /* \"#utility.yul\":2526:2652   */\n      swap2\n      swap1\n      pop\n      jump\t// out\n        /* \"#utility.yul\":2658:2754   */\n    tag_282:\n        /* \"#utility.yul\":2695:2702   */\n      0x00\n        /* \"#utility.yul\":2724:2748   */\n      tag_363\n        /* \"#utility.yul\":2742:2747   */\n      dup3\n        /* \"#utility.yul\":2724:2748   */\n      tag_281\n      jump\t// in\n    tag_363:\n        /* \"#utility.yul\":2713:2748   */\n      swap1\n      pop\n        /* \"#utility.yul\":2658:2754   */\n      swap2\n      swap1\n      pop\n      jump\t// out\n        /* \"#utility.yul\":2760:2868   */\n    tag_283:\n        /* \"#utility.yul\":2837:2861   */\n      tag_365\n        /* \"#utility.yul\":2855:2860   */\n      dup2\n        /* \"#utility.yul\":2837:2861   */\n      tag_282\n      jump\t// in\n    tag_365:\n        /* \"#utility.yul\":2832:2835   */\n      dup3\n        /* \"#utility.yul\":2825:2862   */\n      mstore\n        /* \"#utility.yul\":2760:2868   */\n      pop\n      pop\n      jump\t// out\n        /* \"#utility.yul\":2946:5023   */\n    tag_284:\n        /* \"#utility.yul\":3045:3048   */\n      0x00\n        /* \"#utility.yul\":3081:3087   */\n      0x0100\n        /* \"#utility.yul\":3076:3079   */\n      dup4\n        /* \"#utility.yul\":3072:3088   */\n      add\n        /* \"#utility.yul\":3170:3174   */\n      0x00\n        /* \"#utility.yul\":3163:3168   */\n      dup4\n        /* \"#utility.yul\":3159:3175   */\n      add\n        /* \"#utility.yul\":3153:3176   */\n      mload\n        /* \"#utility.yul\":3223:3226   */\n      dup5\n        /* \"#utility.yul\":3217:3221   */\n      dup3\n        /* \"#utility.yul\":3213:3227   */\n      sub\n        /* \"#utility.yul\":3206:3210   */\n      0x00\n        /* \"#utility.yul\":3201:3204   */\n      dup7\n        /* \"#utility.yul\":3197:3211   */\n      add\n        /* \"#utility.yul\":3190:3228   */\n      mstore\n        /* \"#utility.yul\":3249:3322   */\n      tag_367\n        /* \"#utility.yul\":3317:3321   */\n      dup3\n        /* \"#utility.yul\":3303:3315   */\n      dup3\n        /* \"#utility.yul\":3249:3322   */\n      tag_280\n      jump\t// in\n    tag_367:\n        /* \"#utility.yul\":3241:3322   */\n      swap2\n      pop\n        /* \"#utility.yul\":3098:3333   */\n      pop\n        /* \"#utility.yul\":3421:3425   */\n      0x20\n        /* \"#utility.yul\":3414:3419   */\n      dup4\n        /* \"#utility.yul\":3410:3426   */\n      add\n        /* \"#utility.yul\":3404:3427   */\n      mload\n        /* \"#utility.yul\":3474:3477   */\n      dup5\n        /* \"#utility.yul\":3468:3472   */\n      dup3\n        /* \"#utility.yul\":3464:3478   */\n      sub\n        /* \"#utility.yul\":3457:3461   */\n      0x20\n        /* \"#utility.yul\":3452:3455   */\n      dup7\n        /* \"#utility.yul\":3448:3462   */\n      add\n        /* \"#utility.yul\":3441:3479   */\n      mstore\n        /* \"#utility.yul\":3500:3573   */\n      tag_368\n        /* \"#utility.yul\":3568:3572   */\n      dup3\n        /* \"#utility.yul\":3554:3566   */\n      dup3\n        /* \"#utility.yul\":3500:3573   */\n      tag_280\n      jump\t// in\n    tag_368:\n        /* \"#utility.yul\":3492:3573   */\n      swap2\n      pop\n        /* \"#utility.yul\":3343:3584   */\n      pop\n        /* \"#utility.yul\":3669:3673   */\n      0x40\n        /* \"#utility.yul\":3662:3667   */\n      dup4\n        /* \"#utility.yul\":3658:3674   */\n      add\n        /* \"#utility.yul\":3652:3675   */\n      mload\n        /* \"#utility.yul\":3722:3725   */\n      dup5\n        /* \"#utility.yul\":3716:3720   */\n      dup3\n        /* \"#utility.yul\":3712:3726   */\n      sub\n        /* \"#utility.yul\":3705:3709   */\n      0x40\n        /* \"#utility.yul\":3700:3703   */\n      dup7\n        /* \"#utility.yul\":3696:3710   */\n      add\n        /* \"#utility.yul\":3689:3727   */\n      mstore\n        /* \"#utility.yul\":3748:3821   */\n      tag_369\n        /* \"#utility.yul\":3816:3820   */\n      dup3\n        /* \"#utility.yul\":3802:3814   */\n      dup3\n        /* \"#utility.yul\":3748:3821   */\n      tag_280\n      jump\t// in\n    tag_369:\n        /* \"#utility.yul\":3740:3821   */\n      swap2\n      pop\n        /* \"#utility.yul\":3594:3832   */\n      pop\n        /* \"#utility.yul\":3917:3921   */\n      0x60\n        /* \"#utility.yul\":3910:3915   */\n      dup4\n        /* \"#utility.yul\":3906:3922   */\n      add\n        /* \"#utility.yul\":3900:3923   */\n      mload\n        /* \"#utility.yul\":3970:3973   */\n      dup5\n        /* \"#utility.yul\":3964:3968   */\n      dup3\n        /* \"#utility.yul\":3960:3974   */\n      sub\n        /* \"#utility.yul\":3953:3957   */\n      0x60\n        /* \"#utility.yul\":3948:3951   */\n      dup7\n        /* \"#utility.yul\":3944:3958   */\n      add\n        /* \"#utility.yul\":3937:3975   */\n      mstore\n        /* \"#utility.yul\":3996:4069   */\n      tag_370\n        /* \"#utility.yul\":4064:4068   */\n      dup3\n        /* \"#utility.yul\":4050:4062   */\n      dup3\n        /* \"#utility.yul\":3996:4069   */\n      tag_280\n      jump\t// in\n    tag_370:\n        /* \"#utility.yul\":3988:4069   */\n      swap2\n      pop\n        /* \"#utility.yul\":3842:4080   */\n      pop\n        /* \"#utility.yul\":4166:4170   */\n      0x80\n        /* \"#utility.yul\":4159:4164   */\n      dup4\n        /* \"#utility.yul\":4155:4171   */\n      add\n        /* \"#utility.yul\":4149:4172   */\n      mload\n        /* \"#utility.yul\":4219:4222   */\n      dup5\n        /* \"#utility.yul\":4213:4217   */\n      dup3\n        /* \"#utility.yul\":4209:4223   */\n      sub\n        /* \"#utility.yul\":4202:4206   */\n      0x80\n        /* \"#utility.yul\":4197:4200   */\n      dup7\n        /* \"#utility.yul\":4193:4207   */\n      add\n        /* \"#utility.yul\":4186:4224   */\n      mstore\n        /* \"#utility.yul\":4245:4318   */\n      tag_371\n        /* \"#utility.yul\":4313:4317   */\n      dup3\n        /* \"#utility.yul\":4299:4311   */\n      dup3\n        /* \"#utility.yul\":4245:4318   */\n      tag_280\n      jump\t// in\n    tag_371:\n        /* \"#utility.yul\":4237:4318   */\n      swap2\n      pop\n        /* \"#utility.yul\":4090:4329   */\n      pop\n        /* \"#utility.yul\":4412:4416   */\n      0xa0\n        /* \"#utility.yul\":4405:4410   */\n      dup4\n        /* \"#utility.yul\":4401:4417   */\n      add\n        /* \"#utility.yul\":4395:4418   */\n      mload\n        /* \"#utility.yul\":4465:4468   */\n      dup5\n        /* \"#utility.yul\":4459:4463   */\n      dup3\n        /* \"#utility.yul\":4455:4469   */\n      sub\n        /* \"#utility.yul\":4448:4452   */\n      0xa0\n        /* \"#utility.yul\":4443:4446   */\n      dup7\n        /* \"#utility.yul\":4439:4453   */\n      add\n        /* \"#utility.yul\":4432:4470   */\n      mstore\n        /* \"#utility.yul\":4491:4564   */\n      tag_372\n        /* \"#utility.yul\":4559:4563   */\n      dup3\n        /* \"#utility.yul\":4545:4557   */\n      dup3\n        /* \"#utility.yul\":4491:4564   */\n      tag_280\n      jump\t// in\n    tag_372:\n        /* \"#utility.yul\":4483:4564   */\n      swap2\n      pop\n        /* \"#utility.yul\":4339:4575   */\n      pop\n        /* \"#utility.yul\":4657:4661   */\n      0xc0\n        /* \"#utility.yul\":4650:4655   */\n      dup4\n        /* \"#utility.yul\":4646:4662   */\n      add\n        /* \"#utility.yul\":4640:4663   */\n      mload\n        /* \"#utility.yul\":4710:4713   */\n      dup5\n        /* \"#utility.yul\":4704:4708   */\n      dup3\n        /* \"#utility.yul\":4700:4714   */\n      sub\n        /* \"#utility.yul\":4693:4697   */\n      0xc0\n        /* \"#utility.yul\":4688:4691   */\n      dup7\n        /* \"#utility.yul\":4684:4698   */\n      add\n        /* \"#utility.yul\":4677:4715   */\n      mstore\n        /* \"#utility.yul\":4736:4809   */\n      tag_373\n        /* \"#utility.yul\":4804:4808   */\n      dup3\n        /* \"#utility.yul\":4790:4802   */\n      dup3\n        /* \"#utility.yul\":4736:4809   */\n      tag_280\n      jump\t// in\n    tag_373:\n        /* \"#utility.yul\":4728:4809   */\n      swap2\n      pop\n        /* \"#utility.yul\":4585:4820   */\n      pop\n        /* \"#utility.yul\":4904:4908   */\n      0xe0\n        /* \"#utility.yul\":4897:4902   */\n      dup4\n        /* \"#utility.yul\":4893:4909   */\n      add\n        /* \"#utility.yul\":4887:4910   */\n      mload\n        /* \"#utility.yul\":4923:4986   */\n      tag_374\n        /* \"#utility.yul\":4980:4984   */\n      0xe0\n        /* \"#utility.yul\":4975:4978   */\n      dup7\n        /* \"#utility.yul\":4971:4985   */\n      add\n        /* \"#utility.yul\":4957:4969   */\n      dup3\n        /* \"#utility.yul\":4923:4986   */\n      tag_283\n      jump\t// in\n    tag_374:\n        /* \"#utility.yul\":4830:4996   */\n      pop\n        /* \"#utility.yul\":5013:5017   */\n      dup1\n        /* \"#utility.yul\":5006:5017   */\n      swap2\n      pop\n        /* \"#utility.yul\":3050:5023   */\n      pop\n        /* \"#utility.yul\":2946:5023   */\n      swap3\n      swap2\n      pop\n      pop\n      jump\t// out\n        /* \"#utility.yul\":5029:5265   */\n    tag_285:\n        /* \"#utility.yul\":5138:5148   */\n      0x00\n        /* \"#utility.yul\":5173:5259   */\n      tag_376\n        /* \"#utility.yul\":5255:5258   */\n      dup4\n        /* \"#utility.yul\":5247:5253   */\n      dup4\n        /* \"#utility.yul\":5173:5259   */\n      tag_284\n      jump\t// in\n    tag_376:\n        /* \"#utility.yul\":5159:5259   */\n      swap1\n      pop\n        /* \"#utility.yul\":5029:5265   */\n      swap3\n      swap2\n      pop\n      pop\n      jump\t// out\n        /* \"#utility.yul\":5271:5404   */\n    tag_286:\n        /* \"#utility.yul\":5361:5365   */\n      0x00\n        /* \"#utility.yul\":5393:5397   */\n      0x20\n        /* \"#utility.yul\":5388:5391   */\n      dup3\n        /* \"#utility.yul\":5384:5398   */\n      add\n        /* \"#utility.yul\":5376:5398   */\n      swap1\n      pop\n        /* \"#utility.yul\":5271:5404   */\n      swap2\n      swap1\n      pop\n      jump\t// out\n        /* \"#utility.yul\":5486:6557   */\n    tag_287:\n        /* \"#utility.yul\":5645:5648   */\n      0x00\n        /* \"#utility.yul\":5674:5748   */\n      tag_379\n        /* \"#utility.yul\":5742:5747   */\n      dup3\n        /* \"#utility.yul\":5674:5748   */\n      tag_273\n      jump\t// in\n    tag_379:\n        /* \"#utility.yul\":5764:5870   */\n      tag_380\n        /* \"#utility.yul\":5863:5869   */\n      dup2\n        /* \"#utility.yul\":5858:5861   */\n      dup6\n        /* \"#utility.yul\":5764:5870   */\n      tag_274\n      jump\t// in\n    tag_380:\n        /* \"#utility.yul\":5757:5870   */\n      swap4\n      pop\n        /* \"#utility.yul\":5896:5899   */\n      dup4\n        /* \"#utility.yul\":5941:5945   */\n      0x20\n        /* \"#utility.yul\":5933:5939   */\n      dup3\n        /* \"#utility.yul\":5929:5946   */\n      mul\n        /* \"#utility.yul\":5924:5927   */\n      dup6\n        /* \"#utility.yul\":5920:5947   */\n      add\n        /* \"#utility.yul\":5971:6047   */\n      tag_381\n        /* \"#utility.yul\":6041:6046   */\n      dup6\n        /* \"#utility.yul\":5971:6047   */\n      tag_275\n      jump\t// in\n    tag_381:\n        /* \"#utility.yul\":6070:6077   */\n      dup1\n        /* \"#utility.yul\":6101:6102   */\n      0x00\n        /* \"#utility.yul\":6086:6512   */\n    tag_382:\n        /* \"#utility.yul\":6111:6117   */\n      dup6\n        /* \"#utility.yul\":6108:6109   */\n      dup2\n        /* \"#utility.yul\":6105:6118   */\n      lt\n        /* \"#utility.yul\":6086:6512   */\n      iszero\n      tag_384\n      jumpi\n        /* \"#utility.yul\":6182:6191   */\n      dup5\n        /* \"#utility.yul\":6176:6180   */\n      dup5\n        /* \"#utility.yul\":6172:6192   */\n      sub\n        /* \"#utility.yul\":6167:6170   */\n      dup10\n        /* \"#utility.yul\":6160:6193   */\n      mstore\n        /* \"#utility.yul\":6233:6239   */\n      dup2\n        /* \"#utility.yul\":6227:6240   */\n      mload\n        /* \"#utility.yul\":6261:6365   */\n      tag_385\n        /* \"#utility.yul\":6360:6364   */\n      dup6\n        /* \"#utility.yul\":6345:6358   */\n      dup3\n        /* \"#utility.yul\":6261:6365   */\n      tag_285\n      jump\t// in\n    tag_385:\n        /* \"#utility.yul\":6253:6365   */\n      swap5\n      pop\n        /* \"#utility.yul\":6388:6468   */\n      tag_386\n        /* \"#utility.yul\":6461:6467   */\n      dup4\n        /* \"#utility.yul\":6388:6468   */\n      tag_286\n      jump\t// in\n    tag_386:\n        /* \"#utility.yul\":6378:6468   */\n      swap3\n      pop\n        /* \"#utility.yul\":6497:6501   */\n      0x20\n        /* \"#utility.yul\":6492:6495   */\n      dup11\n        /* \"#utility.yul\":6488:6502   */\n      add\n        /* \"#utility.yul\":6481:6502   */\n      swap10\n      pop\n        /* \"#utility.yul\":6146:6512   */\n      pop\n        /* \"#utility.yul\":6133:6134   */\n      0x01\n        /* \"#utility.yul\":6130:6131   */\n      dup2\n        /* \"#utility.yul\":6126:6135   */\n      add\n        /* \"#utility.yul\":6121:6135   */\n      swap1\n      pop\n        /* \"#utility.yul\":6086:6512   */\n      jump(tag_382)\n    tag_384:\n        /* \"#utility.yul\":6090:6104   */\n      pop\n        /* \"#utility.yul\":6528:6532   */\n      dup3\n        /* \"#utility.yul\":6521:6532   */\n      swap8\n      pop\n        /* \"#utility.yul\":6548:6551   */\n      dup8\n        /* \"#utility.yul\":6541:6551   */\n      swap6\n      pop\n        /* \"#utility.yul\":5650:6557   */\n      pop\n      pop\n      pop\n      pop\n      pop\n        /* \"#utility.yul\":5486:6557   */\n      swap3\n      swap2\n      pop\n      pop\n      jump\t// out\n        /* \"#utility.yul\":6563:7016   */\n    tag_17:\n        /* \"#utility.yul\":6746:6750   */\n      0x00\n        /* \"#utility.yul\":6784:6786   */\n      0x20\n        /* \"#utility.yul\":6773:6782   */\n      dup3\n        /* \"#utility.yul\":6769:6787   */\n      add\n        /* \"#utility.yul\":6761:6787   */\n      swap1\n      pop\n        /* \"#utility.yul\":6833:6842   */\n      dup2\n        /* \"#utility.yul\":6827:6831   */\n      dup2\n        /* \"#utility.yul\":6823:6843   */\n      sub\n        /* \"#utility.yul\":6819:6820   */\n      0x00\n        /* \"#utility.yul\":6808:6817   */\n      dup4\n        /* \"#utility.yul\":6804:6821   */\n      add\n        /* \"#utility.yul\":6797:6844   */\n      mstore\n        /* \"#utility.yul\":6861:7009   */\n      tag_388\n        /* \"#utility.yul\":7004:7008   */\n      dup2\n        /* \"#utility.yul\":6995:7001   */\n      dup5\n        /* \"#utility.yul\":6861:7009   */\n      tag_287\n      jump\t// in\n    tag_388:\n        /* \"#utility.yul\":6853:7009   */\n      swap1\n      pop\n        /* \"#utility.yul\":6563:7016   */\n      swap3\n      swap2\n      pop\n      pop\n      jump\t// out\n        /* \"#utility.yul\":7022:7140   */\n    tag_288:\n        /* \"#utility.yul\":7109:7133   */\n      tag_390\n        /* \"#utility.yul\":7127:7132   */\n      dup2\n        /* \"#utility.yul\":7109:7133   */\n      tag_282\n      jump\t// in\n    tag_390:\n        /* \"#utility.yul\":7104:7107   */\n      dup3\n        /* \"#utility.yul\":7097:7134   */\n      mstore\n        /* \"#utility.yul\":7022:7140   */\n      pop\n      pop\n      jump\t// out\n        /* \"#utility.yul\":7146:7368   */\n    tag_22:\n        /* \"#utility.yul\":7239:7243   */\n      0x00\n        /* \"#utility.yul\":7277:7279   */\n      0x20\n        /* \"#utility.yul\":7266:7275   */\n      dup3\n        /* \"#utility.yul\":7262:7280   */\n      add\n        /* \"#utility.yul\":7254:7280   */\n      swap1\n      pop\n        /* \"#utility.yul\":7290:7361   */\n      tag_392\n        /* \"#utility.yul\":7358:7359   */\n      0x00\n        /* \"#utility.yul\":7347:7356   */\n      dup4\n        /* \"#utility.yul\":7343:7360   */\n      add\n        /* \"#utility.yul\":7334:7340   */\n      dup5\n        /* \"#utility.yul\":7290:7361   */\n      tag_288\n      jump\t// in\n    tag_392:\n        /* \"#utility.yul\":7146:7368   */\n      swap3\n      swap2\n      pop\n      pop\n      jump\t// out\n        /* \"#utility.yul\":7374:7496   */\n    tag_289:\n        /* \"#utility.yul\":7447:7471   */\n      tag_394\n        /* \"#utility.yul\":7465:7470   */\n      dup2\n        /* \"#utility.yul\":7447:7471   */\n      tag_282\n      jump\t// in\n    tag_394:\n        /* \"#utility.yul\":7440:7445   */\n      dup2\n        /* \"#utility.yul\":7437:7472   */\n      eq\n        /* \"#utility.yul\":7427:7490   */\n      tag_395\n      jumpi\n        /* \"#utility.yul\":7486:7487   */\n      0x00\n        /* \"#utility.yul\":7483:7484   */\n      dup1\n        /* \"#utility.yul\":7476:7488   */\n      revert\n        /* \"#utility.yul\":7427:7490   */\n    tag_395:\n        /* \"#utility.yul\":7374:7496   */\n      pop\n      jump\t// out\n        /* \"#utility.yul\":7502:7641   */\n    tag_290:\n        /* \"#utility.yul\":7548:7553   */\n      0x00\n        /* \"#utility.yul\":7586:7592   */\n      dup2\n        /* \"#utility.yul\":7573:7593   */\n      calldataload\n        /* \"#utility.yul\":7564:7593   */\n      swap1\n      pop\n        /* \"#utility.yul\":7602:7635   */\n      tag_397\n        /* \"#utility.yul\":7629:7634   */\n      dup2\n        /* \"#utility.yul\":7602:7635   */\n      tag_289\n      jump\t// in\n    tag_397:\n        /* \"#utility.yul\":7502:7641   */\n      swap3\n      swap2\n      pop\n      pop\n      jump\t// out\n        /* \"#utility.yul\":7647:8121   */\n    tag_25:\n        /* \"#utility.yul\":7715:7721   */\n      0x00\n        /* \"#utility.yul\":7723:7729   */\n      dup1\n        /* \"#utility.yul\":7772:7774   */\n      0x40\n        /* \"#utility.yul\":7760:7769   */\n      dup4\n        /* \"#utility.yul\":7751:7758   */\n      dup6\n        /* \"#utility.yul\":7747:7770   */\n      sub\n        /* \"#utility.yul\":7743:7775   */\n      slt\n        /* \"#utility.yul\":7740:7859   */\n      iszero\n      tag_399\n      jumpi\n        /* \"#utility.yul\":7778:7857   */\n      tag_400\n      tag_268\n      jump\t// in\n    tag_400:\n        /* \"#utility.yul\":7740:7859   */\n    tag_399:\n        /* \"#utility.yul\":7898:7899   */\n      0x00\n        /* \"#utility.yul\":7923:7976   */\n      tag_401\n        /* \"#utility.yul\":7968:7975   */\n      dup6\n        /* \"#utility.yul\":7959:7965   */\n      dup3\n        /* \"#utility.yul\":7948:7957   */\n      dup7\n        /* \"#utility.yul\":7944:7966   */\n      add\n        /* \"#utility.yul\":7923:7976   */\n      tag_290\n      jump\t// in\n    tag_401:\n        /* \"#utility.yul\":7913:7976   */\n      swap3\n      pop\n        /* \"#utility.yul\":7869:7986   */\n      pop\n        /* \"#utility.yul\":8025:8027   */\n      0x20\n        /* \"#utility.yul\":8051:8104   */\n      tag_402\n        /* \"#utility.yul\":8096:8103   */\n      dup6\n        /* \"#utility.yul\":8087:8093   */\n      dup3\n        /* \"#utility.yul\":8076:8085   */\n      dup7\n        /* \"#utility.yul\":8072:8094   */\n      add\n        /* \"#utility.yul\":8051:8104   */\n      tag_272\n      jump\t// in\n    tag_402:\n        /* \"#utility.yul\":8041:8104   */\n      swap2\n      pop\n        /* \"#utility.yul\":7996:8114   */\n      pop\n        /* \"#utility.yul\":7647:8121   */\n      swap3\n      pop\n      swap3\n      swap1\n      pop\n      jump\t// out\n        /* \"#utility.yul\":8127:8296   */\n    tag_291:\n        /* \"#utility.yul\":8211:8222   */\n      0x00\n        /* \"#utility.yul\":8245:8251   */\n      dup3\n        /* \"#utility.yul\":8240:8243   */\n      dup3\n        /* \"#utility.yul\":8233:8252   */\n      mstore\n        /* \"#utility.yul\":8285:8289   */\n      0x20\n        /* \"#utility.yul\":8280:8283   */\n      dup3\n        /* \"#utility.yul\":8276:8290   */\n      add\n        /* \"#utility.yul\":8261:8290   */\n      swap1\n      pop\n        /* \"#utility.yul\":8127:8296   */\n      swap3\n      swap2\n      pop\n      pop\n      jump\t// out\n        /* \"#utility.yul\":8302:8679   */\n    tag_292:\n        /* \"#utility.yul\":8390:8393   */\n      0x00\n        /* \"#utility.yul\":8418:8457   */\n      tag_405\n        /* \"#utility.yul\":8451:8456   */\n      dup3\n        /* \"#utility.yul\":8418:8457   */\n      tag_276\n      jump\t// in\n    tag_405:\n        /* \"#utility.yul\":8473:8544   */\n      tag_406\n        /* \"#utility.yul\":8537:8543   */\n      dup2\n        /* \"#utility.yul\":8532:8535   */\n      dup6\n        /* \"#utility.yul\":8473:8544   */\n      tag_291\n      jump\t// in\n    tag_406:\n        /* \"#utility.yul\":8466:8544   */\n      swap4\n      pop\n        /* \"#utility.yul\":8553:8618   */\n      tag_407\n        /* \"#utility.yul\":8611:8617   */\n      dup2\n        /* \"#utility.yul\":8606:8609   */\n      dup6\n        /* \"#utility.yul\":8599:8603   */\n      0x20\n        /* \"#utility.yul\":8592:8597   */\n      dup7\n        /* \"#utility.yul\":8588:8604   */\n      add\n        /* \"#utility.yul\":8553:8618   */\n      tag_278\n      jump\t// in\n    tag_407:\n        /* \"#utility.yul\":8643:8672   */\n      tag_408\n        /* \"#utility.yul\":8665:8671   */\n      dup2\n        /* \"#utility.yul\":8643:8672   */\n      tag_279\n      jump\t// in\n    tag_408:\n        /* \"#utility.yul\":8638:8641   */\n      dup5\n        /* \"#utility.yul\":8634:8673   */\n      add\n        /* \"#utility.yul\":8627:8673   */\n      swap2\n      pop\n        /* \"#utility.yul\":8394:8679   */\n      pop\n        /* \"#utility.yul\":8302:8679   */\n      swap3\n      swap2\n      pop\n      pop\n      jump\t// out\n        /* \"#utility.yul\":8685:10319   */\n    tag_28:\n        /* \"#utility.yul\":9114:9118   */\n      0x00\n        /* \"#utility.yul\":9152:9155   */\n      0x0100\n        /* \"#utility.yul\":9141:9150   */\n      dup3\n        /* \"#utility.yul\":9137:9156   */\n      add\n        /* \"#utility.yul\":9129:9156   */\n      swap1\n      pop\n        /* \"#utility.yul\":9202:9211   */\n      dup2\n        /* \"#utility.yul\":9196:9200   */\n      dup2\n        /* \"#utility.yul\":9192:9212   */\n      sub\n        /* \"#utility.yul\":9188:9189   */\n      0x00\n        /* \"#utility.yul\":9177:9186   */\n      dup4\n        /* \"#utility.yul\":9173:9190   */\n      add\n        /* \"#utility.yul\":9166:9213   */\n      mstore\n        /* \"#utility.yul\":9230:9308   */\n      tag_410\n        /* \"#utility.yul\":9303:9307   */\n      dup2\n        /* \"#utility.yul\":9294:9300   */\n      dup12\n        /* \"#utility.yul\":9230:9308   */\n      tag_292\n      jump\t// in\n    tag_410:\n        /* \"#utility.yul\":9222:9308   */\n      swap1\n      pop\n        /* \"#utility.yul\":9355:9364   */\n      dup2\n        /* \"#utility.yul\":9349:9353   */\n      dup2\n        /* \"#utility.yul\":9345:9365   */\n      sub\n        /* \"#utility.yul\":9340:9342   */\n      0x20\n        /* \"#utility.yul\":9329:9338   */\n      dup4\n        /* \"#utility.yul\":9325:9343   */\n      add\n        /* \"#utility.yul\":9318:9366   */\n      mstore\n        /* \"#utility.yul\":9383:9461   */\n      tag_411\n        /* \"#utility.yul\":9456:9460   */\n      dup2\n        /* \"#utility.yul\":9447:9453   */\n      dup11\n        /* \"#utility.yul\":9383:9461   */\n      tag_292\n      jump\t// in\n    tag_411:\n        /* \"#utility.yul\":9375:9461   */\n      swap1\n      pop\n        /* \"#utility.yul\":9508:9517   */\n      dup2\n        /* \"#utility.yul\":9502:9506   */\n      dup2\n        /* \"#utility.yul\":9498:9518   */\n      sub\n        /* \"#utility.yul\":9493:9495   */\n      0x40\n        /* \"#utility.yul\":9482:9491   */\n      dup4\n        /* \"#utility.yul\":9478:9496   */\n      add\n        /* \"#utility.yul\":9471:9519   */\n      mstore\n        /* \"#utility.yul\":9536:9614   */\n      tag_412\n        /* \"#utility.yul\":9609:9613   */\n      dup2\n        /* \"#utility.yul\":9600:9606   */\n      dup10\n        /* \"#utility.yul\":9536:9614   */\n      tag_292\n      jump\t// in\n    tag_412:\n        /* \"#utility.yul\":9528:9614   */\n      swap1\n      pop\n        /* \"#utility.yul\":9661:9670   */\n      dup2\n        /* \"#utility.yul\":9655:9659   */\n      dup2\n        /* \"#utility.yul\":9651:9671   */\n      sub\n        /* \"#utility.yul\":9646:9648   */\n      0x60\n        /* \"#utility.yul\":9635:9644   */\n      dup4\n        /* \"#utility.yul\":9631:9649   */\n      add\n        /* \"#utility.yul\":9624:9672   */\n      mstore\n        /* \"#utility.yul\":9689:9767   */\n      tag_413\n        /* \"#utility.yul\":9762:9766   */\n      dup2\n        /* \"#utility.yul\":9753:9759   */\n      dup9\n        /* \"#utility.yul\":9689:9767   */\n      tag_292\n      jump\t// in\n    tag_413:\n        /* \"#utility.yul\":9681:9767   */\n      swap1\n      pop\n        /* \"#utility.yul\":9815:9824   */\n      dup2\n        /* \"#utility.yul\":9809:9813   */\n      dup2\n        /* \"#utility.yul\":9805:9825   */\n      sub\n        /* \"#utility.yul\":9799:9802   */\n      0x80\n        /* \"#utility.yul\":9788:9797   */\n      dup4\n        /* \"#utility.yul\":9784:9803   */\n      add\n        /* \"#utility.yul\":9777:9826   */\n      mstore\n        /* \"#utility.yul\":9843:9921   */\n      tag_414\n        /* \"#utility.yul\":9916:9920   */\n      dup2\n        /* \"#utility.yul\":9907:9913   */\n      dup8\n        /* \"#utility.yul\":9843:9921   */\n      tag_292\n      jump\t// in\n    tag_414:\n        /* \"#utility.yul\":9835:9921   */\n      swap1\n      pop\n        /* \"#utility.yul\":9969:9978   */\n      dup2\n        /* \"#utility.yul\":9963:9967   */\n      dup2\n        /* \"#utility.yul\":9959:9979   */\n      sub\n        /* \"#utility.yul\":9953:9956   */\n      0xa0\n        /* \"#utility.yul\":9942:9951   */\n      dup4\n        /* \"#utility.yul\":9938:9957   */\n      add\n        /* \"#utility.yul\":9931:9980   */\n      mstore\n        /* \"#utility.yul\":9997:10075   */\n      tag_415\n        /* \"#utility.yul\":10070:10074   */\n      dup2\n        /* \"#utility.yul\":10061:10067   */\n      dup7\n        /* \"#utility.yul\":9997:10075   */\n      tag_292\n      jump\t// in\n    tag_415:\n        /* \"#utility.yul\":9989:10075   */\n      swap1\n      pop\n        /* \"#utility.yul\":10123:10132   */\n      dup2\n        /* \"#utility.yul\":10117:10121   */\n      dup2\n        /* \"#utility.yul\":10113:10133   */\n      sub\n        /* \"#utility.yul\":10107:10110   */\n      0xc0\n        /* \"#utility.yul\":10096:10105   */\n      dup4\n        /* \"#utility.yul\":10092:10111   */\n      add\n        /* \"#utility.yul\":10085:10134   */\n      mstore\n        /* \"#utility.yul\":10151:10229   */\n      tag_416\n        /* \"#utility.yul\":10224:10228   */\n      dup2\n        /* \"#utility.yul\":10215:10221   */\n      dup6\n        /* \"#utility.yul\":10151:10229   */\n      tag_292\n      jump\t// in\n    tag_416:\n        /* \"#utility.yul\":10143:10229   */\n      swap1\n      pop\n        /* \"#utility.yul\":10239:10312   */\n      tag_417\n        /* \"#utility.yul\":10307:10310   */\n      0xe0\n        /* \"#utility.yul\":10296:10305   */\n      dup4\n        /* \"#utility.yul\":10292:10311   */\n      add\n        /* \"#utility.yul\":10283:10289   */\n      dup5\n        /* \"#utility.yul\":10239:10312   */\n      tag_288\n      jump\t// in\n    tag_417:\n        /* \"#utility.yul\":8685:10319   */\n      swap10\n      swap9\n      pop\n      pop\n      pop\n      pop\n      pop\n      pop\n      pop\n      pop\n      pop\n      jump\t// out\n        /* \"#utility.yul\":10325:10385   */\n    tag_293:\n        /* \"#utility.yul\":10353:10356   */\n      0x00\n        /* \"#utility.yul\":10374:10379   */\n      dup2\n        /* \"#utility.yul\":10367:10379   */\n      swap1\n      pop\n        /* \"#utility.yul\":10325:10385   */\n      swap2\n      swap1\n      pop\n      jump\t// out\n        /* \"#utility.yul\":10391:10533   */\n    tag_294:\n        /* \"#utility.yul\":10441:10450   */\n      0x00\n        /* \"#utility.yul\":10474:10527   */\n      tag_420\n        /* \"#utility.yul\":10492:10526   */\n      tag_421\n        /* \"#utility.yul\":10501:10525   */\n      tag_422\n        /* \"#utility.yul\":10519:10524   */\n      dup5\n        /* \"#utility.yul\":10501:10525   */\n      tag_281\n      jump\t// in\n    tag_422:\n        /* \"#utility.yul\":10492:10526   */\n      tag_293\n      jump\t// in\n    tag_421:\n        /* \"#utility.yul\":10474:10527   */\n      tag_281\n      jump\t// in\n    tag_420:\n        /* \"#utility.yul\":10461:10527   */\n      swap1\n      pop\n        /* \"#utility.yul\":10391:10533   */\n      swap2\n      swap1\n      pop\n      jump\t// out\n        /* \"#utility.yul\":10539:10665   */\n    tag_295:\n        /* \"#utility.yul\":10589:10598   */\n      0x00\n        /* \"#utility.yul\":10622:10659   */\n      tag_424\n        /* \"#utility.yul\":10653:10658   */\n      dup3\n        /* \"#utility.yul\":10622:10659   */\n      tag_294\n      jump\t// in\n    tag_424:\n        /* \"#utility.yul\":10609:10659   */\n      swap1\n      pop\n        /* \"#utility.yul\":10539:10665   */\n      swap2\n      swap1\n      pop\n      jump\t// out\n        /* \"#utility.yul\":10671:10814   */\n    tag_296:\n        /* \"#utility.yul\":10738:10747   */\n      0x00\n        /* \"#utility.yul\":10771:10808   */\n      tag_426\n        /* \"#utility.yul\":10802:10807   */\n      dup3\n        /* \"#utility.yul\":10771:10808   */\n      tag_295\n      jump\t// in\n    tag_426:\n        /* \"#utility.yul\":10758:10808   */\n      swap1\n      pop\n        /* \"#utility.yul\":10671:10814   */\n      swap2\n      swap1\n      pop\n      jump\t// out\n        /* \"#utility.yul\":10820:10985   */\n    tag_297:\n        /* \"#utility.yul\":10924:10978   */\n      tag_428\n        /* \"#utility.yul\":10972:10977   */\n      dup2\n        /* \"#utility.yul\":10924:10978   */\n      tag_296\n      jump\t// in\n    tag_428:\n        /* \"#utility.yul\":10919:10922   */\n      dup3\n        /* \"#utility.yul\":10912:10979   */\n      mstore\n        /* \"#utility.yul\":10820:10985   */\n      pop\n      pop\n      jump\t// out\n        /* \"#utility.yul\":10991:11247   */\n    tag_32:\n        /* \"#utility.yul\":11101:11105   */\n      0x00\n        /* \"#utility.yul\":11139:11141   */\n      0x20\n        /* \"#utility.yul\":11128:11137   */\n      dup3\n        /* \"#utility.yul\":11124:11142   */\n      add\n        /* \"#utility.yul\":11116:11142   */\n      swap1\n      pop\n        /* \"#utility.yul\":11152:11240   */\n      tag_430\n        /* \"#utility.yul\":11237:11238   */\n      0x00\n        /* \"#utility.yul\":11226:11235   */\n      dup4\n        /* \"#utility.yul\":11222:11239   */\n      add\n        /* \"#utility.yul\":11213:11219   */\n      dup5\n        /* \"#utility.yul\":11152:11240   */\n      tag_297\n      jump\t// in\n    tag_430:\n        /* \"#utility.yul\":10991:11247   */\n      swap3\n      swap2\n      pop\n      pop\n      jump\t// out\n        /* \"#utility.yul\":11253:11370   */\n    tag_298:\n        /* \"#utility.yul\":11362:11363   */\n      0x00\n        /* \"#utility.yul\":11359:11360   */\n      dup1\n        /* \"#utility.yul\":11352:11364   */\n      revert\n        /* \"#utility.yul\":11376:11493   */\n    tag_299:\n        /* \"#utility.yul\":11485:11486   */\n      0x00\n        /* \"#utility.yul\":11482:11483   */\n      dup1\n        /* \"#utility.yul\":11475:11487   */\n      revert\n        /* \"#utility.yul\":11499:11679   */\n    tag_67:\n        /* \"#utility.yul\":11547:11624   */\n      0x4e487b7100000000000000000000000000000000000000000000000000000000\n        /* \"#utility.yul\":11544:11545   */\n      0x00\n        /* \"#utility.yul\":11537:11625   */\n      mstore\n        /* \"#utility.yul\":11644:11648   */\n      0x41\n        /* \"#utility.yul\":11641:11642   */\n      0x04\n        /* \"#utility.yul\":11634:11649   */\n      mstore\n        /* \"#utility.yul\":11668:11672   */\n      0x24\n        /* \"#utility.yul\":11665:11666   */\n      0x00\n        /* \"#utility.yul\":11658:11673   */\n      revert\n        /* \"#utility.yul\":11685:11966   */\n    tag_300:\n        /* \"#utility.yul\":11768:11795   */\n      tag_435\n        /* \"#utility.yul\":11790:11794   */\n      dup3\n        /* \"#utility.yul\":11768:11795   */\n      tag_279\n      jump\t// in\n    tag_435:\n        /* \"#utility.yul\":11760:11766   */\n      dup2\n        /* \"#utility.yul\":11756:11796   */\n      add\n        /* \"#utility.yul\":11898:11904   */\n      dup2\n        /* \"#utility.yul\":11886:11896   */\n      dup2\n        /* \"#utility.yul\":11883:11905   */\n      lt\n        /* \"#utility.yul\":11862:11880   */\n      0xffffffffffffffff\n        /* \"#utility.yul\":11850:11860   */\n      dup3\n        /* \"#utility.yul\":11847:11881   */\n      gt\n        /* \"#utility.yul\":11844:11906   */\n      or\n        /* \"#utility.yul\":11841:11929   */\n      iszero\n      tag_436\n      jumpi\n        /* \"#utility.yul\":11909:11927   */\n      tag_437\n      tag_67\n      jump\t// in\n    tag_437:\n        /* \"#utility.yul\":11841:11929   */\n    tag_436:\n        /* \"#utility.yul\":11949:11959   */\n      dup1\n        /* \"#utility.yul\":11945:11947   */\n      0x40\n        /* \"#utility.yul\":11938:11960   */\n      mstore\n        /* \"#utility.yul\":11728:11966   */\n      pop\n        /* \"#utility.yul\":11685:11966   */\n      pop\n      pop\n      jump\t// out\n        /* \"#utility.yul\":11972:12101   */\n    tag_301:\n        /* \"#utility.yul\":12006:12012   */\n      0x00\n        /* \"#utility.yul\":12033:12053   */\n      tag_439\n      tag_267\n      jump\t// in\n    tag_439:\n        /* \"#utility.yul\":12023:12053   */\n      swap1\n      pop\n        /* \"#utility.yul\":12062:12095   */\n      tag_440\n        /* \"#utility.yul\":12090:12094   */\n      dup3\n        /* \"#utility.yul\":12082:12088   */\n      dup3\n        /* \"#utility.yul\":12062:12095   */\n      tag_300\n      jump\t// in\n    tag_440:\n        /* \"#utility.yul\":11972:12101   */\n      swap2\n      swap1\n      pop\n      jump\t// out\n        /* \"#utility.yul\":12107:12415   */\n    tag_302:\n        /* \"#utility.yul\":12169:12173   */\n      0x00\n        /* \"#utility.yul\":12259:12277   */\n      0xffffffffffffffff\n        /* \"#utility.yul\":12251:12257   */\n      dup3\n        /* \"#utility.yul\":12248:12278   */\n      gt\n        /* \"#utility.yul\":12245:12301   */\n      iszero\n      tag_442\n      jumpi\n        /* \"#utility.yul\":12281:12299   */\n      tag_443\n      tag_67\n      jump\t// in\n    tag_443:\n        /* \"#utility.yul\":12245:12301   */\n    tag_442:\n        /* \"#utility.yul\":12319:12348   */\n      tag_444\n        /* \"#utility.yul\":12341:12347   */\n      dup3\n        /* \"#utility.yul\":12319:12348   */\n      tag_279\n      jump\t// in\n    tag_444:\n        /* \"#utility.yul\":12311:12348   */\n      swap1\n      pop\n        /* \"#utility.yul\":12403:12407   */\n      0x20\n        /* \"#utility.yul\":12397:12401   */\n      dup2\n        /* \"#utility.yul\":12393:12408   */\n      add\n        /* \"#utility.yul\":12385:12408   */\n      swap1\n      pop\n        /* \"#utility.yul\":12107:12415   */\n      swap2\n      swap1\n      pop\n      jump\t// out\n        /* \"#utility.yul\":12421:12567   */\n    tag_303:\n        /* \"#utility.yul\":12518:12524   */\n      dup3\n        /* \"#utility.yul\":12513:12516   */\n      dup2\n        /* \"#utility.yul\":12508:12511   */\n      dup4\n        /* \"#utility.yul\":12495:12525   */\n      calldatacopy\n        /* \"#utility.yul\":12559:12560   */\n      0x00\n        /* \"#utility.yul\":12550:12556   */\n      dup4\n        /* \"#utility.yul\":12545:12548   */\n      dup4\n        /* \"#utility.yul\":12541:12557   */\n      add\n        /* \"#utility.yul\":12534:12561   */\n      mstore\n        /* \"#utility.yul\":12421:12567   */\n      pop\n      pop\n      pop\n      jump\t// out\n        /* \"#utility.yul\":12573:12998   */\n    tag_304:\n        /* \"#utility.yul\":12651:12656   */\n      0x00\n        /* \"#utility.yul\":12676:12742   */\n      tag_447\n        /* \"#utility.yul\":12692:12741   */\n      tag_448\n        /* \"#utility.yul\":12734:12740   */\n      dup5\n        /* \"#utility.yul\":12692:12741   */\n      tag_302\n      jump\t// in\n    tag_448:\n        /* \"#utility.yul\":12676:12742   */\n      tag_301\n      jump\t// in\n    tag_447:\n        /* \"#utility.yul\":12667:12742   */\n      swap1\n      pop\n        /* \"#utility.yul\":12765:12771   */\n      dup3\n        /* \"#utility.yul\":12758:12763   */\n      dup2\n        /* \"#utility.yul\":12751:12772   */\n      mstore\n        /* \"#utility.yul\":12803:12807   */\n      0x20\n        /* \"#utility.yul\":12796:12801   */\n      dup2\n        /* \"#utility.yul\":12792:12808   */\n      add\n        /* \"#utility.yul\":12841:12844   */\n      dup5\n        /* \"#utility.yul\":12832:12838   */\n      dup5\n        /* \"#utility.yul\":12827:12830   */\n      dup5\n        /* \"#utility.yul\":12823:12839   */\n      add\n        /* \"#utility.yul\":12820:12845   */\n      gt\n        /* \"#utility.yul\":12817:12929   */\n      iszero\n      tag_449\n      jumpi\n        /* \"#utility.yul\":12848:12927   */\n      tag_450\n      tag_299\n      jump\t// in\n    tag_450:\n        /* \"#utility.yul\":12817:12929   */\n    tag_449:\n        /* \"#utility.yul\":12938:12992   */\n      tag_451\n        /* \"#utility.yul\":12985:12991   */\n      dup5\n        /* \"#utility.yul\":12980:12983   */\n      dup3\n        /* \"#utility.yul\":12975:12978   */\n      dup6\n        /* \"#utility.yul\":12938:12992   */\n      tag_303\n      jump\t// in\n    tag_451:\n        /* \"#utility.yul\":12657:12998   */\n      pop\n        /* \"#utility.yul\":12573:12998   */\n      swap4\n      swap3\n      pop\n      pop\n      pop\n      jump\t// out\n        /* \"#utility.yul\":13018:13358   */\n    tag_305:\n        /* \"#utility.yul\":13074:13079   */\n      0x00\n        /* \"#utility.yul\":13123:13126   */\n      dup3\n        /* \"#utility.yul\":13116:13120   */\n      0x1f\n        /* \"#utility.yul\":13108:13114   */\n      dup4\n        /* \"#utility.yul\":13104:13121   */\n      add\n        /* \"#utility.yul\":13100:13127   */\n      slt\n        /* \"#utility.yul\":13090:13212   */\n      tag_453\n      jumpi\n        /* \"#utility.yul\":13131:13210   */\n      tag_454\n      tag_298\n      jump\t// in\n    tag_454:\n        /* \"#utility.yul\":13090:13212   */\n    tag_453:\n        /* \"#utility.yul\":13248:13254   */\n      dup2\n        /* \"#utility.yul\":13235:13255   */\n      calldataload\n        /* \"#utility.yul\":13273:13352   */\n      tag_455\n        /* \"#utility.yul\":13348:13351   */\n      dup5\n        /* \"#utility.yul\":13340:13346   */\n      dup3\n        /* \"#utility.yul\":13333:13337   */\n      0x20\n        /* \"#utility.yul\":13325:13331   */\n      dup7\n        /* \"#utility.yul\":13321:13338   */\n      add\n        /* \"#utility.yul\":13273:13352   */\n      tag_304\n      jump\t// in\n    tag_455:\n        /* \"#utility.yul\":13264:13352   */\n      swap2\n      pop\n        /* \"#utility.yul\":13080:13358   */\n      pop\n        /* \"#utility.yul\":13018:13358   */\n      swap3\n      swap2\n      pop\n      pop\n      jump\t// out\n        /* \"#utility.yul\":13364:16119   */\n    tag_35:\n        /* \"#utility.yul\":13565:13571   */\n      0x00\n        /* \"#utility.yul\":13573:13579   */\n      dup1\n        /* \"#utility.yul\":13581:13587   */\n      0x00\n        /* \"#utility.yul\":13589:13595   */\n      dup1\n        /* \"#utility.yul\":13597:13603   */\n      0x00\n        /* \"#utility.yul\":13605:13611   */\n      dup1\n        /* \"#utility.yul\":13613:13619   */\n      0x00\n        /* \"#utility.yul\":13621:13627   */\n      dup1\n        /* \"#utility.yul\":13629:13635   */\n      0x00\n        /* \"#utility.yul\":13678:13681   */\n      0x0120\n        /* \"#utility.yul\":13666:13675   */\n      dup11\n        /* \"#utility.yul\":13657:13664   */\n      dup13\n        /* \"#utility.yul\":13653:13676   */\n      sub\n        /* \"#utility.yul\":13649:13682   */\n      slt\n        /* \"#utility.yul\":13646:13766   */\n      iszero\n      tag_457\n      jumpi\n        /* \"#utility.yul\":13685:13764   */\n      tag_458\n      tag_268\n      jump\t// in\n    tag_458:\n        /* \"#utility.yul\":13646:13766   */\n    tag_457:\n        /* \"#utility.yul\":13805:13806   */\n      0x00\n        /* \"#utility.yul\":13830:13883   */\n      tag_459\n        /* \"#utility.yul\":13875:13882   */\n      dup13\n        /* \"#utility.yul\":13866:13872   */\n      dup3\n        /* \"#utility.yul\":13855:13864   */\n      dup14\n        /* \"#utility.yul\":13851:13873   */\n      add\n        /* \"#utility.yul\":13830:13883   */\n      tag_290\n      jump\t// in\n    tag_459:\n        /* \"#utility.yul\":13820:13883   */\n      swap10\n      pop\n        /* \"#utility.yul\":13776:13893   */\n      pop\n        /* \"#utility.yul\":13932:13934   */\n      0x20\n        /* \"#utility.yul\":13958:14011   */\n      tag_460\n        /* \"#utility.yul\":14003:14010   */\n      dup13\n        /* \"#utility.yul\":13994:14000   */\n      dup3\n        /* \"#utility.yul\":13983:13992   */\n      dup14\n        /* \"#utility.yul\":13979:14001   */\n      add\n        /* \"#utility.yul\":13958:14011   */\n      tag_272\n      jump\t// in\n    tag_460:\n        /* \"#utility.yul\":13948:14011   */\n      swap9\n      pop\n        /* \"#utility.yul\":13903:14021   */\n      pop\n        /* \"#utility.yul\":14088:14090   */\n      0x40\n        /* \"#utility.yul\":14077:14086   */\n      dup11\n        /* \"#utility.yul\":14073:14091   */\n      add\n        /* \"#utility.yul\":14060:14092   */\n      calldataload\n        /* \"#utility.yul\":14119:14137   */\n      0xffffffffffffffff\n        /* \"#utility.yul\":14111:14117   */\n      dup2\n        /* \"#utility.yul\":14108:14138   */\n      gt\n        /* \"#utility.yul\":14105:14222   */\n      iszero\n      tag_461\n      jumpi\n        /* \"#utility.yul\":14141:14220   */\n      tag_462\n      tag_269\n      jump\t// in\n    tag_462:\n        /* \"#utility.yul\":14105:14222   */\n    tag_461:\n        /* \"#utility.yul\":14246:14309   */\n      tag_463\n        /* \"#utility.yul\":14301:14308   */\n      dup13\n        /* \"#utility.yul\":14292:14298   */\n      dup3\n        /* \"#utility.yul\":14281:14290   */\n      dup14\n        /* \"#utility.yul\":14277:14299   */\n      add\n        /* \"#utility.yul\":14246:14309   */\n      tag_305\n      jump\t// in\n    tag_463:\n        /* \"#utility.yul\":14236:14309   */\n      swap8\n      pop\n        /* \"#utility.yul\":14031:14319   */\n      pop\n        /* \"#utility.yul\":14386:14388   */\n      0x60\n        /* \"#utility.yul\":14375:14384   */\n      dup11\n        /* \"#utility.yul\":14371:14389   */\n      add\n        /* \"#utility.yul\":14358:14390   */\n      calldataload\n        /* \"#utility.yul\":14417:14435   */\n      0xffffffffffffffff\n        /* \"#utility.yul\":14409:14415   */\n      dup2\n        /* \"#utility.yul\":14406:14436   */\n      gt\n        /* \"#utility.yul\":14403:14520   */\n      iszero\n      tag_464\n      jumpi\n        /* \"#utility.yul\":14439:14518   */\n      tag_465\n      tag_269\n      jump\t// in\n    tag_465:\n        /* \"#utility.yul\":14403:14520   */\n    tag_464:\n        /* \"#utility.yul\":14544:14607   */\n      tag_466\n        /* \"#utility.yul\":14599:14606   */\n      dup13\n        /* \"#utility.yul\":14590:14596   */\n      dup3\n        /* \"#utility.yul\":14579:14588   */\n      dup14\n        /* \"#utility.yul\":14575:14597   */\n      add\n        /* \"#utility.yul\":14544:14607   */\n      tag_305\n      jump\t// in\n    tag_466:\n        /* \"#utility.yul\":14534:14607   */\n      swap7\n      pop\n        /* \"#utility.yul\":14329:14617   */\n      pop\n        /* \"#utility.yul\":14684:14687   */\n      0x80\n        /* \"#utility.yul\":14673:14682   */\n      dup11\n        /* \"#utility.yul\":14669:14688   */\n      add\n        /* \"#utility.yul\":14656:14689   */\n      calldataload\n        /* \"#utility.yul\":14716:14734   */\n      0xffffffffffffffff\n        /* \"#utility.yul\":14708:14714   */\n      dup2\n        /* \"#utility.yul\":14705:14735   */\n      gt\n        /* \"#utility.yul\":14702:14819   */\n      iszero\n      tag_467\n      jumpi\n        /* \"#utility.yul\":14738:14817   */\n      tag_468\n      tag_269\n      jump\t// in\n    tag_468:\n        /* \"#utility.yul\":14702:14819   */\n    tag_467:\n        /* \"#utility.yul\":14843:14906   */\n      tag_469\n        /* \"#utility.yul\":14898:14905   */\n      dup13\n        /* \"#utility.yul\":14889:14895   */\n      dup3\n        /* \"#utility.yul\":14878:14887   */\n      dup14\n        /* \"#utility.yul\":14874:14896   */\n      add\n        /* \"#utility.yul\":14843:14906   */\n      tag_305\n      jump\t// in\n    tag_469:\n        /* \"#utility.yul\":14833:14906   */\n      swap6\n      pop\n        /* \"#utility.yul\":14627:14916   */\n      pop\n        /* \"#utility.yul\":14983:14986   */\n      0xa0\n        /* \"#utility.yul\":14972:14981   */\n      dup11\n        /* \"#utility.yul\":14968:14987   */\n      add\n        /* \"#utility.yul\":14955:14988   */\n      calldataload\n        /* \"#utility.yul\":15015:15033   */\n      0xffffffffffffffff\n        /* \"#utility.yul\":15007:15013   */\n      dup2\n        /* \"#utility.yul\":15004:15034   */\n      gt\n        /* \"#utility.yul\":15001:15118   */\n      iszero\n      tag_470\n      jumpi\n        /* \"#utility.yul\":15037:15116   */\n      tag_471\n      tag_269\n      jump\t// in\n    tag_471:\n        /* \"#utility.yul\":15001:15118   */\n    tag_470:\n        /* \"#utility.yul\":15142:15205   */\n      tag_472\n        /* \"#utility.yul\":15197:15204   */\n      dup13\n        /* \"#utility.yul\":15188:15194   */\n      dup3\n        /* \"#utility.yul\":15177:15186   */\n      dup14\n        /* \"#utility.yul\":15173:15195   */\n      add\n        /* \"#utility.yul\":15142:15205   */\n      tag_305\n      jump\t// in\n    tag_472:\n        /* \"#utility.yul\":15132:15205   */\n      swap5\n      pop\n        /* \"#utility.yul\":14926:15215   */\n      pop\n        /* \"#utility.yul\":15282:15285   */\n      0xc0\n        /* \"#utility.yul\":15271:15280   */\n      dup11\n        /* \"#utility.yul\":15267:15286   */\n      add\n        /* \"#utility.yul\":15254:15287   */\n      calldataload\n        /* \"#utility.yul\":15314:15332   */\n      0xffffffffffffffff\n        /* \"#utility.yul\":15306:15312   */\n      dup2\n        /* \"#utility.yul\":15303:15333   */\n      gt\n        /* \"#utility.yul\":15300:15417   */\n      iszero\n      tag_473\n      jumpi\n        /* \"#utility.yul\":15336:15415   */\n      tag_474\n      tag_269\n      jump\t// in\n    tag_474:\n        /* \"#utility.yul\":15300:15417   */\n    tag_473:\n        /* \"#utility.yul\":15441:15504   */\n      tag_475\n        /* \"#utility.yul\":15496:15503   */\n      dup13\n        /* \"#utility.yul\":15487:15493   */\n      dup3\n        /* \"#utility.yul\":15476:15485   */\n      dup14\n        /* \"#utility.yul\":15472:15494   */\n      add\n        /* \"#utility.yul\":15441:15504   */\n      tag_305\n      jump\t// in\n    tag_475:\n        /* \"#utility.yul\":15431:15504   */\n      swap4\n      pop\n        /* \"#utility.yul\":15225:15514   */\n      pop\n        /* \"#utility.yul\":15581:15584   */\n      0xe0\n        /* \"#utility.yul\":15570:15579   */\n      dup11\n        /* \"#utility.yul\":15566:15585   */\n      add\n        /* \"#utility.yul\":15553:15586   */\n      calldataload\n        /* \"#utility.yul\":15613:15631   */\n      0xffffffffffffffff\n        /* \"#utility.yul\":15605:15611   */\n      dup2\n        /* \"#utility.yul\":15602:15632   */\n      gt\n        /* \"#utility.yul\":15599:15716   */\n      iszero\n      tag_476\n      jumpi\n        /* \"#utility.yul\":15635:15714   */\n      tag_477\n      tag_269\n      jump\t// in\n    tag_477:\n        /* \"#utility.yul\":15599:15716   */\n    tag_476:\n        /* \"#utility.yul\":15740:15803   */\n      tag_478\n        /* \"#utility.yul\":15795:15802   */\n      dup13\n        /* \"#utility.yul\":15786:15792   */\n      dup3\n        /* \"#utility.yul\":15775:15784   */\n      dup14\n        /* \"#utility.yul\":15771:15793   */\n      add\n        /* \"#utility.yul\":15740:15803   */\n      tag_305\n      jump\t// in\n    tag_478:\n        /* \"#utility.yul\":15730:15803   */\n      swap3\n      pop\n        /* \"#utility.yul\":15524:15813   */\n      pop\n        /* \"#utility.yul\":15880:15883   */\n      0x0100\n        /* \"#utility.yul\":15869:15878   */\n      dup11\n        /* \"#utility.yul\":15865:15884   */\n      add\n        /* \"#utility.yul\":15852:15885   */\n      calldataload\n        /* \"#utility.yul\":15912:15930   */\n      0xffffffffffffffff\n        /* \"#utility.yul\":15904:15910   */\n      dup2\n        /* \"#utility.yul\":15901:15931   */\n      gt\n        /* \"#utility.yul\":15898:16015   */\n      iszero\n      tag_479\n      jumpi\n        /* \"#utility.yul\":15934:16013   */\n      tag_480\n      tag_269\n      jump\t// in\n    tag_480:\n        /* \"#utility.yul\":15898:16015   */\n    tag_479:\n        /* \"#utility.yul\":16039:16102   */\n      tag_481\n        /* \"#utility.yul\":16094:16101   */\n      dup13\n        /* \"#utility.yul\":16085:16091   */\n      dup3\n        /* \"#utility.yul\":16074:16083   */\n      dup14\n        /* \"#utility.yul\":16070:16092   */\n      add\n        /* \"#utility.yul\":16039:16102   */\n      tag_305\n      jump\t// in\n    tag_481:\n        /* \"#utility.yul\":16029:16102   */\n      swap2\n      pop\n        /* \"#utility.yul\":15823:16112   */\n      pop\n        /* \"#utility.yul\":13364:16119   */\n      swap3\n      swap6\n      swap9\n      pop\n      swap3\n      swap6\n      swap9\n      pop\n      swap3\n      swap6\n      swap9\n      jump\t// out\n        /* \"#utility.yul\":16125:16243   */\n    tag_306:\n        /* \"#utility.yul\":16212:16236   */\n      tag_483\n        /* \"#utility.yul\":16230:16235   */\n      dup2\n        /* \"#utility.yul\":16212:16236   */\n      tag_270\n      jump\t// in\n    tag_483:\n        /* \"#utility.yul\":16207:16210   */\n      dup3\n        /* \"#utility.yul\":16200:16237   */\n      mstore\n        /* \"#utility.yul\":16125:16243   */\n      pop\n      pop\n      jump\t// out\n        /* \"#utility.yul\":16249:16471   */\n    tag_43:\n        /* \"#utility.yul\":16342:16346   */\n      0x00\n        /* \"#utility.yul\":16380:16382   */\n      0x20\n        /* \"#utility.yul\":16369:16378   */\n      dup3\n        /* \"#utility.yul\":16365:16383   */\n      add\n        /* \"#utility.yul\":16357:16383   */\n      swap1\n      pop\n        /* \"#utility.yul\":16393:16464   */\n      tag_485\n        /* \"#utility.yul\":16461:16462   */\n      0x00\n        /* \"#utility.yul\":16450:16459   */\n      dup4\n        /* \"#utility.yul\":16446:16463   */\n      add\n        /* \"#utility.yul\":16437:16443   */\n      dup5\n        /* \"#utility.yul\":16393:16464   */\n      tag_306\n      jump\t// in\n    tag_485:\n        /* \"#utility.yul\":16249:16471   */\n      swap3\n      swap2\n      pop\n      pop\n      jump\t// out\n        /* \"#utility.yul\":16477:19086   */\n    tag_46:\n        /* \"#utility.yul\":16669:16675   */\n      0x00\n        /* \"#utility.yul\":16677:16683   */\n      dup1\n        /* \"#utility.yul\":16685:16691   */\n      0x00\n        /* \"#utility.yul\":16693:16699   */\n      dup1\n        /* \"#utility.yul\":16701:16707   */\n      0x00\n        /* \"#utility.yul\":16709:16715   */\n      dup1\n        /* \"#utility.yul\":16717:16723   */\n      0x00\n        /* \"#utility.yul\":16725:16731   */\n      dup1\n        /* \"#utility.yul\":16774:16777   */\n      0x0100\n        /* \"#utility.yul\":16762:16771   */\n      dup10\n        /* \"#utility.yul\":16753:16760   */\n      dup12\n        /* \"#utility.yul\":16749:16772   */\n      sub\n        /* \"#utility.yul\":16745:16778   */\n      slt\n        /* \"#utility.yul\":16742:16862   */\n      iszero\n      tag_487\n      jumpi\n        /* \"#utility.yul\":16781:16860   */\n      tag_488\n      tag_268\n      jump\t// in\n    tag_488:\n        /* \"#utility.yul\":16742:16862   */\n    tag_487:\n        /* \"#utility.yul\":16901:16902   */\n      0x00\n        /* \"#utility.yul\":16926:16979   */\n      tag_489\n        /* \"#utility.yul\":16971:16978   */\n      dup12\n        /* \"#utility.yul\":16962:16968   */\n      dup3\n        /* \"#utility.yul\":16951:16960   */\n      dup13\n        /* \"#utility.yul\":16947:16969   */\n      add\n        /* \"#utility.yul\":16926:16979   */\n      tag_290\n      jump\t// in\n    tag_489:\n        /* \"#utility.yul\":16916:16979   */\n      swap9\n      pop\n        /* \"#utility.yul\":16872:16989   */\n      pop\n        /* \"#utility.yul\":17056:17058   */\n      0x20\n        /* \"#utility.yul\":17045:17054   */\n      dup10\n        /* \"#utility.yul\":17041:17059   */\n      add\n        /* \"#utility.yul\":17028:17060   */\n      calldataload\n        /* \"#utility.yul\":17087:17105   */\n      0xffffffffffffffff\n        /* \"#utility.yul\":17079:17085   */\n      dup2\n        /* \"#utility.yul\":17076:17106   */\n      gt\n        /* \"#utility.yul\":17073:17190   */\n      iszero\n      tag_490\n      jumpi\n        /* \"#utility.yul\":17109:17188   */\n      tag_491\n      tag_269\n      jump\t// in\n    tag_491:\n        /* \"#utility.yul\":17073:17190   */\n    tag_490:\n        /* \"#utility.yul\":17214:17277   */\n      tag_492\n        /* \"#utility.yul\":17269:17276   */\n      dup12\n        /* \"#utility.yul\":17260:17266   */\n      dup3\n        /* \"#utility.yul\":17249:17258   */\n      dup13\n        /* \"#utility.yul\":17245:17267   */\n      add\n        /* \"#utility.yul\":17214:17277   */\n      tag_305\n      jump\t// in\n    tag_492:\n        /* \"#utility.yul\":17204:17277   */\n      swap8\n      pop\n        /* \"#utility.yul\":16999:17287   */\n      pop\n        /* \"#utility.yul\":17354:17356   */\n      0x40\n        /* \"#utility.yul\":17343:17352   */\n      dup10\n        /* \"#utility.yul\":17339:17357   */\n      add\n        /* \"#utility.yul\":17326:17358   */\n      calldataload\n        /* \"#utility.yul\":17385:17403   */\n      0xffffffffffffffff\n        /* \"#utility.yul\":17377:17383   */\n      dup2\n        /* \"#utility.yul\":17374:17404   */\n      gt\n        /* \"#utility.yul\":17371:17488   */\n      iszero\n      tag_493\n      jumpi\n        /* \"#utility.yul\":17407:17486   */\n      tag_494\n      tag_269\n      jump\t// in\n    tag_494:\n        /* \"#utility.yul\":17371:17488   */\n    tag_493:\n        /* \"#utility.yul\":17512:17575   */\n      tag_495\n        /* \"#utility.yul\":17567:17574   */\n      dup12\n        /* \"#utility.yul\":17558:17564   */\n      dup3\n        /* \"#utility.yul\":17547:17556   */\n      dup13\n        /* \"#utility.yul\":17543:17565   */\n      add\n        /* \"#utility.yul\":17512:17575   */\n      tag_305\n      jump\t// in\n    tag_495:\n        /* \"#utility.yul\":17502:17575   */\n      swap7\n      pop\n        /* \"#utility.yul\":17297:17585   */\n      pop\n        /* \"#utility.yul\":17652:17654   */\n      0x60\n        /* \"#utility.yul\":17641:17650   */\n      dup10\n        /* \"#utility.yul\":17637:17655   */\n      add\n        /* \"#utility.yul\":17624:17656   */\n      calldataload\n        /* \"#utility.yul\":17683:17701   */\n      0xffffffffffffffff\n        /* \"#utility.yul\":17675:17681   */\n      dup2\n        /* \"#utility.yul\":17672:17702   */\n      gt\n        /* \"#utility.yul\":17669:17786   */\n      iszero\n      tag_496\n      jumpi\n        /* \"#utility.yul\":17705:17784   */\n      tag_497\n      tag_269\n      jump\t// in\n    tag_497:\n        /* \"#utility.yul\":17669:17786   */\n    tag_496:\n        /* \"#utility.yul\":17810:17873   */\n      tag_498\n        /* \"#utility.yul\":17865:17872   */\n      dup12\n        /* \"#utility.yul\":17856:17862   */\n      dup3\n        /* \"#utility.yul\":17845:17854   */\n      dup13\n        /* \"#utility.yul\":17841:17863   */\n      add\n        /* \"#utility.yul\":17810:17873   */\n      tag_305\n      jump\t// in\n    tag_498:\n        /* \"#utility.yul\":17800:17873   */\n      swap6\n      pop\n        /* \"#utility.yul\":17595:17883   */\n      pop\n        /* \"#utility.yul\":17950:17953   */\n      0x80\n        /* \"#utility.yul\":17939:17948   */\n      dup10\n        /* \"#utility.yul\":17935:17954   */\n      add\n        /* \"#utility.yul\":17922:17955   */\n      calldataload\n        /* \"#utility.yul\":17982:18000   */\n      0xffffffffffffffff\n        /* \"#utility.yul\":17974:17980   */\n      dup2\n        /* \"#utility.yul\":17971:18001   */\n      gt\n        /* \"#utility.yul\":17968:18085   */\n      iszero\n      tag_499\n      jumpi\n        /* \"#utility.yul\":18004:18083   */\n      tag_500\n      tag_269\n      jump\t// in\n    tag_500:\n        /* \"#utility.yul\":17968:18085   */\n    tag_499:\n        /* \"#utility.yul\":18109:18172   */\n      tag_501\n        /* \"#utility.yul\":18164:18171   */\n      dup12\n        /* \"#utility.yul\":18155:18161   */\n      dup3\n        /* \"#utility.yul\":18144:18153   */\n      dup13\n        /* \"#utility.yul\":18140:18162   */\n      add\n        /* \"#utility.yul\":18109:18172   */\n      tag_305\n      jump\t// in\n    tag_501:\n        /* \"#utility.yul\":18099:18172   */\n      swap5\n      pop\n        /* \"#utility.yul\":17893:18182   */\n      pop\n        /* \"#utility.yul\":18249:18252   */\n      0xa0\n        /* \"#utility.yul\":18238:18247   */\n      dup10\n        /* \"#utility.yul\":18234:18253   */\n      add\n        /* \"#utility.yul\":18221:18254   */\n      calldataload\n        /* \"#utility.yul\":18281:18299   */\n      0xffffffffffffffff\n        /* \"#utility.yul\":18273:18279   */\n      dup2\n        /* \"#utility.yul\":18270:18300   */\n      gt\n        /* \"#utility.yul\":18267:18384   */\n      iszero\n      tag_502\n      jumpi\n        /* \"#utility.yul\":18303:18382   */\n      tag_503\n      tag_269\n      jump\t// in\n    tag_503:\n        /* \"#utility.yul\":18267:18384   */\n    tag_502:\n        /* \"#utility.yul\":18408:18471   */\n      tag_504\n        /* \"#utility.yul\":18463:18470   */\n      dup12\n        /* \"#utility.yul\":18454:18460   */\n      dup3\n        /* \"#utility.yul\":18443:18452   */\n      dup13\n        /* \"#utility.yul\":18439:18461   */\n      add\n        /* \"#utility.yul\":18408:18471   */\n      tag_305\n      jump\t// in\n    tag_504:\n        /* \"#utility.yul\":18398:18471   */\n      swap4\n      pop\n        /* \"#utility.yul\":18192:18481   */\n      pop\n        /* \"#utility.yul\":18548:18551   */\n      0xc0\n        /* \"#utility.yul\":18537:18546   */\n      dup10\n        /* \"#utility.yul\":18533:18552   */\n      add\n        /* \"#utility.yul\":18520:18553   */\n      calldataload\n        /* \"#utility.yul\":18580:18598   */\n      0xffffffffffffffff\n        /* \"#utility.yul\":18572:18578   */\n      dup2\n        /* \"#utility.yul\":18569:18599   */\n      gt\n        /* \"#utility.yul\":18566:18683   */\n      iszero\n      tag_505\n      jumpi\n        /* \"#utility.yul\":18602:18681   */\n      tag_506\n      tag_269\n      jump\t// in\n    tag_506:\n        /* \"#utility.yul\":18566:18683   */\n    tag_505:\n        /* \"#utility.yul\":18707:18770   */\n      tag_507\n        /* \"#utility.yul\":18762:18769   */\n      dup12\n        /* \"#utility.yul\":18753:18759   */\n      dup3\n        /* \"#utility.yul\":18742:18751   */\n      dup13\n        /* \"#utility.yul\":18738:18760   */\n      add\n        /* \"#utility.yul\":18707:18770   */\n      tag_305\n      jump\t// in\n    tag_507:\n        /* \"#utility.yul\":18697:18770   */\n      swap3\n      pop\n        /* \"#utility.yul\":18491:18780   */\n      pop\n        /* \"#utility.yul\":18847:18850   */\n      0xe0\n        /* \"#utility.yul\":18836:18845   */\n      dup10\n        /* \"#utility.yul\":18832:18851   */\n      add\n        /* \"#utility.yul\":18819:18852   */\n      calldataload\n        /* \"#utility.yul\":18879:18897   */\n      0xffffffffffffffff\n        /* \"#utility.yul\":18871:18877   */\n      dup2\n        /* \"#utility.yul\":18868:18898   */\n      gt\n        /* \"#utility.yul\":18865:18982   */\n      iszero\n      tag_508\n      jumpi\n        /* \"#utility.yul\":18901:18980   */\n      tag_509\n      tag_269\n      jump\t// in\n    tag_509:\n        /* \"#utility.yul\":18865:18982   */\n    tag_508:\n        /* \"#utility.yul\":19006:19069   */\n      tag_510\n        /* \"#utility.yul\":19061:19068   */\n      dup12\n        /* \"#utility.yul\":19052:19058   */\n      dup3\n        /* \"#utility.yul\":19041:19050   */\n      dup13\n        /* \"#utility.yul\":19037:19059   */\n      add\n        /* \"#utility.yul\":19006:19069   */\n      tag_305\n      jump\t// in\n    tag_510:\n        /* \"#utility.yul\":18996:19069   */\n      swap2\n      pop\n        /* \"#utility.yul\":18790:19079   */\n      pop\n        /* \"#utility.yul\":16477:19086   */\n      swap3\n      swap6\n      swap9\n      pop\n      swap3\n      swap6\n      swap9\n      swap1\n      swap4\n      swap7\n      pop\n      jump\t// out\n        /* \"#utility.yul\":19092:19182   */\n    tag_307:\n        /* \"#utility.yul\":19126:19133   */\n      0x00\n        /* \"#utility.yul\":19169:19174   */\n      dup2\n        /* \"#utility.yul\":19162:19175   */\n      iszero\n        /* \"#utility.yul\":19155:19176   */\n      iszero\n        /* \"#utility.yul\":19144:19176   */\n      swap1\n      pop\n        /* \"#utility.yul\":19092:19182   */\n      swap2\n      swap1\n      pop\n      jump\t// out\n        /* \"#utility.yul\":19188:19304   */\n    tag_308:\n        /* \"#utility.yul\":19258:19279   */\n      tag_513\n        /* \"#utility.yul\":19273:19278   */\n      dup2\n        /* \"#utility.yul\":19258:19279   */\n      tag_307\n      jump\t// in\n    tag_513:\n        /* \"#utility.yul\":19251:19256   */\n      dup2\n        /* \"#utility.yul\":19248:19280   */\n      eq\n        /* \"#utility.yul\":19238:19298   */\n      tag_514\n      jumpi\n        /* \"#utility.yul\":19294:19295   */\n      0x00\n        /* \"#utility.yul\":19291:19292   */\n      dup1\n        /* \"#utility.yul\":19284:19296   */\n      revert\n        /* \"#utility.yul\":19238:19298   */\n    tag_514:\n        /* \"#utility.yul\":19188:19304   */\n      pop\n      jump\t// out\n        /* \"#utility.yul\":19310:19447   */\n    tag_309:\n        /* \"#utility.yul\":19364:19369   */\n      0x00\n        /* \"#utility.yul\":19395:19401   */\n      dup2\n        /* \"#utility.yul\":19389:19402   */\n      mload\n        /* \"#utility.yul\":19380:19402   */\n      swap1\n      pop\n        /* \"#utility.yul\":19411:19441   */\n      tag_516\n        /* \"#utility.yul\":19435:19440   */\n      dup2\n        /* \"#utility.yul\":19411:19441   */\n      tag_308\n      jump\t// in\n    tag_516:\n        /* \"#utility.yul\":19310:19447   */\n      swap3\n      swap2\n      pop\n      pop\n      jump\t// out\n        /* \"#utility.yul\":19453:19798   */\n    tag_53:\n        /* \"#utility.yul\":19520:19526   */\n      0x00\n        /* \"#utility.yul\":19569:19571   */\n      0x20\n        /* \"#utility.yul\":19557:19566   */\n      dup3\n        /* \"#utility.yul\":19548:19555   */\n      dup5\n        /* \"#utility.yul\":19544:19567   */\n      sub\n        /* \"#utility.yul\":19540:19572   */\n      slt\n        /* \"#utility.yul\":19537:19656   */\n      iszero\n      tag_518\n      jumpi\n        /* \"#utility.yul\":19575:19654   */\n      tag_519\n      tag_268\n      jump\t// in\n    tag_519:\n        /* \"#utility.yul\":19537:19656   */\n    tag_518:\n        /* \"#utility.yul\":19695:19696   */\n      0x00\n        /* \"#utility.yul\":19720:19781   */\n      tag_520\n        /* \"#utility.yul\":19773:19780   */\n      dup5\n        /* \"#utility.yul\":19764:19770   */\n      dup3\n        /* \"#utility.yul\":19753:19762   */\n      dup6\n        /* \"#utility.yul\":19749:19771   */\n      add\n        /* \"#utility.yul\":19720:19781   */\n      tag_309\n      jump\t// in\n    tag_520:\n        /* \"#utility.yul\":19710:19781   */\n      swap2\n      pop\n        /* \"#utility.yul\":19666:19791   */\n      pop\n        /* \"#utility.yul\":19453:19798   */\n      swap3\n      swap2\n      pop\n      pop\n      jump\t// out\n        /* \"#utility.yul\":19804:20046   */\n    tag_310:\n        /* \"#utility.yul\":19944:19978   */\n      0x48616e79612061646d696e206174617520646f6b7465722079616e6720646969\n        /* \"#utility.yul\":19940:19941   */\n      0x00\n        /* \"#utility.yul\":19932:19938   */\n      dup3\n        /* \"#utility.yul\":19928:19942   */\n      add\n        /* \"#utility.yul\":19921:19979   */\n      mstore\n        /* \"#utility.yul\":20013:20038   */\n      0x7a696e6b616e20756e74756b206d656e67616b7365732e000000000000000000\n        /* \"#utility.yul\":20008:20010   */\n      0x20\n        /* \"#utility.yul\":20000:20006   */\n      dup3\n        /* \"#utility.yul\":19996:20011   */\n      add\n        /* \"#utility.yul\":19989:20039   */\n      mstore\n        /* \"#utility.yul\":19804:20046   */\n      pop\n      jump\t// out\n        /* \"#utility.yul\":20052:20418   */\n    tag_311:\n        /* \"#utility.yul\":20194:20197   */\n      0x00\n        /* \"#utility.yul\":20215:20282   */\n      tag_523\n        /* \"#utility.yul\":20279:20281   */\n      0x37\n        /* \"#utility.yul\":20274:20277   */\n      dup4\n        /* \"#utility.yul\":20215:20282   */\n      tag_291\n      jump\t// in\n    tag_523:\n        /* \"#utility.yul\":20208:20282   */\n      swap2\n      pop\n        /* \"#utility.yul\":20291:20384   */\n      tag_524\n        /* \"#utility.yul\":20380:20383   */\n      dup3\n        /* \"#utility.yul\":20291:20384   */\n      tag_310\n      jump\t// in\n    tag_524:\n        /* \"#utility.yul\":20409:20411   */\n      0x40\n        /* \"#utility.yul\":20404:20407   */\n      dup3\n        /* \"#utility.yul\":20400:20412   */\n      add\n        /* \"#utility.yul\":20393:20412   */\n      swap1\n      pop\n        /* \"#utility.yul\":20052:20418   */\n      swap2\n      swap1\n      pop\n      jump\t// out\n        /* \"#utility.yul\":20424:20843   */\n    tag_61:\n        /* \"#utility.yul\":20590:20594   */\n      0x00\n        /* \"#utility.yul\":20628:20630   */\n      0x20\n        /* \"#utility.yul\":20617:20626   */\n      dup3\n        /* \"#utility.yul\":20613:20631   */\n      add\n        /* \"#utility.yul\":20605:20631   */\n      swap1\n      pop\n        /* \"#utility.yul\":20677:20686   */\n      dup2\n        /* \"#utility.yul\":20671:20675   */\n      dup2\n        /* \"#utility.yul\":20667:20687   */\n      sub\n        /* \"#utility.yul\":20663:20664   */\n      0x00\n        /* \"#utility.yul\":20652:20661   */\n      dup4\n        /* \"#utility.yul\":20648:20665   */\n      add\n        /* \"#utility.yul\":20641:20688   */\n      mstore\n        /* \"#utility.yul\":20705:20836   */\n      tag_526\n        /* \"#utility.yul\":20831:20835   */\n      dup2\n        /* \"#utility.yul\":20705:20836   */\n      tag_311\n      jump\t// in\n    tag_526:\n        /* \"#utility.yul\":20697:20836   */\n      swap1\n      pop\n        /* \"#utility.yul\":20424:20843   */\n      swap2\n      swap1\n      pop\n      jump\t// out\n        /* \"#utility.yul\":20849:21029   */\n    tag_312:\n        /* \"#utility.yul\":20897:20974   */\n      0x4e487b7100000000000000000000000000000000000000000000000000000000\n        /* \"#utility.yul\":20894:20895   */\n      0x00\n        /* \"#utility.yul\":20887:20975   */\n      mstore\n        /* \"#utility.yul\":20994:20998   */\n      0x11\n        /* \"#utility.yul\":20991:20992   */\n      0x04\n        /* \"#utility.yul\":20984:20999   */\n      mstore\n        /* \"#utility.yul\":21018:21022   */\n      0x24\n        /* \"#utility.yul\":21015:21016   */\n      0x00\n        /* \"#utility.yul\":21008:21023   */\n      revert\n        /* \"#utility.yul\":21035:21445   */\n    tag_64:\n        /* \"#utility.yul\":21075:21082   */\n      0x00\n        /* \"#utility.yul\":21098:21118   */\n      tag_529\n        /* \"#utility.yul\":21116:21117   */\n      dup3\n        /* \"#utility.yul\":21098:21118   */\n      tag_270\n      jump\t// in\n    tag_529:\n        /* \"#utility.yul\":21093:21118   */\n      swap2\n      pop\n        /* \"#utility.yul\":21132:21152   */\n      tag_530\n        /* \"#utility.yul\":21150:21151   */\n      dup4\n        /* \"#utility.yul\":21132:21152   */\n      tag_270\n      jump\t// in\n    tag_530:\n        /* \"#utility.yul\":21127:21152   */\n      swap3\n      pop\n        /* \"#utility.yul\":21187:21188   */\n      dup3\n        /* \"#utility.yul\":21184:21185   */\n      dup3\n        /* \"#utility.yul\":21180:21189   */\n      mul\n        /* \"#utility.yul\":21209:21239   */\n      tag_531\n        /* \"#utility.yul\":21227:21238   */\n      dup2\n        /* \"#utility.yul\":21209:21239   */\n      tag_270\n      jump\t// in\n    tag_531:\n        /* \"#utility.yul\":21198:21239   */\n      swap2\n      pop\n        /* \"#utility.yul\":21388:21389   */\n      dup3\n        /* \"#utility.yul\":21379:21386   */\n      dup3\n        /* \"#utility.yul\":21375:21390   */\n      div\n        /* \"#utility.yul\":21372:21373   */\n      dup5\n        /* \"#utility.yul\":21369:21391   */\n      eq\n        /* \"#utility.yul\":21349:21350   */\n      dup4\n        /* \"#utility.yul\":21342:21351   */\n      iszero\n        /* \"#utility.yul\":21322:21405   */\n      or\n        /* \"#utility.yul\":21299:21438   */\n      tag_532\n      jumpi\n        /* \"#utility.yul\":21418:21436   */\n      tag_533\n      tag_312\n      jump\t// in\n    tag_533:\n        /* \"#utility.yul\":21299:21438   */\n    tag_532:\n        /* \"#utility.yul\":21083:21445   */\n      pop\n        /* \"#utility.yul\":21035:21445   */\n      swap3\n      swap2\n      pop\n      pop\n      jump\t// out\n        /* \"#utility.yul\":21451:21631   */\n    tag_77:\n        /* \"#utility.yul\":21499:21576   */\n      0x4e487b7100000000000000000000000000000000000000000000000000000000\n        /* \"#utility.yul\":21496:21497   */\n      0x00\n        /* \"#utility.yul\":21489:21577   */\n      mstore\n        /* \"#utility.yul\":21596:21600   */\n      0x32\n        /* \"#utility.yul\":21593:21594   */\n      0x04\n        /* \"#utility.yul\":21586:21601   */\n      mstore\n        /* \"#utility.yul\":21620:21624   */\n      0x24\n        /* \"#utility.yul\":21617:21618   */\n      0x00\n        /* \"#utility.yul\":21610:21625   */\n      revert\n        /* \"#utility.yul\":21637:21817   */\n    tag_313:\n        /* \"#utility.yul\":21685:21762   */\n      0x4e487b7100000000000000000000000000000000000000000000000000000000\n        /* \"#utility.yul\":21682:21683   */\n      0x00\n        /* \"#utility.yul\":21675:21763   */\n      mstore\n        /* \"#utility.yul\":21782:21786   */\n      0x22\n        /* \"#utility.yul\":21779:21780   */\n      0x04\n        /* \"#utility.yul\":21772:21787   */\n      mstore\n        /* \"#utility.yul\":21806:21810   */\n      0x24\n        /* \"#utility.yul\":21803:21804   */\n      0x00\n        /* \"#utility.yul\":21796:21811   */\n      revert\n        /* \"#utility.yul\":21823:22143   */\n    tag_83:\n        /* \"#utility.yul\":21867:21873   */\n      0x00\n        /* \"#utility.yul\":21904:21905   */\n      0x02\n        /* \"#utility.yul\":21898:21902   */\n      dup3\n        /* \"#utility.yul\":21894:21906   */\n      div\n        /* \"#utility.yul\":21884:21906   */\n      swap1\n      pop\n        /* \"#utility.yul\":21951:21952   */\n      0x01\n        /* \"#utility.yul\":21945:21949   */\n      dup3\n        /* \"#utility.yul\":21941:21953   */\n      and\n        /* \"#utility.yul\":21972:21990   */\n      dup1\n        /* \"#utility.yul\":21962:22043   */\n      tag_537\n      jumpi\n        /* \"#utility.yul\":22028:22032   */\n      0x7f\n        /* \"#utility.yul\":22020:22026   */\n      dup3\n        /* \"#utility.yul\":22016:22033   */\n      and\n        /* \"#utility.yul\":22006:22033   */\n      swap2\n      pop\n        /* \"#utility.yul\":21962:22043   */\n    tag_537:\n        /* \"#utility.yul\":22090:22092   */\n      0x20\n        /* \"#utility.yul\":22082:22088   */\n      dup3\n        /* \"#utility.yul\":22079:22093   */\n      lt\n        /* \"#utility.yul\":22059:22077   */\n      dup2\n        /* \"#utility.yul\":22056:22094   */\n      sub\n        /* \"#utility.yul\":22053:22137   */\n      tag_538\n      jumpi\n        /* \"#utility.yul\":22109:22127   */\n      tag_539\n      tag_313\n      jump\t// in\n    tag_539:\n        /* \"#utility.yul\":22053:22137   */\n    tag_538:\n        /* \"#utility.yul\":21874:22143   */\n      pop\n        /* \"#utility.yul\":21823:22143   */\n      swap2\n      swap1\n      pop\n      jump\t// out\n        /* \"#utility.yul\":22149:22382   */\n    tag_128:\n        /* \"#utility.yul\":22188:22191   */\n      0x00\n        /* \"#utility.yul\":22211:22235   */\n      tag_541\n        /* \"#utility.yul\":22229:22234   */\n      dup3\n        /* \"#utility.yul\":22211:22235   */\n      tag_270\n      jump\t// in\n    tag_541:\n        /* \"#utility.yul\":22202:22235   */\n      swap2\n      pop\n        /* \"#utility.yul\":22257:22323   */\n      0xffffffffffffffffffffffffffffffffffffffffffffffffffffffffffffffff\n        /* \"#utility.yul\":22250:22255   */\n      dup3\n        /* \"#utility.yul\":22247:22324   */\n      sub\n        /* \"#utility.yul\":22244:22347   */\n      tag_542\n      jumpi\n        /* \"#utility.yul\":22327:22345   */\n      tag_543\n      tag_312\n      jump\t// in\n    tag_543:\n        /* \"#utility.yul\":22244:22347   */\n    tag_542:\n        /* \"#utility.yul\":22374:22375   */\n      0x01\n        /* \"#utility.yul\":22367:22372   */\n      dup3\n        /* \"#utility.yul\":22363:22376   */\n      add\n        /* \"#utility.yul\":22356:22376   */\n      swap1\n      pop\n        /* \"#utility.yul\":22149:22382   */\n      swap2\n      swap1\n      pop\n      jump\t// out\n        /* \"#utility.yul\":22388:22565   */\n    tag_314:\n        /* \"#utility.yul\":22528:22557   */\n      0x436f6e73756c746174696f6e2064617461206e6f7420666f756e640000000000\n        /* \"#utility.yul\":22524:22525   */\n      0x00\n        /* \"#utility.yul\":22516:22522   */\n      dup3\n        /* \"#utility.yul\":22512:22526   */\n      add\n        /* \"#utility.yul\":22505:22558   */\n      mstore\n        /* \"#utility.yul\":22388:22565   */\n      pop\n      jump\t// out\n        /* \"#utility.yul\":22571:22937   */\n    tag_315:\n        /* \"#utility.yul\":22713:22716   */\n      0x00\n        /* \"#utility.yul\":22734:22801   */\n      tag_546\n        /* \"#utility.yul\":22798:22800   */\n      0x1b\n        /* \"#utility.yul\":22793:22796   */\n      dup4\n        /* \"#utility.yul\":22734:22801   */\n      tag_291\n      jump\t// in\n    tag_546:\n        /* \"#utility.yul\":22727:22801   */\n      swap2\n      pop\n        /* \"#utility.yul\":22810:22903   */\n      tag_547\n        /* \"#utility.yul\":22899:22902   */\n      dup3\n        /* \"#utility.yul\":22810:22903   */\n      tag_314\n      jump\t// in\n    tag_547:\n        /* \"#utility.yul\":22928:22930   */\n      0x20\n        /* \"#utility.yul\":22923:22926   */\n      dup3\n        /* \"#utility.yul\":22919:22931   */\n      add\n        /* \"#utility.yul\":22912:22931   */\n      swap1\n      pop\n        /* \"#utility.yul\":22571:22937   */\n      swap2\n      swap1\n      pop\n      jump\t// out\n        /* \"#utility.yul\":22943:23362   */\n    tag_185:\n        /* \"#utility.yul\":23109:23113   */\n      0x00\n        /* \"#utility.yul\":23147:23149   */\n      0x20\n        /* \"#utility.yul\":23136:23145   */\n      dup3\n        /* \"#utility.yul\":23132:23150   */\n      add\n        /* \"#utility.yul\":23124:23150   */\n      swap1\n      pop\n        /* \"#utility.yul\":23196:23205   */\n      dup2\n        /* \"#utility.yul\":23190:23194   */\n      dup2\n        /* \"#utility.yul\":23186:23206   */\n      sub\n        /* \"#utility.yul\":23182:23183   */\n      0x00\n        /* \"#utility.yul\":23171:23180   */\n      dup4\n        /* \"#utility.yul\":23167:23184   */\n      add\n        /* \"#utility.yul\":23160:23207   */\n      mstore\n        /* \"#utility.yul\":23224:23355   */\n      tag_549\n        /* \"#utility.yul\":23350:23354   */\n      dup2\n        /* \"#utility.yul\":23224:23355   */\n      tag_315\n      jump\t// in\n    tag_549:\n        /* \"#utility.yul\":23216:23355   */\n      swap1\n      pop\n        /* \"#utility.yul\":22943:23362   */\n      swap2\n      swap1\n      pop\n      jump\t// out\n        /* \"#utility.yul\":23368:23509   */\n    tag_316:\n        /* \"#utility.yul\":23417:23421   */\n      0x00\n        /* \"#utility.yul\":23440:23443   */\n      dup2\n        /* \"#utility.yul\":23432:23443   */\n      swap1\n      pop\n        /* \"#utility.yul\":23463:23466   */\n      dup2\n        /* \"#utility.yul\":23460:23461   */\n      0x00\n        /* \"#utility.yul\":23453:23467   */\n      mstore\n        /* \"#utility.yul\":23497:23501   */\n      0x20\n        /* \"#utility.yul\":23494:23495   */\n      0x00\n        /* \"#utility.yul\":23484:23502   */\n      keccak256\n        /* \"#utility.yul\":23476:23502   */\n      swap1\n      pop\n        /* \"#utility.yul\":23368:23509   */\n      swap2\n      swap1\n      pop\n      jump\t// out\n        /* \"#utility.yul\":23515:23608   */\n    tag_317:\n        /* \"#utility.yul\":23552:23558   */\n      0x00\n        /* \"#utility.yul\":23599:23601   */\n      0x20\n        /* \"#utility.yul\":23594:23596   */\n      0x1f\n        /* \"#utility.yul\":23587:23592   */\n      dup4\n        /* \"#utility.yul\":23583:23597   */\n      add\n        /* \"#utility.yul\":23579:23602   */\n      div\n        /* \"#utility.yul\":23569:23602   */\n      swap1\n      pop\n        /* \"#utility.yul\":23515:23608   */\n      swap2\n      swap1\n      pop\n      jump\t// out\n        /* \"#utility.yul\":23614:23721   */\n    tag_318:\n        /* \"#utility.yul\":23658:23666   */\n      0x00\n        /* \"#utility.yul\":23708:23713   */\n      dup3\n        /* \"#utility.yul\":23702:23706   */\n      dup3\n        /* \"#utility.yul\":23698:23714   */\n      shl\n        /* \"#utility.yul\":23677:23714   */\n      swap1\n      pop\n        /* \"#utility.yul\":23614:23721   */\n      swap3\n      swap2\n      pop\n      pop\n      jump\t// out\n        /* \"#utility.yul\":23727:24120   */\n    tag_319:\n        /* \"#utility.yul\":23796:23802   */\n      0x00\n        /* \"#utility.yul\":23846:23847   */\n      0x08\n        /* \"#utility.yul\":23834:23844   */\n      dup4\n        /* \"#utility.yul\":23830:23848   */\n      mul\n        /* \"#utility.yul\":23869:23966   */\n      tag_554\n        /* \"#utility.yul\":23899:23965   */\n      0xffffffffffffffffffffffffffffffffffffffffffffffffffffffffffffffff\n        /* \"#utility.yul\":23888:23897   */\n      dup3\n        /* \"#utility.yul\":23869:23966   */\n      tag_318\n      jump\t// in\n    tag_554:\n        /* \"#utility.yul\":23987:24026   */\n      tag_555\n        /* \"#utility.yul\":24017:24025   */\n      dup7\n        /* \"#utility.yul\":24006:24015   */\n      dup4\n        /* \"#utility.yul\":23987:24026   */\n      tag_318\n      jump\t// in\n    tag_555:\n        /* \"#utility.yul\":23975:24026   */\n      swap6\n      pop\n        /* \"#utility.yul\":24059:24063   */\n      dup1\n        /* \"#utility.yul\":24055:24064   */\n      not\n        /* \"#utility.yul\":24048:24053   */\n      dup5\n        /* \"#utility.yul\":24044:24065   */\n      and\n        /* \"#utility.yul\":24035:24065   */\n      swap4\n      pop\n        /* \"#utility.yul\":24108:24112   */\n      dup1\n        /* \"#utility.yul\":24098:24106   */\n      dup7\n        /* \"#utility.yul\":24094:24113   */\n      and\n        /* \"#utility.yul\":24087:24092   */\n      dup5\n        /* \"#utility.yul\":24084:24114   */\n      or\n        /* \"#utility.yul\":24074:24114   */\n      swap3\n      pop\n        /* \"#utility.yul\":23803:24120   */\n      pop\n      pop\n        /* \"#utility.yul\":23727:24120   */\n      swap4\n      swap3\n      pop\n      pop\n      pop\n      jump\t// out\n        /* \"#utility.yul\":24126:24268   */\n    tag_320:\n        /* \"#utility.yul\":24176:24185   */\n      0x00\n        /* \"#utility.yul\":24209:24262   */\n      tag_557\n        /* \"#utility.yul\":24227:24261   */\n      tag_558\n        /* \"#utility.yul\":24236:24260   */\n      tag_559\n        /* \"#utility.yul\":24254:24259   */\n      dup5\n        /* \"#utility.yul\":24236:24260   */\n      tag_270\n      jump\t// in\n    tag_559:\n        /* \"#utility.yul\":24227:24261   */\n      tag_293\n      jump\t// in\n    tag_558:\n        /* \"#utility.yul\":24209:24262   */\n      tag_270\n      jump\t// in\n    tag_557:\n        /* \"#utility.yul\":24196:24262   */\n      swap1\n      pop\n        /* \"#utility.yul\":24126:24268   */\n      swap2\n      swap1\n      pop\n      jump\t// out\n        /* \"#utility.yul\":24274:24349   */\n    tag_321:\n        /* \"#utility.yul\":24317:24320   */\n      0x00\n        /* \"#utility.yul\":24338:24343   */\n      dup2\n        /* \"#utility.yul\":24331:24343   */\n      swap1\n      pop\n        /* \"#utility.yul\":24274:24349   */\n      swap2\n      swap1\n      pop\n      jump\t// out\n        /* \"#utility.yul\":24355:24624   */\n    tag_322:\n        /* \"#utility.yul\":24465:24504   */\n      tag_562\n        /* \"#utility.yul\":24496:24503   */\n      dup4\n        /* \"#utility.yul\":24465:24504   */\n      tag_320\n      jump\t// in\n    tag_562:\n        /* \"#utility.yul\":24526:24617   */\n      tag_563\n        /* \"#utility.yul\":24575:24616   */\n      tag_564\n        /* \"#utility.yul\":24599:24615   */\n      dup3\n        /* \"#utility.yul\":24575:24616   */\n      tag_321\n      jump\t// in\n    tag_564:\n        /* \"#utility.yul\":24567:24573   */\n      dup5\n        /* \"#utility.yul\":24560:24564   */\n      dup5\n        /* \"#utility.yul\":24554:24565   */\n      sload\n        /* \"#utility.yul\":24526:24617   */\n      tag_319\n      jump\t// in\n    tag_563:\n        /* \"#utility.yul\":24520:24524   */\n      dup3\n        /* \"#utility.yul\":24513:24618   */\n      sstore\n        /* \"#utility.yul\":24431:24624   */\n      pop\n        /* \"#utility.yul\":24355:24624   */\n      pop\n      pop\n      pop\n      jump\t// out\n        /* \"#utility.yul\":24630:24703   */\n    tag_323:\n        /* \"#utility.yul\":24675:24678   */\n      0x00\n        /* \"#utility.yul\":24630:24703   */\n      swap1\n      jump\t// out\n        /* \"#utility.yul\":24709:24898   */\n    tag_324:\n        /* \"#utility.yul\":24786:24818   */\n      tag_567\n      tag_323\n      jump\t// in\n    tag_567:\n        /* \"#utility.yul\":24827:24892   */\n      tag_568\n        /* \"#utility.yul\":24885:24891   */\n      dup2\n        /* \"#utility.yul\":24877:24883   */\n      dup5\n        /* \"#utility.yul\":24871:24875   */\n      dup5\n        /* \"#utility.yul\":24827:24892   */\n      tag_322\n      jump\t// in\n    tag_568:\n        /* \"#utility.yul\":24762:24898   */\n      pop\n        /* \"#utility.yul\":24709:24898   */\n      pop\n      pop\n      jump\t// out\n        /* \"#utility.yul\":24904:25090   */\n    tag_325:\n        /* \"#utility.yul\":24964:25084   */\n    tag_570:\n        /* \"#utility.yul\":24981:24984   */\n      dup2\n        /* \"#utility.yul\":24974:24979   */\n      dup2\n        /* \"#utility.yul\":24971:24985   */\n      lt\n        /* \"#utility.yul\":24964:25084   */\n      iszero\n      tag_572\n      jumpi\n        /* \"#utility.yul\":25035:25074   */\n      tag_573\n        /* \"#utility.yul\":25072:25073   */\n      0x00\n        /* \"#utility.yul\":25065:25070   */\n      dup3\n        /* \"#utility.yul\":25035:25074   */\n      tag_324\n      jump\t// in\n    tag_573:\n        /* \"#utility.yul\":25008:25009   */\n      0x01\n        /* \"#utility.yul\":25001:25006   */\n      dup2\n        /* \"#utility.yul\":24997:25010   */\n      add\n        /* \"#utility.yul\":24988:25010   */\n      swap1\n      pop\n        /* \"#utility.yul\":24964:25084   */\n      jump(tag_570)\n    tag_572:\n        /* \"#utility.yul\":24904:25090   */\n      pop\n      pop\n      jump\t// out\n        /* \"#utility.yul\":25096:25639   */\n    tag_326:\n        /* \"#utility.yul\":25197:25199   */\n      0x1f\n        /* \"#utility.yul\":25192:25195   */\n      dup3\n        /* \"#utility.yul\":25189:25200   */\n      gt\n        /* \"#utility.yul\":25186:25632   */\n      iszero\n      tag_575\n      jumpi\n        /* \"#utility.yul\":25231:25269   */\n      tag_576\n        /* \"#utility.yul\":25263:25268   */\n      dup2\n        /* \"#utility.yul\":25231:25269   */\n      tag_316\n      jump\t// in\n    tag_576:\n        /* \"#utility.yul\":25315:25344   */\n      tag_577\n        /* \"#utility.yul\":25333:25343   */\n      dup5\n        /* \"#utility.yul\":25315:25344   */\n      tag_317\n      jump\t// in\n    tag_577:\n        /* \"#utility.yul\":25305:25313   */\n      dup2\n        /* \"#utility.yul\":25301:25345   */\n      add\n        /* \"#utility.yul\":25498:25500   */\n      0x20\n        /* \"#utility.yul\":25486:25496   */\n      dup6\n        /* \"#utility.yul\":25483:25501   */\n      lt\n        /* \"#utility.yul\":25480:25529   */\n      iszero\n      tag_578\n      jumpi\n        /* \"#utility.yul\":25519:25527   */\n      dup2\n        /* \"#utility.yul\":25504:25527   */\n      swap1\n      pop\n        /* \"#utility.yul\":25480:25529   */\n    tag_578:\n        /* \"#utility.yul\":25542:25622   */\n      tag_579\n        /* \"#utility.yul\":25598:25620   */\n      tag_580\n        /* \"#utility.yul\":25616:25619   */\n      dup6\n        /* \"#utility.yul\":25598:25620   */\n      tag_317\n      jump\t// in\n    tag_580:\n        /* \"#utility.yul\":25588:25596   */\n      dup4\n        /* \"#utility.yul\":25584:25621   */\n      add\n        /* \"#utility.yul\":25571:25582   */\n      dup3\n        /* \"#utility.yul\":25542:25622   */\n      tag_325\n      jump\t// in\n    tag_579:\n        /* \"#utility.yul\":25201:25632   */\n      pop\n      pop\n        /* \"#utility.yul\":25186:25632   */\n    tag_575:\n        /* \"#utility.yul\":25096:25639   */\n      pop\n      pop\n      pop\n      jump\t// out\n        /* \"#utility.yul\":25645:25762   */\n    tag_327:\n        /* \"#utility.yul\":25699:25707   */\n      0x00\n        /* \"#utility.yul\":25749:25754   */\n      dup3\n        /* \"#utility.yul\":25743:25747   */\n      dup3\n        /* \"#utility.yul\":25739:25755   */\n      shr\n        /* \"#utility.yul\":25718:25755   */\n      swap1\n      pop\n        /* \"#utility.yul\":25645:25762   */\n      swap3\n      swap2\n      pop\n      pop\n      jump\t// out\n        /* \"#utility.yul\":25768:25937   */\n    tag_328:\n        /* \"#utility.yul\":25812:25818   */\n      0x00\n        /* \"#utility.yul\":25845:25896   */\n      tag_583\n        /* \"#utility.yul\":25893:25894   */\n      0x00\n        /* \"#utility.yul\":25889:25895   */\n      not\n        /* \"#utility.yul\":25881:25886   */\n      dup5\n        /* \"#utility.yul\":25878:25879   */\n      0x08\n        /* \"#utility.yul\":25874:25887   */\n      mul\n        /* \"#utility.yul\":25845:25896   */\n      tag_327\n      jump\t// in\n    tag_583:\n        /* \"#utility.yul\":25841:25897   */\n      not\n        /* \"#utility.yul\":25926:25930   */\n      dup1\n        /* \"#utility.yul\":25920:25924   */\n      dup4\n        /* \"#utility.yul\":25916:25931   */\n      and\n        /* \"#utility.yul\":25906:25931   */\n      swap2\n      pop\n        /* \"#utility.yul\":25819:25937   */\n      pop\n        /* \"#utility.yul\":25768:25937   */\n      swap3\n      swap2\n      pop\n      pop\n      jump\t// out\n        /* \"#utility.yul\":25942:26237   */\n    tag_329:\n        /* \"#utility.yul\":26018:26022   */\n      0x00\n        /* \"#utility.yul\":26164:26193   */\n      tag_585\n        /* \"#utility.yul\":26189:26192   */\n      dup4\n        /* \"#utility.yul\":26183:26187   */\n      dup4\n        /* \"#utility.yul\":26164:26193   */\n      tag_328\n      jump\t// in\n    tag_585:\n        /* \"#utility.yul\":26156:26193   */\n      swap2\n      pop\n        /* \"#utility.yul\":26226:26229   */\n      dup3\n        /* \"#utility.yul\":26223:26224   */\n      0x02\n        /* \"#utility.yul\":26219:26230   */\n      mul\n        /* \"#utility.yul\":26213:26217   */\n      dup3\n        /* \"#utility.yul\":26210:26231   */\n      or\n        /* \"#utility.yul\":26202:26231   */\n      swap1\n      pop\n        /* \"#utility.yul\":25942:26237   */\n      swap3\n      swap2\n      pop\n      pop\n      jump\t// out\n        /* \"#utility.yul\":26242:27637   */\n    tag_190:\n        /* \"#utility.yul\":26359:26396   */\n      tag_587\n        /* \"#utility.yul\":26392:26395   */\n      dup3\n        /* \"#utility.yul\":26359:26396   */\n      tag_276\n      jump\t// in\n    tag_587:\n        /* \"#utility.yul\":26461:26479   */\n      0xffffffffffffffff\n        /* \"#utility.yul\":26453:26459   */\n      dup2\n        /* \"#utility.yul\":26450:26480   */\n      gt\n        /* \"#utility.yul\":26447:26503   */\n      iszero\n      tag_588\n      jumpi\n        /* \"#utility.yul\":26483:26501   */\n      tag_589\n      tag_67\n      jump\t// in\n    tag_589:\n        /* \"#utility.yul\":26447:26503   */\n    tag_588:\n        /* \"#utility.yul\":26527:26565   */\n      tag_590\n        /* \"#utility.yul\":26559:26563   */\n      dup3\n        /* \"#utility.yul\":26553:26564   */\n      sload\n        /* \"#utility.yul\":26527:26565   */\n      tag_83\n      jump\t// in\n    tag_590:\n        /* \"#utility.yul\":26612:26679   */\n      tag_591\n        /* \"#utility.yul\":26672:26678   */\n      dup3\n        /* \"#utility.yul\":26664:26670   */\n      dup3\n        /* \"#utility.yul\":26658:26662   */\n      dup6\n        /* \"#utility.yul\":26612:26679   */\n      tag_326\n      jump\t// in\n    tag_591:\n        /* \"#utility.yul\":26706:26707   */\n      0x00\n        /* \"#utility.yul\":26730:26734   */\n      0x20\n        /* \"#utility.yul\":26717:26734   */\n      swap1\n      pop\n        /* \"#utility.yul\":26762:26764   */\n      0x1f\n        /* \"#utility.yul\":26754:26760   */\n      dup4\n        /* \"#utility.yul\":26751:26765   */\n      gt\n        /* \"#utility.yul\":26779:26780   */\n      0x01\n        /* \"#utility.yul\":26774:27392   */\n      dup2\n      eq\n      tag_593\n      jumpi\n        /* \"#utility.yul\":27436:27437   */\n      0x00\n        /* \"#utility.yul\":27453:27459   */\n      dup5\n        /* \"#utility.yul\":27450:27527   */\n      iszero\n      tag_594\n      jumpi\n        /* \"#utility.yul\":27502:27511   */\n      dup3\n        /* \"#utility.yul\":27497:27500   */\n      dup8\n        /* \"#utility.yul\":27493:27512   */\n      add\n        /* \"#utility.yul\":27487:27513   */\n      mload\n        /* \"#utility.yul\":27478:27513   */\n      swap1\n      pop\n        /* \"#utility.yul\":27450:27527   */\n    tag_594:\n        /* \"#utility.yul\":27553:27620   */\n      tag_595\n        /* \"#utility.yul\":27613:27619   */\n      dup6\n        /* \"#utility.yul\":27606:27611   */\n      dup3\n        /* \"#utility.yul\":27553:27620   */\n      tag_329\n      jump\t// in\n    tag_595:\n        /* \"#utility.yul\":27547:27551   */\n      dup7\n        /* \"#utility.yul\":27540:27621   */\n      sstore\n        /* \"#utility.yul\":27409:27631   */\n      pop\n        /* \"#utility.yul\":26744:27631   */\n      jump(tag_592)\n        /* \"#utility.yul\":26774:27392   */\n    tag_593:\n        /* \"#utility.yul\":26826:26830   */\n      0x1f\n        /* \"#utility.yul\":26822:26831   */\n      not\n        /* \"#utility.yul\":26814:26820   */\n      dup5\n        /* \"#utility.yul\":26810:26832   */\n      and\n        /* \"#utility.yul\":26860:26897   */\n      tag_596\n        /* \"#utility.yul\":26892:26896   */\n      dup7\n        /* \"#utility.yul\":26860:26897   */\n      tag_316\n      jump\t// in\n    tag_596:\n        /* \"#utility.yul\":26919:26920   */\n      0x00\n        /* \"#utility.yul\":26933:27141   */\n    tag_597:\n        /* \"#utility.yul\":26947:26954   */\n      dup3\n        /* \"#utility.yul\":26944:26945   */\n      dup2\n        /* \"#utility.yul\":26941:26955   */\n      lt\n        /* \"#utility.yul\":26933:27141   */\n      iszero\n      tag_599\n      jumpi\n        /* \"#utility.yul\":27026:27035   */\n      dup5\n        /* \"#utility.yul\":27021:27024   */\n      dup10\n        /* \"#utility.yul\":27017:27036   */\n      add\n        /* \"#utility.yul\":27011:27037   */\n      mload\n        /* \"#utility.yul\":27003:27009   */\n      dup3\n        /* \"#utility.yul\":26996:27038   */\n      sstore\n        /* \"#utility.yul\":27077:27078   */\n      0x01\n        /* \"#utility.yul\":27069:27075   */\n      dup3\n        /* \"#utility.yul\":27065:27079   */\n      add\n        /* \"#utility.yul\":27055:27079   */\n      swap2\n      pop\n        /* \"#utility.yul\":27124:27126   */\n      0x20\n        /* \"#utility.yul\":27113:27122   */\n      dup6\n        /* \"#utility.yul\":27109:27127   */\n      add\n        /* \"#utility.yul\":27096:27127   */\n      swap5\n      pop\n        /* \"#utility.yul\":26970:26974   */\n      0x20\n        /* \"#utility.yul\":26967:26968   */\n      dup2\n        /* \"#utility.yul\":26963:26975   */\n      add\n        /* \"#utility.yul\":26958:26975   */\n      swap1\n      pop\n        /* \"#utility.yul\":26933:27141   */\n      jump(tag_597)\n    tag_599:\n        /* \"#utility.yul\":27169:27175   */\n      dup7\n        /* \"#utility.yul\":27160:27167   */\n      dup4\n        /* \"#utility.yul\":27157:27176   */\n      lt\n        /* \"#utility.yul\":27154:27333   */\n      iszero\n      tag_600\n      jumpi\n        /* \"#utility.yul\":27227:27236   */\n      dup5\n        /* \"#utility.yul\":27222:27225   */\n      dup10\n        /* \"#utility.yul\":27218:27237   */\n      add\n        /* \"#utility.yul\":27212:27238   */\n      mload\n        /* \"#utility.yul\":27270:27318   */\n      tag_601\n        /* \"#utility.yul\":27312:27316   */\n      0x1f\n        /* \"#utility.yul\":27304:27310   */\n      dup10\n        /* \"#utility.yul\":27300:27317   */\n      and\n        /* \"#utility.yul\":27289:27298   */\n      dup3\n        /* \"#utility.yul\":27270:27318   */\n      tag_328\n      jump\t// in\n    tag_601:\n        /* \"#utility.yul\":27262:27268   */\n      dup4\n        /* \"#utility.yul\":27255:27319   */\n      sstore\n        /* \"#utility.yul\":27177:27333   */\n      pop\n        /* \"#utility.yul\":27154:27333   */\n    tag_600:\n        /* \"#utility.yul\":27379:27380   */\n      0x01\n        /* \"#utility.yul\":27375:27376   */\n      0x02\n        /* \"#utility.yul\":27367:27373   */\n      dup9\n        /* \"#utility.yul\":27363:27377   */\n      mul\n        /* \"#utility.yul\":27359:27381   */\n      add\n        /* \"#utility.yul\":27353:27357   */\n      dup9\n        /* \"#utility.yul\":27346:27382   */\n      sstore\n        /* \"#utility.yul\":26781:27392   */\n      pop\n      pop\n      pop\n        /* \"#utility.yul\":26744:27631   */\n    tag_592:\n      pop\n        /* \"#utility.yul\":26334:27637   */\n      pop\n      pop\n      pop\n        /* \"#utility.yul\":26242:27637   */\n      pop\n      pop\n      jump\t// out\n        /* \"#utility.yul\":27643:27873   */\n    tag_330:\n        /* \"#utility.yul\":27783:27817   */\n      0x48616e79612070617369656e2079616e67206469697a696e6b616e20756e7475\n        /* \"#utility.yul\":27779:27780   */\n      0x00\n        /* \"#utility.yul\":27771:27777   */\n      dup3\n        /* \"#utility.yul\":27767:27781   */\n      add\n        /* \"#utility.yul\":27760:27818   */\n      mstore\n        /* \"#utility.yul\":27852:27865   */\n      0x6b206d656e67616b736573000000000000000000000000000000000000000000\n        /* \"#utility.yul\":27847:27849   */\n      0x20\n        /* \"#utility.yul\":27839:27845   */\n      dup3\n        /* \"#utility.yul\":27835:27850   */\n      add\n        /* \"#utility.yul\":27828:27866   */\n      mstore\n        /* \"#utility.yul\":27643:27873   */\n      pop\n      jump\t// out\n        /* \"#utility.yul\":27879:28245   */\n    tag_331:\n        /* \"#utility.yul\":28021:28024   */\n      0x00\n        /* \"#utility.yul\":28042:28109   */\n      tag_604\n        /* \"#utility.yul\":28106:28108   */\n      0x2b\n        /* \"#utility.yul\":28101:28104   */\n      dup4\n        /* \"#utility.yul\":28042:28109   */\n      tag_291\n      jump\t// in\n    tag_604:\n        /* \"#utility.yul\":28035:28109   */\n      swap2\n      pop\n        /* \"#utility.yul\":28118:28211   */\n      tag_605\n        /* \"#utility.yul\":28207:28210   */\n      dup3\n        /* \"#utility.yul\":28118:28211   */\n      tag_330\n      jump\t// in\n    tag_605:\n        /* \"#utility.yul\":28236:28238   */\n      0x40\n        /* \"#utility.yul\":28231:28234   */\n      dup3\n        /* \"#utility.yul\":28227:28239   */\n      add\n        /* \"#utility.yul\":28220:28239   */\n      swap1\n      pop\n        /* \"#utility.yul\":27879:28245   */\n      swap2\n      swap1\n      pop\n      jump\t// out\n        /* \"#utility.yul\":28251:28670   */\n    tag_204:\n        /* \"#utility.yul\":28417:28421   */\n      0x00\n        /* \"#utility.yul\":28455:28457   */\n      0x20\n        /* \"#utility.yul\":28444:28453   */\n      dup3\n        /* \"#utility.yul\":28440:28458   */\n      add\n        /* \"#utility.yul\":28432:28458   */\n      swap1\n      pop\n        /* \"#utility.yul\":28504:28513   */\n      dup2\n        /* \"#utility.yul\":28498:28502   */\n      dup2\n        /* \"#utility.yul\":28494:28514   */\n      sub\n        /* \"#utility.yul\":28490:28491   */\n      0x00\n        /* \"#utility.yul\":28479:28488   */\n      dup4\n        /* \"#utility.yul\":28475:28492   */\n      add\n        /* \"#utility.yul\":28468:28515   */\n      mstore\n        /* \"#utility.yul\":28532:28663   */\n      tag_607\n        /* \"#utility.yul\":28658:28662   */\n      dup2\n        /* \"#utility.yul\":28532:28663   */\n      tag_331\n      jump\t// in\n    tag_607:\n        /* \"#utility.yul\":28524:28663   */\n      swap1\n      pop\n        /* \"#utility.yul\":28251:28670   */\n      swap2\n      swap1\n      pop\n      jump\t// out\n\n    auxdata: 0xa26469706673582212208d4ba867a0349acdd8f36c6b114b533b9a9c0742065616256bef03738ac7424f64736f6c63430008110033\n}\n",
				"bytecode": {
					"linkReferences": {},
					"object": "60806040523480156200001157600080fd5b5060405162002bc238038062002bc28339818101604052810190620000379190620000e8565b806000806101000a81548173ffffffffffffffffffffffffffffffffffffffff021916908373ffffffffffffffffffffffffffffffffffffffff160217905550506200011a565b600080fd5b600073ffffffffffffffffffffffffffffffffffffffff82169050919050565b6000620000b08262000083565b9050919050565b620000c281620000a3565b8114620000ce57600080fd5b50565b600081519050620000e281620000b7565b92915050565b6000602082840312156200010157620001006200007e565b5b60006200011184828501620000d1565b91505092915050565b612a98806200012a6000396000f3fe608060405234801561001057600080fd5b50600436106100885760003560e01c8063745ab0e61161005b578063745ab0e614610142578063b5067f231461015e578063c0f07fde1461017c578063f4fd62d31461019a57610088565b80632ba155001461008d5780632d1bb6fc146100bd5780633001b568146100ed578063392f5f6414610124575b600080fd5b6100a760048036038101906100a29190611b85565b6101b6565b6040516100b49190611e1f565b60405180910390f35b6100d760048036038101906100d29190611b85565b61097a565b6040516100e49190611e50565b60405180910390f35b61010760048036038101906101029190611e97565b6109b9565b60405161011b989796959493929190611f21565b60405180910390f35b61012c610df6565b604051610139919061202f565b60405180910390f35b61015c6004803603810190610157919061217f565b610e1a565b005b610166611176565b6040516101739190611e1f565b60405180910390f35b610184611740565b604051610191919061231c565b60405180910390f35b6101b460048036038101906101af9190612337565b611746565b005b606060008054906101000a900473ffffffffffffffffffffffffffffffffffffffff1673ffffffffffffffffffffffffffffffffffffffff166324d7806c336040518263ffffffff1660e01b81526004016102119190611e50565b602060405180830381865afa15801561022e573d6000803e3d6000fd5b505050506040513d601f19601f8201168201806040525081019061025291906124e9565b806102f3575060008054906101000a900473ffffffffffffffffffffffffffffffffffffffff1673ffffffffffffffffffffffffffffffffffffffff16635c4c9348336040518263ffffffff1660e01b81526004016102b19190611e50565b602060405180830381865afa1580156102ce573d6000803e3d6000fd5b505050506040513d601f19601f820116820180604052508101906102f291906124e9565b5b610332576040517f08c379a000000000000000000000000000000000000000000000000000000000815260040161032990612588565b60405180910390fd5b6000600a9050600081600a61034791906125d7565b67ffffffffffffffff8111156103605761035f612054565b5b60405190808252806020026020018201604052801561039957816020015b610386611ae0565b81526020019060019003908161037e5790505b5090506000808590505b60028054905081101561096e57600060016000600284815481106103ca576103c9612619565b5b9060005260206000200160009054906101000a900473ffffffffffffffffffffffffffffffffffffffff1673ffffffffffffffffffffffffffffffffffffffff1673ffffffffffffffffffffffffffffffffffffffff168152602001908152602001600020805480602002602001604051908101604052809291908181526020016000905b828210156108d657838290600052602060002090600802016040518061010001604052908160008201805461048390612677565b80601f01602080910402602001604051908101604052809291908181526020018280546104af90612677565b80156104fc5780601f106104d1576101008083540402835291602001916104fc565b820191906000526020600020905b8154815290600101906020018083116104df57829003601f168201915b5050505050815260200160018201805461051590612677565b80601f016020809104026020016040519081016040528092919081815260200182805461054190612677565b801561058e5780601f106105635761010080835404028352916020019161058e565b820191906000526020600020905b81548152906001019060200180831161057157829003601f168201915b505050505081526020016002820180546105a790612677565b80601f01602080910402602001604051908101604052809291908181526020018280546105d390612677565b80156106205780601f106105f557610100808354040283529160200191610620565b820191906000526020600020905b81548152906001019060200180831161060357829003601f168201915b5050505050815260200160038201805461063990612677565b80601f016020809104026020016040519081016040528092919081815260200182805461066590612677565b80156106b25780601f10610687576101008083540402835291602001916106b2565b820191906000526020600020905b81548152906001019060200180831161069557829003601f168201915b505050505081526020016004820180546106cb90612677565b80601f01602080910402602001604051908101604052809291908181526020018280546106f790612677565b80156107445780601f1061071957610100808354040283529160200191610744565b820191906000526020600020905b81548152906001019060200180831161072757829003601f168201915b5050505050815260200160058201805461075d90612677565b80601f016020809104026020016040519081016040528092919081815260200182805461078990612677565b80156107d65780601f106107ab576101008083540402835291602001916107d6565b820191906000526020600020905b8154815290600101906020018083116107b957829003601f168201915b505050505081526020016006820180546107ef90612677565b80601f016020809104026020016040519081016040528092919081815260200182805461081b90612677565b80156108685780601f1061083d57610100808354040283529160200191610868565b820191906000526020600020905b81548152906001019060200180831161084b57829003601f168201915b505050505081526020016007820160009054906101000a900473ffffffffffffffffffffffffffffffffffffffff1673ffffffffffffffffffffffffffffffffffffffff1673ffffffffffffffffffffffffffffffffffffffff16815250508152602001906001019061044f565b50505050905060005b8151811080156108fa5750600a866108f791906125d7565b84105b156109595781818151811061091257610911612619565b5b602002602001015185858151811061092d5761092c612619565b5b60200260200101819052508380610943906126a8565b9450508080610951906126a8565b9150506108df565b50508080610966906126a8565b9150506103a3565b50819350505050919050565b6002818154811061098a57600080fd5b906000526020600020016000915054906101000a900473ffffffffffffffffffffffffffffffffffffffff1681565b600160205281600052604060002081815481106109d557600080fd5b9060005260206000209060080201600091509150508060000180546109f990612677565b80601f0160208091040260200160405190810160405280929190818152602001828054610a2590612677565b8015610a725780601f10610a4757610100808354040283529160200191610a72565b820191906000526020600020905b815481529060010190602001808311610a5557829003601f168201915b505050505090806001018054610a8790612677565b80601f0160208091040260200160405190810160405280929190818152602001828054610ab390612677565b8015610b005780601f10610ad557610100808354040283529160200191610b00565b820191906000526020600020905b815481529060010190602001808311610ae357829003601f168201915b505050505090806002018054610b1590612677565b80601f0160208091040260200160405190810160405280929190818152602001828054610b4190612677565b8015610b8e5780601f10610b6357610100808354040283529160200191610b8e565b820191906000526020600020905b815481529060010190602001808311610b7157829003601f168201915b505050505090806003018054610ba390612677565b80601f0160208091040260200160405190810160405280929190818152602001828054610bcf90612677565b8015610c1c5780601f10610bf157610100808354040283529160200191610c1c565b820191906000526020600020905b815481529060010190602001808311610bff57829003601f168201915b505050505090806004018054610c3190612677565b80601f0160208091040260200160405190810160405280929190818152602001828054610c5d90612677565b8015610caa5780601f10610c7f57610100808354040283529160200191610caa565b820191906000526020600020905b815481529060010190602001808311610c8d57829003601f168201915b505050505090806005018054610cbf90612677565b80601f0160208091040260200160405190810160405280929190818152602001828054610ceb90612677565b8015610d385780601f10610d0d57610100808354040283529160200191610d38565b820191906000526020600020905b815481529060010190602001808311610d1b57829003601f168201915b505050505090806006018054610d4d90612677565b80601f0160208091040260200160405190810160405280929190818152602001828054610d7990612677565b8015610dc65780601f10610d9b57610100808354040283529160200191610dc6565b820191906000526020600020905b815481529060010190602001808311610da957829003601f168201915b5050505050908060070160009054906101000a900473ffffffffffffffffffffffffffffffffffffffff16905088565b60008054906101000a900473ffffffffffffffffffffffffffffffffffffffff1681565b60008054906101000a900473ffffffffffffffffffffffffffffffffffffffff1673ffffffffffffffffffffffffffffffffffffffff166324d7806c336040518263ffffffff1660e01b8152600401610e739190611e50565b602060405180830381865afa158015610e90573d6000803e3d6000fd5b505050506040513d601f19601f82011682018060405250810190610eb491906124e9565b80610f55575060008054906101000a900473ffffffffffffffffffffffffffffffffffffffff1673ffffffffffffffffffffffffffffffffffffffff16635c4c9348336040518263ffffffff1660e01b8152600401610f139190611e50565b602060405180830381865afa158015610f30573d6000803e3d6000fd5b505050506040513d601f19601f82011682018060405250810190610f5491906124e9565b5b610f94576040517f08c379a0000000000000000000000000000000000000000000000000000000008152600401610f8b90612588565b60405180910390fd5b6003548810610fd8576040517f08c379a0000000000000000000000000000000000000000000000000000000008152600401610fcf9061273c565b60405180910390fd5b6040518061010001604052808881526020018781526020018681526020018581526020018481526020018381526020018281526020018a73ffffffffffffffffffffffffffffffffffffffff16815250600160008b73ffffffffffffffffffffffffffffffffffffffff1673ffffffffffffffffffffffffffffffffffffffff168152602001908152602001600020898154811061107957611078612619565b5b9060005260206000209060080201600082015181600001908161109c91906128fe565b5060208201518160010190816110b291906128fe565b5060408201518160020190816110c891906128fe565b5060608201518160030190816110de91906128fe565b5060808201518160040190816110f491906128fe565b5060a082015181600501908161110a91906128fe565b5060c082015181600601908161112091906128fe565b5060e08201518160070160006101000a81548173ffffffffffffffffffffffffffffffffffffffff021916908373ffffffffffffffffffffffffffffffffffffffff160217905550905050505050505050505050565b606060008054906101000a900473ffffffffffffffffffffffffffffffffffffffff1673ffffffffffffffffffffffffffffffffffffffff16631132beb5336040518263ffffffff1660e01b81526004016111d19190611e50565b602060405180830381865afa1580156111ee573d6000803e3d6000fd5b505050506040513d601f19601f8201168201806040525081019061121291906124e9565b611251576040517f08c379a000000000000000000000000000000000000000000000000000000000815260040161124890612a42565b60405180910390fd5b600160003373ffffffffffffffffffffffffffffffffffffffff1673ffffffffffffffffffffffffffffffffffffffff168152602001908152602001600020805480602002602001604051908101604052809291908181526020016000905b828210156117375783829060005260206000209060080201604051806101000160405290816000820180546112e490612677565b80601f016020809104026020016040519081016040528092919081815260200182805461131090612677565b801561135d5780601f106113325761010080835404028352916020019161135d565b820191906000526020600020905b81548152906001019060200180831161134057829003601f168201915b5050505050815260200160018201805461137690612677565b80601f01602080910402602001604051908101604052809291908181526020018280546113a290612677565b80156113ef5780601f106113c4576101008083540402835291602001916113ef565b820191906000526020600020905b8154815290600101906020018083116113d257829003601f168201915b5050505050815260200160028201805461140890612677565b80601f016020809104026020016040519081016040528092919081815260200182805461143490612677565b80156114815780601f1061145657610100808354040283529160200191611481565b820191906000526020600020905b81548152906001019060200180831161146457829003601f168201915b5050505050815260200160038201805461149a90612677565b80601f01602080910402602001604051908101604052809291908181526020018280546114c690612677565b80156115135780601f106114e857610100808354040283529160200191611513565b820191906000526020600020905b8154815290600101906020018083116114f657829003601f168201915b5050505050815260200160048201805461152c90612677565b80601f016020809104026020016040519081016040528092919081815260200182805461155890612677565b80156115a55780601f1061157a576101008083540402835291602001916115a5565b820191906000526020600020905b81548152906001019060200180831161158857829003601f168201915b505050505081526020016005820180546115be90612677565b80601f01602080910402602001604051908101604052809291908181526020018280546115ea90612677565b80156116375780601f1061160c57610100808354040283529160200191611637565b820191906000526020600020905b81548152906001019060200180831161161a57829003601f168201915b5050505050815260200160068201805461165090612677565b80601f016020809104026020016040519081016040528092919081815260200182805461167c90612677565b80156116c95780601f1061169e576101008083540402835291602001916116c9565b820191906000526020600020905b8154815290600101906020018083116116ac57829003601f168201915b505050505081526020016007820160009054906101000a900473ffffffffffffffffffffffffffffffffffffffff1673ffffffffffffffffffffffffffffffffffffffff1673ffffffffffffffffffffffffffffffffffffffff1681525050815260200190600101906112b0565b50505050905090565b60035481565b60008054906101000a900473ffffffffffffffffffffffffffffffffffffffff1673ffffffffffffffffffffffffffffffffffffffff166324d7806c336040518263ffffffff1660e01b815260040161179f9190611e50565b602060405180830381865afa1580156117bc573d6000803e3d6000fd5b505050506040513d601f19601f820116820180604052508101906117e091906124e9565b80611881575060008054906101000a900473ffffffffffffffffffffffffffffffffffffffff1673ffffffffffffffffffffffffffffffffffffffff16635c4c9348336040518263ffffffff1660e01b815260040161183f9190611e50565b602060405180830381865afa15801561185c573d6000803e3d6000fd5b505050506040513d601f19601f8201168201806040525081019061188091906124e9565b5b6118c0576040517f08c379a00000000000000000000000000000000000000000000000000000000081526004016118b790612588565b60405180910390fd5b600160008973ffffffffffffffffffffffffffffffffffffffff1673ffffffffffffffffffffffffffffffffffffffff1681526020019081526020016000206040518061010001604052808981526020018881526020018781526020018681526020018581526020018481526020018381526020018a73ffffffffffffffffffffffffffffffffffffffff168152509080600181540180825580915050600190039060005260206000209060080201600090919091909150600082015181600001908161198d91906128fe565b5060208201518160010190816119a391906128fe565b5060408201518160020190816119b991906128fe565b5060608201518160030190816119cf91906128fe565b5060808201518160040190816119e591906128fe565b5060a08201518160050190816119fb91906128fe565b5060c0820151816006019081611a1191906128fe565b5060e08201518160070160006101000a81548173ffffffffffffffffffffffffffffffffffffffff021916908373ffffffffffffffffffffffffffffffffffffffff16021790555050506002889080600181540180825580915050600190039060005260206000200160009091909190916101000a81548173ffffffffffffffffffffffffffffffffffffffff021916908373ffffffffffffffffffffffffffffffffffffffff16021790555060036000815480929190611ad1906126a8565b91905055505050505050505050565b60405180610100016040528060608152602001606081526020016060815260200160608152602001606081526020016060815260200160608152602001600073ffffffffffffffffffffffffffffffffffffffff1681525090565b6000604051905090565b600080fd5b600080fd5b6000819050919050565b611b6281611b4f565b8114611b6d57600080fd5b50565b600081359050611b7f81611b59565b92915050565b600060208284031215611b9b57611b9a611b45565b5b6000611ba984828501611b70565b91505092915050565b600081519050919050565b600082825260208201905092915050565b6000819050602082019050919050565b600081519050919050565b600082825260208201905092915050565b60005b83811015611c18578082015181840152602081019050611bfd565b60008484015250505050565b6000601f19601f8301169050919050565b6000611c4082611bde565b611c4a8185611be9565b9350611c5a818560208601611bfa565b611c6381611c24565b840191505092915050565b600073ffffffffffffffffffffffffffffffffffffffff82169050919050565b6000611c9982611c6e565b9050919050565b611ca981611c8e565b82525050565b6000610100830160008301518482036000860152611ccd8282611c35565b91505060208301518482036020860152611ce78282611c35565b91505060408301518482036040860152611d018282611c35565b91505060608301518482036060860152611d1b8282611c35565b91505060808301518482036080860152611d358282611c35565b91505060a083015184820360a0860152611d4f8282611c35565b91505060c083015184820360c0860152611d698282611c35565b91505060e0830151611d7e60e0860182611ca0565b508091505092915050565b6000611d958383611caf565b905092915050565b6000602082019050919050565b6000611db582611bb2565b611dbf8185611bbd565b935083602082028501611dd185611bce565b8060005b85811015611e0d5784840389528151611dee8582611d89565b9450611df983611d9d565b925060208a01995050600181019050611dd5565b50829750879550505050505092915050565b60006020820190508181036000830152611e398184611daa565b905092915050565b611e4a81611c8e565b82525050565b6000602082019050611e656000830184611e41565b92915050565b611e7481611c8e565b8114611e7f57600080fd5b50565b600081359050611e9181611e6b565b92915050565b60008060408385031215611eae57611ead611b45565b5b6000611ebc85828601611e82565b9250506020611ecd85828601611b70565b9150509250929050565b600082825260208201905092915050565b6000611ef382611bde565b611efd8185611ed7565b9350611f0d818560208601611bfa565b611f1681611c24565b840191505092915050565b6000610100820190508181036000830152611f3c818b611ee8565b90508181036020830152611f50818a611ee8565b90508181036040830152611f648189611ee8565b90508181036060830152611f788188611ee8565b90508181036080830152611f8c8187611ee8565b905081810360a0830152611fa08186611ee8565b905081810360c0830152611fb48185611ee8565b9050611fc360e0830184611e41565b9998505050505050505050565b6000819050919050565b6000611ff5611ff0611feb84611c6e565b611fd0565b611c6e565b9050919050565b600061200782611fda565b9050919050565b600061201982611ffc565b9050919050565b6120298161200e565b82525050565b60006020820190506120446000830184612020565b92915050565b600080fd5b600080fd5b7f4e487b7100000000000000000000000000000000000000000000000000000000600052604160045260246000fd5b61208c82611c24565b810181811067ffffffffffffffff821117156120ab576120aa612054565b5b80604052505050565b60006120be611b3b565b90506120ca8282612083565b919050565b600067ffffffffffffffff8211156120ea576120e9612054565b5b6120f382611c24565b9050602081019050919050565b82818337600083830152505050565b600061212261211d846120cf565b6120b4565b90508281526020810184848401111561213e5761213d61204f565b5b612149848285612100565b509392505050565b600082601f8301126121665761216561204a565b5b813561217684826020860161210f565b91505092915050565b60008060008060008060008060006101208a8c0312156121a2576121a1611b45565b5b60006121b08c828d01611e82565b99505060206121c18c828d01611b70565b98505060408a013567ffffffffffffffff8111156121e2576121e1611b4a565b5b6121ee8c828d01612151565b97505060608a013567ffffffffffffffff81111561220f5761220e611b4a565b5b61221b8c828d01612151565b96505060808a013567ffffffffffffffff81111561223c5761223b611b4a565b5b6122488c828d01612151565b95505060a08a013567ffffffffffffffff81111561226957612268611b4a565b5b6122758c828d01612151565b94505060c08a013567ffffffffffffffff81111561229657612295611b4a565b5b6122a28c828d01612151565b93505060e08a013567ffffffffffffffff8111156122c3576122c2611b4a565b5b6122cf8c828d01612151565b9250506101008a013567ffffffffffffffff8111156122f1576122f0611b4a565b5b6122fd8c828d01612151565b9150509295985092959850929598565b61231681611b4f565b82525050565b6000602082019050612331600083018461230d565b92915050565b600080600080600080600080610100898b03121561235857612357611b45565b5b60006123668b828c01611e82565b985050602089013567ffffffffffffffff81111561238757612386611b4a565b5b6123938b828c01612151565b975050604089013567ffffffffffffffff8111156123b4576123b3611b4a565b5b6123c08b828c01612151565b965050606089013567ffffffffffffffff8111156123e1576123e0611b4a565b5b6123ed8b828c01612151565b955050608089013567ffffffffffffffff81111561240e5761240d611b4a565b5b61241a8b828c01612151565b94505060a089013567ffffffffffffffff81111561243b5761243a611b4a565b5b6124478b828c01612151565b93505060c089013567ffffffffffffffff81111561246857612467611b4a565b5b6124748b828c01612151565b92505060e089013567ffffffffffffffff81111561249557612494611b4a565b5b6124a18b828c01612151565b9150509295985092959890939650565b60008115159050919050565b6124c6816124b1565b81146124d157600080fd5b50565b6000815190506124e3816124bd565b92915050565b6000602082840312156124ff576124fe611b45565b5b600061250d848285016124d4565b91505092915050565b7f48616e79612061646d696e206174617520646f6b7465722079616e672064696960008201527f7a696e6b616e20756e74756b206d656e67616b7365732e000000000000000000602082015250565b6000612572603783611ed7565b915061257d82612516565b604082019050919050565b600060208201905081810360008301526125a181612565565b9050919050565b7f4e487b7100000000000000000000000000000000000000000000000000000000600052601160045260246000fd5b60006125e282611b4f565b91506125ed83611b4f565b92508282026125fb81611b4f565b91508282048414831517612612576126116125a8565b5b5092915050565b7f4e487b7100000000000000000000000000000000000000000000000000000000600052603260045260246000fd5b7f4e487b7100000000000000000000000000000000000000000000000000000000600052602260045260246000fd5b6000600282049050600182168061268f57607f821691505b6020821081036126a2576126a1612648565b5b50919050565b60006126b382611b4f565b91507fffffffffffffffffffffffffffffffffffffffffffffffffffffffffffffffff82036126e5576126e46125a8565b5b600182019050919050565b7f436f6e73756c746174696f6e2064617461206e6f7420666f756e640000000000600082015250565b6000612726601b83611ed7565b9150612731826126f0565b602082019050919050565b6000602082019050818103600083015261275581612719565b9050919050565b60008190508160005260206000209050919050565b60006020601f8301049050919050565b600082821b905092915050565b6000600883026127be7fffffffffffffffffffffffffffffffffffffffffffffffffffffffffffffffff82612781565b6127c88683612781565b95508019841693508086168417925050509392505050565b60006127fb6127f66127f184611b4f565b611fd0565b611b4f565b9050919050565b6000819050919050565b612815836127e0565b61282961282182612802565b84845461278e565b825550505050565b600090565b61283e612831565b61284981848461280c565b505050565b5b8181101561286d57612862600082612836565b60018101905061284f565b5050565b601f8211156128b2576128838161275c565b61288c84612771565b8101602085101561289b578190505b6128af6128a785612771565b83018261284e565b50505b505050565b600082821c905092915050565b60006128d5600019846008026128b7565b1980831691505092915050565b60006128ee83836128c4565b9150826002028217905092915050565b61290782611bde565b67ffffffffffffffff8111156129205761291f612054565b5b61292a8254612677565b612935828285612871565b600060209050601f8311600181146129685760008415612956578287015190505b61296085826128e2565b8655506129c8565b601f1984166129768661275c565b60005b8281101561299e57848901518255600182019150602085019450602081019050612979565b868310156129bb57848901516129b7601f8916826128c4565b8355505b6001600288020188555050505b505050505050565b7f48616e79612070617369656e2079616e67206469697a696e6b616e20756e747560008201527f6b206d656e67616b736573000000000000000000000000000000000000000000602082015250565b6000612a2c602b83611ed7565b9150612a37826129d0565b604082019050919050565b60006020820190508181036000830152612a5b81612a1f565b905091905056fea26469706673582212208d4ba867a0349acdd8f36c6b114b533b9a9c0742065616256bef03738ac7424f64736f6c63430008110033",
					"opcodes": "PUSH1 0x80 PUSH1 0x40 MSTORE CALLVALUE DUP1 ISZERO PUSH3 0x11 JUMPI PUSH1 0x0 DUP1 REVERT JUMPDEST POP PUSH1 0x40 MLOAD PUSH3 0x2BC2 CODESIZE SUB DUP1 PUSH3 0x2BC2 DUP4 CODECOPY DUP2 DUP2 ADD PUSH1 0x40 MSTORE DUP2 ADD SWAP1 PUSH3 0x37 SWAP2 SWAP1 PUSH3 0xE8 JUMP JUMPDEST DUP1 PUSH1 0x0 DUP1 PUSH2 0x100 EXP DUP2 SLOAD DUP2 PUSH20 0xFFFFFFFFFFFFFFFFFFFFFFFFFFFFFFFFFFFFFFFF MUL NOT AND SWAP1 DUP4 PUSH20 0xFFFFFFFFFFFFFFFFFFFFFFFFFFFFFFFFFFFFFFFF AND MUL OR SWAP1 SSTORE POP POP PUSH3 0x11A JUMP JUMPDEST PUSH1 0x0 DUP1 REVERT JUMPDEST PUSH1 0x0 PUSH20 0xFFFFFFFFFFFFFFFFFFFFFFFFFFFFFFFFFFFFFFFF DUP3 AND SWAP1 POP SWAP2 SWAP1 POP JUMP JUMPDEST PUSH1 0x0 PUSH3 0xB0 DUP3 PUSH3 0x83 JUMP JUMPDEST SWAP1 POP SWAP2 SWAP1 POP JUMP JUMPDEST PUSH3 0xC2 DUP2 PUSH3 0xA3 JUMP JUMPDEST DUP2 EQ PUSH3 0xCE JUMPI PUSH1 0x0 DUP1 REVERT JUMPDEST POP JUMP JUMPDEST PUSH1 0x0 DUP2 MLOAD SWAP1 POP PUSH3 0xE2 DUP2 PUSH3 0xB7 JUMP JUMPDEST SWAP3 SWAP2 POP POP JUMP JUMPDEST PUSH1 0x0 PUSH1 0x20 DUP3 DUP5 SUB SLT ISZERO PUSH3 0x101 JUMPI PUSH3 0x100 PUSH3 0x7E JUMP JUMPDEST JUMPDEST PUSH1 0x0 PUSH3 0x111 DUP5 DUP3 DUP6 ADD PUSH3 0xD1 JUMP JUMPDEST SWAP2 POP POP SWAP3 SWAP2 POP POP JUMP JUMPDEST PUSH2 0x2A98 DUP1 PUSH3 0x12A PUSH1 0x0 CODECOPY PUSH1 0x0 RETURN INVALID PUSH1 0x80 PUSH1 0x40 MSTORE CALLVALUE DUP1 ISZERO PUSH2 0x10 JUMPI PUSH1 0x0 DUP1 REVERT JUMPDEST POP PUSH1 0x4 CALLDATASIZE LT PUSH2 0x88 JUMPI PUSH1 0x0 CALLDATALOAD PUSH1 0xE0 SHR DUP1 PUSH4 0x745AB0E6 GT PUSH2 0x5B JUMPI DUP1 PUSH4 0x745AB0E6 EQ PUSH2 0x142 JUMPI DUP1 PUSH4 0xB5067F23 EQ PUSH2 0x15E JUMPI DUP1 PUSH4 0xC0F07FDE EQ PUSH2 0x17C JUMPI DUP1 PUSH4 0xF4FD62D3 EQ PUSH2 0x19A JUMPI PUSH2 0x88 JUMP JUMPDEST DUP1 PUSH4 0x2BA15500 EQ PUSH2 0x8D JUMPI DUP1 PUSH4 0x2D1BB6FC EQ PUSH2 0xBD JUMPI DUP1 PUSH4 0x3001B568 EQ PUSH2 0xED JUMPI DUP1 PUSH4 0x392F5F64 EQ PUSH2 0x124 JUMPI JUMPDEST PUSH1 0x0 DUP1 REVERT JUMPDEST PUSH2 0xA7 PUSH1 0x4 DUP1 CALLDATASIZE SUB DUP2 ADD SWAP1 PUSH2 0xA2 SWAP2 SWAP1 PUSH2 0x1B85 JUMP JUMPDEST PUSH2 0x1B6 JUMP JUMPDEST PUSH1 0x40 MLOAD PUSH2 0xB4 SWAP2 SWAP1 PUSH2 0x1E1F JUMP JUMPDEST PUSH1 0x40 MLOAD DUP1 SWAP2 SUB SWAP1 RETURN JUMPDEST PUSH2 0xD7 PUSH1 0x4 DUP1 CALLDATASIZE SUB DUP2 ADD SWAP1 PUSH2 0xD2 SWAP2 SWAP1 PUSH2 0x1B85 JUMP JUMPDEST PUSH2 0x97A JUMP JUMPDEST PUSH1 0x40 MLOAD PUSH2 0xE4 SWAP2 SWAP1 PUSH2 0x1E50 JUMP JUMPDEST PUSH1 0x40 MLOAD DUP1 SWAP2 SUB SWAP1 RETURN JUMPDEST PUSH2 0x107 PUSH1 0x4 DUP1 CALLDATASIZE SUB DUP2 ADD SWAP1 PUSH2 0x102 SWAP2 SWAP1 PUSH2 0x1E97 JUMP JUMPDEST PUSH2 0x9B9 JUMP JUMPDEST PUSH1 0x40 MLOAD PUSH2 0x11B SWAP9 SWAP8 SWAP7 SWAP6 SWAP5 SWAP4 SWAP3 SWAP2 SWAP1 PUSH2 0x1F21 JUMP JUMPDEST PUSH1 0x40 MLOAD DUP1 SWAP2 SUB SWAP1 RETURN JUMPDEST PUSH2 0x12C PUSH2 0xDF6 JUMP JUMPDEST PUSH1 0x40 MLOAD PUSH2 0x139 SWAP2 SWAP1 PUSH2 0x202F JUMP JUMPDEST PUSH1 0x40 MLOAD DUP1 SWAP2 SUB SWAP1 RETURN JUMPDEST PUSH2 0x15C PUSH1 0x4 DUP1 CALLDATASIZE SUB DUP2 ADD SWAP1 PUSH2 0x157 SWAP2 SWAP1 PUSH2 0x217F JUMP JUMPDEST PUSH2 0xE1A JUMP JUMPDEST STOP JUMPDEST PUSH2 0x166 PUSH2 0x1176 JUMP JUMPDEST PUSH1 0x40 MLOAD PUSH2 0x173 SWAP2 SWAP1 PUSH2 0x1E1F JUMP JUMPDEST PUSH1 0x40 MLOAD DUP1 SWAP2 SUB SWAP1 RETURN JUMPDEST PUSH2 0x184 PUSH2 0x1740 JUMP JUMPDEST PUSH1 0x40 MLOAD PUSH2 0x191 SWAP2 SWAP1 PUSH2 0x231C JUMP JUMPDEST PUSH1 0x40 MLOAD DUP1 SWAP2 SUB SWAP1 RETURN JUMPDEST PUSH2 0x1B4 PUSH1 0x4 DUP1 CALLDATASIZE SUB DUP2 ADD SWAP1 PUSH2 0x1AF SWAP2 SWAP1 PUSH2 0x2337 JUMP JUMPDEST PUSH2 0x1746 JUMP JUMPDEST STOP JUMPDEST PUSH1 0x60 PUSH1 0x0 DUP1 SLOAD SWAP1 PUSH2 0x100 EXP SWAP1 DIV PUSH20 0xFFFFFFFFFFFFFFFFFFFFFFFFFFFFFFFFFFFFFFFF AND PUSH20 0xFFFFFFFFFFFFFFFFFFFFFFFFFFFFFFFFFFFFFFFF AND PUSH4 0x24D7806C CALLER PUSH1 0x40 MLOAD DUP3 PUSH4 0xFFFFFFFF AND PUSH1 0xE0 SHL DUP2 MSTORE PUSH1 0x4 ADD PUSH2 0x211 SWAP2 SWAP1 PUSH2 0x1E50 JUMP JUMPDEST PUSH1 0x20 PUSH1 0x40 MLOAD DUP1 DUP4 SUB DUP2 DUP7 GAS STATICCALL ISZERO DUP1 ISZERO PUSH2 0x22E JUMPI RETURNDATASIZE PUSH1 0x0 DUP1 RETURNDATACOPY RETURNDATASIZE PUSH1 0x0 REVERT JUMPDEST POP POP POP POP PUSH1 0x40 MLOAD RETURNDATASIZE PUSH1 0x1F NOT PUSH1 0x1F DUP3 ADD AND DUP3 ADD DUP1 PUSH1 0x40 MSTORE POP DUP2 ADD SWAP1 PUSH2 0x252 SWAP2 SWAP1 PUSH2 0x24E9 JUMP JUMPDEST DUP1 PUSH2 0x2F3 JUMPI POP PUSH1 0x0 DUP1 SLOAD SWAP1 PUSH2 0x100 EXP SWAP1 DIV PUSH20 0xFFFFFFFFFFFFFFFFFFFFFFFFFFFFFFFFFFFFFFFF AND PUSH20 0xFFFFFFFFFFFFFFFFFFFFFFFFFFFFFFFFFFFFFFFF AND PUSH4 0x5C4C9348 CALLER PUSH1 0x40 MLOAD DUP3 PUSH4 0xFFFFFFFF AND PUSH1 0xE0 SHL DUP2 MSTORE PUSH1 0x4 ADD PUSH2 0x2B1 SWAP2 SWAP1 PUSH2 0x1E50 JUMP JUMPDEST PUSH1 0x20 PUSH1 0x40 MLOAD DUP1 DUP4 SUB DUP2 DUP7 GAS STATICCALL ISZERO DUP1 ISZERO PUSH2 0x2CE JUMPI RETURNDATASIZE PUSH1 0x0 DUP1 RETURNDATACOPY RETURNDATASIZE PUSH1 0x0 REVERT JUMPDEST POP POP POP POP PUSH1 0x40 MLOAD RETURNDATASIZE PUSH1 0x1F NOT PUSH1 0x1F DUP3 ADD AND DUP3 ADD DUP1 PUSH1 0x40 MSTORE POP DUP2 ADD SWAP1 PUSH2 0x2F2 SWAP2 SWAP1 PUSH2 0x24E9 JUMP JUMPDEST JUMPDEST PUSH2 0x332 JUMPI PUSH1 0x40 MLOAD PUSH32 0x8C379A000000000000000000000000000000000000000000000000000000000 DUP2 MSTORE PUSH1 0x4 ADD PUSH2 0x329 SWAP1 PUSH2 0x2588 JUMP JUMPDEST PUSH1 0x40 MLOAD DUP1 SWAP2 SUB SWAP1 REVERT JUMPDEST PUSH1 0x0 PUSH1 0xA SWAP1 POP PUSH1 0x0 DUP2 PUSH1 0xA PUSH2 0x347 SWAP2 SWAP1 PUSH2 0x25D7 JUMP JUMPDEST PUSH8 0xFFFFFFFFFFFFFFFF DUP2 GT ISZERO PUSH2 0x360 JUMPI PUSH2 0x35F PUSH2 0x2054 JUMP JUMPDEST JUMPDEST PUSH1 0x40 MLOAD SWAP1 DUP1 DUP3 MSTORE DUP1 PUSH1 0x20 MUL PUSH1 0x20 ADD DUP3 ADD PUSH1 0x40 MSTORE DUP1 ISZERO PUSH2 0x399 JUMPI DUP2 PUSH1 0x20 ADD JUMPDEST PUSH2 0x386 PUSH2 0x1AE0 JUMP JUMPDEST DUP2 MSTORE PUSH1 0x20 ADD SWAP1 PUSH1 0x1 SWAP1 SUB SWAP1 DUP2 PUSH2 0x37E JUMPI SWAP1 POP JUMPDEST POP SWAP1 POP PUSH1 0x0 DUP1 DUP6 SWAP1 POP JUMPDEST PUSH1 0x2 DUP1 SLOAD SWAP1 POP DUP2 LT ISZERO PUSH2 0x96E JUMPI PUSH1 0x0 PUSH1 0x1 PUSH1 0x0 PUSH1 0x2 DUP5 DUP2 SLOAD DUP2 LT PUSH2 0x3CA JUMPI PUSH2 0x3C9 PUSH2 0x2619 JUMP JUMPDEST JUMPDEST SWAP1 PUSH1 0x0 MSTORE PUSH1 0x20 PUSH1 0x0 KECCAK256 ADD PUSH1 0x0 SWAP1 SLOAD SWAP1 PUSH2 0x100 EXP SWAP1 DIV PUSH20 0xFFFFFFFFFFFFFFFFFFFFFFFFFFFFFFFFFFFFFFFF AND PUSH20 0xFFFFFFFFFFFFFFFFFFFFFFFFFFFFFFFFFFFFFFFF AND PUSH20 0xFFFFFFFFFFFFFFFFFFFFFFFFFFFFFFFFFFFFFFFF AND DUP2 MSTORE PUSH1 0x20 ADD SWAP1 DUP2 MSTORE PUSH1 0x20 ADD PUSH1 0x0 KECCAK256 DUP1 SLOAD DUP1 PUSH1 0x20 MUL PUSH1 0x20 ADD PUSH1 0x40 MLOAD SWAP1 DUP2 ADD PUSH1 0x40 MSTORE DUP1 SWAP3 SWAP2 SWAP1 DUP2 DUP2 MSTORE PUSH1 0x20 ADD PUSH1 0x0 SWAP1 JUMPDEST DUP3 DUP3 LT ISZERO PUSH2 0x8D6 JUMPI DUP4 DUP3 SWAP1 PUSH1 0x0 MSTORE PUSH1 0x20 PUSH1 0x0 KECCAK256 SWAP1 PUSH1 0x8 MUL ADD PUSH1 0x40 MLOAD DUP1 PUSH2 0x100 ADD PUSH1 0x40 MSTORE SWAP1 DUP2 PUSH1 0x0 DUP3 ADD DUP1 SLOAD PUSH2 0x483 SWAP1 PUSH2 0x2677 JUMP JUMPDEST DUP1 PUSH1 0x1F ADD PUSH1 0x20 DUP1 SWAP2 DIV MUL PUSH1 0x20 ADD PUSH1 0x40 MLOAD SWAP1 DUP2 ADD PUSH1 0x40 MSTORE DUP1 SWAP3 SWAP2 SWAP1 DUP2 DUP2 MSTORE PUSH1 0x20 ADD DUP3 DUP1 SLOAD PUSH2 0x4AF SWAP1 PUSH2 0x2677 JUMP JUMPDEST DUP1 ISZERO PUSH2 0x4FC JUMPI DUP1 PUSH1 0x1F LT PUSH2 0x4D1 JUMPI PUSH2 0x100 DUP1 DUP4 SLOAD DIV MUL DUP4 MSTORE SWAP2 PUSH1 0x20 ADD SWAP2 PUSH2 0x4FC JUMP JUMPDEST DUP3 ADD SWAP2 SWAP1 PUSH1 0x0 MSTORE PUSH1 0x20 PUSH1 0x0 KECCAK256 SWAP1 JUMPDEST DUP2 SLOAD DUP2 MSTORE SWAP1 PUSH1 0x1 ADD SWAP1 PUSH1 0x20 ADD DUP1 DUP4 GT PUSH2 0x4DF JUMPI DUP3 SWAP1 SUB PUSH1 0x1F AND DUP3 ADD SWAP2 JUMPDEST POP POP POP POP POP DUP2 MSTORE PUSH1 0x20 ADD PUSH1 0x1 DUP3 ADD DUP1 SLOAD PUSH2 0x515 SWAP1 PUSH2 0x2677 JUMP JUMPDEST DUP1 PUSH1 0x1F ADD PUSH1 0x20 DUP1 SWAP2 DIV MUL PUSH1 0x20 ADD PUSH1 0x40 MLOAD SWAP1 DUP2 ADD PUSH1 0x40 MSTORE DUP1 SWAP3 SWAP2 SWAP1 DUP2 DUP2 MSTORE PUSH1 0x20 ADD DUP3 DUP1 SLOAD PUSH2 0x541 SWAP1 PUSH2 0x2677 JUMP JUMPDEST DUP1 ISZERO PUSH2 0x58E JUMPI DUP1 PUSH1 0x1F LT PUSH2 0x563 JUMPI PUSH2 0x100 DUP1 DUP4 SLOAD DIV MUL DUP4 MSTORE SWAP2 PUSH1 0x20 ADD SWAP2 PUSH2 0x58E JUMP JUMPDEST DUP3 ADD SWAP2 SWAP1 PUSH1 0x0 MSTORE PUSH1 0x20 PUSH1 0x0 KECCAK256 SWAP1 JUMPDEST DUP2 SLOAD DUP2 MSTORE SWAP1 PUSH1 0x1 ADD SWAP1 PUSH1 0x20 ADD DUP1 DUP4 GT PUSH2 0x571 JUMPI DUP3 SWAP1 SUB PUSH1 0x1F AND DUP3 ADD SWAP2 JUMPDEST POP POP POP POP POP DUP2 MSTORE PUSH1 0x20 ADD PUSH1 0x2 DUP3 ADD DUP1 SLOAD PUSH2 0x5A7 SWAP1 PUSH2 0x2677 JUMP JUMPDEST DUP1 PUSH1 0x1F ADD PUSH1 0x20 DUP1 SWAP2 DIV MUL PUSH1 0x20 ADD PUSH1 0x40 MLOAD SWAP1 DUP2 ADD PUSH1 0x40 MSTORE DUP1 SWAP3 SWAP2 SWAP1 DUP2 DUP2 MSTORE PUSH1 0x20 ADD DUP3 DUP1 SLOAD PUSH2 0x5D3 SWAP1 PUSH2 0x2677 JUMP JUMPDEST DUP1 ISZERO PUSH2 0x620 JUMPI DUP1 PUSH1 0x1F LT PUSH2 0x5F5 JUMPI PUSH2 0x100 DUP1 DUP4 SLOAD DIV MUL DUP4 MSTORE SWAP2 PUSH1 0x20 ADD SWAP2 PUSH2 0x620 JUMP JUMPDEST DUP3 ADD SWAP2 SWAP1 PUSH1 0x0 MSTORE PUSH1 0x20 PUSH1 0x0 KECCAK256 SWAP1 JUMPDEST DUP2 SLOAD DUP2 MSTORE SWAP1 PUSH1 0x1 ADD SWAP1 PUSH1 0x20 ADD DUP1 DUP4 GT PUSH2 0x603 JUMPI DUP3 SWAP1 SUB PUSH1 0x1F AND DUP3 ADD SWAP2 JUMPDEST POP POP POP POP POP DUP2 MSTORE PUSH1 0x20 ADD PUSH1 0x3 DUP3 ADD DUP1 SLOAD PUSH2 0x639 SWAP1 PUSH2 0x2677 JUMP JUMPDEST DUP1 PUSH1 0x1F ADD PUSH1 0x20 DUP1 SWAP2 DIV MUL PUSH1 0x20 ADD PUSH1 0x40 MLOAD SWAP1 DUP2 ADD PUSH1 0x40 MSTORE DUP1 SWAP3 SWAP2 SWAP1 DUP2 DUP2 MSTORE PUSH1 0x20 ADD DUP3 DUP1 SLOAD PUSH2 0x665 SWAP1 PUSH2 0x2677 JUMP JUMPDEST DUP1 ISZERO PUSH2 0x6B2 JUMPI DUP1 PUSH1 0x1F LT PUSH2 0x687 JUMPI PUSH2 0x100 DUP1 DUP4 SLOAD DIV MUL DUP4 MSTORE SWAP2 PUSH1 0x20 ADD SWAP2 PUSH2 0x6B2 JUMP JUMPDEST DUP3 ADD SWAP2 SWAP1 PUSH1 0x0 MSTORE PUSH1 0x20 PUSH1 0x0 KECCAK256 SWAP1 JUMPDEST DUP2 SLOAD DUP2 MSTORE SWAP1 PUSH1 0x1 ADD SWAP1 PUSH1 0x20 ADD DUP1 DUP4 GT PUSH2 0x695 JUMPI DUP3 SWAP1 SUB PUSH1 0x1F AND DUP3 ADD SWAP2 JUMPDEST POP POP POP POP POP DUP2 MSTORE PUSH1 0x20 ADD PUSH1 0x4 DUP3 ADD DUP1 SLOAD PUSH2 0x6CB SWAP1 PUSH2 0x2677 JUMP JUMPDEST DUP1 PUSH1 0x1F ADD PUSH1 0x20 DUP1 SWAP2 DIV MUL PUSH1 0x20 ADD PUSH1 0x40 MLOAD SWAP1 DUP2 ADD PUSH1 0x40 MSTORE DUP1 SWAP3 SWAP2 SWAP1 DUP2 DUP2 MSTORE PUSH1 0x20 ADD DUP3 DUP1 SLOAD PUSH2 0x6F7 SWAP1 PUSH2 0x2677 JUMP JUMPDEST DUP1 ISZERO PUSH2 0x744 JUMPI DUP1 PUSH1 0x1F LT PUSH2 0x719 JUMPI PUSH2 0x100 DUP1 DUP4 SLOAD DIV MUL DUP4 MSTORE SWAP2 PUSH1 0x20 ADD SWAP2 PUSH2 0x744 JUMP JUMPDEST DUP3 ADD SWAP2 SWAP1 PUSH1 0x0 MSTORE PUSH1 0x20 PUSH1 0x0 KECCAK256 SWAP1 JUMPDEST DUP2 SLOAD DUP2 MSTORE SWAP1 PUSH1 0x1 ADD SWAP1 PUSH1 0x20 ADD DUP1 DUP4 GT PUSH2 0x727 JUMPI DUP3 SWAP1 SUB PUSH1 0x1F AND DUP3 ADD SWAP2 JUMPDEST POP POP POP POP POP DUP2 MSTORE PUSH1 0x20 ADD PUSH1 0x5 DUP3 ADD DUP1 SLOAD PUSH2 0x75D SWAP1 PUSH2 0x2677 JUMP JUMPDEST DUP1 PUSH1 0x1F ADD PUSH1 0x20 DUP1 SWAP2 DIV MUL PUSH1 0x20 ADD PUSH1 0x40 MLOAD SWAP1 DUP2 ADD PUSH1 0x40 MSTORE DUP1 SWAP3 SWAP2 SWAP1 DUP2 DUP2 MSTORE PUSH1 0x20 ADD DUP3 DUP1 SLOAD PUSH2 0x789 SWAP1 PUSH2 0x2677 JUMP JUMPDEST DUP1 ISZERO PUSH2 0x7D6 JUMPI DUP1 PUSH1 0x1F LT PUSH2 0x7AB JUMPI PUSH2 0x100 DUP1 DUP4 SLOAD DIV MUL DUP4 MSTORE SWAP2 PUSH1 0x20 ADD SWAP2 PUSH2 0x7D6 JUMP JUMPDEST DUP3 ADD SWAP2 SWAP1 PUSH1 0x0 MSTORE PUSH1 0x20 PUSH1 0x0 KECCAK256 SWAP1 JUMPDEST DUP2 SLOAD DUP2 MSTORE SWAP1 PUSH1 0x1 ADD SWAP1 PUSH1 0x20 ADD DUP1 DUP4 GT PUSH2 0x7B9 JUMPI DUP3 SWAP1 SUB PUSH1 0x1F AND DUP3 ADD SWAP2 JUMPDEST POP POP POP POP POP DUP2 MSTORE PUSH1 0x20 ADD PUSH1 0x6 DUP3 ADD DUP1 SLOAD PUSH2 0x7EF SWAP1 PUSH2 0x2677 JUMP JUMPDEST DUP1 PUSH1 0x1F ADD PUSH1 0x20 DUP1 SWAP2 DIV MUL PUSH1 0x20 ADD PUSH1 0x40 MLOAD SWAP1 DUP2 ADD PUSH1 0x40 MSTORE DUP1 SWAP3 SWAP2 SWAP1 DUP2 DUP2 MSTORE PUSH1 0x20 ADD DUP3 DUP1 SLOAD PUSH2 0x81B SWAP1 PUSH2 0x2677 JUMP JUMPDEST DUP1 ISZERO PUSH2 0x868 JUMPI DUP1 PUSH1 0x1F LT PUSH2 0x83D JUMPI PUSH2 0x100 DUP1 DUP4 SLOAD DIV MUL DUP4 MSTORE SWAP2 PUSH1 0x20 ADD SWAP2 PUSH2 0x868 JUMP JUMPDEST DUP3 ADD SWAP2 SWAP1 PUSH1 0x0 MSTORE PUSH1 0x20 PUSH1 0x0 KECCAK256 SWAP1 JUMPDEST DUP2 SLOAD DUP2 MSTORE SWAP1 PUSH1 0x1 ADD SWAP1 PUSH1 0x20 ADD DUP1 DUP4 GT PUSH2 0x84B JUMPI DUP3 SWAP1 SUB PUSH1 0x1F AND DUP3 ADD SWAP2 JUMPDEST POP POP POP POP POP DUP2 MSTORE PUSH1 0x20 ADD PUSH1 0x7 DUP3 ADD PUSH1 0x0 SWAP1 SLOAD SWAP1 PUSH2 0x100 EXP SWAP1 DIV PUSH20 0xFFFFFFFFFFFFFFFFFFFFFFFFFFFFFFFFFFFFFFFF AND PUSH20 0xFFFFFFFFFFFFFFFFFFFFFFFFFFFFFFFFFFFFFFFF AND PUSH20 0xFFFFFFFFFFFFFFFFFFFFFFFFFFFFFFFFFFFFFFFF AND DUP2 MSTORE POP POP DUP2 MSTORE PUSH1 0x20 ADD SWAP1 PUSH1 0x1 ADD SWAP1 PUSH2 0x44F JUMP JUMPDEST POP POP POP POP SWAP1 POP PUSH1 0x0 JUMPDEST DUP2 MLOAD DUP2 LT DUP1 ISZERO PUSH2 0x8FA JUMPI POP PUSH1 0xA DUP7 PUSH2 0x8F7 SWAP2 SWAP1 PUSH2 0x25D7 JUMP JUMPDEST DUP5 LT JUMPDEST ISZERO PUSH2 0x959 JUMPI DUP2 DUP2 DUP2 MLOAD DUP2 LT PUSH2 0x912 JUMPI PUSH2 0x911 PUSH2 0x2619 JUMP JUMPDEST JUMPDEST PUSH1 0x20 MUL PUSH1 0x20 ADD ADD MLOAD DUP6 DUP6 DUP2 MLOAD DUP2 LT PUSH2 0x92D JUMPI PUSH2 0x92C PUSH2 0x2619 JUMP JUMPDEST JUMPDEST PUSH1 0x20 MUL PUSH1 0x20 ADD ADD DUP2 SWAP1 MSTORE POP DUP4 DUP1 PUSH2 0x943 SWAP1 PUSH2 0x26A8 JUMP JUMPDEST SWAP5 POP POP DUP1 DUP1 PUSH2 0x951 SWAP1 PUSH2 0x26A8 JUMP JUMPDEST SWAP2 POP POP PUSH2 0x8DF JUMP JUMPDEST POP POP DUP1 DUP1 PUSH2 0x966 SWAP1 PUSH2 0x26A8 JUMP JUMPDEST SWAP2 POP POP PUSH2 0x3A3 JUMP JUMPDEST POP DUP2 SWAP4 POP POP POP POP SWAP2 SWAP1 POP JUMP JUMPDEST PUSH1 0x2 DUP2 DUP2 SLOAD DUP2 LT PUSH2 0x98A JUMPI PUSH1 0x0 DUP1 REVERT JUMPDEST SWAP1 PUSH1 0x0 MSTORE PUSH1 0x20 PUSH1 0x0 KECCAK256 ADD PUSH1 0x0 SWAP2 POP SLOAD SWAP1 PUSH2 0x100 EXP SWAP1 DIV PUSH20 0xFFFFFFFFFFFFFFFFFFFFFFFFFFFFFFFFFFFFFFFF AND DUP2 JUMP JUMPDEST PUSH1 0x1 PUSH1 0x20 MSTORE DUP2 PUSH1 0x0 MSTORE PUSH1 0x40 PUSH1 0x0 KECCAK256 DUP2 DUP2 SLOAD DUP2 LT PUSH2 0x9D5 JUMPI PUSH1 0x0 DUP1 REVERT JUMPDEST SWAP1 PUSH1 0x0 MSTORE PUSH1 0x20 PUSH1 0x0 KECCAK256 SWAP1 PUSH1 0x8 MUL ADD PUSH1 0x0 SWAP2 POP SWAP2 POP POP DUP1 PUSH1 0x0 ADD DUP1 SLOAD PUSH2 0x9F9 SWAP1 PUSH2 0x2677 JUMP JUMPDEST DUP1 PUSH1 0x1F ADD PUSH1 0x20 DUP1 SWAP2 DIV MUL PUSH1 0x20 ADD PUSH1 0x40 MLOAD SWAP1 DUP2 ADD PUSH1 0x40 MSTORE DUP1 SWAP3 SWAP2 SWAP1 DUP2 DUP2 MSTORE PUSH1 0x20 ADD DUP3 DUP1 SLOAD PUSH2 0xA25 SWAP1 PUSH2 0x2677 JUMP JUMPDEST DUP1 ISZERO PUSH2 0xA72 JUMPI DUP1 PUSH1 0x1F LT PUSH2 0xA47 JUMPI PUSH2 0x100 DUP1 DUP4 SLOAD DIV MUL DUP4 MSTORE SWAP2 PUSH1 0x20 ADD SWAP2 PUSH2 0xA72 JUMP JUMPDEST DUP3 ADD SWAP2 SWAP1 PUSH1 0x0 MSTORE PUSH1 0x20 PUSH1 0x0 KECCAK256 SWAP1 JUMPDEST DUP2 SLOAD DUP2 MSTORE SWAP1 PUSH1 0x1 ADD SWAP1 PUSH1 0x20 ADD DUP1 DUP4 GT PUSH2 0xA55 JUMPI DUP3 SWAP1 SUB PUSH1 0x1F AND DUP3 ADD SWAP2 JUMPDEST POP POP POP POP POP SWAP1 DUP1 PUSH1 0x1 ADD DUP1 SLOAD PUSH2 0xA87 SWAP1 PUSH2 0x2677 JUMP JUMPDEST DUP1 PUSH1 0x1F ADD PUSH1 0x20 DUP1 SWAP2 DIV MUL PUSH1 0x20 ADD PUSH1 0x40 MLOAD SWAP1 DUP2 ADD PUSH1 0x40 MSTORE DUP1 SWAP3 SWAP2 SWAP1 DUP2 DUP2 MSTORE PUSH1 0x20 ADD DUP3 DUP1 SLOAD PUSH2 0xAB3 SWAP1 PUSH2 0x2677 JUMP JUMPDEST DUP1 ISZERO PUSH2 0xB00 JUMPI DUP1 PUSH1 0x1F LT PUSH2 0xAD5 JUMPI PUSH2 0x100 DUP1 DUP4 SLOAD DIV MUL DUP4 MSTORE SWAP2 PUSH1 0x20 ADD SWAP2 PUSH2 0xB00 JUMP JUMPDEST DUP3 ADD SWAP2 SWAP1 PUSH1 0x0 MSTORE PUSH1 0x20 PUSH1 0x0 KECCAK256 SWAP1 JUMPDEST DUP2 SLOAD DUP2 MSTORE SWAP1 PUSH1 0x1 ADD SWAP1 PUSH1 0x20 ADD DUP1 DUP4 GT PUSH2 0xAE3 JUMPI DUP3 SWAP1 SUB PUSH1 0x1F AND DUP3 ADD SWAP2 JUMPDEST POP POP POP POP POP SWAP1 DUP1 PUSH1 0x2 ADD DUP1 SLOAD PUSH2 0xB15 SWAP1 PUSH2 0x2677 JUMP JUMPDEST DUP1 PUSH1 0x1F ADD PUSH1 0x20 DUP1 SWAP2 DIV MUL PUSH1 0x20 ADD PUSH1 0x40 MLOAD SWAP1 DUP2 ADD PUSH1 0x40 MSTORE DUP1 SWAP3 SWAP2 SWAP1 DUP2 DUP2 MSTORE PUSH1 0x20 ADD DUP3 DUP1 SLOAD PUSH2 0xB41 SWAP1 PUSH2 0x2677 JUMP JUMPDEST DUP1 ISZERO PUSH2 0xB8E JUMPI DUP1 PUSH1 0x1F LT PUSH2 0xB63 JUMPI PUSH2 0x100 DUP1 DUP4 SLOAD DIV MUL DUP4 MSTORE SWAP2 PUSH1 0x20 ADD SWAP2 PUSH2 0xB8E JUMP JUMPDEST DUP3 ADD SWAP2 SWAP1 PUSH1 0x0 MSTORE PUSH1 0x20 PUSH1 0x0 KECCAK256 SWAP1 JUMPDEST DUP2 SLOAD DUP2 MSTORE SWAP1 PUSH1 0x1 ADD SWAP1 PUSH1 0x20 ADD DUP1 DUP4 GT PUSH2 0xB71 JUMPI DUP3 SWAP1 SUB PUSH1 0x1F AND DUP3 ADD SWAP2 JUMPDEST POP POP POP POP POP SWAP1 DUP1 PUSH1 0x3 ADD DUP1 SLOAD PUSH2 0xBA3 SWAP1 PUSH2 0x2677 JUMP JUMPDEST DUP1 PUSH1 0x1F ADD PUSH1 0x20 DUP1 SWAP2 DIV MUL PUSH1 0x20 ADD PUSH1 0x40 MLOAD SWAP1 DUP2 ADD PUSH1 0x40 MSTORE DUP1 SWAP3 SWAP2 SWAP1 DUP2 DUP2 MSTORE PUSH1 0x20 ADD DUP3 DUP1 SLOAD PUSH2 0xBCF SWAP1 PUSH2 0x2677 JUMP JUMPDEST DUP1 ISZERO PUSH2 0xC1C JUMPI DUP1 PUSH1 0x1F LT PUSH2 0xBF1 JUMPI PUSH2 0x100 DUP1 DUP4 SLOAD DIV MUL DUP4 MSTORE SWAP2 PUSH1 0x20 ADD SWAP2 PUSH2 0xC1C JUMP JUMPDEST DUP3 ADD SWAP2 SWAP1 PUSH1 0x0 MSTORE PUSH1 0x20 PUSH1 0x0 KECCAK256 SWAP1 JUMPDEST DUP2 SLOAD DUP2 MSTORE SWAP1 PUSH1 0x1 ADD SWAP1 PUSH1 0x20 ADD DUP1 DUP4 GT PUSH2 0xBFF JUMPI DUP3 SWAP1 SUB PUSH1 0x1F AND DUP3 ADD SWAP2 JUMPDEST POP POP POP POP POP SWAP1 DUP1 PUSH1 0x4 ADD DUP1 SLOAD PUSH2 0xC31 SWAP1 PUSH2 0x2677 JUMP JUMPDEST DUP1 PUSH1 0x1F ADD PUSH1 0x20 DUP1 SWAP2 DIV MUL PUSH1 0x20 ADD PUSH1 0x40 MLOAD SWAP1 DUP2 ADD PUSH1 0x40 MSTORE DUP1 SWAP3 SWAP2 SWAP1 DUP2 DUP2 MSTORE PUSH1 0x20 ADD DUP3 DUP1 SLOAD PUSH2 0xC5D SWAP1 PUSH2 0x2677 JUMP JUMPDEST DUP1 ISZERO PUSH2 0xCAA JUMPI DUP1 PUSH1 0x1F LT PUSH2 0xC7F JUMPI PUSH2 0x100 DUP1 DUP4 SLOAD DIV MUL DUP4 MSTORE SWAP2 PUSH1 0x20 ADD SWAP2 PUSH2 0xCAA JUMP JUMPDEST DUP3 ADD SWAP2 SWAP1 PUSH1 0x0 MSTORE PUSH1 0x20 PUSH1 0x0 KECCAK256 SWAP1 JUMPDEST DUP2 SLOAD DUP2 MSTORE SWAP1 PUSH1 0x1 ADD SWAP1 PUSH1 0x20 ADD DUP1 DUP4 GT PUSH2 0xC8D JUMPI DUP3 SWAP1 SUB PUSH1 0x1F AND DUP3 ADD SWAP2 JUMPDEST POP POP POP POP POP SWAP1 DUP1 PUSH1 0x5 ADD DUP1 SLOAD PUSH2 0xCBF SWAP1 PUSH2 0x2677 JUMP JUMPDEST DUP1 PUSH1 0x1F ADD PUSH1 0x20 DUP1 SWAP2 DIV MUL PUSH1 0x20 ADD PUSH1 0x40 MLOAD SWAP1 DUP2 ADD PUSH1 0x40 MSTORE DUP1 SWAP3 SWAP2 SWAP1 DUP2 DUP2 MSTORE PUSH1 0x20 ADD DUP3 DUP1 SLOAD PUSH2 0xCEB SWAP1 PUSH2 0x2677 JUMP JUMPDEST DUP1 ISZERO PUSH2 0xD38 JUMPI DUP1 PUSH1 0x1F LT PUSH2 0xD0D JUMPI PUSH2 0x100 DUP1 DUP4 SLOAD DIV MUL DUP4 MSTORE SWAP2 PUSH1 0x20 ADD SWAP2 PUSH2 0xD38 JUMP JUMPDEST DUP3 ADD SWAP2 SWAP1 PUSH1 0x0 MSTORE PUSH1 0x20 PUSH1 0x0 KECCAK256 SWAP1 JUMPDEST DUP2 SLOAD DUP2 MSTORE SWAP1 PUSH1 0x1 ADD SWAP1 PUSH1 0x20 ADD DUP1 DUP4 GT PUSH2 0xD1B JUMPI DUP3 SWAP1 SUB PUSH1 0x1F AND DUP3 ADD SWAP2 JUMPDEST POP POP POP POP POP SWAP1 DUP1 PUSH1 0x6 ADD DUP1 SLOAD PUSH2 0xD4D SWAP1 PUSH2 0x2677 JUMP JUMPDEST DUP1 PUSH1 0x1F ADD PUSH1 0x20 DUP1 SWAP2 DIV MUL PUSH1 0x20 ADD PUSH1 0x40 MLOAD SWAP1 DUP2 ADD PUSH1 0x40 MSTORE DUP1 SWAP3 SWAP2 SWAP1 DUP2 DUP2 MSTORE PUSH1 0x20 ADD DUP3 DUP1 SLOAD PUSH2 0xD79 SWAP1 PUSH2 0x2677 JUMP JUMPDEST DUP1 ISZERO PUSH2 0xDC6 JUMPI DUP1 PUSH1 0x1F LT PUSH2 0xD9B JUMPI PUSH2 0x100 DUP1 DUP4 SLOAD DIV MUL DUP4 MSTORE SWAP2 PUSH1 0x20 ADD SWAP2 PUSH2 0xDC6 JUMP JUMPDEST DUP3 ADD SWAP2 SWAP1 PUSH1 0x0 MSTORE PUSH1 0x20 PUSH1 0x0 KECCAK256 SWAP1 JUMPDEST DUP2 SLOAD DUP2 MSTORE SWAP1 PUSH1 0x1 ADD SWAP1 PUSH1 0x20 ADD DUP1 DUP4 GT PUSH2 0xDA9 JUMPI DUP3 SWAP1 SUB PUSH1 0x1F AND DUP3 ADD SWAP2 JUMPDEST POP POP POP POP POP SWAP1 DUP1 PUSH1 0x7 ADD PUSH1 0x0 SWAP1 SLOAD SWAP1 PUSH2 0x100 EXP SWAP1 DIV PUSH20 0xFFFFFFFFFFFFFFFFFFFFFFFFFFFFFFFFFFFFFFFF AND SWAP1 POP DUP9 JUMP JUMPDEST PUSH1 0x0 DUP1 SLOAD SWAP1 PUSH2 0x100 EXP SWAP1 DIV PUSH20 0xFFFFFFFFFFFFFFFFFFFFFFFFFFFFFFFFFFFFFFFF AND DUP2 JUMP JUMPDEST PUSH1 0x0 DUP1 SLOAD SWAP1 PUSH2 0x100 EXP SWAP1 DIV PUSH20 0xFFFFFFFFFFFFFFFFFFFFFFFFFFFFFFFFFFFFFFFF AND PUSH20 0xFFFFFFFFFFFFFFFFFFFFFFFFFFFFFFFFFFFFFFFF AND PUSH4 0x24D7806C CALLER PUSH1 0x40 MLOAD DUP3 PUSH4 0xFFFFFFFF AND PUSH1 0xE0 SHL DUP2 MSTORE PUSH1 0x4 ADD PUSH2 0xE73 SWAP2 SWAP1 PUSH2 0x1E50 JUMP JUMPDEST PUSH1 0x20 PUSH1 0x40 MLOAD DUP1 DUP4 SUB DUP2 DUP7 GAS STATICCALL ISZERO DUP1 ISZERO PUSH2 0xE90 JUMPI RETURNDATASIZE PUSH1 0x0 DUP1 RETURNDATACOPY RETURNDATASIZE PUSH1 0x0 REVERT JUMPDEST POP POP POP POP PUSH1 0x40 MLOAD RETURNDATASIZE PUSH1 0x1F NOT PUSH1 0x1F DUP3 ADD AND DUP3 ADD DUP1 PUSH1 0x40 MSTORE POP DUP2 ADD SWAP1 PUSH2 0xEB4 SWAP2 SWAP1 PUSH2 0x24E9 JUMP JUMPDEST DUP1 PUSH2 0xF55 JUMPI POP PUSH1 0x0 DUP1 SLOAD SWAP1 PUSH2 0x100 EXP SWAP1 DIV PUSH20 0xFFFFFFFFFFFFFFFFFFFFFFFFFFFFFFFFFFFFFFFF AND PUSH20 0xFFFFFFFFFFFFFFFFFFFFFFFFFFFFFFFFFFFFFFFF AND PUSH4 0x5C4C9348 CALLER PUSH1 0x40 MLOAD DUP3 PUSH4 0xFFFFFFFF AND PUSH1 0xE0 SHL DUP2 MSTORE PUSH1 0x4 ADD PUSH2 0xF13 SWAP2 SWAP1 PUSH2 0x1E50 JUMP JUMPDEST PUSH1 0x20 PUSH1 0x40 MLOAD DUP1 DUP4 SUB DUP2 DUP7 GAS STATICCALL ISZERO DUP1 ISZERO PUSH2 0xF30 JUMPI RETURNDATASIZE PUSH1 0x0 DUP1 RETURNDATACOPY RETURNDATASIZE PUSH1 0x0 REVERT JUMPDEST POP POP POP POP PUSH1 0x40 MLOAD RETURNDATASIZE PUSH1 0x1F NOT PUSH1 0x1F DUP3 ADD AND DUP3 ADD DUP1 PUSH1 0x40 MSTORE POP DUP2 ADD SWAP1 PUSH2 0xF54 SWAP2 SWAP1 PUSH2 0x24E9 JUMP JUMPDEST JUMPDEST PUSH2 0xF94 JUMPI PUSH1 0x40 MLOAD PUSH32 0x8C379A000000000000000000000000000000000000000000000000000000000 DUP2 MSTORE PUSH1 0x4 ADD PUSH2 0xF8B SWAP1 PUSH2 0x2588 JUMP JUMPDEST PUSH1 0x40 MLOAD DUP1 SWAP2 SUB SWAP1 REVERT JUMPDEST PUSH1 0x3 SLOAD DUP9 LT PUSH2 0xFD8 JUMPI PUSH1 0x40 MLOAD PUSH32 0x8C379A000000000000000000000000000000000000000000000000000000000 DUP2 MSTORE PUSH1 0x4 ADD PUSH2 0xFCF SWAP1 PUSH2 0x273C JUMP JUMPDEST PUSH1 0x40 MLOAD DUP1 SWAP2 SUB SWAP1 REVERT JUMPDEST PUSH1 0x40 MLOAD DUP1 PUSH2 0x100 ADD PUSH1 0x40 MSTORE DUP1 DUP9 DUP2 MSTORE PUSH1 0x20 ADD DUP8 DUP2 MSTORE PUSH1 0x20 ADD DUP7 DUP2 MSTORE PUSH1 0x20 ADD DUP6 DUP2 MSTORE PUSH1 0x20 ADD DUP5 DUP2 MSTORE PUSH1 0x20 ADD DUP4 DUP2 MSTORE PUSH1 0x20 ADD DUP3 DUP2 MSTORE PUSH1 0x20 ADD DUP11 PUSH20 0xFFFFFFFFFFFFFFFFFFFFFFFFFFFFFFFFFFFFFFFF AND DUP2 MSTORE POP PUSH1 0x1 PUSH1 0x0 DUP12 PUSH20 0xFFFFFFFFFFFFFFFFFFFFFFFFFFFFFFFFFFFFFFFF AND PUSH20 0xFFFFFFFFFFFFFFFFFFFFFFFFFFFFFFFFFFFFFFFF AND DUP2 MSTORE PUSH1 0x20 ADD SWAP1 DUP2 MSTORE PUSH1 0x20 ADD PUSH1 0x0 KECCAK256 DUP10 DUP2 SLOAD DUP2 LT PUSH2 0x1079 JUMPI PUSH2 0x1078 PUSH2 0x2619 JUMP JUMPDEST JUMPDEST SWAP1 PUSH1 0x0 MSTORE PUSH1 0x20 PUSH1 0x0 KECCAK256 SWAP1 PUSH1 0x8 MUL ADD PUSH1 0x0 DUP3 ADD MLOAD DUP2 PUSH1 0x0 ADD SWAP1 DUP2 PUSH2 0x109C SWAP2 SWAP1 PUSH2 0x28FE JUMP JUMPDEST POP PUSH1 0x20 DUP3 ADD MLOAD DUP2 PUSH1 0x1 ADD SWAP1 DUP2 PUSH2 0x10B2 SWAP2 SWAP1 PUSH2 0x28FE JUMP JUMPDEST POP PUSH1 0x40 DUP3 ADD MLOAD DUP2 PUSH1 0x2 ADD SWAP1 DUP2 PUSH2 0x10C8 SWAP2 SWAP1 PUSH2 0x28FE JUMP JUMPDEST POP PUSH1 0x60 DUP3 ADD MLOAD DUP2 PUSH1 0x3 ADD SWAP1 DUP2 PUSH2 0x10DE SWAP2 SWAP1 PUSH2 0x28FE JUMP JUMPDEST POP PUSH1 0x80 DUP3 ADD MLOAD DUP2 PUSH1 0x4 ADD SWAP1 DUP2 PUSH2 0x10F4 SWAP2 SWAP1 PUSH2 0x28FE JUMP JUMPDEST POP PUSH1 0xA0 DUP3 ADD MLOAD DUP2 PUSH1 0x5 ADD SWAP1 DUP2 PUSH2 0x110A SWAP2 SWAP1 PUSH2 0x28FE JUMP JUMPDEST POP PUSH1 0xC0 DUP3 ADD MLOAD DUP2 PUSH1 0x6 ADD SWAP1 DUP2 PUSH2 0x1120 SWAP2 SWAP1 PUSH2 0x28FE JUMP JUMPDEST POP PUSH1 0xE0 DUP3 ADD MLOAD DUP2 PUSH1 0x7 ADD PUSH1 0x0 PUSH2 0x100 EXP DUP2 SLOAD DUP2 PUSH20 0xFFFFFFFFFFFFFFFFFFFFFFFFFFFFFFFFFFFFFFFF MUL NOT AND SWAP1 DUP4 PUSH20 0xFFFFFFFFFFFFFFFFFFFFFFFFFFFFFFFFFFFFFFFF AND MUL OR SWAP1 SSTORE POP SWAP1 POP POP POP POP POP POP POP POP POP POP POP JUMP JUMPDEST PUSH1 0x60 PUSH1 0x0 DUP1 SLOAD SWAP1 PUSH2 0x100 EXP SWAP1 DIV PUSH20 0xFFFFFFFFFFFFFFFFFFFFFFFFFFFFFFFFFFFFFFFF AND PUSH20 0xFFFFFFFFFFFFFFFFFFFFFFFFFFFFFFFFFFFFFFFF AND PUSH4 0x1132BEB5 CALLER PUSH1 0x40 MLOAD DUP3 PUSH4 0xFFFFFFFF AND PUSH1 0xE0 SHL DUP2 MSTORE PUSH1 0x4 ADD PUSH2 0x11D1 SWAP2 SWAP1 PUSH2 0x1E50 JUMP JUMPDEST PUSH1 0x20 PUSH1 0x40 MLOAD DUP1 DUP4 SUB DUP2 DUP7 GAS STATICCALL ISZERO DUP1 ISZERO PUSH2 0x11EE JUMPI RETURNDATASIZE PUSH1 0x0 DUP1 RETURNDATACOPY RETURNDATASIZE PUSH1 0x0 REVERT JUMPDEST POP POP POP POP PUSH1 0x40 MLOAD RETURNDATASIZE PUSH1 0x1F NOT PUSH1 0x1F DUP3 ADD AND DUP3 ADD DUP1 PUSH1 0x40 MSTORE POP DUP2 ADD SWAP1 PUSH2 0x1212 SWAP2 SWAP1 PUSH2 0x24E9 JUMP JUMPDEST PUSH2 0x1251 JUMPI PUSH1 0x40 MLOAD PUSH32 0x8C379A000000000000000000000000000000000000000000000000000000000 DUP2 MSTORE PUSH1 0x4 ADD PUSH2 0x1248 SWAP1 PUSH2 0x2A42 JUMP JUMPDEST PUSH1 0x40 MLOAD DUP1 SWAP2 SUB SWAP1 REVERT JUMPDEST PUSH1 0x1 PUSH1 0x0 CALLER PUSH20 0xFFFFFFFFFFFFFFFFFFFFFFFFFFFFFFFFFFFFFFFF AND PUSH20 0xFFFFFFFFFFFFFFFFFFFFFFFFFFFFFFFFFFFFFFFF AND DUP2 MSTORE PUSH1 0x20 ADD SWAP1 DUP2 MSTORE PUSH1 0x20 ADD PUSH1 0x0 KECCAK256 DUP1 SLOAD DUP1 PUSH1 0x20 MUL PUSH1 0x20 ADD PUSH1 0x40 MLOAD SWAP1 DUP2 ADD PUSH1 0x40 MSTORE DUP1 SWAP3 SWAP2 SWAP1 DUP2 DUP2 MSTORE PUSH1 0x20 ADD PUSH1 0x0 SWAP1 JUMPDEST DUP3 DUP3 LT ISZERO PUSH2 0x1737 JUMPI DUP4 DUP3 SWAP1 PUSH1 0x0 MSTORE PUSH1 0x20 PUSH1 0x0 KECCAK256 SWAP1 PUSH1 0x8 MUL ADD PUSH1 0x40 MLOAD DUP1 PUSH2 0x100 ADD PUSH1 0x40 MSTORE SWAP1 DUP2 PUSH1 0x0 DUP3 ADD DUP1 SLOAD PUSH2 0x12E4 SWAP1 PUSH2 0x2677 JUMP JUMPDEST DUP1 PUSH1 0x1F ADD PUSH1 0x20 DUP1 SWAP2 DIV MUL PUSH1 0x20 ADD PUSH1 0x40 MLOAD SWAP1 DUP2 ADD PUSH1 0x40 MSTORE DUP1 SWAP3 SWAP2 SWAP1 DUP2 DUP2 MSTORE PUSH1 0x20 ADD DUP3 DUP1 SLOAD PUSH2 0x1310 SWAP1 PUSH2 0x2677 JUMP JUMPDEST DUP1 ISZERO PUSH2 0x135D JUMPI DUP1 PUSH1 0x1F LT PUSH2 0x1332 JUMPI PUSH2 0x100 DUP1 DUP4 SLOAD DIV MUL DUP4 MSTORE SWAP2 PUSH1 0x20 ADD SWAP2 PUSH2 0x135D JUMP JUMPDEST DUP3 ADD SWAP2 SWAP1 PUSH1 0x0 MSTORE PUSH1 0x20 PUSH1 0x0 KECCAK256 SWAP1 JUMPDEST DUP2 SLOAD DUP2 MSTORE SWAP1 PUSH1 0x1 ADD SWAP1 PUSH1 0x20 ADD DUP1 DUP4 GT PUSH2 0x1340 JUMPI DUP3 SWAP1 SUB PUSH1 0x1F AND DUP3 ADD SWAP2 JUMPDEST POP POP POP POP POP DUP2 MSTORE PUSH1 0x20 ADD PUSH1 0x1 DUP3 ADD DUP1 SLOAD PUSH2 0x1376 SWAP1 PUSH2 0x2677 JUMP JUMPDEST DUP1 PUSH1 0x1F ADD PUSH1 0x20 DUP1 SWAP2 DIV MUL PUSH1 0x20 ADD PUSH1 0x40 MLOAD SWAP1 DUP2 ADD PUSH1 0x40 MSTORE DUP1 SWAP3 SWAP2 SWAP1 DUP2 DUP2 MSTORE PUSH1 0x20 ADD DUP3 DUP1 SLOAD PUSH2 0x13A2 SWAP1 PUSH2 0x2677 JUMP JUMPDEST DUP1 ISZERO PUSH2 0x13EF JUMPI DUP1 PUSH1 0x1F LT PUSH2 0x13C4 JUMPI PUSH2 0x100 DUP1 DUP4 SLOAD DIV MUL DUP4 MSTORE SWAP2 PUSH1 0x20 ADD SWAP2 PUSH2 0x13EF JUMP JUMPDEST DUP3 ADD SWAP2 SWAP1 PUSH1 0x0 MSTORE PUSH1 0x20 PUSH1 0x0 KECCAK256 SWAP1 JUMPDEST DUP2 SLOAD DUP2 MSTORE SWAP1 PUSH1 0x1 ADD SWAP1 PUSH1 0x20 ADD DUP1 DUP4 GT PUSH2 0x13D2 JUMPI DUP3 SWAP1 SUB PUSH1 0x1F AND DUP3 ADD SWAP2 JUMPDEST POP POP POP POP POP DUP2 MSTORE PUSH1 0x20 ADD PUSH1 0x2 DUP3 ADD DUP1 SLOAD PUSH2 0x1408 SWAP1 PUSH2 0x2677 JUMP JUMPDEST DUP1 PUSH1 0x1F ADD PUSH1 0x20 DUP1 SWAP2 DIV MUL PUSH1 0x20 ADD PUSH1 0x40 MLOAD SWAP1 DUP2 ADD PUSH1 0x40 MSTORE DUP1 SWAP3 SWAP2 SWAP1 DUP2 DUP2 MSTORE PUSH1 0x20 ADD DUP3 DUP1 SLOAD PUSH2 0x1434 SWAP1 PUSH2 0x2677 JUMP JUMPDEST DUP1 ISZERO PUSH2 0x1481 JUMPI DUP1 PUSH1 0x1F LT PUSH2 0x1456 JUMPI PUSH2 0x100 DUP1 DUP4 SLOAD DIV MUL DUP4 MSTORE SWAP2 PUSH1 0x20 ADD SWAP2 PUSH2 0x1481 JUMP JUMPDEST DUP3 ADD SWAP2 SWAP1 PUSH1 0x0 MSTORE PUSH1 0x20 PUSH1 0x0 KECCAK256 SWAP1 JUMPDEST DUP2 SLOAD DUP2 MSTORE SWAP1 PUSH1 0x1 ADD SWAP1 PUSH1 0x20 ADD DUP1 DUP4 GT PUSH2 0x1464 JUMPI DUP3 SWAP1 SUB PUSH1 0x1F AND DUP3 ADD SWAP2 JUMPDEST POP POP POP POP POP DUP2 MSTORE PUSH1 0x20 ADD PUSH1 0x3 DUP3 ADD DUP1 SLOAD PUSH2 0x149A SWAP1 PUSH2 0x2677 JUMP JUMPDEST DUP1 PUSH1 0x1F ADD PUSH1 0x20 DUP1 SWAP2 DIV MUL PUSH1 0x20 ADD PUSH1 0x40 MLOAD SWAP1 DUP2 ADD PUSH1 0x40 MSTORE DUP1 SWAP3 SWAP2 SWAP1 DUP2 DUP2 MSTORE PUSH1 0x20 ADD DUP3 DUP1 SLOAD PUSH2 0x14C6 SWAP1 PUSH2 0x2677 JUMP JUMPDEST DUP1 ISZERO PUSH2 0x1513 JUMPI DUP1 PUSH1 0x1F LT PUSH2 0x14E8 JUMPI PUSH2 0x100 DUP1 DUP4 SLOAD DIV MUL DUP4 MSTORE SWAP2 PUSH1 0x20 ADD SWAP2 PUSH2 0x1513 JUMP JUMPDEST DUP3 ADD SWAP2 SWAP1 PUSH1 0x0 MSTORE PUSH1 0x20 PUSH1 0x0 KECCAK256 SWAP1 JUMPDEST DUP2 SLOAD DUP2 MSTORE SWAP1 PUSH1 0x1 ADD SWAP1 PUSH1 0x20 ADD DUP1 DUP4 GT PUSH2 0x14F6 JUMPI DUP3 SWAP1 SUB PUSH1 0x1F AND DUP3 ADD SWAP2 JUMPDEST POP POP POP POP POP DUP2 MSTORE PUSH1 0x20 ADD PUSH1 0x4 DUP3 ADD DUP1 SLOAD PUSH2 0x152C SWAP1 PUSH2 0x2677 JUMP JUMPDEST DUP1 PUSH1 0x1F ADD PUSH1 0x20 DUP1 SWAP2 DIV MUL PUSH1 0x20 ADD PUSH1 0x40 MLOAD SWAP1 DUP2 ADD PUSH1 0x40 MSTORE DUP1 SWAP3 SWAP2 SWAP1 DUP2 DUP2 MSTORE PUSH1 0x20 ADD DUP3 DUP1 SLOAD PUSH2 0x1558 SWAP1 PUSH2 0x2677 JUMP JUMPDEST DUP1 ISZERO PUSH2 0x15A5 JUMPI DUP1 PUSH1 0x1F LT PUSH2 0x157A JUMPI PUSH2 0x100 DUP1 DUP4 SLOAD DIV MUL DUP4 MSTORE SWAP2 PUSH1 0x20 ADD SWAP2 PUSH2 0x15A5 JUMP JUMPDEST DUP3 ADD SWAP2 SWAP1 PUSH1 0x0 MSTORE PUSH1 0x20 PUSH1 0x0 KECCAK256 SWAP1 JUMPDEST DUP2 SLOAD DUP2 MSTORE SWAP1 PUSH1 0x1 ADD SWAP1 PUSH1 0x20 ADD DUP1 DUP4 GT PUSH2 0x1588 JUMPI DUP3 SWAP1 SUB PUSH1 0x1F AND DUP3 ADD SWAP2 JUMPDEST POP POP POP POP POP DUP2 MSTORE PUSH1 0x20 ADD PUSH1 0x5 DUP3 ADD DUP1 SLOAD PUSH2 0x15BE SWAP1 PUSH2 0x2677 JUMP JUMPDEST DUP1 PUSH1 0x1F ADD PUSH1 0x20 DUP1 SWAP2 DIV MUL PUSH1 0x20 ADD PUSH1 0x40 MLOAD SWAP1 DUP2 ADD PUSH1 0x40 MSTORE DUP1 SWAP3 SWAP2 SWAP1 DUP2 DUP2 MSTORE PUSH1 0x20 ADD DUP3 DUP1 SLOAD PUSH2 0x15EA SWAP1 PUSH2 0x2677 JUMP JUMPDEST DUP1 ISZERO PUSH2 0x1637 JUMPI DUP1 PUSH1 0x1F LT PUSH2 0x160C JUMPI PUSH2 0x100 DUP1 DUP4 SLOAD DIV MUL DUP4 MSTORE SWAP2 PUSH1 0x20 ADD SWAP2 PUSH2 0x1637 JUMP JUMPDEST DUP3 ADD SWAP2 SWAP1 PUSH1 0x0 MSTORE PUSH1 0x20 PUSH1 0x0 KECCAK256 SWAP1 JUMPDEST DUP2 SLOAD DUP2 MSTORE SWAP1 PUSH1 0x1 ADD SWAP1 PUSH1 0x20 ADD DUP1 DUP4 GT PUSH2 0x161A JUMPI DUP3 SWAP1 SUB PUSH1 0x1F AND DUP3 ADD SWAP2 JUMPDEST POP POP POP POP POP DUP2 MSTORE PUSH1 0x20 ADD PUSH1 0x6 DUP3 ADD DUP1 SLOAD PUSH2 0x1650 SWAP1 PUSH2 0x2677 JUMP JUMPDEST DUP1 PUSH1 0x1F ADD PUSH1 0x20 DUP1 SWAP2 DIV MUL PUSH1 0x20 ADD PUSH1 0x40 MLOAD SWAP1 DUP2 ADD PUSH1 0x40 MSTORE DUP1 SWAP3 SWAP2 SWAP1 DUP2 DUP2 MSTORE PUSH1 0x20 ADD DUP3 DUP1 SLOAD PUSH2 0x167C SWAP1 PUSH2 0x2677 JUMP JUMPDEST DUP1 ISZERO PUSH2 0x16C9 JUMPI DUP1 PUSH1 0x1F LT PUSH2 0x169E JUMPI PUSH2 0x100 DUP1 DUP4 SLOAD DIV MUL DUP4 MSTORE SWAP2 PUSH1 0x20 ADD SWAP2 PUSH2 0x16C9 JUMP JUMPDEST DUP3 ADD SWAP2 SWAP1 PUSH1 0x0 MSTORE PUSH1 0x20 PUSH1 0x0 KECCAK256 SWAP1 JUMPDEST DUP2 SLOAD DUP2 MSTORE SWAP1 PUSH1 0x1 ADD SWAP1 PUSH1 0x20 ADD DUP1 DUP4 GT PUSH2 0x16AC JUMPI DUP3 SWAP1 SUB PUSH1 0x1F AND DUP3 ADD SWAP2 JUMPDEST POP POP POP POP POP DUP2 MSTORE PUSH1 0x20 ADD PUSH1 0x7 DUP3 ADD PUSH1 0x0 SWAP1 SLOAD SWAP1 PUSH2 0x100 EXP SWAP1 DIV PUSH20 0xFFFFFFFFFFFFFFFFFFFFFFFFFFFFFFFFFFFFFFFF AND PUSH20 0xFFFFFFFFFFFFFFFFFFFFFFFFFFFFFFFFFFFFFFFF AND PUSH20 0xFFFFFFFFFFFFFFFFFFFFFFFFFFFFFFFFFFFFFFFF AND DUP2 MSTORE POP POP DUP2 MSTORE PUSH1 0x20 ADD SWAP1 PUSH1 0x1 ADD SWAP1 PUSH2 0x12B0 JUMP JUMPDEST POP POP POP POP SWAP1 POP SWAP1 JUMP JUMPDEST PUSH1 0x3 SLOAD DUP2 JUMP JUMPDEST PUSH1 0x0 DUP1 SLOAD SWAP1 PUSH2 0x100 EXP SWAP1 DIV PUSH20 0xFFFFFFFFFFFFFFFFFFFFFFFFFFFFFFFFFFFFFFFF AND PUSH20 0xFFFFFFFFFFFFFFFFFFFFFFFFFFFFFFFFFFFFFFFF AND PUSH4 0x24D7806C CALLER PUSH1 0x40 MLOAD DUP3 PUSH4 0xFFFFFFFF AND PUSH1 0xE0 SHL DUP2 MSTORE PUSH1 0x4 ADD PUSH2 0x179F SWAP2 SWAP1 PUSH2 0x1E50 JUMP JUMPDEST PUSH1 0x20 PUSH1 0x40 MLOAD DUP1 DUP4 SUB DUP2 DUP7 GAS STATICCALL ISZERO DUP1 ISZERO PUSH2 0x17BC JUMPI RETURNDATASIZE PUSH1 0x0 DUP1 RETURNDATACOPY RETURNDATASIZE PUSH1 0x0 REVERT JUMPDEST POP POP POP POP PUSH1 0x40 MLOAD RETURNDATASIZE PUSH1 0x1F NOT PUSH1 0x1F DUP3 ADD AND DUP3 ADD DUP1 PUSH1 0x40 MSTORE POP DUP2 ADD SWAP1 PUSH2 0x17E0 SWAP2 SWAP1 PUSH2 0x24E9 JUMP JUMPDEST DUP1 PUSH2 0x1881 JUMPI POP PUSH1 0x0 DUP1 SLOAD SWAP1 PUSH2 0x100 EXP SWAP1 DIV PUSH20 0xFFFFFFFFFFFFFFFFFFFFFFFFFFFFFFFFFFFFFFFF AND PUSH20 0xFFFFFFFFFFFFFFFFFFFFFFFFFFFFFFFFFFFFFFFF AND PUSH4 0x5C4C9348 CALLER PUSH1 0x40 MLOAD DUP3 PUSH4 0xFFFFFFFF AND PUSH1 0xE0 SHL DUP2 MSTORE PUSH1 0x4 ADD PUSH2 0x183F SWAP2 SWAP1 PUSH2 0x1E50 JUMP JUMPDEST PUSH1 0x20 PUSH1 0x40 MLOAD DUP1 DUP4 SUB DUP2 DUP7 GAS STATICCALL ISZERO DUP1 ISZERO PUSH2 0x185C JUMPI RETURNDATASIZE PUSH1 0x0 DUP1 RETURNDATACOPY RETURNDATASIZE PUSH1 0x0 REVERT JUMPDEST POP POP POP POP PUSH1 0x40 MLOAD RETURNDATASIZE PUSH1 0x1F NOT PUSH1 0x1F DUP3 ADD AND DUP3 ADD DUP1 PUSH1 0x40 MSTORE POP DUP2 ADD SWAP1 PUSH2 0x1880 SWAP2 SWAP1 PUSH2 0x24E9 JUMP JUMPDEST JUMPDEST PUSH2 0x18C0 JUMPI PUSH1 0x40 MLOAD PUSH32 0x8C379A000000000000000000000000000000000000000000000000000000000 DUP2 MSTORE PUSH1 0x4 ADD PUSH2 0x18B7 SWAP1 PUSH2 0x2588 JUMP JUMPDEST PUSH1 0x40 MLOAD DUP1 SWAP2 SUB SWAP1 REVERT JUMPDEST PUSH1 0x1 PUSH1 0x0 DUP10 PUSH20 0xFFFFFFFFFFFFFFFFFFFFFFFFFFFFFFFFFFFFFFFF AND PUSH20 0xFFFFFFFFFFFFFFFFFFFFFFFFFFFFFFFFFFFFFFFF AND DUP2 MSTORE PUSH1 0x20 ADD SWAP1 DUP2 MSTORE PUSH1 0x20 ADD PUSH1 0x0 KECCAK256 PUSH1 0x40 MLOAD DUP1 PUSH2 0x100 ADD PUSH1 0x40 MSTORE DUP1 DUP10 DUP2 MSTORE PUSH1 0x20 ADD DUP9 DUP2 MSTORE PUSH1 0x20 ADD DUP8 DUP2 MSTORE PUSH1 0x20 ADD DUP7 DUP2 MSTORE PUSH1 0x20 ADD DUP6 DUP2 MSTORE PUSH1 0x20 ADD DUP5 DUP2 MSTORE PUSH1 0x20 ADD DUP4 DUP2 MSTORE PUSH1 0x20 ADD DUP11 PUSH20 0xFFFFFFFFFFFFFFFFFFFFFFFFFFFFFFFFFFFFFFFF AND DUP2 MSTORE POP SWAP1 DUP1 PUSH1 0x1 DUP2 SLOAD ADD DUP1 DUP3 SSTORE DUP1 SWAP2 POP POP PUSH1 0x1 SWAP1 SUB SWAP1 PUSH1 0x0 MSTORE PUSH1 0x20 PUSH1 0x0 KECCAK256 SWAP1 PUSH1 0x8 MUL ADD PUSH1 0x0 SWAP1 SWAP2 SWAP1 SWAP2 SWAP1 SWAP2 POP PUSH1 0x0 DUP3 ADD MLOAD DUP2 PUSH1 0x0 ADD SWAP1 DUP2 PUSH2 0x198D SWAP2 SWAP1 PUSH2 0x28FE JUMP JUMPDEST POP PUSH1 0x20 DUP3 ADD MLOAD DUP2 PUSH1 0x1 ADD SWAP1 DUP2 PUSH2 0x19A3 SWAP2 SWAP1 PUSH2 0x28FE JUMP JUMPDEST POP PUSH1 0x40 DUP3 ADD MLOAD DUP2 PUSH1 0x2 ADD SWAP1 DUP2 PUSH2 0x19B9 SWAP2 SWAP1 PUSH2 0x28FE JUMP JUMPDEST POP PUSH1 0x60 DUP3 ADD MLOAD DUP2 PUSH1 0x3 ADD SWAP1 DUP2 PUSH2 0x19CF SWAP2 SWAP1 PUSH2 0x28FE JUMP JUMPDEST POP PUSH1 0x80 DUP3 ADD MLOAD DUP2 PUSH1 0x4 ADD SWAP1 DUP2 PUSH2 0x19E5 SWAP2 SWAP1 PUSH2 0x28FE JUMP JUMPDEST POP PUSH1 0xA0 DUP3 ADD MLOAD DUP2 PUSH1 0x5 ADD SWAP1 DUP2 PUSH2 0x19FB SWAP2 SWAP1 PUSH2 0x28FE JUMP JUMPDEST POP PUSH1 0xC0 DUP3 ADD MLOAD DUP2 PUSH1 0x6 ADD SWAP1 DUP2 PUSH2 0x1A11 SWAP2 SWAP1 PUSH2 0x28FE JUMP JUMPDEST POP PUSH1 0xE0 DUP3 ADD MLOAD DUP2 PUSH1 0x7 ADD PUSH1 0x0 PUSH2 0x100 EXP DUP2 SLOAD DUP2 PUSH20 0xFFFFFFFFFFFFFFFFFFFFFFFFFFFFFFFFFFFFFFFF MUL NOT AND SWAP1 DUP4 PUSH20 0xFFFFFFFFFFFFFFFFFFFFFFFFFFFFFFFFFFFFFFFF AND MUL OR SWAP1 SSTORE POP POP POP PUSH1 0x2 DUP9 SWAP1 DUP1 PUSH1 0x1 DUP2 SLOAD ADD DUP1 DUP3 SSTORE DUP1 SWAP2 POP POP PUSH1 0x1 SWAP1 SUB SWAP1 PUSH1 0x0 MSTORE PUSH1 0x20 PUSH1 0x0 KECCAK256 ADD PUSH1 0x0 SWAP1 SWAP2 SWAP1 SWAP2 SWAP1 SWAP2 PUSH2 0x100 EXP DUP2 SLOAD DUP2 PUSH20 0xFFFFFFFFFFFFFFFFFFFFFFFFFFFFFFFFFFFFFFFF MUL NOT AND SWAP1 DUP4 PUSH20 0xFFFFFFFFFFFFFFFFFFFFFFFFFFFFFFFFFFFFFFFF AND MUL OR SWAP1 SSTORE POP PUSH1 0x3 PUSH1 0x0 DUP2 SLOAD DUP1 SWAP3 SWAP2 SWAP1 PUSH2 0x1AD1 SWAP1 PUSH2 0x26A8 JUMP JUMPDEST SWAP2 SWAP1 POP SSTORE POP POP POP POP POP POP POP POP POP JUMP JUMPDEST PUSH1 0x40 MLOAD DUP1 PUSH2 0x100 ADD PUSH1 0x40 MSTORE DUP1 PUSH1 0x60 DUP2 MSTORE PUSH1 0x20 ADD PUSH1 0x60 DUP2 MSTORE PUSH1 0x20 ADD PUSH1 0x60 DUP2 MSTORE PUSH1 0x20 ADD PUSH1 0x60 DUP2 MSTORE PUSH1 0x20 ADD PUSH1 0x60 DUP2 MSTORE PUSH1 0x20 ADD PUSH1 0x60 DUP2 MSTORE PUSH1 0x20 ADD PUSH1 0x60 DUP2 MSTORE PUSH1 0x20 ADD PUSH1 0x0 PUSH20 0xFFFFFFFFFFFFFFFFFFFFFFFFFFFFFFFFFFFFFFFF AND DUP2 MSTORE POP SWAP1 JUMP JUMPDEST PUSH1 0x0 PUSH1 0x40 MLOAD SWAP1 POP SWAP1 JUMP JUMPDEST PUSH1 0x0 DUP1 REVERT JUMPDEST PUSH1 0x0 DUP1 REVERT JUMPDEST PUSH1 0x0 DUP2 SWAP1 POP SWAP2 SWAP1 POP JUMP JUMPDEST PUSH2 0x1B62 DUP2 PUSH2 0x1B4F JUMP JUMPDEST DUP2 EQ PUSH2 0x1B6D JUMPI PUSH1 0x0 DUP1 REVERT JUMPDEST POP JUMP JUMPDEST PUSH1 0x0 DUP2 CALLDATALOAD SWAP1 POP PUSH2 0x1B7F DUP2 PUSH2 0x1B59 JUMP JUMPDEST SWAP3 SWAP2 POP POP JUMP JUMPDEST PUSH1 0x0 PUSH1 0x20 DUP3 DUP5 SUB SLT ISZERO PUSH2 0x1B9B JUMPI PUSH2 0x1B9A PUSH2 0x1B45 JUMP JUMPDEST JUMPDEST PUSH1 0x0 PUSH2 0x1BA9 DUP5 DUP3 DUP6 ADD PUSH2 0x1B70 JUMP JUMPDEST SWAP2 POP POP SWAP3 SWAP2 POP POP JUMP JUMPDEST PUSH1 0x0 DUP2 MLOAD SWAP1 POP SWAP2 SWAP1 POP JUMP JUMPDEST PUSH1 0x0 DUP3 DUP3 MSTORE PUSH1 0x20 DUP3 ADD SWAP1 POP SWAP3 SWAP2 POP POP JUMP JUMPDEST PUSH1 0x0 DUP2 SWAP1 POP PUSH1 0x20 DUP3 ADD SWAP1 POP SWAP2 SWAP1 POP JUMP JUMPDEST PUSH1 0x0 DUP2 MLOAD SWAP1 POP SWAP2 SWAP1 POP JUMP JUMPDEST PUSH1 0x0 DUP3 DUP3 MSTORE PUSH1 0x20 DUP3 ADD SWAP1 POP SWAP3 SWAP2 POP POP JUMP JUMPDEST PUSH1 0x0 JUMPDEST DUP4 DUP2 LT ISZERO PUSH2 0x1C18 JUMPI DUP1 DUP3 ADD MLOAD DUP2 DUP5 ADD MSTORE PUSH1 0x20 DUP2 ADD SWAP1 POP PUSH2 0x1BFD JUMP JUMPDEST PUSH1 0x0 DUP5 DUP5 ADD MSTORE POP POP POP POP JUMP JUMPDEST PUSH1 0x0 PUSH1 0x1F NOT PUSH1 0x1F DUP4 ADD AND SWAP1 POP SWAP2 SWAP1 POP JUMP JUMPDEST PUSH1 0x0 PUSH2 0x1C40 DUP3 PUSH2 0x1BDE JUMP JUMPDEST PUSH2 0x1C4A DUP2 DUP6 PUSH2 0x1BE9 JUMP JUMPDEST SWAP4 POP PUSH2 0x1C5A DUP2 DUP6 PUSH1 0x20 DUP7 ADD PUSH2 0x1BFA JUMP JUMPDEST PUSH2 0x1C63 DUP2 PUSH2 0x1C24 JUMP JUMPDEST DUP5 ADD SWAP2 POP POP SWAP3 SWAP2 POP POP JUMP JUMPDEST PUSH1 0x0 PUSH20 0xFFFFFFFFFFFFFFFFFFFFFFFFFFFFFFFFFFFFFFFF DUP3 AND SWAP1 POP SWAP2 SWAP1 POP JUMP JUMPDEST PUSH1 0x0 PUSH2 0x1C99 DUP3 PUSH2 0x1C6E JUMP JUMPDEST SWAP1 POP SWAP2 SWAP1 POP JUMP JUMPDEST PUSH2 0x1CA9 DUP2 PUSH2 0x1C8E JUMP JUMPDEST DUP3 MSTORE POP POP JUMP JUMPDEST PUSH1 0x0 PUSH2 0x100 DUP4 ADD PUSH1 0x0 DUP4 ADD MLOAD DUP5 DUP3 SUB PUSH1 0x0 DUP7 ADD MSTORE PUSH2 0x1CCD DUP3 DUP3 PUSH2 0x1C35 JUMP JUMPDEST SWAP2 POP POP PUSH1 0x20 DUP4 ADD MLOAD DUP5 DUP3 SUB PUSH1 0x20 DUP7 ADD MSTORE PUSH2 0x1CE7 DUP3 DUP3 PUSH2 0x1C35 JUMP JUMPDEST SWAP2 POP POP PUSH1 0x40 DUP4 ADD MLOAD DUP5 DUP3 SUB PUSH1 0x40 DUP7 ADD MSTORE PUSH2 0x1D01 DUP3 DUP3 PUSH2 0x1C35 JUMP JUMPDEST SWAP2 POP POP PUSH1 0x60 DUP4 ADD MLOAD DUP5 DUP3 SUB PUSH1 0x60 DUP7 ADD MSTORE PUSH2 0x1D1B DUP3 DUP3 PUSH2 0x1C35 JUMP JUMPDEST SWAP2 POP POP PUSH1 0x80 DUP4 ADD MLOAD DUP5 DUP3 SUB PUSH1 0x80 DUP7 ADD MSTORE PUSH2 0x1D35 DUP3 DUP3 PUSH2 0x1C35 JUMP JUMPDEST SWAP2 POP POP PUSH1 0xA0 DUP4 ADD MLOAD DUP5 DUP3 SUB PUSH1 0xA0 DUP7 ADD MSTORE PUSH2 0x1D4F DUP3 DUP3 PUSH2 0x1C35 JUMP JUMPDEST SWAP2 POP POP PUSH1 0xC0 DUP4 ADD MLOAD DUP5 DUP3 SUB PUSH1 0xC0 DUP7 ADD MSTORE PUSH2 0x1D69 DUP3 DUP3 PUSH2 0x1C35 JUMP JUMPDEST SWAP2 POP POP PUSH1 0xE0 DUP4 ADD MLOAD PUSH2 0x1D7E PUSH1 0xE0 DUP7 ADD DUP3 PUSH2 0x1CA0 JUMP JUMPDEST POP DUP1 SWAP2 POP POP SWAP3 SWAP2 POP POP JUMP JUMPDEST PUSH1 0x0 PUSH2 0x1D95 DUP4 DUP4 PUSH2 0x1CAF JUMP JUMPDEST SWAP1 POP SWAP3 SWAP2 POP POP JUMP JUMPDEST PUSH1 0x0 PUSH1 0x20 DUP3 ADD SWAP1 POP SWAP2 SWAP1 POP JUMP JUMPDEST PUSH1 0x0 PUSH2 0x1DB5 DUP3 PUSH2 0x1BB2 JUMP JUMPDEST PUSH2 0x1DBF DUP2 DUP6 PUSH2 0x1BBD JUMP JUMPDEST SWAP4 POP DUP4 PUSH1 0x20 DUP3 MUL DUP6 ADD PUSH2 0x1DD1 DUP6 PUSH2 0x1BCE JUMP JUMPDEST DUP1 PUSH1 0x0 JUMPDEST DUP6 DUP2 LT ISZERO PUSH2 0x1E0D JUMPI DUP5 DUP5 SUB DUP10 MSTORE DUP2 MLOAD PUSH2 0x1DEE DUP6 DUP3 PUSH2 0x1D89 JUMP JUMPDEST SWAP5 POP PUSH2 0x1DF9 DUP4 PUSH2 0x1D9D JUMP JUMPDEST SWAP3 POP PUSH1 0x20 DUP11 ADD SWAP10 POP POP PUSH1 0x1 DUP2 ADD SWAP1 POP PUSH2 0x1DD5 JUMP JUMPDEST POP DUP3 SWAP8 POP DUP8 SWAP6 POP POP POP POP POP POP SWAP3 SWAP2 POP POP JUMP JUMPDEST PUSH1 0x0 PUSH1 0x20 DUP3 ADD SWAP1 POP DUP2 DUP2 SUB PUSH1 0x0 DUP4 ADD MSTORE PUSH2 0x1E39 DUP2 DUP5 PUSH2 0x1DAA JUMP JUMPDEST SWAP1 POP SWAP3 SWAP2 POP POP JUMP JUMPDEST PUSH2 0x1E4A DUP2 PUSH2 0x1C8E JUMP JUMPDEST DUP3 MSTORE POP POP JUMP JUMPDEST PUSH1 0x0 PUSH1 0x20 DUP3 ADD SWAP1 POP PUSH2 0x1E65 PUSH1 0x0 DUP4 ADD DUP5 PUSH2 0x1E41 JUMP JUMPDEST SWAP3 SWAP2 POP POP JUMP JUMPDEST PUSH2 0x1E74 DUP2 PUSH2 0x1C8E JUMP JUMPDEST DUP2 EQ PUSH2 0x1E7F JUMPI PUSH1 0x0 DUP1 REVERT JUMPDEST POP JUMP JUMPDEST PUSH1 0x0 DUP2 CALLDATALOAD SWAP1 POP PUSH2 0x1E91 DUP2 PUSH2 0x1E6B JUMP JUMPDEST SWAP3 SWAP2 POP POP JUMP JUMPDEST PUSH1 0x0 DUP1 PUSH1 0x40 DUP4 DUP6 SUB SLT ISZERO PUSH2 0x1EAE JUMPI PUSH2 0x1EAD PUSH2 0x1B45 JUMP JUMPDEST JUMPDEST PUSH1 0x0 PUSH2 0x1EBC DUP6 DUP3 DUP7 ADD PUSH2 0x1E82 JUMP JUMPDEST SWAP3 POP POP PUSH1 0x20 PUSH2 0x1ECD DUP6 DUP3 DUP7 ADD PUSH2 0x1B70 JUMP JUMPDEST SWAP2 POP POP SWAP3 POP SWAP3 SWAP1 POP JUMP JUMPDEST PUSH1 0x0 DUP3 DUP3 MSTORE PUSH1 0x20 DUP3 ADD SWAP1 POP SWAP3 SWAP2 POP POP JUMP JUMPDEST PUSH1 0x0 PUSH2 0x1EF3 DUP3 PUSH2 0x1BDE JUMP JUMPDEST PUSH2 0x1EFD DUP2 DUP6 PUSH2 0x1ED7 JUMP JUMPDEST SWAP4 POP PUSH2 0x1F0D DUP2 DUP6 PUSH1 0x20 DUP7 ADD PUSH2 0x1BFA JUMP JUMPDEST PUSH2 0x1F16 DUP2 PUSH2 0x1C24 JUMP JUMPDEST DUP5 ADD SWAP2 POP POP SWAP3 SWAP2 POP POP JUMP JUMPDEST PUSH1 0x0 PUSH2 0x100 DUP3 ADD SWAP1 POP DUP2 DUP2 SUB PUSH1 0x0 DUP4 ADD MSTORE PUSH2 0x1F3C DUP2 DUP12 PUSH2 0x1EE8 JUMP JUMPDEST SWAP1 POP DUP2 DUP2 SUB PUSH1 0x20 DUP4 ADD MSTORE PUSH2 0x1F50 DUP2 DUP11 PUSH2 0x1EE8 JUMP JUMPDEST SWAP1 POP DUP2 DUP2 SUB PUSH1 0x40 DUP4 ADD MSTORE PUSH2 0x1F64 DUP2 DUP10 PUSH2 0x1EE8 JUMP JUMPDEST SWAP1 POP DUP2 DUP2 SUB PUSH1 0x60 DUP4 ADD MSTORE PUSH2 0x1F78 DUP2 DUP9 PUSH2 0x1EE8 JUMP JUMPDEST SWAP1 POP DUP2 DUP2 SUB PUSH1 0x80 DUP4 ADD MSTORE PUSH2 0x1F8C DUP2 DUP8 PUSH2 0x1EE8 JUMP JUMPDEST SWAP1 POP DUP2 DUP2 SUB PUSH1 0xA0 DUP4 ADD MSTORE PUSH2 0x1FA0 DUP2 DUP7 PUSH2 0x1EE8 JUMP JUMPDEST SWAP1 POP DUP2 DUP2 SUB PUSH1 0xC0 DUP4 ADD MSTORE PUSH2 0x1FB4 DUP2 DUP6 PUSH2 0x1EE8 JUMP JUMPDEST SWAP1 POP PUSH2 0x1FC3 PUSH1 0xE0 DUP4 ADD DUP5 PUSH2 0x1E41 JUMP JUMPDEST SWAP10 SWAP9 POP POP POP POP POP POP POP POP POP JUMP JUMPDEST PUSH1 0x0 DUP2 SWAP1 POP SWAP2 SWAP1 POP JUMP JUMPDEST PUSH1 0x0 PUSH2 0x1FF5 PUSH2 0x1FF0 PUSH2 0x1FEB DUP5 PUSH2 0x1C6E JUMP JUMPDEST PUSH2 0x1FD0 JUMP JUMPDEST PUSH2 0x1C6E JUMP JUMPDEST SWAP1 POP SWAP2 SWAP1 POP JUMP JUMPDEST PUSH1 0x0 PUSH2 0x2007 DUP3 PUSH2 0x1FDA JUMP JUMPDEST SWAP1 POP SWAP2 SWAP1 POP JUMP JUMPDEST PUSH1 0x0 PUSH2 0x2019 DUP3 PUSH2 0x1FFC JUMP JUMPDEST SWAP1 POP SWAP2 SWAP1 POP JUMP JUMPDEST PUSH2 0x2029 DUP2 PUSH2 0x200E JUMP JUMPDEST DUP3 MSTORE POP POP JUMP JUMPDEST PUSH1 0x0 PUSH1 0x20 DUP3 ADD SWAP1 POP PUSH2 0x2044 PUSH1 0x0 DUP4 ADD DUP5 PUSH2 0x2020 JUMP JUMPDEST SWAP3 SWAP2 POP POP JUMP JUMPDEST PUSH1 0x0 DUP1 REVERT JUMPDEST PUSH1 0x0 DUP1 REVERT JUMPDEST PUSH32 0x4E487B7100000000000000000000000000000000000000000000000000000000 PUSH1 0x0 MSTORE PUSH1 0x41 PUSH1 0x4 MSTORE PUSH1 0x24 PUSH1 0x0 REVERT JUMPDEST PUSH2 0x208C DUP3 PUSH2 0x1C24 JUMP JUMPDEST DUP2 ADD DUP2 DUP2 LT PUSH8 0xFFFFFFFFFFFFFFFF DUP3 GT OR ISZERO PUSH2 0x20AB JUMPI PUSH2 0x20AA PUSH2 0x2054 JUMP JUMPDEST JUMPDEST DUP1 PUSH1 0x40 MSTORE POP POP POP JUMP JUMPDEST PUSH1 0x0 PUSH2 0x20BE PUSH2 0x1B3B JUMP JUMPDEST SWAP1 POP PUSH2 0x20CA DUP3 DUP3 PUSH2 0x2083 JUMP JUMPDEST SWAP2 SWAP1 POP JUMP JUMPDEST PUSH1 0x0 PUSH8 0xFFFFFFFFFFFFFFFF DUP3 GT ISZERO PUSH2 0x20EA JUMPI PUSH2 0x20E9 PUSH2 0x2054 JUMP JUMPDEST JUMPDEST PUSH2 0x20F3 DUP3 PUSH2 0x1C24 JUMP JUMPDEST SWAP1 POP PUSH1 0x20 DUP2 ADD SWAP1 POP SWAP2 SWAP1 POP JUMP JUMPDEST DUP3 DUP2 DUP4 CALLDATACOPY PUSH1 0x0 DUP4 DUP4 ADD MSTORE POP POP POP JUMP JUMPDEST PUSH1 0x0 PUSH2 0x2122 PUSH2 0x211D DUP5 PUSH2 0x20CF JUMP JUMPDEST PUSH2 0x20B4 JUMP JUMPDEST SWAP1 POP DUP3 DUP2 MSTORE PUSH1 0x20 DUP2 ADD DUP5 DUP5 DUP5 ADD GT ISZERO PUSH2 0x213E JUMPI PUSH2 0x213D PUSH2 0x204F JUMP JUMPDEST JUMPDEST PUSH2 0x2149 DUP5 DUP3 DUP6 PUSH2 0x2100 JUMP JUMPDEST POP SWAP4 SWAP3 POP POP POP JUMP JUMPDEST PUSH1 0x0 DUP3 PUSH1 0x1F DUP4 ADD SLT PUSH2 0x2166 JUMPI PUSH2 0x2165 PUSH2 0x204A JUMP JUMPDEST JUMPDEST DUP2 CALLDATALOAD PUSH2 0x2176 DUP5 DUP3 PUSH1 0x20 DUP7 ADD PUSH2 0x210F JUMP JUMPDEST SWAP2 POP POP SWAP3 SWAP2 POP POP JUMP JUMPDEST PUSH1 0x0 DUP1 PUSH1 0x0 DUP1 PUSH1 0x0 DUP1 PUSH1 0x0 DUP1 PUSH1 0x0 PUSH2 0x120 DUP11 DUP13 SUB SLT ISZERO PUSH2 0x21A2 JUMPI PUSH2 0x21A1 PUSH2 0x1B45 JUMP JUMPDEST JUMPDEST PUSH1 0x0 PUSH2 0x21B0 DUP13 DUP3 DUP14 ADD PUSH2 0x1E82 JUMP JUMPDEST SWAP10 POP POP PUSH1 0x20 PUSH2 0x21C1 DUP13 DUP3 DUP14 ADD PUSH2 0x1B70 JUMP JUMPDEST SWAP9 POP POP PUSH1 0x40 DUP11 ADD CALLDATALOAD PUSH8 0xFFFFFFFFFFFFFFFF DUP2 GT ISZERO PUSH2 0x21E2 JUMPI PUSH2 0x21E1 PUSH2 0x1B4A JUMP JUMPDEST JUMPDEST PUSH2 0x21EE DUP13 DUP3 DUP14 ADD PUSH2 0x2151 JUMP JUMPDEST SWAP8 POP POP PUSH1 0x60 DUP11 ADD CALLDATALOAD PUSH8 0xFFFFFFFFFFFFFFFF DUP2 GT ISZERO PUSH2 0x220F JUMPI PUSH2 0x220E PUSH2 0x1B4A JUMP JUMPDEST JUMPDEST PUSH2 0x221B DUP13 DUP3 DUP14 ADD PUSH2 0x2151 JUMP JUMPDEST SWAP7 POP POP PUSH1 0x80 DUP11 ADD CALLDATALOAD PUSH8 0xFFFFFFFFFFFFFFFF DUP2 GT ISZERO PUSH2 0x223C JUMPI PUSH2 0x223B PUSH2 0x1B4A JUMP JUMPDEST JUMPDEST PUSH2 0x2248 DUP13 DUP3 DUP14 ADD PUSH2 0x2151 JUMP JUMPDEST SWAP6 POP POP PUSH1 0xA0 DUP11 ADD CALLDATALOAD PUSH8 0xFFFFFFFFFFFFFFFF DUP2 GT ISZERO PUSH2 0x2269 JUMPI PUSH2 0x2268 PUSH2 0x1B4A JUMP JUMPDEST JUMPDEST PUSH2 0x2275 DUP13 DUP3 DUP14 ADD PUSH2 0x2151 JUMP JUMPDEST SWAP5 POP POP PUSH1 0xC0 DUP11 ADD CALLDATALOAD PUSH8 0xFFFFFFFFFFFFFFFF DUP2 GT ISZERO PUSH2 0x2296 JUMPI PUSH2 0x2295 PUSH2 0x1B4A JUMP JUMPDEST JUMPDEST PUSH2 0x22A2 DUP13 DUP3 DUP14 ADD PUSH2 0x2151 JUMP JUMPDEST SWAP4 POP POP PUSH1 0xE0 DUP11 ADD CALLDATALOAD PUSH8 0xFFFFFFFFFFFFFFFF DUP2 GT ISZERO PUSH2 0x22C3 JUMPI PUSH2 0x22C2 PUSH2 0x1B4A JUMP JUMPDEST JUMPDEST PUSH2 0x22CF DUP13 DUP3 DUP14 ADD PUSH2 0x2151 JUMP JUMPDEST SWAP3 POP POP PUSH2 0x100 DUP11 ADD CALLDATALOAD PUSH8 0xFFFFFFFFFFFFFFFF DUP2 GT ISZERO PUSH2 0x22F1 JUMPI PUSH2 0x22F0 PUSH2 0x1B4A JUMP JUMPDEST JUMPDEST PUSH2 0x22FD DUP13 DUP3 DUP14 ADD PUSH2 0x2151 JUMP JUMPDEST SWAP2 POP POP SWAP3 SWAP6 SWAP9 POP SWAP3 SWAP6 SWAP9 POP SWAP3 SWAP6 SWAP9 JUMP JUMPDEST PUSH2 0x2316 DUP2 PUSH2 0x1B4F JUMP JUMPDEST DUP3 MSTORE POP POP JUMP JUMPDEST PUSH1 0x0 PUSH1 0x20 DUP3 ADD SWAP1 POP PUSH2 0x2331 PUSH1 0x0 DUP4 ADD DUP5 PUSH2 0x230D JUMP JUMPDEST SWAP3 SWAP2 POP POP JUMP JUMPDEST PUSH1 0x0 DUP1 PUSH1 0x0 DUP1 PUSH1 0x0 DUP1 PUSH1 0x0 DUP1 PUSH2 0x100 DUP10 DUP12 SUB SLT ISZERO PUSH2 0x2358 JUMPI PUSH2 0x2357 PUSH2 0x1B45 JUMP JUMPDEST JUMPDEST PUSH1 0x0 PUSH2 0x2366 DUP12 DUP3 DUP13 ADD PUSH2 0x1E82 JUMP JUMPDEST SWAP9 POP POP PUSH1 0x20 DUP10 ADD CALLDATALOAD PUSH8 0xFFFFFFFFFFFFFFFF DUP2 GT ISZERO PUSH2 0x2387 JUMPI PUSH2 0x2386 PUSH2 0x1B4A JUMP JUMPDEST JUMPDEST PUSH2 0x2393 DUP12 DUP3 DUP13 ADD PUSH2 0x2151 JUMP JUMPDEST SWAP8 POP POP PUSH1 0x40 DUP10 ADD CALLDATALOAD PUSH8 0xFFFFFFFFFFFFFFFF DUP2 GT ISZERO PUSH2 0x23B4 JUMPI PUSH2 0x23B3 PUSH2 0x1B4A JUMP JUMPDEST JUMPDEST PUSH2 0x23C0 DUP12 DUP3 DUP13 ADD PUSH2 0x2151 JUMP JUMPDEST SWAP7 POP POP PUSH1 0x60 DUP10 ADD CALLDATALOAD PUSH8 0xFFFFFFFFFFFFFFFF DUP2 GT ISZERO PUSH2 0x23E1 JUMPI PUSH2 0x23E0 PUSH2 0x1B4A JUMP JUMPDEST JUMPDEST PUSH2 0x23ED DUP12 DUP3 DUP13 ADD PUSH2 0x2151 JUMP JUMPDEST SWAP6 POP POP PUSH1 0x80 DUP10 ADD CALLDATALOAD PUSH8 0xFFFFFFFFFFFFFFFF DUP2 GT ISZERO PUSH2 0x240E JUMPI PUSH2 0x240D PUSH2 0x1B4A JUMP JUMPDEST JUMPDEST PUSH2 0x241A DUP12 DUP3 DUP13 ADD PUSH2 0x2151 JUMP JUMPDEST SWAP5 POP POP PUSH1 0xA0 DUP10 ADD CALLDATALOAD PUSH8 0xFFFFFFFFFFFFFFFF DUP2 GT ISZERO PUSH2 0x243B JUMPI PUSH2 0x243A PUSH2 0x1B4A JUMP JUMPDEST JUMPDEST PUSH2 0x2447 DUP12 DUP3 DUP13 ADD PUSH2 0x2151 JUMP JUMPDEST SWAP4 POP POP PUSH1 0xC0 DUP10 ADD CALLDATALOAD PUSH8 0xFFFFFFFFFFFFFFFF DUP2 GT ISZERO PUSH2 0x2468 JUMPI PUSH2 0x2467 PUSH2 0x1B4A JUMP JUMPDEST JUMPDEST PUSH2 0x2474 DUP12 DUP3 DUP13 ADD PUSH2 0x2151 JUMP JUMPDEST SWAP3 POP POP PUSH1 0xE0 DUP10 ADD CALLDATALOAD PUSH8 0xFFFFFFFFFFFFFFFF DUP2 GT ISZERO PUSH2 0x2495 JUMPI PUSH2 0x2494 PUSH2 0x1B4A JUMP JUMPDEST JUMPDEST PUSH2 0x24A1 DUP12 DUP3 DUP13 ADD PUSH2 0x2151 JUMP JUMPDEST SWAP2 POP POP SWAP3 SWAP6 SWAP9 POP SWAP3 SWAP6 SWAP9 SWAP1 SWAP4 SWAP7 POP JUMP JUMPDEST PUSH1 0x0 DUP2 ISZERO ISZERO SWAP1 POP SWAP2 SWAP1 POP JUMP JUMPDEST PUSH2 0x24C6 DUP2 PUSH2 0x24B1 JUMP JUMPDEST DUP2 EQ PUSH2 0x24D1 JUMPI PUSH1 0x0 DUP1 REVERT JUMPDEST POP JUMP JUMPDEST PUSH1 0x0 DUP2 MLOAD SWAP1 POP PUSH2 0x24E3 DUP2 PUSH2 0x24BD JUMP JUMPDEST SWAP3 SWAP2 POP POP JUMP JUMPDEST PUSH1 0x0 PUSH1 0x20 DUP3 DUP5 SUB SLT ISZERO PUSH2 0x24FF JUMPI PUSH2 0x24FE PUSH2 0x1B45 JUMP JUMPDEST JUMPDEST PUSH1 0x0 PUSH2 0x250D DUP5 DUP3 DUP6 ADD PUSH2 0x24D4 JUMP JUMPDEST SWAP2 POP POP SWAP3 SWAP2 POP POP JUMP JUMPDEST PUSH32 0x48616E79612061646D696E206174617520646F6B7465722079616E6720646969 PUSH1 0x0 DUP3 ADD MSTORE PUSH32 0x7A696E6B616E20756E74756B206D656E67616B7365732E000000000000000000 PUSH1 0x20 DUP3 ADD MSTORE POP JUMP JUMPDEST PUSH1 0x0 PUSH2 0x2572 PUSH1 0x37 DUP4 PUSH2 0x1ED7 JUMP JUMPDEST SWAP2 POP PUSH2 0x257D DUP3 PUSH2 0x2516 JUMP JUMPDEST PUSH1 0x40 DUP3 ADD SWAP1 POP SWAP2 SWAP1 POP JUMP JUMPDEST PUSH1 0x0 PUSH1 0x20 DUP3 ADD SWAP1 POP DUP2 DUP2 SUB PUSH1 0x0 DUP4 ADD MSTORE PUSH2 0x25A1 DUP2 PUSH2 0x2565 JUMP JUMPDEST SWAP1 POP SWAP2 SWAP1 POP JUMP JUMPDEST PUSH32 0x4E487B7100000000000000000000000000000000000000000000000000000000 PUSH1 0x0 MSTORE PUSH1 0x11 PUSH1 0x4 MSTORE PUSH1 0x24 PUSH1 0x0 REVERT JUMPDEST PUSH1 0x0 PUSH2 0x25E2 DUP3 PUSH2 0x1B4F JUMP JUMPDEST SWAP2 POP PUSH2 0x25ED DUP4 PUSH2 0x1B4F JUMP JUMPDEST SWAP3 POP DUP3 DUP3 MUL PUSH2 0x25FB DUP2 PUSH2 0x1B4F JUMP JUMPDEST SWAP2 POP DUP3 DUP3 DIV DUP5 EQ DUP4 ISZERO OR PUSH2 0x2612 JUMPI PUSH2 0x2611 PUSH2 0x25A8 JUMP JUMPDEST JUMPDEST POP SWAP3 SWAP2 POP POP JUMP JUMPDEST PUSH32 0x4E487B7100000000000000000000000000000000000000000000000000000000 PUSH1 0x0 MSTORE PUSH1 0x32 PUSH1 0x4 MSTORE PUSH1 0x24 PUSH1 0x0 REVERT JUMPDEST PUSH32 0x4E487B7100000000000000000000000000000000000000000000000000000000 PUSH1 0x0 MSTORE PUSH1 0x22 PUSH1 0x4 MSTORE PUSH1 0x24 PUSH1 0x0 REVERT JUMPDEST PUSH1 0x0 PUSH1 0x2 DUP3 DIV SWAP1 POP PUSH1 0x1 DUP3 AND DUP1 PUSH2 0x268F JUMPI PUSH1 0x7F DUP3 AND SWAP2 POP JUMPDEST PUSH1 0x20 DUP3 LT DUP2 SUB PUSH2 0x26A2 JUMPI PUSH2 0x26A1 PUSH2 0x2648 JUMP JUMPDEST JUMPDEST POP SWAP2 SWAP1 POP JUMP JUMPDEST PUSH1 0x0 PUSH2 0x26B3 DUP3 PUSH2 0x1B4F JUMP JUMPDEST SWAP2 POP PUSH32 0xFFFFFFFFFFFFFFFFFFFFFFFFFFFFFFFFFFFFFFFFFFFFFFFFFFFFFFFFFFFFFFFF DUP3 SUB PUSH2 0x26E5 JUMPI PUSH2 0x26E4 PUSH2 0x25A8 JUMP JUMPDEST JUMPDEST PUSH1 0x1 DUP3 ADD SWAP1 POP SWAP2 SWAP1 POP JUMP JUMPDEST PUSH32 0x436F6E73756C746174696F6E2064617461206E6F7420666F756E640000000000 PUSH1 0x0 DUP3 ADD MSTORE POP JUMP JUMPDEST PUSH1 0x0 PUSH2 0x2726 PUSH1 0x1B DUP4 PUSH2 0x1ED7 JUMP JUMPDEST SWAP2 POP PUSH2 0x2731 DUP3 PUSH2 0x26F0 JUMP JUMPDEST PUSH1 0x20 DUP3 ADD SWAP1 POP SWAP2 SWAP1 POP JUMP JUMPDEST PUSH1 0x0 PUSH1 0x20 DUP3 ADD SWAP1 POP DUP2 DUP2 SUB PUSH1 0x0 DUP4 ADD MSTORE PUSH2 0x2755 DUP2 PUSH2 0x2719 JUMP JUMPDEST SWAP1 POP SWAP2 SWAP1 POP JUMP JUMPDEST PUSH1 0x0 DUP2 SWAP1 POP DUP2 PUSH1 0x0 MSTORE PUSH1 0x20 PUSH1 0x0 KECCAK256 SWAP1 POP SWAP2 SWAP1 POP JUMP JUMPDEST PUSH1 0x0 PUSH1 0x20 PUSH1 0x1F DUP4 ADD DIV SWAP1 POP SWAP2 SWAP1 POP JUMP JUMPDEST PUSH1 0x0 DUP3 DUP3 SHL SWAP1 POP SWAP3 SWAP2 POP POP JUMP JUMPDEST PUSH1 0x0 PUSH1 0x8 DUP4 MUL PUSH2 0x27BE PUSH32 0xFFFFFFFFFFFFFFFFFFFFFFFFFFFFFFFFFFFFFFFFFFFFFFFFFFFFFFFFFFFFFFFF DUP3 PUSH2 0x2781 JUMP JUMPDEST PUSH2 0x27C8 DUP7 DUP4 PUSH2 0x2781 JUMP JUMPDEST SWAP6 POP DUP1 NOT DUP5 AND SWAP4 POP DUP1 DUP7 AND DUP5 OR SWAP3 POP POP POP SWAP4 SWAP3 POP POP POP JUMP JUMPDEST PUSH1 0x0 PUSH2 0x27FB PUSH2 0x27F6 PUSH2 0x27F1 DUP5 PUSH2 0x1B4F JUMP JUMPDEST PUSH2 0x1FD0 JUMP JUMPDEST PUSH2 0x1B4F JUMP JUMPDEST SWAP1 POP SWAP2 SWAP1 POP JUMP JUMPDEST PUSH1 0x0 DUP2 SWAP1 POP SWAP2 SWAP1 POP JUMP JUMPDEST PUSH2 0x2815 DUP4 PUSH2 0x27E0 JUMP JUMPDEST PUSH2 0x2829 PUSH2 0x2821 DUP3 PUSH2 0x2802 JUMP JUMPDEST DUP5 DUP5 SLOAD PUSH2 0x278E JUMP JUMPDEST DUP3 SSTORE POP POP POP POP JUMP JUMPDEST PUSH1 0x0 SWAP1 JUMP JUMPDEST PUSH2 0x283E PUSH2 0x2831 JUMP JUMPDEST PUSH2 0x2849 DUP2 DUP5 DUP5 PUSH2 0x280C JUMP JUMPDEST POP POP POP JUMP JUMPDEST JUMPDEST DUP2 DUP2 LT ISZERO PUSH2 0x286D JUMPI PUSH2 0x2862 PUSH1 0x0 DUP3 PUSH2 0x2836 JUMP JUMPDEST PUSH1 0x1 DUP2 ADD SWAP1 POP PUSH2 0x284F JUMP JUMPDEST POP POP JUMP JUMPDEST PUSH1 0x1F DUP3 GT ISZERO PUSH2 0x28B2 JUMPI PUSH2 0x2883 DUP2 PUSH2 0x275C JUMP JUMPDEST PUSH2 0x288C DUP5 PUSH2 0x2771 JUMP JUMPDEST DUP2 ADD PUSH1 0x20 DUP6 LT ISZERO PUSH2 0x289B JUMPI DUP2 SWAP1 POP JUMPDEST PUSH2 0x28AF PUSH2 0x28A7 DUP6 PUSH2 0x2771 JUMP JUMPDEST DUP4 ADD DUP3 PUSH2 0x284E JUMP JUMPDEST POP POP JUMPDEST POP POP POP JUMP JUMPDEST PUSH1 0x0 DUP3 DUP3 SHR SWAP1 POP SWAP3 SWAP2 POP POP JUMP JUMPDEST PUSH1 0x0 PUSH2 0x28D5 PUSH1 0x0 NOT DUP5 PUSH1 0x8 MUL PUSH2 0x28B7 JUMP JUMPDEST NOT DUP1 DUP4 AND SWAP2 POP POP SWAP3 SWAP2 POP POP JUMP JUMPDEST PUSH1 0x0 PUSH2 0x28EE DUP4 DUP4 PUSH2 0x28C4 JUMP JUMPDEST SWAP2 POP DUP3 PUSH1 0x2 MUL DUP3 OR SWAP1 POP SWAP3 SWAP2 POP POP JUMP JUMPDEST PUSH2 0x2907 DUP3 PUSH2 0x1BDE JUMP JUMPDEST PUSH8 0xFFFFFFFFFFFFFFFF DUP2 GT ISZERO PUSH2 0x2920 JUMPI PUSH2 0x291F PUSH2 0x2054 JUMP JUMPDEST JUMPDEST PUSH2 0x292A DUP3 SLOAD PUSH2 0x2677 JUMP JUMPDEST PUSH2 0x2935 DUP3 DUP3 DUP6 PUSH2 0x2871 JUMP JUMPDEST PUSH1 0x0 PUSH1 0x20 SWAP1 POP PUSH1 0x1F DUP4 GT PUSH1 0x1 DUP2 EQ PUSH2 0x2968 JUMPI PUSH1 0x0 DUP5 ISZERO PUSH2 0x2956 JUMPI DUP3 DUP8 ADD MLOAD SWAP1 POP JUMPDEST PUSH2 0x2960 DUP6 DUP3 PUSH2 0x28E2 JUMP JUMPDEST DUP7 SSTORE POP PUSH2 0x29C8 JUMP JUMPDEST PUSH1 0x1F NOT DUP5 AND PUSH2 0x2976 DUP7 PUSH2 0x275C JUMP JUMPDEST PUSH1 0x0 JUMPDEST DUP3 DUP2 LT ISZERO PUSH2 0x299E JUMPI DUP5 DUP10 ADD MLOAD DUP3 SSTORE PUSH1 0x1 DUP3 ADD SWAP2 POP PUSH1 0x20 DUP6 ADD SWAP5 POP PUSH1 0x20 DUP2 ADD SWAP1 POP PUSH2 0x2979 JUMP JUMPDEST DUP7 DUP4 LT ISZERO PUSH2 0x29BB JUMPI DUP5 DUP10 ADD MLOAD PUSH2 0x29B7 PUSH1 0x1F DUP10 AND DUP3 PUSH2 0x28C4 JUMP JUMPDEST DUP4 SSTORE POP JUMPDEST PUSH1 0x1 PUSH1 0x2 DUP9 MUL ADD DUP9 SSTORE POP POP POP JUMPDEST POP POP POP POP POP POP JUMP JUMPDEST PUSH32 0x48616E79612070617369656E2079616E67206469697A696E6B616E20756E7475 PUSH1 0x0 DUP3 ADD MSTORE PUSH32 0x6B206D656E67616B736573000000000000000000000000000000000000000000 PUSH1 0x20 DUP3 ADD MSTORE POP JUMP JUMPDEST PUSH1 0x0 PUSH2 0x2A2C PUSH1 0x2B DUP4 PUSH2 0x1ED7 JUMP JUMPDEST SWAP2 POP PUSH2 0x2A37 DUP3 PUSH2 0x29D0 JUMP JUMPDEST PUSH1 0x40 DUP3 ADD SWAP1 POP SWAP2 SWAP1 POP JUMP JUMPDEST PUSH1 0x0 PUSH1 0x20 DUP3 ADD SWAP1 POP DUP2 DUP2 SUB PUSH1 0x0 DUP4 ADD MSTORE PUSH2 0x2A5B DUP2 PUSH2 0x2A1F JUMP JUMPDEST SWAP1 POP SWAP2 SWAP1 POP JUMP INVALID LOG2 PUSH5 0x6970667358 0x22 SLT KECCAK256 DUP14 0x4B 0xA8 PUSH8 0xA0349ACDD8F36C6B GT 0x4B MSTORE8 EXTCODESIZE SWAP11 SWAP13 SMOD TIMESTAMP MOD JUMP AND 0x25 PUSH12 0xEF03738AC7424F64736F6C63 NUMBER STOP ADDMOD GT STOP CALLER "
				},
				"gasEstimates": {
					"creation": {
						"codeDepositCost": "2180800",
						"executionCost": "infinite",
						"totalCost": "infinite"
					},
					"external": {
						"accountsWithConsultations(uint256)": "4979",
						"addConsultation(address,string,string,string,string,string,string,string)": "infinite",
						"consultationCount()": "2473",
						"consultations(address,uint256)": "infinite",
						"getAllConsultations(uint256)": "infinite",
						"getConsultationsPasien()": "infinite",
						"roles()": "infinite",
						"updateConsultation(address,uint256,string,string,string,string,string,string,string)": "infinite"
					}
				},
				"methodIdentifiers": {
					"accountsWithConsultations(uint256)": "2d1bb6fc",
					"addConsultation(address,string,string,string,string,string,string,string)": "f4fd62d3",
					"consultationCount()": "c0f07fde",
					"consultations(address,uint256)": "3001b568",
					"getAllConsultations(uint256)": "2ba15500",
					"getConsultationsPasien()": "b5067f23",
					"roles()": "392f5f64",
					"updateConsultation(address,uint256,string,string,string,string,string,string,string)": "745ab0e6"
				}
			},
			"storageLayout": {
				"storage": [
					{
						"astId": 5,
						"contract": "contracts/konsultasi.sol:ConsultationResult",
						"label": "roles",
						"offset": 0,
						"slot": "0",
						"type": "t_contract(UserRoles)462"
					},
					{
						"astId": 28,
						"contract": "contracts/konsultasi.sol:ConsultationResult",
						"label": "consultations",
						"offset": 0,
						"slot": "1",
						"type": "t_mapping(t_address,t_array(t_struct(Data)22_storage)dyn_storage)"
					},
					{
						"astId": 31,
						"contract": "contracts/konsultasi.sol:ConsultationResult",
						"label": "accountsWithConsultations",
						"offset": 0,
						"slot": "2",
						"type": "t_array(t_address)dyn_storage"
					},
					{
						"astId": 33,
						"contract": "contracts/konsultasi.sol:ConsultationResult",
						"label": "consultationCount",
						"offset": 0,
						"slot": "3",
						"type": "t_uint256"
					}
				],
				"types": {
					"t_address": {
						"encoding": "inplace",
						"label": "address",
						"numberOfBytes": "20"
					},
					"t_array(t_address)dyn_storage": {
						"base": "t_address",
						"encoding": "dynamic_array",
						"label": "address[]",
						"numberOfBytes": "32"
					},
					"t_array(t_struct(Data)22_storage)dyn_storage": {
						"base": "t_struct(Data)22_storage",
						"encoding": "dynamic_array",
						"label": "struct ConsultationResult.Data[]",
						"numberOfBytes": "32"
					},
					"t_contract(UserRoles)462": {
						"encoding": "inplace",
						"label": "contract UserRoles",
						"numberOfBytes": "20"
					},
					"t_mapping(t_address,t_array(t_struct(Data)22_storage)dyn_storage)": {
						"encoding": "mapping",
						"key": "t_address",
						"label": "mapping(address => struct ConsultationResult.Data[])",
						"numberOfBytes": "32",
						"value": "t_array(t_struct(Data)22_storage)dyn_storage"
					},
					"t_string_storage": {
						"encoding": "bytes",
						"label": "string",
						"numberOfBytes": "32"
					},
					"t_struct(Data)22_storage": {
						"encoding": "inplace",
						"label": "struct ConsultationResult.Data",
						"members": [
							{
								"astId": 7,
								"contract": "contracts/konsultasi.sol:ConsultationResult",
								"label": "nama",
								"offset": 0,
								"slot": "0",
								"type": "t_string_storage"
							},
							{
								"astId": 9,
								"contract": "contracts/konsultasi.sol:ConsultationResult",
								"label": "namaDokter",
								"offset": 0,
								"slot": "1",
								"type": "t_string_storage"
							},
							{
								"astId": 11,
								"contract": "contracts/konsultasi.sol:ConsultationResult",
								"label": "tanggal",
								"offset": 0,
								"slot": "2",
								"type": "t_string_storage"
							},
							{
								"astId": 13,
								"contract": "contracts/konsultasi.sol:ConsultationResult",
								"label": "keluhan",
								"offset": 0,
								"slot": "3",
								"type": "t_string_storage"
							},
							{
								"astId": 15,
								"contract": "contracts/konsultasi.sol:ConsultationResult",
								"label": "diagnosa",
								"offset": 0,
								"slot": "4",
								"type": "t_string_storage"
							},
							{
								"astId": 17,
								"contract": "contracts/konsultasi.sol:ConsultationResult",
								"label": "tensi",
								"offset": 0,
								"slot": "5",
								"type": "t_string_storage"
							},
							{
								"astId": 19,
								"contract": "contracts/konsultasi.sol:ConsultationResult",
								"label": "gula",
								"offset": 0,
								"slot": "6",
								"type": "t_string_storage"
							},
							{
								"astId": 21,
								"contract": "contracts/konsultasi.sol:ConsultationResult",
								"label": "wallet",
								"offset": 0,
								"slot": "7",
								"type": "t_address"
							}
						],
						"numberOfBytes": "256"
					},
					"t_uint256": {
						"encoding": "inplace",
						"label": "uint256",
						"numberOfBytes": "32"
					}
				}
			},
			"userdoc": {
				"kind": "user",
				"methods": {},
				"version": 1
			}
		}
	}
}