{
	"contracts/user.sol": {
		"UserData": {
			"abi": [
				{
					"anonymous": false,
					"inputs": [
						{
							"indexed": false,
							"internalType": "string",
							"name": "name",
							"type": "string"
						},
						{
							"indexed": false,
							"internalType": "string",
							"name": "email",
							"type": "string"
						},
						{
							"indexed": false,
							"internalType": "uint256",
							"name": "phone",
							"type": "uint256"
						},
						{
							"indexed": false,
							"internalType": "string",
							"name": "gender",
							"type": "string"
						},
						{
							"indexed": false,
							"internalType": "string",
							"name": "alamat",
							"type": "string"
						},
						{
							"indexed": false,
							"internalType": "string",
							"name": "birthdate",
							"type": "string"
						},
						{
							"indexed": false,
							"internalType": "address",
							"name": "wallet",
							"type": "address"
						}
					],
					"name": "UserAdded",
					"type": "event"
				},
				{
					"inputs": [
						{
							"internalType": "string",
							"name": "_name",
							"type": "string"
						},
						{
							"internalType": "string",
							"name": "_email",
							"type": "string"
						},
						{
							"internalType": "uint256",
							"name": "_phone",
							"type": "uint256"
						},
						{
							"internalType": "string",
							"name": "_gender",
							"type": "string"
						},
						{
							"internalType": "string",
							"name": "_alamat",
							"type": "string"
						},
						{
							"internalType": "string",
							"name": "_birthdate",
							"type": "string"
						}
					],
					"name": "addUser",
					"outputs": [],
					"stateMutability": "nonpayable",
					"type": "function"
				},
				{
					"inputs": [],
					"name": "getAllUsers",
					"outputs": [
						{
							"components": [
								{
									"internalType": "string",
									"name": "name",
									"type": "string"
								},
								{
									"internalType": "string",
									"name": "email",
									"type": "string"
								},
								{
									"internalType": "uint256",
									"name": "phone",
									"type": "uint256"
								},
								{
									"internalType": "string",
									"name": "gender",
									"type": "string"
								},
								{
									"internalType": "string",
									"name": "alamat",
									"type": "string"
								},
								{
									"internalType": "string",
									"name": "birthdate",
									"type": "string"
								},
								{
									"internalType": "address",
									"name": "wallet",
									"type": "address"
								}
							],
							"internalType": "struct UserData.User[]",
							"name": "",
							"type": "tuple[]"
						}
					],
					"stateMutability": "view",
					"type": "function"
				},
				{
					"inputs": [
						{
							"internalType": "address",
							"name": "_wallet",
							"type": "address"
						}
					],
					"name": "getUserByWallet",
					"outputs": [
						{
							"internalType": "string",
							"name": "",
							"type": "string"
						},
						{
							"internalType": "string",
							"name": "",
							"type": "string"
						},
						{
							"internalType": "uint256",
							"name": "",
							"type": "uint256"
						},
						{
							"internalType": "string",
							"name": "",
							"type": "string"
						},
						{
							"internalType": "string",
							"name": "",
							"type": "string"
						},
						{
							"internalType": "string",
							"name": "",
							"type": "string"
						}
					],
					"stateMutability": "view",
					"type": "function"
				},
				{
					"inputs": [
						{
							"internalType": "address",
							"name": "_wallet",
							"type": "address"
						},
						{
							"internalType": "string",
							"name": "_name",
							"type": "string"
						},
						{
							"internalType": "string",
							"name": "_email",
							"type": "string"
						},
						{
							"internalType": "uint256",
							"name": "_phone",
							"type": "uint256"
						},
						{
							"internalType": "string",
							"name": "_gender",
							"type": "string"
						},
						{
							"internalType": "string",
							"name": "_alamat",
							"type": "string"
						},
						{
							"internalType": "string",
							"name": "_birthdate",
							"type": "string"
						}
					],
					"name": "updateUserByWallet",
					"outputs": [],
					"stateMutability": "nonpayable",
					"type": "function"
				},
				{
					"inputs": [
						{
							"internalType": "uint256",
							"name": "",
							"type": "uint256"
						}
					],
					"name": "users",
					"outputs": [
						{
							"internalType": "string",
							"name": "name",
							"type": "string"
						},
						{
							"internalType": "string",
							"name": "email",
							"type": "string"
						},
						{
							"internalType": "uint256",
							"name": "phone",
							"type": "uint256"
						},
						{
							"internalType": "string",
							"name": "gender",
							"type": "string"
						},
						{
							"internalType": "string",
							"name": "alamat",
							"type": "string"
						},
						{
							"internalType": "string",
							"name": "birthdate",
							"type": "string"
						},
						{
							"internalType": "address",
							"name": "wallet",
							"type": "address"
						}
					],
					"stateMutability": "view",
					"type": "function"
				}
			],
			"devdoc": {
				"kind": "dev",
				"methods": {},
				"version": 1
			},
			"evm": {
				"assembly": "    /* \"contracts/user.sol\":60:2045  contract UserData {\r... */\n  mstore(0x40, 0x80)\n  callvalue\n  dup1\n  iszero\n  tag_1\n  jumpi\n  0x00\n  dup1\n  revert\ntag_1:\n  pop\n  dataSize(sub_0)\n  dup1\n  dataOffset(sub_0)\n  0x00\n  codecopy\n  0x00\n  return\nstop\n\nsub_0: assembly {\n        /* \"contracts/user.sol\":60:2045  contract UserData {\r... */\n      mstore(0x40, 0x80)\n      callvalue\n      dup1\n      iszero\n      tag_1\n      jumpi\n      0x00\n      dup1\n      revert\n    tag_1:\n      pop\n      jumpi(tag_2, lt(calldatasize, 0x04))\n      shr(0xe0, calldataload(0x00))\n      dup1\n      0x21ef1a99\n      eq\n      tag_3\n      jumpi\n      dup1\n      0x365b98b2\n      eq\n      tag_4\n      jumpi\n      dup1\n      0x3b0328be\n      eq\n      tag_5\n      jumpi\n      dup1\n      0xdacfaedb\n      eq\n      tag_6\n      jumpi\n      dup1\n      0xe2842d79\n      eq\n      tag_7\n      jumpi\n    tag_2:\n      0x00\n      dup1\n      revert\n        /* \"contracts/user.sol\":504:886  function addUser(string memory _name, string memory _email, uint _phone, string memory _gender, string memory _alamat, string memory _birthdate) public {\r... */\n    tag_3:\n      tag_8\n      0x04\n      dup1\n      calldatasize\n      sub\n      dup2\n      add\n      swap1\n      tag_9\n      swap2\n      swap1\n      tag_10\n      jump\t// in\n    tag_9:\n      tag_11\n      jump\t// in\n    tag_8:\n      stop\n        /* \"contracts/user.sol\":476:495  User[] public users */\n    tag_4:\n      tag_12\n      0x04\n      dup1\n      calldatasize\n      sub\n      dup2\n      add\n      swap1\n      tag_13\n      swap2\n      swap1\n      tag_14\n      jump\t// in\n    tag_13:\n      tag_15\n      jump\t// in\n    tag_12:\n      mload(0x40)\n      tag_16\n      swap8\n      swap7\n      swap6\n      swap5\n      swap4\n      swap3\n      swap2\n      swap1\n      tag_17\n      jump\t// in\n    tag_16:\n      mload(0x40)\n      dup1\n      swap2\n      sub\n      swap1\n      return\n        /* \"contracts/user.sol\":894:1338  function getUserByWallet(address _wallet) public view returns (string memory, string memory, uint, string memory, string memory, string memory) {\r... */\n    tag_5:\n      tag_18\n      0x04\n      dup1\n      calldatasize\n      sub\n      dup2\n      add\n      swap1\n      tag_19\n      swap2\n      swap1\n      tag_20\n      jump\t// in\n    tag_19:\n      tag_21\n      jump\t// in\n    tag_18:\n      mload(0x40)\n      tag_22\n      swap7\n      swap6\n      swap5\n      swap4\n      swap3\n      swap2\n      swap1\n      tag_23\n      jump\t// in\n    tag_22:\n      mload(0x40)\n      dup1\n      swap2\n      sub\n      swap1\n      return\n        /* \"contracts/user.sol\":1444:2042  function updateUserByWallet(address _wallet, string memory _name, string memory _email, uint _phone, string memory _gender, string memory _alamat, string memory _birthdate) public {\r... */\n    tag_6:\n      tag_24\n      0x04\n      dup1\n      calldatasize\n      sub\n      dup2\n      add\n      swap1\n      tag_25\n      swap2\n      swap1\n      tag_26\n      jump\t// in\n    tag_25:\n      tag_27\n      jump\t// in\n    tag_24:\n      stop\n        /* \"contracts/user.sol\":1346:1436  function getAllUsers() public view returns (User[] memory) {\r... */\n    tag_7:\n      tag_28\n      tag_29\n      jump\t// in\n    tag_28:\n      mload(0x40)\n      tag_30\n      swap2\n      swap1\n      tag_31\n      jump\t// in\n    tag_30:\n      mload(0x40)\n      dup1\n      swap2\n      sub\n      swap1\n      return\n        /* \"contracts/user.sol\":504:886  function addUser(string memory _name, string memory _email, uint _phone, string memory _gender, string memory _alamat, string memory _birthdate) public {\r... */\n    tag_11:\n        /* \"contracts/user.sol\":667:686  User memory newUser */\n      0x00\n        /* \"contracts/user.sol\":689:758  User(_name, _email, _phone, _gender, _alamat, _birthdate, msg.sender) */\n      mload(0x40)\n      dup1\n      0xe0\n      add\n      0x40\n      mstore\n      dup1\n        /* \"contracts/user.sol\":694:699  _name */\n      dup9\n        /* \"contracts/user.sol\":689:758  User(_name, _email, _phone, _gender, _alamat, _birthdate, msg.sender) */\n      dup2\n      mstore\n      0x20\n      add\n        /* \"contracts/user.sol\":701:707  _email */\n      dup8\n        /* \"contracts/user.sol\":689:758  User(_name, _email, _phone, _gender, _alamat, _birthdate, msg.sender) */\n      dup2\n      mstore\n      0x20\n      add\n        /* \"contracts/user.sol\":709:715  _phone */\n      dup7\n        /* \"contracts/user.sol\":689:758  User(_name, _email, _phone, _gender, _alamat, _birthdate, msg.sender) */\n      dup2\n      mstore\n      0x20\n      add\n        /* \"contracts/user.sol\":717:724  _gender */\n      dup6\n        /* \"contracts/user.sol\":689:758  User(_name, _email, _phone, _gender, _alamat, _birthdate, msg.sender) */\n      dup2\n      mstore\n      0x20\n      add\n        /* \"contracts/user.sol\":726:733  _alamat */\n      dup5\n        /* \"contracts/user.sol\":689:758  User(_name, _email, _phone, _gender, _alamat, _birthdate, msg.sender) */\n      dup2\n      mstore\n      0x20\n      add\n        /* \"contracts/user.sol\":735:745  _birthdate */\n      dup4\n        /* \"contracts/user.sol\":689:758  User(_name, _email, _phone, _gender, _alamat, _birthdate, msg.sender) */\n      dup2\n      mstore\n      0x20\n      add\n        /* \"contracts/user.sol\":747:757  msg.sender */\n      caller\n        /* \"contracts/user.sol\":689:758  User(_name, _email, _phone, _gender, _alamat, _birthdate, msg.sender) */\n      0xffffffffffffffffffffffffffffffffffffffff\n      and\n      dup2\n      mstore\n      pop\n        /* \"contracts/user.sol\":667:758  User memory newUser = User(_name, _email, _phone, _gender, _alamat, _birthdate, msg.sender) */\n      swap1\n      pop\n        /* \"contracts/user.sol\":769:774  users */\n      0x00\n        /* \"contracts/user.sol\":780:787  newUser */\n      dup2\n        /* \"contracts/user.sol\":769:788  users.push(newUser) */\n      swap1\n      dup1\n      0x01\n      dup2\n      sload\n      add\n      dup1\n      dup3\n      sstore\n      dup1\n      swap2\n      pop\n      pop\n      0x01\n      swap1\n      sub\n      swap1\n      0x00\n      mstore\n      keccak256(0x00, 0x20)\n      swap1\n      0x07\n      mul\n      add\n      0x00\n      swap1\n      swap2\n      swap1\n      swap2\n      swap1\n      swap2\n      pop\n      0x00\n      dup3\n      add\n      mload\n      dup2\n      0x00\n      add\n      swap1\n      dup1\n      mload\n      swap1\n      0x20\n      add\n      swap1\n      tag_34\n      swap3\n      swap2\n      swap1\n      tag_35\n      jump\t// in\n    tag_34:\n      pop\n      0x20\n      dup3\n      add\n      mload\n      dup2\n      0x01\n      add\n      swap1\n      dup1\n      mload\n      swap1\n      0x20\n      add\n      swap1\n      tag_36\n      swap3\n      swap2\n      swap1\n      tag_35\n      jump\t// in\n    tag_36:\n      pop\n      0x40\n      dup3\n      add\n      mload\n      dup2\n      0x02\n      add\n      sstore\n      0x60\n      dup3\n      add\n      mload\n      dup2\n      0x03\n      add\n      swap1\n      dup1\n      mload\n      swap1\n      0x20\n      add\n      swap1\n      tag_37\n      swap3\n      swap2\n      swap1\n      tag_35\n      jump\t// in\n    tag_37:\n      pop\n      0x80\n      dup3\n      add\n      mload\n      dup2\n      0x04\n      add\n      swap1\n      dup1\n      mload\n      swap1\n      0x20\n      add\n      swap1\n      tag_38\n      swap3\n      swap2\n      swap1\n      tag_35\n      jump\t// in\n    tag_38:\n      pop\n      0xa0\n      dup3\n      add\n      mload\n      dup2\n      0x05\n      add\n      swap1\n      dup1\n      mload\n      swap1\n      0x20\n      add\n      swap1\n      tag_39\n      swap3\n      swap2\n      swap1\n      tag_35\n      jump\t// in\n    tag_39:\n      pop\n      0xc0\n      dup3\n      add\n      mload\n      dup2\n      0x06\n      add\n      exp(0x0100, 0x00)\n      dup2\n      sload\n      dup2\n      0xffffffffffffffffffffffffffffffffffffffff\n      mul\n      not\n      and\n      swap1\n      dup4\n      0xffffffffffffffffffffffffffffffffffffffff\n      and\n      mul\n      or\n      swap1\n      sstore\n      pop\n      pop\n      pop\n        /* \"contracts/user.sol\":804:878  UserAdded(_name, _email, _phone, _gender, _alamat, _birthdate, msg.sender) */\n      0x423a38afa55e30cfbce5cb1849872f2ddef47d755434455cb4491db88946eb93\n        /* \"contracts/user.sol\":814:819  _name */\n      dup8\n        /* \"contracts/user.sol\":821:827  _email */\n      dup8\n        /* \"contracts/user.sol\":829:835  _phone */\n      dup8\n        /* \"contracts/user.sol\":837:844  _gender */\n      dup8\n        /* \"contracts/user.sol\":846:853  _alamat */\n      dup8\n        /* \"contracts/user.sol\":855:865  _birthdate */\n      dup8\n        /* \"contracts/user.sol\":867:877  msg.sender */\n      caller\n        /* \"contracts/user.sol\":804:878  UserAdded(_name, _email, _phone, _gender, _alamat, _birthdate, msg.sender) */\n      mload(0x40)\n      tag_40\n      swap8\n      swap7\n      swap6\n      swap5\n      swap4\n      swap3\n      swap2\n      swap1\n      tag_17\n      jump\t// in\n    tag_40:\n      mload(0x40)\n      dup1\n      swap2\n      sub\n      swap1\n      log1\n        /* \"contracts/user.sol\":656:886  {\r... */\n      pop\n        /* \"contracts/user.sol\":504:886  function addUser(string memory _name, string memory _email, uint _phone, string memory _gender, string memory _alamat, string memory _birthdate) public {\r... */\n      pop\n      pop\n      pop\n      pop\n      pop\n      pop\n      jump\t// out\n        /* \"contracts/user.sol\":476:495  User[] public users */\n    tag_15:\n      0x00\n      dup2\n      dup2\n      sload\n      dup2\n      lt\n      tag_41\n      jumpi\n      0x00\n      dup1\n      revert\n    tag_41:\n      swap1\n      0x00\n      mstore\n      keccak256(0x00, 0x20)\n      swap1\n      0x07\n      mul\n      add\n      0x00\n      swap2\n      pop\n      swap1\n      pop\n      dup1\n      0x00\n      add\n      dup1\n      sload\n      tag_43\n      swap1\n      tag_44\n      jump\t// in\n    tag_43:\n      dup1\n      0x1f\n      add\n      0x20\n      dup1\n      swap2\n      div\n      mul\n      0x20\n      add\n      mload(0x40)\n      swap1\n      dup2\n      add\n      0x40\n      mstore\n      dup1\n      swap3\n      swap2\n      swap1\n      dup2\n      dup2\n      mstore\n      0x20\n      add\n      dup3\n      dup1\n      sload\n      tag_45\n      swap1\n      tag_44\n      jump\t// in\n    tag_45:\n      dup1\n      iszero\n      tag_46\n      jumpi\n      dup1\n      0x1f\n      lt\n      tag_47\n      jumpi\n      0x0100\n      dup1\n      dup4\n      sload\n      div\n      mul\n      dup4\n      mstore\n      swap2\n      0x20\n      add\n      swap2\n      jump(tag_46)\n    tag_47:\n      dup3\n      add\n      swap2\n      swap1\n      0x00\n      mstore\n      keccak256(0x00, 0x20)\n      swap1\n    tag_48:\n      dup2\n      sload\n      dup2\n      mstore\n      swap1\n      0x01\n      add\n      swap1\n      0x20\n      add\n      dup1\n      dup4\n      gt\n      tag_48\n      jumpi\n      dup3\n      swap1\n      sub\n      0x1f\n      and\n      dup3\n      add\n      swap2\n    tag_46:\n      pop\n      pop\n      pop\n      pop\n      pop\n      swap1\n      dup1\n      0x01\n      add\n      dup1\n      sload\n      tag_49\n      swap1\n      tag_44\n      jump\t// in\n    tag_49:\n      dup1\n      0x1f\n      add\n      0x20\n      dup1\n      swap2\n      div\n      mul\n      0x20\n      add\n      mload(0x40)\n      swap1\n      dup2\n      add\n      0x40\n      mstore\n      dup1\n      swap3\n      swap2\n      swap1\n      dup2\n      dup2\n      mstore\n      0x20\n      add\n      dup3\n      dup1\n      sload\n      tag_50\n      swap1\n      tag_44\n      jump\t// in\n    tag_50:\n      dup1\n      iszero\n      tag_51\n      jumpi\n      dup1\n      0x1f\n      lt\n      tag_52\n      jumpi\n      0x0100\n      dup1\n      dup4\n      sload\n      div\n      mul\n      dup4\n      mstore\n      swap2\n      0x20\n      add\n      swap2\n      jump(tag_51)\n    tag_52:\n      dup3\n      add\n      swap2\n      swap1\n      0x00\n      mstore\n      keccak256(0x00, 0x20)\n      swap1\n    tag_53:\n      dup2\n      sload\n      dup2\n      mstore\n      swap1\n      0x01\n      add\n      swap1\n      0x20\n      add\n      dup1\n      dup4\n      gt\n      tag_53\n      jumpi\n      dup3\n      swap1\n      sub\n      0x1f\n      and\n      dup3\n      add\n      swap2\n    tag_51:\n      pop\n      pop\n      pop\n      pop\n      pop\n      swap1\n      dup1\n      0x02\n      add\n      sload\n      swap1\n      dup1\n      0x03\n      add\n      dup1\n      sload\n      tag_54\n      swap1\n      tag_44\n      jump\t// in\n    tag_54:\n      dup1\n      0x1f\n      add\n      0x20\n      dup1\n      swap2\n      div\n      mul\n      0x20\n      add\n      mload(0x40)\n      swap1\n      dup2\n      add\n      0x40\n      mstore\n      dup1\n      swap3\n      swap2\n      swap1\n      dup2\n      dup2\n      mstore\n      0x20\n      add\n      dup3\n      dup1\n      sload\n      tag_55\n      swap1\n      tag_44\n      jump\t// in\n    tag_55:\n      dup1\n      iszero\n      tag_56\n      jumpi\n      dup1\n      0x1f\n      lt\n      tag_57\n      jumpi\n      0x0100\n      dup1\n      dup4\n      sload\n      div\n      mul\n      dup4\n      mstore\n      swap2\n      0x20\n      add\n      swap2\n      jump(tag_56)\n    tag_57:\n      dup3\n      add\n      swap2\n      swap1\n      0x00\n      mstore\n      keccak256(0x00, 0x20)\n      swap1\n    tag_58:\n      dup2\n      sload\n      dup2\n      mstore\n      swap1\n      0x01\n      add\n      swap1\n      0x20\n      add\n      dup1\n      dup4\n      gt\n      tag_58\n      jumpi\n      dup3\n      swap1\n      sub\n      0x1f\n      and\n      dup3\n      add\n      swap2\n    tag_56:\n      pop\n      pop\n      pop\n      pop\n      pop\n      swap1\n      dup1\n      0x04\n      add\n      dup1\n      sload\n      tag_59\n      swap1\n      tag_44\n      jump\t// in\n    tag_59:\n      dup1\n      0x1f\n      add\n      0x20\n      dup1\n      swap2\n      div\n      mul\n      0x20\n      add\n      mload(0x40)\n      swap1\n      dup2\n      add\n      0x40\n      mstore\n      dup1\n      swap3\n      swap2\n      swap1\n      dup2\n      dup2\n      mstore\n      0x20\n      add\n      dup3\n      dup1\n      sload\n      tag_60\n      swap1\n      tag_44\n      jump\t// in\n    tag_60:\n      dup1\n      iszero\n      tag_61\n      jumpi\n      dup1\n      0x1f\n      lt\n      tag_62\n      jumpi\n      0x0100\n      dup1\n      dup4\n      sload\n      div\n      mul\n      dup4\n      mstore\n      swap2\n      0x20\n      add\n      swap2\n      jump(tag_61)\n    tag_62:\n      dup3\n      add\n      swap2\n      swap1\n      0x00\n      mstore\n      keccak256(0x00, 0x20)\n      swap1\n    tag_63:\n      dup2\n      sload\n      dup2\n      mstore\n      swap1\n      0x01\n      add\n      swap1\n      0x20\n      add\n      dup1\n      dup4\n      gt\n      tag_63\n      jumpi\n      dup3\n      swap1\n      sub\n      0x1f\n      and\n      dup3\n      add\n      swap2\n    tag_61:\n      pop\n      pop\n      pop\n      pop\n      pop\n      swap1\n      dup1\n      0x05\n      add\n      dup1\n      sload\n      tag_64\n      swap1\n      tag_44\n      jump\t// in\n    tag_64:\n      dup1\n      0x1f\n      add\n      0x20\n      dup1\n      swap2\n      div\n      mul\n      0x20\n      add\n      mload(0x40)\n      swap1\n      dup2\n      add\n      0x40\n      mstore\n      dup1\n      swap3\n      swap2\n      swap1\n      dup2\n      dup2\n      mstore\n      0x20\n      add\n      dup3\n      dup1\n      sload\n      tag_65\n      swap1\n      tag_44\n      jump\t// in\n    tag_65:\n      dup1\n      iszero\n      tag_66\n      jumpi\n      dup1\n      0x1f\n      lt\n      tag_67\n      jumpi\n      0x0100\n      dup1\n      dup4\n      sload\n      div\n      mul\n      dup4\n      mstore\n      swap2\n      0x20\n      add\n      swap2\n      jump(tag_66)\n    tag_67:\n      dup3\n      add\n      swap2\n      swap1\n      0x00\n      mstore\n      keccak256(0x00, 0x20)\n      swap1\n    tag_68:\n      dup2\n      sload\n      dup2\n      mstore\n      swap1\n      0x01\n      add\n      swap1\n      0x20\n      add\n      dup1\n      dup4\n      gt\n      tag_68\n      jumpi\n      dup3\n      swap1\n      sub\n      0x1f\n      and\n      dup3\n      add\n      swap2\n    tag_66:\n      pop\n      pop\n      pop\n      pop\n      pop\n      swap1\n      dup1\n      0x06\n      add\n      0x00\n      swap1\n      sload\n      swap1\n      0x0100\n      exp\n      swap1\n      div\n      0xffffffffffffffffffffffffffffffffffffffff\n      and\n      swap1\n      pop\n      dup8\n      jump\t// out\n        /* \"contracts/user.sol\":894:1338  function getUserByWallet(address _wallet) public view returns (string memory, string memory, uint, string memory, string memory, string memory) {\r... */\n    tag_21:\n        /* \"contracts/user.sol\":957:970  string memory */\n      0x60\n        /* \"contracts/user.sol\":972:985  string memory */\n      dup1\n        /* \"contracts/user.sol\":987:991  uint */\n      0x00\n        /* \"contracts/user.sol\":993:1006  string memory */\n      0x60\n        /* \"contracts/user.sol\":1008:1021  string memory */\n      dup1\n        /* \"contracts/user.sol\":1023:1036  string memory */\n      0x60\n        /* \"contracts/user.sol\":1054:1060  uint i */\n      0x00\n        /* \"contracts/user.sol\":1049:1290  for (uint i = 0; i < users.length; i++) {\r... */\n    tag_70:\n        /* \"contracts/user.sol\":1070:1075  users */\n      0x00\n        /* \"contracts/user.sol\":1070:1082  users.length */\n      dup1\n      sload\n      swap1\n      pop\n        /* \"contracts/user.sol\":1066:1067  i */\n      dup2\n        /* \"contracts/user.sol\":1066:1082  i < users.length */\n      lt\n        /* \"contracts/user.sol\":1049:1290  for (uint i = 0; i < users.length; i++) {\r... */\n      iszero\n      tag_71\n      jumpi\n        /* \"contracts/user.sol\":1127:1134  _wallet */\n      dup8\n        /* \"contracts/user.sol\":1108:1134  users[i].wallet == _wallet */\n      0xffffffffffffffffffffffffffffffffffffffff\n      and\n        /* \"contracts/user.sol\":1108:1113  users */\n      0x00\n        /* \"contracts/user.sol\":1114:1115  i */\n      dup3\n        /* \"contracts/user.sol\":1108:1116  users[i] */\n      dup2\n      sload\n      dup2\n      lt\n      tag_73\n      jumpi\n      tag_74\n      tag_75\n      jump\t// in\n    tag_74:\n    tag_73:\n      swap1\n      0x00\n      mstore\n      keccak256(0x00, 0x20)\n      swap1\n      0x07\n      mul\n      add\n        /* \"contracts/user.sol\":1108:1123  users[i].wallet */\n      0x06\n      add\n      0x00\n      swap1\n      sload\n      swap1\n      0x0100\n      exp\n      swap1\n      div\n      0xffffffffffffffffffffffffffffffffffffffff\n      and\n        /* \"contracts/user.sol\":1108:1134  users[i].wallet == _wallet */\n      0xffffffffffffffffffffffffffffffffffffffff\n      and\n      eq\n        /* \"contracts/user.sol\":1104:1279  if (users[i].wallet == _wallet) {\r... */\n      iszero\n      tag_77\n      jumpi\n        /* \"contracts/user.sol\":1163:1168  users */\n      0x00\n        /* \"contracts/user.sol\":1169:1170  i */\n      dup2\n        /* \"contracts/user.sol\":1163:1171  users[i] */\n      dup2\n      sload\n      dup2\n      lt\n      tag_78\n      jumpi\n      tag_79\n      tag_75\n      jump\t// in\n    tag_79:\n    tag_78:\n      swap1\n      0x00\n      mstore\n      keccak256(0x00, 0x20)\n      swap1\n      0x07\n      mul\n      add\n        /* \"contracts/user.sol\":1163:1176  users[i].name */\n      0x00\n      add\n        /* \"contracts/user.sol\":1178:1183  users */\n      0x00\n        /* \"contracts/user.sol\":1184:1185  i */\n      dup3\n        /* \"contracts/user.sol\":1178:1186  users[i] */\n      dup2\n      sload\n      dup2\n      lt\n      tag_81\n      jumpi\n      tag_82\n      tag_75\n      jump\t// in\n    tag_82:\n    tag_81:\n      swap1\n      0x00\n      mstore\n      keccak256(0x00, 0x20)\n      swap1\n      0x07\n      mul\n      add\n        /* \"contracts/user.sol\":1178:1192  users[i].email */\n      0x01\n      add\n        /* \"contracts/user.sol\":1194:1199  users */\n      0x00\n        /* \"contracts/user.sol\":1200:1201  i */\n      dup4\n        /* \"contracts/user.sol\":1194:1202  users[i] */\n      dup2\n      sload\n      dup2\n      lt\n      tag_84\n      jumpi\n      tag_85\n      tag_75\n      jump\t// in\n    tag_85:\n    tag_84:\n      swap1\n      0x00\n      mstore\n      keccak256(0x00, 0x20)\n      swap1\n      0x07\n      mul\n      add\n        /* \"contracts/user.sol\":1194:1208  users[i].phone */\n      0x02\n      add\n      sload\n        /* \"contracts/user.sol\":1210:1215  users */\n      0x00\n        /* \"contracts/user.sol\":1216:1217  i */\n      dup5\n        /* \"contracts/user.sol\":1210:1218  users[i] */\n      dup2\n      sload\n      dup2\n      lt\n      tag_87\n      jumpi\n      tag_88\n      tag_75\n      jump\t// in\n    tag_88:\n    tag_87:\n      swap1\n      0x00\n      mstore\n      keccak256(0x00, 0x20)\n      swap1\n      0x07\n      mul\n      add\n        /* \"contracts/user.sol\":1210:1225  users[i].gender */\n      0x03\n      add\n        /* \"contracts/user.sol\":1227:1232  users */\n      0x00\n        /* \"contracts/user.sol\":1233:1234  i */\n      dup6\n        /* \"contracts/user.sol\":1227:1235  users[i] */\n      dup2\n      sload\n      dup2\n      lt\n      tag_90\n      jumpi\n      tag_91\n      tag_75\n      jump\t// in\n    tag_91:\n    tag_90:\n      swap1\n      0x00\n      mstore\n      keccak256(0x00, 0x20)\n      swap1\n      0x07\n      mul\n      add\n        /* \"contracts/user.sol\":1227:1242  users[i].alamat */\n      0x04\n      add\n        /* \"contracts/user.sol\":1244:1249  users */\n      0x00\n        /* \"contracts/user.sol\":1250:1251  i */\n      dup7\n        /* \"contracts/user.sol\":1244:1252  users[i] */\n      dup2\n      sload\n      dup2\n      lt\n      tag_93\n      jumpi\n      tag_94\n      tag_75\n      jump\t// in\n    tag_94:\n    tag_93:\n      swap1\n      0x00\n      mstore\n      keccak256(0x00, 0x20)\n      swap1\n      0x07\n      mul\n      add\n        /* \"contracts/user.sol\":1244:1262  users[i].birthdate */\n      0x05\n      add\n        /* \"contracts/user.sol\":1155:1263  return (users[i].name, users[i].email, users[i].phone, users[i].gender, users[i].alamat, users[i].birthdate) */\n      dup6\n      dup1\n      sload\n      tag_96\n      swap1\n      tag_44\n      jump\t// in\n    tag_96:\n      dup1\n      0x1f\n      add\n      0x20\n      dup1\n      swap2\n      div\n      mul\n      0x20\n      add\n      mload(0x40)\n      swap1\n      dup2\n      add\n      0x40\n      mstore\n      dup1\n      swap3\n      swap2\n      swap1\n      dup2\n      dup2\n      mstore\n      0x20\n      add\n      dup3\n      dup1\n      sload\n      tag_97\n      swap1\n      tag_44\n      jump\t// in\n    tag_97:\n      dup1\n      iszero\n      tag_98\n      jumpi\n      dup1\n      0x1f\n      lt\n      tag_99\n      jumpi\n      0x0100\n      dup1\n      dup4\n      sload\n      div\n      mul\n      dup4\n      mstore\n      swap2\n      0x20\n      add\n      swap2\n      jump(tag_98)\n    tag_99:\n      dup3\n      add\n      swap2\n      swap1\n      0x00\n      mstore\n      keccak256(0x00, 0x20)\n      swap1\n    tag_100:\n      dup2\n      sload\n      dup2\n      mstore\n      swap1\n      0x01\n      add\n      swap1\n      0x20\n      add\n      dup1\n      dup4\n      gt\n      tag_100\n      jumpi\n      dup3\n      swap1\n      sub\n      0x1f\n      and\n      dup3\n      add\n      swap2\n    tag_98:\n      pop\n      pop\n      pop\n      pop\n      pop\n      swap6\n      pop\n      dup5\n      dup1\n      sload\n      tag_101\n      swap1\n      tag_44\n      jump\t// in\n    tag_101:\n      dup1\n      0x1f\n      add\n      0x20\n      dup1\n      swap2\n      div\n      mul\n      0x20\n      add\n      mload(0x40)\n      swap1\n      dup2\n      add\n      0x40\n      mstore\n      dup1\n      swap3\n      swap2\n      swap1\n      dup2\n      dup2\n      mstore\n      0x20\n      add\n      dup3\n      dup1\n      sload\n      tag_102\n      swap1\n      tag_44\n      jump\t// in\n    tag_102:\n      dup1\n      iszero\n      tag_103\n      jumpi\n      dup1\n      0x1f\n      lt\n      tag_104\n      jumpi\n      0x0100\n      dup1\n      dup4\n      sload\n      div\n      mul\n      dup4\n      mstore\n      swap2\n      0x20\n      add\n      swap2\n      jump(tag_103)\n    tag_104:\n      dup3\n      add\n      swap2\n      swap1\n      0x00\n      mstore\n      keccak256(0x00, 0x20)\n      swap1\n    tag_105:\n      dup2\n      sload\n      dup2\n      mstore\n      swap1\n      0x01\n      add\n      swap1\n      0x20\n      add\n      dup1\n      dup4\n      gt\n      tag_105\n      jumpi\n      dup3\n      swap1\n      sub\n      0x1f\n      and\n      dup3\n      add\n      swap2\n    tag_103:\n      pop\n      pop\n      pop\n      pop\n      pop\n      swap5\n      pop\n      dup3\n      dup1\n      sload\n      tag_106\n      swap1\n      tag_44\n      jump\t// in\n    tag_106:\n      dup1\n      0x1f\n      add\n      0x20\n      dup1\n      swap2\n      div\n      mul\n      0x20\n      add\n      mload(0x40)\n      swap1\n      dup2\n      add\n      0x40\n      mstore\n      dup1\n      swap3\n      swap2\n      swap1\n      dup2\n      dup2\n      mstore\n      0x20\n      add\n      dup3\n      dup1\n      sload\n      tag_107\n      swap1\n      tag_44\n      jump\t// in\n    tag_107:\n      dup1\n      iszero\n      tag_108\n      jumpi\n      dup1\n      0x1f\n      lt\n      tag_109\n      jumpi\n      0x0100\n      dup1\n      dup4\n      sload\n      div\n      mul\n      dup4\n      mstore\n      swap2\n      0x20\n      add\n      swap2\n      jump(tag_108)\n    tag_109:\n      dup3\n      add\n      swap2\n      swap1\n      0x00\n      mstore\n      keccak256(0x00, 0x20)\n      swap1\n    tag_110:\n      dup2\n      sload\n      dup2\n      mstore\n      swap1\n      0x01\n      add\n      swap1\n      0x20\n      add\n      dup1\n      dup4\n      gt\n      tag_110\n      jumpi\n      dup3\n      swap1\n      sub\n      0x1f\n      and\n      dup3\n      add\n      swap2\n    tag_108:\n      pop\n      pop\n      pop\n      pop\n      pop\n      swap3\n      pop\n      dup2\n      dup1\n      sload\n      tag_111\n      swap1\n      tag_44\n      jump\t// in\n    tag_111:\n      dup1\n      0x1f\n      add\n      0x20\n      dup1\n      swap2\n      div\n      mul\n      0x20\n      add\n      mload(0x40)\n      swap1\n      dup2\n      add\n      0x40\n      mstore\n      dup1\n      swap3\n      swap2\n      swap1\n      dup2\n      dup2\n      mstore\n      0x20\n      add\n      dup3\n      dup1\n      sload\n      tag_112\n      swap1\n      tag_44\n      jump\t// in\n    tag_112:\n      dup1\n      iszero\n      tag_113\n      jumpi\n      dup1\n      0x1f\n      lt\n      tag_114\n      jumpi\n      0x0100\n      dup1\n      dup4\n      sload\n      div\n      mul\n      dup4\n      mstore\n      swap2\n      0x20\n      add\n      swap2\n      jump(tag_113)\n    tag_114:\n      dup3\n      add\n      swap2\n      swap1\n      0x00\n      mstore\n      keccak256(0x00, 0x20)\n      swap1\n    tag_115:\n      dup2\n      sload\n      dup2\n      mstore\n      swap1\n      0x01\n      add\n      swap1\n      0x20\n      add\n      dup1\n      dup4\n      gt\n      tag_115\n      jumpi\n      dup3\n      swap1\n      sub\n      0x1f\n      and\n      dup3\n      add\n      swap2\n    tag_113:\n      pop\n      pop\n      pop\n      pop\n      pop\n      swap2\n      pop\n      dup1\n      dup1\n      sload\n      tag_116\n      swap1\n      tag_44\n      jump\t// in\n    tag_116:\n      dup1\n      0x1f\n      add\n      0x20\n      dup1\n      swap2\n      div\n      mul\n      0x20\n      add\n      mload(0x40)\n      swap1\n      dup2\n      add\n      0x40\n      mstore\n      dup1\n      swap3\n      swap2\n      swap1\n      dup2\n      dup2\n      mstore\n      0x20\n      add\n      dup3\n      dup1\n      sload\n      tag_117\n      swap1\n      tag_44\n      jump\t// in\n    tag_117:\n      dup1\n      iszero\n      tag_118\n      jumpi\n      dup1\n      0x1f\n      lt\n      tag_119\n      jumpi\n      0x0100\n      dup1\n      dup4\n      sload\n      div\n      mul\n      dup4\n      mstore\n      swap2\n      0x20\n      add\n      swap2\n      jump(tag_118)\n    tag_119:\n      dup3\n      add\n      swap2\n      swap1\n      0x00\n      mstore\n      keccak256(0x00, 0x20)\n      swap1\n    tag_120:\n      dup2\n      sload\n      dup2\n      mstore\n      swap1\n      0x01\n      add\n      swap1\n      0x20\n      add\n      dup1\n      dup4\n      gt\n      tag_120\n      jumpi\n      dup3\n      swap1\n      sub\n      0x1f\n      and\n      dup3\n      add\n      swap2\n    tag_118:\n      pop\n      pop\n      pop\n      pop\n      pop\n      swap1\n      pop\n      swap7\n      pop\n      swap7\n      pop\n      swap7\n      pop\n      swap7\n      pop\n      swap7\n      pop\n      swap7\n      pop\n      pop\n      jump(tag_69)\n        /* \"contracts/user.sol\":1104:1279  if (users[i].wallet == _wallet) {\r... */\n    tag_77:\n        /* \"contracts/user.sol\":1084:1087  i++ */\n      dup1\n      dup1\n      tag_121\n      swap1\n      tag_122\n      jump\t// in\n    tag_121:\n      swap2\n      pop\n      pop\n        /* \"contracts/user.sol\":1049:1290  for (uint i = 0; i < users.length; i++) {\r... */\n      jump(tag_70)\n    tag_71:\n      pop\n        /* \"contracts/user.sol\":1316:1317  0 */\n      0x00\n        /* \"contracts/user.sol\":1300:1330  return (\"\", \"\", 0, \"\", \"\", \"\") */\n      mload(0x40)\n      dup1\n      0x20\n      add\n      0x40\n      mstore\n      dup1\n      0x00\n      dup2\n      mstore\n      pop\n      swap1\n      mload(0x40)\n      dup1\n      0x20\n      add\n      0x40\n      mstore\n      dup1\n      0x00\n      dup2\n      mstore\n      pop\n      swap1\n      mload(0x40)\n      dup1\n      0x20\n      add\n      0x40\n      mstore\n      dup1\n      0x00\n      dup2\n      mstore\n      pop\n      mload(0x40)\n      dup1\n      0x20\n      add\n      0x40\n      mstore\n      dup1\n      0x00\n      dup2\n      mstore\n      pop\n      mload(0x40)\n      dup1\n      0x20\n      add\n      0x40\n      mstore\n      dup1\n      0x00\n      dup2\n      mstore\n      pop\n      swap6\n      pop\n      swap6\n      pop\n      swap6\n      pop\n      swap6\n      pop\n      swap6\n      pop\n      swap6\n      pop\n        /* \"contracts/user.sol\":894:1338  function getUserByWallet(address _wallet) public view returns (string memory, string memory, uint, string memory, string memory, string memory) {\r... */\n    tag_69:\n      swap2\n      swap4\n      swap6\n      pop\n      swap2\n      swap4\n      swap6\n      jump\t// out\n        /* \"contracts/user.sol\":1444:2042  function updateUserByWallet(address _wallet, string memory _name, string memory _email, uint _phone, string memory _gender, string memory _alamat, string memory _birthdate) public {\r... */\n    tag_27:\n        /* \"contracts/user.sol\":1640:1646  uint i */\n      0x00\n        /* \"contracts/user.sol\":1635:2035  for (uint i = 0; i < users.length; i++) {\r... */\n    tag_124:\n        /* \"contracts/user.sol\":1656:1661  users */\n      0x00\n        /* \"contracts/user.sol\":1656:1668  users.length */\n      dup1\n      sload\n      swap1\n      pop\n        /* \"contracts/user.sol\":1652:1653  i */\n      dup2\n        /* \"contracts/user.sol\":1652:1668  i < users.length */\n      lt\n        /* \"contracts/user.sol\":1635:2035  for (uint i = 0; i < users.length; i++) {\r... */\n      iszero\n      tag_125\n      jumpi\n        /* \"contracts/user.sol\":1713:1720  _wallet */\n      dup8\n        /* \"contracts/user.sol\":1694:1720  users[i].wallet == _wallet */\n      0xffffffffffffffffffffffffffffffffffffffff\n      and\n        /* \"contracts/user.sol\":1694:1699  users */\n      0x00\n        /* \"contracts/user.sol\":1700:1701  i */\n      dup3\n        /* \"contracts/user.sol\":1694:1702  users[i] */\n      dup2\n      sload\n      dup2\n      lt\n      tag_127\n      jumpi\n      tag_128\n      tag_75\n      jump\t// in\n    tag_128:\n    tag_127:\n      swap1\n      0x00\n      mstore\n      keccak256(0x00, 0x20)\n      swap1\n      0x07\n      mul\n      add\n        /* \"contracts/user.sol\":1694:1709  users[i].wallet */\n      0x06\n      add\n      0x00\n      swap1\n      sload\n      swap1\n      0x0100\n      exp\n      swap1\n      div\n      0xffffffffffffffffffffffffffffffffffffffff\n      and\n        /* \"contracts/user.sol\":1694:1720  users[i].wallet == _wallet */\n      0xffffffffffffffffffffffffffffffffffffffff\n      and\n      eq\n        /* \"contracts/user.sol\":1690:2024  if (users[i].wallet == _wallet) {\r... */\n      iszero\n      tag_130\n      jumpi\n        /* \"contracts/user.sol\":1757:1762  _name */\n      dup7\n        /* \"contracts/user.sol\":1741:1746  users */\n      0x00\n        /* \"contracts/user.sol\":1747:1748  i */\n      dup3\n        /* \"contracts/user.sol\":1741:1749  users[i] */\n      dup2\n      sload\n      dup2\n      lt\n      tag_131\n      jumpi\n      tag_132\n      tag_75\n      jump\t// in\n    tag_132:\n    tag_131:\n      swap1\n      0x00\n      mstore\n      keccak256(0x00, 0x20)\n      swap1\n      0x07\n      mul\n      add\n        /* \"contracts/user.sol\":1741:1754  users[i].name */\n      0x00\n      add\n        /* \"contracts/user.sol\":1741:1762  users[i].name = _name */\n      swap1\n      dup1\n      mload\n      swap1\n      0x20\n      add\n      swap1\n      tag_134\n      swap3\n      swap2\n      swap1\n      tag_35\n      jump\t// in\n    tag_134:\n      pop\n        /* \"contracts/user.sol\":1798:1804  _email */\n      dup6\n        /* \"contracts/user.sol\":1781:1786  users */\n      0x00\n        /* \"contracts/user.sol\":1787:1788  i */\n      dup3\n        /* \"contracts/user.sol\":1781:1789  users[i] */\n      dup2\n      sload\n      dup2\n      lt\n      tag_135\n      jumpi\n      tag_136\n      tag_75\n      jump\t// in\n    tag_136:\n    tag_135:\n      swap1\n      0x00\n      mstore\n      keccak256(0x00, 0x20)\n      swap1\n      0x07\n      mul\n      add\n        /* \"contracts/user.sol\":1781:1795  users[i].email */\n      0x01\n      add\n        /* \"contracts/user.sol\":1781:1804  users[i].email = _email */\n      swap1\n      dup1\n      mload\n      swap1\n      0x20\n      add\n      swap1\n      tag_138\n      swap3\n      swap2\n      swap1\n      tag_35\n      jump\t// in\n    tag_138:\n      pop\n        /* \"contracts/user.sol\":1840:1846  _phone */\n      dup5\n        /* \"contracts/user.sol\":1823:1828  users */\n      0x00\n        /* \"contracts/user.sol\":1829:1830  i */\n      dup3\n        /* \"contracts/user.sol\":1823:1831  users[i] */\n      dup2\n      sload\n      dup2\n      lt\n      tag_139\n      jumpi\n      tag_140\n      tag_75\n      jump\t// in\n    tag_140:\n    tag_139:\n      swap1\n      0x00\n      mstore\n      keccak256(0x00, 0x20)\n      swap1\n      0x07\n      mul\n      add\n        /* \"contracts/user.sol\":1823:1837  users[i].phone */\n      0x02\n      add\n        /* \"contracts/user.sol\":1823:1846  users[i].phone = _phone */\n      dup2\n      swap1\n      sstore\n      pop\n        /* \"contracts/user.sol\":1883:1890  _gender */\n      dup4\n        /* \"contracts/user.sol\":1865:1870  users */\n      0x00\n        /* \"contracts/user.sol\":1871:1872  i */\n      dup3\n        /* \"contracts/user.sol\":1865:1873  users[i] */\n      dup2\n      sload\n      dup2\n      lt\n      tag_142\n      jumpi\n      tag_143\n      tag_75\n      jump\t// in\n    tag_143:\n    tag_142:\n      swap1\n      0x00\n      mstore\n      keccak256(0x00, 0x20)\n      swap1\n      0x07\n      mul\n      add\n        /* \"contracts/user.sol\":1865:1880  users[i].gender */\n      0x03\n      add\n        /* \"contracts/user.sol\":1865:1890  users[i].gender = _gender */\n      swap1\n      dup1\n      mload\n      swap1\n      0x20\n      add\n      swap1\n      tag_145\n      swap3\n      swap2\n      swap1\n      tag_35\n      jump\t// in\n    tag_145:\n      pop\n        /* \"contracts/user.sol\":1927:1934  _alamat */\n      dup3\n        /* \"contracts/user.sol\":1909:1914  users */\n      0x00\n        /* \"contracts/user.sol\":1915:1916  i */\n      dup3\n        /* \"contracts/user.sol\":1909:1917  users[i] */\n      dup2\n      sload\n      dup2\n      lt\n      tag_146\n      jumpi\n      tag_147\n      tag_75\n      jump\t// in\n    tag_147:\n    tag_146:\n      swap1\n      0x00\n      mstore\n      keccak256(0x00, 0x20)\n      swap1\n      0x07\n      mul\n      add\n        /* \"contracts/user.sol\":1909:1924  users[i].alamat */\n      0x04\n      add\n        /* \"contracts/user.sol\":1909:1934  users[i].alamat = _alamat */\n      swap1\n      dup1\n      mload\n      swap1\n      0x20\n      add\n      swap1\n      tag_149\n      swap3\n      swap2\n      swap1\n      tag_35\n      jump\t// in\n    tag_149:\n      pop\n        /* \"contracts/user.sol\":1974:1984  _birthdate */\n      dup2\n        /* \"contracts/user.sol\":1953:1958  users */\n      0x00\n        /* \"contracts/user.sol\":1959:1960  i */\n      dup3\n        /* \"contracts/user.sol\":1953:1961  users[i] */\n      dup2\n      sload\n      dup2\n      lt\n      tag_150\n      jumpi\n      tag_151\n      tag_75\n      jump\t// in\n    tag_151:\n    tag_150:\n      swap1\n      0x00\n      mstore\n      keccak256(0x00, 0x20)\n      swap1\n      0x07\n      mul\n      add\n        /* \"contracts/user.sol\":1953:1971  users[i].birthdate */\n      0x05\n      add\n        /* \"contracts/user.sol\":1953:1984  users[i].birthdate = _birthdate */\n      swap1\n      dup1\n      mload\n      swap1\n      0x20\n      add\n      swap1\n      tag_153\n      swap3\n      swap2\n      swap1\n      tag_35\n      jump\t// in\n    tag_153:\n      pop\n        /* \"contracts/user.sol\":2003:2008  break */\n      jump(tag_125)\n        /* \"contracts/user.sol\":1690:2024  if (users[i].wallet == _wallet) {\r... */\n    tag_130:\n        /* \"contracts/user.sol\":1670:1673  i++ */\n      dup1\n      dup1\n      tag_154\n      swap1\n      tag_122\n      jump\t// in\n    tag_154:\n      swap2\n      pop\n      pop\n        /* \"contracts/user.sol\":1635:2035  for (uint i = 0; i < users.length; i++) {\r... */\n      jump(tag_124)\n    tag_125:\n      pop\n        /* \"contracts/user.sol\":1444:2042  function updateUserByWallet(address _wallet, string memory _name, string memory _email, uint _phone, string memory _gender, string memory _alamat, string memory _birthdate) public {\r... */\n      pop\n      pop\n      pop\n      pop\n      pop\n      pop\n      pop\n      jump\t// out\n        /* \"contracts/user.sol\":1346:1436  function getAllUsers() public view returns (User[] memory) {\r... */\n    tag_29:\n        /* \"contracts/user.sol\":1390:1403  User[] memory */\n      0x60\n        /* \"contracts/user.sol\":1423:1428  users */\n      0x00\n        /* \"contracts/user.sol\":1416:1428  return users */\n      dup1\n      sload\n      dup1\n      0x20\n      mul\n      0x20\n      add\n      mload(0x40)\n      swap1\n      dup2\n      add\n      0x40\n      mstore\n      dup1\n      swap3\n      swap2\n      swap1\n      dup2\n      dup2\n      mstore\n      0x20\n      add\n      0x00\n      swap1\n    tag_156:\n      dup3\n      dup3\n      lt\n      iszero\n      tag_157\n      jumpi\n      dup4\n      dup3\n      swap1\n      0x00\n      mstore\n      keccak256(0x00, 0x20)\n      swap1\n      0x07\n      mul\n      add\n      mload(0x40)\n      dup1\n      0xe0\n      add\n      0x40\n      mstore\n      swap1\n      dup2\n      0x00\n      dup3\n      add\n      dup1\n      sload\n      tag_159\n      swap1\n      tag_44\n      jump\t// in\n    tag_159:\n      dup1\n      0x1f\n      add\n      0x20\n      dup1\n      swap2\n      div\n      mul\n      0x20\n      add\n      mload(0x40)\n      swap1\n      dup2\n      add\n      0x40\n      mstore\n      dup1\n      swap3\n      swap2\n      swap1\n      dup2\n      dup2\n      mstore\n      0x20\n      add\n      dup3\n      dup1\n      sload\n      tag_160\n      swap1\n      tag_44\n      jump\t// in\n    tag_160:\n      dup1\n      iszero\n      tag_161\n      jumpi\n      dup1\n      0x1f\n      lt\n      tag_162\n      jumpi\n      0x0100\n      dup1\n      dup4\n      sload\n      div\n      mul\n      dup4\n      mstore\n      swap2\n      0x20\n      add\n      swap2\n      jump(tag_161)\n    tag_162:\n      dup3\n      add\n      swap2\n      swap1\n      0x00\n      mstore\n      keccak256(0x00, 0x20)\n      swap1\n    tag_163:\n      dup2\n      sload\n      dup2\n      mstore\n      swap1\n      0x01\n      add\n      swap1\n      0x20\n      add\n      dup1\n      dup4\n      gt\n      tag_163\n      jumpi\n      dup3\n      swap1\n      sub\n      0x1f\n      and\n      dup3\n      add\n      swap2\n    tag_161:\n      pop\n      pop\n      pop\n      pop\n      pop\n      dup2\n      mstore\n      0x20\n      add\n      0x01\n      dup3\n      add\n      dup1\n      sload\n      tag_164\n      swap1\n      tag_44\n      jump\t// in\n    tag_164:\n      dup1\n      0x1f\n      add\n      0x20\n      dup1\n      swap2\n      div\n      mul\n      0x20\n      add\n      mload(0x40)\n      swap1\n      dup2\n      add\n      0x40\n      mstore\n      dup1\n      swap3\n      swap2\n      swap1\n      dup2\n      dup2\n      mstore\n      0x20\n      add\n      dup3\n      dup1\n      sload\n      tag_165\n      swap1\n      tag_44\n      jump\t// in\n    tag_165:\n      dup1\n      iszero\n      tag_166\n      jumpi\n      dup1\n      0x1f\n      lt\n      tag_167\n      jumpi\n      0x0100\n      dup1\n      dup4\n      sload\n      div\n      mul\n      dup4\n      mstore\n      swap2\n      0x20\n      add\n      swap2\n      jump(tag_166)\n    tag_167:\n      dup3\n      add\n      swap2\n      swap1\n      0x00\n      mstore\n      keccak256(0x00, 0x20)\n      swap1\n    tag_168:\n      dup2\n      sload\n      dup2\n      mstore\n      swap1\n      0x01\n      add\n      swap1\n      0x20\n      add\n      dup1\n      dup4\n      gt\n      tag_168\n      jumpi\n      dup3\n      swap1\n      sub\n      0x1f\n      and\n      dup3\n      add\n      swap2\n    tag_166:\n      pop\n      pop\n      pop\n      pop\n      pop\n      dup2\n      mstore\n      0x20\n      add\n      0x02\n      dup3\n      add\n      sload\n      dup2\n      mstore\n      0x20\n      add\n      0x03\n      dup3\n      add\n      dup1\n      sload\n      tag_169\n      swap1\n      tag_44\n      jump\t// in\n    tag_169:\n      dup1\n      0x1f\n      add\n      0x20\n      dup1\n      swap2\n      div\n      mul\n      0x20\n      add\n      mload(0x40)\n      swap1\n      dup2\n      add\n      0x40\n      mstore\n      dup1\n      swap3\n      swap2\n      swap1\n      dup2\n      dup2\n      mstore\n      0x20\n      add\n      dup3\n      dup1\n      sload\n      tag_170\n      swap1\n      tag_44\n      jump\t// in\n    tag_170:\n      dup1\n      iszero\n      tag_171\n      jumpi\n      dup1\n      0x1f\n      lt\n      tag_172\n      jumpi\n      0x0100\n      dup1\n      dup4\n      sload\n      div\n      mul\n      dup4\n      mstore\n      swap2\n      0x20\n      add\n      swap2\n      jump(tag_171)\n    tag_172:\n      dup3\n      add\n      swap2\n      swap1\n      0x00\n      mstore\n      keccak256(0x00, 0x20)\n      swap1\n    tag_173:\n      dup2\n      sload\n      dup2\n      mstore\n      swap1\n      0x01\n      add\n      swap1\n      0x20\n      add\n      dup1\n      dup4\n      gt\n      tag_173\n      jumpi\n      dup3\n      swap1\n      sub\n      0x1f\n      and\n      dup3\n      add\n      swap2\n    tag_171:\n      pop\n      pop\n      pop\n      pop\n      pop\n      dup2\n      mstore\n      0x20\n      add\n      0x04\n      dup3\n      add\n      dup1\n      sload\n      tag_174\n      swap1\n      tag_44\n      jump\t// in\n    tag_174:\n      dup1\n      0x1f\n      add\n      0x20\n      dup1\n      swap2\n      div\n      mul\n      0x20\n      add\n      mload(0x40)\n      swap1\n      dup2\n      add\n      0x40\n      mstore\n      dup1\n      swap3\n      swap2\n      swap1\n      dup2\n      dup2\n      mstore\n      0x20\n      add\n      dup3\n      dup1\n      sload\n      tag_175\n      swap1\n      tag_44\n      jump\t// in\n    tag_175:\n      dup1\n      iszero\n      tag_176\n      jumpi\n      dup1\n      0x1f\n      lt\n      tag_177\n      jumpi\n      0x0100\n      dup1\n      dup4\n      sload\n      div\n      mul\n      dup4\n      mstore\n      swap2\n      0x20\n      add\n      swap2\n      jump(tag_176)\n    tag_177:\n      dup3\n      add\n      swap2\n      swap1\n      0x00\n      mstore\n      keccak256(0x00, 0x20)\n      swap1\n    tag_178:\n      dup2\n      sload\n      dup2\n      mstore\n      swap1\n      0x01\n      add\n      swap1\n      0x20\n      add\n      dup1\n      dup4\n      gt\n      tag_178\n      jumpi\n      dup3\n      swap1\n      sub\n      0x1f\n      and\n      dup3\n      add\n      swap2\n    tag_176:\n      pop\n      pop\n      pop\n      pop\n      pop\n      dup2\n      mstore\n      0x20\n      add\n      0x05\n      dup3\n      add\n      dup1\n      sload\n      tag_179\n      swap1\n      tag_44\n      jump\t// in\n    tag_179:\n      dup1\n      0x1f\n      add\n      0x20\n      dup1\n      swap2\n      div\n      mul\n      0x20\n      add\n      mload(0x40)\n      swap1\n      dup2\n      add\n      0x40\n      mstore\n      dup1\n      swap3\n      swap2\n      swap1\n      dup2\n      dup2\n      mstore\n      0x20\n      add\n      dup3\n      dup1\n      sload\n      tag_180\n      swap1\n      tag_44\n      jump\t// in\n    tag_180:\n      dup1\n      iszero\n      tag_181\n      jumpi\n      dup1\n      0x1f\n      lt\n      tag_182\n      jumpi\n      0x0100\n      dup1\n      dup4\n      sload\n      div\n      mul\n      dup4\n      mstore\n      swap2\n      0x20\n      add\n      swap2\n      jump(tag_181)\n    tag_182:\n      dup3\n      add\n      swap2\n      swap1\n      0x00\n      mstore\n      keccak256(0x00, 0x20)\n      swap1\n    tag_183:\n      dup2\n      sload\n      dup2\n      mstore\n      swap1\n      0x01\n      add\n      swap1\n      0x20\n      add\n      dup1\n      dup4\n      gt\n      tag_183\n      jumpi\n      dup3\n      swap1\n      sub\n      0x1f\n      and\n      dup3\n      add\n      swap2\n    tag_181:\n      pop\n      pop\n      pop\n      pop\n      pop\n      dup2\n      mstore\n      0x20\n      add\n      0x06\n      dup3\n      add\n      0x00\n      swap1\n      sload\n      swap1\n      0x0100\n      exp\n      swap1\n      div\n      0xffffffffffffffffffffffffffffffffffffffff\n      and\n      0xffffffffffffffffffffffffffffffffffffffff\n      and\n      0xffffffffffffffffffffffffffffffffffffffff\n      and\n      dup2\n      mstore\n      pop\n      pop\n      dup2\n      mstore\n      0x20\n      add\n      swap1\n      0x01\n      add\n      swap1\n      jump(tag_156)\n    tag_157:\n      pop\n      pop\n      pop\n      pop\n      swap1\n      pop\n        /* \"contracts/user.sol\":1346:1436  function getAllUsers() public view returns (User[] memory) {\r... */\n      swap1\n      jump\t// out\n    tag_35:\n      dup3\n      dup1\n      sload\n      tag_184\n      swap1\n      tag_44\n      jump\t// in\n    tag_184:\n      swap1\n      0x00\n      mstore\n      keccak256(0x00, 0x20)\n      swap1\n      0x1f\n      add\n      0x20\n      swap1\n      div\n      dup2\n      add\n      swap3\n      dup3\n      tag_186\n      jumpi\n      0x00\n      dup6\n      sstore\n      jump(tag_185)\n    tag_186:\n      dup3\n      0x1f\n      lt\n      tag_187\n      jumpi\n      dup1\n      mload\n      not(0xff)\n      and\n      dup4\n      dup1\n      add\n      or\n      dup6\n      sstore\n      jump(tag_185)\n    tag_187:\n      dup3\n      dup1\n      add\n      0x01\n      add\n      dup6\n      sstore\n      dup3\n      iszero\n      tag_185\n      jumpi\n      swap2\n      dup3\n      add\n    tag_188:\n      dup3\n      dup2\n      gt\n      iszero\n      tag_189\n      jumpi\n      dup3\n      mload\n      dup3\n      sstore\n      swap2\n      0x20\n      add\n      swap2\n      swap1\n      0x01\n      add\n      swap1\n      jump(tag_188)\n    tag_189:\n    tag_185:\n      pop\n      swap1\n      pop\n      tag_190\n      swap2\n      swap1\n      tag_191\n      jump\t// in\n    tag_190:\n      pop\n      swap1\n      jump\t// out\n    tag_191:\n    tag_192:\n      dup1\n      dup3\n      gt\n      iszero\n      tag_193\n      jumpi\n      0x00\n      dup2\n      0x00\n      swap1\n      sstore\n      pop\n      0x01\n      add\n      jump(tag_192)\n    tag_193:\n      pop\n      swap1\n      jump\t// out\n        /* \"#utility.yul\":7:419   */\n    tag_195:\n        /* \"#utility.yul\":85:90   */\n      0x00\n        /* \"#utility.yul\":110:176   */\n      tag_197\n        /* \"#utility.yul\":126:175   */\n      tag_198\n        /* \"#utility.yul\":168:174   */\n      dup5\n        /* \"#utility.yul\":126:175   */\n      tag_199\n      jump\t// in\n    tag_198:\n        /* \"#utility.yul\":110:176   */\n      tag_200\n      jump\t// in\n    tag_197:\n        /* \"#utility.yul\":101:176   */\n      swap1\n      pop\n        /* \"#utility.yul\":199:205   */\n      dup3\n        /* \"#utility.yul\":192:197   */\n      dup2\n        /* \"#utility.yul\":185:206   */\n      mstore\n        /* \"#utility.yul\":237:241   */\n      0x20\n        /* \"#utility.yul\":230:235   */\n      dup2\n        /* \"#utility.yul\":226:242   */\n      add\n        /* \"#utility.yul\":275:278   */\n      dup5\n        /* \"#utility.yul\":266:272   */\n      dup5\n        /* \"#utility.yul\":261:264   */\n      dup5\n        /* \"#utility.yul\":257:273   */\n      add\n        /* \"#utility.yul\":254:279   */\n      gt\n        /* \"#utility.yul\":251:363   */\n      iszero\n      tag_201\n      jumpi\n        /* \"#utility.yul\":282:361   */\n      tag_202\n      tag_203\n      jump\t// in\n    tag_202:\n        /* \"#utility.yul\":251:363   */\n    tag_201:\n        /* \"#utility.yul\":372:413   */\n      tag_204\n        /* \"#utility.yul\":406:412   */\n      dup5\n        /* \"#utility.yul\":401:404   */\n      dup3\n        /* \"#utility.yul\":396:399   */\n      dup6\n        /* \"#utility.yul\":372:413   */\n      tag_205\n      jump\t// in\n    tag_204:\n        /* \"#utility.yul\":91:419   */\n      pop\n        /* \"#utility.yul\":7:419   */\n      swap4\n      swap3\n      pop\n      pop\n      pop\n      jump\t// out\n        /* \"#utility.yul\":425:564   */\n    tag_206:\n        /* \"#utility.yul\":471:476   */\n      0x00\n        /* \"#utility.yul\":509:515   */\n      dup2\n        /* \"#utility.yul\":496:516   */\n      calldataload\n        /* \"#utility.yul\":487:516   */\n      swap1\n      pop\n        /* \"#utility.yul\":525:558   */\n      tag_208\n        /* \"#utility.yul\":552:557   */\n      dup2\n        /* \"#utility.yul\":525:558   */\n      tag_209\n      jump\t// in\n    tag_208:\n        /* \"#utility.yul\":425:564   */\n      swap3\n      swap2\n      pop\n      pop\n      jump\t// out\n        /* \"#utility.yul\":584:924   */\n    tag_210:\n        /* \"#utility.yul\":640:645   */\n      0x00\n        /* \"#utility.yul\":689:692   */\n      dup3\n        /* \"#utility.yul\":682:686   */\n      0x1f\n        /* \"#utility.yul\":674:680   */\n      dup4\n        /* \"#utility.yul\":670:687   */\n      add\n        /* \"#utility.yul\":666:693   */\n      slt\n        /* \"#utility.yul\":656:778   */\n      tag_212\n      jumpi\n        /* \"#utility.yul\":697:776   */\n      tag_213\n      tag_214\n      jump\t// in\n    tag_213:\n        /* \"#utility.yul\":656:778   */\n    tag_212:\n        /* \"#utility.yul\":814:820   */\n      dup2\n        /* \"#utility.yul\":801:821   */\n      calldataload\n        /* \"#utility.yul\":839:918   */\n      tag_215\n        /* \"#utility.yul\":914:917   */\n      dup5\n        /* \"#utility.yul\":906:912   */\n      dup3\n        /* \"#utility.yul\":899:903   */\n      0x20\n        /* \"#utility.yul\":891:897   */\n      dup7\n        /* \"#utility.yul\":887:904   */\n      add\n        /* \"#utility.yul\":839:918   */\n      tag_195\n      jump\t// in\n    tag_215:\n        /* \"#utility.yul\":830:918   */\n      swap2\n      pop\n        /* \"#utility.yul\":646:924   */\n      pop\n        /* \"#utility.yul\":584:924   */\n      swap3\n      swap2\n      pop\n      pop\n      jump\t// out\n        /* \"#utility.yul\":930:1069   */\n    tag_216:\n        /* \"#utility.yul\":976:981   */\n      0x00\n        /* \"#utility.yul\":1014:1020   */\n      dup2\n        /* \"#utility.yul\":1001:1021   */\n      calldataload\n        /* \"#utility.yul\":992:1021   */\n      swap1\n      pop\n        /* \"#utility.yul\":1030:1063   */\n      tag_218\n        /* \"#utility.yul\":1057:1062   */\n      dup2\n        /* \"#utility.yul\":1030:1063   */\n      tag_219\n      jump\t// in\n    tag_218:\n        /* \"#utility.yul\":930:1069   */\n      swap3\n      swap2\n      pop\n      pop\n      jump\t// out\n        /* \"#utility.yul\":1075:1404   */\n    tag_20:\n        /* \"#utility.yul\":1134:1140   */\n      0x00\n        /* \"#utility.yul\":1183:1185   */\n      0x20\n        /* \"#utility.yul\":1171:1180   */\n      dup3\n        /* \"#utility.yul\":1162:1169   */\n      dup5\n        /* \"#utility.yul\":1158:1181   */\n      sub\n        /* \"#utility.yul\":1154:1186   */\n      slt\n        /* \"#utility.yul\":1151:1270   */\n      iszero\n      tag_221\n      jumpi\n        /* \"#utility.yul\":1189:1268   */\n      tag_222\n      tag_223\n      jump\t// in\n    tag_222:\n        /* \"#utility.yul\":1151:1270   */\n    tag_221:\n        /* \"#utility.yul\":1309:1310   */\n      0x00\n        /* \"#utility.yul\":1334:1387   */\n      tag_224\n        /* \"#utility.yul\":1379:1386   */\n      dup5\n        /* \"#utility.yul\":1370:1376   */\n      dup3\n        /* \"#utility.yul\":1359:1368   */\n      dup6\n        /* \"#utility.yul\":1355:1377   */\n      add\n        /* \"#utility.yul\":1334:1387   */\n      tag_206\n      jump\t// in\n    tag_224:\n        /* \"#utility.yul\":1324:1387   */\n      swap2\n      pop\n        /* \"#utility.yul\":1280:1397   */\n      pop\n        /* \"#utility.yul\":1075:1404   */\n      swap3\n      swap2\n      pop\n      pop\n      jump\t// out\n        /* \"#utility.yul\":1410:3513   */\n    tag_26:\n        /* \"#utility.yul\":1573:1579   */\n      0x00\n        /* \"#utility.yul\":1581:1587   */\n      dup1\n        /* \"#utility.yul\":1589:1595   */\n      0x00\n        /* \"#utility.yul\":1597:1603   */\n      dup1\n        /* \"#utility.yul\":1605:1611   */\n      0x00\n        /* \"#utility.yul\":1613:1619   */\n      dup1\n        /* \"#utility.yul\":1621:1627   */\n      0x00\n        /* \"#utility.yul\":1670:1673   */\n      0xe0\n        /* \"#utility.yul\":1658:1667   */\n      dup9\n        /* \"#utility.yul\":1649:1656   */\n      dup11\n        /* \"#utility.yul\":1645:1668   */\n      sub\n        /* \"#utility.yul\":1641:1674   */\n      slt\n        /* \"#utility.yul\":1638:1758   */\n      iszero\n      tag_226\n      jumpi\n        /* \"#utility.yul\":1677:1756   */\n      tag_227\n      tag_223\n      jump\t// in\n    tag_227:\n        /* \"#utility.yul\":1638:1758   */\n    tag_226:\n        /* \"#utility.yul\":1797:1798   */\n      0x00\n        /* \"#utility.yul\":1822:1875   */\n      tag_228\n        /* \"#utility.yul\":1867:1874   */\n      dup11\n        /* \"#utility.yul\":1858:1864   */\n      dup3\n        /* \"#utility.yul\":1847:1856   */\n      dup12\n        /* \"#utility.yul\":1843:1865   */\n      add\n        /* \"#utility.yul\":1822:1875   */\n      tag_206\n      jump\t// in\n    tag_228:\n        /* \"#utility.yul\":1812:1875   */\n      swap8\n      pop\n        /* \"#utility.yul\":1768:1885   */\n      pop\n        /* \"#utility.yul\":1952:1954   */\n      0x20\n        /* \"#utility.yul\":1941:1950   */\n      dup9\n        /* \"#utility.yul\":1937:1955   */\n      add\n        /* \"#utility.yul\":1924:1956   */\n      calldataload\n        /* \"#utility.yul\":1983:2001   */\n      0xffffffffffffffff\n        /* \"#utility.yul\":1975:1981   */\n      dup2\n        /* \"#utility.yul\":1972:2002   */\n      gt\n        /* \"#utility.yul\":1969:2086   */\n      iszero\n      tag_229\n      jumpi\n        /* \"#utility.yul\":2005:2084   */\n      tag_230\n      tag_231\n      jump\t// in\n    tag_230:\n        /* \"#utility.yul\":1969:2086   */\n    tag_229:\n        /* \"#utility.yul\":2110:2173   */\n      tag_232\n        /* \"#utility.yul\":2165:2172   */\n      dup11\n        /* \"#utility.yul\":2156:2162   */\n      dup3\n        /* \"#utility.yul\":2145:2154   */\n      dup12\n        /* \"#utility.yul\":2141:2163   */\n      add\n        /* \"#utility.yul\":2110:2173   */\n      tag_210\n      jump\t// in\n    tag_232:\n        /* \"#utility.yul\":2100:2173   */\n      swap7\n      pop\n        /* \"#utility.yul\":1895:2183   */\n      pop\n        /* \"#utility.yul\":2250:2252   */\n      0x40\n        /* \"#utility.yul\":2239:2248   */\n      dup9\n        /* \"#utility.yul\":2235:2253   */\n      add\n        /* \"#utility.yul\":2222:2254   */\n      calldataload\n        /* \"#utility.yul\":2281:2299   */\n      0xffffffffffffffff\n        /* \"#utility.yul\":2273:2279   */\n      dup2\n        /* \"#utility.yul\":2270:2300   */\n      gt\n        /* \"#utility.yul\":2267:2384   */\n      iszero\n      tag_233\n      jumpi\n        /* \"#utility.yul\":2303:2382   */\n      tag_234\n      tag_231\n      jump\t// in\n    tag_234:\n        /* \"#utility.yul\":2267:2384   */\n    tag_233:\n        /* \"#utility.yul\":2408:2471   */\n      tag_235\n        /* \"#utility.yul\":2463:2470   */\n      dup11\n        /* \"#utility.yul\":2454:2460   */\n      dup3\n        /* \"#utility.yul\":2443:2452   */\n      dup12\n        /* \"#utility.yul\":2439:2461   */\n      add\n        /* \"#utility.yul\":2408:2471   */\n      tag_210\n      jump\t// in\n    tag_235:\n        /* \"#utility.yul\":2398:2471   */\n      swap6\n      pop\n        /* \"#utility.yul\":2193:2481   */\n      pop\n        /* \"#utility.yul\":2520:2522   */\n      0x60\n        /* \"#utility.yul\":2546:2599   */\n      tag_236\n        /* \"#utility.yul\":2591:2598   */\n      dup11\n        /* \"#utility.yul\":2582:2588   */\n      dup3\n        /* \"#utility.yul\":2571:2580   */\n      dup12\n        /* \"#utility.yul\":2567:2589   */\n      add\n        /* \"#utility.yul\":2546:2599   */\n      tag_216\n      jump\t// in\n    tag_236:\n        /* \"#utility.yul\":2536:2599   */\n      swap5\n      pop\n        /* \"#utility.yul\":2491:2609   */\n      pop\n        /* \"#utility.yul\":2676:2679   */\n      0x80\n        /* \"#utility.yul\":2665:2674   */\n      dup9\n        /* \"#utility.yul\":2661:2680   */\n      add\n        /* \"#utility.yul\":2648:2681   */\n      calldataload\n        /* \"#utility.yul\":2708:2726   */\n      0xffffffffffffffff\n        /* \"#utility.yul\":2700:2706   */\n      dup2\n        /* \"#utility.yul\":2697:2727   */\n      gt\n        /* \"#utility.yul\":2694:2811   */\n      iszero\n      tag_237\n      jumpi\n        /* \"#utility.yul\":2730:2809   */\n      tag_238\n      tag_231\n      jump\t// in\n    tag_238:\n        /* \"#utility.yul\":2694:2811   */\n    tag_237:\n        /* \"#utility.yul\":2835:2898   */\n      tag_239\n        /* \"#utility.yul\":2890:2897   */\n      dup11\n        /* \"#utility.yul\":2881:2887   */\n      dup3\n        /* \"#utility.yul\":2870:2879   */\n      dup12\n        /* \"#utility.yul\":2866:2888   */\n      add\n        /* \"#utility.yul\":2835:2898   */\n      tag_210\n      jump\t// in\n    tag_239:\n        /* \"#utility.yul\":2825:2898   */\n      swap4\n      pop\n        /* \"#utility.yul\":2619:2908   */\n      pop\n        /* \"#utility.yul\":2975:2978   */\n      0xa0\n        /* \"#utility.yul\":2964:2973   */\n      dup9\n        /* \"#utility.yul\":2960:2979   */\n      add\n        /* \"#utility.yul\":2947:2980   */\n      calldataload\n        /* \"#utility.yul\":3007:3025   */\n      0xffffffffffffffff\n        /* \"#utility.yul\":2999:3005   */\n      dup2\n        /* \"#utility.yul\":2996:3026   */\n      gt\n        /* \"#utility.yul\":2993:3110   */\n      iszero\n      tag_240\n      jumpi\n        /* \"#utility.yul\":3029:3108   */\n      tag_241\n      tag_231\n      jump\t// in\n    tag_241:\n        /* \"#utility.yul\":2993:3110   */\n    tag_240:\n        /* \"#utility.yul\":3134:3197   */\n      tag_242\n        /* \"#utility.yul\":3189:3196   */\n      dup11\n        /* \"#utility.yul\":3180:3186   */\n      dup3\n        /* \"#utility.yul\":3169:3178   */\n      dup12\n        /* \"#utility.yul\":3165:3187   */\n      add\n        /* \"#utility.yul\":3134:3197   */\n      tag_210\n      jump\t// in\n    tag_242:\n        /* \"#utility.yul\":3124:3197   */\n      swap3\n      pop\n        /* \"#utility.yul\":2918:3207   */\n      pop\n        /* \"#utility.yul\":3274:3277   */\n      0xc0\n        /* \"#utility.yul\":3263:3272   */\n      dup9\n        /* \"#utility.yul\":3259:3278   */\n      add\n        /* \"#utility.yul\":3246:3279   */\n      calldataload\n        /* \"#utility.yul\":3306:3324   */\n      0xffffffffffffffff\n        /* \"#utility.yul\":3298:3304   */\n      dup2\n        /* \"#utility.yul\":3295:3325   */\n      gt\n        /* \"#utility.yul\":3292:3409   */\n      iszero\n      tag_243\n      jumpi\n        /* \"#utility.yul\":3328:3407   */\n      tag_244\n      tag_231\n      jump\t// in\n    tag_244:\n        /* \"#utility.yul\":3292:3409   */\n    tag_243:\n        /* \"#utility.yul\":3433:3496   */\n      tag_245\n        /* \"#utility.yul\":3488:3495   */\n      dup11\n        /* \"#utility.yul\":3479:3485   */\n      dup3\n        /* \"#utility.yul\":3468:3477   */\n      dup12\n        /* \"#utility.yul\":3464:3486   */\n      add\n        /* \"#utility.yul\":3433:3496   */\n      tag_210\n      jump\t// in\n    tag_245:\n        /* \"#utility.yul\":3423:3496   */\n      swap2\n      pop\n        /* \"#utility.yul\":3217:3506   */\n      pop\n        /* \"#utility.yul\":1410:3513   */\n      swap3\n      swap6\n      swap9\n      swap2\n      swap5\n      swap8\n      pop\n      swap3\n      swap6\n      pop\n      jump\t// out\n        /* \"#utility.yul\":3519:5476   */\n    tag_10:\n        /* \"#utility.yul\":3673:3679   */\n      0x00\n        /* \"#utility.yul\":3681:3687   */\n      dup1\n        /* \"#utility.yul\":3689:3695   */\n      0x00\n        /* \"#utility.yul\":3697:3703   */\n      dup1\n        /* \"#utility.yul\":3705:3711   */\n      0x00\n        /* \"#utility.yul\":3713:3719   */\n      dup1\n        /* \"#utility.yul\":3762:3765   */\n      0xc0\n        /* \"#utility.yul\":3750:3759   */\n      dup8\n        /* \"#utility.yul\":3741:3748   */\n      dup10\n        /* \"#utility.yul\":3737:3760   */\n      sub\n        /* \"#utility.yul\":3733:3766   */\n      slt\n        /* \"#utility.yul\":3730:3850   */\n      iszero\n      tag_247\n      jumpi\n        /* \"#utility.yul\":3769:3848   */\n      tag_248\n      tag_223\n      jump\t// in\n    tag_248:\n        /* \"#utility.yul\":3730:3850   */\n    tag_247:\n        /* \"#utility.yul\":3917:3918   */\n      0x00\n        /* \"#utility.yul\":3906:3915   */\n      dup8\n        /* \"#utility.yul\":3902:3919   */\n      add\n        /* \"#utility.yul\":3889:3920   */\n      calldataload\n        /* \"#utility.yul\":3947:3965   */\n      0xffffffffffffffff\n        /* \"#utility.yul\":3939:3945   */\n      dup2\n        /* \"#utility.yul\":3936:3966   */\n      gt\n        /* \"#utility.yul\":3933:4050   */\n      iszero\n      tag_249\n      jumpi\n        /* \"#utility.yul\":3969:4048   */\n      tag_250\n      tag_231\n      jump\t// in\n    tag_250:\n        /* \"#utility.yul\":3933:4050   */\n    tag_249:\n        /* \"#utility.yul\":4074:4137   */\n      tag_251\n        /* \"#utility.yul\":4129:4136   */\n      dup10\n        /* \"#utility.yul\":4120:4126   */\n      dup3\n        /* \"#utility.yul\":4109:4118   */\n      dup11\n        /* \"#utility.yul\":4105:4127   */\n      add\n        /* \"#utility.yul\":4074:4137   */\n      tag_210\n      jump\t// in\n    tag_251:\n        /* \"#utility.yul\":4064:4137   */\n      swap7\n      pop\n        /* \"#utility.yul\":3860:4147   */\n      pop\n        /* \"#utility.yul\":4214:4216   */\n      0x20\n        /* \"#utility.yul\":4203:4212   */\n      dup8\n        /* \"#utility.yul\":4199:4217   */\n      add\n        /* \"#utility.yul\":4186:4218   */\n      calldataload\n        /* \"#utility.yul\":4245:4263   */\n      0xffffffffffffffff\n        /* \"#utility.yul\":4237:4243   */\n      dup2\n        /* \"#utility.yul\":4234:4264   */\n      gt\n        /* \"#utility.yul\":4231:4348   */\n      iszero\n      tag_252\n      jumpi\n        /* \"#utility.yul\":4267:4346   */\n      tag_253\n      tag_231\n      jump\t// in\n    tag_253:\n        /* \"#utility.yul\":4231:4348   */\n    tag_252:\n        /* \"#utility.yul\":4372:4435   */\n      tag_254\n        /* \"#utility.yul\":4427:4434   */\n      dup10\n        /* \"#utility.yul\":4418:4424   */\n      dup3\n        /* \"#utility.yul\":4407:4416   */\n      dup11\n        /* \"#utility.yul\":4403:4425   */\n      add\n        /* \"#utility.yul\":4372:4435   */\n      tag_210\n      jump\t// in\n    tag_254:\n        /* \"#utility.yul\":4362:4435   */\n      swap6\n      pop\n        /* \"#utility.yul\":4157:4445   */\n      pop\n        /* \"#utility.yul\":4484:4486   */\n      0x40\n        /* \"#utility.yul\":4510:4563   */\n      tag_255\n        /* \"#utility.yul\":4555:4562   */\n      dup10\n        /* \"#utility.yul\":4546:4552   */\n      dup3\n        /* \"#utility.yul\":4535:4544   */\n      dup11\n        /* \"#utility.yul\":4531:4553   */\n      add\n        /* \"#utility.yul\":4510:4563   */\n      tag_216\n      jump\t// in\n    tag_255:\n        /* \"#utility.yul\":4500:4563   */\n      swap5\n      pop\n        /* \"#utility.yul\":4455:4573   */\n      pop\n        /* \"#utility.yul\":4640:4642   */\n      0x60\n        /* \"#utility.yul\":4629:4638   */\n      dup8\n        /* \"#utility.yul\":4625:4643   */\n      add\n        /* \"#utility.yul\":4612:4644   */\n      calldataload\n        /* \"#utility.yul\":4671:4689   */\n      0xffffffffffffffff\n        /* \"#utility.yul\":4663:4669   */\n      dup2\n        /* \"#utility.yul\":4660:4690   */\n      gt\n        /* \"#utility.yul\":4657:4774   */\n      iszero\n      tag_256\n      jumpi\n        /* \"#utility.yul\":4693:4772   */\n      tag_257\n      tag_231\n      jump\t// in\n    tag_257:\n        /* \"#utility.yul\":4657:4774   */\n    tag_256:\n        /* \"#utility.yul\":4798:4861   */\n      tag_258\n        /* \"#utility.yul\":4853:4860   */\n      dup10\n        /* \"#utility.yul\":4844:4850   */\n      dup3\n        /* \"#utility.yul\":4833:4842   */\n      dup11\n        /* \"#utility.yul\":4829:4851   */\n      add\n        /* \"#utility.yul\":4798:4861   */\n      tag_210\n      jump\t// in\n    tag_258:\n        /* \"#utility.yul\":4788:4861   */\n      swap4\n      pop\n        /* \"#utility.yul\":4583:4871   */\n      pop\n        /* \"#utility.yul\":4938:4941   */\n      0x80\n        /* \"#utility.yul\":4927:4936   */\n      dup8\n        /* \"#utility.yul\":4923:4942   */\n      add\n        /* \"#utility.yul\":4910:4943   */\n      calldataload\n        /* \"#utility.yul\":4970:4988   */\n      0xffffffffffffffff\n        /* \"#utility.yul\":4962:4968   */\n      dup2\n        /* \"#utility.yul\":4959:4989   */\n      gt\n        /* \"#utility.yul\":4956:5073   */\n      iszero\n      tag_259\n      jumpi\n        /* \"#utility.yul\":4992:5071   */\n      tag_260\n      tag_231\n      jump\t// in\n    tag_260:\n        /* \"#utility.yul\":4956:5073   */\n    tag_259:\n        /* \"#utility.yul\":5097:5160   */\n      tag_261\n        /* \"#utility.yul\":5152:5159   */\n      dup10\n        /* \"#utility.yul\":5143:5149   */\n      dup3\n        /* \"#utility.yul\":5132:5141   */\n      dup11\n        /* \"#utility.yul\":5128:5150   */\n      add\n        /* \"#utility.yul\":5097:5160   */\n      tag_210\n      jump\t// in\n    tag_261:\n        /* \"#utility.yul\":5087:5160   */\n      swap3\n      pop\n        /* \"#utility.yul\":4881:5170   */\n      pop\n        /* \"#utility.yul\":5237:5240   */\n      0xa0\n        /* \"#utility.yul\":5226:5235   */\n      dup8\n        /* \"#utility.yul\":5222:5241   */\n      add\n        /* \"#utility.yul\":5209:5242   */\n      calldataload\n        /* \"#utility.yul\":5269:5287   */\n      0xffffffffffffffff\n        /* \"#utility.yul\":5261:5267   */\n      dup2\n        /* \"#utility.yul\":5258:5288   */\n      gt\n        /* \"#utility.yul\":5255:5372   */\n      iszero\n      tag_262\n      jumpi\n        /* \"#utility.yul\":5291:5370   */\n      tag_263\n      tag_231\n      jump\t// in\n    tag_263:\n        /* \"#utility.yul\":5255:5372   */\n    tag_262:\n        /* \"#utility.yul\":5396:5459   */\n      tag_264\n        /* \"#utility.yul\":5451:5458   */\n      dup10\n        /* \"#utility.yul\":5442:5448   */\n      dup3\n        /* \"#utility.yul\":5431:5440   */\n      dup11\n        /* \"#utility.yul\":5427:5449   */\n      add\n        /* \"#utility.yul\":5396:5459   */\n      tag_210\n      jump\t// in\n    tag_264:\n        /* \"#utility.yul\":5386:5459   */\n      swap2\n      pop\n        /* \"#utility.yul\":5180:5469   */\n      pop\n        /* \"#utility.yul\":3519:5476   */\n      swap3\n      swap6\n      pop\n      swap3\n      swap6\n      pop\n      swap3\n      swap6\n      jump\t// out\n        /* \"#utility.yul\":5482:5811   */\n    tag_14:\n        /* \"#utility.yul\":5541:5547   */\n      0x00\n        /* \"#utility.yul\":5590:5592   */\n      0x20\n        /* \"#utility.yul\":5578:5587   */\n      dup3\n        /* \"#utility.yul\":5569:5576   */\n      dup5\n        /* \"#utility.yul\":5565:5588   */\n      sub\n        /* \"#utility.yul\":5561:5593   */\n      slt\n        /* \"#utility.yul\":5558:5677   */\n      iszero\n      tag_266\n      jumpi\n        /* \"#utility.yul\":5596:5675   */\n      tag_267\n      tag_223\n      jump\t// in\n    tag_267:\n        /* \"#utility.yul\":5558:5677   */\n    tag_266:\n        /* \"#utility.yul\":5716:5717   */\n      0x00\n        /* \"#utility.yul\":5741:5794   */\n      tag_268\n        /* \"#utility.yul\":5786:5793   */\n      dup5\n        /* \"#utility.yul\":5777:5783   */\n      dup3\n        /* \"#utility.yul\":5766:5775   */\n      dup6\n        /* \"#utility.yul\":5762:5784   */\n      add\n        /* \"#utility.yul\":5741:5794   */\n      tag_216\n      jump\t// in\n    tag_268:\n        /* \"#utility.yul\":5731:5794   */\n      swap2\n      pop\n        /* \"#utility.yul\":5687:5804   */\n      pop\n        /* \"#utility.yul\":5482:5811   */\n      swap3\n      swap2\n      pop\n      pop\n      jump\t// out\n        /* \"#utility.yul\":5817:6053   */\n    tag_269:\n        /* \"#utility.yul\":5926:5936   */\n      0x00\n        /* \"#utility.yul\":5961:6047   */\n      tag_271\n        /* \"#utility.yul\":6043:6046   */\n      dup4\n        /* \"#utility.yul\":6035:6041   */\n      dup4\n        /* \"#utility.yul\":5961:6047   */\n      tag_272\n      jump\t// in\n    tag_271:\n        /* \"#utility.yul\":5947:6047   */\n      swap1\n      pop\n        /* \"#utility.yul\":5817:6053   */\n      swap3\n      swap2\n      pop\n      pop\n      jump\t// out\n        /* \"#utility.yul\":6059:6167   */\n    tag_273:\n        /* \"#utility.yul\":6136:6160   */\n      tag_275\n        /* \"#utility.yul\":6154:6159   */\n      dup2\n        /* \"#utility.yul\":6136:6160   */\n      tag_276\n      jump\t// in\n    tag_275:\n        /* \"#utility.yul\":6131:6134   */\n      dup3\n        /* \"#utility.yul\":6124:6161   */\n      mstore\n        /* \"#utility.yul\":6059:6167   */\n      pop\n      pop\n      jump\t// out\n        /* \"#utility.yul\":6173:6291   */\n    tag_277:\n        /* \"#utility.yul\":6260:6284   */\n      tag_279\n        /* \"#utility.yul\":6278:6283   */\n      dup2\n        /* \"#utility.yul\":6260:6284   */\n      tag_276\n      jump\t// in\n    tag_279:\n        /* \"#utility.yul\":6255:6258   */\n      dup3\n        /* \"#utility.yul\":6248:6285   */\n      mstore\n        /* \"#utility.yul\":6173:6291   */\n      pop\n      pop\n      jump\t// out\n        /* \"#utility.yul\":6353:7424   */\n    tag_280:\n        /* \"#utility.yul\":6512:6515   */\n      0x00\n        /* \"#utility.yul\":6541:6615   */\n      tag_282\n        /* \"#utility.yul\":6609:6614   */\n      dup3\n        /* \"#utility.yul\":6541:6615   */\n      tag_283\n      jump\t// in\n    tag_282:\n        /* \"#utility.yul\":6631:6737   */\n      tag_284\n        /* \"#utility.yul\":6730:6736   */\n      dup2\n        /* \"#utility.yul\":6725:6728   */\n      dup6\n        /* \"#utility.yul\":6631:6737   */\n      tag_285\n      jump\t// in\n    tag_284:\n        /* \"#utility.yul\":6624:6737   */\n      swap4\n      pop\n        /* \"#utility.yul\":6763:6766   */\n      dup4\n        /* \"#utility.yul\":6808:6812   */\n      0x20\n        /* \"#utility.yul\":6800:6806   */\n      dup3\n        /* \"#utility.yul\":6796:6813   */\n      mul\n        /* \"#utility.yul\":6791:6794   */\n      dup6\n        /* \"#utility.yul\":6787:6814   */\n      add\n        /* \"#utility.yul\":6838:6914   */\n      tag_286\n        /* \"#utility.yul\":6908:6913   */\n      dup6\n        /* \"#utility.yul\":6838:6914   */\n      tag_287\n      jump\t// in\n    tag_286:\n        /* \"#utility.yul\":6937:6944   */\n      dup1\n        /* \"#utility.yul\":6968:6969   */\n      0x00\n        /* \"#utility.yul\":6953:7379   */\n    tag_288:\n        /* \"#utility.yul\":6978:6984   */\n      dup6\n        /* \"#utility.yul\":6975:6976   */\n      dup2\n        /* \"#utility.yul\":6972:6985   */\n      lt\n        /* \"#utility.yul\":6953:7379   */\n      iszero\n      tag_290\n      jumpi\n        /* \"#utility.yul\":7049:7058   */\n      dup5\n        /* \"#utility.yul\":7043:7047   */\n      dup5\n        /* \"#utility.yul\":7039:7059   */\n      sub\n        /* \"#utility.yul\":7034:7037   */\n      dup10\n        /* \"#utility.yul\":7027:7060   */\n      mstore\n        /* \"#utility.yul\":7100:7106   */\n      dup2\n        /* \"#utility.yul\":7094:7107   */\n      mload\n        /* \"#utility.yul\":7128:7232   */\n      tag_291\n        /* \"#utility.yul\":7227:7231   */\n      dup6\n        /* \"#utility.yul\":7212:7225   */\n      dup3\n        /* \"#utility.yul\":7128:7232   */\n      tag_269\n      jump\t// in\n    tag_291:\n        /* \"#utility.yul\":7120:7232   */\n      swap5\n      pop\n        /* \"#utility.yul\":7255:7335   */\n      tag_292\n        /* \"#utility.yul\":7328:7334   */\n      dup4\n        /* \"#utility.yul\":7255:7335   */\n      tag_293\n      jump\t// in\n    tag_292:\n        /* \"#utility.yul\":7245:7335   */\n      swap3\n      pop\n        /* \"#utility.yul\":7364:7368   */\n      0x20\n        /* \"#utility.yul\":7359:7362   */\n      dup11\n        /* \"#utility.yul\":7355:7369   */\n      add\n        /* \"#utility.yul\":7348:7369   */\n      swap10\n      pop\n        /* \"#utility.yul\":7013:7379   */\n      pop\n        /* \"#utility.yul\":7000:7001   */\n      0x01\n        /* \"#utility.yul\":6997:6998   */\n      dup2\n        /* \"#utility.yul\":6993:7002   */\n      add\n        /* \"#utility.yul\":6988:7002   */\n      swap1\n      pop\n        /* \"#utility.yul\":6953:7379   */\n      jump(tag_288)\n    tag_290:\n        /* \"#utility.yul\":6957:6971   */\n      pop\n        /* \"#utility.yul\":7395:7399   */\n      dup3\n        /* \"#utility.yul\":7388:7399   */\n      swap8\n      pop\n        /* \"#utility.yul\":7415:7418   */\n      dup8\n        /* \"#utility.yul\":7408:7418   */\n      swap6\n      pop\n        /* \"#utility.yul\":6517:7424   */\n      pop\n      pop\n      pop\n      pop\n      pop\n        /* \"#utility.yul\":6353:7424   */\n      swap3\n      swap2\n      pop\n      pop\n      jump\t// out\n        /* \"#utility.yul\":7430:7774   */\n    tag_294:\n        /* \"#utility.yul\":7508:7511   */\n      0x00\n        /* \"#utility.yul\":7536:7575   */\n      tag_296\n        /* \"#utility.yul\":7569:7574   */\n      dup3\n        /* \"#utility.yul\":7536:7575   */\n      tag_297\n      jump\t// in\n    tag_296:\n        /* \"#utility.yul\":7591:7652   */\n      tag_298\n        /* \"#utility.yul\":7645:7651   */\n      dup2\n        /* \"#utility.yul\":7640:7643   */\n      dup6\n        /* \"#utility.yul\":7591:7652   */\n      tag_299\n      jump\t// in\n    tag_298:\n        /* \"#utility.yul\":7584:7652   */\n      swap4\n      pop\n        /* \"#utility.yul\":7661:7713   */\n      tag_300\n        /* \"#utility.yul\":7706:7712   */\n      dup2\n        /* \"#utility.yul\":7701:7704   */\n      dup6\n        /* \"#utility.yul\":7694:7698   */\n      0x20\n        /* \"#utility.yul\":7687:7692   */\n      dup7\n        /* \"#utility.yul\":7683:7699   */\n      add\n        /* \"#utility.yul\":7661:7713   */\n      tag_301\n      jump\t// in\n    tag_300:\n        /* \"#utility.yul\":7738:7767   */\n      tag_302\n        /* \"#utility.yul\":7760:7766   */\n      dup2\n        /* \"#utility.yul\":7738:7767   */\n      tag_303\n      jump\t// in\n    tag_302:\n        /* \"#utility.yul\":7733:7736   */\n      dup5\n        /* \"#utility.yul\":7729:7768   */\n      add\n        /* \"#utility.yul\":7722:7768   */\n      swap2\n      pop\n        /* \"#utility.yul\":7512:7774   */\n      pop\n        /* \"#utility.yul\":7430:7774   */\n      swap3\n      swap2\n      pop\n      pop\n      jump\t// out\n        /* \"#utility.yul\":7780:8144   */\n    tag_304:\n        /* \"#utility.yul\":7868:7871   */\n      0x00\n        /* \"#utility.yul\":7896:7935   */\n      tag_306\n        /* \"#utility.yul\":7929:7934   */\n      dup3\n        /* \"#utility.yul\":7896:7935   */\n      tag_297\n      jump\t// in\n    tag_306:\n        /* \"#utility.yul\":7951:8022   */\n      tag_307\n        /* \"#utility.yul\":8015:8021   */\n      dup2\n        /* \"#utility.yul\":8010:8013   */\n      dup6\n        /* \"#utility.yul\":7951:8022   */\n      tag_308\n      jump\t// in\n    tag_307:\n        /* \"#utility.yul\":7944:8022   */\n      swap4\n      pop\n        /* \"#utility.yul\":8031:8083   */\n      tag_309\n        /* \"#utility.yul\":8076:8082   */\n      dup2\n        /* \"#utility.yul\":8071:8074   */\n      dup6\n        /* \"#utility.yul\":8064:8068   */\n      0x20\n        /* \"#utility.yul\":8057:8062   */\n      dup7\n        /* \"#utility.yul\":8053:8069   */\n      add\n        /* \"#utility.yul\":8031:8083   */\n      tag_301\n      jump\t// in\n    tag_309:\n        /* \"#utility.yul\":8108:8137   */\n      tag_310\n        /* \"#utility.yul\":8130:8136   */\n      dup2\n        /* \"#utility.yul\":8108:8137   */\n      tag_303\n      jump\t// in\n    tag_310:\n        /* \"#utility.yul\":8103:8106   */\n      dup5\n        /* \"#utility.yul\":8099:8138   */\n      add\n        /* \"#utility.yul\":8092:8138   */\n      swap2\n      pop\n        /* \"#utility.yul\":7872:8144   */\n      pop\n        /* \"#utility.yul\":7780:8144   */\n      swap3\n      swap2\n      pop\n      pop\n      jump\t// out\n        /* \"#utility.yul\":8202:9955   */\n    tag_272:\n        /* \"#utility.yul\":8301:8304   */\n      0x00\n        /* \"#utility.yul\":8337:8341   */\n      0xe0\n        /* \"#utility.yul\":8332:8335   */\n      dup4\n        /* \"#utility.yul\":8328:8342   */\n      add\n        /* \"#utility.yul\":8424:8428   */\n      0x00\n        /* \"#utility.yul\":8417:8422   */\n      dup4\n        /* \"#utility.yul\":8413:8429   */\n      add\n        /* \"#utility.yul\":8407:8430   */\n      mload\n        /* \"#utility.yul\":8477:8480   */\n      dup5\n        /* \"#utility.yul\":8471:8475   */\n      dup3\n        /* \"#utility.yul\":8467:8481   */\n      sub\n        /* \"#utility.yul\":8460:8464   */\n      0x00\n        /* \"#utility.yul\":8455:8458   */\n      dup7\n        /* \"#utility.yul\":8451:8465   */\n      add\n        /* \"#utility.yul\":8444:8482   */\n      mstore\n        /* \"#utility.yul\":8503:8576   */\n      tag_312\n        /* \"#utility.yul\":8571:8575   */\n      dup3\n        /* \"#utility.yul\":8557:8569   */\n      dup3\n        /* \"#utility.yul\":8503:8576   */\n      tag_294\n      jump\t// in\n    tag_312:\n        /* \"#utility.yul\":8495:8576   */\n      swap2\n      pop\n        /* \"#utility.yul\":8352:8587   */\n      pop\n        /* \"#utility.yul\":8670:8674   */\n      0x20\n        /* \"#utility.yul\":8663:8668   */\n      dup4\n        /* \"#utility.yul\":8659:8675   */\n      add\n        /* \"#utility.yul\":8653:8676   */\n      mload\n        /* \"#utility.yul\":8723:8726   */\n      dup5\n        /* \"#utility.yul\":8717:8721   */\n      dup3\n        /* \"#utility.yul\":8713:8727   */\n      sub\n        /* \"#utility.yul\":8706:8710   */\n      0x20\n        /* \"#utility.yul\":8701:8704   */\n      dup7\n        /* \"#utility.yul\":8697:8711   */\n      add\n        /* \"#utility.yul\":8690:8728   */\n      mstore\n        /* \"#utility.yul\":8749:8822   */\n      tag_313\n        /* \"#utility.yul\":8817:8821   */\n      dup3\n        /* \"#utility.yul\":8803:8815   */\n      dup3\n        /* \"#utility.yul\":8749:8822   */\n      tag_294\n      jump\t// in\n    tag_313:\n        /* \"#utility.yul\":8741:8822   */\n      swap2\n      pop\n        /* \"#utility.yul\":8597:8833   */\n      pop\n        /* \"#utility.yul\":8916:8920   */\n      0x40\n        /* \"#utility.yul\":8909:8914   */\n      dup4\n        /* \"#utility.yul\":8905:8921   */\n      add\n        /* \"#utility.yul\":8899:8922   */\n      mload\n        /* \"#utility.yul\":8935:8998   */\n      tag_314\n        /* \"#utility.yul\":8992:8996   */\n      0x40\n        /* \"#utility.yul\":8987:8990   */\n      dup7\n        /* \"#utility.yul\":8983:8997   */\n      add\n        /* \"#utility.yul\":8969:8981   */\n      dup3\n        /* \"#utility.yul\":8935:8998   */\n      tag_315\n      jump\t// in\n    tag_314:\n        /* \"#utility.yul\":8843:9008   */\n      pop\n        /* \"#utility.yul\":9092:9096   */\n      0x60\n        /* \"#utility.yul\":9085:9090   */\n      dup4\n        /* \"#utility.yul\":9081:9097   */\n      add\n        /* \"#utility.yul\":9075:9098   */\n      mload\n        /* \"#utility.yul\":9145:9148   */\n      dup5\n        /* \"#utility.yul\":9139:9143   */\n      dup3\n        /* \"#utility.yul\":9135:9149   */\n      sub\n        /* \"#utility.yul\":9128:9132   */\n      0x60\n        /* \"#utility.yul\":9123:9126   */\n      dup7\n        /* \"#utility.yul\":9119:9133   */\n      add\n        /* \"#utility.yul\":9112:9150   */\n      mstore\n        /* \"#utility.yul\":9171:9244   */\n      tag_316\n        /* \"#utility.yul\":9239:9243   */\n      dup3\n        /* \"#utility.yul\":9225:9237   */\n      dup3\n        /* \"#utility.yul\":9171:9244   */\n      tag_294\n      jump\t// in\n    tag_316:\n        /* \"#utility.yul\":9163:9244   */\n      swap2\n      pop\n        /* \"#utility.yul\":9018:9255   */\n      pop\n        /* \"#utility.yul\":9339:9343   */\n      0x80\n        /* \"#utility.yul\":9332:9337   */\n      dup4\n        /* \"#utility.yul\":9328:9344   */\n      add\n        /* \"#utility.yul\":9322:9345   */\n      mload\n        /* \"#utility.yul\":9392:9395   */\n      dup5\n        /* \"#utility.yul\":9386:9390   */\n      dup3\n        /* \"#utility.yul\":9382:9396   */\n      sub\n        /* \"#utility.yul\":9375:9379   */\n      0x80\n        /* \"#utility.yul\":9370:9373   */\n      dup7\n        /* \"#utility.yul\":9366:9380   */\n      add\n        /* \"#utility.yul\":9359:9397   */\n      mstore\n        /* \"#utility.yul\":9418:9491   */\n      tag_317\n        /* \"#utility.yul\":9486:9490   */\n      dup3\n        /* \"#utility.yul\":9472:9484   */\n      dup3\n        /* \"#utility.yul\":9418:9491   */\n      tag_294\n      jump\t// in\n    tag_317:\n        /* \"#utility.yul\":9410:9491   */\n      swap2\n      pop\n        /* \"#utility.yul\":9265:9502   */\n      pop\n        /* \"#utility.yul\":9589:9593   */\n      0xa0\n        /* \"#utility.yul\":9582:9587   */\n      dup4\n        /* \"#utility.yul\":9578:9594   */\n      add\n        /* \"#utility.yul\":9572:9595   */\n      mload\n        /* \"#utility.yul\":9642:9645   */\n      dup5\n        /* \"#utility.yul\":9636:9640   */\n      dup3\n        /* \"#utility.yul\":9632:9646   */\n      sub\n        /* \"#utility.yul\":9625:9629   */\n      0xa0\n        /* \"#utility.yul\":9620:9623   */\n      dup7\n        /* \"#utility.yul\":9616:9630   */\n      add\n        /* \"#utility.yul\":9609:9647   */\n      mstore\n        /* \"#utility.yul\":9668:9741   */\n      tag_318\n        /* \"#utility.yul\":9736:9740   */\n      dup3\n        /* \"#utility.yul\":9722:9734   */\n      dup3\n        /* \"#utility.yul\":9668:9741   */\n      tag_294\n      jump\t// in\n    tag_318:\n        /* \"#utility.yul\":9660:9741   */\n      swap2\n      pop\n        /* \"#utility.yul\":9512:9752   */\n      pop\n        /* \"#utility.yul\":9836:9840   */\n      0xc0\n        /* \"#utility.yul\":9829:9834   */\n      dup4\n        /* \"#utility.yul\":9825:9841   */\n      add\n        /* \"#utility.yul\":9819:9842   */\n      mload\n        /* \"#utility.yul\":9855:9918   */\n      tag_319\n        /* \"#utility.yul\":9912:9916   */\n      0xc0\n        /* \"#utility.yul\":9907:9910   */\n      dup7\n        /* \"#utility.yul\":9903:9917   */\n      add\n        /* \"#utility.yul\":9889:9901   */\n      dup3\n        /* \"#utility.yul\":9855:9918   */\n      tag_273\n      jump\t// in\n    tag_319:\n        /* \"#utility.yul\":9762:9928   */\n      pop\n        /* \"#utility.yul\":9945:9949   */\n      dup1\n        /* \"#utility.yul\":9938:9949   */\n      swap2\n      pop\n        /* \"#utility.yul\":8306:9955   */\n      pop\n        /* \"#utility.yul\":8202:9955   */\n      swap3\n      swap2\n      pop\n      pop\n      jump\t// out\n        /* \"#utility.yul\":9961:10069   */\n    tag_315:\n        /* \"#utility.yul\":10038:10062   */\n      tag_321\n        /* \"#utility.yul\":10056:10061   */\n      dup2\n        /* \"#utility.yul\":10038:10062   */\n      tag_322\n      jump\t// in\n    tag_321:\n        /* \"#utility.yul\":10033:10036   */\n      dup3\n        /* \"#utility.yul\":10026:10063   */\n      mstore\n        /* \"#utility.yul\":9961:10069   */\n      pop\n      pop\n      jump\t// out\n        /* \"#utility.yul\":10075:10193   */\n    tag_323:\n        /* \"#utility.yul\":10162:10186   */\n      tag_325\n        /* \"#utility.yul\":10180:10185   */\n      dup2\n        /* \"#utility.yul\":10162:10186   */\n      tag_322\n      jump\t// in\n    tag_325:\n        /* \"#utility.yul\":10157:10160   */\n      dup3\n        /* \"#utility.yul\":10150:10187   */\n      mstore\n        /* \"#utility.yul\":10075:10193   */\n      pop\n      pop\n      jump\t// out\n        /* \"#utility.yul\":10199:10652   */\n    tag_31:\n        /* \"#utility.yul\":10382:10386   */\n      0x00\n        /* \"#utility.yul\":10420:10422   */\n      0x20\n        /* \"#utility.yul\":10409:10418   */\n      dup3\n        /* \"#utility.yul\":10405:10423   */\n      add\n        /* \"#utility.yul\":10397:10423   */\n      swap1\n      pop\n        /* \"#utility.yul\":10469:10478   */\n      dup2\n        /* \"#utility.yul\":10463:10467   */\n      dup2\n        /* \"#utility.yul\":10459:10479   */\n      sub\n        /* \"#utility.yul\":10455:10456   */\n      0x00\n        /* \"#utility.yul\":10444:10453   */\n      dup4\n        /* \"#utility.yul\":10440:10457   */\n      add\n        /* \"#utility.yul\":10433:10480   */\n      mstore\n        /* \"#utility.yul\":10497:10645   */\n      tag_327\n        /* \"#utility.yul\":10640:10644   */\n      dup2\n        /* \"#utility.yul\":10631:10637   */\n      dup5\n        /* \"#utility.yul\":10497:10645   */\n      tag_280\n      jump\t// in\n    tag_327:\n        /* \"#utility.yul\":10489:10645   */\n      swap1\n      pop\n        /* \"#utility.yul\":10199:10652   */\n      swap3\n      swap2\n      pop\n      pop\n      jump\t// out\n        /* \"#utility.yul\":10658:11888   */\n    tag_23:\n        /* \"#utility.yul\":10991:10995   */\n      0x00\n        /* \"#utility.yul\":11029:11032   */\n      0xc0\n        /* \"#utility.yul\":11018:11027   */\n      dup3\n        /* \"#utility.yul\":11014:11033   */\n      add\n        /* \"#utility.yul\":11006:11033   */\n      swap1\n      pop\n        /* \"#utility.yul\":11079:11088   */\n      dup2\n        /* \"#utility.yul\":11073:11077   */\n      dup2\n        /* \"#utility.yul\":11069:11089   */\n      sub\n        /* \"#utility.yul\":11065:11066   */\n      0x00\n        /* \"#utility.yul\":11054:11063   */\n      dup4\n        /* \"#utility.yul\":11050:11067   */\n      add\n        /* \"#utility.yul\":11043:11090   */\n      mstore\n        /* \"#utility.yul\":11107:11185   */\n      tag_329\n        /* \"#utility.yul\":11180:11184   */\n      dup2\n        /* \"#utility.yul\":11171:11177   */\n      dup10\n        /* \"#utility.yul\":11107:11185   */\n      tag_304\n      jump\t// in\n    tag_329:\n        /* \"#utility.yul\":11099:11185   */\n      swap1\n      pop\n        /* \"#utility.yul\":11232:11241   */\n      dup2\n        /* \"#utility.yul\":11226:11230   */\n      dup2\n        /* \"#utility.yul\":11222:11242   */\n      sub\n        /* \"#utility.yul\":11217:11219   */\n      0x20\n        /* \"#utility.yul\":11206:11215   */\n      dup4\n        /* \"#utility.yul\":11202:11220   */\n      add\n        /* \"#utility.yul\":11195:11243   */\n      mstore\n        /* \"#utility.yul\":11260:11338   */\n      tag_330\n        /* \"#utility.yul\":11333:11337   */\n      dup2\n        /* \"#utility.yul\":11324:11330   */\n      dup9\n        /* \"#utility.yul\":11260:11338   */\n      tag_304\n      jump\t// in\n    tag_330:\n        /* \"#utility.yul\":11252:11338   */\n      swap1\n      pop\n        /* \"#utility.yul\":11348:11420   */\n      tag_331\n        /* \"#utility.yul\":11416:11418   */\n      0x40\n        /* \"#utility.yul\":11405:11414   */\n      dup4\n        /* \"#utility.yul\":11401:11419   */\n      add\n        /* \"#utility.yul\":11392:11398   */\n      dup8\n        /* \"#utility.yul\":11348:11420   */\n      tag_323\n      jump\t// in\n    tag_331:\n        /* \"#utility.yul\":11467:11476   */\n      dup2\n        /* \"#utility.yul\":11461:11465   */\n      dup2\n        /* \"#utility.yul\":11457:11477   */\n      sub\n        /* \"#utility.yul\":11452:11454   */\n      0x60\n        /* \"#utility.yul\":11441:11450   */\n      dup4\n        /* \"#utility.yul\":11437:11455   */\n      add\n        /* \"#utility.yul\":11430:11478   */\n      mstore\n        /* \"#utility.yul\":11495:11573   */\n      tag_332\n        /* \"#utility.yul\":11568:11572   */\n      dup2\n        /* \"#utility.yul\":11559:11565   */\n      dup7\n        /* \"#utility.yul\":11495:11573   */\n      tag_304\n      jump\t// in\n    tag_332:\n        /* \"#utility.yul\":11487:11573   */\n      swap1\n      pop\n        /* \"#utility.yul\":11621:11630   */\n      dup2\n        /* \"#utility.yul\":11615:11619   */\n      dup2\n        /* \"#utility.yul\":11611:11631   */\n      sub\n        /* \"#utility.yul\":11605:11608   */\n      0x80\n        /* \"#utility.yul\":11594:11603   */\n      dup4\n        /* \"#utility.yul\":11590:11609   */\n      add\n        /* \"#utility.yul\":11583:11632   */\n      mstore\n        /* \"#utility.yul\":11649:11727   */\n      tag_333\n        /* \"#utility.yul\":11722:11726   */\n      dup2\n        /* \"#utility.yul\":11713:11719   */\n      dup6\n        /* \"#utility.yul\":11649:11727   */\n      tag_304\n      jump\t// in\n    tag_333:\n        /* \"#utility.yul\":11641:11727   */\n      swap1\n      pop\n        /* \"#utility.yul\":11775:11784   */\n      dup2\n        /* \"#utility.yul\":11769:11773   */\n      dup2\n        /* \"#utility.yul\":11765:11785   */\n      sub\n        /* \"#utility.yul\":11759:11762   */\n      0xa0\n        /* \"#utility.yul\":11748:11757   */\n      dup4\n        /* \"#utility.yul\":11744:11763   */\n      add\n        /* \"#utility.yul\":11737:11786   */\n      mstore\n        /* \"#utility.yul\":11803:11881   */\n      tag_334\n        /* \"#utility.yul\":11876:11880   */\n      dup2\n        /* \"#utility.yul\":11867:11873   */\n      dup5\n        /* \"#utility.yul\":11803:11881   */\n      tag_304\n      jump\t// in\n    tag_334:\n        /* \"#utility.yul\":11795:11881   */\n      swap1\n      pop\n        /* \"#utility.yul\":10658:11888   */\n      swap8\n      swap7\n      pop\n      pop\n      pop\n      pop\n      pop\n      pop\n      pop\n      jump\t// out\n        /* \"#utility.yul\":11894:13235   */\n    tag_17:\n        /* \"#utility.yul\":12255:12259   */\n      0x00\n        /* \"#utility.yul\":12293:12296   */\n      0xe0\n        /* \"#utility.yul\":12282:12291   */\n      dup3\n        /* \"#utility.yul\":12278:12297   */\n      add\n        /* \"#utility.yul\":12270:12297   */\n      swap1\n      pop\n        /* \"#utility.yul\":12343:12352   */\n      dup2\n        /* \"#utility.yul\":12337:12341   */\n      dup2\n        /* \"#utility.yul\":12333:12353   */\n      sub\n        /* \"#utility.yul\":12329:12330   */\n      0x00\n        /* \"#utility.yul\":12318:12327   */\n      dup4\n        /* \"#utility.yul\":12314:12331   */\n      add\n        /* \"#utility.yul\":12307:12354   */\n      mstore\n        /* \"#utility.yul\":12371:12449   */\n      tag_336\n        /* \"#utility.yul\":12444:12448   */\n      dup2\n        /* \"#utility.yul\":12435:12441   */\n      dup11\n        /* \"#utility.yul\":12371:12449   */\n      tag_304\n      jump\t// in\n    tag_336:\n        /* \"#utility.yul\":12363:12449   */\n      swap1\n      pop\n        /* \"#utility.yul\":12496:12505   */\n      dup2\n        /* \"#utility.yul\":12490:12494   */\n      dup2\n        /* \"#utility.yul\":12486:12506   */\n      sub\n        /* \"#utility.yul\":12481:12483   */\n      0x20\n        /* \"#utility.yul\":12470:12479   */\n      dup4\n        /* \"#utility.yul\":12466:12484   */\n      add\n        /* \"#utility.yul\":12459:12507   */\n      mstore\n        /* \"#utility.yul\":12524:12602   */\n      tag_337\n        /* \"#utility.yul\":12597:12601   */\n      dup2\n        /* \"#utility.yul\":12588:12594   */\n      dup10\n        /* \"#utility.yul\":12524:12602   */\n      tag_304\n      jump\t// in\n    tag_337:\n        /* \"#utility.yul\":12516:12602   */\n      swap1\n      pop\n        /* \"#utility.yul\":12612:12684   */\n      tag_338\n        /* \"#utility.yul\":12680:12682   */\n      0x40\n        /* \"#utility.yul\":12669:12678   */\n      dup4\n        /* \"#utility.yul\":12665:12683   */\n      add\n        /* \"#utility.yul\":12656:12662   */\n      dup9\n        /* \"#utility.yul\":12612:12684   */\n      tag_323\n      jump\t// in\n    tag_338:\n        /* \"#utility.yul\":12731:12740   */\n      dup2\n        /* \"#utility.yul\":12725:12729   */\n      dup2\n        /* \"#utility.yul\":12721:12741   */\n      sub\n        /* \"#utility.yul\":12716:12718   */\n      0x60\n        /* \"#utility.yul\":12705:12714   */\n      dup4\n        /* \"#utility.yul\":12701:12719   */\n      add\n        /* \"#utility.yul\":12694:12742   */\n      mstore\n        /* \"#utility.yul\":12759:12837   */\n      tag_339\n        /* \"#utility.yul\":12832:12836   */\n      dup2\n        /* \"#utility.yul\":12823:12829   */\n      dup8\n        /* \"#utility.yul\":12759:12837   */\n      tag_304\n      jump\t// in\n    tag_339:\n        /* \"#utility.yul\":12751:12837   */\n      swap1\n      pop\n        /* \"#utility.yul\":12885:12894   */\n      dup2\n        /* \"#utility.yul\":12879:12883   */\n      dup2\n        /* \"#utility.yul\":12875:12895   */\n      sub\n        /* \"#utility.yul\":12869:12872   */\n      0x80\n        /* \"#utility.yul\":12858:12867   */\n      dup4\n        /* \"#utility.yul\":12854:12873   */\n      add\n        /* \"#utility.yul\":12847:12896   */\n      mstore\n        /* \"#utility.yul\":12913:12991   */\n      tag_340\n        /* \"#utility.yul\":12986:12990   */\n      dup2\n        /* \"#utility.yul\":12977:12983   */\n      dup7\n        /* \"#utility.yul\":12913:12991   */\n      tag_304\n      jump\t// in\n    tag_340:\n        /* \"#utility.yul\":12905:12991   */\n      swap1\n      pop\n        /* \"#utility.yul\":13039:13048   */\n      dup2\n        /* \"#utility.yul\":13033:13037   */\n      dup2\n        /* \"#utility.yul\":13029:13049   */\n      sub\n        /* \"#utility.yul\":13023:13026   */\n      0xa0\n        /* \"#utility.yul\":13012:13021   */\n      dup4\n        /* \"#utility.yul\":13008:13027   */\n      add\n        /* \"#utility.yul\":13001:13050   */\n      mstore\n        /* \"#utility.yul\":13067:13145   */\n      tag_341\n        /* \"#utility.yul\":13140:13144   */\n      dup2\n        /* \"#utility.yul\":13131:13137   */\n      dup6\n        /* \"#utility.yul\":13067:13145   */\n      tag_304\n      jump\t// in\n    tag_341:\n        /* \"#utility.yul\":13059:13145   */\n      swap1\n      pop\n        /* \"#utility.yul\":13155:13228   */\n      tag_342\n        /* \"#utility.yul\":13223:13226   */\n      0xc0\n        /* \"#utility.yul\":13212:13221   */\n      dup4\n        /* \"#utility.yul\":13208:13227   */\n      add\n        /* \"#utility.yul\":13199:13205   */\n      dup5\n        /* \"#utility.yul\":13155:13228   */\n      tag_277\n      jump\t// in\n    tag_342:\n        /* \"#utility.yul\":11894:13235   */\n      swap9\n      swap8\n      pop\n      pop\n      pop\n      pop\n      pop\n      pop\n      pop\n      pop\n      jump\t// out\n        /* \"#utility.yul\":13241:13370   */\n    tag_200:\n        /* \"#utility.yul\":13275:13281   */\n      0x00\n        /* \"#utility.yul\":13302:13322   */\n      tag_344\n      tag_345\n      jump\t// in\n    tag_344:\n        /* \"#utility.yul\":13292:13322   */\n      swap1\n      pop\n        /* \"#utility.yul\":13331:13364   */\n      tag_346\n        /* \"#utility.yul\":13359:13363   */\n      dup3\n        /* \"#utility.yul\":13351:13357   */\n      dup3\n        /* \"#utility.yul\":13331:13364   */\n      tag_347\n      jump\t// in\n    tag_346:\n        /* \"#utility.yul\":13241:13370   */\n      swap2\n      swap1\n      pop\n      jump\t// out\n        /* \"#utility.yul\":13376:13451   */\n    tag_345:\n        /* \"#utility.yul\":13409:13415   */\n      0x00\n        /* \"#utility.yul\":13442:13444   */\n      0x40\n        /* \"#utility.yul\":13436:13445   */\n      mload\n        /* \"#utility.yul\":13426:13445   */\n      swap1\n      pop\n        /* \"#utility.yul\":13376:13451   */\n      swap1\n      jump\t// out\n        /* \"#utility.yul\":13457:13765   */\n    tag_199:\n        /* \"#utility.yul\":13519:13523   */\n      0x00\n        /* \"#utility.yul\":13609:13627   */\n      0xffffffffffffffff\n        /* \"#utility.yul\":13601:13607   */\n      dup3\n        /* \"#utility.yul\":13598:13628   */\n      gt\n        /* \"#utility.yul\":13595:13651   */\n      iszero\n      tag_350\n      jumpi\n        /* \"#utility.yul\":13631:13649   */\n      tag_351\n      tag_352\n      jump\t// in\n    tag_351:\n        /* \"#utility.yul\":13595:13651   */\n    tag_350:\n        /* \"#utility.yul\":13669:13698   */\n      tag_353\n        /* \"#utility.yul\":13691:13697   */\n      dup3\n        /* \"#utility.yul\":13669:13698   */\n      tag_303\n      jump\t// in\n    tag_353:\n        /* \"#utility.yul\":13661:13698   */\n      swap1\n      pop\n        /* \"#utility.yul\":13753:13757   */\n      0x20\n        /* \"#utility.yul\":13747:13751   */\n      dup2\n        /* \"#utility.yul\":13743:13758   */\n      add\n        /* \"#utility.yul\":13735:13758   */\n      swap1\n      pop\n        /* \"#utility.yul\":13457:13765   */\n      swap2\n      swap1\n      pop\n      jump\t// out\n        /* \"#utility.yul\":13771:13923   */\n    tag_287:\n        /* \"#utility.yul\":13858:13862   */\n      0x00\n        /* \"#utility.yul\":13881:13884   */\n      dup2\n        /* \"#utility.yul\":13873:13884   */\n      swap1\n      pop\n        /* \"#utility.yul\":13911:13915   */\n      0x20\n        /* \"#utility.yul\":13906:13909   */\n      dup3\n        /* \"#utility.yul\":13902:13916   */\n      add\n        /* \"#utility.yul\":13894:13916   */\n      swap1\n      pop\n        /* \"#utility.yul\":13771:13923   */\n      swap2\n      swap1\n      pop\n      jump\t// out\n        /* \"#utility.yul\":13929:14063   */\n    tag_283:\n        /* \"#utility.yul\":14016:14022   */\n      0x00\n        /* \"#utility.yul\":14050:14055   */\n      dup2\n        /* \"#utility.yul\":14044:14056   */\n      mload\n        /* \"#utility.yul\":14034:14056   */\n      swap1\n      pop\n        /* \"#utility.yul\":13929:14063   */\n      swap2\n      swap1\n      pop\n      jump\t// out\n        /* \"#utility.yul\":14069:14168   */\n    tag_297:\n        /* \"#utility.yul\":14121:14127   */\n      0x00\n        /* \"#utility.yul\":14155:14160   */\n      dup2\n        /* \"#utility.yul\":14149:14161   */\n      mload\n        /* \"#utility.yul\":14139:14161   */\n      swap1\n      pop\n        /* \"#utility.yul\":14069:14168   */\n      swap2\n      swap1\n      pop\n      jump\t// out\n        /* \"#utility.yul\":14174:14307   */\n    tag_293:\n        /* \"#utility.yul\":14264:14268   */\n      0x00\n        /* \"#utility.yul\":14296:14300   */\n      0x20\n        /* \"#utility.yul\":14291:14294   */\n      dup3\n        /* \"#utility.yul\":14287:14301   */\n      add\n        /* \"#utility.yul\":14279:14301   */\n      swap1\n      pop\n        /* \"#utility.yul\":14174:14307   */\n      swap2\n      swap1\n      pop\n      jump\t// out\n        /* \"#utility.yul\":14313:14517   */\n    tag_285:\n        /* \"#utility.yul\":14432:14443   */\n      0x00\n        /* \"#utility.yul\":14466:14472   */\n      dup3\n        /* \"#utility.yul\":14461:14464   */\n      dup3\n        /* \"#utility.yul\":14454:14473   */\n      mstore\n        /* \"#utility.yul\":14506:14510   */\n      0x20\n        /* \"#utility.yul\":14501:14504   */\n      dup3\n        /* \"#utility.yul\":14497:14511   */\n      add\n        /* \"#utility.yul\":14482:14511   */\n      swap1\n      pop\n        /* \"#utility.yul\":14313:14517   */\n      swap3\n      swap2\n      pop\n      pop\n      jump\t// out\n        /* \"#utility.yul\":14523:14682   */\n    tag_299:\n        /* \"#utility.yul\":14597:14608   */\n      0x00\n        /* \"#utility.yul\":14631:14637   */\n      dup3\n        /* \"#utility.yul\":14626:14629   */\n      dup3\n        /* \"#utility.yul\":14619:14638   */\n      mstore\n        /* \"#utility.yul\":14671:14675   */\n      0x20\n        /* \"#utility.yul\":14666:14669   */\n      dup3\n        /* \"#utility.yul\":14662:14676   */\n      add\n        /* \"#utility.yul\":14647:14676   */\n      swap1\n      pop\n        /* \"#utility.yul\":14523:14682   */\n      swap3\n      swap2\n      pop\n      pop\n      jump\t// out\n        /* \"#utility.yul\":14688:14857   */\n    tag_308:\n        /* \"#utility.yul\":14772:14783   */\n      0x00\n        /* \"#utility.yul\":14806:14812   */\n      dup3\n        /* \"#utility.yul\":14801:14804   */\n      dup3\n        /* \"#utility.yul\":14794:14813   */\n      mstore\n        /* \"#utility.yul\":14846:14850   */\n      0x20\n        /* \"#utility.yul\":14841:14844   */\n      dup3\n        /* \"#utility.yul\":14837:14851   */\n      add\n        /* \"#utility.yul\":14822:14851   */\n      swap1\n      pop\n        /* \"#utility.yul\":14688:14857   */\n      swap3\n      swap2\n      pop\n      pop\n      jump\t// out\n        /* \"#utility.yul\":14863:14959   */\n    tag_276:\n        /* \"#utility.yul\":14900:14907   */\n      0x00\n        /* \"#utility.yul\":14929:14953   */\n      tag_362\n        /* \"#utility.yul\":14947:14952   */\n      dup3\n        /* \"#utility.yul\":14929:14953   */\n      tag_363\n      jump\t// in\n    tag_362:\n        /* \"#utility.yul\":14918:14953   */\n      swap1\n      pop\n        /* \"#utility.yul\":14863:14959   */\n      swap2\n      swap1\n      pop\n      jump\t// out\n        /* \"#utility.yul\":14965:15091   */\n    tag_363:\n        /* \"#utility.yul\":15002:15009   */\n      0x00\n        /* \"#utility.yul\":15042:15084   */\n      0xffffffffffffffffffffffffffffffffffffffff\n        /* \"#utility.yul\":15035:15040   */\n      dup3\n        /* \"#utility.yul\":15031:15085   */\n      and\n        /* \"#utility.yul\":15020:15085   */\n      swap1\n      pop\n        /* \"#utility.yul\":14965:15091   */\n      swap2\n      swap1\n      pop\n      jump\t// out\n        /* \"#utility.yul\":15097:15174   */\n    tag_322:\n        /* \"#utility.yul\":15134:15141   */\n      0x00\n        /* \"#utility.yul\":15163:15168   */\n      dup2\n        /* \"#utility.yul\":15152:15168   */\n      swap1\n      pop\n        /* \"#utility.yul\":15097:15174   */\n      swap2\n      swap1\n      pop\n      jump\t// out\n        /* \"#utility.yul\":15180:15334   */\n    tag_205:\n        /* \"#utility.yul\":15264:15270   */\n      dup3\n        /* \"#utility.yul\":15259:15262   */\n      dup2\n        /* \"#utility.yul\":15254:15257   */\n      dup4\n        /* \"#utility.yul\":15241:15271   */\n      calldatacopy\n        /* \"#utility.yul\":15326:15327   */\n      0x00\n        /* \"#utility.yul\":15317:15323   */\n      dup4\n        /* \"#utility.yul\":15312:15315   */\n      dup4\n        /* \"#utility.yul\":15308:15324   */\n      add\n        /* \"#utility.yul\":15301:15328   */\n      mstore\n        /* \"#utility.yul\":15180:15334   */\n      pop\n      pop\n      pop\n      jump\t// out\n        /* \"#utility.yul\":15340:15647   */\n    tag_301:\n        /* \"#utility.yul\":15408:15409   */\n      0x00\n        /* \"#utility.yul\":15418:15531   */\n    tag_368:\n        /* \"#utility.yul\":15432:15438   */\n      dup4\n        /* \"#utility.yul\":15429:15430   */\n      dup2\n        /* \"#utility.yul\":15426:15439   */\n      lt\n        /* \"#utility.yul\":15418:15531   */\n      iszero\n      tag_370\n      jumpi\n        /* \"#utility.yul\":15517:15518   */\n      dup1\n        /* \"#utility.yul\":15512:15515   */\n      dup3\n        /* \"#utility.yul\":15508:15519   */\n      add\n        /* \"#utility.yul\":15502:15520   */\n      mload\n        /* \"#utility.yul\":15498:15499   */\n      dup2\n        /* \"#utility.yul\":15493:15496   */\n      dup5\n        /* \"#utility.yul\":15489:15500   */\n      add\n        /* \"#utility.yul\":15482:15521   */\n      mstore\n        /* \"#utility.yul\":15454:15456   */\n      0x20\n        /* \"#utility.yul\":15451:15452   */\n      dup2\n        /* \"#utility.yul\":15447:15457   */\n      add\n        /* \"#utility.yul\":15442:15457   */\n      swap1\n      pop\n        /* \"#utility.yul\":15418:15531   */\n      jump(tag_368)\n    tag_370:\n        /* \"#utility.yul\":15549:15555   */\n      dup4\n        /* \"#utility.yul\":15546:15547   */\n      dup2\n        /* \"#utility.yul\":15543:15556   */\n      gt\n        /* \"#utility.yul\":15540:15641   */\n      iszero\n      tag_371\n      jumpi\n        /* \"#utility.yul\":15629:15630   */\n      0x00\n        /* \"#utility.yul\":15620:15626   */\n      dup5\n        /* \"#utility.yul\":15615:15618   */\n      dup5\n        /* \"#utility.yul\":15611:15627   */\n      add\n        /* \"#utility.yul\":15604:15631   */\n      mstore\n        /* \"#utility.yul\":15540:15641   */\n    tag_371:\n        /* \"#utility.yul\":15389:15647   */\n      pop\n        /* \"#utility.yul\":15340:15647   */\n      pop\n      pop\n      pop\n      jump\t// out\n        /* \"#utility.yul\":15653:15973   */\n    tag_44:\n        /* \"#utility.yul\":15697:15703   */\n      0x00\n        /* \"#utility.yul\":15734:15735   */\n      0x02\n        /* \"#utility.yul\":15728:15732   */\n      dup3\n        /* \"#utility.yul\":15724:15736   */\n      div\n        /* \"#utility.yul\":15714:15736   */\n      swap1\n      pop\n        /* \"#utility.yul\":15781:15782   */\n      0x01\n        /* \"#utility.yul\":15775:15779   */\n      dup3\n        /* \"#utility.yul\":15771:15783   */\n      and\n        /* \"#utility.yul\":15802:15820   */\n      dup1\n        /* \"#utility.yul\":15792:15873   */\n      tag_373\n      jumpi\n        /* \"#utility.yul\":15858:15862   */\n      0x7f\n        /* \"#utility.yul\":15850:15856   */\n      dup3\n        /* \"#utility.yul\":15846:15863   */\n      and\n        /* \"#utility.yul\":15836:15863   */\n      swap2\n      pop\n        /* \"#utility.yul\":15792:15873   */\n    tag_373:\n        /* \"#utility.yul\":15920:15922   */\n      0x20\n        /* \"#utility.yul\":15912:15918   */\n      dup3\n        /* \"#utility.yul\":15909:15923   */\n      lt\n        /* \"#utility.yul\":15889:15907   */\n      dup2\n        /* \"#utility.yul\":15886:15924   */\n      eq\n        /* \"#utility.yul\":15883:15967   */\n      iszero\n      tag_374\n      jumpi\n        /* \"#utility.yul\":15939:15957   */\n      tag_375\n      tag_376\n      jump\t// in\n    tag_375:\n        /* \"#utility.yul\":15883:15967   */\n    tag_374:\n        /* \"#utility.yul\":15704:15973   */\n      pop\n        /* \"#utility.yul\":15653:15973   */\n      swap2\n      swap1\n      pop\n      jump\t// out\n        /* \"#utility.yul\":15979:16260   */\n    tag_347:\n        /* \"#utility.yul\":16062:16089   */\n      tag_378\n        /* \"#utility.yul\":16084:16088   */\n      dup3\n        /* \"#utility.yul\":16062:16089   */\n      tag_303\n      jump\t// in\n    tag_378:\n        /* \"#utility.yul\":16054:16060   */\n      dup2\n        /* \"#utility.yul\":16050:16090   */\n      add\n        /* \"#utility.yul\":16192:16198   */\n      dup2\n        /* \"#utility.yul\":16180:16190   */\n      dup2\n        /* \"#utility.yul\":16177:16199   */\n      lt\n        /* \"#utility.yul\":16156:16174   */\n      0xffffffffffffffff\n        /* \"#utility.yul\":16144:16154   */\n      dup3\n        /* \"#utility.yul\":16141:16175   */\n      gt\n        /* \"#utility.yul\":16138:16200   */\n      or\n        /* \"#utility.yul\":16135:16223   */\n      iszero\n      tag_379\n      jumpi\n        /* \"#utility.yul\":16203:16221   */\n      tag_380\n      tag_352\n      jump\t// in\n    tag_380:\n        /* \"#utility.yul\":16135:16223   */\n    tag_379:\n        /* \"#utility.yul\":16243:16253   */\n      dup1\n        /* \"#utility.yul\":16239:16241   */\n      0x40\n        /* \"#utility.yul\":16232:16254   */\n      mstore\n        /* \"#utility.yul\":16022:16260   */\n      pop\n        /* \"#utility.yul\":15979:16260   */\n      pop\n      pop\n      jump\t// out\n        /* \"#utility.yul\":16266:16499   */\n    tag_122:\n        /* \"#utility.yul\":16305:16308   */\n      0x00\n        /* \"#utility.yul\":16328:16352   */\n      tag_382\n        /* \"#utility.yul\":16346:16351   */\n      dup3\n        /* \"#utility.yul\":16328:16352   */\n      tag_322\n      jump\t// in\n    tag_382:\n        /* \"#utility.yul\":16319:16352   */\n      swap2\n      pop\n        /* \"#utility.yul\":16374:16440   */\n      0xffffffffffffffffffffffffffffffffffffffffffffffffffffffffffffffff\n        /* \"#utility.yul\":16367:16372   */\n      dup3\n        /* \"#utility.yul\":16364:16441   */\n      eq\n        /* \"#utility.yul\":16361:16464   */\n      iszero\n      tag_383\n      jumpi\n        /* \"#utility.yul\":16444:16462   */\n      tag_384\n      tag_385\n      jump\t// in\n    tag_384:\n        /* \"#utility.yul\":16361:16464   */\n    tag_383:\n        /* \"#utility.yul\":16491:16492   */\n      0x01\n        /* \"#utility.yul\":16484:16489   */\n      dup3\n        /* \"#utility.yul\":16480:16493   */\n      add\n        /* \"#utility.yul\":16473:16493   */\n      swap1\n      pop\n        /* \"#utility.yul\":16266:16499   */\n      swap2\n      swap1\n      pop\n      jump\t// out\n        /* \"#utility.yul\":16505:16685   */\n    tag_385:\n        /* \"#utility.yul\":16553:16630   */\n      0x4e487b7100000000000000000000000000000000000000000000000000000000\n        /* \"#utility.yul\":16550:16551   */\n      0x00\n        /* \"#utility.yul\":16543:16631   */\n      mstore\n        /* \"#utility.yul\":16650:16654   */\n      0x11\n        /* \"#utility.yul\":16647:16648   */\n      0x04\n        /* \"#utility.yul\":16640:16655   */\n      mstore\n        /* \"#utility.yul\":16674:16678   */\n      0x24\n        /* \"#utility.yul\":16671:16672   */\n      0x00\n        /* \"#utility.yul\":16664:16679   */\n      revert\n        /* \"#utility.yul\":16691:16871   */\n    tag_376:\n        /* \"#utility.yul\":16739:16816   */\n      0x4e487b7100000000000000000000000000000000000000000000000000000000\n        /* \"#utility.yul\":16736:16737   */\n      0x00\n        /* \"#utility.yul\":16729:16817   */\n      mstore\n        /* \"#utility.yul\":16836:16840   */\n      0x22\n        /* \"#utility.yul\":16833:16834   */\n      0x04\n        /* \"#utility.yul\":16826:16841   */\n      mstore\n        /* \"#utility.yul\":16860:16864   */\n      0x24\n        /* \"#utility.yul\":16857:16858   */\n      0x00\n        /* \"#utility.yul\":16850:16865   */\n      revert\n        /* \"#utility.yul\":16877:17057   */\n    tag_75:\n        /* \"#utility.yul\":16925:17002   */\n      0x4e487b7100000000000000000000000000000000000000000000000000000000\n        /* \"#utility.yul\":16922:16923   */\n      0x00\n        /* \"#utility.yul\":16915:17003   */\n      mstore\n        /* \"#utility.yul\":17022:17026   */\n      0x32\n        /* \"#utility.yul\":17019:17020   */\n      0x04\n        /* \"#utility.yul\":17012:17027   */\n      mstore\n        /* \"#utility.yul\":17046:17050   */\n      0x24\n        /* \"#utility.yul\":17043:17044   */\n      0x00\n        /* \"#utility.yul\":17036:17051   */\n      revert\n        /* \"#utility.yul\":17063:17243   */\n    tag_352:\n        /* \"#utility.yul\":17111:17188   */\n      0x4e487b7100000000000000000000000000000000000000000000000000000000\n        /* \"#utility.yul\":17108:17109   */\n      0x00\n        /* \"#utility.yul\":17101:17189   */\n      mstore\n        /* \"#utility.yul\":17208:17212   */\n      0x41\n        /* \"#utility.yul\":17205:17206   */\n      0x04\n        /* \"#utility.yul\":17198:17213   */\n      mstore\n        /* \"#utility.yul\":17232:17236   */\n      0x24\n        /* \"#utility.yul\":17229:17230   */\n      0x00\n        /* \"#utility.yul\":17222:17237   */\n      revert\n        /* \"#utility.yul\":17249:17366   */\n    tag_214:\n        /* \"#utility.yul\":17358:17359   */\n      0x00\n        /* \"#utility.yul\":17355:17356   */\n      dup1\n        /* \"#utility.yul\":17348:17360   */\n      revert\n        /* \"#utility.yul\":17372:17489   */\n    tag_203:\n        /* \"#utility.yul\":17481:17482   */\n      0x00\n        /* \"#utility.yul\":17478:17479   */\n      dup1\n        /* \"#utility.yul\":17471:17483   */\n      revert\n        /* \"#utility.yul\":17495:17612   */\n    tag_231:\n        /* \"#utility.yul\":17604:17605   */\n      0x00\n        /* \"#utility.yul\":17601:17602   */\n      dup1\n        /* \"#utility.yul\":17594:17606   */\n      revert\n        /* \"#utility.yul\":17618:17735   */\n    tag_223:\n        /* \"#utility.yul\":17727:17728   */\n      0x00\n        /* \"#utility.yul\":17724:17725   */\n      dup1\n        /* \"#utility.yul\":17717:17729   */\n      revert\n        /* \"#utility.yul\":17741:17843   */\n    tag_303:\n        /* \"#utility.yul\":17782:17788   */\n      0x00\n        /* \"#utility.yul\":17833:17835   */\n      0x1f\n        /* \"#utility.yul\":17829:17836   */\n      not\n        /* \"#utility.yul\":17824:17826   */\n      0x1f\n        /* \"#utility.yul\":17817:17822   */\n      dup4\n        /* \"#utility.yul\":17813:17827   */\n      add\n        /* \"#utility.yul\":17809:17837   */\n      and\n        /* \"#utility.yul\":17799:17837   */\n      swap1\n      pop\n        /* \"#utility.yul\":17741:17843   */\n      swap2\n      swap1\n      pop\n      jump\t// out\n        /* \"#utility.yul\":17849:17971   */\n    tag_209:\n        /* \"#utility.yul\":17922:17946   */\n      tag_396\n        /* \"#utility.yul\":17940:17945   */\n      dup2\n        /* \"#utility.yul\":17922:17946   */\n      tag_276\n      jump\t// in\n    tag_396:\n        /* \"#utility.yul\":17915:17920   */\n      dup2\n        /* \"#utility.yul\":17912:17947   */\n      eq\n        /* \"#utility.yul\":17902:17965   */\n      tag_397\n      jumpi\n        /* \"#utility.yul\":17961:17962   */\n      0x00\n        /* \"#utility.yul\":17958:17959   */\n      dup1\n        /* \"#utility.yul\":17951:17963   */\n      revert\n        /* \"#utility.yul\":17902:17965   */\n    tag_397:\n        /* \"#utility.yul\":17849:17971   */\n      pop\n      jump\t// out\n        /* \"#utility.yul\":17977:18099   */\n    tag_219:\n        /* \"#utility.yul\":18050:18074   */\n      tag_399\n        /* \"#utility.yul\":18068:18073   */\n      dup2\n        /* \"#utility.yul\":18050:18074   */\n      tag_322\n      jump\t// in\n    tag_399:\n        /* \"#utility.yul\":18043:18048   */\n      dup2\n        /* \"#utility.yul\":18040:18075   */\n      eq\n        /* \"#utility.yul\":18030:18093   */\n      tag_400\n      jumpi\n        /* \"#utility.yul\":18089:18090   */\n      0x00\n        /* \"#utility.yul\":18086:18087   */\n      dup1\n        /* \"#utility.yul\":18079:18091   */\n      revert\n        /* \"#utility.yul\":18030:18093   */\n    tag_400:\n        /* \"#utility.yul\":17977:18099   */\n      pop\n      jump\t// out\n\n    auxdata: 0xa2646970667358221220a6b9efd7f9e93c67cff1efa371225d4b5bfa56d7232f372f48f82a019d2fe2b164736f6c63430008070033\n}\n",
				"bytecode": {
					"linkReferences": {},
					"object": "608060405234801561001057600080fd5b50611a5e806100206000396000f3fe608060405234801561001057600080fd5b50600436106100575760003560e01c806321ef1a991461005c578063365b98b2146100785780633b0328be146100ae578063dacfaedb146100e3578063e2842d79146100ff575b600080fd5b610076600480360381019061007191906112c6565b61011d565b005b610092600480360381019061008d91906113df565b6102c6565b6040516100a597969594939291906116a1565b60405180910390f35b6100c860048036038101906100c3919061116b565b6105e0565b6040516100da9695949392919061161d565b60405180910390f35b6100fd60048036038101906100f89190611198565b610a9e565b005b610107610c95565b60405161011491906115fb565b60405180910390f35b60006040518060e001604052808881526020018781526020018681526020018581526020018481526020018381526020013373ffffffffffffffffffffffffffffffffffffffff168152509050600081908060018154018082558091505060019003906000526020600020906007020160009091909190915060008201518160000190805190602001906101b292919061102e565b5060208201518160010190805190602001906101cf92919061102e565b506040820151816002015560608201518160030190805190602001906101f692919061102e565b50608082015181600401908051906020019061021392919061102e565b5060a082015181600501908051906020019061023092919061102e565b5060c08201518160060160006101000a81548173ffffffffffffffffffffffffffffffffffffffff021916908373ffffffffffffffffffffffffffffffffffffffff16021790555050507f423a38afa55e30cfbce5cb1849872f2ddef47d755434455cb4491db88946eb93878787878787336040516102b597969594939291906116a1565b60405180910390a150505050505050565b600081815481106102d657600080fd5b90600052602060002090600702016000915090508060000180546102f99061186d565b80601f01602080910402602001604051908101604052809291908181526020018280546103259061186d565b80156103725780601f1061034757610100808354040283529160200191610372565b820191906000526020600020905b81548152906001019060200180831161035557829003601f168201915b5050505050908060010180546103879061186d565b80601f01602080910402602001604051908101604052809291908181526020018280546103b39061186d565b80156104005780601f106103d557610100808354040283529160200191610400565b820191906000526020600020905b8154815290600101906020018083116103e357829003601f168201915b50505050509080600201549080600301805461041b9061186d565b80601f01602080910402602001604051908101604052809291908181526020018280546104479061186d565b80156104945780601f1061046957610100808354040283529160200191610494565b820191906000526020600020905b81548152906001019060200180831161047757829003601f168201915b5050505050908060040180546104a99061186d565b80601f01602080910402602001604051908101604052809291908181526020018280546104d59061186d565b80156105225780601f106104f757610100808354040283529160200191610522565b820191906000526020600020905b81548152906001019060200180831161050557829003601f168201915b5050505050908060050180546105379061186d565b80601f01602080910402602001604051908101604052809291908181526020018280546105639061186d565b80156105b05780601f10610585576101008083540402835291602001916105b0565b820191906000526020600020905b81548152906001019060200180831161059357829003601f168201915b5050505050908060060160009054906101000a900473ffffffffffffffffffffffffffffffffffffffff16905087565b6060806000606080606060005b600080549050811015610a33578773ffffffffffffffffffffffffffffffffffffffff166000828154811061062557610624611977565b5b906000526020600020906007020160060160009054906101000a900473ffffffffffffffffffffffffffffffffffffffff1673ffffffffffffffffffffffffffffffffffffffff161415610a20576000818154811061068757610686611977565b5b9060005260206000209060070201600001600082815481106106ac576106ab611977565b5b9060005260206000209060070201600101600083815481106106d1576106d0611977565b5b906000526020600020906007020160020154600084815481106106f7576106f6611977565b5b90600052602060002090600702016003016000858154811061071c5761071b611977565b5b90600052602060002090600702016004016000868154811061074157610740611977565b5b906000526020600020906007020160050185805461075e9061186d565b80601f016020809104026020016040519081016040528092919081815260200182805461078a9061186d565b80156107d75780601f106107ac576101008083540402835291602001916107d7565b820191906000526020600020905b8154815290600101906020018083116107ba57829003601f168201915b505050505095508480546107ea9061186d565b80601f01602080910402602001604051908101604052809291908181526020018280546108169061186d565b80156108635780601f1061083857610100808354040283529160200191610863565b820191906000526020600020905b81548152906001019060200180831161084657829003601f168201915b505050505094508280546108769061186d565b80601f01602080910402602001604051908101604052809291908181526020018280546108a29061186d565b80156108ef5780601f106108c4576101008083540402835291602001916108ef565b820191906000526020600020905b8154815290600101906020018083116108d257829003601f168201915b505050505092508180546109029061186d565b80601f016020809104026020016040519081016040528092919081815260200182805461092e9061186d565b801561097b5780601f106109505761010080835404028352916020019161097b565b820191906000526020600020905b81548152906001019060200180831161095e57829003601f168201915b5050505050915080805461098e9061186d565b80601f01602080910402602001604051908101604052809291908181526020018280546109ba9061186d565b8015610a075780601f106109dc57610100808354040283529160200191610a07565b820191906000526020600020905b8154815290600101906020018083116109ea57829003601f168201915b5050505050905096509650965096509650965050610a95565b8080610a2b906118d0565b9150506105ed565b506000604051806020016040528060008152509060405180602001604052806000815250906040518060200160405280600081525060405180602001604052806000815250604051806020016040528060008152509550955095509550955095505b91939550919395565b60005b600080549050811015610c8b578773ffffffffffffffffffffffffffffffffffffffff1660008281548110610ad957610ad8611977565b5b906000526020600020906007020160060160009054906101000a900473ffffffffffffffffffffffffffffffffffffffff1673ffffffffffffffffffffffffffffffffffffffff161415610c78578660008281548110610b3c57610b3b611977565b5b90600052602060002090600702016000019080519060200190610b6092919061102e565b508560008281548110610b7657610b75611977565b5b90600052602060002090600702016001019080519060200190610b9a92919061102e565b508460008281548110610bb057610baf611977565b5b9060005260206000209060070201600201819055508360008281548110610bda57610bd9611977565b5b90600052602060002090600702016003019080519060200190610bfe92919061102e565b508260008281548110610c1457610c13611977565b5b90600052602060002090600702016004019080519060200190610c3892919061102e565b508160008281548110610c4e57610c4d611977565b5b90600052602060002090600702016005019080519060200190610c7292919061102e565b50610c8b565b8080610c83906118d0565b915050610aa1565b5050505050505050565b60606000805480602002602001604051908101604052809291908181526020016000905b8282101561102557838290600052602060002090600702016040518060e0016040529081600082018054610cec9061186d565b80601f0160208091040260200160405190810160405280929190818152602001828054610d189061186d565b8015610d655780601f10610d3a57610100808354040283529160200191610d65565b820191906000526020600020905b815481529060010190602001808311610d4857829003601f168201915b50505050508152602001600182018054610d7e9061186d565b80601f0160208091040260200160405190810160405280929190818152602001828054610daa9061186d565b8015610df75780601f10610dcc57610100808354040283529160200191610df7565b820191906000526020600020905b815481529060010190602001808311610dda57829003601f168201915b5050505050815260200160028201548152602001600382018054610e1a9061186d565b80601f0160208091040260200160405190810160405280929190818152602001828054610e469061186d565b8015610e935780601f10610e6857610100808354040283529160200191610e93565b820191906000526020600020905b815481529060010190602001808311610e7657829003601f168201915b50505050508152602001600482018054610eac9061186d565b80601f0160208091040260200160405190810160405280929190818152602001828054610ed89061186d565b8015610f255780601f10610efa57610100808354040283529160200191610f25565b820191906000526020600020905b815481529060010190602001808311610f0857829003601f168201915b50505050508152602001600582018054610f3e9061186d565b80601f0160208091040260200160405190810160405280929190818152602001828054610f6a9061186d565b8015610fb75780601f10610f8c57610100808354040283529160200191610fb7565b820191906000526020600020905b815481529060010190602001808311610f9a57829003601f168201915b505050505081526020016006820160009054906101000a900473ffffffffffffffffffffffffffffffffffffffff1673ffffffffffffffffffffffffffffffffffffffff1673ffffffffffffffffffffffffffffffffffffffff168152505081526020019060010190610cb9565b50505050905090565b82805461103a9061186d565b90600052602060002090601f01602090048101928261105c57600085556110a3565b82601f1061107557805160ff19168380011785556110a3565b828001600101855582156110a3579182015b828111156110a2578251825591602001919060010190611087565b5b5090506110b091906110b4565b5090565b5b808211156110cd5760008160009055506001016110b5565b5090565b60006110e46110df84611758565b611733565b905082815260208101848484011115611100576110ff6119da565b5b61110b84828561182b565b509392505050565b600081359050611122816119fa565b92915050565b600082601f83011261113d5761113c6119d5565b5b813561114d8482602086016110d1565b91505092915050565b60008135905061116581611a11565b92915050565b600060208284031215611181576111806119e4565b5b600061118f84828501611113565b91505092915050565b600080600080600080600060e0888a0312156111b7576111b66119e4565b5b60006111c58a828b01611113565b975050602088013567ffffffffffffffff8111156111e6576111e56119df565b5b6111f28a828b01611128565b965050604088013567ffffffffffffffff811115611213576112126119df565b5b61121f8a828b01611128565b95505060606112308a828b01611156565b945050608088013567ffffffffffffffff811115611251576112506119df565b5b61125d8a828b01611128565b93505060a088013567ffffffffffffffff81111561127e5761127d6119df565b5b61128a8a828b01611128565b92505060c088013567ffffffffffffffff8111156112ab576112aa6119df565b5b6112b78a828b01611128565b91505092959891949750929550565b60008060008060008060c087890312156112e3576112e26119e4565b5b600087013567ffffffffffffffff811115611301576113006119df565b5b61130d89828a01611128565b965050602087013567ffffffffffffffff81111561132e5761132d6119df565b5b61133a89828a01611128565b955050604061134b89828a01611156565b945050606087013567ffffffffffffffff81111561136c5761136b6119df565b5b61137889828a01611128565b935050608087013567ffffffffffffffff811115611399576113986119df565b5b6113a589828a01611128565b92505060a087013567ffffffffffffffff8111156113c6576113c56119df565b5b6113d289828a01611128565b9150509295509295509295565b6000602082840312156113f5576113f46119e4565b5b600061140384828501611156565b91505092915050565b60006114188383611525565b905092915050565b611429816117ef565b82525050565b611438816117ef565b82525050565b600061144982611799565b61145381856117bc565b93508360208202850161146585611789565b8060005b858110156114a15784840389528151611482858261140c565b945061148d836117af565b925060208a01995050600181019050611469565b50829750879550505050505092915050565b60006114be826117a4565b6114c881856117cd565b93506114d881856020860161183a565b6114e1816119e9565b840191505092915050565b60006114f7826117a4565b61150181856117de565b935061151181856020860161183a565b61151a816119e9565b840191505092915050565b600060e083016000830151848203600086015261154282826114b3565b9150506020830151848203602086015261155c82826114b3565b915050604083015161157160408601826115dd565b506060830151848203606086015261158982826114b3565b915050608083015184820360808601526115a382826114b3565b91505060a083015184820360a08601526115bd82826114b3565b91505060c08301516115d260c0860182611420565b508091505092915050565b6115e681611821565b82525050565b6115f581611821565b82525050565b60006020820190508181036000830152611615818461143e565b905092915050565b600060c082019050818103600083015261163781896114ec565b9050818103602083015261164b81886114ec565b905061165a60408301876115ec565b818103606083015261166c81866114ec565b9050818103608083015261168081856114ec565b905081810360a083015261169481846114ec565b9050979650505050505050565b600060e08201905081810360008301526116bb818a6114ec565b905081810360208301526116cf81896114ec565b90506116de60408301886115ec565b81810360608301526116f081876114ec565b9050818103608083015261170481866114ec565b905081810360a083015261171881856114ec565b905061172760c083018461142f565b98975050505050505050565b600061173d61174e565b9050611749828261189f565b919050565b6000604051905090565b600067ffffffffffffffff821115611773576117726119a6565b5b61177c826119e9565b9050602081019050919050565b6000819050602082019050919050565b600081519050919050565b600081519050919050565b6000602082019050919050565b600082825260208201905092915050565b600082825260208201905092915050565b600082825260208201905092915050565b60006117fa82611801565b9050919050565b600073ffffffffffffffffffffffffffffffffffffffff82169050919050565b6000819050919050565b82818337600083830152505050565b60005b8381101561185857808201518184015260208101905061183d565b83811115611867576000848401525b50505050565b6000600282049050600182168061188557607f821691505b6020821081141561189957611898611948565b5b50919050565b6118a8826119e9565b810181811067ffffffffffffffff821117156118c7576118c66119a6565b5b80604052505050565b60006118db82611821565b91507fffffffffffffffffffffffffffffffffffffffffffffffffffffffffffffffff82141561190e5761190d611919565b5b600182019050919050565b7f4e487b7100000000000000000000000000000000000000000000000000000000600052601160045260246000fd5b7f4e487b7100000000000000000000000000000000000000000000000000000000600052602260045260246000fd5b7f4e487b7100000000000000000000000000000000000000000000000000000000600052603260045260246000fd5b7f4e487b7100000000000000000000000000000000000000000000000000000000600052604160045260246000fd5b600080fd5b600080fd5b600080fd5b600080fd5b6000601f19601f8301169050919050565b611a03816117ef565b8114611a0e57600080fd5b50565b611a1a81611821565b8114611a2557600080fd5b5056fea2646970667358221220a6b9efd7f9e93c67cff1efa371225d4b5bfa56d7232f372f48f82a019d2fe2b164736f6c63430008070033",
					"opcodes": "PUSH1 0x80 PUSH1 0x40 MSTORE CALLVALUE DUP1 ISZERO PUSH2 0x10 JUMPI PUSH1 0x0 DUP1 REVERT JUMPDEST POP PUSH2 0x1A5E DUP1 PUSH2 0x20 PUSH1 0x0 CODECOPY PUSH1 0x0 RETURN INVALID PUSH1 0x80 PUSH1 0x40 MSTORE CALLVALUE DUP1 ISZERO PUSH2 0x10 JUMPI PUSH1 0x0 DUP1 REVERT JUMPDEST POP PUSH1 0x4 CALLDATASIZE LT PUSH2 0x57 JUMPI PUSH1 0x0 CALLDATALOAD PUSH1 0xE0 SHR DUP1 PUSH4 0x21EF1A99 EQ PUSH2 0x5C JUMPI DUP1 PUSH4 0x365B98B2 EQ PUSH2 0x78 JUMPI DUP1 PUSH4 0x3B0328BE EQ PUSH2 0xAE JUMPI DUP1 PUSH4 0xDACFAEDB EQ PUSH2 0xE3 JUMPI DUP1 PUSH4 0xE2842D79 EQ PUSH2 0xFF JUMPI JUMPDEST PUSH1 0x0 DUP1 REVERT JUMPDEST PUSH2 0x76 PUSH1 0x4 DUP1 CALLDATASIZE SUB DUP2 ADD SWAP1 PUSH2 0x71 SWAP2 SWAP1 PUSH2 0x12C6 JUMP JUMPDEST PUSH2 0x11D JUMP JUMPDEST STOP JUMPDEST PUSH2 0x92 PUSH1 0x4 DUP1 CALLDATASIZE SUB DUP2 ADD SWAP1 PUSH2 0x8D SWAP2 SWAP1 PUSH2 0x13DF JUMP JUMPDEST PUSH2 0x2C6 JUMP JUMPDEST PUSH1 0x40 MLOAD PUSH2 0xA5 SWAP8 SWAP7 SWAP6 SWAP5 SWAP4 SWAP3 SWAP2 SWAP1 PUSH2 0x16A1 JUMP JUMPDEST PUSH1 0x40 MLOAD DUP1 SWAP2 SUB SWAP1 RETURN JUMPDEST PUSH2 0xC8 PUSH1 0x4 DUP1 CALLDATASIZE SUB DUP2 ADD SWAP1 PUSH2 0xC3 SWAP2 SWAP1 PUSH2 0x116B JUMP JUMPDEST PUSH2 0x5E0 JUMP JUMPDEST PUSH1 0x40 MLOAD PUSH2 0xDA SWAP7 SWAP6 SWAP5 SWAP4 SWAP3 SWAP2 SWAP1 PUSH2 0x161D JUMP JUMPDEST PUSH1 0x40 MLOAD DUP1 SWAP2 SUB SWAP1 RETURN JUMPDEST PUSH2 0xFD PUSH1 0x4 DUP1 CALLDATASIZE SUB DUP2 ADD SWAP1 PUSH2 0xF8 SWAP2 SWAP1 PUSH2 0x1198 JUMP JUMPDEST PUSH2 0xA9E JUMP JUMPDEST STOP JUMPDEST PUSH2 0x107 PUSH2 0xC95 JUMP JUMPDEST PUSH1 0x40 MLOAD PUSH2 0x114 SWAP2 SWAP1 PUSH2 0x15FB JUMP JUMPDEST PUSH1 0x40 MLOAD DUP1 SWAP2 SUB SWAP1 RETURN JUMPDEST PUSH1 0x0 PUSH1 0x40 MLOAD DUP1 PUSH1 0xE0 ADD PUSH1 0x40 MSTORE DUP1 DUP9 DUP2 MSTORE PUSH1 0x20 ADD DUP8 DUP2 MSTORE PUSH1 0x20 ADD DUP7 DUP2 MSTORE PUSH1 0x20 ADD DUP6 DUP2 MSTORE PUSH1 0x20 ADD DUP5 DUP2 MSTORE PUSH1 0x20 ADD DUP4 DUP2 MSTORE PUSH1 0x20 ADD CALLER PUSH20 0xFFFFFFFFFFFFFFFFFFFFFFFFFFFFFFFFFFFFFFFF AND DUP2 MSTORE POP SWAP1 POP PUSH1 0x0 DUP2 SWAP1 DUP1 PUSH1 0x1 DUP2 SLOAD ADD DUP1 DUP3 SSTORE DUP1 SWAP2 POP POP PUSH1 0x1 SWAP1 SUB SWAP1 PUSH1 0x0 MSTORE PUSH1 0x20 PUSH1 0x0 KECCAK256 SWAP1 PUSH1 0x7 MUL ADD PUSH1 0x0 SWAP1 SWAP2 SWAP1 SWAP2 SWAP1 SWAP2 POP PUSH1 0x0 DUP3 ADD MLOAD DUP2 PUSH1 0x0 ADD SWAP1 DUP1 MLOAD SWAP1 PUSH1 0x20 ADD SWAP1 PUSH2 0x1B2 SWAP3 SWAP2 SWAP1 PUSH2 0x102E JUMP JUMPDEST POP PUSH1 0x20 DUP3 ADD MLOAD DUP2 PUSH1 0x1 ADD SWAP1 DUP1 MLOAD SWAP1 PUSH1 0x20 ADD SWAP1 PUSH2 0x1CF SWAP3 SWAP2 SWAP1 PUSH2 0x102E JUMP JUMPDEST POP PUSH1 0x40 DUP3 ADD MLOAD DUP2 PUSH1 0x2 ADD SSTORE PUSH1 0x60 DUP3 ADD MLOAD DUP2 PUSH1 0x3 ADD SWAP1 DUP1 MLOAD SWAP1 PUSH1 0x20 ADD SWAP1 PUSH2 0x1F6 SWAP3 SWAP2 SWAP1 PUSH2 0x102E JUMP JUMPDEST POP PUSH1 0x80 DUP3 ADD MLOAD DUP2 PUSH1 0x4 ADD SWAP1 DUP1 MLOAD SWAP1 PUSH1 0x20 ADD SWAP1 PUSH2 0x213 SWAP3 SWAP2 SWAP1 PUSH2 0x102E JUMP JUMPDEST POP PUSH1 0xA0 DUP3 ADD MLOAD DUP2 PUSH1 0x5 ADD SWAP1 DUP1 MLOAD SWAP1 PUSH1 0x20 ADD SWAP1 PUSH2 0x230 SWAP3 SWAP2 SWAP1 PUSH2 0x102E JUMP JUMPDEST POP PUSH1 0xC0 DUP3 ADD MLOAD DUP2 PUSH1 0x6 ADD PUSH1 0x0 PUSH2 0x100 EXP DUP2 SLOAD DUP2 PUSH20 0xFFFFFFFFFFFFFFFFFFFFFFFFFFFFFFFFFFFFFFFF MUL NOT AND SWAP1 DUP4 PUSH20 0xFFFFFFFFFFFFFFFFFFFFFFFFFFFFFFFFFFFFFFFF AND MUL OR SWAP1 SSTORE POP POP POP PUSH32 0x423A38AFA55E30CFBCE5CB1849872F2DDEF47D755434455CB4491DB88946EB93 DUP8 DUP8 DUP8 DUP8 DUP8 DUP8 CALLER PUSH1 0x40 MLOAD PUSH2 0x2B5 SWAP8 SWAP7 SWAP6 SWAP5 SWAP4 SWAP3 SWAP2 SWAP1 PUSH2 0x16A1 JUMP JUMPDEST PUSH1 0x40 MLOAD DUP1 SWAP2 SUB SWAP1 LOG1 POP POP POP POP POP POP POP JUMP JUMPDEST PUSH1 0x0 DUP2 DUP2 SLOAD DUP2 LT PUSH2 0x2D6 JUMPI PUSH1 0x0 DUP1 REVERT JUMPDEST SWAP1 PUSH1 0x0 MSTORE PUSH1 0x20 PUSH1 0x0 KECCAK256 SWAP1 PUSH1 0x7 MUL ADD PUSH1 0x0 SWAP2 POP SWAP1 POP DUP1 PUSH1 0x0 ADD DUP1 SLOAD PUSH2 0x2F9 SWAP1 PUSH2 0x186D JUMP JUMPDEST DUP1 PUSH1 0x1F ADD PUSH1 0x20 DUP1 SWAP2 DIV MUL PUSH1 0x20 ADD PUSH1 0x40 MLOAD SWAP1 DUP2 ADD PUSH1 0x40 MSTORE DUP1 SWAP3 SWAP2 SWAP1 DUP2 DUP2 MSTORE PUSH1 0x20 ADD DUP3 DUP1 SLOAD PUSH2 0x325 SWAP1 PUSH2 0x186D JUMP JUMPDEST DUP1 ISZERO PUSH2 0x372 JUMPI DUP1 PUSH1 0x1F LT PUSH2 0x347 JUMPI PUSH2 0x100 DUP1 DUP4 SLOAD DIV MUL DUP4 MSTORE SWAP2 PUSH1 0x20 ADD SWAP2 PUSH2 0x372 JUMP JUMPDEST DUP3 ADD SWAP2 SWAP1 PUSH1 0x0 MSTORE PUSH1 0x20 PUSH1 0x0 KECCAK256 SWAP1 JUMPDEST DUP2 SLOAD DUP2 MSTORE SWAP1 PUSH1 0x1 ADD SWAP1 PUSH1 0x20 ADD DUP1 DUP4 GT PUSH2 0x355 JUMPI DUP3 SWAP1 SUB PUSH1 0x1F AND DUP3 ADD SWAP2 JUMPDEST POP POP POP POP POP SWAP1 DUP1 PUSH1 0x1 ADD DUP1 SLOAD PUSH2 0x387 SWAP1 PUSH2 0x186D JUMP JUMPDEST DUP1 PUSH1 0x1F ADD PUSH1 0x20 DUP1 SWAP2 DIV MUL PUSH1 0x20 ADD PUSH1 0x40 MLOAD SWAP1 DUP2 ADD PUSH1 0x40 MSTORE DUP1 SWAP3 SWAP2 SWAP1 DUP2 DUP2 MSTORE PUSH1 0x20 ADD DUP3 DUP1 SLOAD PUSH2 0x3B3 SWAP1 PUSH2 0x186D JUMP JUMPDEST DUP1 ISZERO PUSH2 0x400 JUMPI DUP1 PUSH1 0x1F LT PUSH2 0x3D5 JUMPI PUSH2 0x100 DUP1 DUP4 SLOAD DIV MUL DUP4 MSTORE SWAP2 PUSH1 0x20 ADD SWAP2 PUSH2 0x400 JUMP JUMPDEST DUP3 ADD SWAP2 SWAP1 PUSH1 0x0 MSTORE PUSH1 0x20 PUSH1 0x0 KECCAK256 SWAP1 JUMPDEST DUP2 SLOAD DUP2 MSTORE SWAP1 PUSH1 0x1 ADD SWAP1 PUSH1 0x20 ADD DUP1 DUP4 GT PUSH2 0x3E3 JUMPI DUP3 SWAP1 SUB PUSH1 0x1F AND DUP3 ADD SWAP2 JUMPDEST POP POP POP POP POP SWAP1 DUP1 PUSH1 0x2 ADD SLOAD SWAP1 DUP1 PUSH1 0x3 ADD DUP1 SLOAD PUSH2 0x41B SWAP1 PUSH2 0x186D JUMP JUMPDEST DUP1 PUSH1 0x1F ADD PUSH1 0x20 DUP1 SWAP2 DIV MUL PUSH1 0x20 ADD PUSH1 0x40 MLOAD SWAP1 DUP2 ADD PUSH1 0x40 MSTORE DUP1 SWAP3 SWAP2 SWAP1 DUP2 DUP2 MSTORE PUSH1 0x20 ADD DUP3 DUP1 SLOAD PUSH2 0x447 SWAP1 PUSH2 0x186D JUMP JUMPDEST DUP1 ISZERO PUSH2 0x494 JUMPI DUP1 PUSH1 0x1F LT PUSH2 0x469 JUMPI PUSH2 0x100 DUP1 DUP4 SLOAD DIV MUL DUP4 MSTORE SWAP2 PUSH1 0x20 ADD SWAP2 PUSH2 0x494 JUMP JUMPDEST DUP3 ADD SWAP2 SWAP1 PUSH1 0x0 MSTORE PUSH1 0x20 PUSH1 0x0 KECCAK256 SWAP1 JUMPDEST DUP2 SLOAD DUP2 MSTORE SWAP1 PUSH1 0x1 ADD SWAP1 PUSH1 0x20 ADD DUP1 DUP4 GT PUSH2 0x477 JUMPI DUP3 SWAP1 SUB PUSH1 0x1F AND DUP3 ADD SWAP2 JUMPDEST POP POP POP POP POP SWAP1 DUP1 PUSH1 0x4 ADD DUP1 SLOAD PUSH2 0x4A9 SWAP1 PUSH2 0x186D JUMP JUMPDEST DUP1 PUSH1 0x1F ADD PUSH1 0x20 DUP1 SWAP2 DIV MUL PUSH1 0x20 ADD PUSH1 0x40 MLOAD SWAP1 DUP2 ADD PUSH1 0x40 MSTORE DUP1 SWAP3 SWAP2 SWAP1 DUP2 DUP2 MSTORE PUSH1 0x20 ADD DUP3 DUP1 SLOAD PUSH2 0x4D5 SWAP1 PUSH2 0x186D JUMP JUMPDEST DUP1 ISZERO PUSH2 0x522 JUMPI DUP1 PUSH1 0x1F LT PUSH2 0x4F7 JUMPI PUSH2 0x100 DUP1 DUP4 SLOAD DIV MUL DUP4 MSTORE SWAP2 PUSH1 0x20 ADD SWAP2 PUSH2 0x522 JUMP JUMPDEST DUP3 ADD SWAP2 SWAP1 PUSH1 0x0 MSTORE PUSH1 0x20 PUSH1 0x0 KECCAK256 SWAP1 JUMPDEST DUP2 SLOAD DUP2 MSTORE SWAP1 PUSH1 0x1 ADD SWAP1 PUSH1 0x20 ADD DUP1 DUP4 GT PUSH2 0x505 JUMPI DUP3 SWAP1 SUB PUSH1 0x1F AND DUP3 ADD SWAP2 JUMPDEST POP POP POP POP POP SWAP1 DUP1 PUSH1 0x5 ADD DUP1 SLOAD PUSH2 0x537 SWAP1 PUSH2 0x186D JUMP JUMPDEST DUP1 PUSH1 0x1F ADD PUSH1 0x20 DUP1 SWAP2 DIV MUL PUSH1 0x20 ADD PUSH1 0x40 MLOAD SWAP1 DUP2 ADD PUSH1 0x40 MSTORE DUP1 SWAP3 SWAP2 SWAP1 DUP2 DUP2 MSTORE PUSH1 0x20 ADD DUP3 DUP1 SLOAD PUSH2 0x563 SWAP1 PUSH2 0x186D JUMP JUMPDEST DUP1 ISZERO PUSH2 0x5B0 JUMPI DUP1 PUSH1 0x1F LT PUSH2 0x585 JUMPI PUSH2 0x100 DUP1 DUP4 SLOAD DIV MUL DUP4 MSTORE SWAP2 PUSH1 0x20 ADD SWAP2 PUSH2 0x5B0 JUMP JUMPDEST DUP3 ADD SWAP2 SWAP1 PUSH1 0x0 MSTORE PUSH1 0x20 PUSH1 0x0 KECCAK256 SWAP1 JUMPDEST DUP2 SLOAD DUP2 MSTORE SWAP1 PUSH1 0x1 ADD SWAP1 PUSH1 0x20 ADD DUP1 DUP4 GT PUSH2 0x593 JUMPI DUP3 SWAP1 SUB PUSH1 0x1F AND DUP3 ADD SWAP2 JUMPDEST POP POP POP POP POP SWAP1 DUP1 PUSH1 0x6 ADD PUSH1 0x0 SWAP1 SLOAD SWAP1 PUSH2 0x100 EXP SWAP1 DIV PUSH20 0xFFFFFFFFFFFFFFFFFFFFFFFFFFFFFFFFFFFFFFFF AND SWAP1 POP DUP8 JUMP JUMPDEST PUSH1 0x60 DUP1 PUSH1 0x0 PUSH1 0x60 DUP1 PUSH1 0x60 PUSH1 0x0 JUMPDEST PUSH1 0x0 DUP1 SLOAD SWAP1 POP DUP2 LT ISZERO PUSH2 0xA33 JUMPI DUP8 PUSH20 0xFFFFFFFFFFFFFFFFFFFFFFFFFFFFFFFFFFFFFFFF AND PUSH1 0x0 DUP3 DUP2 SLOAD DUP2 LT PUSH2 0x625 JUMPI PUSH2 0x624 PUSH2 0x1977 JUMP JUMPDEST JUMPDEST SWAP1 PUSH1 0x0 MSTORE PUSH1 0x20 PUSH1 0x0 KECCAK256 SWAP1 PUSH1 0x7 MUL ADD PUSH1 0x6 ADD PUSH1 0x0 SWAP1 SLOAD SWAP1 PUSH2 0x100 EXP SWAP1 DIV PUSH20 0xFFFFFFFFFFFFFFFFFFFFFFFFFFFFFFFFFFFFFFFF AND PUSH20 0xFFFFFFFFFFFFFFFFFFFFFFFFFFFFFFFFFFFFFFFF AND EQ ISZERO PUSH2 0xA20 JUMPI PUSH1 0x0 DUP2 DUP2 SLOAD DUP2 LT PUSH2 0x687 JUMPI PUSH2 0x686 PUSH2 0x1977 JUMP JUMPDEST JUMPDEST SWAP1 PUSH1 0x0 MSTORE PUSH1 0x20 PUSH1 0x0 KECCAK256 SWAP1 PUSH1 0x7 MUL ADD PUSH1 0x0 ADD PUSH1 0x0 DUP3 DUP2 SLOAD DUP2 LT PUSH2 0x6AC JUMPI PUSH2 0x6AB PUSH2 0x1977 JUMP JUMPDEST JUMPDEST SWAP1 PUSH1 0x0 MSTORE PUSH1 0x20 PUSH1 0x0 KECCAK256 SWAP1 PUSH1 0x7 MUL ADD PUSH1 0x1 ADD PUSH1 0x0 DUP4 DUP2 SLOAD DUP2 LT PUSH2 0x6D1 JUMPI PUSH2 0x6D0 PUSH2 0x1977 JUMP JUMPDEST JUMPDEST SWAP1 PUSH1 0x0 MSTORE PUSH1 0x20 PUSH1 0x0 KECCAK256 SWAP1 PUSH1 0x7 MUL ADD PUSH1 0x2 ADD SLOAD PUSH1 0x0 DUP5 DUP2 SLOAD DUP2 LT PUSH2 0x6F7 JUMPI PUSH2 0x6F6 PUSH2 0x1977 JUMP JUMPDEST JUMPDEST SWAP1 PUSH1 0x0 MSTORE PUSH1 0x20 PUSH1 0x0 KECCAK256 SWAP1 PUSH1 0x7 MUL ADD PUSH1 0x3 ADD PUSH1 0x0 DUP6 DUP2 SLOAD DUP2 LT PUSH2 0x71C JUMPI PUSH2 0x71B PUSH2 0x1977 JUMP JUMPDEST JUMPDEST SWAP1 PUSH1 0x0 MSTORE PUSH1 0x20 PUSH1 0x0 KECCAK256 SWAP1 PUSH1 0x7 MUL ADD PUSH1 0x4 ADD PUSH1 0x0 DUP7 DUP2 SLOAD DUP2 LT PUSH2 0x741 JUMPI PUSH2 0x740 PUSH2 0x1977 JUMP JUMPDEST JUMPDEST SWAP1 PUSH1 0x0 MSTORE PUSH1 0x20 PUSH1 0x0 KECCAK256 SWAP1 PUSH1 0x7 MUL ADD PUSH1 0x5 ADD DUP6 DUP1 SLOAD PUSH2 0x75E SWAP1 PUSH2 0x186D JUMP JUMPDEST DUP1 PUSH1 0x1F ADD PUSH1 0x20 DUP1 SWAP2 DIV MUL PUSH1 0x20 ADD PUSH1 0x40 MLOAD SWAP1 DUP2 ADD PUSH1 0x40 MSTORE DUP1 SWAP3 SWAP2 SWAP1 DUP2 DUP2 MSTORE PUSH1 0x20 ADD DUP3 DUP1 SLOAD PUSH2 0x78A SWAP1 PUSH2 0x186D JUMP JUMPDEST DUP1 ISZERO PUSH2 0x7D7 JUMPI DUP1 PUSH1 0x1F LT PUSH2 0x7AC JUMPI PUSH2 0x100 DUP1 DUP4 SLOAD DIV MUL DUP4 MSTORE SWAP2 PUSH1 0x20 ADD SWAP2 PUSH2 0x7D7 JUMP JUMPDEST DUP3 ADD SWAP2 SWAP1 PUSH1 0x0 MSTORE PUSH1 0x20 PUSH1 0x0 KECCAK256 SWAP1 JUMPDEST DUP2 SLOAD DUP2 MSTORE SWAP1 PUSH1 0x1 ADD SWAP1 PUSH1 0x20 ADD DUP1 DUP4 GT PUSH2 0x7BA JUMPI DUP3 SWAP1 SUB PUSH1 0x1F AND DUP3 ADD SWAP2 JUMPDEST POP POP POP POP POP SWAP6 POP DUP5 DUP1 SLOAD PUSH2 0x7EA SWAP1 PUSH2 0x186D JUMP JUMPDEST DUP1 PUSH1 0x1F ADD PUSH1 0x20 DUP1 SWAP2 DIV MUL PUSH1 0x20 ADD PUSH1 0x40 MLOAD SWAP1 DUP2 ADD PUSH1 0x40 MSTORE DUP1 SWAP3 SWAP2 SWAP1 DUP2 DUP2 MSTORE PUSH1 0x20 ADD DUP3 DUP1 SLOAD PUSH2 0x816 SWAP1 PUSH2 0x186D JUMP JUMPDEST DUP1 ISZERO PUSH2 0x863 JUMPI DUP1 PUSH1 0x1F LT PUSH2 0x838 JUMPI PUSH2 0x100 DUP1 DUP4 SLOAD DIV MUL DUP4 MSTORE SWAP2 PUSH1 0x20 ADD SWAP2 PUSH2 0x863 JUMP JUMPDEST DUP3 ADD SWAP2 SWAP1 PUSH1 0x0 MSTORE PUSH1 0x20 PUSH1 0x0 KECCAK256 SWAP1 JUMPDEST DUP2 SLOAD DUP2 MSTORE SWAP1 PUSH1 0x1 ADD SWAP1 PUSH1 0x20 ADD DUP1 DUP4 GT PUSH2 0x846 JUMPI DUP3 SWAP1 SUB PUSH1 0x1F AND DUP3 ADD SWAP2 JUMPDEST POP POP POP POP POP SWAP5 POP DUP3 DUP1 SLOAD PUSH2 0x876 SWAP1 PUSH2 0x186D JUMP JUMPDEST DUP1 PUSH1 0x1F ADD PUSH1 0x20 DUP1 SWAP2 DIV MUL PUSH1 0x20 ADD PUSH1 0x40 MLOAD SWAP1 DUP2 ADD PUSH1 0x40 MSTORE DUP1 SWAP3 SWAP2 SWAP1 DUP2 DUP2 MSTORE PUSH1 0x20 ADD DUP3 DUP1 SLOAD PUSH2 0x8A2 SWAP1 PUSH2 0x186D JUMP JUMPDEST DUP1 ISZERO PUSH2 0x8EF JUMPI DUP1 PUSH1 0x1F LT PUSH2 0x8C4 JUMPI PUSH2 0x100 DUP1 DUP4 SLOAD DIV MUL DUP4 MSTORE SWAP2 PUSH1 0x20 ADD SWAP2 PUSH2 0x8EF JUMP JUMPDEST DUP3 ADD SWAP2 SWAP1 PUSH1 0x0 MSTORE PUSH1 0x20 PUSH1 0x0 KECCAK256 SWAP1 JUMPDEST DUP2 SLOAD DUP2 MSTORE SWAP1 PUSH1 0x1 ADD SWAP1 PUSH1 0x20 ADD DUP1 DUP4 GT PUSH2 0x8D2 JUMPI DUP3 SWAP1 SUB PUSH1 0x1F AND DUP3 ADD SWAP2 JUMPDEST POP POP POP POP POP SWAP3 POP DUP2 DUP1 SLOAD PUSH2 0x902 SWAP1 PUSH2 0x186D JUMP JUMPDEST DUP1 PUSH1 0x1F ADD PUSH1 0x20 DUP1 SWAP2 DIV MUL PUSH1 0x20 ADD PUSH1 0x40 MLOAD SWAP1 DUP2 ADD PUSH1 0x40 MSTORE DUP1 SWAP3 SWAP2 SWAP1 DUP2 DUP2 MSTORE PUSH1 0x20 ADD DUP3 DUP1 SLOAD PUSH2 0x92E SWAP1 PUSH2 0x186D JUMP JUMPDEST DUP1 ISZERO PUSH2 0x97B JUMPI DUP1 PUSH1 0x1F LT PUSH2 0x950 JUMPI PUSH2 0x100 DUP1 DUP4 SLOAD DIV MUL DUP4 MSTORE SWAP2 PUSH1 0x20 ADD SWAP2 PUSH2 0x97B JUMP JUMPDEST DUP3 ADD SWAP2 SWAP1 PUSH1 0x0 MSTORE PUSH1 0x20 PUSH1 0x0 KECCAK256 SWAP1 JUMPDEST DUP2 SLOAD DUP2 MSTORE SWAP1 PUSH1 0x1 ADD SWAP1 PUSH1 0x20 ADD DUP1 DUP4 GT PUSH2 0x95E JUMPI DUP3 SWAP1 SUB PUSH1 0x1F AND DUP3 ADD SWAP2 JUMPDEST POP POP POP POP POP SWAP2 POP DUP1 DUP1 SLOAD PUSH2 0x98E SWAP1 PUSH2 0x186D JUMP JUMPDEST DUP1 PUSH1 0x1F ADD PUSH1 0x20 DUP1 SWAP2 DIV MUL PUSH1 0x20 ADD PUSH1 0x40 MLOAD SWAP1 DUP2 ADD PUSH1 0x40 MSTORE DUP1 SWAP3 SWAP2 SWAP1 DUP2 DUP2 MSTORE PUSH1 0x20 ADD DUP3 DUP1 SLOAD PUSH2 0x9BA SWAP1 PUSH2 0x186D JUMP JUMPDEST DUP1 ISZERO PUSH2 0xA07 JUMPI DUP1 PUSH1 0x1F LT PUSH2 0x9DC JUMPI PUSH2 0x100 DUP1 DUP4 SLOAD DIV MUL DUP4 MSTORE SWAP2 PUSH1 0x20 ADD SWAP2 PUSH2 0xA07 JUMP JUMPDEST DUP3 ADD SWAP2 SWAP1 PUSH1 0x0 MSTORE PUSH1 0x20 PUSH1 0x0 KECCAK256 SWAP1 JUMPDEST DUP2 SLOAD DUP2 MSTORE SWAP1 PUSH1 0x1 ADD SWAP1 PUSH1 0x20 ADD DUP1 DUP4 GT PUSH2 0x9EA JUMPI DUP3 SWAP1 SUB PUSH1 0x1F AND DUP3 ADD SWAP2 JUMPDEST POP POP POP POP POP SWAP1 POP SWAP7 POP SWAP7 POP SWAP7 POP SWAP7 POP SWAP7 POP SWAP7 POP POP PUSH2 0xA95 JUMP JUMPDEST DUP1 DUP1 PUSH2 0xA2B SWAP1 PUSH2 0x18D0 JUMP JUMPDEST SWAP2 POP POP PUSH2 0x5ED JUMP JUMPDEST POP PUSH1 0x0 PUSH1 0x40 MLOAD DUP1 PUSH1 0x20 ADD PUSH1 0x40 MSTORE DUP1 PUSH1 0x0 DUP2 MSTORE POP SWAP1 PUSH1 0x40 MLOAD DUP1 PUSH1 0x20 ADD PUSH1 0x40 MSTORE DUP1 PUSH1 0x0 DUP2 MSTORE POP SWAP1 PUSH1 0x40 MLOAD DUP1 PUSH1 0x20 ADD PUSH1 0x40 MSTORE DUP1 PUSH1 0x0 DUP2 MSTORE POP PUSH1 0x40 MLOAD DUP1 PUSH1 0x20 ADD PUSH1 0x40 MSTORE DUP1 PUSH1 0x0 DUP2 MSTORE POP PUSH1 0x40 MLOAD DUP1 PUSH1 0x20 ADD PUSH1 0x40 MSTORE DUP1 PUSH1 0x0 DUP2 MSTORE POP SWAP6 POP SWAP6 POP SWAP6 POP SWAP6 POP SWAP6 POP SWAP6 POP JUMPDEST SWAP2 SWAP4 SWAP6 POP SWAP2 SWAP4 SWAP6 JUMP JUMPDEST PUSH1 0x0 JUMPDEST PUSH1 0x0 DUP1 SLOAD SWAP1 POP DUP2 LT ISZERO PUSH2 0xC8B JUMPI DUP8 PUSH20 0xFFFFFFFFFFFFFFFFFFFFFFFFFFFFFFFFFFFFFFFF AND PUSH1 0x0 DUP3 DUP2 SLOAD DUP2 LT PUSH2 0xAD9 JUMPI PUSH2 0xAD8 PUSH2 0x1977 JUMP JUMPDEST JUMPDEST SWAP1 PUSH1 0x0 MSTORE PUSH1 0x20 PUSH1 0x0 KECCAK256 SWAP1 PUSH1 0x7 MUL ADD PUSH1 0x6 ADD PUSH1 0x0 SWAP1 SLOAD SWAP1 PUSH2 0x100 EXP SWAP1 DIV PUSH20 0xFFFFFFFFFFFFFFFFFFFFFFFFFFFFFFFFFFFFFFFF AND PUSH20 0xFFFFFFFFFFFFFFFFFFFFFFFFFFFFFFFFFFFFFFFF AND EQ ISZERO PUSH2 0xC78 JUMPI DUP7 PUSH1 0x0 DUP3 DUP2 SLOAD DUP2 LT PUSH2 0xB3C JUMPI PUSH2 0xB3B PUSH2 0x1977 JUMP JUMPDEST JUMPDEST SWAP1 PUSH1 0x0 MSTORE PUSH1 0x20 PUSH1 0x0 KECCAK256 SWAP1 PUSH1 0x7 MUL ADD PUSH1 0x0 ADD SWAP1 DUP1 MLOAD SWAP1 PUSH1 0x20 ADD SWAP1 PUSH2 0xB60 SWAP3 SWAP2 SWAP1 PUSH2 0x102E JUMP JUMPDEST POP DUP6 PUSH1 0x0 DUP3 DUP2 SLOAD DUP2 LT PUSH2 0xB76 JUMPI PUSH2 0xB75 PUSH2 0x1977 JUMP JUMPDEST JUMPDEST SWAP1 PUSH1 0x0 MSTORE PUSH1 0x20 PUSH1 0x0 KECCAK256 SWAP1 PUSH1 0x7 MUL ADD PUSH1 0x1 ADD SWAP1 DUP1 MLOAD SWAP1 PUSH1 0x20 ADD SWAP1 PUSH2 0xB9A SWAP3 SWAP2 SWAP1 PUSH2 0x102E JUMP JUMPDEST POP DUP5 PUSH1 0x0 DUP3 DUP2 SLOAD DUP2 LT PUSH2 0xBB0 JUMPI PUSH2 0xBAF PUSH2 0x1977 JUMP JUMPDEST JUMPDEST SWAP1 PUSH1 0x0 MSTORE PUSH1 0x20 PUSH1 0x0 KECCAK256 SWAP1 PUSH1 0x7 MUL ADD PUSH1 0x2 ADD DUP2 SWAP1 SSTORE POP DUP4 PUSH1 0x0 DUP3 DUP2 SLOAD DUP2 LT PUSH2 0xBDA JUMPI PUSH2 0xBD9 PUSH2 0x1977 JUMP JUMPDEST JUMPDEST SWAP1 PUSH1 0x0 MSTORE PUSH1 0x20 PUSH1 0x0 KECCAK256 SWAP1 PUSH1 0x7 MUL ADD PUSH1 0x3 ADD SWAP1 DUP1 MLOAD SWAP1 PUSH1 0x20 ADD SWAP1 PUSH2 0xBFE SWAP3 SWAP2 SWAP1 PUSH2 0x102E JUMP JUMPDEST POP DUP3 PUSH1 0x0 DUP3 DUP2 SLOAD DUP2 LT PUSH2 0xC14 JUMPI PUSH2 0xC13 PUSH2 0x1977 JUMP JUMPDEST JUMPDEST SWAP1 PUSH1 0x0 MSTORE PUSH1 0x20 PUSH1 0x0 KECCAK256 SWAP1 PUSH1 0x7 MUL ADD PUSH1 0x4 ADD SWAP1 DUP1 MLOAD SWAP1 PUSH1 0x20 ADD SWAP1 PUSH2 0xC38 SWAP3 SWAP2 SWAP1 PUSH2 0x102E JUMP JUMPDEST POP DUP2 PUSH1 0x0 DUP3 DUP2 SLOAD DUP2 LT PUSH2 0xC4E JUMPI PUSH2 0xC4D PUSH2 0x1977 JUMP JUMPDEST JUMPDEST SWAP1 PUSH1 0x0 MSTORE PUSH1 0x20 PUSH1 0x0 KECCAK256 SWAP1 PUSH1 0x7 MUL ADD PUSH1 0x5 ADD SWAP1 DUP1 MLOAD SWAP1 PUSH1 0x20 ADD SWAP1 PUSH2 0xC72 SWAP3 SWAP2 SWAP1 PUSH2 0x102E JUMP JUMPDEST POP PUSH2 0xC8B JUMP JUMPDEST DUP1 DUP1 PUSH2 0xC83 SWAP1 PUSH2 0x18D0 JUMP JUMPDEST SWAP2 POP POP PUSH2 0xAA1 JUMP JUMPDEST POP POP POP POP POP POP POP POP JUMP JUMPDEST PUSH1 0x60 PUSH1 0x0 DUP1 SLOAD DUP1 PUSH1 0x20 MUL PUSH1 0x20 ADD PUSH1 0x40 MLOAD SWAP1 DUP2 ADD PUSH1 0x40 MSTORE DUP1 SWAP3 SWAP2 SWAP1 DUP2 DUP2 MSTORE PUSH1 0x20 ADD PUSH1 0x0 SWAP1 JUMPDEST DUP3 DUP3 LT ISZERO PUSH2 0x1025 JUMPI DUP4 DUP3 SWAP1 PUSH1 0x0 MSTORE PUSH1 0x20 PUSH1 0x0 KECCAK256 SWAP1 PUSH1 0x7 MUL ADD PUSH1 0x40 MLOAD DUP1 PUSH1 0xE0 ADD PUSH1 0x40 MSTORE SWAP1 DUP2 PUSH1 0x0 DUP3 ADD DUP1 SLOAD PUSH2 0xCEC SWAP1 PUSH2 0x186D JUMP JUMPDEST DUP1 PUSH1 0x1F ADD PUSH1 0x20 DUP1 SWAP2 DIV MUL PUSH1 0x20 ADD PUSH1 0x40 MLOAD SWAP1 DUP2 ADD PUSH1 0x40 MSTORE DUP1 SWAP3 SWAP2 SWAP1 DUP2 DUP2 MSTORE PUSH1 0x20 ADD DUP3 DUP1 SLOAD PUSH2 0xD18 SWAP1 PUSH2 0x186D JUMP JUMPDEST DUP1 ISZERO PUSH2 0xD65 JUMPI DUP1 PUSH1 0x1F LT PUSH2 0xD3A JUMPI PUSH2 0x100 DUP1 DUP4 SLOAD DIV MUL DUP4 MSTORE SWAP2 PUSH1 0x20 ADD SWAP2 PUSH2 0xD65 JUMP JUMPDEST DUP3 ADD SWAP2 SWAP1 PUSH1 0x0 MSTORE PUSH1 0x20 PUSH1 0x0 KECCAK256 SWAP1 JUMPDEST DUP2 SLOAD DUP2 MSTORE SWAP1 PUSH1 0x1 ADD SWAP1 PUSH1 0x20 ADD DUP1 DUP4 GT PUSH2 0xD48 JUMPI DUP3 SWAP1 SUB PUSH1 0x1F AND DUP3 ADD SWAP2 JUMPDEST POP POP POP POP POP DUP2 MSTORE PUSH1 0x20 ADD PUSH1 0x1 DUP3 ADD DUP1 SLOAD PUSH2 0xD7E SWAP1 PUSH2 0x186D JUMP JUMPDEST DUP1 PUSH1 0x1F ADD PUSH1 0x20 DUP1 SWAP2 DIV MUL PUSH1 0x20 ADD PUSH1 0x40 MLOAD SWAP1 DUP2 ADD PUSH1 0x40 MSTORE DUP1 SWAP3 SWAP2 SWAP1 DUP2 DUP2 MSTORE PUSH1 0x20 ADD DUP3 DUP1 SLOAD PUSH2 0xDAA SWAP1 PUSH2 0x186D JUMP JUMPDEST DUP1 ISZERO PUSH2 0xDF7 JUMPI DUP1 PUSH1 0x1F LT PUSH2 0xDCC JUMPI PUSH2 0x100 DUP1 DUP4 SLOAD DIV MUL DUP4 MSTORE SWAP2 PUSH1 0x20 ADD SWAP2 PUSH2 0xDF7 JUMP JUMPDEST DUP3 ADD SWAP2 SWAP1 PUSH1 0x0 MSTORE PUSH1 0x20 PUSH1 0x0 KECCAK256 SWAP1 JUMPDEST DUP2 SLOAD DUP2 MSTORE SWAP1 PUSH1 0x1 ADD SWAP1 PUSH1 0x20 ADD DUP1 DUP4 GT PUSH2 0xDDA JUMPI DUP3 SWAP1 SUB PUSH1 0x1F AND DUP3 ADD SWAP2 JUMPDEST POP POP POP POP POP DUP2 MSTORE PUSH1 0x20 ADD PUSH1 0x2 DUP3 ADD SLOAD DUP2 MSTORE PUSH1 0x20 ADD PUSH1 0x3 DUP3 ADD DUP1 SLOAD PUSH2 0xE1A SWAP1 PUSH2 0x186D JUMP JUMPDEST DUP1 PUSH1 0x1F ADD PUSH1 0x20 DUP1 SWAP2 DIV MUL PUSH1 0x20 ADD PUSH1 0x40 MLOAD SWAP1 DUP2 ADD PUSH1 0x40 MSTORE DUP1 SWAP3 SWAP2 SWAP1 DUP2 DUP2 MSTORE PUSH1 0x20 ADD DUP3 DUP1 SLOAD PUSH2 0xE46 SWAP1 PUSH2 0x186D JUMP JUMPDEST DUP1 ISZERO PUSH2 0xE93 JUMPI DUP1 PUSH1 0x1F LT PUSH2 0xE68 JUMPI PUSH2 0x100 DUP1 DUP4 SLOAD DIV MUL DUP4 MSTORE SWAP2 PUSH1 0x20 ADD SWAP2 PUSH2 0xE93 JUMP JUMPDEST DUP3 ADD SWAP2 SWAP1 PUSH1 0x0 MSTORE PUSH1 0x20 PUSH1 0x0 KECCAK256 SWAP1 JUMPDEST DUP2 SLOAD DUP2 MSTORE SWAP1 PUSH1 0x1 ADD SWAP1 PUSH1 0x20 ADD DUP1 DUP4 GT PUSH2 0xE76 JUMPI DUP3 SWAP1 SUB PUSH1 0x1F AND DUP3 ADD SWAP2 JUMPDEST POP POP POP POP POP DUP2 MSTORE PUSH1 0x20 ADD PUSH1 0x4 DUP3 ADD DUP1 SLOAD PUSH2 0xEAC SWAP1 PUSH2 0x186D JUMP JUMPDEST DUP1 PUSH1 0x1F ADD PUSH1 0x20 DUP1 SWAP2 DIV MUL PUSH1 0x20 ADD PUSH1 0x40 MLOAD SWAP1 DUP2 ADD PUSH1 0x40 MSTORE DUP1 SWAP3 SWAP2 SWAP1 DUP2 DUP2 MSTORE PUSH1 0x20 ADD DUP3 DUP1 SLOAD PUSH2 0xED8 SWAP1 PUSH2 0x186D JUMP JUMPDEST DUP1 ISZERO PUSH2 0xF25 JUMPI DUP1 PUSH1 0x1F LT PUSH2 0xEFA JUMPI PUSH2 0x100 DUP1 DUP4 SLOAD DIV MUL DUP4 MSTORE SWAP2 PUSH1 0x20 ADD SWAP2 PUSH2 0xF25 JUMP JUMPDEST DUP3 ADD SWAP2 SWAP1 PUSH1 0x0 MSTORE PUSH1 0x20 PUSH1 0x0 KECCAK256 SWAP1 JUMPDEST DUP2 SLOAD DUP2 MSTORE SWAP1 PUSH1 0x1 ADD SWAP1 PUSH1 0x20 ADD DUP1 DUP4 GT PUSH2 0xF08 JUMPI DUP3 SWAP1 SUB PUSH1 0x1F AND DUP3 ADD SWAP2 JUMPDEST POP POP POP POP POP DUP2 MSTORE PUSH1 0x20 ADD PUSH1 0x5 DUP3 ADD DUP1 SLOAD PUSH2 0xF3E SWAP1 PUSH2 0x186D JUMP JUMPDEST DUP1 PUSH1 0x1F ADD PUSH1 0x20 DUP1 SWAP2 DIV MUL PUSH1 0x20 ADD PUSH1 0x40 MLOAD SWAP1 DUP2 ADD PUSH1 0x40 MSTORE DUP1 SWAP3 SWAP2 SWAP1 DUP2 DUP2 MSTORE PUSH1 0x20 ADD DUP3 DUP1 SLOAD PUSH2 0xF6A SWAP1 PUSH2 0x186D JUMP JUMPDEST DUP1 ISZERO PUSH2 0xFB7 JUMPI DUP1 PUSH1 0x1F LT PUSH2 0xF8C JUMPI PUSH2 0x100 DUP1 DUP4 SLOAD DIV MUL DUP4 MSTORE SWAP2 PUSH1 0x20 ADD SWAP2 PUSH2 0xFB7 JUMP JUMPDEST DUP3 ADD SWAP2 SWAP1 PUSH1 0x0 MSTORE PUSH1 0x20 PUSH1 0x0 KECCAK256 SWAP1 JUMPDEST DUP2 SLOAD DUP2 MSTORE SWAP1 PUSH1 0x1 ADD SWAP1 PUSH1 0x20 ADD DUP1 DUP4 GT PUSH2 0xF9A JUMPI DUP3 SWAP1 SUB PUSH1 0x1F AND DUP3 ADD SWAP2 JUMPDEST POP POP POP POP POP DUP2 MSTORE PUSH1 0x20 ADD PUSH1 0x6 DUP3 ADD PUSH1 0x0 SWAP1 SLOAD SWAP1 PUSH2 0x100 EXP SWAP1 DIV PUSH20 0xFFFFFFFFFFFFFFFFFFFFFFFFFFFFFFFFFFFFFFFF AND PUSH20 0xFFFFFFFFFFFFFFFFFFFFFFFFFFFFFFFFFFFFFFFF AND PUSH20 0xFFFFFFFFFFFFFFFFFFFFFFFFFFFFFFFFFFFFFFFF AND DUP2 MSTORE POP POP DUP2 MSTORE PUSH1 0x20 ADD SWAP1 PUSH1 0x1 ADD SWAP1 PUSH2 0xCB9 JUMP JUMPDEST POP POP POP POP SWAP1 POP SWAP1 JUMP JUMPDEST DUP3 DUP1 SLOAD PUSH2 0x103A SWAP1 PUSH2 0x186D JUMP JUMPDEST SWAP1 PUSH1 0x0 MSTORE PUSH1 0x20 PUSH1 0x0 KECCAK256 SWAP1 PUSH1 0x1F ADD PUSH1 0x20 SWAP1 DIV DUP2 ADD SWAP3 DUP3 PUSH2 0x105C JUMPI PUSH1 0x0 DUP6 SSTORE PUSH2 0x10A3 JUMP JUMPDEST DUP3 PUSH1 0x1F LT PUSH2 0x1075 JUMPI DUP1 MLOAD PUSH1 0xFF NOT AND DUP4 DUP1 ADD OR DUP6 SSTORE PUSH2 0x10A3 JUMP JUMPDEST DUP3 DUP1 ADD PUSH1 0x1 ADD DUP6 SSTORE DUP3 ISZERO PUSH2 0x10A3 JUMPI SWAP2 DUP3 ADD JUMPDEST DUP3 DUP2 GT ISZERO PUSH2 0x10A2 JUMPI DUP3 MLOAD DUP3 SSTORE SWAP2 PUSH1 0x20 ADD SWAP2 SWAP1 PUSH1 0x1 ADD SWAP1 PUSH2 0x1087 JUMP JUMPDEST JUMPDEST POP SWAP1 POP PUSH2 0x10B0 SWAP2 SWAP1 PUSH2 0x10B4 JUMP JUMPDEST POP SWAP1 JUMP JUMPDEST JUMPDEST DUP1 DUP3 GT ISZERO PUSH2 0x10CD JUMPI PUSH1 0x0 DUP2 PUSH1 0x0 SWAP1 SSTORE POP PUSH1 0x1 ADD PUSH2 0x10B5 JUMP JUMPDEST POP SWAP1 JUMP JUMPDEST PUSH1 0x0 PUSH2 0x10E4 PUSH2 0x10DF DUP5 PUSH2 0x1758 JUMP JUMPDEST PUSH2 0x1733 JUMP JUMPDEST SWAP1 POP DUP3 DUP2 MSTORE PUSH1 0x20 DUP2 ADD DUP5 DUP5 DUP5 ADD GT ISZERO PUSH2 0x1100 JUMPI PUSH2 0x10FF PUSH2 0x19DA JUMP JUMPDEST JUMPDEST PUSH2 0x110B DUP5 DUP3 DUP6 PUSH2 0x182B JUMP JUMPDEST POP SWAP4 SWAP3 POP POP POP JUMP JUMPDEST PUSH1 0x0 DUP2 CALLDATALOAD SWAP1 POP PUSH2 0x1122 DUP2 PUSH2 0x19FA JUMP JUMPDEST SWAP3 SWAP2 POP POP JUMP JUMPDEST PUSH1 0x0 DUP3 PUSH1 0x1F DUP4 ADD SLT PUSH2 0x113D JUMPI PUSH2 0x113C PUSH2 0x19D5 JUMP JUMPDEST JUMPDEST DUP2 CALLDATALOAD PUSH2 0x114D DUP5 DUP3 PUSH1 0x20 DUP7 ADD PUSH2 0x10D1 JUMP JUMPDEST SWAP2 POP POP SWAP3 SWAP2 POP POP JUMP JUMPDEST PUSH1 0x0 DUP2 CALLDATALOAD SWAP1 POP PUSH2 0x1165 DUP2 PUSH2 0x1A11 JUMP JUMPDEST SWAP3 SWAP2 POP POP JUMP JUMPDEST PUSH1 0x0 PUSH1 0x20 DUP3 DUP5 SUB SLT ISZERO PUSH2 0x1181 JUMPI PUSH2 0x1180 PUSH2 0x19E4 JUMP JUMPDEST JUMPDEST PUSH1 0x0 PUSH2 0x118F DUP5 DUP3 DUP6 ADD PUSH2 0x1113 JUMP JUMPDEST SWAP2 POP POP SWAP3 SWAP2 POP POP JUMP JUMPDEST PUSH1 0x0 DUP1 PUSH1 0x0 DUP1 PUSH1 0x0 DUP1 PUSH1 0x0 PUSH1 0xE0 DUP9 DUP11 SUB SLT ISZERO PUSH2 0x11B7 JUMPI PUSH2 0x11B6 PUSH2 0x19E4 JUMP JUMPDEST JUMPDEST PUSH1 0x0 PUSH2 0x11C5 DUP11 DUP3 DUP12 ADD PUSH2 0x1113 JUMP JUMPDEST SWAP8 POP POP PUSH1 0x20 DUP9 ADD CALLDATALOAD PUSH8 0xFFFFFFFFFFFFFFFF DUP2 GT ISZERO PUSH2 0x11E6 JUMPI PUSH2 0x11E5 PUSH2 0x19DF JUMP JUMPDEST JUMPDEST PUSH2 0x11F2 DUP11 DUP3 DUP12 ADD PUSH2 0x1128 JUMP JUMPDEST SWAP7 POP POP PUSH1 0x40 DUP9 ADD CALLDATALOAD PUSH8 0xFFFFFFFFFFFFFFFF DUP2 GT ISZERO PUSH2 0x1213 JUMPI PUSH2 0x1212 PUSH2 0x19DF JUMP JUMPDEST JUMPDEST PUSH2 0x121F DUP11 DUP3 DUP12 ADD PUSH2 0x1128 JUMP JUMPDEST SWAP6 POP POP PUSH1 0x60 PUSH2 0x1230 DUP11 DUP3 DUP12 ADD PUSH2 0x1156 JUMP JUMPDEST SWAP5 POP POP PUSH1 0x80 DUP9 ADD CALLDATALOAD PUSH8 0xFFFFFFFFFFFFFFFF DUP2 GT ISZERO PUSH2 0x1251 JUMPI PUSH2 0x1250 PUSH2 0x19DF JUMP JUMPDEST JUMPDEST PUSH2 0x125D DUP11 DUP3 DUP12 ADD PUSH2 0x1128 JUMP JUMPDEST SWAP4 POP POP PUSH1 0xA0 DUP9 ADD CALLDATALOAD PUSH8 0xFFFFFFFFFFFFFFFF DUP2 GT ISZERO PUSH2 0x127E JUMPI PUSH2 0x127D PUSH2 0x19DF JUMP JUMPDEST JUMPDEST PUSH2 0x128A DUP11 DUP3 DUP12 ADD PUSH2 0x1128 JUMP JUMPDEST SWAP3 POP POP PUSH1 0xC0 DUP9 ADD CALLDATALOAD PUSH8 0xFFFFFFFFFFFFFFFF DUP2 GT ISZERO PUSH2 0x12AB JUMPI PUSH2 0x12AA PUSH2 0x19DF JUMP JUMPDEST JUMPDEST PUSH2 0x12B7 DUP11 DUP3 DUP12 ADD PUSH2 0x1128 JUMP JUMPDEST SWAP2 POP POP SWAP3 SWAP6 SWAP9 SWAP2 SWAP5 SWAP8 POP SWAP3 SWAP6 POP JUMP JUMPDEST PUSH1 0x0 DUP1 PUSH1 0x0 DUP1 PUSH1 0x0 DUP1 PUSH1 0xC0 DUP8 DUP10 SUB SLT ISZERO PUSH2 0x12E3 JUMPI PUSH2 0x12E2 PUSH2 0x19E4 JUMP JUMPDEST JUMPDEST PUSH1 0x0 DUP8 ADD CALLDATALOAD PUSH8 0xFFFFFFFFFFFFFFFF DUP2 GT ISZERO PUSH2 0x1301 JUMPI PUSH2 0x1300 PUSH2 0x19DF JUMP JUMPDEST JUMPDEST PUSH2 0x130D DUP10 DUP3 DUP11 ADD PUSH2 0x1128 JUMP JUMPDEST SWAP7 POP POP PUSH1 0x20 DUP8 ADD CALLDATALOAD PUSH8 0xFFFFFFFFFFFFFFFF DUP2 GT ISZERO PUSH2 0x132E JUMPI PUSH2 0x132D PUSH2 0x19DF JUMP JUMPDEST JUMPDEST PUSH2 0x133A DUP10 DUP3 DUP11 ADD PUSH2 0x1128 JUMP JUMPDEST SWAP6 POP POP PUSH1 0x40 PUSH2 0x134B DUP10 DUP3 DUP11 ADD PUSH2 0x1156 JUMP JUMPDEST SWAP5 POP POP PUSH1 0x60 DUP8 ADD CALLDATALOAD PUSH8 0xFFFFFFFFFFFFFFFF DUP2 GT ISZERO PUSH2 0x136C JUMPI PUSH2 0x136B PUSH2 0x19DF JUMP JUMPDEST JUMPDEST PUSH2 0x1378 DUP10 DUP3 DUP11 ADD PUSH2 0x1128 JUMP JUMPDEST SWAP4 POP POP PUSH1 0x80 DUP8 ADD CALLDATALOAD PUSH8 0xFFFFFFFFFFFFFFFF DUP2 GT ISZERO PUSH2 0x1399 JUMPI PUSH2 0x1398 PUSH2 0x19DF JUMP JUMPDEST JUMPDEST PUSH2 0x13A5 DUP10 DUP3 DUP11 ADD PUSH2 0x1128 JUMP JUMPDEST SWAP3 POP POP PUSH1 0xA0 DUP8 ADD CALLDATALOAD PUSH8 0xFFFFFFFFFFFFFFFF DUP2 GT ISZERO PUSH2 0x13C6 JUMPI PUSH2 0x13C5 PUSH2 0x19DF JUMP JUMPDEST JUMPDEST PUSH2 0x13D2 DUP10 DUP3 DUP11 ADD PUSH2 0x1128 JUMP JUMPDEST SWAP2 POP POP SWAP3 SWAP6 POP SWAP3 SWAP6 POP SWAP3 SWAP6 JUMP JUMPDEST PUSH1 0x0 PUSH1 0x20 DUP3 DUP5 SUB SLT ISZERO PUSH2 0x13F5 JUMPI PUSH2 0x13F4 PUSH2 0x19E4 JUMP JUMPDEST JUMPDEST PUSH1 0x0 PUSH2 0x1403 DUP5 DUP3 DUP6 ADD PUSH2 0x1156 JUMP JUMPDEST SWAP2 POP POP SWAP3 SWAP2 POP POP JUMP JUMPDEST PUSH1 0x0 PUSH2 0x1418 DUP4 DUP4 PUSH2 0x1525 JUMP JUMPDEST SWAP1 POP SWAP3 SWAP2 POP POP JUMP JUMPDEST PUSH2 0x1429 DUP2 PUSH2 0x17EF JUMP JUMPDEST DUP3 MSTORE POP POP JUMP JUMPDEST PUSH2 0x1438 DUP2 PUSH2 0x17EF JUMP JUMPDEST DUP3 MSTORE POP POP JUMP JUMPDEST PUSH1 0x0 PUSH2 0x1449 DUP3 PUSH2 0x1799 JUMP JUMPDEST PUSH2 0x1453 DUP2 DUP6 PUSH2 0x17BC JUMP JUMPDEST SWAP4 POP DUP4 PUSH1 0x20 DUP3 MUL DUP6 ADD PUSH2 0x1465 DUP6 PUSH2 0x1789 JUMP JUMPDEST DUP1 PUSH1 0x0 JUMPDEST DUP6 DUP2 LT ISZERO PUSH2 0x14A1 JUMPI DUP5 DUP5 SUB DUP10 MSTORE DUP2 MLOAD PUSH2 0x1482 DUP6 DUP3 PUSH2 0x140C JUMP JUMPDEST SWAP5 POP PUSH2 0x148D DUP4 PUSH2 0x17AF JUMP JUMPDEST SWAP3 POP PUSH1 0x20 DUP11 ADD SWAP10 POP POP PUSH1 0x1 DUP2 ADD SWAP1 POP PUSH2 0x1469 JUMP JUMPDEST POP DUP3 SWAP8 POP DUP8 SWAP6 POP POP POP POP POP POP SWAP3 SWAP2 POP POP JUMP JUMPDEST PUSH1 0x0 PUSH2 0x14BE DUP3 PUSH2 0x17A4 JUMP JUMPDEST PUSH2 0x14C8 DUP2 DUP6 PUSH2 0x17CD JUMP JUMPDEST SWAP4 POP PUSH2 0x14D8 DUP2 DUP6 PUSH1 0x20 DUP7 ADD PUSH2 0x183A JUMP JUMPDEST PUSH2 0x14E1 DUP2 PUSH2 0x19E9 JUMP JUMPDEST DUP5 ADD SWAP2 POP POP SWAP3 SWAP2 POP POP JUMP JUMPDEST PUSH1 0x0 PUSH2 0x14F7 DUP3 PUSH2 0x17A4 JUMP JUMPDEST PUSH2 0x1501 DUP2 DUP6 PUSH2 0x17DE JUMP JUMPDEST SWAP4 POP PUSH2 0x1511 DUP2 DUP6 PUSH1 0x20 DUP7 ADD PUSH2 0x183A JUMP JUMPDEST PUSH2 0x151A DUP2 PUSH2 0x19E9 JUMP JUMPDEST DUP5 ADD SWAP2 POP POP SWAP3 SWAP2 POP POP JUMP JUMPDEST PUSH1 0x0 PUSH1 0xE0 DUP4 ADD PUSH1 0x0 DUP4 ADD MLOAD DUP5 DUP3 SUB PUSH1 0x0 DUP7 ADD MSTORE PUSH2 0x1542 DUP3 DUP3 PUSH2 0x14B3 JUMP JUMPDEST SWAP2 POP POP PUSH1 0x20 DUP4 ADD MLOAD DUP5 DUP3 SUB PUSH1 0x20 DUP7 ADD MSTORE PUSH2 0x155C DUP3 DUP3 PUSH2 0x14B3 JUMP JUMPDEST SWAP2 POP POP PUSH1 0x40 DUP4 ADD MLOAD PUSH2 0x1571 PUSH1 0x40 DUP7 ADD DUP3 PUSH2 0x15DD JUMP JUMPDEST POP PUSH1 0x60 DUP4 ADD MLOAD DUP5 DUP3 SUB PUSH1 0x60 DUP7 ADD MSTORE PUSH2 0x1589 DUP3 DUP3 PUSH2 0x14B3 JUMP JUMPDEST SWAP2 POP POP PUSH1 0x80 DUP4 ADD MLOAD DUP5 DUP3 SUB PUSH1 0x80 DUP7 ADD MSTORE PUSH2 0x15A3 DUP3 DUP3 PUSH2 0x14B3 JUMP JUMPDEST SWAP2 POP POP PUSH1 0xA0 DUP4 ADD MLOAD DUP5 DUP3 SUB PUSH1 0xA0 DUP7 ADD MSTORE PUSH2 0x15BD DUP3 DUP3 PUSH2 0x14B3 JUMP JUMPDEST SWAP2 POP POP PUSH1 0xC0 DUP4 ADD MLOAD PUSH2 0x15D2 PUSH1 0xC0 DUP7 ADD DUP3 PUSH2 0x1420 JUMP JUMPDEST POP DUP1 SWAP2 POP POP SWAP3 SWAP2 POP POP JUMP JUMPDEST PUSH2 0x15E6 DUP2 PUSH2 0x1821 JUMP JUMPDEST DUP3 MSTORE POP POP JUMP JUMPDEST PUSH2 0x15F5 DUP2 PUSH2 0x1821 JUMP JUMPDEST DUP3 MSTORE POP POP JUMP JUMPDEST PUSH1 0x0 PUSH1 0x20 DUP3 ADD SWAP1 POP DUP2 DUP2 SUB PUSH1 0x0 DUP4 ADD MSTORE PUSH2 0x1615 DUP2 DUP5 PUSH2 0x143E JUMP JUMPDEST SWAP1 POP SWAP3 SWAP2 POP POP JUMP JUMPDEST PUSH1 0x0 PUSH1 0xC0 DUP3 ADD SWAP1 POP DUP2 DUP2 SUB PUSH1 0x0 DUP4 ADD MSTORE PUSH2 0x1637 DUP2 DUP10 PUSH2 0x14EC JUMP JUMPDEST SWAP1 POP DUP2 DUP2 SUB PUSH1 0x20 DUP4 ADD MSTORE PUSH2 0x164B DUP2 DUP9 PUSH2 0x14EC JUMP JUMPDEST SWAP1 POP PUSH2 0x165A PUSH1 0x40 DUP4 ADD DUP8 PUSH2 0x15EC JUMP JUMPDEST DUP2 DUP2 SUB PUSH1 0x60 DUP4 ADD MSTORE PUSH2 0x166C DUP2 DUP7 PUSH2 0x14EC JUMP JUMPDEST SWAP1 POP DUP2 DUP2 SUB PUSH1 0x80 DUP4 ADD MSTORE PUSH2 0x1680 DUP2 DUP6 PUSH2 0x14EC JUMP JUMPDEST SWAP1 POP DUP2 DUP2 SUB PUSH1 0xA0 DUP4 ADD MSTORE PUSH2 0x1694 DUP2 DUP5 PUSH2 0x14EC JUMP JUMPDEST SWAP1 POP SWAP8 SWAP7 POP POP POP POP POP POP POP JUMP JUMPDEST PUSH1 0x0 PUSH1 0xE0 DUP3 ADD SWAP1 POP DUP2 DUP2 SUB PUSH1 0x0 DUP4 ADD MSTORE PUSH2 0x16BB DUP2 DUP11 PUSH2 0x14EC JUMP JUMPDEST SWAP1 POP DUP2 DUP2 SUB PUSH1 0x20 DUP4 ADD MSTORE PUSH2 0x16CF DUP2 DUP10 PUSH2 0x14EC JUMP JUMPDEST SWAP1 POP PUSH2 0x16DE PUSH1 0x40 DUP4 ADD DUP9 PUSH2 0x15EC JUMP JUMPDEST DUP2 DUP2 SUB PUSH1 0x60 DUP4 ADD MSTORE PUSH2 0x16F0 DUP2 DUP8 PUSH2 0x14EC JUMP JUMPDEST SWAP1 POP DUP2 DUP2 SUB PUSH1 0x80 DUP4 ADD MSTORE PUSH2 0x1704 DUP2 DUP7 PUSH2 0x14EC JUMP JUMPDEST SWAP1 POP DUP2 DUP2 SUB PUSH1 0xA0 DUP4 ADD MSTORE PUSH2 0x1718 DUP2 DUP6 PUSH2 0x14EC JUMP JUMPDEST SWAP1 POP PUSH2 0x1727 PUSH1 0xC0 DUP4 ADD DUP5 PUSH2 0x142F JUMP JUMPDEST SWAP9 SWAP8 POP POP POP POP POP POP POP POP JUMP JUMPDEST PUSH1 0x0 PUSH2 0x173D PUSH2 0x174E JUMP JUMPDEST SWAP1 POP PUSH2 0x1749 DUP3 DUP3 PUSH2 0x189F JUMP JUMPDEST SWAP2 SWAP1 POP JUMP JUMPDEST PUSH1 0x0 PUSH1 0x40 MLOAD SWAP1 POP SWAP1 JUMP JUMPDEST PUSH1 0x0 PUSH8 0xFFFFFFFFFFFFFFFF DUP3 GT ISZERO PUSH2 0x1773 JUMPI PUSH2 0x1772 PUSH2 0x19A6 JUMP JUMPDEST JUMPDEST PUSH2 0x177C DUP3 PUSH2 0x19E9 JUMP JUMPDEST SWAP1 POP PUSH1 0x20 DUP2 ADD SWAP1 POP SWAP2 SWAP1 POP JUMP JUMPDEST PUSH1 0x0 DUP2 SWAP1 POP PUSH1 0x20 DUP3 ADD SWAP1 POP SWAP2 SWAP1 POP JUMP JUMPDEST PUSH1 0x0 DUP2 MLOAD SWAP1 POP SWAP2 SWAP1 POP JUMP JUMPDEST PUSH1 0x0 DUP2 MLOAD SWAP1 POP SWAP2 SWAP1 POP JUMP JUMPDEST PUSH1 0x0 PUSH1 0x20 DUP3 ADD SWAP1 POP SWAP2 SWAP1 POP JUMP JUMPDEST PUSH1 0x0 DUP3 DUP3 MSTORE PUSH1 0x20 DUP3 ADD SWAP1 POP SWAP3 SWAP2 POP POP JUMP JUMPDEST PUSH1 0x0 DUP3 DUP3 MSTORE PUSH1 0x20 DUP3 ADD SWAP1 POP SWAP3 SWAP2 POP POP JUMP JUMPDEST PUSH1 0x0 DUP3 DUP3 MSTORE PUSH1 0x20 DUP3 ADD SWAP1 POP SWAP3 SWAP2 POP POP JUMP JUMPDEST PUSH1 0x0 PUSH2 0x17FA DUP3 PUSH2 0x1801 JUMP JUMPDEST SWAP1 POP SWAP2 SWAP1 POP JUMP JUMPDEST PUSH1 0x0 PUSH20 0xFFFFFFFFFFFFFFFFFFFFFFFFFFFFFFFFFFFFFFFF DUP3 AND SWAP1 POP SWAP2 SWAP1 POP JUMP JUMPDEST PUSH1 0x0 DUP2 SWAP1 POP SWAP2 SWAP1 POP JUMP JUMPDEST DUP3 DUP2 DUP4 CALLDATACOPY PUSH1 0x0 DUP4 DUP4 ADD MSTORE POP POP POP JUMP JUMPDEST PUSH1 0x0 JUMPDEST DUP4 DUP2 LT ISZERO PUSH2 0x1858 JUMPI DUP1 DUP3 ADD MLOAD DUP2 DUP5 ADD MSTORE PUSH1 0x20 DUP2 ADD SWAP1 POP PUSH2 0x183D JUMP JUMPDEST DUP4 DUP2 GT ISZERO PUSH2 0x1867 JUMPI PUSH1 0x0 DUP5 DUP5 ADD MSTORE JUMPDEST POP POP POP POP JUMP JUMPDEST PUSH1 0x0 PUSH1 0x2 DUP3 DIV SWAP1 POP PUSH1 0x1 DUP3 AND DUP1 PUSH2 0x1885 JUMPI PUSH1 0x7F DUP3 AND SWAP2 POP JUMPDEST PUSH1 0x20 DUP3 LT DUP2 EQ ISZERO PUSH2 0x1899 JUMPI PUSH2 0x1898 PUSH2 0x1948 JUMP JUMPDEST JUMPDEST POP SWAP2 SWAP1 POP JUMP JUMPDEST PUSH2 0x18A8 DUP3 PUSH2 0x19E9 JUMP JUMPDEST DUP2 ADD DUP2 DUP2 LT PUSH8 0xFFFFFFFFFFFFFFFF DUP3 GT OR ISZERO PUSH2 0x18C7 JUMPI PUSH2 0x18C6 PUSH2 0x19A6 JUMP JUMPDEST JUMPDEST DUP1 PUSH1 0x40 MSTORE POP POP POP JUMP JUMPDEST PUSH1 0x0 PUSH2 0x18DB DUP3 PUSH2 0x1821 JUMP JUMPDEST SWAP2 POP PUSH32 0xFFFFFFFFFFFFFFFFFFFFFFFFFFFFFFFFFFFFFFFFFFFFFFFFFFFFFFFFFFFFFFFF DUP3 EQ ISZERO PUSH2 0x190E JUMPI PUSH2 0x190D PUSH2 0x1919 JUMP JUMPDEST JUMPDEST PUSH1 0x1 DUP3 ADD SWAP1 POP SWAP2 SWAP1 POP JUMP JUMPDEST PUSH32 0x4E487B7100000000000000000000000000000000000000000000000000000000 PUSH1 0x0 MSTORE PUSH1 0x11 PUSH1 0x4 MSTORE PUSH1 0x24 PUSH1 0x0 REVERT JUMPDEST PUSH32 0x4E487B7100000000000000000000000000000000000000000000000000000000 PUSH1 0x0 MSTORE PUSH1 0x22 PUSH1 0x4 MSTORE PUSH1 0x24 PUSH1 0x0 REVERT JUMPDEST PUSH32 0x4E487B7100000000000000000000000000000000000000000000000000000000 PUSH1 0x0 MSTORE PUSH1 0x32 PUSH1 0x4 MSTORE PUSH1 0x24 PUSH1 0x0 REVERT JUMPDEST PUSH32 0x4E487B7100000000000000000000000000000000000000000000000000000000 PUSH1 0x0 MSTORE PUSH1 0x41 PUSH1 0x4 MSTORE PUSH1 0x24 PUSH1 0x0 REVERT JUMPDEST PUSH1 0x0 DUP1 REVERT JUMPDEST PUSH1 0x0 DUP1 REVERT JUMPDEST PUSH1 0x0 DUP1 REVERT JUMPDEST PUSH1 0x0 DUP1 REVERT JUMPDEST PUSH1 0x0 PUSH1 0x1F NOT PUSH1 0x1F DUP4 ADD AND SWAP1 POP SWAP2 SWAP1 POP JUMP JUMPDEST PUSH2 0x1A03 DUP2 PUSH2 0x17EF JUMP JUMPDEST DUP2 EQ PUSH2 0x1A0E JUMPI PUSH1 0x0 DUP1 REVERT JUMPDEST POP JUMP JUMPDEST PUSH2 0x1A1A DUP2 PUSH2 0x1821 JUMP JUMPDEST DUP2 EQ PUSH2 0x1A25 JUMPI PUSH1 0x0 DUP1 REVERT JUMPDEST POP JUMP INVALID LOG2 PUSH5 0x6970667358 0x22 SLT KECCAK256 0xA6 0xB9 0xEF 0xD7 0xF9 0xE9 EXTCODECOPY PUSH8 0xCFF1EFA371225D4B JUMPDEST STATICCALL JUMP 0xD7 0x23 0x2F CALLDATACOPY 0x2F BASEFEE 0xF8 0x2A ADD SWAP14 0x2F 0xE2 0xB1 PUSH5 0x736F6C6343 STOP ADDMOD SMOD STOP CALLER "
				},
				"gasEstimates": {
					"creation": {
						"codeDepositCost": "1350000",
						"executionCost": "1403",
						"totalCost": "1351403"
					},
					"external": {
						"addUser(string,string,uint256,string,string,string)": "infinite",
						"getAllUsers()": "infinite",
						"getUserByWallet(address)": "infinite",
						"updateUserByWallet(address,string,string,uint256,string,string,string)": "infinite",
						"users(uint256)": "infinite"
					}
				},
				"methodIdentifiers": {
					"addUser(string,string,uint256,string,string,string)": "21ef1a99",
					"getAllUsers()": "e2842d79",
					"getUserByWallet(address)": "3b0328be",
					"updateUserByWallet(address,string,string,uint256,string,string,string)": "dacfaedb",
					"users(uint256)": "365b98b2"
				}
			},
			"storageLayout": {
				"storage": [
					{
						"astId": 36,
						"contract": "contracts/user.sol:UserData",
						"label": "users",
						"offset": 0,
						"slot": "0",
						"type": "t_array(t_struct(User)16_storage)dyn_storage"
					}
				],
				"types": {
					"t_address": {
						"encoding": "inplace",
						"label": "address",
						"numberOfBytes": "20"
					},
					"t_array(t_struct(User)16_storage)dyn_storage": {
						"base": "t_struct(User)16_storage",
						"encoding": "dynamic_array",
						"label": "struct UserData.User[]",
						"numberOfBytes": "32"
					},
					"t_string_storage": {
						"encoding": "bytes",
						"label": "string",
						"numberOfBytes": "32"
					},
					"t_struct(User)16_storage": {
						"encoding": "inplace",
						"label": "struct UserData.User",
						"members": [
							{
								"astId": 3,
								"contract": "contracts/user.sol:UserData",
								"label": "name",
								"offset": 0,
								"slot": "0",
								"type": "t_string_storage"
							},
							{
								"astId": 5,
								"contract": "contracts/user.sol:UserData",
								"label": "email",
								"offset": 0,
								"slot": "1",
								"type": "t_string_storage"
							},
							{
								"astId": 7,
								"contract": "contracts/user.sol:UserData",
								"label": "phone",
								"offset": 0,
								"slot": "2",
								"type": "t_uint256"
							},
							{
								"astId": 9,
								"contract": "contracts/user.sol:UserData",
								"label": "gender",
								"offset": 0,
								"slot": "3",
								"type": "t_string_storage"
							},
							{
								"astId": 11,
								"contract": "contracts/user.sol:UserData",
								"label": "alamat",
								"offset": 0,
								"slot": "4",
								"type": "t_string_storage"
							},
							{
								"astId": 13,
								"contract": "contracts/user.sol:UserData",
								"label": "birthdate",
								"offset": 0,
								"slot": "5",
								"type": "t_string_storage"
							},
							{
								"astId": 15,
								"contract": "contracts/user.sol:UserData",
								"label": "wallet",
								"offset": 0,
								"slot": "6",
								"type": "t_address"
							}
						],
						"numberOfBytes": "224"
					},
					"t_uint256": {
						"encoding": "inplace",
						"label": "uint256",
						"numberOfBytes": "32"
					}
				}
			},
			"userdoc": {
				"kind": "user",
				"methods": {},
				"version": 1
			}
		}
	}
}