{
	"contracts/consultation.sol": {
		"Consultation": {
			"abi": [
				{
					"inputs": [
						{
							"internalType": "address",
							"name": "_akun",
							"type": "address"
						}
					],
					"name": "ambilDataKonsultasi",
					"outputs": [
						{
							"internalType": "string",
							"name": "",
							"type": "string"
						},
						{
							"internalType": "string",
							"name": "",
							"type": "string"
						},
						{
							"internalType": "string",
							"name": "",
							"type": "string"
						},
						{
							"internalType": "string",
							"name": "",
							"type": "string"
						},
						{
							"internalType": "address",
							"name": "",
							"type": "address"
						}
					],
					"stateMutability": "view",
					"type": "function"
				},
				{
					"inputs": [
						{
							"internalType": "address",
							"name": "_akun",
							"type": "address"
						}
					],
					"name": "ambilDataPasien",
					"outputs": [
						{
							"internalType": "string",
							"name": "",
							"type": "string"
						},
						{
							"internalType": "string",
							"name": "",
							"type": "string"
						},
						{
							"internalType": "string",
							"name": "",
							"type": "string"
						}
					],
					"stateMutability": "view",
					"type": "function"
				},
				{
					"inputs": [
						{
							"internalType": "uint256",
							"name": "_offset",
							"type": "uint256"
						},
						{
							"internalType": "uint256",
							"name": "_jumlah",
							"type": "uint256"
						}
					],
					"name": "ambilSemuaDataKonsultasi",
					"outputs": [
						{
							"components": [
								{
									"internalType": "string",
									"name": "name",
									"type": "string"
								},
								{
									"internalType": "string",
									"name": "phone",
									"type": "string"
								},
								{
									"internalType": "string",
									"name": "doctorName",
									"type": "string"
								},
								{
									"internalType": "string",
									"name": "session",
									"type": "string"
								},
								{
									"internalType": "string",
									"name": "date",
									"type": "string"
								},
								{
									"internalType": "string",
									"name": "symptom",
									"type": "string"
								},
								{
									"internalType": "string",
									"name": "gender",
									"type": "string"
								},
								{
									"internalType": "address",
									"name": "wallet",
									"type": "address"
								}
							],
							"internalType": "struct Consultation.Data[]",
							"name": "",
							"type": "tuple[]"
						}
					],
					"stateMutability": "view",
					"type": "function"
				},
				{
					"inputs": [
						{
							"internalType": "address",
							"name": "_akun",
							"type": "address"
						},
						{
							"internalType": "string",
							"name": "_name",
							"type": "string"
						},
						{
							"internalType": "string",
							"name": "_phone",
							"type": "string"
						},
						{
							"internalType": "string",
							"name": "_doctorName",
							"type": "string"
						},
						{
							"internalType": "string",
							"name": "_session",
							"type": "string"
						},
						{
							"internalType": "string",
							"name": "_date",
							"type": "string"
						},
						{
							"internalType": "string",
							"name": "_gender",
							"type": "string"
						},
						{
							"internalType": "string",
							"name": "_symptom",
							"type": "string"
						},
						{
							"internalType": "address",
							"name": "_wallet",
							"type": "address"
						}
					],
					"name": "tambahData",
					"outputs": [],
					"stateMutability": "nonpayable",
					"type": "function"
				}
			],
			"devdoc": {
				"kind": "dev",
				"methods": {},
				"version": 1
			},
			"evm": {
				"assembly": "    /* \"contracts/consultation.sol\":85:2222  contract Consultation {\r... */\n  mstore(0x40, 0x80)\n  callvalue\n  dup1\n  iszero\n  tag_1\n  jumpi\n  0x00\n  dup1\n  revert\ntag_1:\n  pop\n  dataSize(sub_0)\n  dup1\n  dataOffset(sub_0)\n  0x00\n  codecopy\n  0x00\n  return\nstop\n\nsub_0: assembly {\n        /* \"contracts/consultation.sol\":85:2222  contract Consultation {\r... */\n      mstore(0x40, 0x80)\n      callvalue\n      dup1\n      iszero\n      tag_1\n      jumpi\n      0x00\n      dup1\n      revert\n    tag_1:\n      pop\n      jumpi(tag_2, lt(calldatasize, 0x04))\n      shr(0xe0, calldataload(0x00))\n      dup1\n      0x07cff41c\n      eq\n      tag_3\n      jumpi\n      dup1\n      0x51b9725c\n      eq\n      tag_4\n      jumpi\n      dup1\n      0x634918a9\n      eq\n      tag_5\n      jumpi\n      dup1\n      0x69047b5d\n      eq\n      tag_6\n      jumpi\n    tag_2:\n      0x00\n      dup1\n      revert\n        /* \"contracts/consultation.sol\":1699:2219  function ambilSemuaDataKonsultasi(uint _offset, uint _jumlah) public view returns (Data[] memory) {\r... */\n    tag_3:\n      tag_7\n      0x04\n      dup1\n      calldatasize\n      sub\n      dup2\n      add\n      swap1\n      tag_8\n      swap2\n      swap1\n      tag_9\n      jump\t// in\n    tag_8:\n      tag_10\n      jump\t// in\n    tag_7:\n      mload(0x40)\n      tag_11\n      swap2\n      swap1\n      tag_12\n      jump\t// in\n    tag_11:\n      mload(0x40)\n      dup1\n      swap2\n      sub\n      swap1\n      return\n        /* \"contracts/consultation.sol\":423:1009  function tambahData(\r... */\n    tag_4:\n      tag_13\n      0x04\n      dup1\n      calldatasize\n      sub\n      dup2\n      add\n      swap1\n      tag_14\n      swap2\n      swap1\n      tag_15\n      jump\t// in\n    tag_14:\n      tag_16\n      jump\t// in\n    tag_13:\n      stop\n        /* \"contracts/consultation.sol\":1298:1692  function ambilDataKonsultasi(address _akun) public view returns (string memory, string memory, string memory, string memory, address) {\r... */\n    tag_5:\n      tag_17\n      0x04\n      dup1\n      calldatasize\n      sub\n      dup2\n      add\n      swap1\n      tag_18\n      swap2\n      swap1\n      tag_19\n      jump\t// in\n    tag_18:\n      tag_20\n      jump\t// in\n    tag_17:\n      mload(0x40)\n      tag_21\n      swap6\n      swap5\n      swap4\n      swap3\n      swap2\n      swap1\n      tag_22\n      jump\t// in\n    tag_21:\n      mload(0x40)\n      dup1\n      swap2\n      sub\n      swap1\n      return\n        /* \"contracts/consultation.sol\":1017:1288  function ambilDataPasien(address _akun) public view returns (string memory, string memory, string memory) {\r... */\n    tag_6:\n      tag_23\n      0x04\n      dup1\n      calldatasize\n      sub\n      dup2\n      add\n      swap1\n      tag_24\n      swap2\n      swap1\n      tag_19\n      jump\t// in\n    tag_24:\n      tag_25\n      jump\t// in\n    tag_23:\n      mload(0x40)\n      tag_26\n      swap4\n      swap3\n      swap2\n      swap1\n      tag_27\n      jump\t// in\n    tag_26:\n      mload(0x40)\n      dup1\n      swap2\n      sub\n      swap1\n      return\n        /* \"contracts/consultation.sol\":1699:2219  function ambilSemuaDataKonsultasi(uint _offset, uint _jumlah) public view returns (Data[] memory) {\r... */\n    tag_10:\n        /* \"contracts/consultation.sol\":1782:1795  Data[] memory */\n      0x60\n        /* \"contracts/consultation.sol\":1837:1851  akunKonsultasi */\n      0x00\n        /* \"contracts/consultation.sol\":1837:1858  akunKonsultasi.length */\n      dup1\n      sload\n      swap1\n      pop\n        /* \"contracts/consultation.sol\":1826:1833  _jumlah */\n      dup3\n        /* \"contracts/consultation.sol\":1816:1823  _offset */\n      dup5\n        /* \"contracts/consultation.sol\":1816:1833  _offset + _jumlah */\n      tag_29\n      swap2\n      swap1\n      tag_30\n      jump\t// in\n    tag_29:\n        /* \"contracts/consultation.sol\":1816:1858  _offset + _jumlah <= akunKonsultasi.length */\n      gt\n      iszero\n        /* \"contracts/consultation.sol\":1808:1934  require(_offset + _jumlah <= akunKonsultasi.length, \"Jumlah data yang ingin diambil melebihi jumlah total data yang tersedia\") */\n      tag_31\n      jumpi\n      mload(0x40)\n      0x08c379a000000000000000000000000000000000000000000000000000000000\n      dup2\n      mstore\n      0x04\n      add\n      tag_32\n      swap1\n      tag_33\n      jump\t// in\n    tag_32:\n      mload(0x40)\n      dup1\n      swap2\n      sub\n      swap1\n      revert\n    tag_31:\n        /* \"contracts/consultation.sol\":1945:1963  Data[] memory data */\n      0x00\n        /* \"contracts/consultation.sol\":1977:1984  _jumlah */\n      dup3\n        /* \"contracts/consultation.sol\":1966:1985  new Data[](_jumlah) */\n      0xffffffffffffffff\n      dup2\n      gt\n      iszero\n      tag_34\n      jumpi\n      tag_35\n      tag_36\n      jump\t// in\n    tag_35:\n    tag_34:\n      mload(0x40)\n      swap1\n      dup1\n      dup3\n      mstore\n      dup1\n      0x20\n      mul\n      0x20\n      add\n      dup3\n      add\n      0x40\n      mstore\n      dup1\n      iszero\n      tag_37\n      jumpi\n      dup2\n      0x20\n      add\n    tag_38:\n      tag_39\n      tag_40\n      jump\t// in\n    tag_39:\n      dup2\n      mstore\n      0x20\n      add\n      swap1\n      0x01\n      swap1\n      sub\n      swap1\n      dup2\n      tag_38\n      jumpi\n      swap1\n      pop\n    tag_37:\n      pop\n        /* \"contracts/consultation.sol\":1945:1985  Data[] memory data = new Data[](_jumlah) */\n      swap1\n      pop\n        /* \"contracts/consultation.sol\":1996:2002  uint i */\n      0x00\n        /* \"contracts/consultation.sol\":2022:2028  uint j */\n      dup1\n        /* \"contracts/consultation.sol\":2031:2038  _offset */\n      dup6\n        /* \"contracts/consultation.sol\":2022:2038  uint j = _offset */\n      swap1\n      pop\n        /* \"contracts/consultation.sol\":2017:2190  for (uint j = _offset; j < _offset + _jumlah; j++) {\r... */\n    tag_41:\n        /* \"contracts/consultation.sol\":2054:2061  _jumlah */\n      dup5\n        /* \"contracts/consultation.sol\":2044:2051  _offset */\n      dup7\n        /* \"contracts/consultation.sol\":2044:2061  _offset + _jumlah */\n      tag_44\n      swap2\n      swap1\n      tag_30\n      jump\t// in\n    tag_44:\n        /* \"contracts/consultation.sol\":2040:2041  j */\n      dup2\n        /* \"contracts/consultation.sol\":2040:2061  j < _offset + _jumlah */\n      lt\n        /* \"contracts/consultation.sol\":2017:2190  for (uint j = _offset; j < _offset + _jumlah; j++) {\r... */\n      iszero\n      tag_42\n      jumpi\n        /* \"contracts/consultation.sol\":2083:2095  address akun */\n      0x00\n        /* \"contracts/consultation.sol\":2098:2112  akunKonsultasi */\n      dup1\n        /* \"contracts/consultation.sol\":2113:2114  j */\n      dup3\n        /* \"contracts/consultation.sol\":2098:2115  akunKonsultasi[j] */\n      dup2\n      sload\n      dup2\n      lt\n      tag_45\n      jumpi\n      tag_46\n      tag_47\n      jump\t// in\n    tag_46:\n    tag_45:\n      swap1\n      0x00\n      mstore\n      keccak256(0x00, 0x20)\n      add\n      0x00\n      swap1\n      sload\n      swap1\n      0x0100\n      exp\n      swap1\n      div\n      0xffffffffffffffffffffffffffffffffffffffff\n      and\n        /* \"contracts/consultation.sol\":2083:2115  address akun = akunKonsultasi[j] */\n      swap1\n      pop\n        /* \"contracts/consultation.sol\":2140:2154  dataKonsultasi */\n      0x01\n        /* \"contracts/consultation.sol\":2140:2160  dataKonsultasi[akun] */\n      0x00\n        /* \"contracts/consultation.sol\":2155:2159  akun */\n      dup3\n        /* \"contracts/consultation.sol\":2140:2160  dataKonsultasi[akun] */\n      0xffffffffffffffffffffffffffffffffffffffff\n      and\n      0xffffffffffffffffffffffffffffffffffffffff\n      and\n      dup2\n      mstore\n      0x20\n      add\n      swap1\n      dup2\n      mstore\n      0x20\n      add\n      0x00\n      keccak256\n        /* \"contracts/consultation.sol\":2130:2160  data[i] = dataKonsultasi[akun] */\n      mload(0x40)\n      dup1\n      0x0100\n      add\n      0x40\n      mstore\n      swap1\n      dup2\n      0x00\n      dup3\n      add\n      dup1\n      sload\n      tag_49\n      swap1\n      tag_50\n      jump\t// in\n    tag_49:\n      dup1\n      0x1f\n      add\n      0x20\n      dup1\n      swap2\n      div\n      mul\n      0x20\n      add\n      mload(0x40)\n      swap1\n      dup2\n      add\n      0x40\n      mstore\n      dup1\n      swap3\n      swap2\n      swap1\n      dup2\n      dup2\n      mstore\n      0x20\n      add\n      dup3\n      dup1\n      sload\n      tag_51\n      swap1\n      tag_50\n      jump\t// in\n    tag_51:\n      dup1\n      iszero\n      tag_52\n      jumpi\n      dup1\n      0x1f\n      lt\n      tag_53\n      jumpi\n      0x0100\n      dup1\n      dup4\n      sload\n      div\n      mul\n      dup4\n      mstore\n      swap2\n      0x20\n      add\n      swap2\n      jump(tag_52)\n    tag_53:\n      dup3\n      add\n      swap2\n      swap1\n      0x00\n      mstore\n      keccak256(0x00, 0x20)\n      swap1\n    tag_54:\n      dup2\n      sload\n      dup2\n      mstore\n      swap1\n      0x01\n      add\n      swap1\n      0x20\n      add\n      dup1\n      dup4\n      gt\n      tag_54\n      jumpi\n      dup3\n      swap1\n      sub\n      0x1f\n      and\n      dup3\n      add\n      swap2\n    tag_52:\n      pop\n      pop\n      pop\n      pop\n      pop\n      dup2\n      mstore\n      0x20\n      add\n      0x01\n      dup3\n      add\n      dup1\n      sload\n      tag_55\n      swap1\n      tag_50\n      jump\t// in\n    tag_55:\n      dup1\n      0x1f\n      add\n      0x20\n      dup1\n      swap2\n      div\n      mul\n      0x20\n      add\n      mload(0x40)\n      swap1\n      dup2\n      add\n      0x40\n      mstore\n      dup1\n      swap3\n      swap2\n      swap1\n      dup2\n      dup2\n      mstore\n      0x20\n      add\n      dup3\n      dup1\n      sload\n      tag_56\n      swap1\n      tag_50\n      jump\t// in\n    tag_56:\n      dup1\n      iszero\n      tag_57\n      jumpi\n      dup1\n      0x1f\n      lt\n      tag_58\n      jumpi\n      0x0100\n      dup1\n      dup4\n      sload\n      div\n      mul\n      dup4\n      mstore\n      swap2\n      0x20\n      add\n      swap2\n      jump(tag_57)\n    tag_58:\n      dup3\n      add\n      swap2\n      swap1\n      0x00\n      mstore\n      keccak256(0x00, 0x20)\n      swap1\n    tag_59:\n      dup2\n      sload\n      dup2\n      mstore\n      swap1\n      0x01\n      add\n      swap1\n      0x20\n      add\n      dup1\n      dup4\n      gt\n      tag_59\n      jumpi\n      dup3\n      swap1\n      sub\n      0x1f\n      and\n      dup3\n      add\n      swap2\n    tag_57:\n      pop\n      pop\n      pop\n      pop\n      pop\n      dup2\n      mstore\n      0x20\n      add\n      0x02\n      dup3\n      add\n      dup1\n      sload\n      tag_60\n      swap1\n      tag_50\n      jump\t// in\n    tag_60:\n      dup1\n      0x1f\n      add\n      0x20\n      dup1\n      swap2\n      div\n      mul\n      0x20\n      add\n      mload(0x40)\n      swap1\n      dup2\n      add\n      0x40\n      mstore\n      dup1\n      swap3\n      swap2\n      swap1\n      dup2\n      dup2\n      mstore\n      0x20\n      add\n      dup3\n      dup1\n      sload\n      tag_61\n      swap1\n      tag_50\n      jump\t// in\n    tag_61:\n      dup1\n      iszero\n      tag_62\n      jumpi\n      dup1\n      0x1f\n      lt\n      tag_63\n      jumpi\n      0x0100\n      dup1\n      dup4\n      sload\n      div\n      mul\n      dup4\n      mstore\n      swap2\n      0x20\n      add\n      swap2\n      jump(tag_62)\n    tag_63:\n      dup3\n      add\n      swap2\n      swap1\n      0x00\n      mstore\n      keccak256(0x00, 0x20)\n      swap1\n    tag_64:\n      dup2\n      sload\n      dup2\n      mstore\n      swap1\n      0x01\n      add\n      swap1\n      0x20\n      add\n      dup1\n      dup4\n      gt\n      tag_64\n      jumpi\n      dup3\n      swap1\n      sub\n      0x1f\n      and\n      dup3\n      add\n      swap2\n    tag_62:\n      pop\n      pop\n      pop\n      pop\n      pop\n      dup2\n      mstore\n      0x20\n      add\n      0x03\n      dup3\n      add\n      dup1\n      sload\n      tag_65\n      swap1\n      tag_50\n      jump\t// in\n    tag_65:\n      dup1\n      0x1f\n      add\n      0x20\n      dup1\n      swap2\n      div\n      mul\n      0x20\n      add\n      mload(0x40)\n      swap1\n      dup2\n      add\n      0x40\n      mstore\n      dup1\n      swap3\n      swap2\n      swap1\n      dup2\n      dup2\n      mstore\n      0x20\n      add\n      dup3\n      dup1\n      sload\n      tag_66\n      swap1\n      tag_50\n      jump\t// in\n    tag_66:\n      dup1\n      iszero\n      tag_67\n      jumpi\n      dup1\n      0x1f\n      lt\n      tag_68\n      jumpi\n      0x0100\n      dup1\n      dup4\n      sload\n      div\n      mul\n      dup4\n      mstore\n      swap2\n      0x20\n      add\n      swap2\n      jump(tag_67)\n    tag_68:\n      dup3\n      add\n      swap2\n      swap1\n      0x00\n      mstore\n      keccak256(0x00, 0x20)\n      swap1\n    tag_69:\n      dup2\n      sload\n      dup2\n      mstore\n      swap1\n      0x01\n      add\n      swap1\n      0x20\n      add\n      dup1\n      dup4\n      gt\n      tag_69\n      jumpi\n      dup3\n      swap1\n      sub\n      0x1f\n      and\n      dup3\n      add\n      swap2\n    tag_67:\n      pop\n      pop\n      pop\n      pop\n      pop\n      dup2\n      mstore\n      0x20\n      add\n      0x04\n      dup3\n      add\n      dup1\n      sload\n      tag_70\n      swap1\n      tag_50\n      jump\t// in\n    tag_70:\n      dup1\n      0x1f\n      add\n      0x20\n      dup1\n      swap2\n      div\n      mul\n      0x20\n      add\n      mload(0x40)\n      swap1\n      dup2\n      add\n      0x40\n      mstore\n      dup1\n      swap3\n      swap2\n      swap1\n      dup2\n      dup2\n      mstore\n      0x20\n      add\n      dup3\n      dup1\n      sload\n      tag_71\n      swap1\n      tag_50\n      jump\t// in\n    tag_71:\n      dup1\n      iszero\n      tag_72\n      jumpi\n      dup1\n      0x1f\n      lt\n      tag_73\n      jumpi\n      0x0100\n      dup1\n      dup4\n      sload\n      div\n      mul\n      dup4\n      mstore\n      swap2\n      0x20\n      add\n      swap2\n      jump(tag_72)\n    tag_73:\n      dup3\n      add\n      swap2\n      swap1\n      0x00\n      mstore\n      keccak256(0x00, 0x20)\n      swap1\n    tag_74:\n      dup2\n      sload\n      dup2\n      mstore\n      swap1\n      0x01\n      add\n      swap1\n      0x20\n      add\n      dup1\n      dup4\n      gt\n      tag_74\n      jumpi\n      dup3\n      swap1\n      sub\n      0x1f\n      and\n      dup3\n      add\n      swap2\n    tag_72:\n      pop\n      pop\n      pop\n      pop\n      pop\n      dup2\n      mstore\n      0x20\n      add\n      0x05\n      dup3\n      add\n      dup1\n      sload\n      tag_75\n      swap1\n      tag_50\n      jump\t// in\n    tag_75:\n      dup1\n      0x1f\n      add\n      0x20\n      dup1\n      swap2\n      div\n      mul\n      0x20\n      add\n      mload(0x40)\n      swap1\n      dup2\n      add\n      0x40\n      mstore\n      dup1\n      swap3\n      swap2\n      swap1\n      dup2\n      dup2\n      mstore\n      0x20\n      add\n      dup3\n      dup1\n      sload\n      tag_76\n      swap1\n      tag_50\n      jump\t// in\n    tag_76:\n      dup1\n      iszero\n      tag_77\n      jumpi\n      dup1\n      0x1f\n      lt\n      tag_78\n      jumpi\n      0x0100\n      dup1\n      dup4\n      sload\n      div\n      mul\n      dup4\n      mstore\n      swap2\n      0x20\n      add\n      swap2\n      jump(tag_77)\n    tag_78:\n      dup3\n      add\n      swap2\n      swap1\n      0x00\n      mstore\n      keccak256(0x00, 0x20)\n      swap1\n    tag_79:\n      dup2\n      sload\n      dup2\n      mstore\n      swap1\n      0x01\n      add\n      swap1\n      0x20\n      add\n      dup1\n      dup4\n      gt\n      tag_79\n      jumpi\n      dup3\n      swap1\n      sub\n      0x1f\n      and\n      dup3\n      add\n      swap2\n    tag_77:\n      pop\n      pop\n      pop\n      pop\n      pop\n      dup2\n      mstore\n      0x20\n      add\n      0x06\n      dup3\n      add\n      dup1\n      sload\n      tag_80\n      swap1\n      tag_50\n      jump\t// in\n    tag_80:\n      dup1\n      0x1f\n      add\n      0x20\n      dup1\n      swap2\n      div\n      mul\n      0x20\n      add\n      mload(0x40)\n      swap1\n      dup2\n      add\n      0x40\n      mstore\n      dup1\n      swap3\n      swap2\n      swap1\n      dup2\n      dup2\n      mstore\n      0x20\n      add\n      dup3\n      dup1\n      sload\n      tag_81\n      swap1\n      tag_50\n      jump\t// in\n    tag_81:\n      dup1\n      iszero\n      tag_82\n      jumpi\n      dup1\n      0x1f\n      lt\n      tag_83\n      jumpi\n      0x0100\n      dup1\n      dup4\n      sload\n      div\n      mul\n      dup4\n      mstore\n      swap2\n      0x20\n      add\n      swap2\n      jump(tag_82)\n    tag_83:\n      dup3\n      add\n      swap2\n      swap1\n      0x00\n      mstore\n      keccak256(0x00, 0x20)\n      swap1\n    tag_84:\n      dup2\n      sload\n      dup2\n      mstore\n      swap1\n      0x01\n      add\n      swap1\n      0x20\n      add\n      dup1\n      dup4\n      gt\n      tag_84\n      jumpi\n      dup3\n      swap1\n      sub\n      0x1f\n      and\n      dup3\n      add\n      swap2\n    tag_82:\n      pop\n      pop\n      pop\n      pop\n      pop\n      dup2\n      mstore\n      0x20\n      add\n      0x07\n      dup3\n      add\n      0x00\n      swap1\n      sload\n      swap1\n      0x0100\n      exp\n      swap1\n      div\n      0xffffffffffffffffffffffffffffffffffffffff\n      and\n      0xffffffffffffffffffffffffffffffffffffffff\n      and\n      0xffffffffffffffffffffffffffffffffffffffff\n      and\n      dup2\n      mstore\n      pop\n      pop\n        /* \"contracts/consultation.sol\":2130:2134  data */\n      dup5\n        /* \"contracts/consultation.sol\":2135:2136  i */\n      dup5\n        /* \"contracts/consultation.sol\":2130:2137  data[i] */\n      dup2\n      mload\n      dup2\n      lt\n      tag_85\n      jumpi\n      tag_86\n      tag_47\n      jump\t// in\n    tag_86:\n    tag_85:\n      0x20\n      mul\n      0x20\n      add\n      add\n        /* \"contracts/consultation.sol\":2130:2160  data[i] = dataKonsultasi[akun] */\n      dup2\n      swap1\n      mstore\n      pop\n        /* \"contracts/consultation.sol\":2175:2178  i++ */\n      dup3\n      dup1\n      tag_87\n      swap1\n      tag_88\n      jump\t// in\n    tag_87:\n      swap4\n      pop\n      pop\n        /* \"contracts/consultation.sol\":2068:2190  {\r... */\n      pop\n        /* \"contracts/consultation.sol\":2063:2066  j++ */\n      dup1\n      dup1\n      tag_89\n      swap1\n      tag_88\n      jump\t// in\n    tag_89:\n      swap2\n      pop\n      pop\n        /* \"contracts/consultation.sol\":2017:2190  for (uint j = _offset; j < _offset + _jumlah; j++) {\r... */\n      jump(tag_41)\n    tag_42:\n      pop\n        /* \"contracts/consultation.sol\":2207:2211  data */\n      dup2\n        /* \"contracts/consultation.sol\":2200:2211  return data */\n      swap3\n      pop\n      pop\n      pop\n        /* \"contracts/consultation.sol\":1699:2219  function ambilSemuaDataKonsultasi(uint _offset, uint _jumlah) public view returns (Data[] memory) {\r... */\n      swap3\n      swap2\n      pop\n      pop\n      jump\t// out\n        /* \"contracts/consultation.sol\":423:1009  function tambahData(\r... */\n    tag_16:\n        /* \"contracts/consultation.sol\":761:964  Data(\r... */\n      mload(0x40)\n      dup1\n      0x0100\n      add\n      0x40\n      mstore\n      dup1\n        /* \"contracts/consultation.sol\":780:785  _name */\n      dup10\n        /* \"contracts/consultation.sol\":761:964  Data(\r... */\n      dup2\n      mstore\n      0x20\n      add\n        /* \"contracts/consultation.sol\":801:807  _phone */\n      dup9\n        /* \"contracts/consultation.sol\":761:964  Data(\r... */\n      dup2\n      mstore\n      0x20\n      add\n        /* \"contracts/consultation.sol\":823:834  _doctorName */\n      dup8\n        /* \"contracts/consultation.sol\":761:964  Data(\r... */\n      dup2\n      mstore\n      0x20\n      add\n        /* \"contracts/consultation.sol\":850:858  _session */\n      dup7\n        /* \"contracts/consultation.sol\":761:964  Data(\r... */\n      dup2\n      mstore\n      0x20\n      add\n        /* \"contracts/consultation.sol\":874:879  _date */\n      dup6\n        /* \"contracts/consultation.sol\":761:964  Data(\r... */\n      dup2\n      mstore\n      0x20\n      add\n        /* \"contracts/consultation.sol\":895:902  _gender */\n      dup5\n        /* \"contracts/consultation.sol\":761:964  Data(\r... */\n      dup2\n      mstore\n      0x20\n      add\n        /* \"contracts/consultation.sol\":918:926  _symptom */\n      dup4\n        /* \"contracts/consultation.sol\":761:964  Data(\r... */\n      dup2\n      mstore\n      0x20\n      add\n        /* \"contracts/consultation.sol\":942:949  _wallet */\n      dup3\n        /* \"contracts/consultation.sol\":761:964  Data(\r... */\n      0xffffffffffffffffffffffffffffffffffffffff\n      and\n      dup2\n      mstore\n      pop\n        /* \"contracts/consultation.sol\":737:751  dataKonsultasi */\n      0x01\n        /* \"contracts/consultation.sol\":737:758  dataKonsultasi[_akun] */\n      0x00\n        /* \"contracts/consultation.sol\":752:757  _akun */\n      dup12\n        /* \"contracts/consultation.sol\":737:758  dataKonsultasi[_akun] */\n      0xffffffffffffffffffffffffffffffffffffffff\n      and\n      0xffffffffffffffffffffffffffffffffffffffff\n      and\n      dup2\n      mstore\n      0x20\n      add\n      swap1\n      dup2\n      mstore\n      0x20\n      add\n      0x00\n      keccak256\n        /* \"contracts/consultation.sol\":737:964  dataKonsultasi[_akun] = Data(\r... */\n      0x00\n      dup3\n      add\n      mload\n      dup2\n      0x00\n      add\n      swap1\n      dup1\n      mload\n      swap1\n      0x20\n      add\n      swap1\n      tag_91\n      swap3\n      swap2\n      swap1\n      tag_92\n      jump\t// in\n    tag_91:\n      pop\n      0x20\n      dup3\n      add\n      mload\n      dup2\n      0x01\n      add\n      swap1\n      dup1\n      mload\n      swap1\n      0x20\n      add\n      swap1\n      tag_93\n      swap3\n      swap2\n      swap1\n      tag_92\n      jump\t// in\n    tag_93:\n      pop\n      0x40\n      dup3\n      add\n      mload\n      dup2\n      0x02\n      add\n      swap1\n      dup1\n      mload\n      swap1\n      0x20\n      add\n      swap1\n      tag_94\n      swap3\n      swap2\n      swap1\n      tag_92\n      jump\t// in\n    tag_94:\n      pop\n      0x60\n      dup3\n      add\n      mload\n      dup2\n      0x03\n      add\n      swap1\n      dup1\n      mload\n      swap1\n      0x20\n      add\n      swap1\n      tag_95\n      swap3\n      swap2\n      swap1\n      tag_92\n      jump\t// in\n    tag_95:\n      pop\n      0x80\n      dup3\n      add\n      mload\n      dup2\n      0x04\n      add\n      swap1\n      dup1\n      mload\n      swap1\n      0x20\n      add\n      swap1\n      tag_96\n      swap3\n      swap2\n      swap1\n      tag_92\n      jump\t// in\n    tag_96:\n      pop\n      0xa0\n      dup3\n      add\n      mload\n      dup2\n      0x05\n      add\n      swap1\n      dup1\n      mload\n      swap1\n      0x20\n      add\n      swap1\n      tag_97\n      swap3\n      swap2\n      swap1\n      tag_92\n      jump\t// in\n    tag_97:\n      pop\n      0xc0\n      dup3\n      add\n      mload\n      dup2\n      0x06\n      add\n      swap1\n      dup1\n      mload\n      swap1\n      0x20\n      add\n      swap1\n      tag_98\n      swap3\n      swap2\n      swap1\n      tag_92\n      jump\t// in\n    tag_98:\n      pop\n      0xe0\n      dup3\n      add\n      mload\n      dup2\n      0x07\n      add\n      exp(0x0100, 0x00)\n      dup2\n      sload\n      dup2\n      0xffffffffffffffffffffffffffffffffffffffff\n      mul\n      not\n      and\n      swap1\n      dup4\n      0xffffffffffffffffffffffffffffffffffffffff\n      and\n      mul\n      or\n      swap1\n      sstore\n      pop\n      swap1\n      pop\n      pop\n        /* \"contracts/consultation.sol\":975:989  akunKonsultasi */\n      0x00\n        /* \"contracts/consultation.sol\":995:1000  _akun */\n      dup10\n        /* \"contracts/consultation.sol\":975:1001  akunKonsultasi.push(_akun) */\n      swap1\n      dup1\n      0x01\n      dup2\n      sload\n      add\n      dup1\n      dup3\n      sstore\n      dup1\n      swap2\n      pop\n      pop\n      0x01\n      swap1\n      sub\n      swap1\n      0x00\n      mstore\n      keccak256(0x00, 0x20)\n      add\n      0x00\n      swap1\n      swap2\n      swap1\n      swap2\n      swap1\n      swap2\n      0x0100\n      exp\n      dup2\n      sload\n      dup2\n      0xffffffffffffffffffffffffffffffffffffffff\n      mul\n      not\n      and\n      swap1\n      dup4\n      0xffffffffffffffffffffffffffffffffffffffff\n      and\n      mul\n      or\n      swap1\n      sstore\n      pop\n        /* \"contracts/consultation.sol\":423:1009  function tambahData(\r... */\n      pop\n      pop\n      pop\n      pop\n      pop\n      pop\n      pop\n      pop\n      pop\n      jump\t// out\n        /* \"contracts/consultation.sol\":1298:1692  function ambilDataKonsultasi(address _akun) public view returns (string memory, string memory, string memory, string memory, address) {\r... */\n    tag_20:\n        /* \"contracts/consultation.sol\":1363:1376  string memory */\n      0x60\n        /* \"contracts/consultation.sol\":1378:1391  string memory */\n      dup1\n        /* \"contracts/consultation.sol\":1393:1406  string memory */\n      0x60\n        /* \"contracts/consultation.sol\":1408:1421  string memory */\n      dup1\n        /* \"contracts/consultation.sol\":1423:1430  address */\n      0x00\n        /* \"contracts/consultation.sol\":1465:1479  dataKonsultasi */\n      0x01\n        /* \"contracts/consultation.sol\":1465:1486  dataKonsultasi[_akun] */\n      0x00\n        /* \"contracts/consultation.sol\":1480:1485  _akun */\n      dup8\n        /* \"contracts/consultation.sol\":1465:1486  dataKonsultasi[_akun] */\n      0xffffffffffffffffffffffffffffffffffffffff\n      and\n      0xffffffffffffffffffffffffffffffffffffffff\n      and\n      dup2\n      mstore\n      0x20\n      add\n      swap1\n      dup2\n      mstore\n      0x20\n      add\n      0x00\n      keccak256\n        /* \"contracts/consultation.sol\":1465:1497  dataKonsultasi[_akun].doctorName */\n      0x02\n      add\n        /* \"contracts/consultation.sol\":1513:1527  dataKonsultasi */\n      0x01\n        /* \"contracts/consultation.sol\":1513:1534  dataKonsultasi[_akun] */\n      0x00\n        /* \"contracts/consultation.sol\":1528:1533  _akun */\n      dup9\n        /* \"contracts/consultation.sol\":1513:1534  dataKonsultasi[_akun] */\n      0xffffffffffffffffffffffffffffffffffffffff\n      and\n      0xffffffffffffffffffffffffffffffffffffffff\n      and\n      dup2\n      mstore\n      0x20\n      add\n      swap1\n      dup2\n      mstore\n      0x20\n      add\n      0x00\n      keccak256\n        /* \"contracts/consultation.sol\":1513:1542  dataKonsultasi[_akun].session */\n      0x03\n      add\n        /* \"contracts/consultation.sol\":1558:1572  dataKonsultasi */\n      0x01\n        /* \"contracts/consultation.sol\":1558:1579  dataKonsultasi[_akun] */\n      0x00\n        /* \"contracts/consultation.sol\":1573:1578  _akun */\n      dup10\n        /* \"contracts/consultation.sol\":1558:1579  dataKonsultasi[_akun] */\n      0xffffffffffffffffffffffffffffffffffffffff\n      and\n      0xffffffffffffffffffffffffffffffffffffffff\n      and\n      dup2\n      mstore\n      0x20\n      add\n      swap1\n      dup2\n      mstore\n      0x20\n      add\n      0x00\n      keccak256\n        /* \"contracts/consultation.sol\":1558:1584  dataKonsultasi[_akun].date */\n      0x04\n      add\n        /* \"contracts/consultation.sol\":1600:1614  dataKonsultasi */\n      0x01\n        /* \"contracts/consultation.sol\":1600:1621  dataKonsultasi[_akun] */\n      0x00\n        /* \"contracts/consultation.sol\":1615:1620  _akun */\n      dup11\n        /* \"contracts/consultation.sol\":1600:1621  dataKonsultasi[_akun] */\n      0xffffffffffffffffffffffffffffffffffffffff\n      and\n      0xffffffffffffffffffffffffffffffffffffffff\n      and\n      dup2\n      mstore\n      0x20\n      add\n      swap1\n      dup2\n      mstore\n      0x20\n      add\n      0x00\n      keccak256\n        /* \"contracts/consultation.sol\":1600:1629  dataKonsultasi[_akun].symptom */\n      0x05\n      add\n        /* \"contracts/consultation.sol\":1645:1659  dataKonsultasi */\n      0x01\n        /* \"contracts/consultation.sol\":1645:1666  dataKonsultasi[_akun] */\n      0x00\n        /* \"contracts/consultation.sol\":1660:1665  _akun */\n      dup12\n        /* \"contracts/consultation.sol\":1645:1666  dataKonsultasi[_akun] */\n      0xffffffffffffffffffffffffffffffffffffffff\n      and\n      0xffffffffffffffffffffffffffffffffffffffff\n      and\n      dup2\n      mstore\n      0x20\n      add\n      swap1\n      dup2\n      mstore\n      0x20\n      add\n      0x00\n      keccak256\n        /* \"contracts/consultation.sol\":1645:1673  dataKonsultasi[_akun].wallet */\n      0x07\n      add\n      0x00\n      swap1\n      sload\n      swap1\n      0x0100\n      exp\n      swap1\n      div\n      0xffffffffffffffffffffffffffffffffffffffff\n      and\n        /* \"contracts/consultation.sol\":1443:1684  return (\r... */\n      dup5\n      dup1\n      sload\n      tag_101\n      swap1\n      tag_50\n      jump\t// in\n    tag_101:\n      dup1\n      0x1f\n      add\n      0x20\n      dup1\n      swap2\n      div\n      mul\n      0x20\n      add\n      mload(0x40)\n      swap1\n      dup2\n      add\n      0x40\n      mstore\n      dup1\n      swap3\n      swap2\n      swap1\n      dup2\n      dup2\n      mstore\n      0x20\n      add\n      dup3\n      dup1\n      sload\n      tag_102\n      swap1\n      tag_50\n      jump\t// in\n    tag_102:\n      dup1\n      iszero\n      tag_103\n      jumpi\n      dup1\n      0x1f\n      lt\n      tag_104\n      jumpi\n      0x0100\n      dup1\n      dup4\n      sload\n      div\n      mul\n      dup4\n      mstore\n      swap2\n      0x20\n      add\n      swap2\n      jump(tag_103)\n    tag_104:\n      dup3\n      add\n      swap2\n      swap1\n      0x00\n      mstore\n      keccak256(0x00, 0x20)\n      swap1\n    tag_105:\n      dup2\n      sload\n      dup2\n      mstore\n      swap1\n      0x01\n      add\n      swap1\n      0x20\n      add\n      dup1\n      dup4\n      gt\n      tag_105\n      jumpi\n      dup3\n      swap1\n      sub\n      0x1f\n      and\n      dup3\n      add\n      swap2\n    tag_103:\n      pop\n      pop\n      pop\n      pop\n      pop\n      swap5\n      pop\n      dup4\n      dup1\n      sload\n      tag_106\n      swap1\n      tag_50\n      jump\t// in\n    tag_106:\n      dup1\n      0x1f\n      add\n      0x20\n      dup1\n      swap2\n      div\n      mul\n      0x20\n      add\n      mload(0x40)\n      swap1\n      dup2\n      add\n      0x40\n      mstore\n      dup1\n      swap3\n      swap2\n      swap1\n      dup2\n      dup2\n      mstore\n      0x20\n      add\n      dup3\n      dup1\n      sload\n      tag_107\n      swap1\n      tag_50\n      jump\t// in\n    tag_107:\n      dup1\n      iszero\n      tag_108\n      jumpi\n      dup1\n      0x1f\n      lt\n      tag_109\n      jumpi\n      0x0100\n      dup1\n      dup4\n      sload\n      div\n      mul\n      dup4\n      mstore\n      swap2\n      0x20\n      add\n      swap2\n      jump(tag_108)\n    tag_109:\n      dup3\n      add\n      swap2\n      swap1\n      0x00\n      mstore\n      keccak256(0x00, 0x20)\n      swap1\n    tag_110:\n      dup2\n      sload\n      dup2\n      mstore\n      swap1\n      0x01\n      add\n      swap1\n      0x20\n      add\n      dup1\n      dup4\n      gt\n      tag_110\n      jumpi\n      dup3\n      swap1\n      sub\n      0x1f\n      and\n      dup3\n      add\n      swap2\n    tag_108:\n      pop\n      pop\n      pop\n      pop\n      pop\n      swap4\n      pop\n      dup3\n      dup1\n      sload\n      tag_111\n      swap1\n      tag_50\n      jump\t// in\n    tag_111:\n      dup1\n      0x1f\n      add\n      0x20\n      dup1\n      swap2\n      div\n      mul\n      0x20\n      add\n      mload(0x40)\n      swap1\n      dup2\n      add\n      0x40\n      mstore\n      dup1\n      swap3\n      swap2\n      swap1\n      dup2\n      dup2\n      mstore\n      0x20\n      add\n      dup3\n      dup1\n      sload\n      tag_112\n      swap1\n      tag_50\n      jump\t// in\n    tag_112:\n      dup1\n      iszero\n      tag_113\n      jumpi\n      dup1\n      0x1f\n      lt\n      tag_114\n      jumpi\n      0x0100\n      dup1\n      dup4\n      sload\n      div\n      mul\n      dup4\n      mstore\n      swap2\n      0x20\n      add\n      swap2\n      jump(tag_113)\n    tag_114:\n      dup3\n      add\n      swap2\n      swap1\n      0x00\n      mstore\n      keccak256(0x00, 0x20)\n      swap1\n    tag_115:\n      dup2\n      sload\n      dup2\n      mstore\n      swap1\n      0x01\n      add\n      swap1\n      0x20\n      add\n      dup1\n      dup4\n      gt\n      tag_115\n      jumpi\n      dup3\n      swap1\n      sub\n      0x1f\n      and\n      dup3\n      add\n      swap2\n    tag_113:\n      pop\n      pop\n      pop\n      pop\n      pop\n      swap3\n      pop\n      dup2\n      dup1\n      sload\n      tag_116\n      swap1\n      tag_50\n      jump\t// in\n    tag_116:\n      dup1\n      0x1f\n      add\n      0x20\n      dup1\n      swap2\n      div\n      mul\n      0x20\n      add\n      mload(0x40)\n      swap1\n      dup2\n      add\n      0x40\n      mstore\n      dup1\n      swap3\n      swap2\n      swap1\n      dup2\n      dup2\n      mstore\n      0x20\n      add\n      dup3\n      dup1\n      sload\n      tag_117\n      swap1\n      tag_50\n      jump\t// in\n    tag_117:\n      dup1\n      iszero\n      tag_118\n      jumpi\n      dup1\n      0x1f\n      lt\n      tag_119\n      jumpi\n      0x0100\n      dup1\n      dup4\n      sload\n      div\n      mul\n      dup4\n      mstore\n      swap2\n      0x20\n      add\n      swap2\n      jump(tag_118)\n    tag_119:\n      dup3\n      add\n      swap2\n      swap1\n      0x00\n      mstore\n      keccak256(0x00, 0x20)\n      swap1\n    tag_120:\n      dup2\n      sload\n      dup2\n      mstore\n      swap1\n      0x01\n      add\n      swap1\n      0x20\n      add\n      dup1\n      dup4\n      gt\n      tag_120\n      jumpi\n      dup3\n      swap1\n      sub\n      0x1f\n      and\n      dup3\n      add\n      swap2\n    tag_118:\n      pop\n      pop\n      pop\n      pop\n      pop\n      swap2\n      pop\n      swap5\n      pop\n      swap5\n      pop\n      swap5\n      pop\n      swap5\n      pop\n      swap5\n      pop\n        /* \"contracts/consultation.sol\":1298:1692  function ambilDataKonsultasi(address _akun) public view returns (string memory, string memory, string memory, string memory, address) {\r... */\n      swap2\n      swap4\n      swap6\n      swap1\n      swap3\n      swap5\n      pop\n      jump\t// out\n        /* \"contracts/consultation.sol\":1017:1288  function ambilDataPasien(address _akun) public view returns (string memory, string memory, string memory) {\r... */\n    tag_25:\n        /* \"contracts/consultation.sol\":1078:1091  string memory */\n      0x60\n        /* \"contracts/consultation.sol\":1093:1106  string memory */\n      dup1\n        /* \"contracts/consultation.sol\":1108:1121  string memory */\n      0x60\n        /* \"contracts/consultation.sol\":1156:1170  dataKonsultasi */\n      0x01\n        /* \"contracts/consultation.sol\":1156:1177  dataKonsultasi[_akun] */\n      0x00\n        /* \"contracts/consultation.sol\":1171:1176  _akun */\n      dup6\n        /* \"contracts/consultation.sol\":1156:1177  dataKonsultasi[_akun] */\n      0xffffffffffffffffffffffffffffffffffffffff\n      and\n      0xffffffffffffffffffffffffffffffffffffffff\n      and\n      dup2\n      mstore\n      0x20\n      add\n      swap1\n      dup2\n      mstore\n      0x20\n      add\n      0x00\n      keccak256\n        /* \"contracts/consultation.sol\":1156:1182  dataKonsultasi[_akun].name */\n      0x00\n      add\n        /* \"contracts/consultation.sol\":1198:1212  dataKonsultasi */\n      0x01\n        /* \"contracts/consultation.sol\":1198:1219  dataKonsultasi[_akun] */\n      0x00\n        /* \"contracts/consultation.sol\":1213:1218  _akun */\n      dup7\n        /* \"contracts/consultation.sol\":1198:1219  dataKonsultasi[_akun] */\n      0xffffffffffffffffffffffffffffffffffffffff\n      and\n      0xffffffffffffffffffffffffffffffffffffffff\n      and\n      dup2\n      mstore\n      0x20\n      add\n      swap1\n      dup2\n      mstore\n      0x20\n      add\n      0x00\n      keccak256\n        /* \"contracts/consultation.sol\":1198:1225  dataKonsultasi[_akun].phone */\n      0x01\n      add\n        /* \"contracts/consultation.sol\":1241:1255  dataKonsultasi */\n      0x01\n        /* \"contracts/consultation.sol\":1241:1262  dataKonsultasi[_akun] */\n      0x00\n        /* \"contracts/consultation.sol\":1256:1261  _akun */\n      dup8\n        /* \"contracts/consultation.sol\":1241:1262  dataKonsultasi[_akun] */\n      0xffffffffffffffffffffffffffffffffffffffff\n      and\n      0xffffffffffffffffffffffffffffffffffffffff\n      and\n      dup2\n      mstore\n      0x20\n      add\n      swap1\n      dup2\n      mstore\n      0x20\n      add\n      0x00\n      keccak256\n        /* \"contracts/consultation.sol\":1241:1269  dataKonsultasi[_akun].gender */\n      0x06\n      add\n        /* \"contracts/consultation.sol\":1134:1280  return (\r... */\n      dup3\n      dup1\n      sload\n      tag_122\n      swap1\n      tag_50\n      jump\t// in\n    tag_122:\n      dup1\n      0x1f\n      add\n      0x20\n      dup1\n      swap2\n      div\n      mul\n      0x20\n      add\n      mload(0x40)\n      swap1\n      dup2\n      add\n      0x40\n      mstore\n      dup1\n      swap3\n      swap2\n      swap1\n      dup2\n      dup2\n      mstore\n      0x20\n      add\n      dup3\n      dup1\n      sload\n      tag_123\n      swap1\n      tag_50\n      jump\t// in\n    tag_123:\n      dup1\n      iszero\n      tag_124\n      jumpi\n      dup1\n      0x1f\n      lt\n      tag_125\n      jumpi\n      0x0100\n      dup1\n      dup4\n      sload\n      div\n      mul\n      dup4\n      mstore\n      swap2\n      0x20\n      add\n      swap2\n      jump(tag_124)\n    tag_125:\n      dup3\n      add\n      swap2\n      swap1\n      0x00\n      mstore\n      keccak256(0x00, 0x20)\n      swap1\n    tag_126:\n      dup2\n      sload\n      dup2\n      mstore\n      swap1\n      0x01\n      add\n      swap1\n      0x20\n      add\n      dup1\n      dup4\n      gt\n      tag_126\n      jumpi\n      dup3\n      swap1\n      sub\n      0x1f\n      and\n      dup3\n      add\n      swap2\n    tag_124:\n      pop\n      pop\n      pop\n      pop\n      pop\n      swap3\n      pop\n      dup2\n      dup1\n      sload\n      tag_127\n      swap1\n      tag_50\n      jump\t// in\n    tag_127:\n      dup1\n      0x1f\n      add\n      0x20\n      dup1\n      swap2\n      div\n      mul\n      0x20\n      add\n      mload(0x40)\n      swap1\n      dup2\n      add\n      0x40\n      mstore\n      dup1\n      swap3\n      swap2\n      swap1\n      dup2\n      dup2\n      mstore\n      0x20\n      add\n      dup3\n      dup1\n      sload\n      tag_128\n      swap1\n      tag_50\n      jump\t// in\n    tag_128:\n      dup1\n      iszero\n      tag_129\n      jumpi\n      dup1\n      0x1f\n      lt\n      tag_130\n      jumpi\n      0x0100\n      dup1\n      dup4\n      sload\n      div\n      mul\n      dup4\n      mstore\n      swap2\n      0x20\n      add\n      swap2\n      jump(tag_129)\n    tag_130:\n      dup3\n      add\n      swap2\n      swap1\n      0x00\n      mstore\n      keccak256(0x00, 0x20)\n      swap1\n    tag_131:\n      dup2\n      sload\n      dup2\n      mstore\n      swap1\n      0x01\n      add\n      swap1\n      0x20\n      add\n      dup1\n      dup4\n      gt\n      tag_131\n      jumpi\n      dup3\n      swap1\n      sub\n      0x1f\n      and\n      dup3\n      add\n      swap2\n    tag_129:\n      pop\n      pop\n      pop\n      pop\n      pop\n      swap2\n      pop\n      dup1\n      dup1\n      sload\n      tag_132\n      swap1\n      tag_50\n      jump\t// in\n    tag_132:\n      dup1\n      0x1f\n      add\n      0x20\n      dup1\n      swap2\n      div\n      mul\n      0x20\n      add\n      mload(0x40)\n      swap1\n      dup2\n      add\n      0x40\n      mstore\n      dup1\n      swap3\n      swap2\n      swap1\n      dup2\n      dup2\n      mstore\n      0x20\n      add\n      dup3\n      dup1\n      sload\n      tag_133\n      swap1\n      tag_50\n      jump\t// in\n    tag_133:\n      dup1\n      iszero\n      tag_134\n      jumpi\n      dup1\n      0x1f\n      lt\n      tag_135\n      jumpi\n      0x0100\n      dup1\n      dup4\n      sload\n      div\n      mul\n      dup4\n      mstore\n      swap2\n      0x20\n      add\n      swap2\n      jump(tag_134)\n    tag_135:\n      dup3\n      add\n      swap2\n      swap1\n      0x00\n      mstore\n      keccak256(0x00, 0x20)\n      swap1\n    tag_136:\n      dup2\n      sload\n      dup2\n      mstore\n      swap1\n      0x01\n      add\n      swap1\n      0x20\n      add\n      dup1\n      dup4\n      gt\n      tag_136\n      jumpi\n      dup3\n      swap1\n      sub\n      0x1f\n      and\n      dup3\n      add\n      swap2\n    tag_134:\n      pop\n      pop\n      pop\n      pop\n      pop\n      swap1\n      pop\n      swap3\n      pop\n      swap3\n      pop\n      swap3\n      pop\n        /* \"contracts/consultation.sol\":1017:1288  function ambilDataPasien(address _akun) public view returns (string memory, string memory, string memory) {\r... */\n      swap2\n      swap4\n      swap1\n      swap3\n      pop\n      jump\t// out\n    tag_40:\n      mload(0x40)\n      dup1\n      0x0100\n      add\n      0x40\n      mstore\n      dup1\n      0x60\n      dup2\n      mstore\n      0x20\n      add\n      0x60\n      dup2\n      mstore\n      0x20\n      add\n      0x60\n      dup2\n      mstore\n      0x20\n      add\n      0x60\n      dup2\n      mstore\n      0x20\n      add\n      0x60\n      dup2\n      mstore\n      0x20\n      add\n      0x60\n      dup2\n      mstore\n      0x20\n      add\n      0x60\n      dup2\n      mstore\n      0x20\n      add\n      and(0xffffffffffffffffffffffffffffffffffffffff, 0x00)\n      dup2\n      mstore\n      pop\n      swap1\n      jump\t// out\n    tag_92:\n      dup3\n      dup1\n      sload\n      tag_137\n      swap1\n      tag_50\n      jump\t// in\n    tag_137:\n      swap1\n      0x00\n      mstore\n      keccak256(0x00, 0x20)\n      swap1\n      0x1f\n      add\n      0x20\n      swap1\n      div\n      dup2\n      add\n      swap3\n      dup3\n      tag_139\n      jumpi\n      0x00\n      dup6\n      sstore\n      jump(tag_138)\n    tag_139:\n      dup3\n      0x1f\n      lt\n      tag_140\n      jumpi\n      dup1\n      mload\n      not(0xff)\n      and\n      dup4\n      dup1\n      add\n      or\n      dup6\n      sstore\n      jump(tag_138)\n    tag_140:\n      dup3\n      dup1\n      add\n      0x01\n      add\n      dup6\n      sstore\n      dup3\n      iszero\n      tag_138\n      jumpi\n      swap2\n      dup3\n      add\n    tag_141:\n      dup3\n      dup2\n      gt\n      iszero\n      tag_142\n      jumpi\n      dup3\n      mload\n      dup3\n      sstore\n      swap2\n      0x20\n      add\n      swap2\n      swap1\n      0x01\n      add\n      swap1\n      jump(tag_141)\n    tag_142:\n    tag_138:\n      pop\n      swap1\n      pop\n      tag_143\n      swap2\n      swap1\n      tag_144\n      jump\t// in\n    tag_143:\n      pop\n      swap1\n      jump\t// out\n    tag_144:\n    tag_145:\n      dup1\n      dup3\n      gt\n      iszero\n      tag_146\n      jumpi\n      0x00\n      dup2\n      0x00\n      swap1\n      sstore\n      pop\n      0x01\n      add\n      jump(tag_145)\n    tag_146:\n      pop\n      swap1\n      jump\t// out\n        /* \"#utility.yul\":7:419   */\n    tag_148:\n        /* \"#utility.yul\":85:90   */\n      0x00\n        /* \"#utility.yul\":110:176   */\n      tag_150\n        /* \"#utility.yul\":126:175   */\n      tag_151\n        /* \"#utility.yul\":168:174   */\n      dup5\n        /* \"#utility.yul\":126:175   */\n      tag_152\n      jump\t// in\n    tag_151:\n        /* \"#utility.yul\":110:176   */\n      tag_153\n      jump\t// in\n    tag_150:\n        /* \"#utility.yul\":101:176   */\n      swap1\n      pop\n        /* \"#utility.yul\":199:205   */\n      dup3\n        /* \"#utility.yul\":192:197   */\n      dup2\n        /* \"#utility.yul\":185:206   */\n      mstore\n        /* \"#utility.yul\":237:241   */\n      0x20\n        /* \"#utility.yul\":230:235   */\n      dup2\n        /* \"#utility.yul\":226:242   */\n      add\n        /* \"#utility.yul\":275:278   */\n      dup5\n        /* \"#utility.yul\":266:272   */\n      dup5\n        /* \"#utility.yul\":261:264   */\n      dup5\n        /* \"#utility.yul\":257:273   */\n      add\n        /* \"#utility.yul\":254:279   */\n      gt\n        /* \"#utility.yul\":251:363   */\n      iszero\n      tag_154\n      jumpi\n        /* \"#utility.yul\":282:361   */\n      tag_155\n      tag_156\n      jump\t// in\n    tag_155:\n        /* \"#utility.yul\":251:363   */\n    tag_154:\n        /* \"#utility.yul\":372:413   */\n      tag_157\n        /* \"#utility.yul\":406:412   */\n      dup5\n        /* \"#utility.yul\":401:404   */\n      dup3\n        /* \"#utility.yul\":396:399   */\n      dup6\n        /* \"#utility.yul\":372:413   */\n      tag_158\n      jump\t// in\n    tag_157:\n        /* \"#utility.yul\":91:419   */\n      pop\n        /* \"#utility.yul\":7:419   */\n      swap4\n      swap3\n      pop\n      pop\n      pop\n      jump\t// out\n        /* \"#utility.yul\":425:564   */\n    tag_159:\n        /* \"#utility.yul\":471:476   */\n      0x00\n        /* \"#utility.yul\":509:515   */\n      dup2\n        /* \"#utility.yul\":496:516   */\n      calldataload\n        /* \"#utility.yul\":487:516   */\n      swap1\n      pop\n        /* \"#utility.yul\":525:558   */\n      tag_161\n        /* \"#utility.yul\":552:557   */\n      dup2\n        /* \"#utility.yul\":525:558   */\n      tag_162\n      jump\t// in\n    tag_161:\n        /* \"#utility.yul\":425:564   */\n      swap3\n      swap2\n      pop\n      pop\n      jump\t// out\n        /* \"#utility.yul\":584:924   */\n    tag_163:\n        /* \"#utility.yul\":640:645   */\n      0x00\n        /* \"#utility.yul\":689:692   */\n      dup3\n        /* \"#utility.yul\":682:686   */\n      0x1f\n        /* \"#utility.yul\":674:680   */\n      dup4\n        /* \"#utility.yul\":670:687   */\n      add\n        /* \"#utility.yul\":666:693   */\n      slt\n        /* \"#utility.yul\":656:778   */\n      tag_165\n      jumpi\n        /* \"#utility.yul\":697:776   */\n      tag_166\n      tag_167\n      jump\t// in\n    tag_166:\n        /* \"#utility.yul\":656:778   */\n    tag_165:\n        /* \"#utility.yul\":814:820   */\n      dup2\n        /* \"#utility.yul\":801:821   */\n      calldataload\n        /* \"#utility.yul\":839:918   */\n      tag_168\n        /* \"#utility.yul\":914:917   */\n      dup5\n        /* \"#utility.yul\":906:912   */\n      dup3\n        /* \"#utility.yul\":899:903   */\n      0x20\n        /* \"#utility.yul\":891:897   */\n      dup7\n        /* \"#utility.yul\":887:904   */\n      add\n        /* \"#utility.yul\":839:918   */\n      tag_148\n      jump\t// in\n    tag_168:\n        /* \"#utility.yul\":830:918   */\n      swap2\n      pop\n        /* \"#utility.yul\":646:924   */\n      pop\n        /* \"#utility.yul\":584:924   */\n      swap3\n      swap2\n      pop\n      pop\n      jump\t// out\n        /* \"#utility.yul\":930:1069   */\n    tag_169:\n        /* \"#utility.yul\":976:981   */\n      0x00\n        /* \"#utility.yul\":1014:1020   */\n      dup2\n        /* \"#utility.yul\":1001:1021   */\n      calldataload\n        /* \"#utility.yul\":992:1021   */\n      swap1\n      pop\n        /* \"#utility.yul\":1030:1063   */\n      tag_171\n        /* \"#utility.yul\":1057:1062   */\n      dup2\n        /* \"#utility.yul\":1030:1063   */\n      tag_172\n      jump\t// in\n    tag_171:\n        /* \"#utility.yul\":930:1069   */\n      swap3\n      swap2\n      pop\n      pop\n      jump\t// out\n        /* \"#utility.yul\":1075:1404   */\n    tag_19:\n        /* \"#utility.yul\":1134:1140   */\n      0x00\n        /* \"#utility.yul\":1183:1185   */\n      0x20\n        /* \"#utility.yul\":1171:1180   */\n      dup3\n        /* \"#utility.yul\":1162:1169   */\n      dup5\n        /* \"#utility.yul\":1158:1181   */\n      sub\n        /* \"#utility.yul\":1154:1186   */\n      slt\n        /* \"#utility.yul\":1151:1270   */\n      iszero\n      tag_174\n      jumpi\n        /* \"#utility.yul\":1189:1268   */\n      tag_175\n      tag_176\n      jump\t// in\n    tag_175:\n        /* \"#utility.yul\":1151:1270   */\n    tag_174:\n        /* \"#utility.yul\":1309:1310   */\n      0x00\n        /* \"#utility.yul\":1334:1387   */\n      tag_177\n        /* \"#utility.yul\":1379:1386   */\n      dup5\n        /* \"#utility.yul\":1370:1376   */\n      dup3\n        /* \"#utility.yul\":1359:1368   */\n      dup6\n        /* \"#utility.yul\":1355:1377   */\n      add\n        /* \"#utility.yul\":1334:1387   */\n      tag_159\n      jump\t// in\n    tag_177:\n        /* \"#utility.yul\":1324:1387   */\n      swap2\n      pop\n        /* \"#utility.yul\":1280:1397   */\n      pop\n        /* \"#utility.yul\":1075:1404   */\n      swap3\n      swap2\n      pop\n      pop\n      jump\t// out\n        /* \"#utility.yul\":1410:4165   */\n    tag_15:\n        /* \"#utility.yul\":1611:1617   */\n      0x00\n        /* \"#utility.yul\":1619:1625   */\n      dup1\n        /* \"#utility.yul\":1627:1633   */\n      0x00\n        /* \"#utility.yul\":1635:1641   */\n      dup1\n        /* \"#utility.yul\":1643:1649   */\n      0x00\n        /* \"#utility.yul\":1651:1657   */\n      dup1\n        /* \"#utility.yul\":1659:1665   */\n      0x00\n        /* \"#utility.yul\":1667:1673   */\n      dup1\n        /* \"#utility.yul\":1675:1681   */\n      0x00\n        /* \"#utility.yul\":1724:1727   */\n      0x0120\n        /* \"#utility.yul\":1712:1721   */\n      dup11\n        /* \"#utility.yul\":1703:1710   */\n      dup13\n        /* \"#utility.yul\":1699:1722   */\n      sub\n        /* \"#utility.yul\":1695:1728   */\n      slt\n        /* \"#utility.yul\":1692:1812   */\n      iszero\n      tag_179\n      jumpi\n        /* \"#utility.yul\":1731:1810   */\n      tag_180\n      tag_176\n      jump\t// in\n    tag_180:\n        /* \"#utility.yul\":1692:1812   */\n    tag_179:\n        /* \"#utility.yul\":1851:1852   */\n      0x00\n        /* \"#utility.yul\":1876:1929   */\n      tag_181\n        /* \"#utility.yul\":1921:1928   */\n      dup13\n        /* \"#utility.yul\":1912:1918   */\n      dup3\n        /* \"#utility.yul\":1901:1910   */\n      dup14\n        /* \"#utility.yul\":1897:1919   */\n      add\n        /* \"#utility.yul\":1876:1929   */\n      tag_159\n      jump\t// in\n    tag_181:\n        /* \"#utility.yul\":1866:1929   */\n      swap10\n      pop\n        /* \"#utility.yul\":1822:1939   */\n      pop\n        /* \"#utility.yul\":2006:2008   */\n      0x20\n        /* \"#utility.yul\":1995:2004   */\n      dup11\n        /* \"#utility.yul\":1991:2009   */\n      add\n        /* \"#utility.yul\":1978:2010   */\n      calldataload\n        /* \"#utility.yul\":2037:2055   */\n      0xffffffffffffffff\n        /* \"#utility.yul\":2029:2035   */\n      dup2\n        /* \"#utility.yul\":2026:2056   */\n      gt\n        /* \"#utility.yul\":2023:2140   */\n      iszero\n      tag_182\n      jumpi\n        /* \"#utility.yul\":2059:2138   */\n      tag_183\n      tag_184\n      jump\t// in\n    tag_183:\n        /* \"#utility.yul\":2023:2140   */\n    tag_182:\n        /* \"#utility.yul\":2164:2227   */\n      tag_185\n        /* \"#utility.yul\":2219:2226   */\n      dup13\n        /* \"#utility.yul\":2210:2216   */\n      dup3\n        /* \"#utility.yul\":2199:2208   */\n      dup14\n        /* \"#utility.yul\":2195:2217   */\n      add\n        /* \"#utility.yul\":2164:2227   */\n      tag_163\n      jump\t// in\n    tag_185:\n        /* \"#utility.yul\":2154:2227   */\n      swap9\n      pop\n        /* \"#utility.yul\":1949:2237   */\n      pop\n        /* \"#utility.yul\":2304:2306   */\n      0x40\n        /* \"#utility.yul\":2293:2302   */\n      dup11\n        /* \"#utility.yul\":2289:2307   */\n      add\n        /* \"#utility.yul\":2276:2308   */\n      calldataload\n        /* \"#utility.yul\":2335:2353   */\n      0xffffffffffffffff\n        /* \"#utility.yul\":2327:2333   */\n      dup2\n        /* \"#utility.yul\":2324:2354   */\n      gt\n        /* \"#utility.yul\":2321:2438   */\n      iszero\n      tag_186\n      jumpi\n        /* \"#utility.yul\":2357:2436   */\n      tag_187\n      tag_184\n      jump\t// in\n    tag_187:\n        /* \"#utility.yul\":2321:2438   */\n    tag_186:\n        /* \"#utility.yul\":2462:2525   */\n      tag_188\n        /* \"#utility.yul\":2517:2524   */\n      dup13\n        /* \"#utility.yul\":2508:2514   */\n      dup3\n        /* \"#utility.yul\":2497:2506   */\n      dup14\n        /* \"#utility.yul\":2493:2515   */\n      add\n        /* \"#utility.yul\":2462:2525   */\n      tag_163\n      jump\t// in\n    tag_188:\n        /* \"#utility.yul\":2452:2525   */\n      swap8\n      pop\n        /* \"#utility.yul\":2247:2535   */\n      pop\n        /* \"#utility.yul\":2602:2604   */\n      0x60\n        /* \"#utility.yul\":2591:2600   */\n      dup11\n        /* \"#utility.yul\":2587:2605   */\n      add\n        /* \"#utility.yul\":2574:2606   */\n      calldataload\n        /* \"#utility.yul\":2633:2651   */\n      0xffffffffffffffff\n        /* \"#utility.yul\":2625:2631   */\n      dup2\n        /* \"#utility.yul\":2622:2652   */\n      gt\n        /* \"#utility.yul\":2619:2736   */\n      iszero\n      tag_189\n      jumpi\n        /* \"#utility.yul\":2655:2734   */\n      tag_190\n      tag_184\n      jump\t// in\n    tag_190:\n        /* \"#utility.yul\":2619:2736   */\n    tag_189:\n        /* \"#utility.yul\":2760:2823   */\n      tag_191\n        /* \"#utility.yul\":2815:2822   */\n      dup13\n        /* \"#utility.yul\":2806:2812   */\n      dup3\n        /* \"#utility.yul\":2795:2804   */\n      dup14\n        /* \"#utility.yul\":2791:2813   */\n      add\n        /* \"#utility.yul\":2760:2823   */\n      tag_163\n      jump\t// in\n    tag_191:\n        /* \"#utility.yul\":2750:2823   */\n      swap7\n      pop\n        /* \"#utility.yul\":2545:2833   */\n      pop\n        /* \"#utility.yul\":2900:2903   */\n      0x80\n        /* \"#utility.yul\":2889:2898   */\n      dup11\n        /* \"#utility.yul\":2885:2904   */\n      add\n        /* \"#utility.yul\":2872:2905   */\n      calldataload\n        /* \"#utility.yul\":2932:2950   */\n      0xffffffffffffffff\n        /* \"#utility.yul\":2924:2930   */\n      dup2\n        /* \"#utility.yul\":2921:2951   */\n      gt\n        /* \"#utility.yul\":2918:3035   */\n      iszero\n      tag_192\n      jumpi\n        /* \"#utility.yul\":2954:3033   */\n      tag_193\n      tag_184\n      jump\t// in\n    tag_193:\n        /* \"#utility.yul\":2918:3035   */\n    tag_192:\n        /* \"#utility.yul\":3059:3122   */\n      tag_194\n        /* \"#utility.yul\":3114:3121   */\n      dup13\n        /* \"#utility.yul\":3105:3111   */\n      dup3\n        /* \"#utility.yul\":3094:3103   */\n      dup14\n        /* \"#utility.yul\":3090:3112   */\n      add\n        /* \"#utility.yul\":3059:3122   */\n      tag_163\n      jump\t// in\n    tag_194:\n        /* \"#utility.yul\":3049:3122   */\n      swap6\n      pop\n        /* \"#utility.yul\":2843:3132   */\n      pop\n        /* \"#utility.yul\":3199:3202   */\n      0xa0\n        /* \"#utility.yul\":3188:3197   */\n      dup11\n        /* \"#utility.yul\":3184:3203   */\n      add\n        /* \"#utility.yul\":3171:3204   */\n      calldataload\n        /* \"#utility.yul\":3231:3249   */\n      0xffffffffffffffff\n        /* \"#utility.yul\":3223:3229   */\n      dup2\n        /* \"#utility.yul\":3220:3250   */\n      gt\n        /* \"#utility.yul\":3217:3334   */\n      iszero\n      tag_195\n      jumpi\n        /* \"#utility.yul\":3253:3332   */\n      tag_196\n      tag_184\n      jump\t// in\n    tag_196:\n        /* \"#utility.yul\":3217:3334   */\n    tag_195:\n        /* \"#utility.yul\":3358:3421   */\n      tag_197\n        /* \"#utility.yul\":3413:3420   */\n      dup13\n        /* \"#utility.yul\":3404:3410   */\n      dup3\n        /* \"#utility.yul\":3393:3402   */\n      dup14\n        /* \"#utility.yul\":3389:3411   */\n      add\n        /* \"#utility.yul\":3358:3421   */\n      tag_163\n      jump\t// in\n    tag_197:\n        /* \"#utility.yul\":3348:3421   */\n      swap5\n      pop\n        /* \"#utility.yul\":3142:3431   */\n      pop\n        /* \"#utility.yul\":3498:3501   */\n      0xc0\n        /* \"#utility.yul\":3487:3496   */\n      dup11\n        /* \"#utility.yul\":3483:3502   */\n      add\n        /* \"#utility.yul\":3470:3503   */\n      calldataload\n        /* \"#utility.yul\":3530:3548   */\n      0xffffffffffffffff\n        /* \"#utility.yul\":3522:3528   */\n      dup2\n        /* \"#utility.yul\":3519:3549   */\n      gt\n        /* \"#utility.yul\":3516:3633   */\n      iszero\n      tag_198\n      jumpi\n        /* \"#utility.yul\":3552:3631   */\n      tag_199\n      tag_184\n      jump\t// in\n    tag_199:\n        /* \"#utility.yul\":3516:3633   */\n    tag_198:\n        /* \"#utility.yul\":3657:3720   */\n      tag_200\n        /* \"#utility.yul\":3712:3719   */\n      dup13\n        /* \"#utility.yul\":3703:3709   */\n      dup3\n        /* \"#utility.yul\":3692:3701   */\n      dup14\n        /* \"#utility.yul\":3688:3710   */\n      add\n        /* \"#utility.yul\":3657:3720   */\n      tag_163\n      jump\t// in\n    tag_200:\n        /* \"#utility.yul\":3647:3720   */\n      swap4\n      pop\n        /* \"#utility.yul\":3441:3730   */\n      pop\n        /* \"#utility.yul\":3797:3800   */\n      0xe0\n        /* \"#utility.yul\":3786:3795   */\n      dup11\n        /* \"#utility.yul\":3782:3801   */\n      add\n        /* \"#utility.yul\":3769:3802   */\n      calldataload\n        /* \"#utility.yul\":3829:3847   */\n      0xffffffffffffffff\n        /* \"#utility.yul\":3821:3827   */\n      dup2\n        /* \"#utility.yul\":3818:3848   */\n      gt\n        /* \"#utility.yul\":3815:3932   */\n      iszero\n      tag_201\n      jumpi\n        /* \"#utility.yul\":3851:3930   */\n      tag_202\n      tag_184\n      jump\t// in\n    tag_202:\n        /* \"#utility.yul\":3815:3932   */\n    tag_201:\n        /* \"#utility.yul\":3956:4019   */\n      tag_203\n        /* \"#utility.yul\":4011:4018   */\n      dup13\n        /* \"#utility.yul\":4002:4008   */\n      dup3\n        /* \"#utility.yul\":3991:4000   */\n      dup14\n        /* \"#utility.yul\":3987:4009   */\n      add\n        /* \"#utility.yul\":3956:4019   */\n      tag_163\n      jump\t// in\n    tag_203:\n        /* \"#utility.yul\":3946:4019   */\n      swap3\n      pop\n        /* \"#utility.yul\":3740:4029   */\n      pop\n        /* \"#utility.yul\":4068:4071   */\n      0x0100\n        /* \"#utility.yul\":4095:4148   */\n      tag_204\n        /* \"#utility.yul\":4140:4147   */\n      dup13\n        /* \"#utility.yul\":4131:4137   */\n      dup3\n        /* \"#utility.yul\":4120:4129   */\n      dup14\n        /* \"#utility.yul\":4116:4138   */\n      add\n        /* \"#utility.yul\":4095:4148   */\n      tag_159\n      jump\t// in\n    tag_204:\n        /* \"#utility.yul\":4085:4148   */\n      swap2\n      pop\n        /* \"#utility.yul\":4039:4158   */\n      pop\n        /* \"#utility.yul\":1410:4165   */\n      swap3\n      swap6\n      swap9\n      pop\n      swap3\n      swap6\n      swap9\n      pop\n      swap3\n      swap6\n      swap9\n      jump\t// out\n        /* \"#utility.yul\":4171:4645   */\n    tag_9:\n        /* \"#utility.yul\":4239:4245   */\n      0x00\n        /* \"#utility.yul\":4247:4253   */\n      dup1\n        /* \"#utility.yul\":4296:4298   */\n      0x40\n        /* \"#utility.yul\":4284:4293   */\n      dup4\n        /* \"#utility.yul\":4275:4282   */\n      dup6\n        /* \"#utility.yul\":4271:4294   */\n      sub\n        /* \"#utility.yul\":4267:4299   */\n      slt\n        /* \"#utility.yul\":4264:4383   */\n      iszero\n      tag_206\n      jumpi\n        /* \"#utility.yul\":4302:4381   */\n      tag_207\n      tag_176\n      jump\t// in\n    tag_207:\n        /* \"#utility.yul\":4264:4383   */\n    tag_206:\n        /* \"#utility.yul\":4422:4423   */\n      0x00\n        /* \"#utility.yul\":4447:4500   */\n      tag_208\n        /* \"#utility.yul\":4492:4499   */\n      dup6\n        /* \"#utility.yul\":4483:4489   */\n      dup3\n        /* \"#utility.yul\":4472:4481   */\n      dup7\n        /* \"#utility.yul\":4468:4490   */\n      add\n        /* \"#utility.yul\":4447:4500   */\n      tag_169\n      jump\t// in\n    tag_208:\n        /* \"#utility.yul\":4437:4500   */\n      swap3\n      pop\n        /* \"#utility.yul\":4393:4510   */\n      pop\n        /* \"#utility.yul\":4549:4551   */\n      0x20\n        /* \"#utility.yul\":4575:4628   */\n      tag_209\n        /* \"#utility.yul\":4620:4627   */\n      dup6\n        /* \"#utility.yul\":4611:4617   */\n      dup3\n        /* \"#utility.yul\":4600:4609   */\n      dup7\n        /* \"#utility.yul\":4596:4618   */\n      add\n        /* \"#utility.yul\":4575:4628   */\n      tag_169\n      jump\t// in\n    tag_209:\n        /* \"#utility.yul\":4565:4628   */\n      swap2\n      pop\n        /* \"#utility.yul\":4520:4638   */\n      pop\n        /* \"#utility.yul\":4171:4645   */\n      swap3\n      pop\n      swap3\n      swap1\n      pop\n      jump\t// out\n        /* \"#utility.yul\":4651:4887   */\n    tag_210:\n        /* \"#utility.yul\":4760:4770   */\n      0x00\n        /* \"#utility.yul\":4795:4881   */\n      tag_212\n        /* \"#utility.yul\":4877:4880   */\n      dup4\n        /* \"#utility.yul\":4869:4875   */\n      dup4\n        /* \"#utility.yul\":4795:4881   */\n      tag_213\n      jump\t// in\n    tag_212:\n        /* \"#utility.yul\":4781:4881   */\n      swap1\n      pop\n        /* \"#utility.yul\":4651:4887   */\n      swap3\n      swap2\n      pop\n      pop\n      jump\t// out\n        /* \"#utility.yul\":4893:5001   */\n    tag_214:\n        /* \"#utility.yul\":4970:4994   */\n      tag_216\n        /* \"#utility.yul\":4988:4993   */\n      dup2\n        /* \"#utility.yul\":4970:4994   */\n      tag_217\n      jump\t// in\n    tag_216:\n        /* \"#utility.yul\":4965:4968   */\n      dup3\n        /* \"#utility.yul\":4958:4995   */\n      mstore\n        /* \"#utility.yul\":4893:5001   */\n      pop\n      pop\n      jump\t// out\n        /* \"#utility.yul\":5007:5125   */\n    tag_218:\n        /* \"#utility.yul\":5094:5118   */\n      tag_220\n        /* \"#utility.yul\":5112:5117   */\n      dup2\n        /* \"#utility.yul\":5094:5118   */\n      tag_217\n      jump\t// in\n    tag_220:\n        /* \"#utility.yul\":5089:5092   */\n      dup3\n        /* \"#utility.yul\":5082:5119   */\n      mstore\n        /* \"#utility.yul\":5007:5125   */\n      pop\n      pop\n      jump\t// out\n        /* \"#utility.yul\":5195:6266   */\n    tag_221:\n        /* \"#utility.yul\":5354:5357   */\n      0x00\n        /* \"#utility.yul\":5383:5457   */\n      tag_223\n        /* \"#utility.yul\":5451:5456   */\n      dup3\n        /* \"#utility.yul\":5383:5457   */\n      tag_224\n      jump\t// in\n    tag_223:\n        /* \"#utility.yul\":5473:5579   */\n      tag_225\n        /* \"#utility.yul\":5572:5578   */\n      dup2\n        /* \"#utility.yul\":5567:5570   */\n      dup6\n        /* \"#utility.yul\":5473:5579   */\n      tag_226\n      jump\t// in\n    tag_225:\n        /* \"#utility.yul\":5466:5579   */\n      swap4\n      pop\n        /* \"#utility.yul\":5605:5608   */\n      dup4\n        /* \"#utility.yul\":5650:5654   */\n      0x20\n        /* \"#utility.yul\":5642:5648   */\n      dup3\n        /* \"#utility.yul\":5638:5655   */\n      mul\n        /* \"#utility.yul\":5633:5636   */\n      dup6\n        /* \"#utility.yul\":5629:5656   */\n      add\n        /* \"#utility.yul\":5680:5756   */\n      tag_227\n        /* \"#utility.yul\":5750:5755   */\n      dup6\n        /* \"#utility.yul\":5680:5756   */\n      tag_228\n      jump\t// in\n    tag_227:\n        /* \"#utility.yul\":5779:5786   */\n      dup1\n        /* \"#utility.yul\":5810:5811   */\n      0x00\n        /* \"#utility.yul\":5795:6221   */\n    tag_229:\n        /* \"#utility.yul\":5820:5826   */\n      dup6\n        /* \"#utility.yul\":5817:5818   */\n      dup2\n        /* \"#utility.yul\":5814:5827   */\n      lt\n        /* \"#utility.yul\":5795:6221   */\n      iszero\n      tag_231\n      jumpi\n        /* \"#utility.yul\":5891:5900   */\n      dup5\n        /* \"#utility.yul\":5885:5889   */\n      dup5\n        /* \"#utility.yul\":5881:5901   */\n      sub\n        /* \"#utility.yul\":5876:5879   */\n      dup10\n        /* \"#utility.yul\":5869:5902   */\n      mstore\n        /* \"#utility.yul\":5942:5948   */\n      dup2\n        /* \"#utility.yul\":5936:5949   */\n      mload\n        /* \"#utility.yul\":5970:6074   */\n      tag_232\n        /* \"#utility.yul\":6069:6073   */\n      dup6\n        /* \"#utility.yul\":6054:6067   */\n      dup3\n        /* \"#utility.yul\":5970:6074   */\n      tag_210\n      jump\t// in\n    tag_232:\n        /* \"#utility.yul\":5962:6074   */\n      swap5\n      pop\n        /* \"#utility.yul\":6097:6177   */\n      tag_233\n        /* \"#utility.yul\":6170:6176   */\n      dup4\n        /* \"#utility.yul\":6097:6177   */\n      tag_234\n      jump\t// in\n    tag_233:\n        /* \"#utility.yul\":6087:6177   */\n      swap3\n      pop\n        /* \"#utility.yul\":6206:6210   */\n      0x20\n        /* \"#utility.yul\":6201:6204   */\n      dup11\n        /* \"#utility.yul\":6197:6211   */\n      add\n        /* \"#utility.yul\":6190:6211   */\n      swap10\n      pop\n        /* \"#utility.yul\":5855:6221   */\n      pop\n        /* \"#utility.yul\":5842:5843   */\n      0x01\n        /* \"#utility.yul\":5839:5840   */\n      dup2\n        /* \"#utility.yul\":5835:5844   */\n      add\n        /* \"#utility.yul\":5830:5844   */\n      swap1\n      pop\n        /* \"#utility.yul\":5795:6221   */\n      jump(tag_229)\n    tag_231:\n        /* \"#utility.yul\":5799:5813   */\n      pop\n        /* \"#utility.yul\":6237:6241   */\n      dup3\n        /* \"#utility.yul\":6230:6241   */\n      swap8\n      pop\n        /* \"#utility.yul\":6257:6260   */\n      dup8\n        /* \"#utility.yul\":6250:6260   */\n      swap6\n      pop\n        /* \"#utility.yul\":5359:6266   */\n      pop\n      pop\n      pop\n      pop\n      pop\n        /* \"#utility.yul\":5195:6266   */\n      swap3\n      swap2\n      pop\n      pop\n      jump\t// out\n        /* \"#utility.yul\":6272:6616   */\n    tag_235:\n        /* \"#utility.yul\":6350:6353   */\n      0x00\n        /* \"#utility.yul\":6378:6417   */\n      tag_237\n        /* \"#utility.yul\":6411:6416   */\n      dup3\n        /* \"#utility.yul\":6378:6417   */\n      tag_238\n      jump\t// in\n    tag_237:\n        /* \"#utility.yul\":6433:6494   */\n      tag_239\n        /* \"#utility.yul\":6487:6493   */\n      dup2\n        /* \"#utility.yul\":6482:6485   */\n      dup6\n        /* \"#utility.yul\":6433:6494   */\n      tag_240\n      jump\t// in\n    tag_239:\n        /* \"#utility.yul\":6426:6494   */\n      swap4\n      pop\n        /* \"#utility.yul\":6503:6555   */\n      tag_241\n        /* \"#utility.yul\":6548:6554   */\n      dup2\n        /* \"#utility.yul\":6543:6546   */\n      dup6\n        /* \"#utility.yul\":6536:6540   */\n      0x20\n        /* \"#utility.yul\":6529:6534   */\n      dup7\n        /* \"#utility.yul\":6525:6541   */\n      add\n        /* \"#utility.yul\":6503:6555   */\n      tag_242\n      jump\t// in\n    tag_241:\n        /* \"#utility.yul\":6580:6609   */\n      tag_243\n        /* \"#utility.yul\":6602:6608   */\n      dup2\n        /* \"#utility.yul\":6580:6609   */\n      tag_244\n      jump\t// in\n    tag_243:\n        /* \"#utility.yul\":6575:6578   */\n      dup5\n        /* \"#utility.yul\":6571:6610   */\n      add\n        /* \"#utility.yul\":6564:6610   */\n      swap2\n      pop\n        /* \"#utility.yul\":6354:6616   */\n      pop\n        /* \"#utility.yul\":6272:6616   */\n      swap3\n      swap2\n      pop\n      pop\n      jump\t// out\n        /* \"#utility.yul\":6622:6986   */\n    tag_245:\n        /* \"#utility.yul\":6710:6713   */\n      0x00\n        /* \"#utility.yul\":6738:6777   */\n      tag_247\n        /* \"#utility.yul\":6771:6776   */\n      dup3\n        /* \"#utility.yul\":6738:6777   */\n      tag_238\n      jump\t// in\n    tag_247:\n        /* \"#utility.yul\":6793:6864   */\n      tag_248\n        /* \"#utility.yul\":6857:6863   */\n      dup2\n        /* \"#utility.yul\":6852:6855   */\n      dup6\n        /* \"#utility.yul\":6793:6864   */\n      tag_249\n      jump\t// in\n    tag_248:\n        /* \"#utility.yul\":6786:6864   */\n      swap4\n      pop\n        /* \"#utility.yul\":6873:6925   */\n      tag_250\n        /* \"#utility.yul\":6918:6924   */\n      dup2\n        /* \"#utility.yul\":6913:6916   */\n      dup6\n        /* \"#utility.yul\":6906:6910   */\n      0x20\n        /* \"#utility.yul\":6899:6904   */\n      dup7\n        /* \"#utility.yul\":6895:6911   */\n      add\n        /* \"#utility.yul\":6873:6925   */\n      tag_242\n      jump\t// in\n    tag_250:\n        /* \"#utility.yul\":6950:6979   */\n      tag_251\n        /* \"#utility.yul\":6972:6978   */\n      dup2\n        /* \"#utility.yul\":6950:6979   */\n      tag_244\n      jump\t// in\n    tag_251:\n        /* \"#utility.yul\":6945:6948   */\n      dup5\n        /* \"#utility.yul\":6941:6980   */\n      add\n        /* \"#utility.yul\":6934:6980   */\n      swap2\n      pop\n        /* \"#utility.yul\":6714:6986   */\n      pop\n        /* \"#utility.yul\":6622:6986   */\n      swap3\n      swap2\n      pop\n      pop\n      jump\t// out\n        /* \"#utility.yul\":6992:7358   */\n    tag_252:\n        /* \"#utility.yul\":7134:7137   */\n      0x00\n        /* \"#utility.yul\":7155:7222   */\n      tag_254\n        /* \"#utility.yul\":7219:7221   */\n      0x47\n        /* \"#utility.yul\":7214:7217   */\n      dup4\n        /* \"#utility.yul\":7155:7222   */\n      tag_249\n      jump\t// in\n    tag_254:\n        /* \"#utility.yul\":7148:7222   */\n      swap2\n      pop\n        /* \"#utility.yul\":7231:7324   */\n      tag_255\n        /* \"#utility.yul\":7320:7323   */\n      dup3\n        /* \"#utility.yul\":7231:7324   */\n      tag_256\n      jump\t// in\n    tag_255:\n        /* \"#utility.yul\":7349:7351   */\n      0x60\n        /* \"#utility.yul\":7344:7347   */\n      dup3\n        /* \"#utility.yul\":7340:7352   */\n      add\n        /* \"#utility.yul\":7333:7352   */\n      swap1\n      pop\n        /* \"#utility.yul\":6992:7358   */\n      swap2\n      swap1\n      pop\n      jump\t// out\n        /* \"#utility.yul\":7424:9499   */\n    tag_213:\n        /* \"#utility.yul\":7523:7526   */\n      0x00\n        /* \"#utility.yul\":7559:7565   */\n      0x0100\n        /* \"#utility.yul\":7554:7557   */\n      dup4\n        /* \"#utility.yul\":7550:7566   */\n      add\n        /* \"#utility.yul\":7648:7652   */\n      0x00\n        /* \"#utility.yul\":7641:7646   */\n      dup4\n        /* \"#utility.yul\":7637:7653   */\n      add\n        /* \"#utility.yul\":7631:7654   */\n      mload\n        /* \"#utility.yul\":7701:7704   */\n      dup5\n        /* \"#utility.yul\":7695:7699   */\n      dup3\n        /* \"#utility.yul\":7691:7705   */\n      sub\n        /* \"#utility.yul\":7684:7688   */\n      0x00\n        /* \"#utility.yul\":7679:7682   */\n      dup7\n        /* \"#utility.yul\":7675:7689   */\n      add\n        /* \"#utility.yul\":7668:7706   */\n      mstore\n        /* \"#utility.yul\":7727:7800   */\n      tag_258\n        /* \"#utility.yul\":7795:7799   */\n      dup3\n        /* \"#utility.yul\":7781:7793   */\n      dup3\n        /* \"#utility.yul\":7727:7800   */\n      tag_235\n      jump\t// in\n    tag_258:\n        /* \"#utility.yul\":7719:7800   */\n      swap2\n      pop\n        /* \"#utility.yul\":7576:7811   */\n      pop\n        /* \"#utility.yul\":7894:7898   */\n      0x20\n        /* \"#utility.yul\":7887:7892   */\n      dup4\n        /* \"#utility.yul\":7883:7899   */\n      add\n        /* \"#utility.yul\":7877:7900   */\n      mload\n        /* \"#utility.yul\":7947:7950   */\n      dup5\n        /* \"#utility.yul\":7941:7945   */\n      dup3\n        /* \"#utility.yul\":7937:7951   */\n      sub\n        /* \"#utility.yul\":7930:7934   */\n      0x20\n        /* \"#utility.yul\":7925:7928   */\n      dup7\n        /* \"#utility.yul\":7921:7935   */\n      add\n        /* \"#utility.yul\":7914:7952   */\n      mstore\n        /* \"#utility.yul\":7973:8046   */\n      tag_259\n        /* \"#utility.yul\":8041:8045   */\n      dup3\n        /* \"#utility.yul\":8027:8039   */\n      dup3\n        /* \"#utility.yul\":7973:8046   */\n      tag_235\n      jump\t// in\n    tag_259:\n        /* \"#utility.yul\":7965:8046   */\n      swap2\n      pop\n        /* \"#utility.yul\":7821:8057   */\n      pop\n        /* \"#utility.yul\":8145:8149   */\n      0x40\n        /* \"#utility.yul\":8138:8143   */\n      dup4\n        /* \"#utility.yul\":8134:8150   */\n      add\n        /* \"#utility.yul\":8128:8151   */\n      mload\n        /* \"#utility.yul\":8198:8201   */\n      dup5\n        /* \"#utility.yul\":8192:8196   */\n      dup3\n        /* \"#utility.yul\":8188:8202   */\n      sub\n        /* \"#utility.yul\":8181:8185   */\n      0x40\n        /* \"#utility.yul\":8176:8179   */\n      dup7\n        /* \"#utility.yul\":8172:8186   */\n      add\n        /* \"#utility.yul\":8165:8203   */\n      mstore\n        /* \"#utility.yul\":8224:8297   */\n      tag_260\n        /* \"#utility.yul\":8292:8296   */\n      dup3\n        /* \"#utility.yul\":8278:8290   */\n      dup3\n        /* \"#utility.yul\":8224:8297   */\n      tag_235\n      jump\t// in\n    tag_260:\n        /* \"#utility.yul\":8216:8297   */\n      swap2\n      pop\n        /* \"#utility.yul\":8067:8308   */\n      pop\n        /* \"#utility.yul\":8393:8397   */\n      0x60\n        /* \"#utility.yul\":8386:8391   */\n      dup4\n        /* \"#utility.yul\":8382:8398   */\n      add\n        /* \"#utility.yul\":8376:8399   */\n      mload\n        /* \"#utility.yul\":8446:8449   */\n      dup5\n        /* \"#utility.yul\":8440:8444   */\n      dup3\n        /* \"#utility.yul\":8436:8450   */\n      sub\n        /* \"#utility.yul\":8429:8433   */\n      0x60\n        /* \"#utility.yul\":8424:8427   */\n      dup7\n        /* \"#utility.yul\":8420:8434   */\n      add\n        /* \"#utility.yul\":8413:8451   */\n      mstore\n        /* \"#utility.yul\":8472:8545   */\n      tag_261\n        /* \"#utility.yul\":8540:8544   */\n      dup3\n        /* \"#utility.yul\":8526:8538   */\n      dup3\n        /* \"#utility.yul\":8472:8545   */\n      tag_235\n      jump\t// in\n    tag_261:\n        /* \"#utility.yul\":8464:8545   */\n      swap2\n      pop\n        /* \"#utility.yul\":8318:8556   */\n      pop\n        /* \"#utility.yul\":8638:8642   */\n      0x80\n        /* \"#utility.yul\":8631:8636   */\n      dup4\n        /* \"#utility.yul\":8627:8643   */\n      add\n        /* \"#utility.yul\":8621:8644   */\n      mload\n        /* \"#utility.yul\":8691:8694   */\n      dup5\n        /* \"#utility.yul\":8685:8689   */\n      dup3\n        /* \"#utility.yul\":8681:8695   */\n      sub\n        /* \"#utility.yul\":8674:8678   */\n      0x80\n        /* \"#utility.yul\":8669:8672   */\n      dup7\n        /* \"#utility.yul\":8665:8679   */\n      add\n        /* \"#utility.yul\":8658:8696   */\n      mstore\n        /* \"#utility.yul\":8717:8790   */\n      tag_262\n        /* \"#utility.yul\":8785:8789   */\n      dup3\n        /* \"#utility.yul\":8771:8783   */\n      dup3\n        /* \"#utility.yul\":8717:8790   */\n      tag_235\n      jump\t// in\n    tag_262:\n        /* \"#utility.yul\":8709:8790   */\n      swap2\n      pop\n        /* \"#utility.yul\":8566:8801   */\n      pop\n        /* \"#utility.yul\":8886:8890   */\n      0xa0\n        /* \"#utility.yul\":8879:8884   */\n      dup4\n        /* \"#utility.yul\":8875:8891   */\n      add\n        /* \"#utility.yul\":8869:8892   */\n      mload\n        /* \"#utility.yul\":8939:8942   */\n      dup5\n        /* \"#utility.yul\":8933:8937   */\n      dup3\n        /* \"#utility.yul\":8929:8943   */\n      sub\n        /* \"#utility.yul\":8922:8926   */\n      0xa0\n        /* \"#utility.yul\":8917:8920   */\n      dup7\n        /* \"#utility.yul\":8913:8927   */\n      add\n        /* \"#utility.yul\":8906:8944   */\n      mstore\n        /* \"#utility.yul\":8965:9038   */\n      tag_263\n        /* \"#utility.yul\":9033:9037   */\n      dup3\n        /* \"#utility.yul\":9019:9031   */\n      dup3\n        /* \"#utility.yul\":8965:9038   */\n      tag_235\n      jump\t// in\n    tag_263:\n        /* \"#utility.yul\":8957:9038   */\n      swap2\n      pop\n        /* \"#utility.yul\":8811:9049   */\n      pop\n        /* \"#utility.yul\":9133:9137   */\n      0xc0\n        /* \"#utility.yul\":9126:9131   */\n      dup4\n        /* \"#utility.yul\":9122:9138   */\n      add\n        /* \"#utility.yul\":9116:9139   */\n      mload\n        /* \"#utility.yul\":9186:9189   */\n      dup5\n        /* \"#utility.yul\":9180:9184   */\n      dup3\n        /* \"#utility.yul\":9176:9190   */\n      sub\n        /* \"#utility.yul\":9169:9173   */\n      0xc0\n        /* \"#utility.yul\":9164:9167   */\n      dup7\n        /* \"#utility.yul\":9160:9174   */\n      add\n        /* \"#utility.yul\":9153:9191   */\n      mstore\n        /* \"#utility.yul\":9212:9285   */\n      tag_264\n        /* \"#utility.yul\":9280:9284   */\n      dup3\n        /* \"#utility.yul\":9266:9278   */\n      dup3\n        /* \"#utility.yul\":9212:9285   */\n      tag_235\n      jump\t// in\n    tag_264:\n        /* \"#utility.yul\":9204:9285   */\n      swap2\n      pop\n        /* \"#utility.yul\":9059:9296   */\n      pop\n        /* \"#utility.yul\":9380:9384   */\n      0xe0\n        /* \"#utility.yul\":9373:9378   */\n      dup4\n        /* \"#utility.yul\":9369:9385   */\n      add\n        /* \"#utility.yul\":9363:9386   */\n      mload\n        /* \"#utility.yul\":9399:9462   */\n      tag_265\n        /* \"#utility.yul\":9456:9460   */\n      0xe0\n        /* \"#utility.yul\":9451:9454   */\n      dup7\n        /* \"#utility.yul\":9447:9461   */\n      add\n        /* \"#utility.yul\":9433:9445   */\n      dup3\n        /* \"#utility.yul\":9399:9462   */\n      tag_214\n      jump\t// in\n    tag_265:\n        /* \"#utility.yul\":9306:9472   */\n      pop\n        /* \"#utility.yul\":9489:9493   */\n      dup1\n        /* \"#utility.yul\":9482:9493   */\n      swap2\n      pop\n        /* \"#utility.yul\":7528:9499   */\n      pop\n        /* \"#utility.yul\":7424:9499   */\n      swap3\n      swap2\n      pop\n      pop\n      jump\t// out\n        /* \"#utility.yul\":9505:9958   */\n    tag_12:\n        /* \"#utility.yul\":9688:9692   */\n      0x00\n        /* \"#utility.yul\":9726:9728   */\n      0x20\n        /* \"#utility.yul\":9715:9724   */\n      dup3\n        /* \"#utility.yul\":9711:9729   */\n      add\n        /* \"#utility.yul\":9703:9729   */\n      swap1\n      pop\n        /* \"#utility.yul\":9775:9784   */\n      dup2\n        /* \"#utility.yul\":9769:9773   */\n      dup2\n        /* \"#utility.yul\":9765:9785   */\n      sub\n        /* \"#utility.yul\":9761:9762   */\n      0x00\n        /* \"#utility.yul\":9750:9759   */\n      dup4\n        /* \"#utility.yul\":9746:9763   */\n      add\n        /* \"#utility.yul\":9739:9786   */\n      mstore\n        /* \"#utility.yul\":9803:9951   */\n      tag_267\n        /* \"#utility.yul\":9946:9950   */\n      dup2\n        /* \"#utility.yul\":9937:9943   */\n      dup5\n        /* \"#utility.yul\":9803:9951   */\n      tag_221\n      jump\t// in\n    tag_267:\n        /* \"#utility.yul\":9795:9951   */\n      swap1\n      pop\n        /* \"#utility.yul\":9505:9958   */\n      swap3\n      swap2\n      pop\n      pop\n      jump\t// out\n        /* \"#utility.yul\":9964:10679   */\n    tag_27:\n        /* \"#utility.yul\":10173:10177   */\n      0x00\n        /* \"#utility.yul\":10211:10213   */\n      0x60\n        /* \"#utility.yul\":10200:10209   */\n      dup3\n        /* \"#utility.yul\":10196:10214   */\n      add\n        /* \"#utility.yul\":10188:10214   */\n      swap1\n      pop\n        /* \"#utility.yul\":10260:10269   */\n      dup2\n        /* \"#utility.yul\":10254:10258   */\n      dup2\n        /* \"#utility.yul\":10250:10270   */\n      sub\n        /* \"#utility.yul\":10246:10247   */\n      0x00\n        /* \"#utility.yul\":10235:10244   */\n      dup4\n        /* \"#utility.yul\":10231:10248   */\n      add\n        /* \"#utility.yul\":10224:10271   */\n      mstore\n        /* \"#utility.yul\":10288:10366   */\n      tag_269\n        /* \"#utility.yul\":10361:10365   */\n      dup2\n        /* \"#utility.yul\":10352:10358   */\n      dup7\n        /* \"#utility.yul\":10288:10366   */\n      tag_245\n      jump\t// in\n    tag_269:\n        /* \"#utility.yul\":10280:10366   */\n      swap1\n      pop\n        /* \"#utility.yul\":10413:10422   */\n      dup2\n        /* \"#utility.yul\":10407:10411   */\n      dup2\n        /* \"#utility.yul\":10403:10423   */\n      sub\n        /* \"#utility.yul\":10398:10400   */\n      0x20\n        /* \"#utility.yul\":10387:10396   */\n      dup4\n        /* \"#utility.yul\":10383:10401   */\n      add\n        /* \"#utility.yul\":10376:10424   */\n      mstore\n        /* \"#utility.yul\":10441:10519   */\n      tag_270\n        /* \"#utility.yul\":10514:10518   */\n      dup2\n        /* \"#utility.yul\":10505:10511   */\n      dup6\n        /* \"#utility.yul\":10441:10519   */\n      tag_245\n      jump\t// in\n    tag_270:\n        /* \"#utility.yul\":10433:10519   */\n      swap1\n      pop\n        /* \"#utility.yul\":10566:10575   */\n      dup2\n        /* \"#utility.yul\":10560:10564   */\n      dup2\n        /* \"#utility.yul\":10556:10576   */\n      sub\n        /* \"#utility.yul\":10551:10553   */\n      0x40\n        /* \"#utility.yul\":10540:10549   */\n      dup4\n        /* \"#utility.yul\":10536:10554   */\n      add\n        /* \"#utility.yul\":10529:10577   */\n      mstore\n        /* \"#utility.yul\":10594:10672   */\n      tag_271\n        /* \"#utility.yul\":10667:10671   */\n      dup2\n        /* \"#utility.yul\":10658:10664   */\n      dup5\n        /* \"#utility.yul\":10594:10672   */\n      tag_245\n      jump\t// in\n    tag_271:\n        /* \"#utility.yul\":10586:10672   */\n      swap1\n      pop\n        /* \"#utility.yul\":9964:10679   */\n      swap5\n      swap4\n      pop\n      pop\n      pop\n      pop\n      jump\t// out\n        /* \"#utility.yul\":10685:11713   */\n    tag_22:\n        /* \"#utility.yul\":10970:10974   */\n      0x00\n        /* \"#utility.yul\":11008:11011   */\n      0xa0\n        /* \"#utility.yul\":10997:11006   */\n      dup3\n        /* \"#utility.yul\":10993:11012   */\n      add\n        /* \"#utility.yul\":10985:11012   */\n      swap1\n      pop\n        /* \"#utility.yul\":11058:11067   */\n      dup2\n        /* \"#utility.yul\":11052:11056   */\n      dup2\n        /* \"#utility.yul\":11048:11068   */\n      sub\n        /* \"#utility.yul\":11044:11045   */\n      0x00\n        /* \"#utility.yul\":11033:11042   */\n      dup4\n        /* \"#utility.yul\":11029:11046   */\n      add\n        /* \"#utility.yul\":11022:11069   */\n      mstore\n        /* \"#utility.yul\":11086:11164   */\n      tag_273\n        /* \"#utility.yul\":11159:11163   */\n      dup2\n        /* \"#utility.yul\":11150:11156   */\n      dup9\n        /* \"#utility.yul\":11086:11164   */\n      tag_245\n      jump\t// in\n    tag_273:\n        /* \"#utility.yul\":11078:11164   */\n      swap1\n      pop\n        /* \"#utility.yul\":11211:11220   */\n      dup2\n        /* \"#utility.yul\":11205:11209   */\n      dup2\n        /* \"#utility.yul\":11201:11221   */\n      sub\n        /* \"#utility.yul\":11196:11198   */\n      0x20\n        /* \"#utility.yul\":11185:11194   */\n      dup4\n        /* \"#utility.yul\":11181:11199   */\n      add\n        /* \"#utility.yul\":11174:11222   */\n      mstore\n        /* \"#utility.yul\":11239:11317   */\n      tag_274\n        /* \"#utility.yul\":11312:11316   */\n      dup2\n        /* \"#utility.yul\":11303:11309   */\n      dup8\n        /* \"#utility.yul\":11239:11317   */\n      tag_245\n      jump\t// in\n    tag_274:\n        /* \"#utility.yul\":11231:11317   */\n      swap1\n      pop\n        /* \"#utility.yul\":11364:11373   */\n      dup2\n        /* \"#utility.yul\":11358:11362   */\n      dup2\n        /* \"#utility.yul\":11354:11374   */\n      sub\n        /* \"#utility.yul\":11349:11351   */\n      0x40\n        /* \"#utility.yul\":11338:11347   */\n      dup4\n        /* \"#utility.yul\":11334:11352   */\n      add\n        /* \"#utility.yul\":11327:11375   */\n      mstore\n        /* \"#utility.yul\":11392:11470   */\n      tag_275\n        /* \"#utility.yul\":11465:11469   */\n      dup2\n        /* \"#utility.yul\":11456:11462   */\n      dup7\n        /* \"#utility.yul\":11392:11470   */\n      tag_245\n      jump\t// in\n    tag_275:\n        /* \"#utility.yul\":11384:11470   */\n      swap1\n      pop\n        /* \"#utility.yul\":11517:11526   */\n      dup2\n        /* \"#utility.yul\":11511:11515   */\n      dup2\n        /* \"#utility.yul\":11507:11527   */\n      sub\n        /* \"#utility.yul\":11502:11504   */\n      0x60\n        /* \"#utility.yul\":11491:11500   */\n      dup4\n        /* \"#utility.yul\":11487:11505   */\n      add\n        /* \"#utility.yul\":11480:11528   */\n      mstore\n        /* \"#utility.yul\":11545:11623   */\n      tag_276\n        /* \"#utility.yul\":11618:11622   */\n      dup2\n        /* \"#utility.yul\":11609:11615   */\n      dup6\n        /* \"#utility.yul\":11545:11623   */\n      tag_245\n      jump\t// in\n    tag_276:\n        /* \"#utility.yul\":11537:11623   */\n      swap1\n      pop\n        /* \"#utility.yul\":11633:11706   */\n      tag_277\n        /* \"#utility.yul\":11701:11704   */\n      0x80\n        /* \"#utility.yul\":11690:11699   */\n      dup4\n        /* \"#utility.yul\":11686:11705   */\n      add\n        /* \"#utility.yul\":11677:11683   */\n      dup5\n        /* \"#utility.yul\":11633:11706   */\n      tag_218\n      jump\t// in\n    tag_277:\n        /* \"#utility.yul\":10685:11713   */\n      swap7\n      swap6\n      pop\n      pop\n      pop\n      pop\n      pop\n      pop\n      jump\t// out\n        /* \"#utility.yul\":11719:12138   */\n    tag_33:\n        /* \"#utility.yul\":11885:11889   */\n      0x00\n        /* \"#utility.yul\":11923:11925   */\n      0x20\n        /* \"#utility.yul\":11912:11921   */\n      dup3\n        /* \"#utility.yul\":11908:11926   */\n      add\n        /* \"#utility.yul\":11900:11926   */\n      swap1\n      pop\n        /* \"#utility.yul\":11972:11981   */\n      dup2\n        /* \"#utility.yul\":11966:11970   */\n      dup2\n        /* \"#utility.yul\":11962:11982   */\n      sub\n        /* \"#utility.yul\":11958:11959   */\n      0x00\n        /* \"#utility.yul\":11947:11956   */\n      dup4\n        /* \"#utility.yul\":11943:11960   */\n      add\n        /* \"#utility.yul\":11936:11983   */\n      mstore\n        /* \"#utility.yul\":12000:12131   */\n      tag_279\n        /* \"#utility.yul\":12126:12130   */\n      dup2\n        /* \"#utility.yul\":12000:12131   */\n      tag_252\n      jump\t// in\n    tag_279:\n        /* \"#utility.yul\":11992:12131   */\n      swap1\n      pop\n        /* \"#utility.yul\":11719:12138   */\n      swap2\n      swap1\n      pop\n      jump\t// out\n        /* \"#utility.yul\":12144:12273   */\n    tag_153:\n        /* \"#utility.yul\":12178:12184   */\n      0x00\n        /* \"#utility.yul\":12205:12225   */\n      tag_281\n      tag_282\n      jump\t// in\n    tag_281:\n        /* \"#utility.yul\":12195:12225   */\n      swap1\n      pop\n        /* \"#utility.yul\":12234:12267   */\n      tag_283\n        /* \"#utility.yul\":12262:12266   */\n      dup3\n        /* \"#utility.yul\":12254:12260   */\n      dup3\n        /* \"#utility.yul\":12234:12267   */\n      tag_284\n      jump\t// in\n    tag_283:\n        /* \"#utility.yul\":12144:12273   */\n      swap2\n      swap1\n      pop\n      jump\t// out\n        /* \"#utility.yul\":12279:12354   */\n    tag_282:\n        /* \"#utility.yul\":12312:12318   */\n      0x00\n        /* \"#utility.yul\":12345:12347   */\n      0x40\n        /* \"#utility.yul\":12339:12348   */\n      mload\n        /* \"#utility.yul\":12329:12348   */\n      swap1\n      pop\n        /* \"#utility.yul\":12279:12354   */\n      swap1\n      jump\t// out\n        /* \"#utility.yul\":12360:12668   */\n    tag_152:\n        /* \"#utility.yul\":12422:12426   */\n      0x00\n        /* \"#utility.yul\":12512:12530   */\n      0xffffffffffffffff\n        /* \"#utility.yul\":12504:12510   */\n      dup3\n        /* \"#utility.yul\":12501:12531   */\n      gt\n        /* \"#utility.yul\":12498:12554   */\n      iszero\n      tag_287\n      jumpi\n        /* \"#utility.yul\":12534:12552   */\n      tag_288\n      tag_36\n      jump\t// in\n    tag_288:\n        /* \"#utility.yul\":12498:12554   */\n    tag_287:\n        /* \"#utility.yul\":12572:12601   */\n      tag_289\n        /* \"#utility.yul\":12594:12600   */\n      dup3\n        /* \"#utility.yul\":12572:12601   */\n      tag_244\n      jump\t// in\n    tag_289:\n        /* \"#utility.yul\":12564:12601   */\n      swap1\n      pop\n        /* \"#utility.yul\":12656:12660   */\n      0x20\n        /* \"#utility.yul\":12650:12654   */\n      dup2\n        /* \"#utility.yul\":12646:12661   */\n      add\n        /* \"#utility.yul\":12638:12661   */\n      swap1\n      pop\n        /* \"#utility.yul\":12360:12668   */\n      swap2\n      swap1\n      pop\n      jump\t// out\n        /* \"#utility.yul\":12674:12826   */\n    tag_228:\n        /* \"#utility.yul\":12761:12765   */\n      0x00\n        /* \"#utility.yul\":12784:12787   */\n      dup2\n        /* \"#utility.yul\":12776:12787   */\n      swap1\n      pop\n        /* \"#utility.yul\":12814:12818   */\n      0x20\n        /* \"#utility.yul\":12809:12812   */\n      dup3\n        /* \"#utility.yul\":12805:12819   */\n      add\n        /* \"#utility.yul\":12797:12819   */\n      swap1\n      pop\n        /* \"#utility.yul\":12674:12826   */\n      swap2\n      swap1\n      pop\n      jump\t// out\n        /* \"#utility.yul\":12832:12966   */\n    tag_224:\n        /* \"#utility.yul\":12919:12925   */\n      0x00\n        /* \"#utility.yul\":12953:12958   */\n      dup2\n        /* \"#utility.yul\":12947:12959   */\n      mload\n        /* \"#utility.yul\":12937:12959   */\n      swap1\n      pop\n        /* \"#utility.yul\":12832:12966   */\n      swap2\n      swap1\n      pop\n      jump\t// out\n        /* \"#utility.yul\":12972:13071   */\n    tag_238:\n        /* \"#utility.yul\":13024:13030   */\n      0x00\n        /* \"#utility.yul\":13058:13063   */\n      dup2\n        /* \"#utility.yul\":13052:13064   */\n      mload\n        /* \"#utility.yul\":13042:13064   */\n      swap1\n      pop\n        /* \"#utility.yul\":12972:13071   */\n      swap2\n      swap1\n      pop\n      jump\t// out\n        /* \"#utility.yul\":13077:13210   */\n    tag_234:\n        /* \"#utility.yul\":13167:13171   */\n      0x00\n        /* \"#utility.yul\":13199:13203   */\n      0x20\n        /* \"#utility.yul\":13194:13197   */\n      dup3\n        /* \"#utility.yul\":13190:13204   */\n      add\n        /* \"#utility.yul\":13182:13204   */\n      swap1\n      pop\n        /* \"#utility.yul\":13077:13210   */\n      swap2\n      swap1\n      pop\n      jump\t// out\n        /* \"#utility.yul\":13216:13420   */\n    tag_226:\n        /* \"#utility.yul\":13335:13346   */\n      0x00\n        /* \"#utility.yul\":13369:13375   */\n      dup3\n        /* \"#utility.yul\":13364:13367   */\n      dup3\n        /* \"#utility.yul\":13357:13376   */\n      mstore\n        /* \"#utility.yul\":13409:13413   */\n      0x20\n        /* \"#utility.yul\":13404:13407   */\n      dup3\n        /* \"#utility.yul\":13400:13414   */\n      add\n        /* \"#utility.yul\":13385:13414   */\n      swap1\n      pop\n        /* \"#utility.yul\":13216:13420   */\n      swap3\n      swap2\n      pop\n      pop\n      jump\t// out\n        /* \"#utility.yul\":13426:13585   */\n    tag_240:\n        /* \"#utility.yul\":13500:13511   */\n      0x00\n        /* \"#utility.yul\":13534:13540   */\n      dup3\n        /* \"#utility.yul\":13529:13532   */\n      dup3\n        /* \"#utility.yul\":13522:13541   */\n      mstore\n        /* \"#utility.yul\":13574:13578   */\n      0x20\n        /* \"#utility.yul\":13569:13572   */\n      dup3\n        /* \"#utility.yul\":13565:13579   */\n      add\n        /* \"#utility.yul\":13550:13579   */\n      swap1\n      pop\n        /* \"#utility.yul\":13426:13585   */\n      swap3\n      swap2\n      pop\n      pop\n      jump\t// out\n        /* \"#utility.yul\":13591:13760   */\n    tag_249:\n        /* \"#utility.yul\":13675:13686   */\n      0x00\n        /* \"#utility.yul\":13709:13715   */\n      dup3\n        /* \"#utility.yul\":13704:13707   */\n      dup3\n        /* \"#utility.yul\":13697:13716   */\n      mstore\n        /* \"#utility.yul\":13749:13753   */\n      0x20\n        /* \"#utility.yul\":13744:13747   */\n      dup3\n        /* \"#utility.yul\":13740:13754   */\n      add\n        /* \"#utility.yul\":13725:13754   */\n      swap1\n      pop\n        /* \"#utility.yul\":13591:13760   */\n      swap3\n      swap2\n      pop\n      pop\n      jump\t// out\n        /* \"#utility.yul\":13766:14071   */\n    tag_30:\n        /* \"#utility.yul\":13806:13809   */\n      0x00\n        /* \"#utility.yul\":13825:13845   */\n      tag_298\n        /* \"#utility.yul\":13843:13844   */\n      dup3\n        /* \"#utility.yul\":13825:13845   */\n      tag_299\n      jump\t// in\n    tag_298:\n        /* \"#utility.yul\":13820:13845   */\n      swap2\n      pop\n        /* \"#utility.yul\":13859:13879   */\n      tag_300\n        /* \"#utility.yul\":13877:13878   */\n      dup4\n        /* \"#utility.yul\":13859:13879   */\n      tag_299\n      jump\t// in\n    tag_300:\n        /* \"#utility.yul\":13854:13879   */\n      swap3\n      pop\n        /* \"#utility.yul\":14013:14014   */\n      dup3\n        /* \"#utility.yul\":13945:14011   */\n      0xffffffffffffffffffffffffffffffffffffffffffffffffffffffffffffffff\n        /* \"#utility.yul\":13941:14015   */\n      sub\n        /* \"#utility.yul\":13938:13939   */\n      dup3\n        /* \"#utility.yul\":13935:14016   */\n      gt\n        /* \"#utility.yul\":13932:14039   */\n      iszero\n      tag_301\n      jumpi\n        /* \"#utility.yul\":14019:14037   */\n      tag_302\n      tag_303\n      jump\t// in\n    tag_302:\n        /* \"#utility.yul\":13932:14039   */\n    tag_301:\n        /* \"#utility.yul\":14063:14064   */\n      dup3\n        /* \"#utility.yul\":14060:14061   */\n      dup3\n        /* \"#utility.yul\":14056:14065   */\n      add\n        /* \"#utility.yul\":14049:14065   */\n      swap1\n      pop\n        /* \"#utility.yul\":13766:14071   */\n      swap3\n      swap2\n      pop\n      pop\n      jump\t// out\n        /* \"#utility.yul\":14077:14173   */\n    tag_217:\n        /* \"#utility.yul\":14114:14121   */\n      0x00\n        /* \"#utility.yul\":14143:14167   */\n      tag_305\n        /* \"#utility.yul\":14161:14166   */\n      dup3\n        /* \"#utility.yul\":14143:14167   */\n      tag_306\n      jump\t// in\n    tag_305:\n        /* \"#utility.yul\":14132:14167   */\n      swap1\n      pop\n        /* \"#utility.yul\":14077:14173   */\n      swap2\n      swap1\n      pop\n      jump\t// out\n        /* \"#utility.yul\":14179:14305   */\n    tag_306:\n        /* \"#utility.yul\":14216:14223   */\n      0x00\n        /* \"#utility.yul\":14256:14298   */\n      0xffffffffffffffffffffffffffffffffffffffff\n        /* \"#utility.yul\":14249:14254   */\n      dup3\n        /* \"#utility.yul\":14245:14299   */\n      and\n        /* \"#utility.yul\":14234:14299   */\n      swap1\n      pop\n        /* \"#utility.yul\":14179:14305   */\n      swap2\n      swap1\n      pop\n      jump\t// out\n        /* \"#utility.yul\":14311:14388   */\n    tag_299:\n        /* \"#utility.yul\":14348:14355   */\n      0x00\n        /* \"#utility.yul\":14377:14382   */\n      dup2\n        /* \"#utility.yul\":14366:14382   */\n      swap1\n      pop\n        /* \"#utility.yul\":14311:14388   */\n      swap2\n      swap1\n      pop\n      jump\t// out\n        /* \"#utility.yul\":14394:14548   */\n    tag_158:\n        /* \"#utility.yul\":14478:14484   */\n      dup3\n        /* \"#utility.yul\":14473:14476   */\n      dup2\n        /* \"#utility.yul\":14468:14471   */\n      dup4\n        /* \"#utility.yul\":14455:14485   */\n      calldatacopy\n        /* \"#utility.yul\":14540:14541   */\n      0x00\n        /* \"#utility.yul\":14531:14537   */\n      dup4\n        /* \"#utility.yul\":14526:14529   */\n      dup4\n        /* \"#utility.yul\":14522:14538   */\n      add\n        /* \"#utility.yul\":14515:14542   */\n      mstore\n        /* \"#utility.yul\":14394:14548   */\n      pop\n      pop\n      pop\n      jump\t// out\n        /* \"#utility.yul\":14554:14861   */\n    tag_242:\n        /* \"#utility.yul\":14622:14623   */\n      0x00\n        /* \"#utility.yul\":14632:14745   */\n    tag_311:\n        /* \"#utility.yul\":14646:14652   */\n      dup4\n        /* \"#utility.yul\":14643:14644   */\n      dup2\n        /* \"#utility.yul\":14640:14653   */\n      lt\n        /* \"#utility.yul\":14632:14745   */\n      iszero\n      tag_313\n      jumpi\n        /* \"#utility.yul\":14731:14732   */\n      dup1\n        /* \"#utility.yul\":14726:14729   */\n      dup3\n        /* \"#utility.yul\":14722:14733   */\n      add\n        /* \"#utility.yul\":14716:14734   */\n      mload\n        /* \"#utility.yul\":14712:14713   */\n      dup2\n        /* \"#utility.yul\":14707:14710   */\n      dup5\n        /* \"#utility.yul\":14703:14714   */\n      add\n        /* \"#utility.yul\":14696:14735   */\n      mstore\n        /* \"#utility.yul\":14668:14670   */\n      0x20\n        /* \"#utility.yul\":14665:14666   */\n      dup2\n        /* \"#utility.yul\":14661:14671   */\n      add\n        /* \"#utility.yul\":14656:14671   */\n      swap1\n      pop\n        /* \"#utility.yul\":14632:14745   */\n      jump(tag_311)\n    tag_313:\n        /* \"#utility.yul\":14763:14769   */\n      dup4\n        /* \"#utility.yul\":14760:14761   */\n      dup2\n        /* \"#utility.yul\":14757:14770   */\n      gt\n        /* \"#utility.yul\":14754:14855   */\n      iszero\n      tag_314\n      jumpi\n        /* \"#utility.yul\":14843:14844   */\n      0x00\n        /* \"#utility.yul\":14834:14840   */\n      dup5\n        /* \"#utility.yul\":14829:14832   */\n      dup5\n        /* \"#utility.yul\":14825:14841   */\n      add\n        /* \"#utility.yul\":14818:14845   */\n      mstore\n        /* \"#utility.yul\":14754:14855   */\n    tag_314:\n        /* \"#utility.yul\":14603:14861   */\n      pop\n        /* \"#utility.yul\":14554:14861   */\n      pop\n      pop\n      pop\n      jump\t// out\n        /* \"#utility.yul\":14867:15187   */\n    tag_50:\n        /* \"#utility.yul\":14911:14917   */\n      0x00\n        /* \"#utility.yul\":14948:14949   */\n      0x02\n        /* \"#utility.yul\":14942:14946   */\n      dup3\n        /* \"#utility.yul\":14938:14950   */\n      div\n        /* \"#utility.yul\":14928:14950   */\n      swap1\n      pop\n        /* \"#utility.yul\":14995:14996   */\n      0x01\n        /* \"#utility.yul\":14989:14993   */\n      dup3\n        /* \"#utility.yul\":14985:14997   */\n      and\n        /* \"#utility.yul\":15016:15034   */\n      dup1\n        /* \"#utility.yul\":15006:15087   */\n      tag_316\n      jumpi\n        /* \"#utility.yul\":15072:15076   */\n      0x7f\n        /* \"#utility.yul\":15064:15070   */\n      dup3\n        /* \"#utility.yul\":15060:15077   */\n      and\n        /* \"#utility.yul\":15050:15077   */\n      swap2\n      pop\n        /* \"#utility.yul\":15006:15087   */\n    tag_316:\n        /* \"#utility.yul\":15134:15136   */\n      0x20\n        /* \"#utility.yul\":15126:15132   */\n      dup3\n        /* \"#utility.yul\":15123:15137   */\n      lt\n        /* \"#utility.yul\":15103:15121   */\n      dup2\n        /* \"#utility.yul\":15100:15138   */\n      eq\n        /* \"#utility.yul\":15097:15181   */\n      iszero\n      tag_317\n      jumpi\n        /* \"#utility.yul\":15153:15171   */\n      tag_318\n      tag_319\n      jump\t// in\n    tag_318:\n        /* \"#utility.yul\":15097:15181   */\n    tag_317:\n        /* \"#utility.yul\":14918:15187   */\n      pop\n        /* \"#utility.yul\":14867:15187   */\n      swap2\n      swap1\n      pop\n      jump\t// out\n        /* \"#utility.yul\":15193:15474   */\n    tag_284:\n        /* \"#utility.yul\":15276:15303   */\n      tag_321\n        /* \"#utility.yul\":15298:15302   */\n      dup3\n        /* \"#utility.yul\":15276:15303   */\n      tag_244\n      jump\t// in\n    tag_321:\n        /* \"#utility.yul\":15268:15274   */\n      dup2\n        /* \"#utility.yul\":15264:15304   */\n      add\n        /* \"#utility.yul\":15406:15412   */\n      dup2\n        /* \"#utility.yul\":15394:15404   */\n      dup2\n        /* \"#utility.yul\":15391:15413   */\n      lt\n        /* \"#utility.yul\":15370:15388   */\n      0xffffffffffffffff\n        /* \"#utility.yul\":15358:15368   */\n      dup3\n        /* \"#utility.yul\":15355:15389   */\n      gt\n        /* \"#utility.yul\":15352:15414   */\n      or\n        /* \"#utility.yul\":15349:15437   */\n      iszero\n      tag_322\n      jumpi\n        /* \"#utility.yul\":15417:15435   */\n      tag_323\n      tag_36\n      jump\t// in\n    tag_323:\n        /* \"#utility.yul\":15349:15437   */\n    tag_322:\n        /* \"#utility.yul\":15457:15467   */\n      dup1\n        /* \"#utility.yul\":15453:15455   */\n      0x40\n        /* \"#utility.yul\":15446:15468   */\n      mstore\n        /* \"#utility.yul\":15236:15474   */\n      pop\n        /* \"#utility.yul\":15193:15474   */\n      pop\n      pop\n      jump\t// out\n        /* \"#utility.yul\":15480:15713   */\n    tag_88:\n        /* \"#utility.yul\":15519:15522   */\n      0x00\n        /* \"#utility.yul\":15542:15566   */\n      tag_325\n        /* \"#utility.yul\":15560:15565   */\n      dup3\n        /* \"#utility.yul\":15542:15566   */\n      tag_299\n      jump\t// in\n    tag_325:\n        /* \"#utility.yul\":15533:15566   */\n      swap2\n      pop\n        /* \"#utility.yul\":15588:15654   */\n      0xffffffffffffffffffffffffffffffffffffffffffffffffffffffffffffffff\n        /* \"#utility.yul\":15581:15586   */\n      dup3\n        /* \"#utility.yul\":15578:15655   */\n      eq\n        /* \"#utility.yul\":15575:15678   */\n      iszero\n      tag_326\n      jumpi\n        /* \"#utility.yul\":15658:15676   */\n      tag_327\n      tag_303\n      jump\t// in\n    tag_327:\n        /* \"#utility.yul\":15575:15678   */\n    tag_326:\n        /* \"#utility.yul\":15705:15706   */\n      0x01\n        /* \"#utility.yul\":15698:15703   */\n      dup3\n        /* \"#utility.yul\":15694:15707   */\n      add\n        /* \"#utility.yul\":15687:15707   */\n      swap1\n      pop\n        /* \"#utility.yul\":15480:15713   */\n      swap2\n      swap1\n      pop\n      jump\t// out\n        /* \"#utility.yul\":15719:15899   */\n    tag_303:\n        /* \"#utility.yul\":15767:15844   */\n      0x4e487b7100000000000000000000000000000000000000000000000000000000\n        /* \"#utility.yul\":15764:15765   */\n      0x00\n        /* \"#utility.yul\":15757:15845   */\n      mstore\n        /* \"#utility.yul\":15864:15868   */\n      0x11\n        /* \"#utility.yul\":15861:15862   */\n      0x04\n        /* \"#utility.yul\":15854:15869   */\n      mstore\n        /* \"#utility.yul\":15888:15892   */\n      0x24\n        /* \"#utility.yul\":15885:15886   */\n      0x00\n        /* \"#utility.yul\":15878:15893   */\n      revert\n        /* \"#utility.yul\":15905:16085   */\n    tag_319:\n        /* \"#utility.yul\":15953:16030   */\n      0x4e487b7100000000000000000000000000000000000000000000000000000000\n        /* \"#utility.yul\":15950:15951   */\n      0x00\n        /* \"#utility.yul\":15943:16031   */\n      mstore\n        /* \"#utility.yul\":16050:16054   */\n      0x22\n        /* \"#utility.yul\":16047:16048   */\n      0x04\n        /* \"#utility.yul\":16040:16055   */\n      mstore\n        /* \"#utility.yul\":16074:16078   */\n      0x24\n        /* \"#utility.yul\":16071:16072   */\n      0x00\n        /* \"#utility.yul\":16064:16079   */\n      revert\n        /* \"#utility.yul\":16091:16271   */\n    tag_47:\n        /* \"#utility.yul\":16139:16216   */\n      0x4e487b7100000000000000000000000000000000000000000000000000000000\n        /* \"#utility.yul\":16136:16137   */\n      0x00\n        /* \"#utility.yul\":16129:16217   */\n      mstore\n        /* \"#utility.yul\":16236:16240   */\n      0x32\n        /* \"#utility.yul\":16233:16234   */\n      0x04\n        /* \"#utility.yul\":16226:16241   */\n      mstore\n        /* \"#utility.yul\":16260:16264   */\n      0x24\n        /* \"#utility.yul\":16257:16258   */\n      0x00\n        /* \"#utility.yul\":16250:16265   */\n      revert\n        /* \"#utility.yul\":16277:16457   */\n    tag_36:\n        /* \"#utility.yul\":16325:16402   */\n      0x4e487b7100000000000000000000000000000000000000000000000000000000\n        /* \"#utility.yul\":16322:16323   */\n      0x00\n        /* \"#utility.yul\":16315:16403   */\n      mstore\n        /* \"#utility.yul\":16422:16426   */\n      0x41\n        /* \"#utility.yul\":16419:16420   */\n      0x04\n        /* \"#utility.yul\":16412:16427   */\n      mstore\n        /* \"#utility.yul\":16446:16450   */\n      0x24\n        /* \"#utility.yul\":16443:16444   */\n      0x00\n        /* \"#utility.yul\":16436:16451   */\n      revert\n        /* \"#utility.yul\":16463:16580   */\n    tag_167:\n        /* \"#utility.yul\":16572:16573   */\n      0x00\n        /* \"#utility.yul\":16569:16570   */\n      dup1\n        /* \"#utility.yul\":16562:16574   */\n      revert\n        /* \"#utility.yul\":16586:16703   */\n    tag_156:\n        /* \"#utility.yul\":16695:16696   */\n      0x00\n        /* \"#utility.yul\":16692:16693   */\n      dup1\n        /* \"#utility.yul\":16685:16697   */\n      revert\n        /* \"#utility.yul\":16709:16826   */\n    tag_184:\n        /* \"#utility.yul\":16818:16819   */\n      0x00\n        /* \"#utility.yul\":16815:16816   */\n      dup1\n        /* \"#utility.yul\":16808:16820   */\n      revert\n        /* \"#utility.yul\":16832:16949   */\n    tag_176:\n        /* \"#utility.yul\":16941:16942   */\n      0x00\n        /* \"#utility.yul\":16938:16939   */\n      dup1\n        /* \"#utility.yul\":16931:16943   */\n      revert\n        /* \"#utility.yul\":16955:17057   */\n    tag_244:\n        /* \"#utility.yul\":16996:17002   */\n      0x00\n        /* \"#utility.yul\":17047:17049   */\n      0x1f\n        /* \"#utility.yul\":17043:17050   */\n      not\n        /* \"#utility.yul\":17038:17040   */\n      0x1f\n        /* \"#utility.yul\":17031:17036   */\n      dup4\n        /* \"#utility.yul\":17027:17041   */\n      add\n        /* \"#utility.yul\":17023:17051   */\n      and\n        /* \"#utility.yul\":17013:17051   */\n      swap1\n      pop\n        /* \"#utility.yul\":16955:17057   */\n      swap2\n      swap1\n      pop\n      jump\t// out\n        /* \"#utility.yul\":17063:17358   */\n    tag_256:\n        /* \"#utility.yul\":17203:17237   */\n      0x4a756d6c616820646174612079616e6720696e67696e206469616d62696c206d\n        /* \"#utility.yul\":17199:17200   */\n      0x00\n        /* \"#utility.yul\":17191:17197   */\n      dup3\n        /* \"#utility.yul\":17187:17201   */\n      add\n        /* \"#utility.yul\":17180:17238   */\n      mstore\n        /* \"#utility.yul\":17272:17306   */\n      0x656c6562696869206a756d6c616820746f74616c20646174612079616e672074\n        /* \"#utility.yul\":17267:17269   */\n      0x20\n        /* \"#utility.yul\":17259:17265   */\n      dup3\n        /* \"#utility.yul\":17255:17270   */\n      add\n        /* \"#utility.yul\":17248:17307   */\n      mstore\n        /* \"#utility.yul\":17341:17350   */\n      0x6572736564696100000000000000000000000000000000000000000000000000\n        /* \"#utility.yul\":17336:17338   */\n      0x40\n        /* \"#utility.yul\":17328:17334   */\n      dup3\n        /* \"#utility.yul\":17324:17339   */\n      add\n        /* \"#utility.yul\":17317:17351   */\n      mstore\n        /* \"#utility.yul\":17063:17358   */\n      pop\n      jump\t// out\n        /* \"#utility.yul\":17364:17486   */\n    tag_162:\n        /* \"#utility.yul\":17437:17461   */\n      tag_339\n        /* \"#utility.yul\":17455:17460   */\n      dup2\n        /* \"#utility.yul\":17437:17461   */\n      tag_217\n      jump\t// in\n    tag_339:\n        /* \"#utility.yul\":17430:17435   */\n      dup2\n        /* \"#utility.yul\":17427:17462   */\n      eq\n        /* \"#utility.yul\":17417:17480   */\n      tag_340\n      jumpi\n        /* \"#utility.yul\":17476:17477   */\n      0x00\n        /* \"#utility.yul\":17473:17474   */\n      dup1\n        /* \"#utility.yul\":17466:17478   */\n      revert\n        /* \"#utility.yul\":17417:17480   */\n    tag_340:\n        /* \"#utility.yul\":17364:17486   */\n      pop\n      jump\t// out\n        /* \"#utility.yul\":17492:17614   */\n    tag_172:\n        /* \"#utility.yul\":17565:17589   */\n      tag_342\n        /* \"#utility.yul\":17583:17588   */\n      dup2\n        /* \"#utility.yul\":17565:17589   */\n      tag_299\n      jump\t// in\n    tag_342:\n        /* \"#utility.yul\":17558:17563   */\n      dup2\n        /* \"#utility.yul\":17555:17590   */\n      eq\n        /* \"#utility.yul\":17545:17608   */\n      tag_343\n      jumpi\n        /* \"#utility.yul\":17604:17605   */\n      0x00\n        /* \"#utility.yul\":17601:17602   */\n      dup1\n        /* \"#utility.yul\":17594:17606   */\n      revert\n        /* \"#utility.yul\":17545:17608   */\n    tag_343:\n        /* \"#utility.yul\":17492:17614   */\n      pop\n      jump\t// out\n\n    auxdata: 0xa264697066735822122063ad29f72ca5c220da3c1070206df886b4ed3c05deb67ab785654127410bc35864736f6c63430008070033\n}\n",
				"bytecode": {
					"linkReferences": {},
					"object": "608060405234801561001057600080fd5b506119d7806100206000396000f3fe608060405234801561001057600080fd5b506004361061004c5760003560e01c806307cff41c1461005157806351b9725c14610081578063634918a91461009d57806369047b5d146100d1575b600080fd5b61006b6004803603810190610066919061128e565b610103565b60405161007891906114e4565b60405180910390f35b61009b60048036038101906100969190611100565b6106f7565b005b6100b760048036038101906100b291906110d3565b610909565b6040516100c8959493929190611552565b60405180910390f35b6100eb60048036038101906100e691906110d3565b610cbf565b6040516100fa93929190611506565b60405180910390f35b60606000805490508284610117919061169d565b1115610158576040517f08c379a000000000000000000000000000000000000000000000000000000000815260040161014f906115c1565b60405180910390fd5b60008267ffffffffffffffff811115610174576101736118aa565b5b6040519080825280602002602001820160405280156101ad57816020015b61019a610f3b565b8152602001906001900390816101925790505b5090506000808590505b84866101c3919061169d565b8110156106eb5760008082815481106101df576101de61187b565b5b9060005260206000200160009054906101000a900473ffffffffffffffffffffffffffffffffffffffff169050600160008273ffffffffffffffffffffffffffffffffffffffff1673ffffffffffffffffffffffffffffffffffffffff1681526020019081526020016000206040518061010001604052908160008201805461026790611771565b80601f016020809104026020016040519081016040528092919081815260200182805461029390611771565b80156102e05780601f106102b5576101008083540402835291602001916102e0565b820191906000526020600020905b8154815290600101906020018083116102c357829003601f168201915b505050505081526020016001820180546102f990611771565b80601f016020809104026020016040519081016040528092919081815260200182805461032590611771565b80156103725780601f1061034757610100808354040283529160200191610372565b820191906000526020600020905b81548152906001019060200180831161035557829003601f168201915b5050505050815260200160028201805461038b90611771565b80601f01602080910402602001604051908101604052809291908181526020018280546103b790611771565b80156104045780601f106103d957610100808354040283529160200191610404565b820191906000526020600020905b8154815290600101906020018083116103e757829003601f168201915b5050505050815260200160038201805461041d90611771565b80601f016020809104026020016040519081016040528092919081815260200182805461044990611771565b80156104965780601f1061046b57610100808354040283529160200191610496565b820191906000526020600020905b81548152906001019060200180831161047957829003601f168201915b505050505081526020016004820180546104af90611771565b80601f01602080910402602001604051908101604052809291908181526020018280546104db90611771565b80156105285780601f106104fd57610100808354040283529160200191610528565b820191906000526020600020905b81548152906001019060200180831161050b57829003601f168201915b5050505050815260200160058201805461054190611771565b80601f016020809104026020016040519081016040528092919081815260200182805461056d90611771565b80156105ba5780601f1061058f576101008083540402835291602001916105ba565b820191906000526020600020905b81548152906001019060200180831161059d57829003601f168201915b505050505081526020016006820180546105d390611771565b80601f01602080910402602001604051908101604052809291908181526020018280546105ff90611771565b801561064c5780601f106106215761010080835404028352916020019161064c565b820191906000526020600020905b81548152906001019060200180831161062f57829003601f168201915b505050505081526020016007820160009054906101000a900473ffffffffffffffffffffffffffffffffffffffff1673ffffffffffffffffffffffffffffffffffffffff1673ffffffffffffffffffffffffffffffffffffffff16815250508484815181106106be576106bd61187b565b5b602002602001018190525082806106d4906117d4565b9350505080806106e3906117d4565b9150506101b7565b50819250505092915050565b6040518061010001604052808981526020018881526020018781526020018681526020018581526020018481526020018381526020018273ffffffffffffffffffffffffffffffffffffffff16815250600160008b73ffffffffffffffffffffffffffffffffffffffff1673ffffffffffffffffffffffffffffffffffffffff16815260200190815260200160002060008201518160000190805190602001906107a2929190610f96565b5060208201518160010190805190602001906107bf929190610f96565b5060408201518160020190805190602001906107dc929190610f96565b5060608201518160030190805190602001906107f9929190610f96565b506080820151816004019080519060200190610816929190610f96565b5060a0820151816005019080519060200190610833929190610f96565b5060c0820151816006019080519060200190610850929190610f96565b5060e08201518160070160006101000a81548173ffffffffffffffffffffffffffffffffffffffff021916908373ffffffffffffffffffffffffffffffffffffffff1602179055509050506000899080600181540180825580915050600190039060005260206000200160009091909190916101000a81548173ffffffffffffffffffffffffffffffffffffffff021916908373ffffffffffffffffffffffffffffffffffffffff160217905550505050505050505050565b6060806060806000600160008773ffffffffffffffffffffffffffffffffffffffff1673ffffffffffffffffffffffffffffffffffffffff168152602001908152602001600020600201600160008873ffffffffffffffffffffffffffffffffffffffff1673ffffffffffffffffffffffffffffffffffffffff168152602001908152602001600020600301600160008973ffffffffffffffffffffffffffffffffffffffff1673ffffffffffffffffffffffffffffffffffffffff168152602001908152602001600020600401600160008a73ffffffffffffffffffffffffffffffffffffffff1673ffffffffffffffffffffffffffffffffffffffff168152602001908152602001600020600501600160008b73ffffffffffffffffffffffffffffffffffffffff1673ffffffffffffffffffffffffffffffffffffffff16815260200190815260200160002060070160009054906101000a900473ffffffffffffffffffffffffffffffffffffffff16848054610a8890611771565b80601f0160208091040260200160405190810160405280929190818152602001828054610ab490611771565b8015610b015780601f10610ad657610100808354040283529160200191610b01565b820191906000526020600020905b815481529060010190602001808311610ae457829003601f168201915b50505050509450838054610b1490611771565b80601f0160208091040260200160405190810160405280929190818152602001828054610b4090611771565b8015610b8d5780601f10610b6257610100808354040283529160200191610b8d565b820191906000526020600020905b815481529060010190602001808311610b7057829003601f168201915b50505050509350828054610ba090611771565b80601f0160208091040260200160405190810160405280929190818152602001828054610bcc90611771565b8015610c195780601f10610bee57610100808354040283529160200191610c19565b820191906000526020600020905b815481529060010190602001808311610bfc57829003601f168201915b50505050509250818054610c2c90611771565b80601f0160208091040260200160405190810160405280929190818152602001828054610c5890611771565b8015610ca55780601f10610c7a57610100808354040283529160200191610ca5565b820191906000526020600020905b815481529060010190602001808311610c8857829003601f168201915b505050505091509450945094509450945091939590929450565b6060806060600160008573ffffffffffffffffffffffffffffffffffffffff1673ffffffffffffffffffffffffffffffffffffffff168152602001908152602001600020600001600160008673ffffffffffffffffffffffffffffffffffffffff1673ffffffffffffffffffffffffffffffffffffffff168152602001908152602001600020600101600160008773ffffffffffffffffffffffffffffffffffffffff1673ffffffffffffffffffffffffffffffffffffffff168152602001908152602001600020600601828054610d9690611771565b80601f0160208091040260200160405190810160405280929190818152602001828054610dc290611771565b8015610e0f5780601f10610de457610100808354040283529160200191610e0f565b820191906000526020600020905b815481529060010190602001808311610df257829003601f168201915b50505050509250818054610e2290611771565b80601f0160208091040260200160405190810160405280929190818152602001828054610e4e90611771565b8015610e9b5780601f10610e7057610100808354040283529160200191610e9b565b820191906000526020600020905b815481529060010190602001808311610e7e57829003601f168201915b50505050509150808054610eae90611771565b80601f0160208091040260200160405190810160405280929190818152602001828054610eda90611771565b8015610f275780601f10610efc57610100808354040283529160200191610f27565b820191906000526020600020905b815481529060010190602001808311610f0a57829003601f168201915b505050505090509250925092509193909250565b60405180610100016040528060608152602001606081526020016060815260200160608152602001606081526020016060815260200160608152602001600073ffffffffffffffffffffffffffffffffffffffff1681525090565b828054610fa290611771565b90600052602060002090601f016020900481019282610fc4576000855561100b565b82601f10610fdd57805160ff191683800117855561100b565b8280016001018555821561100b579182015b8281111561100a578251825591602001919060010190610fef565b5b509050611018919061101c565b5090565b5b8082111561103557600081600090555060010161101d565b5090565b600061104c61104784611606565b6115e1565b905082815260208101848484011115611068576110676118de565b5b61107384828561172f565b509392505050565b60008135905061108a81611973565b92915050565b600082601f8301126110a5576110a46118d9565b5b81356110b5848260208601611039565b91505092915050565b6000813590506110cd8161198a565b92915050565b6000602082840312156110e9576110e86118e8565b5b60006110f78482850161107b565b91505092915050565b60008060008060008060008060006101208a8c031215611123576111226118e8565b5b60006111318c828d0161107b565b99505060208a013567ffffffffffffffff811115611152576111516118e3565b5b61115e8c828d01611090565b98505060408a013567ffffffffffffffff81111561117f5761117e6118e3565b5b61118b8c828d01611090565b97505060608a013567ffffffffffffffff8111156111ac576111ab6118e3565b5b6111b88c828d01611090565b96505060808a013567ffffffffffffffff8111156111d9576111d86118e3565b5b6111e58c828d01611090565b95505060a08a013567ffffffffffffffff811115611206576112056118e3565b5b6112128c828d01611090565b94505060c08a013567ffffffffffffffff811115611233576112326118e3565b5b61123f8c828d01611090565b93505060e08a013567ffffffffffffffff8111156112605761125f6118e3565b5b61126c8c828d01611090565b92505061010061127e8c828d0161107b565b9150509295985092959850929598565b600080604083850312156112a5576112a46118e8565b5b60006112b3858286016110be565b92505060206112c4858286016110be565b9150509250929050565b60006112da838361140a565b905092915050565b6112eb816116f3565b82525050565b6112fa816116f3565b82525050565b600061130b82611647565b611315818561166a565b93508360208202850161132785611637565b8060005b85811015611363578484038952815161134485826112ce565b945061134f8361165d565b925060208a0199505060018101905061132b565b50829750879550505050505092915050565b600061138082611652565b61138a818561167b565b935061139a81856020860161173e565b6113a3816118ed565b840191505092915050565b60006113b982611652565b6113c3818561168c565b93506113d381856020860161173e565b6113dc816118ed565b840191505092915050565b60006113f460478361168c565b91506113ff826118fe565b606082019050919050565b60006101008301600083015184820360008601526114288282611375565b915050602083015184820360208601526114428282611375565b9150506040830151848203604086015261145c8282611375565b915050606083015184820360608601526114768282611375565b915050608083015184820360808601526114908282611375565b91505060a083015184820360a08601526114aa8282611375565b91505060c083015184820360c08601526114c48282611375565b91505060e08301516114d960e08601826112e2565b508091505092915050565b600060208201905081810360008301526114fe8184611300565b905092915050565b6000606082019050818103600083015261152081866113ae565b9050818103602083015261153481856113ae565b9050818103604083015261154881846113ae565b9050949350505050565b600060a082019050818103600083015261156c81886113ae565b9050818103602083015261158081876113ae565b9050818103604083015261159481866113ae565b905081810360608301526115a881856113ae565b90506115b760808301846112f1565b9695505050505050565b600060208201905081810360008301526115da816113e7565b9050919050565b60006115eb6115fc565b90506115f782826117a3565b919050565b6000604051905090565b600067ffffffffffffffff821115611621576116206118aa565b5b61162a826118ed565b9050602081019050919050565b6000819050602082019050919050565b600081519050919050565b600081519050919050565b6000602082019050919050565b600082825260208201905092915050565b600082825260208201905092915050565b600082825260208201905092915050565b60006116a882611725565b91506116b383611725565b9250827fffffffffffffffffffffffffffffffffffffffffffffffffffffffffffffffff038211156116e8576116e761181d565b5b828201905092915050565b60006116fe82611705565b9050919050565b600073ffffffffffffffffffffffffffffffffffffffff82169050919050565b6000819050919050565b82818337600083830152505050565b60005b8381101561175c578082015181840152602081019050611741565b8381111561176b576000848401525b50505050565b6000600282049050600182168061178957607f821691505b6020821081141561179d5761179c61184c565b5b50919050565b6117ac826118ed565b810181811067ffffffffffffffff821117156117cb576117ca6118aa565b5b80604052505050565b60006117df82611725565b91507fffffffffffffffffffffffffffffffffffffffffffffffffffffffffffffffff8214156118125761181161181d565b5b600182019050919050565b7f4e487b7100000000000000000000000000000000000000000000000000000000600052601160045260246000fd5b7f4e487b7100000000000000000000000000000000000000000000000000000000600052602260045260246000fd5b7f4e487b7100000000000000000000000000000000000000000000000000000000600052603260045260246000fd5b7f4e487b7100000000000000000000000000000000000000000000000000000000600052604160045260246000fd5b600080fd5b600080fd5b600080fd5b600080fd5b6000601f19601f8301169050919050565b7f4a756d6c616820646174612079616e6720696e67696e206469616d62696c206d60008201527f656c6562696869206a756d6c616820746f74616c20646174612079616e67207460208201527f6572736564696100000000000000000000000000000000000000000000000000604082015250565b61197c816116f3565b811461198757600080fd5b50565b61199381611725565b811461199e57600080fd5b5056fea264697066735822122063ad29f72ca5c220da3c1070206df886b4ed3c05deb67ab785654127410bc35864736f6c63430008070033",
					"opcodes": "PUSH1 0x80 PUSH1 0x40 MSTORE CALLVALUE DUP1 ISZERO PUSH2 0x10 JUMPI PUSH1 0x0 DUP1 REVERT JUMPDEST POP PUSH2 0x19D7 DUP1 PUSH2 0x20 PUSH1 0x0 CODECOPY PUSH1 0x0 RETURN INVALID PUSH1 0x80 PUSH1 0x40 MSTORE CALLVALUE DUP1 ISZERO PUSH2 0x10 JUMPI PUSH1 0x0 DUP1 REVERT JUMPDEST POP PUSH1 0x4 CALLDATASIZE LT PUSH2 0x4C JUMPI PUSH1 0x0 CALLDATALOAD PUSH1 0xE0 SHR DUP1 PUSH4 0x7CFF41C EQ PUSH2 0x51 JUMPI DUP1 PUSH4 0x51B9725C EQ PUSH2 0x81 JUMPI DUP1 PUSH4 0x634918A9 EQ PUSH2 0x9D JUMPI DUP1 PUSH4 0x69047B5D EQ PUSH2 0xD1 JUMPI JUMPDEST PUSH1 0x0 DUP1 REVERT JUMPDEST PUSH2 0x6B PUSH1 0x4 DUP1 CALLDATASIZE SUB DUP2 ADD SWAP1 PUSH2 0x66 SWAP2 SWAP1 PUSH2 0x128E JUMP JUMPDEST PUSH2 0x103 JUMP JUMPDEST PUSH1 0x40 MLOAD PUSH2 0x78 SWAP2 SWAP1 PUSH2 0x14E4 JUMP JUMPDEST PUSH1 0x40 MLOAD DUP1 SWAP2 SUB SWAP1 RETURN JUMPDEST PUSH2 0x9B PUSH1 0x4 DUP1 CALLDATASIZE SUB DUP2 ADD SWAP1 PUSH2 0x96 SWAP2 SWAP1 PUSH2 0x1100 JUMP JUMPDEST PUSH2 0x6F7 JUMP JUMPDEST STOP JUMPDEST PUSH2 0xB7 PUSH1 0x4 DUP1 CALLDATASIZE SUB DUP2 ADD SWAP1 PUSH2 0xB2 SWAP2 SWAP1 PUSH2 0x10D3 JUMP JUMPDEST PUSH2 0x909 JUMP JUMPDEST PUSH1 0x40 MLOAD PUSH2 0xC8 SWAP6 SWAP5 SWAP4 SWAP3 SWAP2 SWAP1 PUSH2 0x1552 JUMP JUMPDEST PUSH1 0x40 MLOAD DUP1 SWAP2 SUB SWAP1 RETURN JUMPDEST PUSH2 0xEB PUSH1 0x4 DUP1 CALLDATASIZE SUB DUP2 ADD SWAP1 PUSH2 0xE6 SWAP2 SWAP1 PUSH2 0x10D3 JUMP JUMPDEST PUSH2 0xCBF JUMP JUMPDEST PUSH1 0x40 MLOAD PUSH2 0xFA SWAP4 SWAP3 SWAP2 SWAP1 PUSH2 0x1506 JUMP JUMPDEST PUSH1 0x40 MLOAD DUP1 SWAP2 SUB SWAP1 RETURN JUMPDEST PUSH1 0x60 PUSH1 0x0 DUP1 SLOAD SWAP1 POP DUP3 DUP5 PUSH2 0x117 SWAP2 SWAP1 PUSH2 0x169D JUMP JUMPDEST GT ISZERO PUSH2 0x158 JUMPI PUSH1 0x40 MLOAD PUSH32 0x8C379A000000000000000000000000000000000000000000000000000000000 DUP2 MSTORE PUSH1 0x4 ADD PUSH2 0x14F SWAP1 PUSH2 0x15C1 JUMP JUMPDEST PUSH1 0x40 MLOAD DUP1 SWAP2 SUB SWAP1 REVERT JUMPDEST PUSH1 0x0 DUP3 PUSH8 0xFFFFFFFFFFFFFFFF DUP2 GT ISZERO PUSH2 0x174 JUMPI PUSH2 0x173 PUSH2 0x18AA JUMP JUMPDEST JUMPDEST PUSH1 0x40 MLOAD SWAP1 DUP1 DUP3 MSTORE DUP1 PUSH1 0x20 MUL PUSH1 0x20 ADD DUP3 ADD PUSH1 0x40 MSTORE DUP1 ISZERO PUSH2 0x1AD JUMPI DUP2 PUSH1 0x20 ADD JUMPDEST PUSH2 0x19A PUSH2 0xF3B JUMP JUMPDEST DUP2 MSTORE PUSH1 0x20 ADD SWAP1 PUSH1 0x1 SWAP1 SUB SWAP1 DUP2 PUSH2 0x192 JUMPI SWAP1 POP JUMPDEST POP SWAP1 POP PUSH1 0x0 DUP1 DUP6 SWAP1 POP JUMPDEST DUP5 DUP7 PUSH2 0x1C3 SWAP2 SWAP1 PUSH2 0x169D JUMP JUMPDEST DUP2 LT ISZERO PUSH2 0x6EB JUMPI PUSH1 0x0 DUP1 DUP3 DUP2 SLOAD DUP2 LT PUSH2 0x1DF JUMPI PUSH2 0x1DE PUSH2 0x187B JUMP JUMPDEST JUMPDEST SWAP1 PUSH1 0x0 MSTORE PUSH1 0x20 PUSH1 0x0 KECCAK256 ADD PUSH1 0x0 SWAP1 SLOAD SWAP1 PUSH2 0x100 EXP SWAP1 DIV PUSH20 0xFFFFFFFFFFFFFFFFFFFFFFFFFFFFFFFFFFFFFFFF AND SWAP1 POP PUSH1 0x1 PUSH1 0x0 DUP3 PUSH20 0xFFFFFFFFFFFFFFFFFFFFFFFFFFFFFFFFFFFFFFFF AND PUSH20 0xFFFFFFFFFFFFFFFFFFFFFFFFFFFFFFFFFFFFFFFF AND DUP2 MSTORE PUSH1 0x20 ADD SWAP1 DUP2 MSTORE PUSH1 0x20 ADD PUSH1 0x0 KECCAK256 PUSH1 0x40 MLOAD DUP1 PUSH2 0x100 ADD PUSH1 0x40 MSTORE SWAP1 DUP2 PUSH1 0x0 DUP3 ADD DUP1 SLOAD PUSH2 0x267 SWAP1 PUSH2 0x1771 JUMP JUMPDEST DUP1 PUSH1 0x1F ADD PUSH1 0x20 DUP1 SWAP2 DIV MUL PUSH1 0x20 ADD PUSH1 0x40 MLOAD SWAP1 DUP2 ADD PUSH1 0x40 MSTORE DUP1 SWAP3 SWAP2 SWAP1 DUP2 DUP2 MSTORE PUSH1 0x20 ADD DUP3 DUP1 SLOAD PUSH2 0x293 SWAP1 PUSH2 0x1771 JUMP JUMPDEST DUP1 ISZERO PUSH2 0x2E0 JUMPI DUP1 PUSH1 0x1F LT PUSH2 0x2B5 JUMPI PUSH2 0x100 DUP1 DUP4 SLOAD DIV MUL DUP4 MSTORE SWAP2 PUSH1 0x20 ADD SWAP2 PUSH2 0x2E0 JUMP JUMPDEST DUP3 ADD SWAP2 SWAP1 PUSH1 0x0 MSTORE PUSH1 0x20 PUSH1 0x0 KECCAK256 SWAP1 JUMPDEST DUP2 SLOAD DUP2 MSTORE SWAP1 PUSH1 0x1 ADD SWAP1 PUSH1 0x20 ADD DUP1 DUP4 GT PUSH2 0x2C3 JUMPI DUP3 SWAP1 SUB PUSH1 0x1F AND DUP3 ADD SWAP2 JUMPDEST POP POP POP POP POP DUP2 MSTORE PUSH1 0x20 ADD PUSH1 0x1 DUP3 ADD DUP1 SLOAD PUSH2 0x2F9 SWAP1 PUSH2 0x1771 JUMP JUMPDEST DUP1 PUSH1 0x1F ADD PUSH1 0x20 DUP1 SWAP2 DIV MUL PUSH1 0x20 ADD PUSH1 0x40 MLOAD SWAP1 DUP2 ADD PUSH1 0x40 MSTORE DUP1 SWAP3 SWAP2 SWAP1 DUP2 DUP2 MSTORE PUSH1 0x20 ADD DUP3 DUP1 SLOAD PUSH2 0x325 SWAP1 PUSH2 0x1771 JUMP JUMPDEST DUP1 ISZERO PUSH2 0x372 JUMPI DUP1 PUSH1 0x1F LT PUSH2 0x347 JUMPI PUSH2 0x100 DUP1 DUP4 SLOAD DIV MUL DUP4 MSTORE SWAP2 PUSH1 0x20 ADD SWAP2 PUSH2 0x372 JUMP JUMPDEST DUP3 ADD SWAP2 SWAP1 PUSH1 0x0 MSTORE PUSH1 0x20 PUSH1 0x0 KECCAK256 SWAP1 JUMPDEST DUP2 SLOAD DUP2 MSTORE SWAP1 PUSH1 0x1 ADD SWAP1 PUSH1 0x20 ADD DUP1 DUP4 GT PUSH2 0x355 JUMPI DUP3 SWAP1 SUB PUSH1 0x1F AND DUP3 ADD SWAP2 JUMPDEST POP POP POP POP POP DUP2 MSTORE PUSH1 0x20 ADD PUSH1 0x2 DUP3 ADD DUP1 SLOAD PUSH2 0x38B SWAP1 PUSH2 0x1771 JUMP JUMPDEST DUP1 PUSH1 0x1F ADD PUSH1 0x20 DUP1 SWAP2 DIV MUL PUSH1 0x20 ADD PUSH1 0x40 MLOAD SWAP1 DUP2 ADD PUSH1 0x40 MSTORE DUP1 SWAP3 SWAP2 SWAP1 DUP2 DUP2 MSTORE PUSH1 0x20 ADD DUP3 DUP1 SLOAD PUSH2 0x3B7 SWAP1 PUSH2 0x1771 JUMP JUMPDEST DUP1 ISZERO PUSH2 0x404 JUMPI DUP1 PUSH1 0x1F LT PUSH2 0x3D9 JUMPI PUSH2 0x100 DUP1 DUP4 SLOAD DIV MUL DUP4 MSTORE SWAP2 PUSH1 0x20 ADD SWAP2 PUSH2 0x404 JUMP JUMPDEST DUP3 ADD SWAP2 SWAP1 PUSH1 0x0 MSTORE PUSH1 0x20 PUSH1 0x0 KECCAK256 SWAP1 JUMPDEST DUP2 SLOAD DUP2 MSTORE SWAP1 PUSH1 0x1 ADD SWAP1 PUSH1 0x20 ADD DUP1 DUP4 GT PUSH2 0x3E7 JUMPI DUP3 SWAP1 SUB PUSH1 0x1F AND DUP3 ADD SWAP2 JUMPDEST POP POP POP POP POP DUP2 MSTORE PUSH1 0x20 ADD PUSH1 0x3 DUP3 ADD DUP1 SLOAD PUSH2 0x41D SWAP1 PUSH2 0x1771 JUMP JUMPDEST DUP1 PUSH1 0x1F ADD PUSH1 0x20 DUP1 SWAP2 DIV MUL PUSH1 0x20 ADD PUSH1 0x40 MLOAD SWAP1 DUP2 ADD PUSH1 0x40 MSTORE DUP1 SWAP3 SWAP2 SWAP1 DUP2 DUP2 MSTORE PUSH1 0x20 ADD DUP3 DUP1 SLOAD PUSH2 0x449 SWAP1 PUSH2 0x1771 JUMP JUMPDEST DUP1 ISZERO PUSH2 0x496 JUMPI DUP1 PUSH1 0x1F LT PUSH2 0x46B JUMPI PUSH2 0x100 DUP1 DUP4 SLOAD DIV MUL DUP4 MSTORE SWAP2 PUSH1 0x20 ADD SWAP2 PUSH2 0x496 JUMP JUMPDEST DUP3 ADD SWAP2 SWAP1 PUSH1 0x0 MSTORE PUSH1 0x20 PUSH1 0x0 KECCAK256 SWAP1 JUMPDEST DUP2 SLOAD DUP2 MSTORE SWAP1 PUSH1 0x1 ADD SWAP1 PUSH1 0x20 ADD DUP1 DUP4 GT PUSH2 0x479 JUMPI DUP3 SWAP1 SUB PUSH1 0x1F AND DUP3 ADD SWAP2 JUMPDEST POP POP POP POP POP DUP2 MSTORE PUSH1 0x20 ADD PUSH1 0x4 DUP3 ADD DUP1 SLOAD PUSH2 0x4AF SWAP1 PUSH2 0x1771 JUMP JUMPDEST DUP1 PUSH1 0x1F ADD PUSH1 0x20 DUP1 SWAP2 DIV MUL PUSH1 0x20 ADD PUSH1 0x40 MLOAD SWAP1 DUP2 ADD PUSH1 0x40 MSTORE DUP1 SWAP3 SWAP2 SWAP1 DUP2 DUP2 MSTORE PUSH1 0x20 ADD DUP3 DUP1 SLOAD PUSH2 0x4DB SWAP1 PUSH2 0x1771 JUMP JUMPDEST DUP1 ISZERO PUSH2 0x528 JUMPI DUP1 PUSH1 0x1F LT PUSH2 0x4FD JUMPI PUSH2 0x100 DUP1 DUP4 SLOAD DIV MUL DUP4 MSTORE SWAP2 PUSH1 0x20 ADD SWAP2 PUSH2 0x528 JUMP JUMPDEST DUP3 ADD SWAP2 SWAP1 PUSH1 0x0 MSTORE PUSH1 0x20 PUSH1 0x0 KECCAK256 SWAP1 JUMPDEST DUP2 SLOAD DUP2 MSTORE SWAP1 PUSH1 0x1 ADD SWAP1 PUSH1 0x20 ADD DUP1 DUP4 GT PUSH2 0x50B JUMPI DUP3 SWAP1 SUB PUSH1 0x1F AND DUP3 ADD SWAP2 JUMPDEST POP POP POP POP POP DUP2 MSTORE PUSH1 0x20 ADD PUSH1 0x5 DUP3 ADD DUP1 SLOAD PUSH2 0x541 SWAP1 PUSH2 0x1771 JUMP JUMPDEST DUP1 PUSH1 0x1F ADD PUSH1 0x20 DUP1 SWAP2 DIV MUL PUSH1 0x20 ADD PUSH1 0x40 MLOAD SWAP1 DUP2 ADD PUSH1 0x40 MSTORE DUP1 SWAP3 SWAP2 SWAP1 DUP2 DUP2 MSTORE PUSH1 0x20 ADD DUP3 DUP1 SLOAD PUSH2 0x56D SWAP1 PUSH2 0x1771 JUMP JUMPDEST DUP1 ISZERO PUSH2 0x5BA JUMPI DUP1 PUSH1 0x1F LT PUSH2 0x58F JUMPI PUSH2 0x100 DUP1 DUP4 SLOAD DIV MUL DUP4 MSTORE SWAP2 PUSH1 0x20 ADD SWAP2 PUSH2 0x5BA JUMP JUMPDEST DUP3 ADD SWAP2 SWAP1 PUSH1 0x0 MSTORE PUSH1 0x20 PUSH1 0x0 KECCAK256 SWAP1 JUMPDEST DUP2 SLOAD DUP2 MSTORE SWAP1 PUSH1 0x1 ADD SWAP1 PUSH1 0x20 ADD DUP1 DUP4 GT PUSH2 0x59D JUMPI DUP3 SWAP1 SUB PUSH1 0x1F AND DUP3 ADD SWAP2 JUMPDEST POP POP POP POP POP DUP2 MSTORE PUSH1 0x20 ADD PUSH1 0x6 DUP3 ADD DUP1 SLOAD PUSH2 0x5D3 SWAP1 PUSH2 0x1771 JUMP JUMPDEST DUP1 PUSH1 0x1F ADD PUSH1 0x20 DUP1 SWAP2 DIV MUL PUSH1 0x20 ADD PUSH1 0x40 MLOAD SWAP1 DUP2 ADD PUSH1 0x40 MSTORE DUP1 SWAP3 SWAP2 SWAP1 DUP2 DUP2 MSTORE PUSH1 0x20 ADD DUP3 DUP1 SLOAD PUSH2 0x5FF SWAP1 PUSH2 0x1771 JUMP JUMPDEST DUP1 ISZERO PUSH2 0x64C JUMPI DUP1 PUSH1 0x1F LT PUSH2 0x621 JUMPI PUSH2 0x100 DUP1 DUP4 SLOAD DIV MUL DUP4 MSTORE SWAP2 PUSH1 0x20 ADD SWAP2 PUSH2 0x64C JUMP JUMPDEST DUP3 ADD SWAP2 SWAP1 PUSH1 0x0 MSTORE PUSH1 0x20 PUSH1 0x0 KECCAK256 SWAP1 JUMPDEST DUP2 SLOAD DUP2 MSTORE SWAP1 PUSH1 0x1 ADD SWAP1 PUSH1 0x20 ADD DUP1 DUP4 GT PUSH2 0x62F JUMPI DUP3 SWAP1 SUB PUSH1 0x1F AND DUP3 ADD SWAP2 JUMPDEST POP POP POP POP POP DUP2 MSTORE PUSH1 0x20 ADD PUSH1 0x7 DUP3 ADD PUSH1 0x0 SWAP1 SLOAD SWAP1 PUSH2 0x100 EXP SWAP1 DIV PUSH20 0xFFFFFFFFFFFFFFFFFFFFFFFFFFFFFFFFFFFFFFFF AND PUSH20 0xFFFFFFFFFFFFFFFFFFFFFFFFFFFFFFFFFFFFFFFF AND PUSH20 0xFFFFFFFFFFFFFFFFFFFFFFFFFFFFFFFFFFFFFFFF AND DUP2 MSTORE POP POP DUP5 DUP5 DUP2 MLOAD DUP2 LT PUSH2 0x6BE JUMPI PUSH2 0x6BD PUSH2 0x187B JUMP JUMPDEST JUMPDEST PUSH1 0x20 MUL PUSH1 0x20 ADD ADD DUP2 SWAP1 MSTORE POP DUP3 DUP1 PUSH2 0x6D4 SWAP1 PUSH2 0x17D4 JUMP JUMPDEST SWAP4 POP POP POP DUP1 DUP1 PUSH2 0x6E3 SWAP1 PUSH2 0x17D4 JUMP JUMPDEST SWAP2 POP POP PUSH2 0x1B7 JUMP JUMPDEST POP DUP2 SWAP3 POP POP POP SWAP3 SWAP2 POP POP JUMP JUMPDEST PUSH1 0x40 MLOAD DUP1 PUSH2 0x100 ADD PUSH1 0x40 MSTORE DUP1 DUP10 DUP2 MSTORE PUSH1 0x20 ADD DUP9 DUP2 MSTORE PUSH1 0x20 ADD DUP8 DUP2 MSTORE PUSH1 0x20 ADD DUP7 DUP2 MSTORE PUSH1 0x20 ADD DUP6 DUP2 MSTORE PUSH1 0x20 ADD DUP5 DUP2 MSTORE PUSH1 0x20 ADD DUP4 DUP2 MSTORE PUSH1 0x20 ADD DUP3 PUSH20 0xFFFFFFFFFFFFFFFFFFFFFFFFFFFFFFFFFFFFFFFF AND DUP2 MSTORE POP PUSH1 0x1 PUSH1 0x0 DUP12 PUSH20 0xFFFFFFFFFFFFFFFFFFFFFFFFFFFFFFFFFFFFFFFF AND PUSH20 0xFFFFFFFFFFFFFFFFFFFFFFFFFFFFFFFFFFFFFFFF AND DUP2 MSTORE PUSH1 0x20 ADD SWAP1 DUP2 MSTORE PUSH1 0x20 ADD PUSH1 0x0 KECCAK256 PUSH1 0x0 DUP3 ADD MLOAD DUP2 PUSH1 0x0 ADD SWAP1 DUP1 MLOAD SWAP1 PUSH1 0x20 ADD SWAP1 PUSH2 0x7A2 SWAP3 SWAP2 SWAP1 PUSH2 0xF96 JUMP JUMPDEST POP PUSH1 0x20 DUP3 ADD MLOAD DUP2 PUSH1 0x1 ADD SWAP1 DUP1 MLOAD SWAP1 PUSH1 0x20 ADD SWAP1 PUSH2 0x7BF SWAP3 SWAP2 SWAP1 PUSH2 0xF96 JUMP JUMPDEST POP PUSH1 0x40 DUP3 ADD MLOAD DUP2 PUSH1 0x2 ADD SWAP1 DUP1 MLOAD SWAP1 PUSH1 0x20 ADD SWAP1 PUSH2 0x7DC SWAP3 SWAP2 SWAP1 PUSH2 0xF96 JUMP JUMPDEST POP PUSH1 0x60 DUP3 ADD MLOAD DUP2 PUSH1 0x3 ADD SWAP1 DUP1 MLOAD SWAP1 PUSH1 0x20 ADD SWAP1 PUSH2 0x7F9 SWAP3 SWAP2 SWAP1 PUSH2 0xF96 JUMP JUMPDEST POP PUSH1 0x80 DUP3 ADD MLOAD DUP2 PUSH1 0x4 ADD SWAP1 DUP1 MLOAD SWAP1 PUSH1 0x20 ADD SWAP1 PUSH2 0x816 SWAP3 SWAP2 SWAP1 PUSH2 0xF96 JUMP JUMPDEST POP PUSH1 0xA0 DUP3 ADD MLOAD DUP2 PUSH1 0x5 ADD SWAP1 DUP1 MLOAD SWAP1 PUSH1 0x20 ADD SWAP1 PUSH2 0x833 SWAP3 SWAP2 SWAP1 PUSH2 0xF96 JUMP JUMPDEST POP PUSH1 0xC0 DUP3 ADD MLOAD DUP2 PUSH1 0x6 ADD SWAP1 DUP1 MLOAD SWAP1 PUSH1 0x20 ADD SWAP1 PUSH2 0x850 SWAP3 SWAP2 SWAP1 PUSH2 0xF96 JUMP JUMPDEST POP PUSH1 0xE0 DUP3 ADD MLOAD DUP2 PUSH1 0x7 ADD PUSH1 0x0 PUSH2 0x100 EXP DUP2 SLOAD DUP2 PUSH20 0xFFFFFFFFFFFFFFFFFFFFFFFFFFFFFFFFFFFFFFFF MUL NOT AND SWAP1 DUP4 PUSH20 0xFFFFFFFFFFFFFFFFFFFFFFFFFFFFFFFFFFFFFFFF AND MUL OR SWAP1 SSTORE POP SWAP1 POP POP PUSH1 0x0 DUP10 SWAP1 DUP1 PUSH1 0x1 DUP2 SLOAD ADD DUP1 DUP3 SSTORE DUP1 SWAP2 POP POP PUSH1 0x1 SWAP1 SUB SWAP1 PUSH1 0x0 MSTORE PUSH1 0x20 PUSH1 0x0 KECCAK256 ADD PUSH1 0x0 SWAP1 SWAP2 SWAP1 SWAP2 SWAP1 SWAP2 PUSH2 0x100 EXP DUP2 SLOAD DUP2 PUSH20 0xFFFFFFFFFFFFFFFFFFFFFFFFFFFFFFFFFFFFFFFF MUL NOT AND SWAP1 DUP4 PUSH20 0xFFFFFFFFFFFFFFFFFFFFFFFFFFFFFFFFFFFFFFFF AND MUL OR SWAP1 SSTORE POP POP POP POP POP POP POP POP POP POP JUMP JUMPDEST PUSH1 0x60 DUP1 PUSH1 0x60 DUP1 PUSH1 0x0 PUSH1 0x1 PUSH1 0x0 DUP8 PUSH20 0xFFFFFFFFFFFFFFFFFFFFFFFFFFFFFFFFFFFFFFFF AND PUSH20 0xFFFFFFFFFFFFFFFFFFFFFFFFFFFFFFFFFFFFFFFF AND DUP2 MSTORE PUSH1 0x20 ADD SWAP1 DUP2 MSTORE PUSH1 0x20 ADD PUSH1 0x0 KECCAK256 PUSH1 0x2 ADD PUSH1 0x1 PUSH1 0x0 DUP9 PUSH20 0xFFFFFFFFFFFFFFFFFFFFFFFFFFFFFFFFFFFFFFFF AND PUSH20 0xFFFFFFFFFFFFFFFFFFFFFFFFFFFFFFFFFFFFFFFF AND DUP2 MSTORE PUSH1 0x20 ADD SWAP1 DUP2 MSTORE PUSH1 0x20 ADD PUSH1 0x0 KECCAK256 PUSH1 0x3 ADD PUSH1 0x1 PUSH1 0x0 DUP10 PUSH20 0xFFFFFFFFFFFFFFFFFFFFFFFFFFFFFFFFFFFFFFFF AND PUSH20 0xFFFFFFFFFFFFFFFFFFFFFFFFFFFFFFFFFFFFFFFF AND DUP2 MSTORE PUSH1 0x20 ADD SWAP1 DUP2 MSTORE PUSH1 0x20 ADD PUSH1 0x0 KECCAK256 PUSH1 0x4 ADD PUSH1 0x1 PUSH1 0x0 DUP11 PUSH20 0xFFFFFFFFFFFFFFFFFFFFFFFFFFFFFFFFFFFFFFFF AND PUSH20 0xFFFFFFFFFFFFFFFFFFFFFFFFFFFFFFFFFFFFFFFF AND DUP2 MSTORE PUSH1 0x20 ADD SWAP1 DUP2 MSTORE PUSH1 0x20 ADD PUSH1 0x0 KECCAK256 PUSH1 0x5 ADD PUSH1 0x1 PUSH1 0x0 DUP12 PUSH20 0xFFFFFFFFFFFFFFFFFFFFFFFFFFFFFFFFFFFFFFFF AND PUSH20 0xFFFFFFFFFFFFFFFFFFFFFFFFFFFFFFFFFFFFFFFF AND DUP2 MSTORE PUSH1 0x20 ADD SWAP1 DUP2 MSTORE PUSH1 0x20 ADD PUSH1 0x0 KECCAK256 PUSH1 0x7 ADD PUSH1 0x0 SWAP1 SLOAD SWAP1 PUSH2 0x100 EXP SWAP1 DIV PUSH20 0xFFFFFFFFFFFFFFFFFFFFFFFFFFFFFFFFFFFFFFFF AND DUP5 DUP1 SLOAD PUSH2 0xA88 SWAP1 PUSH2 0x1771 JUMP JUMPDEST DUP1 PUSH1 0x1F ADD PUSH1 0x20 DUP1 SWAP2 DIV MUL PUSH1 0x20 ADD PUSH1 0x40 MLOAD SWAP1 DUP2 ADD PUSH1 0x40 MSTORE DUP1 SWAP3 SWAP2 SWAP1 DUP2 DUP2 MSTORE PUSH1 0x20 ADD DUP3 DUP1 SLOAD PUSH2 0xAB4 SWAP1 PUSH2 0x1771 JUMP JUMPDEST DUP1 ISZERO PUSH2 0xB01 JUMPI DUP1 PUSH1 0x1F LT PUSH2 0xAD6 JUMPI PUSH2 0x100 DUP1 DUP4 SLOAD DIV MUL DUP4 MSTORE SWAP2 PUSH1 0x20 ADD SWAP2 PUSH2 0xB01 JUMP JUMPDEST DUP3 ADD SWAP2 SWAP1 PUSH1 0x0 MSTORE PUSH1 0x20 PUSH1 0x0 KECCAK256 SWAP1 JUMPDEST DUP2 SLOAD DUP2 MSTORE SWAP1 PUSH1 0x1 ADD SWAP1 PUSH1 0x20 ADD DUP1 DUP4 GT PUSH2 0xAE4 JUMPI DUP3 SWAP1 SUB PUSH1 0x1F AND DUP3 ADD SWAP2 JUMPDEST POP POP POP POP POP SWAP5 POP DUP4 DUP1 SLOAD PUSH2 0xB14 SWAP1 PUSH2 0x1771 JUMP JUMPDEST DUP1 PUSH1 0x1F ADD PUSH1 0x20 DUP1 SWAP2 DIV MUL PUSH1 0x20 ADD PUSH1 0x40 MLOAD SWAP1 DUP2 ADD PUSH1 0x40 MSTORE DUP1 SWAP3 SWAP2 SWAP1 DUP2 DUP2 MSTORE PUSH1 0x20 ADD DUP3 DUP1 SLOAD PUSH2 0xB40 SWAP1 PUSH2 0x1771 JUMP JUMPDEST DUP1 ISZERO PUSH2 0xB8D JUMPI DUP1 PUSH1 0x1F LT PUSH2 0xB62 JUMPI PUSH2 0x100 DUP1 DUP4 SLOAD DIV MUL DUP4 MSTORE SWAP2 PUSH1 0x20 ADD SWAP2 PUSH2 0xB8D JUMP JUMPDEST DUP3 ADD SWAP2 SWAP1 PUSH1 0x0 MSTORE PUSH1 0x20 PUSH1 0x0 KECCAK256 SWAP1 JUMPDEST DUP2 SLOAD DUP2 MSTORE SWAP1 PUSH1 0x1 ADD SWAP1 PUSH1 0x20 ADD DUP1 DUP4 GT PUSH2 0xB70 JUMPI DUP3 SWAP1 SUB PUSH1 0x1F AND DUP3 ADD SWAP2 JUMPDEST POP POP POP POP POP SWAP4 POP DUP3 DUP1 SLOAD PUSH2 0xBA0 SWAP1 PUSH2 0x1771 JUMP JUMPDEST DUP1 PUSH1 0x1F ADD PUSH1 0x20 DUP1 SWAP2 DIV MUL PUSH1 0x20 ADD PUSH1 0x40 MLOAD SWAP1 DUP2 ADD PUSH1 0x40 MSTORE DUP1 SWAP3 SWAP2 SWAP1 DUP2 DUP2 MSTORE PUSH1 0x20 ADD DUP3 DUP1 SLOAD PUSH2 0xBCC SWAP1 PUSH2 0x1771 JUMP JUMPDEST DUP1 ISZERO PUSH2 0xC19 JUMPI DUP1 PUSH1 0x1F LT PUSH2 0xBEE JUMPI PUSH2 0x100 DUP1 DUP4 SLOAD DIV MUL DUP4 MSTORE SWAP2 PUSH1 0x20 ADD SWAP2 PUSH2 0xC19 JUMP JUMPDEST DUP3 ADD SWAP2 SWAP1 PUSH1 0x0 MSTORE PUSH1 0x20 PUSH1 0x0 KECCAK256 SWAP1 JUMPDEST DUP2 SLOAD DUP2 MSTORE SWAP1 PUSH1 0x1 ADD SWAP1 PUSH1 0x20 ADD DUP1 DUP4 GT PUSH2 0xBFC JUMPI DUP3 SWAP1 SUB PUSH1 0x1F AND DUP3 ADD SWAP2 JUMPDEST POP POP POP POP POP SWAP3 POP DUP2 DUP1 SLOAD PUSH2 0xC2C SWAP1 PUSH2 0x1771 JUMP JUMPDEST DUP1 PUSH1 0x1F ADD PUSH1 0x20 DUP1 SWAP2 DIV MUL PUSH1 0x20 ADD PUSH1 0x40 MLOAD SWAP1 DUP2 ADD PUSH1 0x40 MSTORE DUP1 SWAP3 SWAP2 SWAP1 DUP2 DUP2 MSTORE PUSH1 0x20 ADD DUP3 DUP1 SLOAD PUSH2 0xC58 SWAP1 PUSH2 0x1771 JUMP JUMPDEST DUP1 ISZERO PUSH2 0xCA5 JUMPI DUP1 PUSH1 0x1F LT PUSH2 0xC7A JUMPI PUSH2 0x100 DUP1 DUP4 SLOAD DIV MUL DUP4 MSTORE SWAP2 PUSH1 0x20 ADD SWAP2 PUSH2 0xCA5 JUMP JUMPDEST DUP3 ADD SWAP2 SWAP1 PUSH1 0x0 MSTORE PUSH1 0x20 PUSH1 0x0 KECCAK256 SWAP1 JUMPDEST DUP2 SLOAD DUP2 MSTORE SWAP1 PUSH1 0x1 ADD SWAP1 PUSH1 0x20 ADD DUP1 DUP4 GT PUSH2 0xC88 JUMPI DUP3 SWAP1 SUB PUSH1 0x1F AND DUP3 ADD SWAP2 JUMPDEST POP POP POP POP POP SWAP2 POP SWAP5 POP SWAP5 POP SWAP5 POP SWAP5 POP SWAP5 POP SWAP2 SWAP4 SWAP6 SWAP1 SWAP3 SWAP5 POP JUMP JUMPDEST PUSH1 0x60 DUP1 PUSH1 0x60 PUSH1 0x1 PUSH1 0x0 DUP6 PUSH20 0xFFFFFFFFFFFFFFFFFFFFFFFFFFFFFFFFFFFFFFFF AND PUSH20 0xFFFFFFFFFFFFFFFFFFFFFFFFFFFFFFFFFFFFFFFF AND DUP2 MSTORE PUSH1 0x20 ADD SWAP1 DUP2 MSTORE PUSH1 0x20 ADD PUSH1 0x0 KECCAK256 PUSH1 0x0 ADD PUSH1 0x1 PUSH1 0x0 DUP7 PUSH20 0xFFFFFFFFFFFFFFFFFFFFFFFFFFFFFFFFFFFFFFFF AND PUSH20 0xFFFFFFFFFFFFFFFFFFFFFFFFFFFFFFFFFFFFFFFF AND DUP2 MSTORE PUSH1 0x20 ADD SWAP1 DUP2 MSTORE PUSH1 0x20 ADD PUSH1 0x0 KECCAK256 PUSH1 0x1 ADD PUSH1 0x1 PUSH1 0x0 DUP8 PUSH20 0xFFFFFFFFFFFFFFFFFFFFFFFFFFFFFFFFFFFFFFFF AND PUSH20 0xFFFFFFFFFFFFFFFFFFFFFFFFFFFFFFFFFFFFFFFF AND DUP2 MSTORE PUSH1 0x20 ADD SWAP1 DUP2 MSTORE PUSH1 0x20 ADD PUSH1 0x0 KECCAK256 PUSH1 0x6 ADD DUP3 DUP1 SLOAD PUSH2 0xD96 SWAP1 PUSH2 0x1771 JUMP JUMPDEST DUP1 PUSH1 0x1F ADD PUSH1 0x20 DUP1 SWAP2 DIV MUL PUSH1 0x20 ADD PUSH1 0x40 MLOAD SWAP1 DUP2 ADD PUSH1 0x40 MSTORE DUP1 SWAP3 SWAP2 SWAP1 DUP2 DUP2 MSTORE PUSH1 0x20 ADD DUP3 DUP1 SLOAD PUSH2 0xDC2 SWAP1 PUSH2 0x1771 JUMP JUMPDEST DUP1 ISZERO PUSH2 0xE0F JUMPI DUP1 PUSH1 0x1F LT PUSH2 0xDE4 JUMPI PUSH2 0x100 DUP1 DUP4 SLOAD DIV MUL DUP4 MSTORE SWAP2 PUSH1 0x20 ADD SWAP2 PUSH2 0xE0F JUMP JUMPDEST DUP3 ADD SWAP2 SWAP1 PUSH1 0x0 MSTORE PUSH1 0x20 PUSH1 0x0 KECCAK256 SWAP1 JUMPDEST DUP2 SLOAD DUP2 MSTORE SWAP1 PUSH1 0x1 ADD SWAP1 PUSH1 0x20 ADD DUP1 DUP4 GT PUSH2 0xDF2 JUMPI DUP3 SWAP1 SUB PUSH1 0x1F AND DUP3 ADD SWAP2 JUMPDEST POP POP POP POP POP SWAP3 POP DUP2 DUP1 SLOAD PUSH2 0xE22 SWAP1 PUSH2 0x1771 JUMP JUMPDEST DUP1 PUSH1 0x1F ADD PUSH1 0x20 DUP1 SWAP2 DIV MUL PUSH1 0x20 ADD PUSH1 0x40 MLOAD SWAP1 DUP2 ADD PUSH1 0x40 MSTORE DUP1 SWAP3 SWAP2 SWAP1 DUP2 DUP2 MSTORE PUSH1 0x20 ADD DUP3 DUP1 SLOAD PUSH2 0xE4E SWAP1 PUSH2 0x1771 JUMP JUMPDEST DUP1 ISZERO PUSH2 0xE9B JUMPI DUP1 PUSH1 0x1F LT PUSH2 0xE70 JUMPI PUSH2 0x100 DUP1 DUP4 SLOAD DIV MUL DUP4 MSTORE SWAP2 PUSH1 0x20 ADD SWAP2 PUSH2 0xE9B JUMP JUMPDEST DUP3 ADD SWAP2 SWAP1 PUSH1 0x0 MSTORE PUSH1 0x20 PUSH1 0x0 KECCAK256 SWAP1 JUMPDEST DUP2 SLOAD DUP2 MSTORE SWAP1 PUSH1 0x1 ADD SWAP1 PUSH1 0x20 ADD DUP1 DUP4 GT PUSH2 0xE7E JUMPI DUP3 SWAP1 SUB PUSH1 0x1F AND DUP3 ADD SWAP2 JUMPDEST POP POP POP POP POP SWAP2 POP DUP1 DUP1 SLOAD PUSH2 0xEAE SWAP1 PUSH2 0x1771 JUMP JUMPDEST DUP1 PUSH1 0x1F ADD PUSH1 0x20 DUP1 SWAP2 DIV MUL PUSH1 0x20 ADD PUSH1 0x40 MLOAD SWAP1 DUP2 ADD PUSH1 0x40 MSTORE DUP1 SWAP3 SWAP2 SWAP1 DUP2 DUP2 MSTORE PUSH1 0x20 ADD DUP3 DUP1 SLOAD PUSH2 0xEDA SWAP1 PUSH2 0x1771 JUMP JUMPDEST DUP1 ISZERO PUSH2 0xF27 JUMPI DUP1 PUSH1 0x1F LT PUSH2 0xEFC JUMPI PUSH2 0x100 DUP1 DUP4 SLOAD DIV MUL DUP4 MSTORE SWAP2 PUSH1 0x20 ADD SWAP2 PUSH2 0xF27 JUMP JUMPDEST DUP3 ADD SWAP2 SWAP1 PUSH1 0x0 MSTORE PUSH1 0x20 PUSH1 0x0 KECCAK256 SWAP1 JUMPDEST DUP2 SLOAD DUP2 MSTORE SWAP1 PUSH1 0x1 ADD SWAP1 PUSH1 0x20 ADD DUP1 DUP4 GT PUSH2 0xF0A JUMPI DUP3 SWAP1 SUB PUSH1 0x1F AND DUP3 ADD SWAP2 JUMPDEST POP POP POP POP POP SWAP1 POP SWAP3 POP SWAP3 POP SWAP3 POP SWAP2 SWAP4 SWAP1 SWAP3 POP JUMP JUMPDEST PUSH1 0x40 MLOAD DUP1 PUSH2 0x100 ADD PUSH1 0x40 MSTORE DUP1 PUSH1 0x60 DUP2 MSTORE PUSH1 0x20 ADD PUSH1 0x60 DUP2 MSTORE PUSH1 0x20 ADD PUSH1 0x60 DUP2 MSTORE PUSH1 0x20 ADD PUSH1 0x60 DUP2 MSTORE PUSH1 0x20 ADD PUSH1 0x60 DUP2 MSTORE PUSH1 0x20 ADD PUSH1 0x60 DUP2 MSTORE PUSH1 0x20 ADD PUSH1 0x60 DUP2 MSTORE PUSH1 0x20 ADD PUSH1 0x0 PUSH20 0xFFFFFFFFFFFFFFFFFFFFFFFFFFFFFFFFFFFFFFFF AND DUP2 MSTORE POP SWAP1 JUMP JUMPDEST DUP3 DUP1 SLOAD PUSH2 0xFA2 SWAP1 PUSH2 0x1771 JUMP JUMPDEST SWAP1 PUSH1 0x0 MSTORE PUSH1 0x20 PUSH1 0x0 KECCAK256 SWAP1 PUSH1 0x1F ADD PUSH1 0x20 SWAP1 DIV DUP2 ADD SWAP3 DUP3 PUSH2 0xFC4 JUMPI PUSH1 0x0 DUP6 SSTORE PUSH2 0x100B JUMP JUMPDEST DUP3 PUSH1 0x1F LT PUSH2 0xFDD JUMPI DUP1 MLOAD PUSH1 0xFF NOT AND DUP4 DUP1 ADD OR DUP6 SSTORE PUSH2 0x100B JUMP JUMPDEST DUP3 DUP1 ADD PUSH1 0x1 ADD DUP6 SSTORE DUP3 ISZERO PUSH2 0x100B JUMPI SWAP2 DUP3 ADD JUMPDEST DUP3 DUP2 GT ISZERO PUSH2 0x100A JUMPI DUP3 MLOAD DUP3 SSTORE SWAP2 PUSH1 0x20 ADD SWAP2 SWAP1 PUSH1 0x1 ADD SWAP1 PUSH2 0xFEF JUMP JUMPDEST JUMPDEST POP SWAP1 POP PUSH2 0x1018 SWAP2 SWAP1 PUSH2 0x101C JUMP JUMPDEST POP SWAP1 JUMP JUMPDEST JUMPDEST DUP1 DUP3 GT ISZERO PUSH2 0x1035 JUMPI PUSH1 0x0 DUP2 PUSH1 0x0 SWAP1 SSTORE POP PUSH1 0x1 ADD PUSH2 0x101D JUMP JUMPDEST POP SWAP1 JUMP JUMPDEST PUSH1 0x0 PUSH2 0x104C PUSH2 0x1047 DUP5 PUSH2 0x1606 JUMP JUMPDEST PUSH2 0x15E1 JUMP JUMPDEST SWAP1 POP DUP3 DUP2 MSTORE PUSH1 0x20 DUP2 ADD DUP5 DUP5 DUP5 ADD GT ISZERO PUSH2 0x1068 JUMPI PUSH2 0x1067 PUSH2 0x18DE JUMP JUMPDEST JUMPDEST PUSH2 0x1073 DUP5 DUP3 DUP6 PUSH2 0x172F JUMP JUMPDEST POP SWAP4 SWAP3 POP POP POP JUMP JUMPDEST PUSH1 0x0 DUP2 CALLDATALOAD SWAP1 POP PUSH2 0x108A DUP2 PUSH2 0x1973 JUMP JUMPDEST SWAP3 SWAP2 POP POP JUMP JUMPDEST PUSH1 0x0 DUP3 PUSH1 0x1F DUP4 ADD SLT PUSH2 0x10A5 JUMPI PUSH2 0x10A4 PUSH2 0x18D9 JUMP JUMPDEST JUMPDEST DUP2 CALLDATALOAD PUSH2 0x10B5 DUP5 DUP3 PUSH1 0x20 DUP7 ADD PUSH2 0x1039 JUMP JUMPDEST SWAP2 POP POP SWAP3 SWAP2 POP POP JUMP JUMPDEST PUSH1 0x0 DUP2 CALLDATALOAD SWAP1 POP PUSH2 0x10CD DUP2 PUSH2 0x198A JUMP JUMPDEST SWAP3 SWAP2 POP POP JUMP JUMPDEST PUSH1 0x0 PUSH1 0x20 DUP3 DUP5 SUB SLT ISZERO PUSH2 0x10E9 JUMPI PUSH2 0x10E8 PUSH2 0x18E8 JUMP JUMPDEST JUMPDEST PUSH1 0x0 PUSH2 0x10F7 DUP5 DUP3 DUP6 ADD PUSH2 0x107B JUMP JUMPDEST SWAP2 POP POP SWAP3 SWAP2 POP POP JUMP JUMPDEST PUSH1 0x0 DUP1 PUSH1 0x0 DUP1 PUSH1 0x0 DUP1 PUSH1 0x0 DUP1 PUSH1 0x0 PUSH2 0x120 DUP11 DUP13 SUB SLT ISZERO PUSH2 0x1123 JUMPI PUSH2 0x1122 PUSH2 0x18E8 JUMP JUMPDEST JUMPDEST PUSH1 0x0 PUSH2 0x1131 DUP13 DUP3 DUP14 ADD PUSH2 0x107B JUMP JUMPDEST SWAP10 POP POP PUSH1 0x20 DUP11 ADD CALLDATALOAD PUSH8 0xFFFFFFFFFFFFFFFF DUP2 GT ISZERO PUSH2 0x1152 JUMPI PUSH2 0x1151 PUSH2 0x18E3 JUMP JUMPDEST JUMPDEST PUSH2 0x115E DUP13 DUP3 DUP14 ADD PUSH2 0x1090 JUMP JUMPDEST SWAP9 POP POP PUSH1 0x40 DUP11 ADD CALLDATALOAD PUSH8 0xFFFFFFFFFFFFFFFF DUP2 GT ISZERO PUSH2 0x117F JUMPI PUSH2 0x117E PUSH2 0x18E3 JUMP JUMPDEST JUMPDEST PUSH2 0x118B DUP13 DUP3 DUP14 ADD PUSH2 0x1090 JUMP JUMPDEST SWAP8 POP POP PUSH1 0x60 DUP11 ADD CALLDATALOAD PUSH8 0xFFFFFFFFFFFFFFFF DUP2 GT ISZERO PUSH2 0x11AC JUMPI PUSH2 0x11AB PUSH2 0x18E3 JUMP JUMPDEST JUMPDEST PUSH2 0x11B8 DUP13 DUP3 DUP14 ADD PUSH2 0x1090 JUMP JUMPDEST SWAP7 POP POP PUSH1 0x80 DUP11 ADD CALLDATALOAD PUSH8 0xFFFFFFFFFFFFFFFF DUP2 GT ISZERO PUSH2 0x11D9 JUMPI PUSH2 0x11D8 PUSH2 0x18E3 JUMP JUMPDEST JUMPDEST PUSH2 0x11E5 DUP13 DUP3 DUP14 ADD PUSH2 0x1090 JUMP JUMPDEST SWAP6 POP POP PUSH1 0xA0 DUP11 ADD CALLDATALOAD PUSH8 0xFFFFFFFFFFFFFFFF DUP2 GT ISZERO PUSH2 0x1206 JUMPI PUSH2 0x1205 PUSH2 0x18E3 JUMP JUMPDEST JUMPDEST PUSH2 0x1212 DUP13 DUP3 DUP14 ADD PUSH2 0x1090 JUMP JUMPDEST SWAP5 POP POP PUSH1 0xC0 DUP11 ADD CALLDATALOAD PUSH8 0xFFFFFFFFFFFFFFFF DUP2 GT ISZERO PUSH2 0x1233 JUMPI PUSH2 0x1232 PUSH2 0x18E3 JUMP JUMPDEST JUMPDEST PUSH2 0x123F DUP13 DUP3 DUP14 ADD PUSH2 0x1090 JUMP JUMPDEST SWAP4 POP POP PUSH1 0xE0 DUP11 ADD CALLDATALOAD PUSH8 0xFFFFFFFFFFFFFFFF DUP2 GT ISZERO PUSH2 0x1260 JUMPI PUSH2 0x125F PUSH2 0x18E3 JUMP JUMPDEST JUMPDEST PUSH2 0x126C DUP13 DUP3 DUP14 ADD PUSH2 0x1090 JUMP JUMPDEST SWAP3 POP POP PUSH2 0x100 PUSH2 0x127E DUP13 DUP3 DUP14 ADD PUSH2 0x107B JUMP JUMPDEST SWAP2 POP POP SWAP3 SWAP6 SWAP9 POP SWAP3 SWAP6 SWAP9 POP SWAP3 SWAP6 SWAP9 JUMP JUMPDEST PUSH1 0x0 DUP1 PUSH1 0x40 DUP4 DUP6 SUB SLT ISZERO PUSH2 0x12A5 JUMPI PUSH2 0x12A4 PUSH2 0x18E8 JUMP JUMPDEST JUMPDEST PUSH1 0x0 PUSH2 0x12B3 DUP6 DUP3 DUP7 ADD PUSH2 0x10BE JUMP JUMPDEST SWAP3 POP POP PUSH1 0x20 PUSH2 0x12C4 DUP6 DUP3 DUP7 ADD PUSH2 0x10BE JUMP JUMPDEST SWAP2 POP POP SWAP3 POP SWAP3 SWAP1 POP JUMP JUMPDEST PUSH1 0x0 PUSH2 0x12DA DUP4 DUP4 PUSH2 0x140A JUMP JUMPDEST SWAP1 POP SWAP3 SWAP2 POP POP JUMP JUMPDEST PUSH2 0x12EB DUP2 PUSH2 0x16F3 JUMP JUMPDEST DUP3 MSTORE POP POP JUMP JUMPDEST PUSH2 0x12FA DUP2 PUSH2 0x16F3 JUMP JUMPDEST DUP3 MSTORE POP POP JUMP JUMPDEST PUSH1 0x0 PUSH2 0x130B DUP3 PUSH2 0x1647 JUMP JUMPDEST PUSH2 0x1315 DUP2 DUP6 PUSH2 0x166A JUMP JUMPDEST SWAP4 POP DUP4 PUSH1 0x20 DUP3 MUL DUP6 ADD PUSH2 0x1327 DUP6 PUSH2 0x1637 JUMP JUMPDEST DUP1 PUSH1 0x0 JUMPDEST DUP6 DUP2 LT ISZERO PUSH2 0x1363 JUMPI DUP5 DUP5 SUB DUP10 MSTORE DUP2 MLOAD PUSH2 0x1344 DUP6 DUP3 PUSH2 0x12CE JUMP JUMPDEST SWAP5 POP PUSH2 0x134F DUP4 PUSH2 0x165D JUMP JUMPDEST SWAP3 POP PUSH1 0x20 DUP11 ADD SWAP10 POP POP PUSH1 0x1 DUP2 ADD SWAP1 POP PUSH2 0x132B JUMP JUMPDEST POP DUP3 SWAP8 POP DUP8 SWAP6 POP POP POP POP POP POP SWAP3 SWAP2 POP POP JUMP JUMPDEST PUSH1 0x0 PUSH2 0x1380 DUP3 PUSH2 0x1652 JUMP JUMPDEST PUSH2 0x138A DUP2 DUP6 PUSH2 0x167B JUMP JUMPDEST SWAP4 POP PUSH2 0x139A DUP2 DUP6 PUSH1 0x20 DUP7 ADD PUSH2 0x173E JUMP JUMPDEST PUSH2 0x13A3 DUP2 PUSH2 0x18ED JUMP JUMPDEST DUP5 ADD SWAP2 POP POP SWAP3 SWAP2 POP POP JUMP JUMPDEST PUSH1 0x0 PUSH2 0x13B9 DUP3 PUSH2 0x1652 JUMP JUMPDEST PUSH2 0x13C3 DUP2 DUP6 PUSH2 0x168C JUMP JUMPDEST SWAP4 POP PUSH2 0x13D3 DUP2 DUP6 PUSH1 0x20 DUP7 ADD PUSH2 0x173E JUMP JUMPDEST PUSH2 0x13DC DUP2 PUSH2 0x18ED JUMP JUMPDEST DUP5 ADD SWAP2 POP POP SWAP3 SWAP2 POP POP JUMP JUMPDEST PUSH1 0x0 PUSH2 0x13F4 PUSH1 0x47 DUP4 PUSH2 0x168C JUMP JUMPDEST SWAP2 POP PUSH2 0x13FF DUP3 PUSH2 0x18FE JUMP JUMPDEST PUSH1 0x60 DUP3 ADD SWAP1 POP SWAP2 SWAP1 POP JUMP JUMPDEST PUSH1 0x0 PUSH2 0x100 DUP4 ADD PUSH1 0x0 DUP4 ADD MLOAD DUP5 DUP3 SUB PUSH1 0x0 DUP7 ADD MSTORE PUSH2 0x1428 DUP3 DUP3 PUSH2 0x1375 JUMP JUMPDEST SWAP2 POP POP PUSH1 0x20 DUP4 ADD MLOAD DUP5 DUP3 SUB PUSH1 0x20 DUP7 ADD MSTORE PUSH2 0x1442 DUP3 DUP3 PUSH2 0x1375 JUMP JUMPDEST SWAP2 POP POP PUSH1 0x40 DUP4 ADD MLOAD DUP5 DUP3 SUB PUSH1 0x40 DUP7 ADD MSTORE PUSH2 0x145C DUP3 DUP3 PUSH2 0x1375 JUMP JUMPDEST SWAP2 POP POP PUSH1 0x60 DUP4 ADD MLOAD DUP5 DUP3 SUB PUSH1 0x60 DUP7 ADD MSTORE PUSH2 0x1476 DUP3 DUP3 PUSH2 0x1375 JUMP JUMPDEST SWAP2 POP POP PUSH1 0x80 DUP4 ADD MLOAD DUP5 DUP3 SUB PUSH1 0x80 DUP7 ADD MSTORE PUSH2 0x1490 DUP3 DUP3 PUSH2 0x1375 JUMP JUMPDEST SWAP2 POP POP PUSH1 0xA0 DUP4 ADD MLOAD DUP5 DUP3 SUB PUSH1 0xA0 DUP7 ADD MSTORE PUSH2 0x14AA DUP3 DUP3 PUSH2 0x1375 JUMP JUMPDEST SWAP2 POP POP PUSH1 0xC0 DUP4 ADD MLOAD DUP5 DUP3 SUB PUSH1 0xC0 DUP7 ADD MSTORE PUSH2 0x14C4 DUP3 DUP3 PUSH2 0x1375 JUMP JUMPDEST SWAP2 POP POP PUSH1 0xE0 DUP4 ADD MLOAD PUSH2 0x14D9 PUSH1 0xE0 DUP7 ADD DUP3 PUSH2 0x12E2 JUMP JUMPDEST POP DUP1 SWAP2 POP POP SWAP3 SWAP2 POP POP JUMP JUMPDEST PUSH1 0x0 PUSH1 0x20 DUP3 ADD SWAP1 POP DUP2 DUP2 SUB PUSH1 0x0 DUP4 ADD MSTORE PUSH2 0x14FE DUP2 DUP5 PUSH2 0x1300 JUMP JUMPDEST SWAP1 POP SWAP3 SWAP2 POP POP JUMP JUMPDEST PUSH1 0x0 PUSH1 0x60 DUP3 ADD SWAP1 POP DUP2 DUP2 SUB PUSH1 0x0 DUP4 ADD MSTORE PUSH2 0x1520 DUP2 DUP7 PUSH2 0x13AE JUMP JUMPDEST SWAP1 POP DUP2 DUP2 SUB PUSH1 0x20 DUP4 ADD MSTORE PUSH2 0x1534 DUP2 DUP6 PUSH2 0x13AE JUMP JUMPDEST SWAP1 POP DUP2 DUP2 SUB PUSH1 0x40 DUP4 ADD MSTORE PUSH2 0x1548 DUP2 DUP5 PUSH2 0x13AE JUMP JUMPDEST SWAP1 POP SWAP5 SWAP4 POP POP POP POP JUMP JUMPDEST PUSH1 0x0 PUSH1 0xA0 DUP3 ADD SWAP1 POP DUP2 DUP2 SUB PUSH1 0x0 DUP4 ADD MSTORE PUSH2 0x156C DUP2 DUP9 PUSH2 0x13AE JUMP JUMPDEST SWAP1 POP DUP2 DUP2 SUB PUSH1 0x20 DUP4 ADD MSTORE PUSH2 0x1580 DUP2 DUP8 PUSH2 0x13AE JUMP JUMPDEST SWAP1 POP DUP2 DUP2 SUB PUSH1 0x40 DUP4 ADD MSTORE PUSH2 0x1594 DUP2 DUP7 PUSH2 0x13AE JUMP JUMPDEST SWAP1 POP DUP2 DUP2 SUB PUSH1 0x60 DUP4 ADD MSTORE PUSH2 0x15A8 DUP2 DUP6 PUSH2 0x13AE JUMP JUMPDEST SWAP1 POP PUSH2 0x15B7 PUSH1 0x80 DUP4 ADD DUP5 PUSH2 0x12F1 JUMP JUMPDEST SWAP7 SWAP6 POP POP POP POP POP POP JUMP JUMPDEST PUSH1 0x0 PUSH1 0x20 DUP3 ADD SWAP1 POP DUP2 DUP2 SUB PUSH1 0x0 DUP4 ADD MSTORE PUSH2 0x15DA DUP2 PUSH2 0x13E7 JUMP JUMPDEST SWAP1 POP SWAP2 SWAP1 POP JUMP JUMPDEST PUSH1 0x0 PUSH2 0x15EB PUSH2 0x15FC JUMP JUMPDEST SWAP1 POP PUSH2 0x15F7 DUP3 DUP3 PUSH2 0x17A3 JUMP JUMPDEST SWAP2 SWAP1 POP JUMP JUMPDEST PUSH1 0x0 PUSH1 0x40 MLOAD SWAP1 POP SWAP1 JUMP JUMPDEST PUSH1 0x0 PUSH8 0xFFFFFFFFFFFFFFFF DUP3 GT ISZERO PUSH2 0x1621 JUMPI PUSH2 0x1620 PUSH2 0x18AA JUMP JUMPDEST JUMPDEST PUSH2 0x162A DUP3 PUSH2 0x18ED JUMP JUMPDEST SWAP1 POP PUSH1 0x20 DUP2 ADD SWAP1 POP SWAP2 SWAP1 POP JUMP JUMPDEST PUSH1 0x0 DUP2 SWAP1 POP PUSH1 0x20 DUP3 ADD SWAP1 POP SWAP2 SWAP1 POP JUMP JUMPDEST PUSH1 0x0 DUP2 MLOAD SWAP1 POP SWAP2 SWAP1 POP JUMP JUMPDEST PUSH1 0x0 DUP2 MLOAD SWAP1 POP SWAP2 SWAP1 POP JUMP JUMPDEST PUSH1 0x0 PUSH1 0x20 DUP3 ADD SWAP1 POP SWAP2 SWAP1 POP JUMP JUMPDEST PUSH1 0x0 DUP3 DUP3 MSTORE PUSH1 0x20 DUP3 ADD SWAP1 POP SWAP3 SWAP2 POP POP JUMP JUMPDEST PUSH1 0x0 DUP3 DUP3 MSTORE PUSH1 0x20 DUP3 ADD SWAP1 POP SWAP3 SWAP2 POP POP JUMP JUMPDEST PUSH1 0x0 DUP3 DUP3 MSTORE PUSH1 0x20 DUP3 ADD SWAP1 POP SWAP3 SWAP2 POP POP JUMP JUMPDEST PUSH1 0x0 PUSH2 0x16A8 DUP3 PUSH2 0x1725 JUMP JUMPDEST SWAP2 POP PUSH2 0x16B3 DUP4 PUSH2 0x1725 JUMP JUMPDEST SWAP3 POP DUP3 PUSH32 0xFFFFFFFFFFFFFFFFFFFFFFFFFFFFFFFFFFFFFFFFFFFFFFFFFFFFFFFFFFFFFFFF SUB DUP3 GT ISZERO PUSH2 0x16E8 JUMPI PUSH2 0x16E7 PUSH2 0x181D JUMP JUMPDEST JUMPDEST DUP3 DUP3 ADD SWAP1 POP SWAP3 SWAP2 POP POP JUMP JUMPDEST PUSH1 0x0 PUSH2 0x16FE DUP3 PUSH2 0x1705 JUMP JUMPDEST SWAP1 POP SWAP2 SWAP1 POP JUMP JUMPDEST PUSH1 0x0 PUSH20 0xFFFFFFFFFFFFFFFFFFFFFFFFFFFFFFFFFFFFFFFF DUP3 AND SWAP1 POP SWAP2 SWAP1 POP JUMP JUMPDEST PUSH1 0x0 DUP2 SWAP1 POP SWAP2 SWAP1 POP JUMP JUMPDEST DUP3 DUP2 DUP4 CALLDATACOPY PUSH1 0x0 DUP4 DUP4 ADD MSTORE POP POP POP JUMP JUMPDEST PUSH1 0x0 JUMPDEST DUP4 DUP2 LT ISZERO PUSH2 0x175C JUMPI DUP1 DUP3 ADD MLOAD DUP2 DUP5 ADD MSTORE PUSH1 0x20 DUP2 ADD SWAP1 POP PUSH2 0x1741 JUMP JUMPDEST DUP4 DUP2 GT ISZERO PUSH2 0x176B JUMPI PUSH1 0x0 DUP5 DUP5 ADD MSTORE JUMPDEST POP POP POP POP JUMP JUMPDEST PUSH1 0x0 PUSH1 0x2 DUP3 DIV SWAP1 POP PUSH1 0x1 DUP3 AND DUP1 PUSH2 0x1789 JUMPI PUSH1 0x7F DUP3 AND SWAP2 POP JUMPDEST PUSH1 0x20 DUP3 LT DUP2 EQ ISZERO PUSH2 0x179D JUMPI PUSH2 0x179C PUSH2 0x184C JUMP JUMPDEST JUMPDEST POP SWAP2 SWAP1 POP JUMP JUMPDEST PUSH2 0x17AC DUP3 PUSH2 0x18ED JUMP JUMPDEST DUP2 ADD DUP2 DUP2 LT PUSH8 0xFFFFFFFFFFFFFFFF DUP3 GT OR ISZERO PUSH2 0x17CB JUMPI PUSH2 0x17CA PUSH2 0x18AA JUMP JUMPDEST JUMPDEST DUP1 PUSH1 0x40 MSTORE POP POP POP JUMP JUMPDEST PUSH1 0x0 PUSH2 0x17DF DUP3 PUSH2 0x1725 JUMP JUMPDEST SWAP2 POP PUSH32 0xFFFFFFFFFFFFFFFFFFFFFFFFFFFFFFFFFFFFFFFFFFFFFFFFFFFFFFFFFFFFFFFF DUP3 EQ ISZERO PUSH2 0x1812 JUMPI PUSH2 0x1811 PUSH2 0x181D JUMP JUMPDEST JUMPDEST PUSH1 0x1 DUP3 ADD SWAP1 POP SWAP2 SWAP1 POP JUMP JUMPDEST PUSH32 0x4E487B7100000000000000000000000000000000000000000000000000000000 PUSH1 0x0 MSTORE PUSH1 0x11 PUSH1 0x4 MSTORE PUSH1 0x24 PUSH1 0x0 REVERT JUMPDEST PUSH32 0x4E487B7100000000000000000000000000000000000000000000000000000000 PUSH1 0x0 MSTORE PUSH1 0x22 PUSH1 0x4 MSTORE PUSH1 0x24 PUSH1 0x0 REVERT JUMPDEST PUSH32 0x4E487B7100000000000000000000000000000000000000000000000000000000 PUSH1 0x0 MSTORE PUSH1 0x32 PUSH1 0x4 MSTORE PUSH1 0x24 PUSH1 0x0 REVERT JUMPDEST PUSH32 0x4E487B7100000000000000000000000000000000000000000000000000000000 PUSH1 0x0 MSTORE PUSH1 0x41 PUSH1 0x4 MSTORE PUSH1 0x24 PUSH1 0x0 REVERT JUMPDEST PUSH1 0x0 DUP1 REVERT JUMPDEST PUSH1 0x0 DUP1 REVERT JUMPDEST PUSH1 0x0 DUP1 REVERT JUMPDEST PUSH1 0x0 DUP1 REVERT JUMPDEST PUSH1 0x0 PUSH1 0x1F NOT PUSH1 0x1F DUP4 ADD AND SWAP1 POP SWAP2 SWAP1 POP JUMP JUMPDEST PUSH32 0x4A756D6C616820646174612079616E6720696E67696E206469616D62696C206D PUSH1 0x0 DUP3 ADD MSTORE PUSH32 0x656C6562696869206A756D6C616820746F74616C20646174612079616E672074 PUSH1 0x20 DUP3 ADD MSTORE PUSH32 0x6572736564696100000000000000000000000000000000000000000000000000 PUSH1 0x40 DUP3 ADD MSTORE POP JUMP JUMPDEST PUSH2 0x197C DUP2 PUSH2 0x16F3 JUMP JUMPDEST DUP2 EQ PUSH2 0x1987 JUMPI PUSH1 0x0 DUP1 REVERT JUMPDEST POP JUMP JUMPDEST PUSH2 0x1993 DUP2 PUSH2 0x1725 JUMP JUMPDEST DUP2 EQ PUSH2 0x199E JUMPI PUSH1 0x0 DUP1 REVERT JUMPDEST POP JUMP INVALID LOG2 PUSH5 0x6970667358 0x22 SLT KECCAK256 PUSH4 0xAD29F72C 0xA5 0xC2 KECCAK256 0xDA EXTCODECOPY LT PUSH17 0x206DF886B4ED3C05DEB67AB78565412741 SIGNEXTEND 0xC3 PC PUSH5 0x736F6C6343 STOP ADDMOD SMOD STOP CALLER "
				},
				"gasEstimates": {
					"creation": {
						"codeDepositCost": "1323000",
						"executionCost": "1376",
						"totalCost": "1324376"
					},
					"external": {
						"ambilDataKonsultasi(address)": "infinite",
						"ambilDataPasien(address)": "infinite",
						"ambilSemuaDataKonsultasi(uint256,uint256)": "infinite",
						"tambahData(address,string,string,string,string,string,string,string,address)": "infinite"
					}
				},
				"methodIdentifiers": {
					"ambilDataKonsultasi(address)": "634918a9",
					"ambilDataPasien(address)": "69047b5d",
					"ambilSemuaDataKonsultasi(uint256,uint256)": "07cff41c",
					"tambahData(address,string,string,string,string,string,string,string,address)": "51b9725c"
				}
			},
			"storageLayout": {
				"storage": [
					{
						"astId": 21,
						"contract": "contracts/consultation.sol:Consultation",
						"label": "akunKonsultasi",
						"offset": 0,
						"slot": "0",
						"type": "t_array(t_address)dyn_storage"
					},
					{
						"astId": 26,
						"contract": "contracts/consultation.sol:Consultation",
						"label": "dataKonsultasi",
						"offset": 0,
						"slot": "1",
						"type": "t_mapping(t_address,t_struct(Data)18_storage)"
					}
				],
				"types": {
					"t_address": {
						"encoding": "inplace",
						"label": "address",
						"numberOfBytes": "20"
					},
					"t_array(t_address)dyn_storage": {
						"base": "t_address",
						"encoding": "dynamic_array",
						"label": "address[]",
						"numberOfBytes": "32"
					},
					"t_mapping(t_address,t_struct(Data)18_storage)": {
						"encoding": "mapping",
						"key": "t_address",
						"label": "mapping(address => struct Consultation.Data)",
						"numberOfBytes": "32",
						"value": "t_struct(Data)18_storage"
					},
					"t_string_storage": {
						"encoding": "bytes",
						"label": "string",
						"numberOfBytes": "32"
					},
					"t_struct(Data)18_storage": {
						"encoding": "inplace",
						"label": "struct Consultation.Data",
						"members": [
							{
								"astId": 3,
								"contract": "contracts/consultation.sol:Consultation",
								"label": "name",
								"offset": 0,
								"slot": "0",
								"type": "t_string_storage"
							},
							{
								"astId": 5,
								"contract": "contracts/consultation.sol:Consultation",
								"label": "phone",
								"offset": 0,
								"slot": "1",
								"type": "t_string_storage"
							},
							{
								"astId": 7,
								"contract": "contracts/consultation.sol:Consultation",
								"label": "doctorName",
								"offset": 0,
								"slot": "2",
								"type": "t_string_storage"
							},
							{
								"astId": 9,
								"contract": "contracts/consultation.sol:Consultation",
								"label": "session",
								"offset": 0,
								"slot": "3",
								"type": "t_string_storage"
							},
							{
								"astId": 11,
								"contract": "contracts/consultation.sol:Consultation",
								"label": "date",
								"offset": 0,
								"slot": "4",
								"type": "t_string_storage"
							},
							{
								"astId": 13,
								"contract": "contracts/consultation.sol:Consultation",
								"label": "symptom",
								"offset": 0,
								"slot": "5",
								"type": "t_string_storage"
							},
							{
								"astId": 15,
								"contract": "contracts/consultation.sol:Consultation",
								"label": "gender",
								"offset": 0,
								"slot": "6",
								"type": "t_string_storage"
							},
							{
								"astId": 17,
								"contract": "contracts/consultation.sol:Consultation",
								"label": "wallet",
								"offset": 0,
								"slot": "7",
								"type": "t_address"
							}
						],
						"numberOfBytes": "256"
					}
				}
			},
			"userdoc": {
				"kind": "user",
				"methods": {},
				"version": 1
			}
		}
	}
}